:020000040800F2
:10000000E80600208901000891010008930100081A
:100010009501000897010008990100080000000000
:100020000000000000000000000000009B0100082C
:100030009D010008000000009F010008A1010008C8
:10004000A3010008A3010008A3010008A301000800
:10005000A3010008A3010008A3010008A3010008F0
:10006000A3010008A3010008A301000891020008F1
:10007000B1020008D1020008F102000811030008D3
:100080003103000851030008A3010008A301000880
:10009000A3010008A3010008A3010008A3010008B0
:1000A000A3010008A3010008A3010008A3010008A0
:1000B000A3010008A3010008A3010008A301000890
:1000C000A3010008A3010008A3010008A301000880
:1000D000A3010008BD090008710B0008A301000876
:1000E000A3010008A3010008A301000800F002F822
:1000F00000F03AF80AA090E8000C82448344AAF188
:100100000107DA4501D100F02FF8AFF2090EBAE885
:100110000F0013F0010F18BFFB1A43F0010318473B
:10012000B41E0000D41E0000103A24BF78C878C165
:10013000FAD8520724BF30C830C144BF04680C60ED
:10014000704700000023002400250026103A28BF35
:1001500078C1FBD8520728BF30C148BF0B60704739
:100160001FB51FBD10B510BD00F058F81146FFF7C0
:10017000F7FF01F0A5FE00F076F803B4FFF7F2FFF9
:1001800003BC00F07DF8000009488047094800479B
:10019000FEE7FEE7FEE7FEE7FEE7FEE7FEE7FEE737
:1001A000FEE7FEE704480549054A064B7047000094
:1001B000D9080008ED000008E8000020E80600204B
:1001C000E8020020E80200204FF0000200B51346CC
:1001D00094469646203922BFA0E80C50A0E80C5067
:1001E000B1F12001BFF4F7AF090728BFA0E80C5018
:1001F00048BF0CC05DF804EB890028BF40F8042B11
:1002000008BF704748BF20F8022B11F0804F18BF7D
:1002100000F8012B7047704770477047754600F033
:100220002BF8AE4605006946534620F00700854688
:1002300018B020B5FFF7B6FFBDE820404FF000062C
:100240004FF000074FF000084FF0000B21F00701BE
:10025000AC46ACE8C009ACE8C009ACE8C009ACE801
:10026000C0098D46704710B50446AFF300802046A4
:10027000BDE81040FFF781BF0048704784000020B0
:1002800001491820ABBEFEE7260002007047704708
:1002900010B50548006800F00F040348446020468C
:1002A000FFF7F5FF10BD000000000240704700009E
:1002B00010B505480068C0F30314200102494860E6
:1002C0002046FFF7F3FF10BD00000240704700001A
:1002D00010B505480068C0F30324200202494860B5
:1002E0002046FFF7F3FF10BD0000024070470000FA
:1002F00010B505480068C0F3033420030249486084
:100300002046FFF7F3FF10BD0000024070470000D9
:1003100010B505480068C0F3034420040249486052
:100320002046FFF7F3FF10BD0000024070470000B9
:1003300010B505480068C0F3035420050249486021
:100340002046FFF7F3FF10BD000002407047000099
:1003500010B505480068C0F30364200602494860F0
:100360002046FFF7F3FF10BD0000024018B500283B
:1003700044D0C0F34211C0F30322214B9B6903F028
:1003800001032BB91E4B9B6943F001031C4CA36175
:1003900000F48053A3B11B4BDB69009300F01F03F3
:1003A00001FA03F3009C9C43009400F01F0302FA3F
:1003B00003F3009C23430093124C009BE3611DE078
:1003C000104B5B68009300F01F0301FA03F3009CDD
:1003D0009C43009400F01F0302FA03F3009C2343A4
:1003E000009307210022009B23EA01630093009BF6
:1003F00043EA02630093034C009B636018BD000056
:10040000001002400000014001461D48814204D115
:100410001C488069C0F3800070471B48814204D1AA
:1004200018488069C0F3C000F6E71848814204D13B
:1004300014488069C0F30010EEE71548814204D1EA
:1004400010488069C0F34010E6E71248814204D1A9
:100450000C488069C0F38010DEE70F48814204D168
:1004600008488069C0F3C010D6E70C48814204D127
:1004700004488069C0F30020CEE70020CCE70000EC
:100480000008014000100240000C01400010014033
:100490000014014000180140001C014000200140F0
:1004A0002DE9F0410246002500260020002300240B
:1004B000002791F803C00CF00F0591F803C00CF071
:1004C000100CBCF1000F03D091F802C04CEA0505F6
:1004D00091F800C0BCF1000F31D0146800202BE06F
:1004E0004FF0010C0CFA00F3B1F800C00CEA03065F
:1004F0009E4220D183004FF00F0C0CFA03F7BC434F
:1005000005FA03FC4CEA040491F803C0BCF1280F7F
:1005100006D14FF0010C0CFA00FCC2F814C00AE03E
:1005200091F803C0BCF1480F05D14FF0010C0CFA53
:1005300000FCC2F810C0401C0828D1D31460B1F8E8
:1005400000C0BCF1FF0F34DD546800202EE000F144
:10055000080C4FF0010808FA0CF3B1F800C00CEADF
:1005600003069E4221D183004FF00F0C0CFA03F7D3
:10057000BC4305FA03FC4CEA040491F803C0BCF147
:10058000280F05D100F1080C08FA0CF8C2F8148005
:1005900091F803C0BCF1480F07D100F1080C4FF0EF
:1005A000010808FA0CF8C2F81080401C0828CED3C5
:1005B0005460BDE8F0812DE9F04105460C46174630
:1005C00098460F2C02D90020BDE8F0812846FFF79D
:1005D0001BFF18B90121284600F02AF8B8F1000FD6
:1005E00010D1022F05D1E8680121A1408843E860BD
:1005F00008E0032F06D127F00107E8680121A14098
:100600000843E860082C01D22E4601E0083C2E1D6C
:100610003068A2000F2191408843306048EA87008B
:10062000A10088403168084330600120CCE7000019
:10063000002945D0454A904206D1454A926942F088
:100640000402434B9A6180E0424A904206D1404AFC
:10065000926942F008023E4B9A6176E03E4A90422F
:1006600006D13B4A926942F01002394B9A616CE024
:100670003A4A904206D1364A926942F02002344BFF
:100680009A6162E0364A904206D1314A926942F05C
:1006900040022F4B9A6158E0324A904206D12C4AD0
:1006A000926942F080022A4B9A614EE02E4A9042B3
:1006B0004BD1274A926942F48072254B9A6144E0FB
:1006C000224A904206D1224A926922F00402204B2B
:1006D0009A613AE01F4A904206D11D4A926922F07F
:1006E00008021B4B9A6130E01B4A904206D1184A1F
:1006F000926922F01002164B9A6126E0174A904246
:1007000006D1134A926922F02002114B9A611CE033
:10071000134A904206D10E4A926922F040020C4BD5
:100720009A6112E00F4A904206D1094A926922F07A
:100730008002074B9A6108E00B4A904205D1044AB7
:10074000926922F48072024B9A617047000801405E
:1007500000100240000C0140001001400014014054
:1007600000180140001C01400020014029B1064A48
:1007700092690243044B9A6104E0034A92698243FE
:10078000014B9A61704700000010024008B501213A
:100790000C20FFF7EBFF4FF48050ADF80000102065
:1007A0008DF8030003208DF8020069460C48FFF71E
:1007B00077FE4FF40070ADF8000001208DF80200C4
:1007C00010208DF8030069460648FFF769FE0020F7
:1007D0000549086001200549C1F8A40108BD0000D1
:1007E00000080140000C0140B0012142008021427C
:1007F00010B500F001F810BD0CB50020019000907C
:100800003348006840F480303149086000BF304808
:10081000006800F4003000900198401C019000989E
:1008200018B90198B0F5A06FF1D12948006800F41B
:10083000003010B10120009001E0002000900098ED
:10084000012843D12348006840F010002149086086
:100850000846006820F0030008600846006840F081
:10086000020008601A484068194948600846406814
:1008700048600846406840F4806048600846406828
:1008800020F47C1048600846406840F4E810486056
:100890000846006840F08070086000BF0C4800689F
:1008A00000F000700028F9D00948406820F00300EB
:1008B000074948600846406840F00200486000BFB1
:1008C0000348406800F00C000828F9D10CBD000076
:1008D000001002400020024010B51348006840F0AC
:1008E00001001149086008464068104908400E4957
:1008F0004860084600680E4908400B4908600846F1
:10090000006820F4802008600846406820F4FE005B
:1009100048604FF41F008860FFF76AFF4FF00060E7
:100920000449086010BD0000001002400000FFF8FC
:10093000FFFFF6FE08ED00E010B501F095FAFFF7B5
:1009400025FF4CF2503001F0A3FA00F03FF800F020
:1009500017F910BD70B504460D46034A29462046D6
:1009600000F00CFA70BD0000E41E000808B5024853
:1009700000F014FE009008BDE41E000808B502480F
:1009800000F00FFE009008BDE41E000810B50248FC
:1009900000F032FE10BD0000E41E000808B5024859
:1009A00000F02EFE009008BDE41E000810B50248BD
:1009B00000F061FE10BD0000E41E000810B5024802
:1009C00000F05DFE10BD0000E41E000808B5012126
:1009D0000420FFF7CBFE4FF48070ADF80000032039
:1009E0008DF8020010208DF8030069461348FFF7C8
:1009F00057FD134881681348884711480169022050
:100A000088470F484FF41651826A012090470C48DE
:100A10000121826A1520904709480121826A162027
:100A2000904701200849086005481E21426907A037
:100A300090474CF2503001F02BFA08BD00080140FD
:100A4000641F0008050B0008A001214269276D20E2
:100A500075736172743120666F7220446576343824
:100A6000355F5641575F4F4B0D0A000010B50446E5
:100A70000249204600F03BFF10BD0000E41E0008C4
:100A800010B504460249204600F0C6FF10BD000024
:100A9000E41E000870B504460D46034A2946204668
:100AA00001F08CF870BD0000E41E000870B504462B
:100AB0000D46034A2946204601F0D1F870BD0000DA
:100AC000E41E000810B504460249204601F00BF967
:100AD00010BD0000E41E000870B504460D46164621
:100AE000034B32462946204601F04BF970BD000009
:100AF000E41E000810B5024801F078F910BD0000AE
:100B0000E41E00087047000070B504460D46034A15
:100B10002946204600F032F970BD00002C1F000865
:100B200008B5024800F03AFD009008BD2C1F0008EF
:100B300008B5024800F035FD009008BD2C1F0008E4
:100B400010B5024800F058FD10BD00002C1F000831
:100B500008B5024800F054FD009008BD2C1F0008A5
:100B600010B5024800F087FD10BD00002C1F0008E2
:100B700010B5024800F083FD10BD00002C1F0008D6
:100B800008B501210420FFF7F1FD1020ADF80000A9
:100B900003208DF8020010208DF8030069461448E8
:100BA000FFF77EFC134881681348884711480169A4
:100BB000022088470F484FF41651826A012090475F
:100BC0000C480121826A152090470A480121826A57
:100BD0001620904701200949086006481E214269F5
:100BE00007A090474CF2503001F052F908BD0000C8
:100BF000000801409C1F0008B90C00089001214228
:100C000069276D2075736172743120666F7220449C
:100C100065763438355F4150505F4F4B0D0A000008
:100C200010B504460249204600F061FE10BD0000E8
:100C30002C1F000810B504460249204600F0ECFEC7
:100C400010BD00002C1F000870B504460D46034A75
:100C50002946204600F0B2FF70BD00002C1F00089E
:100C600070B504460D46034A2946204600F0F7FFBA
:100C700070BD00002C1F000810B504460249204634
:100C800001F031F810BD00002C1F000870B50446BB
:100C90000D461646034B32462946204601F071F8B0
:100CA00070BD00002C1F000810B5024801F09EF82E
:100CB00010BD00002C1F000870470000B2B000BF3C
:100CC000642119A8FFF780FA00BF64216846FFF786
:100CD0007BFA00BF0020224908602249C1F8900138
:100CE00021486421826919A89047204864218269BB
:100CF000684690479DF864000A2815D101201849DC
:100D0000086019480421426919A090474CF25030FC
:100D100001F0BEF800208DF8640001201149C1F8EF
:100D2000B0010020144908609DF800000B28D1D1C3
:100D300001200B49103908600C48042142690CA0BD
:100D400090474CF2503001F0A3F800208DF80000DD
:100D50000449C1F8B001012007490860BAE7000062
:100D6000A001214200002142641F00089C1F0008CE
:100D70004F4B0D0A00000000A48121422DE9FE4FD7
:100D800007460D461446206BC07A00F0020018B9E1
:100D90004FF0FF30BDE8FE8F002000908046834674
:100DA000F8B2153806287CD2DFE800F0A3DC032C6B
:100DB0004E6CA5B1606B90F8210010B16FF001008E
:100DC000E8E70120616B81F82100616B81F8200068
:100DD0006068808940F081006168888110E0606B04
:100DE00090F8200060B16068808920F08000616820
:100DF00088810020616B81F82000616B81F82100FF
:100E00000020C7E76068808920F0C00061688881A1
:100E1000A06A88B1606B90F8210068B16068808A30
:100E200020F0800061688882A16A0868016821F06A
:100E30000101016000BF00BF0020616B81F820004C
:100E4000616B81F82100A5E76068808920F02000AF
:100E500061688881E06A80B1206B407968B1606820
:100E6000808A20F0400061688882E16A0868016831
:100E700021F00101016000BF00BF0021206B417122
:100E8000002087E76068808920F0E0006168888141
:100E9000A06A98B1606B90F8210078B16068808A90
:100EA00000E0C2E020F0800061688882A16A0868E2
:100EB000016821F00101016000BF00BFE06A80B15C
:100EC000206B407968B16068808A20F040006168DA
:100ED0008882E16A0868016821F00101016000BFB1
:100EE00000BF0021206B41710020616B81F821005F
:100EF00050E7E06810B94FF0FF304BE7BDB1206B11
:100F0000C068062806D0E268918803231068022290
:100F1000FFF751FB206BC07A40F00800216BC872CC
:100F20006068808940F008006168888118E0606826
:100F3000808920F0080061688881206BC07A20F0E9
:100F40000800216BC872206BC068062808D0E068D2
:100F500030B1E2689188002310681A46FFF72BFB36
:100F6000002017E7206910B94FF0FF3012E7E5B312
:100F7000206BC06806280AD0206BC068042806D001
:100F800022699188002310680122FFF714FB206B6F
:100F9000C07A40F01000216BC8726068808A40F00F
:100FA0000100616888826068008A40F040006168E2
:100FB00008826068808940F0100061688881206B39
:100FC000407918B1E06A08B1012000E0002028B99A
:100FD0006068808940F0200061688881606880894D
:100FE00040F00400616888811DE0FFE76068808947
:100FF00020F0040061688881206BC07A20F0100026
:10100000216BC872206BC06806280CD0206BC068AA
:10101000042808D0206930B1226991880023106823
:101020001A46FFF7C8FA0020B4E600BF00BF206BE5
:10103000407918B9606B90F8210010B16FF0010091
:10104000A8E66068808900F0080038B16068008810
:1010500000F0400010B96FF001009BE6F8B21528CF
:1010600072D2DFE800F0C90B0E1D20252AC9C9C9BC
:10107000C9C9C9C9C9C9373B697EB80001200290F6
:10108000BDE02078C0F3400020B148F4006848F487
:10109000807802E06FF006007CE602200290AEE06D
:1010A0006FF0060076E64BF0080B04200290A6E0F5
:1010B0004BF0020B05200290A1E02078C0F3401015
:1010C00010B14BF0200B02E06FF0060062E6062044
:1010D000029094E0616B4D8300205BE6206BC0685A
:1010E000052824D015B36068808A40F00400616848
:1010F0008882D4F808A0FE48B0FBFAFA012605E081
:101100000AFB06F0A84200D902E0761CFF2EF7D9B0
:1011100000BFB6F5807F02D14FF0FF303AE660683D
:10112000008B20F0FF0030436168088302E04FF03D
:10113000FF302FE600202DE6206BC06806280BD17B
:10114000FF2D02D9C01F25E656E06068008BC0B2B3
:1011500028436168088302E04FF0FF301AE6002060
:1011600018E6206BC068062830D1D4F808A0E04803
:10117000B0FBFAFA012619E00AFB06F040006421F0
:10118000484305EB051101EB4101B0EB410F0CD2D7
:101190000AFB06F040006421484305EB051101EB12
:1011A0004511B0EB410F00D902E0761C402EE3D38D
:1011B00000BF402E02D14FF0FF30EBE56068008B9E
:1011C00020F0FF0030436168088302E04FF0FF30F9
:1011D000E0E50020DEE5206BC068062807D14DB1B0
:1011E0006068808A40F010006168888202E04FF0F9
:1011F000FF30CFE50020CDE56FF00300CAE500BF6A
:1012000007F4E06060B1B0F5807F13D0B0F5E06F17
:101210001DD107F4405010B96FF00800BAE519E08D
:1012200007F4405028B148F02008009840F480505E
:1012300000900FE007F4405010B16FF00800A9E5EE
:1012400048F02008009840F48050009002E06FF0D1
:1012500008009FE500BF07F4405030B1B0F5805F53
:1012600004D0B0F5005F0BD105E00CE0009840F42D
:101270008060009007E0009840F4C060009002E0B9
:101280006FF0090086E500BF07F4404048B1B0F5B3
:10129000804F07D0B0F5004F07D0B0F5404F0AD1CE
:1012A00006E00BE048F4005808E048F4405805E038
:1012B00048F4805802E06FF00A006BE500BF07F4C5
:1012C000403048B1B0F5803F09D0B0F5003F13D0B1
:1012D000B0F5403F2ED11CE04FF000092DE0207802
:1012E000C0F3C01020B14FF480394BF4807B02E092
:1012F0006FF00B004EE520E02088C0F3002020B105
:101300004FF400394BF4C06B02E06FF00B0041E585
:1013100013E02078C0F3C01040B12088C0F3002053
:1013200020B14FF440394BF4E06B02E06FF00B005A
:1013300030E502E06FF00B002CE500BF02980228B8
:101340001DD107F4802018B1B0F5802F04D100E042
:1013500005E048F4806802E06FF00C001AE500BF79
:1013600007F4002018B1B0F5002F04D100E005E02B
:1013700048F4007802E06FF00D000BE500BFA068B4
:1013800000EBC00101EB0010A900B0FBF1F06421FB
:10139000B0FBF1F1A06800EBC00202EB0010AA0064
:1013A000B0FBF2F0A26802EBC20303EB0212AB0047
:1013B000B2FBF3F26423B2FBF3F202EBC20303EBE2
:1013C0000212A0EB8200322202EB00106422B0FB7A
:1013D000F2FA61F31F1AA06800011FFA8AF1B0FB4C
:1013E000F1F00009019064210198484305EB0511D3
:1013F00001EB4101B0EB410F09D264210198484350
:1014000005EB051101EB4511B0EB410F02D86FF070
:101410000700BFE46068808920F40050616888811B
:101420006168A1F808A00298216BC860206BC0F821
:101430001090206BC068062809D1E06830B1E268DE
:101440009188032310680222FFF7B5F817E0206B9C
:10145000C07A00F0080048B1E06880B1E268918885
:10146000032310680222FFF7A6F808E0E06830B115
:10147000E2689188002310681A46FFF79CF800BFC5
:10148000206BC068042802D006280BD100E000BF02
:10149000206930B122699188002310681A46FFF74D
:1014A0008AF818E0206BC07A00F0100048B120697B
:1014B00080B122699188002310680122FFF77BF830
:1014C00008E0206930B122699188002310681A462B
:1014D000FFF771F800BF00BF6069D0B1206BC06832
:1014E000022802D006280BD100BF6269918801E072
:1014F00000CA9A3B032310680222FFF75CF807E05A
:1015000062699188002310681A46FFF754F800BFFB
:1015100000BFA069A0B1B9F5803F02D0B9F5403F46
:1015200007D1A2699188032310680222FFF743F8CC
:1015300006E0A2699188002310681A46FFF73BF87D
:10154000E069A0B1B9F5003F02D0B9F5403F07D13D
:10155000E2699188002310680122FFF72CF806E069
:10156000E2699188002310680122FFF724F80098AF
:10157000616888816168A1F810806168A1F814B081
:101580006068808940F4005061688881206BC07A6F
:1015900040F00400216BC872002011E40146086885
:1015A000704708B50146009820F001000090086BD4
:1015B000006920B1086B0069B0F5803F0ED1C869A1
:1015C00060B1CB6998881A689368C34003F001033F
:1015D00023B9009820F00100401C0090009820F0F2
:1015E00002000090009820F008000090009820F081
:1015F00004000090009808BD0146486B00697047E0
:1016000008B50146486B90F8210028B1009820F0F9
:101610000100401C009008E048680088012222EA8E
:101620009012009862F300000090086B42790098D5
:1016300062F341000090086B8279009862F38200A7
:101640000090086BC279009862F3C3000090086BA9
:10165000027A009862F304100090086B427A0098B6
:1016600062F345100090086B827A009862F386104E
:101670000090009808BD0146486B406970472DE90D
:10168000F04104466068068800270025A84606F059
:101690002000616889890840002860D0206B40796B
:1016A00038B9606880880121206BC17145F0200540
:1016B00055E0206BC068022806D1606BC069012824
:1016C00002D16068808802E06068B0F80480606BD6
:1016D0008268501C636B986082F80080606887891C
:1016E00007F4806050B907F4805038B14FEA2821E0
:1016F000606B8268501C636B98601170606B00694E
:10170000401C616B0861606B0069616B096888420D
:1017100025D16068808920F01000616888810021EF
:10172000206B4171206BC068022816D1606BC769BD
:101730000020616BC861012F04D0022F05D0032F58
:1017400009D105E045F0010506E045F0020503E09A
:1017500045F0040500E000BF01E045F0020506F099
:10176000100061688989084018B16068808845F078
:10177000400506F08000616889890840002863D030
:10178000606B90F8200030B16068808940F0010003
:101790006168888158E0606B4068616B4969884284
:1017A00022D0206BC068022807D1606BC069022874
:1017B00003D1606BB0F81A8016E0606BC168481CFA
:1017C000626BD06091F800806068878907F4806060
:1017D00050B907F4805038B1606BC168481C626B27
:1017E000D060087848EA0028606B4069401C616B53
:1017F00048616068A0F80480606B4068616B49696B
:10180000884221D16068808920F0800061688881E9
:101810006068808940F04000616888810020616BC9
:1018200081F82100206BC06802280BD1606BC06971
:10183000012809D1206BC07A00F0100020B945F0D2
:10184000010501E045F0010506F040006168898965
:10185000084038B16068808920F040006168888164
:1018600045F0080506F0080030B160688088012165
:10187000206BC17145F0200506F0020030B16068B0
:1018800080880121206B417245F4807506F00100CB
:1018900030B1606880880121206B817245F4007549
:1018A00006F4807050B16068008820F48070616830
:1018B00008800121206B017245F0800506F400705C
:1018C00038B16068008820F400706168088045F4D1
:1018D000806525B1206B006808B1012000E0002080
:1018E00018B1206B016828468847BDE8F08170B5C3
:1018F00005460C46206BC07A00F0010008B10020BC
:1019000070BD206B05600020216B08710021206BE9
:101910004171206B8171206BC171206B0172206B52
:101920004172206B81720020216BC860616B81F86D
:1019300021002421606BFEF747FC608CFEF716FD4A
:10194000E06820B1E16808680121FEF771FE2069B6
:1019500020B1216908680121FEF76AFE606920B1A3
:10196000616908680121FEF763FEA06920B1A169E1
:1019700008680121FEF75CFEE06920B1E1690868B2
:101980000121FEF755FE0120216BC8720020B7E748
:101990001D49884205D11D49C96841F480411B4A4F
:1019A000D1601B49884205D11849096941F40031C9
:1019B000164A11611749884205D11449096941F451
:1019C0008021124A116100BF00BF00BF00BF0E4955
:1019D000884205D10D49C96821F480410B4AD16084
:1019E0000B49884205D10949096921F40031074AA8
:1019F00011610849884205D10449096921F480210F
:101A0000024A116170470000003801400010024096
:101A1000004400400048004070B505460C4625B122
:101A2000012D49D0022D7DD149E06068FFF7B0FF5C
:101A300094F9240000F01F0201219140594A430902
:101A400042F8231000BF58496068884205D15748C2
:101A5000806920F480405549886155496068884212
:101A600005D15248C06920F400305049C86151493D
:101A70006068884205D14D48C06920F480204B49F8
:101A8000C8610020216B08710021206B4171206B1F
:101A90008171206BC171206B0172206B4172206BD0
:101AA00081720020616B81F82100206BC07A20F0E8
:101AB0000200216BC87272E06FF0030070BD206BF2
:101AC000C07A00F0010010B94FF0FF30F6E7206B4C
:101AD000C07A00F0020008B10020EFE70020216B7F
:101AE00008710021206B4171206B8171206BC171E5
:101AF000206B0172206B4172206B81720020616B40
:101B000081F82100616B4883616BC861616B81F86A
:101B10002000216BC860216B08610320216BC87213
:101B2000214900E038E06068884205D11F4880699B
:101B300040F480401D4988611D496068884205D194
:101B40001A48C06940F400301849C86119496068F2
:101B5000884205D11548C06940F480201349C86106
:101B600094F9240000F01F0201219140124A430918
:101B700042F8231000BF94F9240000F01F02012155
:101B800091404209920002F1E022C2F8001100BF28
:101B90006068FFF7FDFE02E06FF003008EE700BF14
:101BA00000208BE780E100E0003801400010024097
:101BB000004400400048004080E200E02DE9F04190
:101BC00005460E46144605B11EB96FF00400BDE887
:101BD000F081206BC07A00F0040010B94FF0FF30A4
:101BE000F5E7206B4079012801D1C01EEFE760685E
:101BF000808920F0200061688881606B0660002188
:101C0000206B0172206B4172206BC171206B81725D
:101C1000606B85600020616B08610121206B417160
:101C20006068808940F0300061688881206BC068FE
:101C3000022812D1606BC06978B90220616BC8615B
:101C4000616B01F11A002246314600F008F80746A0
:101C5000B81C10B96FF00100B9E70020B7E72DE913
:101C6000F04105460E46144605B11EB96FF004005A
:101C7000BDE8F081206BC07A00F0040010B94FF08D
:101C8000FF30F5E7606B90F8210010B16FF00100B4
:101C9000EEE70120616B81F82100606BC560606B2D
:101CA00046600020616B4861206BC068022812D139
:101CB000606BC06978B90120616BC861616B01F12B
:101CC000180022463146FFF779FF0746B81C10B9C5
:101CD0006FF00100CCE76068808940F080006168A7
:101CE00088810020C4E770B5044634B1012C22D0AD
:101CF000022C3FD0032C3CD13DE0086B006920B1A1
:101D0000086B0069B0F5003F11D1886990B18D6909
:101D1000AA88012328681BB101259540056104E0CC
:101D200002F110050126AE40066100BF02E04FF04F
:101D3000FF3070BD22E0086B006920B1086B0069BC
:101D4000B0F5003F11D1886990B18D69AA88002350
:101D500028681BB101259540056104E002F11005DA
:101D60000126AE40066100BF02E04FF0FF30E0E721
:101D700004E000BF00BF4FF0FF30DAE700BF0020F3
:101D8000D7E72DE9F04180460E4617461C46B8F1CC
:101D9000000F01D006B11FB96FF00400BDE8F0815B
:101DA000206BC07A00F0040010B94FF0FF30F5E767
:101DB000206BC068022814D10320616BC8612246E1
:101DC00039463046FFF7FAFE05460DB12846E5E7ED
:101DD000224639464046FFF742FF054625B12846D0
:101DE000DCE74FF0FF30D9E70020D7E710B5044615
:101DF000E06830B1E2689188002310681A46FEF767
:101E0000DAFB206930B122699188002310681A46F4
:101E1000FEF7D1FB606930B16269918800231068D8
:101E20001A46FEF7C8FBA06930B1A2699188002369
:101E300010681A46FEF7BFFBE06930B1E26991888D
:101E4000002310681A46FEF7B6FB208CFEF78EFAC8
:101E50000020216BC87210BD08B5024800680090D0
:101E600008BD0000D01E00080748006840F08070E0
:101E7000054908600020054948600846006840F0B0
:101E80000100086070470000FCED00E0001000E079
:101E900030B5084C63680021074C2468074DB4FB3B
:101EA000F5F404FB00F202E0024C6468E11A91428E
:101EB000FAD330BD001000E00000002040420F00C7
:101EC00010B5FEF739FDFEF7F9FE002010BD000049
:101ED000020202020008014009000000000801405F
:101EE0000A000000390600000038014000A24A0440
:101EF000D41E0008DC1E00080000000000000000E6
:101F00000000000022002200250000000000000068
:101F100000000000140000202800002000080140FC
:101F20000200000000080140030000003906000024
:101F300000440040005125021C1F0008241F000817
:101F4000000000000000000000000000230023004B
:101F50002600000000000000000000004C000020EF
:101F600060000020591E00086D0900086D0A000875
:101F7000F50A0008810A0008AD0A0008950A000861
:101F8000D90A0008AD0900088D09000855090008A4
:101F90009D090008C50A00087D090008591E0008AF
:101FA000210B0008210C0008A90C0008350C0008C2
:101FB000610C0008490C00088D0C0008610B00083A
:101FC000410B0008090B0008510B0008790C0008B0
:101FD000310B0008F41F000800000020140000006E
:101FE000280100080820000814000020D406000082
:101FF0004401000800A24A040000000000000000A4
:082000000102030406070809B0
:04000005080000ED02
:00000001FF
