:020000040800F2
:10000000E0110020511D00084509000847090008BB
:100010004B0900084F0900085309000800000000C0
:100020000000000000000000000000005709000868
:1000300059090008000000005B0900085D0900087C
:100040006B1D00086B1D00086B1D00086B1D000870
:100050006B1D00086B1D00086B1D00086B1D000860
:100060006B1D00086B1D00086B1D00086B1D000850
:100070006B1D00086B1D00082B0F00086B1D00088E
:100080006B1D00086B1D00086B1D00086B1D000830
:100090006B1D00086B1D00086B1D00086B1D000820
:1000A0006B1D00086B1D00086B1D00086B1D000810
:1000B000731A00086B1D00086B1D00086B1D0008FB
:1000C0006B1D00086B1D00086B1D00086B1D0008F0
:1000D0006B1D00084D0E00086B1D00086B1D00080D
:1000E0005F0900086B1D00086B1D000800F002F896
:1000F00000F045F80AA090E8000C82448344AAF17D
:100100000107DA4501D100F03AF8AFF2090EBAE87A
:100110000F0013F0010F18BFFB1A43F0010318473B
:10012000FC3C00001C3D0000103A24BF78C878C198
:10013000FAD8520724BF30C830C144BF04680C60ED
:10014000704700000023002400250026103A28BF35
:1001500078C1FBD8520728BF30C148BF0B60704739
:100160001FB503F0F2FC03F0C5FD040000200021E0
:1001700003F03EFE401C60601FBD10B510BD03F0D3
:10018000C1FD1146FFF7ECFF00F0C3FA03F0DFFDFD
:1001900003B4FFF7F2FF03BC03F024FE0B49D1F8D0
:1001A00000C04A685CF8043B1068184442F8040B2D
:1001B0008C4528BFA1F1DC0C8A4228BFA1F1DC02EA
:1001C000C1F800C04A6020F000407047780B002062
:1001D000FE4909680160FD49091D09684160FB4944
:1001E000083109688160704770B500240025F8481F
:1001F00001F038FF0446F74801F034FF05462411AA
:10020000E04384B204F00F042D13E84385B205F0F7
:100210000F0505EB850004EB4000C0B270BD10B5C2
:100220000024ED4801F01EFF0446641300BF032CB8
:1002300003D11920E94908800AE0072C03D11720CF
:10024000E649088004E0052C02D11820E349088023
:10025000E0B210BDFFB503460D460022002100208C
:10026000172B2AD0182B50D0192B5CD1DC4ED6E995
:10027000007CD6E90246CDE9007CCDE9024600BF0C
:100280000BE01DF802401CB901240DF8024002E009
:1002900000240DF80240541CA2B2102AF1DB002108
:1002A00008E01DF801401CB901248C400443A0B2B1
:1002B0004C1CA1B20829F4DB36E0DFF824C3DCE9EA
:1002C0000074DCE9026CCDE9026CCDE90074002217
:1002D0000BE01DF802401CB901240DF8024002E0B9
:1002E00000240DF80240541CA2B2102AF1DB0021B8
:1002F00008E01DF801401CB901248C400443A0B261
:100300004C1CA1B21029F4DB0EE0002108E0B44C33
:10031000645C1CB101248C400443A0B24C1CA1B20B
:100320001029F4DB00E000BF00BF04B0F0BD70B5E1
:1003300005460C461646012C06D0022C06D0032C8E
:1003400006D0042C38D105E0012437E0022435E042
:10035000042433E0306868BBA248008803F0E0FB67
:10036000FFF71CFFB42190FBF1F201FB1200401CCF
:1003700030604FF47A7130684843306000BFFFF757
:100380000DFFC4B2032094FBF0F100FB1140401CB0
:10039000C4B2012C00D105E0022C00D102E0032CF4
:1003A00000D104242878A04200D101E02C7000E0A4
:1003B000E5E700BF287870BD002400BF00BF2C70A7
:1003C0002878F8E700B589B00020089083480088B5
:1003D000172852D018287CD019287BD1804991E861
:1003E0000D00C9688DE80D0003919DF801109DF87E
:1003F000000061F31F107C4908709DF803109DF800
:10040000020061F31F10784948709DF805109DF8AF
:10041000040061F31F10744988709DF807109DF85F
:10042000060061F31F107049C8709DF809109DF80F
:10043000080061F31F106C4908719DF80B109DF8BE
:100440000A0061F31F10684948719DF80D109DF86E
:100450000C0061F31F10644988719DF80F109DF81E
:100460000E0061F31F106049C87103C9CDE9040192
:1004700008215D4801F046F934E1594BD3E90012F7
:10048000D3E90203CDE90203CDE900129DF8011082
:100490009DF8000061F31F10534908709DF8031088
:1004A0009DF8020061F31F104F4948709DF8051038
:1004B0009DF8040061F31F104B4988709DF80710E8
:1004C0009DF8060061F31F104749C8709DF8091098
:1004D00001E026E005E19DF8080061F31F104249A4
:1004E00008719DF80B109DF80A0061F31F103E493A
:1004F00048719DF80D109DF80C0061F31F103A49EA
:1005000088719DF80F109DF80E0061F31F10364999
:10051000C87103C9CDE904010821334801F0F2F89C
:10052000E0E02F480178314A2F48FFF700FF2C48C0
:1005300041782E4A121D2C48401CFFF7F8FE28482F
:1005400081782A4A08322848801CFFF7F0FE2448A8
:10055000C178264A0C322448C01CFFF7E8FE204828
:100560000179224A10322048001DFFF7E0FE1C48A6
:1005700041791E4A14321C48401DFFF7D8FE184826
:1005800081791A4A18321848801DFFF7D0FE1448A6
:10059000C179164A1C321448C01DFFF7C8FE104826
:1005A000017A124A203210480830FFF7C0FE0C488A
:1005B000417A0E4A24320C480930FFF7B8FE084849
:1005C000817A0A4A283208480A3011E0E8F7FF1F0A
:1005D00000080140000C01400010014024000020F0
:1005E000A000002014000020BC00002060000020BB
:1005F000FFF79DFEC748C17AC74AC848FFF797FE74
:10060000C448017BC44A121DC448401CFFF78FFE3A
:10061000C048417BC04A0832C048801CFFF787FEB3
:10062000BC48817BBC4A0C32BC48C01CFFF77FFE33
:10063000B848C17BB84A1032B848001DFFF777FEB2
:10064000B6480B384178007861F31F10C0B28DF8BE
:100650001800B2480B38C178807861F31F10C0B21F
:100660008DF81900AD480B384179007961F31F10FE
:10067000C0B28DF81A00A9480B38C179807961F3AE
:100680001F10C0B28DF81B00A4480B38417A007AC5
:1006900061F31F10C0B28DF81C00A0480B38C17A5E
:1006A000807A61F31F10C0B28DF81D009B480B3893
:1006B000417B007B61F31F10C0B28DF81E0097488C
:1006C0000B38C17B807B61F31F10C0B28DF81F0017
:1006D000DDE90601CDE90401082106A801F012F8C0
:1006E00000E000BF00BF8E48006850B18D49087817
:1006F00004A9FFF7AFFD0890022108A801F039F81E
:1007000005E000200890022108A801F032F809B0A5
:1007100000BD88B0002484A103C9CDE9060101F021
:10072000A7FA01F00FFB01F01BF98148FFF750FD1C
:10073000FFF75AFD7F490870FFF771FD794800887F
:10074000172804D018280CD0192814D100BF002471
:1007500004E000206F490855601CC4B2102CF8DB7F
:100760000AE0002404E000206A490855601CC4B275
:10077000102CF8DB00E000BF00BF4FF47A7001F0EE
:10078000B4FA4FF4614000F0FDF941F61F41092031
:1007900001F034F940F6B830674908800020674915
:1007A0000870642066490880B3E064480078002837
:1007B0004BD16148008840F2DC51884244DD002082
:1007C0005D4908804FF4A050ADF8080000208DF876
:1007D0000A0000218DF80B108DF80C108DF80D100B
:1007E0005048007800024F49098840EA212080B231
:1007F000ADF80E004E4800788DF810004C48008887
:10080000010A8DF811104A480068010C8DF8121089
:1008100047480068010E8DF8131001208DF8140070
:1008200002208DF8150000208DF8180002208DF8A8
:1008300019009DF8150006AB02AA4BF6BB310090DB
:100840004AF6AA2000F071FC5AE0FFF7CDFC3949C6
:10085000087039480088B0F5FA6F51DD002036493C
:1008600008804FF4A050ADF8080000208DF80A0071
:1008700000218DF80B108DF80C108DF80D10294803
:10088000007800022749098840EA212080B2ADF8AB
:100890000E00274800788DF8100025480088010ACE
:1008A0008DF8111022480068010C8DF812102048B4
:1008B0000068010E8DF8131002208DF81400052039
:1008C0008DF8150000208DF8180004208DF819000F
:1008D000184800788DF81A001248008800128DF828
:1008E0001B00104800788DF81C009DF8150006AB21
:1008F00002AA4BF6BB3100904AF6AA2000F015FC84
:10090000FFF760FD00F0B4FE0D48008808B900F064
:100910006EFB4AE7A00000208C000020C7000020EA
:10092000200121422400002001030048000505DFCA
:10093000B000002022000020120000201000002043
:1009400020000020704700BFFEE700BFFEE700BFA9
:10095000FEE700BFFEE7704770477047704710B56D
:100960004FF4806003F0B2F890B14FF4806003F070
:10097000BEF80848006820F4806006490860064810
:10098000007810B101200549087001200449087061
:1009900010BD000000040140290000202A000020B2
:1009A000280000200CB50020019000906C480068E1
:1009B00040F480306A49086000BF6948006800F46C
:1009C000003000900198401C0190009818B90198DF
:1009D000B0F5A06FF1D16248006800F4003010B1AA
:1009E0000120009001E0002000900098012843D1F0
:1009F0005C48006840F010005A49086008460068EA
:100A000020F0030008600846006840F0020008601B
:100A10005348406852494860084640684860084664
:100A2000406840F4806048600846406820F47C10CC
:100A300048600846406840F4E8104860084600688E
:100A400040F08070086000BF4548006800F000700A
:100A50000028F9D04248406820F00300404948602F
:100A60000846406840F00200486000BF3C484068CB
:100A700000F00C000828F9D10CBD10B5FFF792FF6B
:100A800010BD10B53648006840F0010034490860D8
:100A900008464068344908403149486008460068C3
:100AA000324908402E4908600846006820F480203A
:100AB00008600846406820F4FE0048604FF41F00BC
:100AC0008860FFF7DAFF4FF000602949086010BD29
:100AD00010B5002100200022214B5B6803F00C01BF
:100AE00021B1042906D0082928D107E0214B224C46
:100AF000236027E01F4B204C236023E0184B5B68EA
:100B000003F47010164B5B6803F48032022303EB8E
:100B1000904022B9194B4343174C23600DE0104B12
:100B20005B6803F4003323B1144B4343124C23603E
:100B300003E0104B4343104C236003E00D4B0E4C7D
:100B4000236000BF00BF064B5B68C3F303130C4C6C
:100B5000E15C094B1B68CB40074C236010BD0000D3
:100B600000100240002002400000FFF8FFFFF6FEE8
:100B700008ED00E000127A003400002000093D007A
:100B80003800002010B588B004460121084601F065
:100B90007CFC0121880301F085FC0121042001F087
:100BA00081FC4FF40070ADF81C0018208DF81F0078
:100BB00003208DF81E0007A94C4801F0B7F94FF447
:100BC0008060ADF81C0004208DF81F0007A947487D
:100BD00001F0ACF903940020ADF81000ADF812005C
:100BE000ADF81400ADF818000C20ADF8160003A9FC
:100BF0003F4801F0FEFC25208DF8080003208DF809
:100C000009008DF80A0001208DF80B0002A801F000
:100C1000C4F80E208DF8080003208DF809008DF827
:100C20000A0001208DF80B0002A801F0B6F800229E
:100C300040F227712E4801F074FD002240F2255148
:100C40002B4801F06EFD002240F22661284801F099
:100C500068FD012240F22441254801F062FD012295
:100C60008021234801F082FD01224021204801F02B
:100C70007DFD00201021C8231E4ACDE900101C492B
:100C8000091D1D4800F082FE00211B4801F03FFFB6
:100C900000200090C823174AC8321549091D019049
:100CA0001548143000F072FE01211348143001F091
:100CB0002EFF01220221104801F035FF4FF4805031
:100CC00001F054FF4FF4803001F050FF012108483B
:100CD00001F01BFD40F6A4110648083802F083FF1E
:100CE000012004490839487108B010BD00080140CE
:100CF00000380140D4000020440002402DE9F05F9C
:100D000080460E46914600241CE016F814A06000B0
:100D1000401C16F800B0504602F0F2FE3038C5B262
:100D2000092D01DDE81FC5B2584602F0E9FE303852
:100D3000C7B2092F01DDF81FC7B207EB051008F88D
:100D40000400641C4C45E0DBBDE8F09FF0B50346B1
:100D500000201EE00E5CF71706EB17773F1107F136
:100D600030050E5CF71706EB17773F11A6EB071758
:100D70003037FCB2392D01DDEE1DF5B2392C01DD25
:100D8000E61DF4B203F81050012606EB40069C5510
:100D9000401C9042DEDB002603F81260F0BD0246E4
:100DA000002100BF05E0505C08B101207047481CDD
:100DB000C1B20329F7DB0020F8E730B502460B4645
:100DC000002010E012F8014B6040002109E000F023
:100DD00001041CB18C2484EA600000E040104C1C2B
:100DE000E1B20829F3DB1C1EA3F10105EBB2E9D146
:100DF00030BD2DE9F04105460E4690460027FE48DD
:100E0000C47900BF1DE004EBC40101EB0412FB49EF
:100E100001EBC200FFF7C3FF58B904EBC40101EBBB
:100E20000412F64901EBC2003246294602F096FE52
:100E300009E0042C01DB002401E0601CC4B2781C32
:100E4000C7B2052FDFDB00BFBDE8F0812DE9F0411F
:100E500000260027002540F22441E94801F046FD24
:100E6000002860D04FF4803001F080FE40F2244131
:100E7000E34801F065FDE2480488001D0488002174
:100E8000E04801F044FEDF4801F058FEC0F1C8051B
:100E90003220DD490880C82D38D2152D36D3D648EA
:100EA00090F8D000AA2831D1D34890F8D100AA28D0
:100EB0002CD1D14890F8E00000F11104CE48D03098
:100EC000005DBB2822D1CC48D030611C405CBB28DF
:100ED0001CD1A01CC1B2C848D030FFF76EFF074636
:100EE000C548D030A11C405CB8420FD1C24890F830
:100EF000D260E01CC1B23246BF48D030FFF779FF64
:100F0000C2480068C043C249C1F8BC01A11CBA482C
:100F1000D03002F068FEC820BA495839C8650121AE
:100F2000B84801F0F4FDBDE8F08110B54FF4005071
:100F300001F027FEF8B10120AF4948710021B14806
:100F4000143801F0E4FD4FF4805001F02EFE00BF94
:100F50004021AB4801F0B4FC0128F9D10020AB4995
:100F600010390860AA49C1F8AC010846D0F8BC01A4
:100F7000C043C1F8BC0110BD9F484088401C9E4939
:100F80004880704710B50446002300BF2BE003EBF8
:100F9000C30101EB03129F4901EBC200FFF7FFFE03
:100FA00001281ED103EBC30000EB0311994800EBAD
:100FB000C1008078A04214D18F488079984204D132
:100FC00001208D4908710020488003EBC30000EB2D
:100FD0000311904800EBC1000021016041600181D4
:100FE00003E0581CC3B2052BD1DB00BF10BD7CB59C
:100FF000002581484088642803DA7F48007900B9D9
:101000007CBD00207C4908714880002240F22441C8
:101010007B4801F086FB002202217A48143801F057
:1010200082FD7548847900256EE004EBC40101EB74
:101030000412784901EBC200FFF7B1FE01285AD132
:101040006D488079A0421CD16B484078401C6A49A9
:10105000487008464078012813DD0020487004EBF2
:10106000C40000EB04116B4800EBC10000210160DB
:1010700041600181042C01DB002401E0601CC4B24A
:1010800040E05D4800218160C160018200F5CC70C4
:10109000025D04EBC40000EB04135E4800EBC301E7
:1010A000A0F5CD7002F05AFD0120584910390860B2
:1010B0005749C1F8AC0100201021C8234E4A08321C
:1010C000CDE900104E49091D4E48143800F05EFC71
:1010D00050480A38015D4B48143800F081FC01216A
:1010E000474801F012FB444884710020424948718E
:1010F000087148800AE0042C01DB002401E0601C38
:10110000C4B200BF681CC5B2052D8EDB00BF012232
:1011100002213C48143801F006FD012240F224412E
:10112000374801F0FEFA00BF6AE72DE9FF5F074686
:10113000884692460E9D4FF0000BD9460026C82DDA
:1011400001DDBDE8FF9F002240F224412C4801F060
:10115000E8FA002202212B48143801F0E4FC26486A
:1011600084794FF0000B92E004EBC40101EB041210
:10117000284901EBC200FFF712FE00287DD104EBE5
:10118000C40000EB0412234800F83270391204EB5B
:10119000C40000EB04121F4800EBC2004170164867
:1011A000017804EBC40000EB04121A4800EBC20003
:1011B000817004EBC40101EB0412164901EBC2017A
:1011C000C81C0E22514602F0C9FC04EBC40101EB1D
:1011D0000412104901EBC20101F111002A460399E2
:1011E00002F0BCFC04EBC40000EB0412094800EB65
:1011F000C20205F111000FE0CC00002056060020CD
:10120000003801405800024020000020BC0121426B
:10121000000021426E02002002F800804FEA2821DF
:1012200004EBC40000EB0412FE4800EBC20205F11F
:1012300012001154401CC6B204EBC40101EB0412AD
:10124000F84901EBC2003146FFF7B7FD814604EBD8
:10125000C40000EB0411F34800EBC10000F8069055
:10126000701CC1B2EF480A380155A0F5CC70007867
:10127000401CED4908700EE0FFE7042C01DB002460
:1012800001E0601CC4B20BF1010000F0FF0BBBF1E8
:10129000050FFFF669AF00BF01220221E34801F00C
:1012A00042FC012240F22441E14801F03AFA00BF39
:1012B00047E72DE9F04106460D460027002240F29F
:1012C0002441DB4801F02DFA00220221D74801F029
:1012D0002AFCD548847900BF20E004EBC40101EB6F
:1012E0000412D04901EBC200FFF759FD70B904EBBD
:1012F000C40101EB0412CB4901EBC2002A4631467E
:1013000002F02CFCC7480A38055509E0042C01DB23
:10131000002401E0601CC4B2781CC7B2052FDCDBDE
:1013200000BF01220221C14801F0FDFB012240F271
:101330002441BF4801F0F5F9BDE8F08110B5EEB0E9
:1013400004460E22E11C6AA802F008FC9DF8B521B3
:1013500004F1110134A802F001FCBDF8AE01000255
:10136000BDF8AE1140EA212080B2ADF8AE01BDF863
:10137000A8010002BDF8A81140EA212080B2ADF812
:10138000A8019DF8B401012817D19DF8D1009DF85E
:10139000D01040EA012020B1012803D002280AD150
:1013A00001E009E008E0BDF8AE01142802D10120F7
:1013B000A049087000E000BF57E19DF8B401022881
:1013C000FAD19DF8D1009DF8D01040EA01200728FD
:1013D0007ED2DFE800F00405067D0721AB0043E183
:1013E00042E141E1BDF8AE01172807D0BDF8AE01DA
:1013F000182803D0BDF8AE0119280CD19DF8D200F1
:101400008D490978884203D100208C49086002E0A8
:1014100001208A49086027E1FEF7E6FE8649087048
:10142000BDF8AE0114287DD1BDF8A8018449098812
:1014300088427AD19DF8D2007F490978884274D1D8
:101440004FF4A050ADF898019DF8B0018DF89A01C5
:101450006AA8417A66A8C1706AA8817A66A80171F3
:101460006AA8C17A66A8417175480078000274497B
:10147000098840EA212080B2ADF89E0171480078C9
:101480008DF8A0016F480088010A66A841726D4876
:101490000068010C66A881726A480068010E66A89F
:1014A000C17202208DF8A40115208DF8A50100203D
:1014B0008DF8080006208DF809005F4800788DF847
:1014C0000A005F48008800128DF80B005C4800E0BD
:1014D000C9E000788DF80C0010220DF1D5015A48B2
:1014E00002F03CFB102258490DF10D0002F036FBD2
:1014F0009DF8A50102AB66AA4BF6BB3100904AF6F7
:10150000AA20FFF712FE012050490860C82000F011
:10151000ECFB00204E49C1F8A4014E4800210160B7
:10152000416000E001E08160C1609DE0FEF75CFE8B
:1015300041490870BDF8AE01142871D1BDF8A80169
:101540003F49098888426BD19DF8D2003A49097811
:10155000884265D19DF8D2003749097888425FD129
:101560004FF4A050ADF898019DF8B0018DF89A01A4
:101570006AA8417A66A8C1706AA8817A66A80171D2
:101580006AA8C17A66A841712D48007800022C49EA
:10159000098840EA212080B2ADF89E0129480078F0
:1015A0008DF8A00127480088010A66A841722548E5
:1015B0000068010C66A8817222480068010E66A8C6
:1015C000C17202208DF8A40115208DF8A50100201C
:1015D0008DF8080006208DF80900174800788DF86E
:1015E0000A001748008800128DF80B001448007894
:1015F0008DF80C00102214490DF10D0002F0AEFA26
:101600009DF8A50102AB66AA4BF6BB3100904AF6E5
:10161000AA20FFF78AFD01200C490860C8201BE0C2
:1016200020E000006E020020CC00002044000240B8
:10163000003801401000002022000020B0012142AB
:1016400024000020B0000020A0000020A48121423E
:10165000008021426000002000F047FB0020254967
:10166000C1F8A40100E000BF00BF01206EB010BDB2
:1016700010B50024002240F224411F4801F051F827
:10168000002202211D4801F04EFA00BF22E004EBC7
:10169000C40101EB04121A4901EBC200FFF77FFB02
:1016A000012815D104EBC40101EB0412144901EB2C
:1016B000C200FFF743FE50B104EBC40000EB04117D
:1016C0000F4800EBC100002101604160018103E08F
:1016D000601CC4B2052CDADB00BF012202210748DE
:1016E00001F021FA012240F22441034801F019F8E7
:1016F00010BD00000080214200380140440002403B
:10170000560600202DE9F04105460F4600247C1EB8
:1017100020E000261BE0285D00F0800018B10020CA
:101720003049086002E001202E49086000202D4960
:1017300008390860012000F0B4FA01202A49C1F8F4
:101740009001285D4006000E2855701CC6B2082E78
:10175000E1DB641E002CDCDA002022490C39086031
:10176000012000F09EFA01201F49C1F88C01BDE85C
:10177000F0812DE9F04105460F4600247C1E22E051
:1017800000261DE0285D00F0800020B101201549F1
:101790001431086003E00020124914310860002071
:1017A000104914390860012000F07BFA01200E492D
:1017B000C1F88401285D4006000E2855701CC6B291
:1017C000082EDFDB641E002CDADA00200549183908
:1017D0000860012000F065FA01200349C1F880018A
:1017E000BDE8F081988121420080214208B50121A5
:1017F0001C2000F057FE0121084600F053FE012195
:10180000594800F064FC0121584800F060FC4FF496
:101810001040ADF8000010208DF8030003208DF873
:1018200002006946524800F081FB4FF40070ADF8A9
:10183000000010208DF8030003208DF80200694697
:101840004C4800F073FB4FF46040ADF800004820B6
:101850008DF803006946484800F068FBF020ADF8B9
:10186000000048208DF803006946414800F05EFB07
:101870004FF48070ADF8000048208DF803006946F1
:101880003B4800F053FB4FF4C070ADF80000482017
:101890008DF803006946374800F048FB4FF470406C
:1018A000ADF8000048208DF803006946314800F08B
:1018B0003DFB4FF40060ADF8000010208DF80300F0
:1018C00003208DF802006946294800F02FFB40F6FE
:1018D0000340ADF8000010208DF8030003208DF8C0
:1018E00002006946234800F021FB7820ADF8000093
:1018F00010208DF8030003208DF8020069461D4872
:1019000000F014FB00201D490860012000F0EDF9F3
:1019100000201B49C1F8A801012018490860174997
:101920001431086015490839086000F0DEF901201B
:101930001249143908601149091F08600F4910390C
:10194000086000200F4908600C4910310860012030
:101950000C49091D086000200B49C1F8BC0108BDF5
:1019600010B5FFF743FF10BD000430000002300047
:1019700000080140000C0140001001409481214208
:1019800000802142AC012142000021422DE9F047B4
:1019900007460C4615461E46DDE9088900213846F3
:1019A00001F0B5F8384600F0E5FF134804604560E3
:1019B000C0F80880C66000200F4908618020486197
:1019C00000208861C8610846C0F820904FF440505C
:1019D000486200208862384601F06EF8BDE8F08762
:1019E00070B504460D462946204601F0A5F80121B0
:1019F000204601F08CF870BD700A00207FB50546C6
:101A00000C460121084600F05AFDADF80850ADF82B
:101A100004400020ADF80A00ADF8060001A94FF01F
:101A2000804001F0A5F901221146900701F017FD51
:101A30001C208DF8000000208DF8010003208DF897
:101A4000020001208DF80300684600F0A6F901218C
:101A5000880701F0E9FC7FBD10B500214FF0804000
:101A600001F0E2FC10BD10B50121880701F0DCFC9B
:101A700010BD10B50121880701F09FFF00287AD022
:101A80000121880701F0AAFFFFF776FA7448008861
:101A9000401C734908807348006820B97148006889
:101AA0007049086004E06F480068401E6D49086096
:101AB0006C48406820B96B4840686A49486004E057
:101AC00068484068401E674948606648806820B999
:101AD000644880686349886004E062488068401E0A
:101AE000604988605F48C06820B95E48C0685D4949
:101AF000C86004E05B48C068401E5A49C860594845
:101B0000006920B9574800695649086104E0554802
:101B10000069401E534908615248406920B9514844
:101B200040695049486104E04E484069401E4D49B3
:101B300048614C48806920B94A48806949498861B0
:101B400004E048488069401E464988614548C069AC
:101B500020B94448C0694349C86104E04148C069AC
:101B6000401E4049C8613F48006A28B93D48006AA4
:101B70003C49086205E071E03A48006A401E394974
:101B800008623848406A20B93648406A3549486298
:101B900004E03448406A401E324948623148806A55
:101BA00020B93048806A2F49886204E02D48806A55
:101BB000401E2C4988622B48C06A20B92948C06A57
:101BC0002849C86204E02748C06A401E2549C86207
:101BD0002448006B20B92348006B2249086304E0C5
:101BE0002048006B401E1F4908631E48406B20B907
:101BF0001C48406B1B49486304E01A48406B401E78
:101C0000184948631748806B20B91648806B1549FE
:101C1000886304E01348806B401E124988631148B2
:101C2000C06B20B90F48C06B0E49C86304E00D4873
:101C3000C06B401E0B49C8630B48008820B90A4896
:101C400000880949088004E007480088401E0649CA
:101C5000088006480088401C0449088010BD000028
:101C6000140000206000002020000020120000204E
:101C700010B56FF0040000F0DAF82E4800682E4925
:101C8000B0FBF1F02D4908700846007800EB4001E8
:101C9000C1EBC0104FF6FF7101EAC000284908806F
:101CA00010BD0146254A12784A434FF0E0235A619D
:101CB00000229A611A46126942F001021A6100BFBD
:101CC0004FF0E022106900F001021AB100F48032F6
:101CD000002AF5D04FF0E022126922F001024FF005
:101CE000E0231A6100229A6170470146144A128863
:101CF0004A434FF0E0235A6100229A611A46126962
:101D000042F001021A6100BF4FF0E022106900F0BA
:101D100001021AB100F48032002AF5D04FF0E0221F
:101D2000126922F001024FF0E0231A6100229A6149
:101D3000704700003400002000127A0048000020A4
:101D40004A00002010B54FF4A06000F021F810BD4B
:101D50000948804709480047FEE7FEE7FEE7FEE73F
:101D6000FEE7FEE7FEE7FEE7FEE7FEE7044805497B
:101D7000054A064B70470000830A0008ED00000882
:101D8000E00B0020E0110020E00D0020E00D00201D
:101D900031490143314A1160704770B50021002379
:101DA0000F22C47804B32D4C246804F4E064C4F515
:101DB000E064210AC1F10403CA40447804FA03F143
:101DC0008478144021430901254C0678A1550478F4
:101DD00004F01F050124AC4005786D11AD0005F13C
:101DE000E025C5F8004109E0047804F01F0501244E
:101DF000AC401C4D0678761145F8264070BD1A4A55
:101E00000A400243154B1B1F1A60704739B1134A31
:101E1000121D12680243114B1B1D1A6006E00F4A87
:101E2000121D126882430D4B1B1D1A607047042857
:101E300008D14FF0E021096941F004014FF0E022A0
:101E4000116107E04FF0E021096921F004014FF032
:101E5000E0221161704700000000FA050CED00E07F
:101E600000E400E080E100E080FFFF1F10B50446C1
:101E7000CC48844208D10121042000F02DFB002130
:101E8000042000F029FB46E0C748844208D1012124
:101E9000082000F021FB0021082000F01DFB3AE0A3
:101EA000C248844208D10121102000F015FB002116
:101EB000102000F011FB2EE0BD48844208D1012122
:101EC000202000F009FB0021202000F005FB22E08B
:101ED000B848844208D10121402000F0FDFA0021D9
:101EE000402000F0F9FA16E0B348844208D10121FD
:101EF000802000F0F1FA0021802000F0EDFA0AE0E5
:101F0000AE48844207D10121801500F0E5FA002196
:101F1000A01500F0E1FA10BD10B50121084600F04F
:101F2000DBFA0021012000F0D7FA10BD2DE9F041C5
:101F3000024600250026002000230024002791F8F7
:101F400003C00CF00F0591F803C00CF0100CBCF1AD
:101F5000000F03D091F802C04CEA050591F800C0CB
:101F6000BCF1000F31D0146800202BE04FF0010CC1
:101F70000CFA00F3B1F800C00CEA03069E4220D12F
:101F800083004FF00F0C0CFA03F7BC4305FA03FC77
:101F90004CEA040491F803C0BCF1280F06D14FF0BD
:101FA000010C0CFA00FCC2F814C00AE091F803C05E
:101FB000BCF1480F05D14FF0010C0CFA00FCC2F83F
:101FC00010C0401C0828D1D31460B1F800C0BCF187
:101FD000FF0F34DD546800202EE000F1080C4FF0B4
:101FE000010808FA0CF3B1F800C00CEA03069E429F
:101FF00021D183004FF00F0C0CFA03F7BC4305FA14
:1020000003FC4CEA040491F803C0BCF1280F05D18D
:1020100000F1080C08FA0CF8C2F8148091F803C01B
:10202000BCF1480F07D100F1080C4FF0010808FA85
:102030000CF8C2F81080401C0828CED35460BDE8CC
:10204000F0814FF6FF710180022181700421C1707F
:1020500070470246002093680B400BB1012000E05E
:10206000002070470146886880B270470246002011
:10207000D3680B400BB1012000E0002070470146FF
:10208000C86880B2704701617047416170470AB10A
:10209000016100E041617047C16070474FF48032D8
:1020A0000A43826181618261826982697047024666
:1020B0000020434B18684FF68073184040EA021026
:1020C00008433F4B186070473E49C8617047F0B500
:1020D0000A46002300240021002500F00046B6F146
:1020E000004F02D1364EF16901E0354E7168C0F300
:1020F000034583B200F44016B6F5401F08D121F025
:1021000070612F4E766826F070662D4F7E6012E06B
:1021100000F48016B6F5801F06D1032606FA05F4F2
:10212000A14341F0706106E0460D360103FA06F660
:10213000B14341F0706122B1460D360103FA06F653
:10214000314300F00046B6F1004F02D11C4EF16160
:1021500001E01B4E7160F0BD30B500228B071C0FF3
:102160000F2303FA04F2164B08338C1053F8243073
:102170009343134C08348D1044F8253023468C10BB
:1021800053F824308C07240F00FA04F423430C4C3A
:1021900008348D1044F8253030BD0A49DC31086020
:1021A0007047000000080140000C01400010014091
:1021B0000014014000180140001C014000200140B3
:1021C0000000014000002042DF48006840F00100AC
:1021D000DD49086008464068DC490840DA49486043
:1021E00008460068DA490840D74908600846006890
:1021F00020F4802008600846406820F4FE00486013
:102200004FF41F0088607047CF49096821F480317E
:10221000CD4A11601146096821F480211160B0F5A2
:10222000803F03D0B0F5802F0ED106E0C649096883
:1022300041F48031C44A116007E0C349096841F4A0
:10224000A021C14A116000E000BF00BF704710B577
:1022500001460022002300204A11012A02D1BA4C73
:10226000236806E0022A02D1B74C236A01E0B64C8B
:10227000636A01F01F02012494401C400CB101204C
:1022800000E0002010BD38B500200090002400259B
:1022900000BF3120FFF7DBFF05460098401C00908F
:1022A0000098B0F5A06F01D0002DF2D03120FFF7DB
:1022B000CEFF08B1012400E00024204638BD0146CD
:1022C0000020A14A106820F0F80040EAC100106028
:1022D0007047A04908607047024600209A4B586832
:1022E00020F47C1042EA01031843974B5860704772
:1022F00098490866704701460020934A506820F0CC
:1023000003000843506070478F48406800F00C009D
:102310007047014600208C4A506820F0F0000843C6
:102320005060704701460020874A506820F4E06002
:1023300008435060704701460020834A506820F4EB
:10234000605040EAC1005060704729B17E4A527A1D
:1023500002437D4B5A7204E07B4A527A82437A4BA5
:102360005A7270477B49D831086070470146002097
:10237000754A506820F4404008435060704700217F
:10238000714A20321170704A82F82010012802D060
:1023900004280AD104E001216B4A2032117005E0C3
:1023A0000521694A2032117000E000BF00BF70476C
:1023B0006949086070476449096A0143624A1162C9
:1023C0007047654944390860704730B500210022E4
:1023D000002400235C4D6D6805F00C0121B1042937
:1023E00005D0082923D105E05C4D056022E05B4D56
:1023F00005601FE0544D6D6805F47012524D6D6814
:1024000005F48034022505EB92421CB9544D554326
:1024100005600BE04C4D6D6805F400351DB1504D65
:102420005543056002E04D4D5543056002E04B4DBC
:10243000056000BF00BF444D6D6805F0F00109095B
:10244000484D6B5C0568DD4045603F4D6D6805F4A7
:10245000E061090A434D6B5C4568DD4085603A4D9B
:102460006D6805F46051C90A3E4D6B5C4568DD40FE
:10247000C560354D6D6805F44041890B3A4D6B5C84
:10248000C568B5FBF3F5056130BD29B12E4A526927
:1024900002432D4B5A6104E02B4A526982432A4B76
:1024A0005A61704729B1284A92690243264B9A61C2
:1024B00004E0254A92698243234B9A61704729B10F
:1024C000214AD2690243204BDA6104E01E4AD269F4
:1024D00082431D4BDA61704729B11B4AD26802431F
:1024E000194BDA6004E0184AD2688243164BDA606E
:1024F000704729B1144A12690243134B1A6104E070
:10250000114A12698243104B1A61704712494039CF
:10251000086070470F49C86470470B49C87170471D
:102520000948406A40F08070074948627047014698
:102530000020054A92680A400AB1012000E000200C
:102540007047014988727047001002400000FFF890
:10255000FFFFF6FE000042428004424200127A0071
:1025600000093D004C0000205C00002010B504462E
:10257000FB48844209D101218803FFF7ADFF002108
:102580004FF48040FFF7A8FF32E0F648844209D1BB
:1025900001214804FFF7ADFF00214FF40030FFF7A1
:1025A000A8FF25E0F048844209D101218804FFF703
:1025B000A0FF00214FF48020FFF79BFF18E0EB48BD
:1025C000844209D10121C804FFF793FF00214FF491
:1025D0000020FFF78EFF0BE0E548844208D101217F
:1025E0000805FFF786FF00214FF48010FFF781FFF9
:1025F00010BD2DE9F04786B005460E460024A246E0
:1026000000BFA1460027B08900B100BF2F462C8A29
:102610004CF6FF700440F08804432C82AC894EF6DF
:10262000F3100440B088318908437189084304439A
:10263000AC81AC8A4FF6FF400440B0890443AC82C1
:1026400001A8FFF7C2FEC648874202D1DDF810A0FC
:1026500001E0DDF80CA0A88900F4004040B10AEBCD
:10266000CA0000EB0A1031684900B0FBF1F807E03E
:102670000AEBCA0000EB0A1031688900B0FBF1F8E0
:102680006420B8FBF0F004012009642101FB1089EB
:10269000A88900F4004040B1322000EBC900B0FB33
:1026A000F1F000F00700044308E0322000EB0910CD
:1026B0006421B0FBF1F000F00F0004432C8106B060
:1026C000BDE8F0874FF41651016000218180C18080
:1026D00001810C21418100218181704710B50246A2
:1026E0000020108A4FF2FF0318400B884C882343C8
:1026F0008C882343CC8823431843108210BD0021CB
:10270000018041808180C180704721B1828942F47B
:102710000052828104E082894DF6FF731A40828163
:102720007047F0B50346002400260025002040F63F
:102730006A17B94200D100BF1846C1F3421401F034
:102740001F06012707FA06F5012C01D10C3004E021
:10275000022C01D1103000E014301AB107682F4369
:10276000076002E00768AF430760F0BD1AB1838AD3
:102770000B43838202E0838A8B4383827047028A01
:102780004FF6F0731A400282028A0A4302827047AF
:1027900082894FF2FF731A40828182890A438281C3
:1027A000704721B1828942F00202828104E082896D
:1027B0004FF6FD731A4082817047028A4FF6DF732D
:1027C0001A400282028A0A430282704721B1028AB9
:1027D00042F48042028204E0028A4BF6FF731A4000
:1027E00002827047C1F308028280704701468888E0
:1027F000C0F308007047818941F001018181704771
:10280000028BD2B20283028B42EA0122028370471A
:10281000028B02F47F420283028B0A4302837047D9
:1028200021B1828A42F02002828204E0828A4FF63D
:10283000DF731A408282704721B1828A42F010020F
:10284000828204E0828A4FF6EF731A4082827047D8
:1028500021B1828A42F00802828204E0828A4FF625
:10286000F7731A408282704721B1828942F4004294
:10287000828103E08289C2F30E028281704721B116
:10288000828A42F40062828204E0828A4FF2FF73FD
:102890001A4082827047828A4FF6FB731A40828206
:1028A000828A0A438282704721B1828A42F0020200
:1028B000828204E0828A4FF6FD731A40828270475A
:1028C00002460020B1F5007F00D100BF13880B4005
:1028D0000BB1012000E00020704701F40072B2F556
:1028E000007F00D100BFCA430280704770B5024626
:1028F000002400230025002040F66A16B14200D1D2
:1029000000BFC1F3421501F01F03012606FA03F3CD
:10291000012D02D19689334006E0022D02D1168A9C
:10292000334001E0968A33400C12012606FA04F483
:102930001688344013B10CB1012000E0002070BDB6
:1029400010B50022002340F66A14A14200D100BF56
:102950000A1201249440A3B2DC43048010BD00009D
:10296000003801400044004000480040004C004056
:102970000050004001684FF6FE72114001600021D6
:10298000016041608160C1608D49884208D18C49F5
:102990000839496841F00F01894A083A51608AE0D4
:1029A00087491431884208D185490839496841F07E
:1029B000F001834A083A51607DE08149283188421C
:1029C00008D17F490839496841F470617C4A083A66
:1029D000516070E07A493C31884208D17849083921
:1029E000496841F47041764A083A516063E074499D
:1029F0005031884208D172490839496841F4702140
:102A00006F4A083A516056E06D496431884208D1F6
:102A10006B490839496841F47001694A083A5160C4
:102A200049E067497831884208D1654908394968E1
:102A300041F07061624A083A51603CE06149884265
:102A400006D1011F096841F00F01021F116032E039
:102A50005C491431884208D15A49091F096841F07C
:102A6000F001584A121F116025E05649283188426A
:102A700008D15449091F096841F47061514A121F75
:102A8000116018E04F493C31884208D14D49091F77
:102A9000096841F470414B4A121F11600BE049492B
:102AA0005031884207D14749091F096841F4702114
:102AB000444A121F1160704710B50022026847F6A1
:102AC000F0739A430C6A8B6823430C6923434C6967
:102AD00023438C692343CC6923434C6A23438C6A88
:102AE00023431A430260CB6843600B6883604B68E2
:102AF000C36010BD0021016041608160C16001615F
:102B000041618161C161016241628162704721B1AD
:102B1000026842F00102026004E002684FF6FE73B0
:102B20001A40026070471AB103680B43036002E069
:102B300003688B43036070474160704701464868F3
:102B400080B2704701460020002201F080531BB183
:102B50001C4B083B1A6802E0194B083B1A6802EA52
:102B600001030BB1012000E00020704700F080510C
:102B700019B11449091F086002E011490839486079
:102B8000704701460020002201F080531BB10D4B1D
:102B9000083B1A6802E00A4B083B1A6802EA010384
:102BA0000BB1012000E00020704700F0805119B106
:102BB0000449091F086002E001490839486070476C
:102BC000080002400804024010B50446FE48844252
:102BD00008D10121C014FFF77FFC0021E014FFF7AA
:102BE0007BFCC4E0B4F1804F08D101210846FFF717
:102BF00080FC00210120FFF77CFCB8E0F348844210
:102C000008D101210220FFF774FC00210220FFF708
:102C100070FCACE0EE48844208D101210420FFF7AB
:102C200068FC00210420FFF764FCA0E0E94884422E
:102C300008D101210820FFF75CFC00210820FFF7E4
:102C400058FC94E0E448844208D101211020FFF7A9
:102C500050FC00211020FFF74CFC88E0DF48844244
:102C600008D101212020FFF744FC00212020FFF79C
:102C700040FC7CE0DA48844208D101214014FFF78F
:102C80002BFC00216014FFF727FC70E0D54884423C
:102C900009D10121C804FFF71FFC00214FF40020D7
:102CA000FFF71AFC63E0D048844209D101210805EE
:102CB000FFF712FC00214FF48010FFF70DFC56E0E7
:102CC000CA48844209D101214805FFF705FC0021CB
:102CD0004FF40010FFF700FC49E0C548844208D1DA
:102CE00001214020FFF705FC00214020FFF701FCF7
:102CF0003DE0C048844208D101218020FFF7F9FB64
:102D000000218020FFF7F5FB31E0BB48844208D169
:102D100001218015FFF7EDFB0021A015FFF7E9FB6E
:102D200025E0B648844209D101210804FFF7D4FB0D
:102D300000214FF48030FFF7CFFB18E0B048844209
:102D400009D101214804FFF7C7FB00214FF40030EF
:102D5000FFF7C2FB0BE0AB48844208D10121880495
:102D6000FFF7BAFB00214FF48020FFF7B5FB10BD41
:102D700000220288944B98420ED0994B98420BD077
:102D8000B0F1804F08D0914B984205D0904B9842BB
:102D900002D0904B984204D14FF68F731A404B8863
:102DA0001A438D4B984207D08C4B984204D04FF673
:102DB000FF431A40CB881A4302808B8883850B8897
:102DC0000385814B98420BD0854B984208D08B4BA2
:102DD000984205D08A4B984202D08A4B984201D142
:102DE0000B7A038601238382704770B5002400228A
:102DF0000023058C4FF6FE7635400584028C8388CF
:102E0000048B4FF68F752C40B51E2C400D882C433B
:102E1000751E2A400D892A434D882A436A4DA842CF
:102E20000BD06F4DA84208D0744DA84205D0744D08
:102E3000A84202D0734DA84213D14FF6F7752A402D
:102E40004D892A434FF6FB752A408D882A434FF659
:102E5000FF652B404FF6FF552B408D892B43CD89C5
:102E60002B4383800483CD888586028470BD70B532
:102E7000002400220023058C4FF6EF7635400584B0
:102E8000028C8388048B48F6FF752C404FF6FF4573
:102E90002C400D884FF6FF7606EA05252C434FF6A9
:102EA000DF752A400D8906EA05152A434D8806EA92
:102EB00005152A43444DA84202D0494DA8421DD1D0
:102EC0004FF67F752A404D894FF6FF7606EA0515C5
:102ED0002A434FF6BF752A408D8806EA05152A4316
:102EE0004FF6FF352B404FF2FF752B408D8906EAD8
:102EF00085052B43CD8906EA85052B438380048312
:102F0000CD880587028470BD70B50024002200239F
:102F1000058C4FF6FF6635400584028C8388848BD0
:102F20004FF68F752C404FF6FC752C400D882C43C6
:102F30004FF6FF552A400D894FF6FF7606EA052524
:102F40002A434D8806EA05252A431F4DA84202D090
:102F5000234DA8421DD14FF2FF752A404D894FF6EF
:102F6000FF7606EA05252A434FF6FF352A408D886D
:102F700006EA05252A434EF6FF752B404DF6FF75F0
:102F80002B408D8906EA05152B43CD8906EA0515E8
:102F90002B4383808483CD888587028470BD70B580
:102FA000002200230024058C4EF6FF763540058470
:102FB000038C8488828B48F6FF752A404FF6FF45C4
:102FC0002A400D8820E00000002C01400004004051
:102FD00000080040000C00400010004000140040B9
:102FE00000340140004C01400050014000540140B9
:102FF00000180040001C004000200040004001403C
:1030000000440140004801404FF6FF7606EA0525DE
:103010002A434DF6FF752B400D8906EA05352B43F3
:103020004D8806EA05352B43FA4DA84202D0FA4DE9
:10303000A84208D14BF6FF752C408D894FF6FF76DC
:1030400006EA85152C4384808283CD88A0F8405001
:10305000038470BD828B4FF2FF331A408283828BD0
:103060004FF6FF7303EA01231A4382837047F0B5DA
:103070000C461546002200210026078C4EF6FF7CE8
:1030800007EA0C070784828B018C4FF6FF7707EA6B
:10309000043640F6FF473A404FF6FF7707EA052728
:1030A0003A434FF6FF7707EA03373A43D94FB8421E
:1030B0000ED0D94FB8420BD0B0F1804F08D0D74FC7
:1030C000B84205D0D64FB84202D0D64FB84206D14A
:1030D0004DF6FF77394046F48057394305E047F60F
:1030E000FF57394044F48057394382830184F0BD4F
:1030F000828B4FF6F3731A408283828B0A4382835A
:103100007047F0B50C461546002200210026078CBA
:103110004FF6FF6C07EA0C070784828B018C4FF691
:10312000FF7707EA04264FF60C773A404FF6FF7711
:1031300007EA03172F433A43B64FB8420ED0B64FB3
:10314000B8420BD0B0F1804F08D0B44FB84205D090
:10315000B34FB84202D0B34FB84206D14FF6FF5733
:10316000394046F48077394305E04FF2FF57394044
:1031700044F48077394382830184F0BD028B4FF29F
:10318000FF331A400283028B4FF6FF7303EA0123D9
:103190001A4302837047F0B50C4615460022002101
:1031A0000026078C4FF6EF7C07EA0C070784028B9A
:1031B000018C4FF6FF7707EA041640F6FF473A40C6
:1031C0004FF6FF7707EA03373A434FF6FF7707EAF0
:1031D00005273A438F4FB8420ED08F4FB8420BD0DD
:1031E000B0F1804F08D08D4FB84205D08C4FB84217
:1031F00002D08C4FB84206D14FF6DF77394046F007
:103200001007394305E04FF65F77394044F0100767
:10321000394302830184F0BD028B4FF6F3731A40E9
:103220000283028B0A4302837047F0B50C461546B1
:1032300000220021068C4FF6FE773E400684028B6A
:10324000018C4FF60C7632407E1C06EA03162E43A4
:103250003243704EB0420ED06F4EB0420BD0B0F140
:10326000804F08D06D4EB04205D06D4EB04202D0B6
:103270006C4EB04206D14FF6FD76314044F0010667
:10328000314305E04FF6F576314044F00106314315
:1032900002830184F0BD70B505460C465D48854249
:1032A0000ED05D4885420BD0B5F1804F08D05B4809
:1032B000854205D05A48854202D05A48854200D1FD
:1032C00000E000BF208850B92389A2886188284681
:1032D000FFF7ABFFE1882846FFF79EFF25E0208837
:1032E00004280AD12389A28861882846FFF753FF62
:1032F000E1882846FFF742FF17E0208808280AD116
:103300002389A28861882846FFF7FBFEE1882846CA
:10331000FFF7EEFE09E02389A28861882846FFF7BF
:10332000A6FEE1882846FFF795FE70BD2DE9F04125
:1033300005460C4600260127608808B9022600E0F1
:103340000026A088012801D1022700E0012720885B
:10335000A0B92389A28861882846FFF766FFE18823
:103360002846FFF759FF23893A4631462846FFF79A
:1033700012FFE1882846FFF701FF13E02389A288A6
:1033800061882846FFF707FFE1882846FFF7F6FE29
:1033900023893A4631462846FFF747FFE188284609
:1033A000FFF73AFFBDE8F0810A884B881A438B8803
:1033B0001A43CB881A430B891A434B891A438B89CA
:1033C0001A43A0F8442070474FF6FF718180002116
:1033D0000180C180418001727047002101804180DD
:1033E0008180C180018141818181C181704700213B
:1033F00001804180012181800021C18001817047CD
:103400000021018041808180C180018141818181D1
:1034100070470000002C01400034014000040040CF
:1034200000080040000C004021B1028842F0010277
:10343000028004E002884FF6FE731A400280704753
:1034400031B1B0F8442042F40042A0F8442005E035
:10345000B0F84420C2F30E02A0F8442070471AB11D
:1034600083890B43838102E083898B438381704787
:103470008182704741EA0203A0F8483070471AB1D0
:1034800083890B43838102E083898B438381704767
:1034900001894FF6F8721140018170470A460021F8
:1034A00001894FF68F73194011430181704730B580
:1034B00004460D4629462046FFF7F0FF208940F0DC
:1034C0000700208130BD2DE9F04104460D46164627
:1034D0001F46602D06D13B46012231462046FFF7AC
:1034E0005AFE05E03B46012231462046FFF79DFE8D
:1034F00029462046FFF7D2FF208940F007002081AF
:10350000BDE8F08130B50C4600210189C9B24FF603
:10351000FF7505EA0325154325432943018130BD85
:103520002DE9F04105460E461746984600244346CD
:103530003A4631462846FFF7E5FF2C894FF6F870EA
:10354000044044F007044FF68F70044044F07004C8
:103550002C81BDE8F081F0B504460D4616461F46A5
:103560003B46324629462046FFF7CCFF208940F4EF
:1035700080402081F0BD0185828270470A4600218B
:1035800001884FF68F731940114301807047F0B5E1
:103590000C4615461E460021002200230189028B9D
:1035A000038C4FF6F877394021434FF6FC473A40F9
:1035B00040F201173A434FF6DD773B404FF6FF7775
:1035C00007EA06172F433B43018102830384F0BDC2
:1035D0000A460021018B4FF68F7319401143018376
:1035E00070470A460021018B48F6FF7319404FF6D9
:1035F000FF7303EA02231943018370470A4600213F
:10360000818B4FF68F7319401143818370470A46AF
:103610000021818B48F6FF7319404FF6FF7303EAD0
:10362000022319438183704721B1028842F080024E
:10363000028004E002884FF67F731A4002807047D0
:1036400021B1828842F00402828004E082884FF631
:10365000FB731A408280704721B1828842F00802D1
:10366000828004E082884FF6F7731A4082807047A8
:1036700021B1828842F00102828004E082884FF604
:10368000FE731A40828070470A460021018B4FF674
:10369000F77319401143018370470A460021018BDB
:1036A0004FF2FF7319404FF6FF7303EA02231943E9
:1036B000018370470A460021818B4FF6F77319404A
:1036C0001143818370470A460021818B4FF2FF73BB
:1036D00019404FF6FF7303EA0223194381837047B1
:1036E0000A460021018B4FF6FB73194011430183F9
:1036F00070470A460021018B4FF6FF3319404FF601
:10370000FF7303EA02231943018370470A4600212D
:10371000818B4FF6FB7319401143818370470A4632
:103720000021818B4FF6FF3319404FF6FF7303EAF8
:1037300002231943818370470A460021018B4FF60B
:103740007F7319401143018370470A460021018BA2
:10375000C1F30E014FF6FF7303EA022319430183FD
:1037600070470A460021818B4FF67F731940114341
:10377000818370470A460021818BC1F30E014FF609
:10378000FF7303EA02231943818370470A4600212D
:10379000018C4FF6FD7319401143018470470A46AE
:1037A0000021018C4FF6F7731940114301847047D3
:1037B0000A460021018C4FF6DF7319404FF6FF7364
:1037C00003EA02131943018470470A460021018C61
:1037D0004FF67F7319404FF6FF7303EA0213194344
:1037E000018470470A460021018C4FF6FF531940AF
:1037F0004FF6FF7303EA02231943018470470A4618
:103800000021018C4FF2FF7319404FF6FF7303EA5A
:1038100002231943018470470A460021018C4DF6AA
:10382000FF7319404FF6FF7303EA02331943018413
:10383000704730B5002301248C40A3B2048C9C4314
:103840000484048C02FA01F5ADB22C43048430BD2B
:1038500030B5002304248C40A3B2048C9C43048420
:10386000048C02FA01F5ADB22C43048430BD70B56E
:103870000346002000241846183001258D40ACB2C4
:103880001D8CA5431D8409B1082909D100EB6100F5
:10389000056825F0700505600568154305600EE0B4
:1038A0000D1FC5F34E052844056825F4E045056065
:1038B00005684FF6FF7606EA02263543056070BDBF
:1038C00021B1028842F00202028004E002884FF631
:1038D000FD731A400280704721B1028842F0040251
:1038E000028004E002884FF6FB731A4002807047A2
:1038F00021B1828842F08002828004E082884FF603
:103900007F731A408280704702884FF6F7731A401F
:10391000028002880A430280704782884FF68F73C4
:103920001A40828082880A438280704702894FF65B
:10393000F8731A40028102890A43028170470289A2
:103940004FF67F731A40028102890A430281704751
:1039500081847047818570478186704701877047F1
:1039600081877047A0F84010704702884FF6FF43E8
:103970001A40028002880A43028070470146888EFE
:1039800070470146088F70470146888F704701468F
:10399000B1F8400070470146888C70470146088D99
:1039A000704702460020138A0B400BB1012000E053
:1039B00000207047CA430282704730B5024600209B
:1039C00000230024158A05EA0103958905EA01040C
:1039D00013B10CB1012000E0002030BDCA430282C7
:1039E00070470000002044490860091D0860091D57
:1039F0000860091D086041483F491431086070475C
:103A000000213D498279002A3AD00A4612680368AB
:103A10009A430B461A600A1D126803689A430B1DED
:103A20001A60027911440A6803681A430A60324A2C
:103A30000832126803689A432F4B08331A601A1D24
:103A4000126803689A432C4B0C331A604279102A8F
:103A50000ED11A1F126803681A43274B08331A60E5
:103A60001A1D126803681A43234B0C331A600DE0C9
:103A70002149427911440A6803681A430A6005E043
:103A8000027911440A6803689A430A60704700216A
:103A9000016001710C21417100218171704716494B
:103AA000103109680143144A103211607047014611
:103AB0000020114A143212680A400AB1012000E0C5
:103AC000002070470C4914310860704701460020FF
:103AD0000022094B1B6803EA0102074B14331B68E1
:103AE0000B4013B10AB1012000E0002070470249E9
:103AF000143108607047000000040140FFFF0F0010
:103B000010B5044600F094F80068005D000704D585
:103B1000DF2C02D0A4F1200010BD204610BD000013
:103B20000B4910B5A1F17C020A4CC2E937123721CA
:103B300006E000EB104342F82130074B00FB034046
:103B40000B1EA1F10101F4DC10BD0120E8E700002B
:103B5000180B0020E119D666CD0D0100032A40F2B2
:103B6000308010F0030C00F0158011F8013BBCF11F
:103B7000020F624498BF11F801CB00F8013B38BF37
:103B800011F8013BA2F1040298BF00F801CB38BF45
:103B900000F8013B11F0030300F05280083AC0F036
:103BA000088051F8043B083A51F804CBA0E808100B
:103BB000F5E7121D5CBF51F8043B40F8043BAFF33E
:103BC0000080D20724BF11F8013B11F801CB48BF98
:103BD00011F8012B24BF00F8013B00F801CB48BFCE
:103BE00000F8012B70474FF000020429C0F012804A
:103BF00010F0030C00F05880CCF1040CBCF1020F63
:103C000018BF00F8012BA8BF20F8022BA1EB0C0174
:103C100000F04AB85FEAC17C24BF00F8012B00F82D
:103C2000012B48BF00F8012B704770477047704761
:103C300010B500F05FF8001D10BD00BFB501000019
:103C400010B5203AC0F00B80B1E81850203AA0E837
:103C50001850B1E81850A0E81850BFF4F5AF5FEA6B
:103C6000027C24BFB1E81850A0E8185044BF18C91E
:103C700018C0BDE810405FEA827C24BF51F8043BC5
:103C800040F8043B08BF7047D20728BF31F8023B19
:103C900048BF11F8012B28BF20F8023B48BF00F8AD
:103CA000012B70474FF0000200B51346944696462C
:103CB000203922BFA0E80C50A0E80C50B1F120013F
:103CC000BFF4F7AF090728BFA0E80C5048BF0CC0ED
:103CD0005DF804EB890028BF40F8042B08BF70474B
:103CE00048BF20F8022B11F0804F18BF00F8012BBD
:103CF0007047000000487047A00B00200048704744
:103D0000800B00207546FFF7F9FFAE4605006946B7
:103D1000534620F00700854618B020B5FEF726F878
:103D2000BDE820404FF000064FF000074FF00008BC
:103D30004FF0000B21F00701AC46ACE8C009ACE83D
:103D4000C009ACE8C009ACE8C0098D46704710B5A1
:103D50000446AFF300802046BDE81040FCF718BAD7
:103D60004FF0013C50F8042B51F8043B9A4221D10A
:103D7000A2EB0C03934313EACC1317D150F8042B96
:103D800051F8043B9A4215D1A2EB0C03934313EA7A
:103D9000CC130BD150F8042B51F8043B9A4209D1B3
:103DA000A2EB0C03934313EACC13DBD04FF00000DB
:103DB000704700BFD01A01BAB1FA81F101F01801C1
:103DC00022FA01F0CB40C1F12001DBB2C0B2C01A2F
:103DD0002CFA01F3D11A914311EAC311E6D17047CD
:103DE0007047000001491820ABBEFEE72600020024
:103DF00010B500290AD00878002807D00548784473
:103E0000FFF7AEFF002801D0002010BD0248784423
:103E100010BD00003E000000360000004C3F0008CE
:103E2000000000206000000028010008AC3F0008EE
:103E30006000002080110000440100081001000013
:103E400043000000F8FFFFFF00404040404040407A
:103E5000404041414141414040404040404040405D
:103E60004040404040404040400502020202020201
:103E70000202020202020202022020202020202050
:103E80002020200202020202020290909090909064
:103E90001010101010101010101010101010101022
:103EA0001010101002020202020288888888888896
:103EB0000808080808080808080808080808080882
:103EC000080808080202020240000000000000008A
:103ED00000000000000000000000000000000000E2
:103EE00000000000000000000000000000000000D2
:103EF00000000000000000000000000000000000C2
:103F000000000000000000000000000000000000B1
:103F100000000000000000000000000000000000A1
:103F20000000000000000000000000000000000091
:103F30000000000000000000000000000000000081
:103F40000000000000000000000000000000000071
:103F50000000000000000000000000000000000061
:103F60000000000000000000000000000000000051
:103F70000000000000000000000000000000000041
:103F800000A24A0400000000000000000102030437
:103F900006070809000000000000000001020304F9
:0C3FA000010203040607080902040608D9
:04000005080000ED02
:00000001FF
