:020000040800F2
:10000000D8420020DD020008E5020008E7020008EF
:10001000E9020008EB020008ED0200080000000001
:1000200000000000000000000000000015020008B1
:10003000F1020008000000008D020008C90200085B
:10004000F7020008F7020008F7020008F7020008AC
:10005000F7020008F7020008F7020008F70200089C
:10006000F7020008F7020008F7020008ED04000894
:100070000D0500082D0500084D0500086D05000858
:100080008D050008AD050008F7020008F70200081A
:10009000F7020008F7020008F7020008F70200085C
:1000A000F7020008F7020008F7020008F70200084C
:1000B000F7020008F7020008F7020008F70200083C
:1000C000F7020008F7020008F7020008F70200082C
:1000D000F7020008D10D0008F70200086D0F0008B4
:1000E000F7020008F7020008F702000800F002F823
:1000F00000F03AF80AA090E8000C82448344AAF188
:100100000107DA4501D100F02FF8AFF2090EBAE885
:100110000F0013F0010F18BFFB1A43F0010318473B
:10012000643C0000843C0000103A24BF78C878C1C9
:10013000FAD8520724BF30C830C144BF04680C60ED
:10014000704700000023002400250026103A28BF35
:1001500078C1FBD8520728BF30C148BF0B60704739
:100160001FB51FBD10B510BD00F016F91146FFF701
:10017000F7FF0FB400F00CF80FBC02F045FA00F0E6
:10018000D1F803B4FFF7EEFF03BC00F0FFF8000066
:1001900004B002F09BFA0448002102F089FB02F04F
:1001A000A7FA00F0BFF80000703C000880F309884F
:1001B0007047EFF309807047684680F30988044868
:1001C0000078C00714BF0220032080F31488704712
:1001D000303C0008DFF818C0EFF305831B0618BF9A
:1001E0006047EFF31483DB0708BF604700DF704709
:1001F0007F290008DFF818C0EFF305831B0618BF3E
:100200006047EFF31483DB0708BF604700DF7047E8
:10021000652B0008EFF30980816911F8021CF1B920
:1002200090E80F10E047EFF3098C8CE80700144BBF
:1002300093E8060091420FD039B12CE9F00FC1F8D4
:1002400028C00CB403F076F80CBC1A60D2F828C0B1
:10025000BCE8F00F8CF309886FF0020E704710B500
:10026000084A1268914209D8074C54F8214090E896
:100270000F10A047EFF3098C8CE80F0010BD0000B1
:1002800050000020E4030008E403000802F024FF0B
:100290000C4B93E80600914210D0EFF3098C2CE947
:1002A000F00FC1F828C00CB403F044F80CBC1A607D
:1002B000D2F828C0BCE8F00F8CF309886FF0020E6A
:1002C000704700005000002003F0FCF8E0E7000059
:1002D00002F054FB03F0F6F8DAE700000948804723
:1002E00009480047FEE7FEE7FEE7FEE7FEE7FEE718
:1002F000FEE7FEE7FEE7FEE704480549054A064B30
:1003000070470000090D0008ED000008D83C0020EF
:10031000D8420020D83E0020D83E00200048704738
:10032000743C002010B50446AFF300802046BDE8C1
:100330001040FFF726BF4FF0000200B51346944669
:100340009646203922BFA0E80C50A0E80C50B1F12D
:100350002001BFF4F7AF090728BFA0E80C5048BF41
:100360000CC05DF804EB890028BF40F8042B08BFDF
:10037000704748BF20F8022B11F0804F18BF00F8DB
:10038000012B7047704770477047000001491820E3
:10039000ABBEFEE7260002007546FFF7BFFFAE4684
:1003A00005006946534620F00700854618B020B581
:1003B000FFF7A2FFBDE820404FF000064FF0000716
:1003C0004FF000084FF0000B21F00701AC46ACE8FD
:1003D000C009ACE8C009ACE8C009ACE8C0098D466A
:1003E000704770470000000021B1826842F00102AE
:1003F000826003E0826822F00102826070470000A0
:1004000010B504461248844208D10121401500F07D
:10041000F7FA0021601500F0F3FA17E00D48844266
:1004200008D10121001500F0EBFA0021201500F0A1
:10043000E7FA0BE00848844208D10121C80300F024
:10044000DFFA00214FF4004000F0DAFA10BD00009E
:100450000024014000280140003C014001460020EA
:100460008A6802F004020AB1012000E0002070470F
:10047000014600208A6802F008020AB1012000E06B
:100480000020704730B502460020002350680F4C12
:1004900020400D790C6844EA0524204350609068A0
:1004A0000B4C2040D1E902542C434D7944EA4504D9
:1004B00020439060D06A20F470000C7C641EE4B28B
:1004C000234340EA0350D06230BD0000FFFEF0FF3E
:1004D000FDF7F1FF816841F0080181607047816894
:1004E00041F00401816070477047000010B5054875
:1004F000006800F00F04034844602046FFF7F4FF53
:1005000010BD0000000002407047000010B5054813
:100510000068C0F303142001024948602046FFF739
:10052000F3FF10BD000002407047000010B5054801
:100530000068C0F303242002024948602046FFF708
:10054000F3FF10BD000002407047000010B50548E1
:100550000068C0F303342003024948602046FFF7D7
:10056000F3FF10BD000002407047000010B50548C1
:100570000068C0F303442004024948602046FFF7A6
:10058000F3FF10BD000002407047000010B50548A1
:100590000068C0F303542005024948602046FFF775
:1005A000F3FF10BD000002407047000010B5054881
:1005B0000068C0F303642006024948602046FFF744
:1005C000F3FF10BD0000024018B5002844D0C0F36E
:1005D0004211C0F30322214B9B6903F001032BB9A5
:1005E0001E4B9B6943F001031C4CA36100F4805334
:1005F000A3B11B4BDB69009300F01F0301FA03F367
:10060000009C9C43009400F01F0302FA03F3009C3B
:1006100023430093124C009BE3611DE0104B5B6889
:10062000009300F01F0301FA03F3009C9C43009425
:1006300000F01F0302FA03F3009C234300930721F9
:100640000022009B23EA01630093009B43EA0263BC
:100650000093034C009B636018BD00000010024033
:100660000000014001461D48814204D11C488069B8
:10067000C0F3800070471B48814204D1184880694C
:10068000C0F3C000F6E71848814204D114488069DD
:10069000C0F30010EEE71548814204D1104880698C
:1006A000C0F34010E6E71248814204D10C4880694B
:1006B000C0F38010DEE70F48814204D1084880690A
:1006C000C0F3C010D6E70C48814204D104488069C9
:1006D000C0F30020CEE70020CCE700000008014076
:1006E00000100240000C01400010014000140140C5
:1006F00000180140001C0140002001402DE9F0419C
:10070000024600250026002000230024002791F83F
:1007100003C00CF00F0591F803C00CF0100CBCF1F5
:10072000000F03D091F802C04CEA050591F800C013
:10073000BCF1000F31D0146800202BE04FF0010C09
:100740000CFA00F3B1F800C00CEA03069E4220D177
:1007500083004FF00F0C0CFA03F7BC4305FA03FCBF
:100760004CEA040491F803C0BCF1280F06D14FF005
:10077000010C0CFA00FCC2F814C00AE091F803C0A6
:10078000BCF1480F05D14FF0010C0CFA00FCC2F887
:1007900010C0401C0828D1D31460B1F800C0BCF1CF
:1007A000FF0F34DD546800202EE000F1080C4FF0FC
:1007B000010808FA0CF3B1F800C00CEA03069E42E7
:1007C00021D183004FF00F0C0CFA03F7BC4305FA5C
:1007D00003FC4CEA040491F803C0BCF1280F05D1D6
:1007E00000F1080C08FA0CF8C2F8148091F803C064
:1007F000BCF1480F07D100F1080C4FF0010808FACE
:100800000CF8C2F81080401C0828CED35460BDE814
:10081000F0812DE9F04105460C46174698460F2C0D
:1008200002D90020BDE8F0812846FFF71BFF18B968
:100830000121284600F02AF8B8F1000F10D1022F4C
:1008400005D1E8680121A1408843E86008E0032F52
:1008500006D127F00107E8680121A1400843E860BC
:10086000082C01D22E4601E0083C2E1D3068A20063
:100870000F2191408843306048EA8700A1008840FA
:100880003168084330600120CCE70000002945D0E2
:10089000454A904206D1454A926942F00402434BD0
:1008A0009A6180E0424A904206D1404A926942F001
:1008B00008023E4B9A6176E03E4A904206D13B4A9E
:1008C000926942F01002394B9A616CE03A4A9042C8
:1008D00006D1364A926942F02002344B9A6162E0B6
:1008E000364A904206D1314A926942F040022F4B7B
:1008F0009A6158E0324A904206D12C4A926942F0FD
:1009000080022A4B9A614EE02E4A90424BD1274AF0
:10091000926942F48072254B9A6144E0224A9042E7
:1009200006D1224A926922F00402204B9A613AE0F1
:100930001F4A904206D11D4A926922F008021B4BC1
:100940009A6130E01B4A904206D1184A926922F01F
:100950001002164B9A6126E0174A904206D1134ABC
:10096000926922F02002114B9A611CE0134A9042D6
:1009700006D10E4A926922F040020C4B9A6112E0B5
:100980000F4A904206D1094A926922F08002074B31
:100990009A6108E00B4A904205D1044A926922F418
:1009A0008072024B9A6170470008014000100240BB
:1009B000000C0140001001400014014000180140EB
:1009C000001C01400020014001460020034A5068FD
:1009D00020F440400843506070470000001002407F
:1009E00029B1064A92690243044B9A6104E0034A22
:1009F00092698243014B9A617047000000100240E7
:100A000029B1064AD2680243044BDA6004E0034A83
:100A1000D2688243014BDA60704700000010024048
:100A200010B500F00BF80021024801F041FF024927
:100A3000086010BD083C00083000002010B500F030
:100A400073F800F091F810BD0EB50025A9460026F8
:100A5000AA4600274FF0010BA84600BF00BF0121A6
:100A60002F48006801F090FE8DE8070000981028DC
:100A700014D1019C207802280AD16078032805D17E
:100A8000A178E07861F31F20054600E000BF00BFB9
:100A900021462448006801F0FBFE00BF01F074FD10
:100AA00006462EB137B9BBF1000F03D0012701E094
:100AB0004FF0010B012F2DD101F066FDB04229D17D
:100AC000B8F1010F04DA08F1010000F0FF0822E09C
:100AD00001F05AFD824606EA0A06002214E04FF4AD
:100AE000004040FA02F303EA060058B103EA0500A9
:100AF00020B14FF400401041854303E04FF4004023
:100B000010410543501CC2B20A2AE8DB0027BB464D
:100B1000B84600E00027A946484600F04DF89EE799
:100B2000040000200000002008B501210C20FFF780
:100B300057FF41F69010ADF8000003208DF8020039
:100B400004208DF8030069460548FFF7D7FD47F2FA
:100B50000300ADF8000069460248FFF7CFFD08BD6D
:100B600000080140000C014008B501210820FFF7F2
:100B700037FF4FF47070ADF8000003208DF80200CD
:100B800010208DF8030069460848FFF7B7FD0120E3
:100B90000749086000200749C1F89C010449091F62
:100BA00008600449C1F8980108BD0000000C01402C
:100BB000A48121420080214270B5044600201649DC
:100BC00008600A2001F076FD01201449C1F8A40153
:100BD000002011490839086000250FE000200E4967
:100BE000091F086004F001000C49C1F898010120B8
:100BF0000949091F08606410681CC5B2102DEDDB9F
:100C000001200549083908600A2001F053FD002041
:100C10000249C1F89C0170BDA4812142008021429B
:100C200010B500F001F810BD0CB500200190009047
:100C30003348006840F480303149086000BF3048D4
:100C4000006800F4003000900198401C019000986A
:100C500018B90198B0F5A06FF1D12948006800F4E7
:100C6000003010B10120009001E0002000900098B9
:100C7000012843D12348006840F010002149086052
:100C80000846006820F0030008600846006840F04D
:100C9000020008601A4840681949486008464068E0
:100CA00048600846406840F48060486008464068F4
:100CB00020F47C1048600846406840F4E810486022
:100CC0000846006840F08070086000BF0C4800686B
:100CD00000F000700028F9D00948406820F00300B7
:100CE000074948600846406840F00200486000BF7D
:100CF0000348406800F00C000828F9D10CBD000042
:100D0000001002400020024010B51348006840F077
:100D100001001149086008464068104908400E4922
:100D20004860084600680E4908400B4908600846BC
:100D3000006820F4802008600846406820F4FE0027
:100D400048604FF41F008860FFF76AFF4FF00060B3
:100D50000449086010BD0000001002400000FFF8C8
:100D6000FFFFF6FE08ED00E070B504460D46034AAD
:100D70002946204600F084F970BD0000943C00082C
:100D800008B5024800F08CFD009008BD943C0008B6
:100D900008B5024800F087FD009008BD943C0008AB
:100DA00010B5024800F0C7FD10BD0000943C0008DB
:100DB00008B5024800F0C3FD009008BD943C00084F
:100DC00010B5024800F025FE10BD0000943C00085C
:100DD00010B5024800F021FE10BD0000943C000850
:100DE00010B504460249204600F04FFF10BD000038
:100DF000943C000810B504460249204600F0DAFF92
:100E000010BD0000943C000870B504460D46034A2E
:100E10002946204601F0B6F870BD0000943C000859
:100E200070B504460D46034A2946204601F0FBF8FA
:100E300070BD0000943C000810B5044602492046ED
:100E400001F035F910BD0000943C000870B504466F
:100E50000D461646034B32462946204601F075F9E9
:100E600070BD0000943C000810B5024801F0A2F9E2
:100E700010BD0000943C00087047000008B5012137
:100E80000820FFF7ADFD2020ADF8000003208DF80D
:100E9000020010208DF8030069461048FFF72EFC71
:100EA0000F4881680F4888470D480169022088472C
:100EB0000B484FF4E131826A012090470848012134
:100EC000826A1520904706480121826A16209047C1
:100ED00003481921426904A0904708BD000C014055
:100EE000143D0008790E000869276D207573617242
:100EF000743120666F72205A6967656265650D0AF4
:100F00000000000070B504460D46034A29462046FD
:100F100000F0B6F870BD0000DC3C000808B50248DF
:100F200000F0BEFC009008BDDC3C000808B502489B
:100F300000F0B9FC009008BDDC3C000810B5024888
:100F400000F0F9FC10BD0000DC3C000808B50248C8
:100F500000F0F5FC009008BDDC3C000810B502482C
:100F600000F057FD10BD0000DC3C000810B5024841
:100F700000F053FD10BD0000DC3C000810B5044635
:100F80000249204600F081FE10BD0000DC3C000854
:100F900010B504460249204600F00CFF10BD0000C9
:100FA000DC3C000870B504460D46034A294620463D
:100FB00000F0E8FF70BD0000DC3C000870B504469E
:100FC0000D46034A2946204601F02DF870BD000069
:100FD000DC3C000810B504460249204601F067F8E1
:100FE00010BD0000DC3C000870B504460D461646F6
:100FF000034B32462946204601F0A7F870BD000099
:10100000DC3C000810B5024801F0D4F810BD000027
:10101000DC3C00087047000010B51048816810489B
:1010200088470E480169022088470C484FF4E13197
:10103000826A0120904709480121826A1520904761
:1010400006480121826A1620904701200549086060
:1010500002481621426904A0904710BD4C3D00088B
:10106000151000089481214269276D207573617203
:10107000743320666F72204465763438350D0A006B
:101080002DE9FE4F07460D461446206BC07A00F04E
:10109000020018B94FF0FF30BDE8FE8F002000902D
:1010A00080468346F8B2153806287CD2DFE800F087
:1010B000A3DC032C4E6CA5B1606B90F8210010B13D
:1010C0006FF00100E8E70120616B81F82100616B9E
:1010D00081F820006068808940F081006168888123
:1010E00010E0606B90F8200060B16068808920F0AB
:1010F0008000616888810020616B81F82000616B4D
:1011000081F821000020C7E76068808920F0C000D6
:1011100061688881A06A88B1606B90F8210068B12D
:101120006068808A20F0800061688882A16A08680F
:10113000016821F00101016000BF00BF0020616B68
:1011400081F82000616B81F82100A5E76068808943
:1011500020F0200061688881E06A80B1206B4079CE
:1011600068B16068808A20F0400061688882E16A26
:101170000868016821F00101016000BF00BF002183
:10118000206B4171002087E76068808920F0E000D3
:1011900061688881A06A98B1606B90F8210078B18D
:1011A0006068808A00E0C2E020F080006168888288
:1011B000A16A0868016821F00101016000BF00BF59
:1011C000E06A80B1206B407968B16068808A20F065
:1011D000400061688882E16A0868016821F00101C5
:1011E000016000BF00BF0021206B41710020616BD6
:1011F00081F8210050E7E06810B94FF0FF304BE76D
:10120000BDB1206BC068062806D0E2689188032330
:1012100010680222FFF7FDFA206BC07A40F0080048
:10122000216BC8726068808940F00800616888811D
:1012300018E06068808920F0080061688881206B70
:10124000C07A20F00800216BC872206BC0680628A5
:1012500008D0E06830B1E2689188002310681A462F
:10126000FFF7D7FA002017E7206910B94FF0FF30D9
:1012700012E7E5B3206BC06806280AD0206BC0686F
:10128000042806D022699188002310680122FFF704
:10129000C0FA206BC07A40F01000216BC872606801
:1012A000808A40F00100616888826068008A40F0AE
:1012B0004000616808826068808940F010006168C1
:1012C0008881206B407918B1E06A08B1012000E004
:1012D000002028B96068808940F02000616888811A
:1012E0006068808940F00400616888811DE0FFE744
:1012F0006068808920F0040061688881206BC07A72
:1013000020F01000216BC872206BC06806280CD03A
:10131000206BC068042808D0206930B12269918808
:10132000002310681A46FFF774FA0020B4E600BFE5
:1013300000BF206B407918B9606B90F8210010B1A4
:101340006FF00100A8E66068808900F0080038B1FD
:101350006068008800F0400010B96FF001009BE663
:10136000F8B2152872D2DFE800F0C90B0E1D202557
:101370002AC9C9C9C9C9C9C9C9C9373B697EB80021
:1013800001200290BDE02078C0F3400020B148F475
:10139000006848F4807802E06FF006007CE60220E6
:1013A0000290AEE06FF0060076E64BF0080B0420EA
:1013B0000290A6E04BF0020B05200290A1E02078FD
:1013C000C0F3401010B14BF0200B02E06FF00600AC
:1013D00062E60620029094E0616B4D8300205BE69C
:1013E000206BC068052824D015B36068808A40F05F
:1013F000040061688882D4F808A0FE48B0FBFAFABD
:10140000012605E00AFB06F0A84200D902E0761C9E
:10141000FF2EF7D900BFB6F5807F02D14FF0FF3025
:101420003AE66068008B20F0FF0030436168088373
:1014300002E04FF0FF302FE600202DE6206BC06861
:1014400006280BD1FF2D02D9C01F25E656E06068A3
:10145000008BC0B228436168088302E04FF0FF3080
:101460001AE6002018E6206BC068062830D1D4F8B0
:1014700008A0E048B0FBFAFA012619E00AFB06F0E2
:1014800040006421484305EB051101EB4101B0EB3D
:10149000410F0CD20AFB06F040006421484305EBE3
:1014A000051101EB4511B0EB410F00D902E0761CAC
:1014B000402EE3D300BF402E02D14FF0FF30EBE5CA
:1014C0006068008B20F0FF0030436168088302E011
:1014D0004FF0FF30E0E50020DEE5206BC068062815
:1014E00007D14DB16068808A40F010006168888241
:1014F00002E04FF0FF30CFE50020CDE56FF00300B4
:10150000CAE500BF07F4E06060B1B0F5807F13D09A
:10151000B0F5E06F1DD107F4405010B96FF008002E
:10152000BAE519E007F4405028B148F020080098C7
:1015300040F4805000900FE007F4405010B16FF07D
:101540000800A9E548F02008009840F48050009079
:1015500002E06FF008009FE500BF07F4405030B193
:10156000B0F5805F04D0B0F5005F0BD105E00CE072
:10157000009840F48060009007E0009840F4C0605C
:10158000009002E06FF0090086E500BF07F44040DC
:1015900048B1B0F5804F07D0B0F5004F07D0B0F597
:1015A000404F0AD106E00BE048F4005808E048F448
:1015B000405805E048F4805802E06FF00A006BE5FF
:1015C00000BF07F4403048B1B0F5803F09D0B0F516
:1015D000003F13D0B0F5403F2ED11CE04FF0000982
:1015E0002DE02078C0F3C01020B14FF480394BF4C7
:1015F000807B02E06FF00B004EE520E02088C0F316
:10160000002020B14FF400394BF4C06B02E06FF0C2
:101610000B0041E513E02078C0F3C01040B12088F2
:10162000C0F3002020B14FF440394BF4E06B02E0EE
:101630006FF00B0030E502E06FF00B002CE500BF0F
:10164000029802281DD107F4802018B1B0F5802F30
:1016500004D100E005E048F4806802E06FF00C007F
:101660001AE500BF07F4002018B1B0F5002F04D12F
:1016700000E005E048F4007802E06FF00D000BE5B3
:1016800000BFA06800EBC00101EB0010A900B0FB97
:10169000F1F06421B0FBF1F1A06800EBC00202EBB5
:1016A0000010AA00B0FBF2F0A26802EBC20303EB49
:1016B0000212AB00B2FBF3F26423B2FBF3F202EBD3
:1016C000C20303EB0212A0EB8200322202EB0010F5
:1016D0006422B0FBF2FA61F31F1AA06800011FFA3E
:1016E0008AF1B0FBF1F000090190642101984843B0
:1016F00005EB051101EB4101B0EB410F09D264216B
:101700000198484305EB051101EB4511B0EB410F82
:1017100002D86FF00700BFE46068808920F40050B1
:10172000616888816168A1F808A00298216BC8608F
:10173000206BC0F81090206BC068062809D1E068C3
:1017400030B1E2689188032310680222FFF761F844
:1017500017E0206BC07A00F0080048B1E06880B163
:10176000E2689188032310680222FFF752F808E02C
:10177000E06830B1E2689188002310681A46FFF7EC
:1017800048F800BF206BC068042802D006280BD19F
:1017900000E000BF206930B1226991880023106801
:1017A0001A46FFF736F818E0206BC07A00F01000F8
:1017B00048B1206980B12269918800231068012214
:1017C000FFF727F808E0206930B1226991880023EB
:1017D00010681A46FFF71DF800BF00BF6069D0B15E
:1017E000206BC068022802D006280BD100BF6269B6
:1017F000918801E000CA9A3B032310680222FFF798
:1018000008F807E062699188002310681A46FFF71C
:1018100000F800BF00BFA069A0B1B9F5803F02D0B9
:10182000B9F5403F07D1A2699188032310680222CD
:10183000FEF7EFFF06E0A2699188002310681A46C0
:10184000FEF7E7FFE069A0B1B9F5003F02D0B9F5B6
:10185000403F07D1E2699188002310680122FEF71A
:10186000D8FF06E0E2699188002310680122FEF7A4
:10187000D0FF0098616888816168A1F81080616874
:10188000A1F814B06068808940F4005061688881D4
:10189000206BC07A40F00400216BC872002011E474
:1018A0000146086870470CB50146019820F0010018
:1018B0000190086B006920B1086B0069B0F5803FAA
:1018C0000ED1C86960B1CB6998881A689368C34023
:1018D00003F0010323B9019820F00100401C01909E
:1018E000019820F002000190019820F0080001907A
:1018F000019820F0040001900198009A60F3000222
:10190000009201984208009862F34100009001980B
:101910008208009862F3820000900198C208009843
:1019200062F3C300009001980209009862F31F104F
:10193000009000980CBD0146486B006970470CB5DB
:101940000146486B90F8210028B1019820F0010071
:10195000401C019008E048680088012222EA9012A9
:10196000019862F300000190086B4279019862F3DC
:1019700041000190086B8279019862F38200019026
:10198000086BC279019862F3C3000190086B027A78
:10199000019862F304100190086B427A019862F397
:1019A00045100190086B827A019862F386100190CD
:1019B0000198009A60F30002009201984208009892
:1019C00062F34100009001988208009862F382005F
:1019D00000900198C208009862F3C300009001983B
:1019E0000209009862F304100090019842090098DF
:1019F00062F34510009001988209009862F3861006
:101A000000900198C209009862F3DF1000900098DE
:101A10000CBD0146486B406970472DE9F041044612
:101A20006068068800270025A84606F02000616847
:101A300089890840002860D0206B407938B96068F7
:101A400080880121206BC17145F0200555E0206B95
:101A5000C068022806D1606BC069012802D16068A5
:101A6000808802E06068B0F80480606B8268501C77
:101A7000636B986082F800806068878907F48060F3
:101A800050B907F4805038B14FEA2821606B826862
:101A9000501C636B98601170606B0069401C616B37
:101AA0000861606B0069616B0968884225D16068D4
:101AB000808920F01000616888810021206B4171CD
:101AC000206BC068022816D1606BC7690020616B6B
:101AD000C861012F04D0022F05D0032F09D105E0E2
:101AE00045F0010506E045F0020503E045F0040578
:101AF00000E000BF01E045F0020506F0100061685B
:101B00008989084018B16068808845F0400506F072
:101B10008000616889890840002863D0606B90F874
:101B2000200030B16068808940F0010061688881E0
:101B300058E0606B4068616B4969884222D0206B35
:101B4000C068022807D1606BC069022803D1606BAE
:101B5000B0F81A8016E0606BC168481C626BD060F8
:101B600091F800806068878907F4806050B907F4B5
:101B7000805038B1606BC168481C626BD0600878D7
:101B800048EA0028606B4069401C616B48616068EE
:101B9000A0F80480606B4068616B4969884221D17C
:101BA0006068808920F08000616888816068808931
:101BB00040F04000616888810020616B81F821005D
:101BC000206BC06802280BD1606BC069012809D165
:101BD000206BC07A00F0100020B945F0010501E04B
:101BE00045F0010506F0400061688989084038B178
:101BF0006068808920F040006168888145F00805B0
:101C000006F0080030B1606880880121206BC17146
:101C100045F0200506F0020030B16068808801219F
:101C2000206B417245F4807506F0010030B16068A8
:101C300080880121206B817245F4007506F4807064
:101C400050B16068008820F48070616808800121CC
:101C5000206B017245F0800506F4007038B16068B1
:101C6000008820F400706168088045F4806525B123
:101C7000206B006808B1012000E0002018B1206B43
:101C8000016828468847BDE8F08170B505460C46D6
:101C9000206BC07A00F0010008B1002070BD206BFD
:101CA00005600020216B08710021206B4171206BC1
:101CB0008171206BC171206B0172206B4172206BAE
:101CC00081720020216BC860616B81F821002421A2
:101CD000606BFEF730FB608CFEF776FCE06820B1AD
:101CE000E16808680121FEF7D1FD206920B1216972
:101CF00008680121FEF7CAFD606920B161690868C2
:101D00000121FEF7C3FDA06920B1A1690868012186
:101D1000FEF7BCFDE06920B1E16908680121FEF72A
:101D2000B5FD0120216BC8720020B7E71D4988422C
:101D300005D11D49C96841F480411B4AD1601B4946
:101D4000884205D11849096941F40031164A1161E8
:101D50001749884205D11449096941F48021124A82
:101D6000116100BF00BF00BF00BF0E49884205D10E
:101D70000D49C96821F480410B4AD1600B49884262
:101D800005D10949096921F40031074A116108495F
:101D9000884205D10449096921F48021024A116170
:101DA000704700000038014000100240004400402D
:101DB0000048004070B505460C4625B1012D5BD0AA
:101DC000022D7DD15BE06068FFF7B0FF94F924003D
:101DD000002817DB00F01F0201219140634A4309EC
:101DE00042F8231000BF00BF00BFBFF34F8F00BFFA
:101DF00000BF00BF00BF00BF00BFBFF36F8F00BFB9
:101E000000BF00BF00BF5A496068884205D15948E9
:101E1000806920F48040574988615749606888424A
:101E200005D15448C06920F400305249C861534973
:101E30006068884205D14F48C06920F480204D4930
:101E4000C8610020216B08710021206B4171206B5B
:101E50008171206BC171206B0172206B4172206B0C
:101E600081720020616B81F82100206BC07A20F024
:101E70000200216BC87276E06FF0030070BD206B2A
:101E8000C07A00F0010010B94FF0FF30F6E7206B88
:101E9000C07A00F0020008B10020EFE70020216BBB
:101EA00008710021206B4171206B8171206BC17121
:101EB000206B0172206B4172206B8172002000E068
:101EC0004EE0616B81F82100616B4883616BC861F2
:101ED000616B81F82000216BC860216B08610320D1
:101EE000216BC87222496068884205D12148806907
:101EF00040F480401F4988611F496068884205D1CD
:101F00001C48C06940F400301A49C8611B49606828
:101F1000884205D11748C06940F480201549C8613E
:101F200094F92400002807DB00F01F0201219140F2
:101F3000134A430942F8231000BF94F924000028F3
:101F400009DB00F01F02012191404209920002F1D9
:101F5000E022C2F8001100BF6068FFF7E7FE02E070
:101F60006FF003008AE700BF002087E780E100E010
:101F7000003801400010024000440040004800408A
:101F800080E200E02DE9F04105460E46144605B119
:101F90001EB96FF00400BDE8F081206BC07A00F03C
:101FA000040010B94FF0FF30F5E7206B40790128AD
:101FB00001D1C01EEFE76068808920F020006168D1
:101FC0008881606B06600021206B0172206B41727A
:101FD000206BC171206B8172606B85600020616B2A
:101FE00008610121206B41716068808940F03000F8
:101FF00061688881206BC068022812D1606BC0695B
:1020000078B90220616BC861616B01F11A00224648
:10201000314600F008F80746B81C10B96FF001000F
:10202000B9E70020B7E72DE9F04105460E46144612
:1020300005B11EB96FF00400BDE8F081206BC07AD5
:1020400000F0040010B94FF0FF30F5E7606B90F836
:10205000210010B16FF00100EEE70120616B81F803
:102060002100606BC560606B46600020616B486159
:10207000206BC068022812D1606BC06978B901205A
:10208000616BC861616B01F1180022463146FFF7B0
:1020900079FF0746B81C10B96FF00100CCE7606803
:1020A000808940F08000616888810020C4E770B5B5
:1020B000044634B1012C22D0022C3FD0032C3CD159
:1020C0003DE0086B006920B1086B0069B0F5003F86
:1020D00011D1886990B18D69AA88012328681BB144
:1020E00001259540056104E002F110050126AE408E
:1020F000066100BF02E04FF0FF3070BD22E0086BC8
:10210000006920B1086B0069B0F5003F11D1886902
:1021100090B18D69AA88002328681BB101259540DC
:10212000056104E002F110050126AE40066100BF22
:1021300002E04FF0FF30E0E704E000BF00BF4FF0E7
:10214000FF30DAE700BF0020D7E72DE9F0418046F5
:102150000E4617461C46B8F1000F01D006B11FB954
:102160006FF00400BDE8F081206BC07A00F004003D
:1021700010B94FF0FF30F5E7206BC068022814D18A
:102180000320616BC861224639463046FFF7FAFEEC
:1021900005460DB12846E5E7224639464046FFF799
:1021A00042FF054625B12846DCE74FF0FF30D9E76E
:1021B0000020D7E710B50446E06830B1E2689188A6
:1021C000002310681A46FEF724FB206930B122690B
:1021D0009188002310681A46FEF71BFB606930B136
:1021E00062699188002310681A46FEF712FBA06905
:1021F00030B1A2699188002310681A46FEF709FBE6
:10220000E06930B1E2699188002310681A46FEF750
:1022100000FB208CFEF7D8F90020216BC87210BD9E
:1022200008B502480068009008BD0000803C000826
:1022300010B502460B4600211078012103E0545CE2
:1022400060404C1CE1B29942F9DB10BD2DE9F04F22
:102250009BB006460F464FF06409642102A8FEF7C2
:102260006AF84FF0020AD3462E4800680190002415
:1022700000252D4800686421826902A890473846ED
:1022800000F018FA284800680021826A1920904757
:1022900000BF43E001A800EB45020223642102A82D
:1022A00000F0EAF904469CB315B1012D32D130E0BB
:1022B00014F8010C204490F8028014F8020CFE2857
:1022C00018D114F8012CD21CD1B2601EFFF7B0FF58
:1022D00040450FD1A0780A280CD1E078012809D117
:1022E0000320707002203070A088708001201BB025
:1022F000BDE8F08F01A800EB45020223642102A88B
:1023000000F097F902A9FF220A54681EC5B202E044
:1023100002E000E000BF00BF681CC5B2022DB9DBBF
:102320000020E4E7E43B00082400002010B5002A68
:1023300006DA22F00042D21D22F00703102203E049
:10234000D21C22F003030C2213B19C188C4201D939
:10235000012010BD024401448360C0E90021C91A74
:10236000D018884202D810600246F9E700201060B9
:1023700010BD000005490978002905D000684FF616
:10238000FF71DFF80CC000DF70470000490000203B
:102390006130000804490978002903D00068DFF89B
:1023A0000CC000DF7047000049000020892F0008A2
:1023B0001248006800F046FA044600BF3221204669
:1023C000FFF744FF0028F9D060780328F6D1207881
:1023D000022811D10948006800F034FA05460320AC
:1023E000687002202870608868806422294604484A
:1023F000006800F0D5F900E000BFDFE70000002032
:102400000400002000BF05480321426904A0904752
:102410004FF47A7000F04EF9F5E700004C3D0008EB
:102420006162630010B50446A22C02D0A42C12D124
:1024300008E0FEF723FD0021084800F039FA0849BA
:10244000086009E0FEF7E8FD0021064800F030FAD8
:102450000549086000E000BF00BF10BDC43B000894
:102460001C000020D43B0008200000200848006821
:10247000C0010BD507480068C00707D00548803861
:102480000068002802DA0449012008707047000043
:10249000FCED00E0800E00E06C0000204FF0604298
:1024A000D36F002BFCD0036BD367D36F002BFCD012
:1024B000C07840EA0120A2F87C0070474FF06041EC
:1024C000CA6F002AFCD081F87C0070470EB58022CC
:1024D00000B109B110460AE001780129FAD101A939
:1024E00000F020F8042801D0002000E01020DDE9F1
:1024F000011203B000BD70B50D46040003D012B93F
:102500002078012801D0802070BD204600F0EAFB31
:1025100028B12946204600F030F8002070BD812007
:1025200070BD000010B504468089002824D0608961
:1025300004EB800000690860606840B160780228A0
:1025400005D10021204600F015FE00F003FE04F145
:102550000C0000BFD0E85F1F491E8AB2C0E8512FAF
:102560000029F7D16089401C80B26081E1898842EE
:1025700001D100206081042010BD10B500F0FAFDEB
:10258000BDE8104000F0E6BD00201D49096809B90A
:1025900040F400401A490C31096809B940F4804000
:1025A0001849096809B940F400501649091D09681D
:1025B00009B940F4805013493031096809B940F431
:1025C000006010493431096809B940F480600D4950
:1025D0003831096809B940F40070094910310968B7
:1025E00009B940F4807006491C31096809B940F006
:1025F000800003492031096809B940F04000704764
:10260000100121420081214210B500F05FF800F076
:10261000D3F8FEF705FAA220FFF704FFA420FFF786
:1026200001FF01F0DBF801F035F900F061F800205E
:1026300010BD2DE9F04104460D4616469C462F4636
:10264000002214E0002100E0491C614509DA50181D
:10265000B84206DA705C02EB010814F808804045C5
:10266000F2D0614502D11046BDE8F081521CBA4259
:10267000E8DB4FF0FF30F7E72DE9F04104460D4667
:102680002146164600270EE005E07F1C9F4202D13E
:10269000C81ABDE8F08111F801CB16F8018BC445CA
:1026A000F3D016460027081B1844A842ECD9002096
:1026B000EFE70000EFF3058109B182207047DFF8F2
:1026C00008C000DF70470000B5380008EFF3058050
:1026D00008B182207047EFF31480C00703D0DFF801
:1026E0000CC000DF704701F0EFB80000C9380008E7
:1026F00088B0EFF3058010B1822008B07047EFF387
:10270000148010F00301134806D001291BD00229C0
:1027100011D0032919D113E008A981F309880078A1
:10272000C0070BD05FF0020080F31488BFF34F8F17
:10273000BFF36F8F09E00078C00706D10320F3E7ED
:102740000078C00701D0FF20D7E7DFF80CC000DF1A
:10275000D3E70000303C000839390008EFF3058268
:102760000AB100207047EFF31482D20702D1044A65
:1027700052781AB1DFF80CC000DF704701F000B9E1
:102780004800002081390008EFF305820AB1FFF705
:102790009DBEDFF808C000DF70470000A5390008C3
:1027A000EFF305830BB1FFF7A6BEDFF808C000DF2B
:1027B00070470000DF39000810B51548007828BBC5
:1027C000144800F04FF81449086000211348FFF73F
:1027D000C5FF1349086000211248FFF7BFFF1249E7
:1027E000086000211148FFF7B9FF11490860002176
:1027F0001048FFF7B3FF1049086000210F48FFF7AA
:10280000ADFF0F49086001200149087010BD0000AC
:1028100018000020903B0008000000209C3B0008AE
:1028200004000020A43B000808000020AC3B000886
:102830000C000020B43B000810000020BC3B000846
:1028400014000020EFF3058139B9EFF31481C907B3
:1028500003D0DFF80CC000DF704701F05BB9000067
:10286000153B0008EFF3058109B100207047EFF335
:102870001481C90702D10449497819B1DFF80CC0A5
:1028800000DF704701F0C6B848000020153A000884
:10289000EFF305823AB9EFF31482D20703D0DFF8E1
:1028A0000CC000DF704701F03AB900001F3B000880
:1028B000EFF305820AB100207047EFF31482D207CC
:1028C00002D1044A52781AB1DFF80CC000DF704719
:1028D00001F0B4B8480000203D3A0008DFF80CC011
:1028E00000DFDFF80CC000DFFEE70000A93A0008B7
:1028F000C53A0008DFF804C000DF7047FD3A000861
:10290000094C4FF0FF3529462068FFF73DFF02468E
:102910000846102AF7D1FFF7EDFF0028F3D0024652
:1029200008469047EFE7000038000020012806D055
:10293000022805D0032804D0042804D102E003E0D3
:1029400002E001E000E000BF00BF00BFFEE700BF03
:10295000FEE70000074801684FF0E02041610021D8
:102960008161072101610448016841F07F410160F4
:10297000401770472C3C000820ED00E0704750E8FD
:10298000001F31B10B6840E80032002AF7D1084639
:102990007047BFF32F8FFAE710B568B161B10B3103
:1029A00021F00302016844680B1A1B1B934205D2F5
:1029B000084609680029F5D1002010BD210007D084
:1029C00021180368C1E90032016001F1080010BD5F
:1029D0004260083010BD000070B50D46002812D0CE
:1029E0004FF6FF71084C884204D222680146104617
:1029F00000F0EEFB20684570044800F0DDF8BDE80B
:102A0000704000F0A9BC70BD50000020443C002084
:102A10000F4810B50D4942680E480B680068934294
:102A200004D00A60CB88421E1A448A808A8880B209
:102A300082420AD100200860054800F0BDF8014636
:102A4000BDE81040024800F0E7BB10BD6400002064
:102A5000443C00206000002070B5194DE868002853
:102A60002CD0A88A401EA882002621E0A06838B198
:102A700061684160606810B1A16881606660A660AD
:102A80000F482146183800F0C7FBA08AA88260785A
:102A9000042804D10B49E08A09880844A082012057
:102AA0006070E068E860E06808B10561E660266192
:102AB000A88A002802D1EC68002CD7D170BD000094
:102AC0005C3C00206000002070B504000FD00D4D6C
:102AD000A17801262868827891420CD900F0B8FBD1
:102AE000286846702046BDE8704000F035BC0648B6
:102AF00000F062F8F7E766702146BDE870400248D2
:102B000000F08ABB50000020443C00200321FFF766
:102B100063BF000010B50446008B08432083627831
:102B2000618B062A18D0052A19D1084217D001EA6C
:102B30000002628388432083204600F0B4FB01201A
:102B40006070628B0821204600F0A9FB2146BDE899
:102B50001040034800F060BB31EA0002EAD010BD2B
:102B6000443C0020814202D342688A4201D80120BD
:102B7000704702680A60BFF35F8F50E8003F0A6841
:102B80009A42F6D140E80012002AF2D100207047A4
:102B900068B161B10022083902E00246006830B134
:102BA0008842FAD12AB100681060002070470120E5
:102BB000704700214160F8E70146406842684A607A
:102BC0000B780022022B05D0012B03D0032B01D060
:102BD0004260704743680BB1996042608260704701
:102BE000810700D00020704770B5044600201546CC
:102BF000207001226270A17084F824106060A060CF
:102C0000E06020612062A082E0822083608384F8FB
:102C10002500E08C18B90548FFF7B1FEE0622946AF
:102C20002046BDE8704000F01DB8000010040020F0
:102C300008B1082901D2012070470144091F002270
:102C400001600A604260104670470000034800219E
:102C5000016003490988C1807047000064000020BA
:102C6000203C000870B5C28C1C4D930802D12A8804
:102C7000C2F38D03C26A02EB8302540700D5121F10
:102C80004FF0807442E9021400242646B2F140025B
:102C900042F82460641C0E2CFAD3C4691462826268
:102CA00001632968C90014D5112B12D94FF0FF31E7
:102CB000103B11EB53014FF0CC3305D042F8043CEC
:102CC00042F8083D491EF9D1C16A121F8A4200D953
:102CD0001360C06A0249016070BD00001C3C00081E
:102CE000A52E5AE2C1898089081A70470122027014
:102CF00000224270827042600281428110398281DA
:102D00008908C181704700002DE9F0410446406800
:102D10000E464FF0000804F10C05E8B36078012777
:102D200001283ED0022813D003285CD10846FFF7C3
:102D300026FE050057D02046FFF73EFF04462946F1
:102D400000F0AAFA6770204600F0ADFA214621E0B3
:102D50002046FFF731FF0646002100F09DFA218949
:102D6000F06904EB81010861D5E85F0F401C81B276
:102D7000C5E8501F0028F7D12089401C80B220816F
:102D8000E189884201D1A4F808807770304600F0CC
:102D90008AFA3146174800E00CE0BDE8F04100F047
:102DA0003BBA2046FFF708FF04463246102100F0E8
:102DB00076FAC7E7A089E189884216D2208904EB18
:102DC00080000661D5E85F0F401C81B2C5E8501F46
:102DD0000028F7D12089401C80B22081E1898842F7
:102DE00001D1A4F80880BDE8F081BDE8F0410320DE
:102DF000FFF79CBD443C002070B5164642680D4666
:102E000012B1417801290BD08189C4890023A142E4
:102E100024D19EB11D4C216892B100F0FDF916E05D
:102E2000FFF7CAFE04462A46102100F038FA204671
:102E300000F039FA2046FFF747FE25E0012070BD7B
:102E4000416021684B6021688860022141702068E0
:102E50000821C5613046FFF7BFFDEFE7018900EBB0
:102E600081010D6100F10C01D1E85F2F521C94B279
:102E7000C1E8524F002AF7D10189491C89B201816A
:102E8000C289914200D10381002070BD5000002012
:102E900070B50446808915460026C0B3608904EBEE
:102EA0008000006908606089401C80B26081E1890F
:102EB000884200D16681606810B1607802280BD02A
:102EC00014F10C04D4E85F0F401E81B2C4E8501F17
:102ED0000028F7D1002070BD2046FFF76DFE0546A3
:102EE000002100F0D9F92189E86904EB810108612A
:102EF0002089401C80B22081E189884200D126814E
:102F0000284600F0D0F92846FFF7DEFDE2E7FFE7AC
:102F10003DB10B48626801682AB1204600F07CF997
:102F200008E0012070BD616001684E600068846047
:102F30000120607008212846FFF74EFDF1E70000F0
:102F400050000020002814D0411C13D00C4A4FF62A
:102F5000FE7190420CD800EB4002C2EBC01209484F
:102F6000036803EBC202521EB2FBF3F0884204D99D
:102F7000084670474FF6FF70704780B270470000F8
:102F800000093D003C3C00082DE9F0410446408822
:102F900020B1314DA1682A68914202D0FF20BDE8DE
:102FA000F081401E0004000C608053D12968086A3B
:102FB000A04209D1E068086208E0C268A24202D1DA
:102FC000E268C26002E010460028F6D191F82400C1
:102FD0000A6A06E053681BB19B78834200D9184601
:102FE000D268002AF6D18870DFF870806168012607
:102FF00011B32046FFF7E0FD0746002100F04CF931
:10300000384600F050F96680A760386AE0603C629C
:103010002968D8F804008A788078824201D338463B
:1030200016E00E4800F0F8F839460C4800F0F4F8C5
:10303000286846707E700AE0D8F804108A782968FB
:10304000824207D9054800F0E7F82868467000205A
:10305000FFF73AFD0020A2E750000020443C00208A
:1030600070B51C4D0E4604464188286861B1A268BF
:10307000824210D1A1F57F40FF3803D0491C618006
:10308000002070BDFF2070BDA060016AE160046295
:1030900001206080F4E776B191788078814203D294
:1030A0009070A06800F0DEF8606830B120462968B2
:1030B00000F0B2F808E0012070BD2868606029685F
:1030C000002048602868846009213046FFF784FCAE
:1030D000F1E700005000002070B51B480121026894
:1030E0005170006800F0B4F8184D6C7818E000BF1B
:1030F00005EBC40148680278EAB1012A20D000F04B
:10310000FFF8E878641C844200D100240F48801C3A
:10311000D0E84F1F491EC9B2C0E8421F002AF7D1AC
:10312000A8780028E4D16C700948FFF745FDBDE898
:10313000704000F011B9098989B2FFF7EBFCE0E7B4
:103140008968FFF7E1FDDCE7500000203036002001
:10315000443C00200548017811B1012141707047BD
:1031600003494FF08050086070470000580000206D
:1031700004ED00E0F0B4154DAB1CEE784FEA050706
:10318000D3E84F2FB24202D1BFF32F8F11E0521C70
:10319000D4B2C3E8424F002AF2D100BFD7E84F2F84
:1031A000541CB44200D10024E4B2C7E8434F002BC2
:1031B000F4D1EB78934205D905EBC202C2E90101D3
:1031C000F0BC7047F0BC0220FFF7B0BB30360020E7
:1031D000104A10B5D368ABB113469B8A03E08CB19B
:1031E0002246A48A2344D4688B42F8D3C460D060BA
:1031F0000261C46804B12061591A8182908A401A20
:10320000908210BD0024C460D060C91A026191820E
:10321000848210BD5C3C002030B502780023022A75
:1032200003D0012A01D0032A00D101238C7800E0C9
:103230001046426812B19578A542F9D24A604160C1
:103240001BB102B19160886030BD0020FBE7000037
:1032500003494A684260002282604860704700006B
:10326000443C002010B5836804462BB960780128DF
:103270000ED1084B03E09B6818780028FBD020464D
:1032800000F026F82146BDE810401846FFF7C4BFFD
:1032900010BD0000443C0020806A01627047806AD3
:1032A000C0E90812704710B5016900290ED0C26844
:1032B000CA60C36800223BB18B8A848A23448B8214
:1032C000C3681961C26000E08A82026110BD00001B
:1032D000816839B142684A604168002901D080683C
:1032E00088607047054906E04A68824202D140681A
:1032F0004860704711460029F6D17047443C0020D1
:1033000010B5416881B1FFF757FC0446FFF7CBFFCA
:103310000120607001462046FFF7BEFF2146BDE850
:1033200010400348FFF778BF4188491C418010BD19
:10333000443C002006480068D0E90A10814203D3CB
:1033400000680449884202D00120FFF7EFBA7047B5
:1033500050000020A52E5AE2074902224860427020
:10336000064A1278002A05D006C98A4202D0C078DF
:10337000FFF7A4B870470000500000206C00002048
:1033800070B5FFF773F800200446204A204902E098
:1033900042F82040401C0B889842F9D31D48342243
:1033A00001881D48FEF7C2FF1C48008880B240F02B
:1033B00000421B4801681B48FEF7B8FF1A48082264
:1033C00001881A480068FEF7B1FF194DFF20194A1D
:1033D000E870EC8400212846FFF706FC164804211B
:1033E0000170446015480170C4600461848214480F
:1033F000154905600220687012480470447009780D
:10340000C170BDE87040FFF721BC0000B436002059
:10341000183C0008443C0008C80100201C3C00087F
:10342000483C0008100400206C3C000840000020CC
:10343000103C00204F290008443C00205C3C002048
:103440005000002030360020503C00081B4810B5CA
:10345000016841F47F01016000684FF07F4101EA9B
:1034600000201649C0431439B0FA80F00968C0F151
:103470000800C1F30221814200D3481C0F49091FF3
:103480000B686FF08072824063F317020A60FFF7E7
:1034900061FA0B49002808600EDB00F1E021FF22F1
:1034A00081F8002400F01F020121914040098000B2
:1034B00000F1E020C0F8001110BD000020ED00E098
:1034C0005C0000200C4810B50268012151700068B2
:1034D000FFF7BEFEFFF79CFA08480168491C01602F
:1034E000FFF7BAFA00F026FB0548FFF765FBBDE8D9
:1034F0001040FFF731BF00005000002060000020A6
:10350000443C0020002805D0810702D10178002921
:1035100000D000207047000030B50B4C00236268DB
:1035200005E095688D4204D813461268491B002AAD
:10353000F7D10260816012B19568691A91600BB190
:10354000186030BD606030BD480000202DE9F041BA
:103550001E46174680460D4611F0FF0F00D14D1C48
:103560001848FFF70CFA041E16D0280AE762E08418
:10357000E9B242462046E661FFF736FB01251248D4
:10358000124905E000EB850252F8042C32B16D1CA3
:103590000A889542F6D90020BDE8F081002DFAD0C6
:1035A00000EB850040F8044C0948E570007818B13C
:1035B00001212046FEF772FF2046FFF785FA2846D4
:1035C000EAE70000C8010020B4360020183C0008DB
:1035D0006C0000202DE9F05F584DDFF85891DFF8BE
:1035E000588129684FF0010A002618B1CA78AB4605
:1035F000824243D14E70FCF7DCFD29688862FFF7F8
:1036000099FE2868046A1FE06068C0B12046FFF791
:10361000D3FA07460021FFF73FFE3846FFF743FE87
:1036200087F801A039464648FFF7F6FDE168A4F89F
:1036300002A0A760386AE0603C620C4604E0E068E3
:103640006680A660E6600446002CDDD12868C2785A
:1036500008EB820141F8046CC16A3A48FFF782FA2C
:103660002868C66299F8001011B10021FEF716FF14
:1036700035482968FFF776FA2E6056E03349098805
:1036800088420CD808EB800858F8045C3DB1284605
:10369000FFF71EFE2846FFF706FE2C6A22E0FF20F9
:1036A000BDE8F09F6068C0B12046FFF785FA074685
:1036B0000021FFF7F1FD3846FFF7F5FD87F801A07F
:1036C00039461F48FFF7A8FDE168A4F802A0A760EB
:1036D000386AE0603C620C4604E0E0686680A66000
:1036E000E6600446002CDDD148F8046C1548E96A10
:1036F000FFF738FAEE6299F8000018B10021284669
:10370000FEF7CCFE29461048FFF72CFA0C48DBF8F0
:10371000001040688B7882789A4209D981F801A01C
:103720000748DBF80010FFF777FD0020FFF7CCF922
:103730000020B5E76C000020B436002050000020C7
:10374000443C002010040020C8010020183C000860
:1037500070B51A4D80B11A4A128890421FD8194A82
:1037600002EB800050F8044CCCB1A17084F8241016
:103770002868A04205D014E028688170286880F885
:103780002410114840688078884215D90E4829686D
:10379000FFF742FD29680120487000200AE0FF2061
:1037A00070BD2046FFF75EFD6078012804D1064811
:1037B000FFF702FAFFF788F9002070BD50000020E3
:1037C000183C0008B4360020443C00200248006841
:1037D000002800D0C07870475000002010B500F0DD
:1037E0000BF800210248FFF763F80249086010BD9A
:1037F000E83B00082800002010B500F003F810BDD9
:1038000000BFFEE700B587B001214FF40170FDF75E
:10381000E7F84FF40040FDF7D7F86020ADF804005A
:1038200000208DF8070001A91848FCF767FF184829
:10383000FCF7E6FD0020029001208DF80C008DF8C9
:103840000D004FF4602004900020059001208DF8B9
:10385000180002A90E48FCF715FE01210C48FCF7E0
:10386000C3FD0B48FCF736FE00BF0948FCF700FE1D
:103870000028FAD10648FCF732FE00BF0448FCF7E6
:10388000EDFD0028FAD107B000BD0000000801409E
:103890000024014010B500F00BF800210248FFF7AA
:1038A00007F80249086010BDF83B00082C00002012
:1038B0007047704710B5002804D0FFF743FBFFF7AF
:1038C00025F9402010BD000010B5134C207860B9D8
:1038D0001248400705D1124801681048FFF7A8F9BF
:1038E00008B1852010BDFFF74BFD0E49FF20096888
:1038F0008870207858B900210B4800F041F80B4936
:10390000086000210A4800F099F80A49086001207F
:1039100020700020607010BD4800002020090020A9
:103920004C3C000850000020643C00083800002097
:10393000543C00083400002070B50F4D687808B181
:10394000002070BD0D4C206890F824100020FFF777
:10395000FFFE2068C178FF2903D1816A203181F3FD
:103960000988616811B9606000202060FFF76EFD72
:1039700001206870E4E700004800002050000020AB
:1039800010B5040005D0216819B1606808B102784B
:103990000AB1002010BD8900103189B2FFF7A6F9E5
:1039A000606810BD3EB504000D464FF0800012D097
:1039B000217801290FD12846FFF7C4FA0246204694
:1039C00001A9FFF765FA012801D0102003E00DB12D
:1039D000402000E00020DDE9011203B030BD70B5E9
:1039E0000E460400154602D02078012801D0802020
:1039F00070BD1046FFF7A6FA024631462046FFF793
:103A0000FBF9012801D0002070BD0DB1C12070BDAF
:103A1000812070BD10B504000ED0216861B16268CC
:103A200052B1A06840B1D21C22F0030251430C31C4
:103A3000FEF77CFCA06810BD002010BD70B50E46DE
:103A4000040029D0206838B3606810F1030F23DB2D
:103A5000032821DCE16829B11048FEF79DFF05002D
:103A60001AD000E000256068E168001D40EA0121ED
:103A700033462A462068FFF769FD40B1084901EB4B
:103A80008000084950F8040C826A516370BD1DB172
:103A900029460248FFF77CF8002070BD200900206D
:103AA000B4360020DD28000810B5FFF78FFE00288F
:103AB00004D0034901EB800050F8040C10BD000055
:103AC000B436002010B5FFF71DFD18B1C18C19B137
:103AD000C46A02E0802010BD0024C078FFF77AFDA0
:103AE000FF2806D01CB121460348FFF751F80020FB
:103AF00010BD812010BD00002009002010B5FFF787
:103B00006FF820B141690A680169104610BD0020B4
:103B1000014610BD002801D0FEF731BF704710B537
:103B200028B1FFF71FF8002800D0862010BD8020A4
:103B300010BD00002DE9F041134E7468002C1CD01C
:103B4000A068124F401E4FF00108A06012E0254609
:103B500024687460002229463868FEF7CCFC10B156
:103B60000420FEF7E3FE6879012808D085F8048078
:103B7000002C02D0A0680028E9D0BDE8F0812846DA
:103B8000E968FFF7C9FCF3E748000020380000208F
:103B9000200000000400000070000020060000006B
:103BA000FC000020060000002401002006000000A8
:103BB0004C010020060000007401002006000000F7
:103BC0009C010020B123000800000000010000005B
:103BD00000040000052400080000000001000000AF
:103BE000000400000A0A0A0B013800080000000067
:103BF0000100000000020000B338000800000000CF
:103C00000100000000020000490A00080000000056
:103C100001000000000400000B000000000107117B
:103C20000100010000A24A04480000003F19010001
:103C3000010000000200010052000400E80300003F
:103C4000000000004802000010050000102D0000D8
:103C5000100000000129000802000000010000001F
:103C6000C800000004000000E03600200000000052
:103C70000926000800000000010000000004000008
:103C80000302020200080140090000000008014090
:103C90000A000000390600000038014000A24A0472
:103CA000843C00088C3C000800000000000000007C
:103CB000000000002200220025000000000000009B
:103CC00000000000A03B0020B43B0020000C01409D
:103CD0000A000000000C01400B0000003906000043
:103CE0000048004000512502CC3C0008D43C0008AC
:103CF00000000000000000000000000064006400FC
:103D0000270000000000000000000000D83B002059
:103D1000EC3B002021220008810D0008E10D000885
:103D2000690E0008F50D0008210E0008090E0008B4
:103D30004D0E0008C10D0008A10D0008690D000816
:103D4000B10D0008390E0008910D0008212200086D
:103D50001D0F00087D0F000805100008910F0008D6
:103D6000BD0F0008A50F0008E90F00085D0F00084F
:103D70003D0F0008050F00084D0F0008D50F000883
:103D80002D0F0008A43D0008000000207000000076
:103D900028010008143E000870000020684200005E
:103DA00044010008000000000000000000000000C6
:103DB0000000000000000000000000000000000003
:103DC0000000000000000000143D0008000000009A
:103DD00000000000000000000000000000000000E3
:103DE00000000000000000000000000000000000D3
:103DF00000000000000000000000000000000000C3
:103E000000000000000000000000000000000000B2
:043E100000000000AE
:04000005080000ED02
:00000001FF
