:020000040800F2
:10000000A030002075250008590300085B03000894
:100010005F03000863030008670300080000000096
:100020000000000000000000000000006B0300085A
:100030006D030008000000006F0300087103000852
:100040008F2500088F2500088F2500088F250008C0
:100050008F2500088F2500088F2500088F250008B0
:100060008F2500088F2500088F2500088F250008A0
:100070003B1B00088F2500088F2500088F250008EE
:100080008F250008632100088F2500088F250008B0
:100090008F2500088F2500088F2500088F25000870
:1000A0008F2500088F2500088F2500088F25000860
:1000B0003D090008E50900088F2500088F25000884
:1000C0008F2500088F2500088F2500088F25000840
:1000D0008F2500084F0700089B200008191A000808
:1000E0008F2500088F2500088F2500088F25000820
:1000F0008F2500088F2500088F2500088F25000810
:100100008F2500088F2500088F2500088F250008FF
:100110006D0D00088F2500088F2500088F25000829
:100120008F2500088F2500088F2500088D0E0008F8
:1001300000F002F800F048F80AA090E8000C8244B1
:100140008344AAF10107DA4501D100F03DF8AFF28E
:10015000090EBAE80F0013F0010F18BFFB1A43F0A5
:100160000103184794460000B4460000103A24BF2B
:1001700078C878C1FAD8520724BF30C830C144BF0C
:1001800004680C607047000000230024002500264E
:10019000103A28BF78C1FBD8520728BF30C148BFEA
:1001A0000B607047782904F07380002070471FB5FA
:1001B00004F05AFA04000020002104F0EDFA401C7B
:1001C00060601FBD10B510BD04F072FA1146FFF754
:1001D000EEFF00F03EF804F090FA03B4FFF7F2FFF0
:1001E00003BC00F059FA0000002108E0002201E001
:1001F000531C9AB2B2F5006FFADB4B1C99B28142E4
:10020000F4DB70474B49096801604A49091D0968D8
:1002100041604849083109688160704710B500F0B5
:1002200005FC00F06DFC4448FFF7ECFF4821092075
:1002300000F0D2FA00F08EF94FF4E13000F03BFA12
:100240004FF4E13001F06EF94FF4E13001F0AEF817
:1002500010BD9EB0582104A804F034F9374A07CAEB
:1002600001AB07C3FF24FFF7D9FF35A003F0DCFF84
:1002700050E03748006860B902E0142000F013FC39
:10028000334800680028F8D00CB9012000E00020B5
:100290000446012C33D10020ADF868008DF86A00C7
:1002A00000211AA8C170017141710020ADF86E00E3
:1002B0008DF870001AA841728172C17204208DF805
:1002C000740003208DF8750000208DF804000120D3
:1002D0008DF805003C208DF806001E4908809DF829
:1002E000750001AB1AAA4BF6BB3100904AF6AA2062
:1002F00001F04BFD0CB9012000E00020044601F0A4
:100300002AFE01F056FC02F0F6F801F067FF0A2021
:1003100000F0C9FBADE70246002100BF05E0505CDC
:1003200008B101207047481CC1B20329F7DB002047
:10033000F8E70000E8F7FF1F50000020C44700085E
:1003400074686973206973206120746573740A008E
:10035000200122420C000020704700BFFEE700BFD2
:10036000FEE700BFFEE700BFFEE77047704770473B
:10037000704700000CB50020019000906C480068A8
:1003800040F480306A49086000BF6948006800F4A2
:10039000003000900198401C0190009818B9019815
:1003A000B0F5A06FF1D16248006800F4003010B1E0
:1003B0000120009001E0002000900098012843D126
:1003C0005C48006840F010005A4908600846006820
:1003D00020F0030008600846006840F00200086052
:1003E000534840685249486008464068486008469B
:1003F000406840F4806048600846406820F47C1003
:1004000048600846406840F4E810486008460068C4
:1004100040F08070086000BF4548006800F0007040
:100420000028F9D04248406820F003004049486065
:100430000846406840F00200486000BF3C48406801
:1004400000F00C000828F9D10CBD10B5FFF792FFA1
:1004500010BD10B53648006840F00100344908600E
:1004600008464068344908403149486008460068F9
:10047000324908402E4908600846006820F4802070
:1004800008600846406820F4FE0048604FF41F00F2
:100490008860FFF7DAFF4FF000602949086010BD5F
:1004A00010B5002100200022214B5B6803F00C01F5
:1004B00021B1042906D0082928D107E0214B224C7C
:1004C000236027E01F4B204C236023E0184B5B6820
:1004D00003F47010164B5B6803F48032022303EBC5
:1004E000904022B9194B4343174C23600DE0104B49
:1004F0005B6803F4003323B1144B4343124C236075
:1005000003E0104B4343104C236003E00D4B0E4CB3
:10051000236000BF00BF064B5B68C3F303130C4CA2
:10052000E15C094B1B68CB40074C236010BD000009
:1005300000100240002002400000FFF8FFFFF6FE1E
:1005400008ED00E000127A001800002000093D00CC
:100550001C00002008B501217C2002F0B5FB41F60B
:100560000300ADF8000010208DF8030003208DF883
:1005700002006946264802F0EBF840F601012448E3
:1005800002F095F94FF48040ADF8000010208DF88E
:10059000030003208DF8020069461E4802F0D8F8D7
:1005A0000320ADF8000010208DF8030003208DF823
:1005B00002006946184802F0CBF86020ADF8000050
:1005C00010208DF8030003208DF8020069461348BF
:1005D00002F0BEF82021114802F069F94FF4E05012
:1005E000ADF8000028208DF8030069460A4802F0A3
:1005F000AFF84FF44070ADF8000048208DF80300CC
:100600006946074802F0A4F801200649086008BDC1
:1006100000080140000C0140001401400018014096
:1006200000100140840121422DE9F04707460C46A5
:1006300015461E46DDE908890021384602F079FE9C
:10064000384602F0A9FD134804604560C0F80880F0
:10065000C66000200F490861802048610020886141
:10066000C8610846C0F820904FF44050486200200E
:100670008862384602F032FEBDE8F08770B5044665
:100680000D462946204602F069FE0121204602F06F
:1006900050FE70BD6C080020014600BF704700BFCF
:1006A000494A128802F04002002AF9D0C2B2464BF1
:1006B0001B1D1A80704710B586B00446012144F214
:1006C000040002F001FB4FF40070ADF814000320A9
:1006D0008DF8160018208DF8170005A93B4802F088
:1006E00037F84FF48060ADF8140004208DF817003F
:1006F00005A9364802F02CF825208DF800000320CB
:100700008DF801008DF8020001208DF80300684685
:1007100001F055FF01940020ADF80800ADF80A0083
:10072000ADF80C00ADF810000C20ADF80E0001A9DA
:10073000254802F070FB012240F22551224802F0C8
:1007400002FC0121204802F0F2FB06B010BD10B5FA
:1007500040F225511C4802F0DBFC10B31A4802F0AD
:1007600057FCC4B21A48008800F40040C8B91848C1
:10077000008800F4804060B10A2C03D000201449A6
:10078000088020E01248008840F4004010490880AA
:1007900019E00D2C06D10E48008840F480400C4929
:1007A000088010E00A480088C0F30D0009490C5485
:1007B00007480088401C0649088008460088C7286A
:1007C00001DD0020088010BD003801400008014014
:1007D00030000020980800207FB505460C46012116
:1007E000084602F07EFAADF80850ADF8044000204B
:1007F000ADF80A00ADF8060001A94FF0804002F004
:10080000C9FE01221146900703F03BFA1C208DF827
:10081000000000208DF8010001208DF802008DF805
:100820000300684601F0CBFE0121880703F00EFAB1
:100830007FBD7FB505460C460121022002F051FA2A
:10084000ADF80850ADF804400020ADF80A00ADF84E
:10085000060001A9694802F09DFE01221146674881
:1008600003F00FFA1D208DF8000001208DF8010023
:100870008DF802008DF80300684601F0A0FE01210A
:100880005E4803F0E3F97FBD30B589B004460D46FC
:100890000121480302F018FA0121102002F014FA95
:1008A0008020ADF8200018208DF8230003208DF85B
:1008B000220008A9524801F04BFFADF81840ADF8EE
:1008C00014500020ADF81A00ADF8160005A94D48E7
:1008D00002F060FE7020ADF804000120ADF80600C3
:1008E00032206043642190FBF1F080B2ADF80A0041
:1008F0000220ADF80C0001A9424802F0CAFE08210E
:10090000404803F0DCFA01213E4803F09FFA012140
:100910003C4803F0A7F900213A4803F097F909B0E1
:1009200030BD10B500214FF0804003F08FF910BDAD
:1009300010B50121880703F089F910BD10B5012118
:10094000880703F04CFC00284BD00121880703F0F6
:1009500057FC2D480088401C2B4908800846008819
:1009600063283EDB0020088001F0FFF801F013FC53
:100970002648008820B9254800882449088004E0DA
:1009800022480088401E2149088021480088401CD8
:100990001F4908801F480088401C1E4908801E48C7
:1009A000006820B11C480068401E1B4908601B48B5
:1009B0000088401C1949088008460088B0F5FA7F75
:1009C0000FDB002008801648008850B114480088CA
:1009D000401E1349088013480068C0431249C1F8FB
:1009E000840110BD10B50121044803F0F8FB18B1D3
:1009F0000121024803F004FC10BD00000004004087
:100A000000100140003401403200002004000020AA
:100A100006000020120000205C00002034000020AE
:100A20000C000020848122420080224210B56FF029
:100A3000040001F00EFE2E4800682E49B0FBF1F0D4
:100A40002D4908700846007800EB4001C1EBC0104A
:100A50004FF6FF7101EAC0002849088010BD014629
:100A6000254A12784A434FF0E0235A6100229A61E6
:100A70001A46126942F001021A6100BF4FF0E022EB
:100A8000106900F001021AB100F48032002AF5D09A
:100A90004FF0E022126922F001024FF0E0231A61C8
:100AA00000229A6170470146144A12884A434FF067
:100AB000E0235A6100229A611A46126942F001024B
:100AC0001A6100BF4FF0E022106900F001021AB174
:100AD00000F48032002AF5D04FF0E022126922F0B3
:100AE00001024FF0E0231A6100229A617047000072
:100AF0001800002000127A00360000203800002084
:100B000010B54FF4A06001F055FD10BD2DE9F05F68
:100B100080460E46914600241CE016F814A06000A2
:100B2000401C16F800B0504603F06EFB3038C5B2DA
:100B3000092D01DDE81FC5B2584603F065FB3038CA
:100B4000C7B2092F01DDF81FC7B207EB051008F87F
:100B50000400641C4C45E0DBBDE8F09FF0B50346A3
:100B600000201EE00E5CF71706EB17773F1107F128
:100B700030050E5CF71706EB17773F11A6EB07174A
:100B80003037FCB2392D01DDEE1DF5B2392C01DD17
:100B9000E61DF4B203F81050012606EB40069C5502
:100BA000401C9042DEDB002603F81260F0BD0246D6
:100BB000002100BF05E0505C08B101207047481CCF
:100BC000C1B20329F7DB0020F8E730B502460B4637
:100BD000002010E012F8014B6040002109E000F015
:100BE00001041CB18C2484EA600000E040104C1C1D
:100BF000E1B20829F3DB1C00A3F10105EBB2E9D156
:100C000030BD10B50446002300BF2CE003EBC30148
:100C100001EB0312FE4901EBC200FFF7C8FF0128F8
:100C20001FD103EBC30000EB0311F94800EBC10037
:100C30008078A04215D1F7488079984210D10120E0
:100C4000F449087100204880487003EBC30000EBB2
:100C50000311EF4800EBC1000021016041600181F8
:100C600003E0581CC3B2052BD0DB00BF10BD2DE93B
:100C7000F04305460E46174698460024A14600BF9D
:100C800036E0C4EBC402E4495018FFF790FF68BB9C
:100C90002912C4EBC402E0488154C4EBC4021044DE
:100CA0004570C4EBC401DC48084480F80280C4EB02
:100CB000C401D9480844C7703112C4EBC402D648F5
:100CC00010440171C4EBC402D34810444671C4EB14
:100CD000C402D14950180621FFF777FF8146C4EBC3
:100CE000C401CD48084480F8069003E0601CC4B2FB
:100CF000052CC6DB00BFBDE8F0832DE9F0410546B9
:100D00000E4617464FF00008C248C47900BF1FE0E6
:100D100004EBC40101EB0412C04901EBC200FFF770
:100D200046FF58B904EBC40101EB0412BB4901EBC7
:100D3000C2003246294603F05EFB0CE0042C01DBC6
:100D4000002401E0601CC4B208F1010000F0FF08BB
:100D5000B8F1050FDCDB00BF3B4600224DF6DD514C
:100D60004CF6CC40FFF783FFBDE8F0812DE9F04160
:100D700000260027002540F22441A94802F0C8F9C6
:100D800000287DD0A74802F003FB40F22441A4488C
:100D900002F0E8F9A2480488001D04880021A24856
:100DA00002F0C7FAA04802F0DBFAC0F1C805C82D6E
:100DB00033D2152D31D3974890F8E00000F111049B
:100DC000944890F8D000AA284FD1924890F8D100CA
:100DD000AA284AD18F48D030005DBB2845D18D4824
:100DE000D030611C405CBB283FD1A01CC1B28948F7
:100DF000D030FFF7EAFE07468648D030A11C405CA1
:100E0000B84232D1834890F8D260E01CC1B2324679
:100E10008048D030FFF771FF27E0C82D25D2072D7D
:100E200023D37C4890F8D000CC281ED1794890F884
:100E3000D100CC2819D1774890F8D400DD2814D1FE
:100E4000744890F8D500DD280FD106217148D030C4
:100E5000FFF7BBFE6F4991F8D610884205D16D4867
:100E600090F8D2603046FFF7CCFEA11C6948D03024
:100E700003F006FBC8206C49091D0860012100E051
:100E800002E0694802F055FABDE8F08110B5674804
:100E900002F089FA50B101205E4948710021624890
:100EA000283002F046FA614802F091FA10BD594824
:100EB0004088401C5749488070477CB500255548FC
:100EC0004079012876D100BF37E0C5EBC502524911
:100ED0005018FFF76CFE01282DD14E48002181608B
:100EE00081818173C5EBC5014B48084449490268BB
:100EF0008A6082888A8180798873C5EBC5014648FB
:100F00000844002101608180817100201021C823E4
:100F1000404A0832CDE900104149091D42482830B5
:100F2000FFF782FB072140482830FFF7A7FB00208E
:100F3000384948717CBD681CC5B2052DC5DB3548F4
:100F400040881E2803DA3348007900B9F2E7002010
:100F500030490871488000F0B7FB2E48847900259D
:100F600075E004EBC40101EB0412294901EBC20056
:100F7000FFF71DFE012861D126488079A0421DD1CE
:100F800024484078401C234948700846407801288E
:100F900014DD0020487004EBC40000EB04111C4871
:100FA00000EBC1000021016041600181042C02DBE3
:100FB000002402E050E0601CC4B246E01548002165
:100FC0008160C160018200F5CC70025D04EBC40059
:100FD00000EB04130E4800EBC301A0F5CD7003F045
:100FE0000AFA00201021C8230A4A0832CDE900106D
:100FF0000B49091D0C482830FFF716FB04480A3836
:10100000015D09482830FFF739FB024884710FE081
:1010100097140020F5120020671C00207F18002084
:10102000004C00400001001030040240000001109C
:10103000002081494871087148800AE0042C01DBD6
:10104000002401E0601CC4B200BF681CC5B2052DBD
:1010500087DB00BF00F05CFB00BF6BE72DE9F05FB2
:1010600006460F4691469A460A9D4FF0000BD84619
:10107000C82D01DDBDE8F09F00F026FB6E488479A5
:101080004FF0000B7EE004EBC40101EB04126B494E
:1010900001EBC200FFF78BFD002869D104EBC4000F
:1010A00000EB0412654800F83260311204EBC40012
:1010B00000EB0412614800EBC20041705E48017809
:1010C00004EBC40000EB04125C4800EBC20081702A
:1010D00004EBC40101EB0412584901EBC201C81C26
:1010E0000E22494603F087F904EBC40101EB041218
:1010F000524901EBC20101F111002A46514603F0A9
:101100007AF904EBC40000EB04124C4800EBC20275
:1011100005F111001754391204EBC40000EB04125E
:10112000464800EBC20205F112001154421CD1B234
:1011300004EBC40202EB0413404A02EBC300FFF7C6
:1011400044FD804604EBC40101EB04123B4901EB72
:10115000C20205F1130102F80180481CC1B23748F0
:101160000A38015534480078401C334908700DE0B6
:10117000042C01DB002401E0601CC4B20BF101006F
:1011800000F0FF0BBBF1050FFFF67DAF00BF00F0D5
:10119000BFFA00BF6EE710B5B6B004460E22E11CE0
:1011A00032A803F028F99DF8D52004F11101684612
:1011B00003F021F9BDF8CE000002BDF8CE1040EAE0
:1011C000212080B2ADF8CE00BDF8C8000002BDF805
:1011D000C81040EA212080B2ADF8C800012036B026
:1011E00010BD10B5002400BF22E004EBC40101EBE8
:1011F0000412134901EBC200FFF7D9FC012815D1F5
:1012000004EBC40101EB04120D4901EBC200FFF72E
:10121000C2FF50B104EBC40000EB0411084800EB1E
:10122000C100002101604160018103E0601CC4B283
:10123000052CDADB00BF10BDF5120020971400204A
:101240007F18002010B588B004460121022001F06B
:101250002EFD0121C80401F044FD0121102001F000
:1012600033FD4FF48060ADF81C0018208DF81F008E
:1012700003208DF81E0007A9FE4801F069FA4FF41B
:101280000060ADF81C0004208DF81F0007A9F94884
:1012900001F05EFA03940020ADF81000ADF81200E2
:1012A000ADF81400ADF818000C20ADF8160003A935
:1012B000F14801F0B0FD34208DF8080002208DF8CF
:1012C000090003208DF80A0001208DF80B0002A808
:1012D00001F075F93B208DF8080002208DF8090017
:1012E00003208DF80A0001208DF80B0002A801F000
:1012F00066F9002240F22771DF4801F024FE002247
:1013000040F22551DC4801F01EFE002240F2266129
:10131000D94801F018FE012240F22441D64801F0DC
:1013200012FE01228021D44801F032FE0122402128
:10133000D14801F02DFE00201021C823CF4ACDE96D
:101340000010CD49091DCE48FFF76EF90021CC48A9
:1013500001F0EFFF00200090C823C84AC832C649F8
:10136000091D0190C6482838FFF75EF90121C448DD
:10137000283801F0DEFF01220221C14801F0E5FF1B
:10138000C04802F005F8C04802F002F80121BA484E
:1013900001F0CDFD40F69511B848083803F070F81B
:1013A0000120B6490839487108B010BD10B588B0A1
:1013B00004460121084601F07AFC0121880401F06D
:1013C00090FC0121212001F07FFC0121AF4801F0B8
:1013D00090FA4FF48070ADF81C0018208DF81F00B3
:1013E00003208DF81E0007A9A94801F0B1F94FF4B8
:1013F0000070ADF81C0004208DF81F0003208DF84C
:101400001E0007A9A24801F0A3F903940020ADF83B
:101410001000ADF81200ADF81400ADF818000C2063
:10142000ADF8160003A99B4801F0F5FC27208DF8C4
:10143000080002208DF8090003208DF80A00012021
:101440008DF80B0002A801F0BAF80C208DF8080006
:1014500002208DF8090003208DF80A0001208DF884
:101460000B0002A801F0ABF8002240F22771894876
:1014700001F069FD002240F22551864801F063FD2C
:10148000002240F22661834801F05DFD012240F216
:101490002441804801F057FD012280217D4801F060
:1014A00077FD012240217B4801F072FD00201021D0
:1014B000C823794ACDE900107649091D7748FFF71E
:1014C000B3F80021754801F034FF00200090C823D4
:1014D000714AC8326F49091D019070481430FFF7F6
:1014E000A3F801216D48143001F023FF01220221ED
:1014F0006A4801F02AFF102001F04AFF4FF4807083
:1015000001F046FF0121634801F011FD40F69511FD
:101510006148083802F0B4FF01205F49083948717A
:1015200008B010BD10B588B004460121084601F08E
:10153000BEFB0121480401F0D4FB0121042001F08D
:10154000C3FB0420ADF81C0018208DF81F000320F9
:101550008DF81E0007A9524801F0FAF80820ADF8EE
:101560001C0004208DF81F0007A94D4801F0F0F879
:1015700003940020ADF81000ADF81200ADF814008F
:10158000ADF818000C20ADF8160003A9454801F08D
:1015900042FC26208DF8080002208DF80900032067
:1015A0008DF80A0001208DF80B0002A801F007F861
:1015B00011208DF8080002208DF8090003208DF815
:1015C0000A0001208DF80B0002A800F0F8FF0022AD
:1015D00040F22771334801F0B6FC002240F2255159
:1015E000304801F0B0FC002240F226612D4801F0A5
:1015F000AAFC012240F224412A4801F0A4FC012265
:101600008021284801F0C4FC01224021254801F036
:10161000BFFC00201021C823234ACDE90010214936
:10162000091D1E486430FEF7FFFF00211B4864308F
:1016300001F07FFE00200090C8231B4AC8321949E0
:10164000091D019015485030FEF7EEFF01211348A7
:10165000503001F06EFE012202211048643001F08A
:1016600074FE4FF4801001F093FE4FF0807001F093
:101670008FFE1BE000100140004C0040FD120020D6
:101680005804024000010010000001103000140056
:101690000014014000480040680900201C0002407E
:1016A0000008014000440040921C002001212A480B
:1016B00001F03DFC40F69511284802F0E1FE0120C2
:1016C0002649487108B010BD10B5002240F22441EF
:1016D000234801F038FC00220221224801F035FEA7
:1016E000002240F22441204801F02DFC002202217A
:1016F0001E4801F02AFE002240F22441164801F063
:1017000022FC002202211948643001F01EFE10BDA7
:1017100010B5012240F22441114801F014FC0122CD
:101720000221104801F011FE012240F224410E482E
:1017300001F009FC012202210C4801F006FE012201
:1017400002210A48643001F000FE012240F22441E7
:10175000014801F0F8FB10BD004400408A1C002045
:10176000004C004058040240004800401C00024069
:101770002DE9F05F80460E46914600241CE016F8E5
:1017800014A06000401C16F800B0504602F03CFD6A
:101790003038C5B2092D01DDE81FC5B2584602F048
:1017A00033FD3038C7B2092F01DDF81FC7B207EB90
:1017B000051008F80400641C4C45E0DBBDE8F09F10
:1017C000F0B5034600201EE00E5CF71706EB177716
:1017D0003F1107F130050E5CF71706EB17773F1145
:1017E000A6EB07173037FCB2392D01DDEE1DF5B23F
:1017F000392C01DDE61DF4B203F81050012606EB8A
:1018000040069C55401C9042DEDB002603F8126027
:10181000F0BD0246002100BF05E0505C08B1012088
:101820007047481CC1B20329F7DB0020F8E730B548
:1018300002460B46002010E012F8014B60400021E8
:1018400009E000F001041CB18C2484EA600000E08F
:1018500040104C1CE1B20829F3DB1C00A3F1010588
:10186000EBB2E9D130BD70B50446F7A002F0DCFC64
:1018700000250CE004EBC40000EB0412F74800EB79
:10188000C200415DF6A002F0CFFC681CC5B2F6486C
:10189000005DA842EEDCF5A002F0C6FC70BD10B5FC
:1018A0000446002300BF2FE003EBC30101EB03124A
:1018B000ED49491D01EBC200FFF7ABFF012821D123
:1018C00003EBC30000EB0311E748401D00EBC10030
:1018D0008078A04216D1E6488079984211D1012043
:1018E000E349087100204880487003EBC30000EB17
:1018F0000311DD48401D00EBC10000210160416083
:10190000018103E0581CC3B2052BCDDB00BF10BD25
:101910002DE9F04305460E46174698460024A14699
:1019200000BF36E0C4EBC402D2495018FFF771FF84
:1019300068BB2912C4EBC402CE488154C4EBC40274
:1019400010444570C4EBC401CA48084480F80280C2
:10195000C4EBC401C7480844C7703112C4EBC402C9
:10196000C44810440171C4EBC402C248104446711B
:10197000C4EBC402BF4950180621FFF758FF814647
:10198000C4EBC401BB48084480F8069003E0601C27
:10199000C4B2052CC6DB00BFBDE8F0832DE9F041E1
:1019A00006460D4617464FF00008B148C47900BFFF
:1019B00024E004EBC40101EB0412A84901EBC200CE
:1019C000FFF727FF80B904EBC40101EB0412A34920
:1019D00001EBC2002A46314602F00DFDA248055532
:1019E0002046FFF740FF0CE0042C01DB002401E05F
:1019F000601CC4B208F1010000F0FF08B8F1050F47
:101A0000D7DB00BF3B4600224DF6DD514CF6CC4003
:101A1000FFF77EFFBDE8F0812DE9F04100260027A9
:101A2000002540F22441944801F072FB00287DD04B
:101A30004FF4807001F0ACFC40F224418E4801F07C
:101A400091FB8D480488001D048800218B4801F01B
:101A500070FC8A4801F084FCC0F1C805C82D33D25F
:101A6000152D31D3824890F8E00000F11104804830
:101A700090F8D000AA284FD17D4890F8D100AA282C
:101A80004AD17948CD38005DBB2845D17648CD385C
:101A9000611C405CBB283FD1A01CC1B27248CD384C
:101AA000FFF7C5FE07467048CD38A11C405CB84220
:101AB00032D16F4890F8D260E01CC1B232466A4819
:101AC000CD38FFF76BFF27E0C82D25D2072D23D394
:101AD000674890F8D000CC281ED1654890F8D10016
:101AE000CC2819D1624890F8D400DD2814D1604880
:101AF00090F8D500DD280FD106215B48CD38FFF7DF
:101B000096FE5B4991F8D610884205D1584890F866
:101B1000D2603046FFF7C3FEA11C5348CD3802F017
:101B2000AFFCC82055493039486300E003E001218B
:101B3000524801F0FEFBBDE8F08110B5202001F015
:101B400032FC88B101204A49487100214B481438C1
:101B500001F0EFFB102001F03AFC00BF40214648A5
:101B600001F0C0FA0128F9D110BD41484088401C5D
:101B70003F494880704770B5044641A002F054FBCD
:101B800000250DE004EBC40000EB04123648401DB4
:101B900000EBC200415D32A002F046FB681CC5B2FA
:101BA0003148401F005DA842ECDC30A002F03CFB55
:101BB00070BD7CB5002500BF3CE0C5EBC5022D49DA
:101BC0005018FFF726FE012832D1294800218160F4
:101BD00081818173C5EBC5012648014424480A6808
:101BE00082608A88828189798173C5EBC501214829
:101BF0000844002101608180817100201021C823E8
:101C00001B4A0832CDE900101B49091D1B48143836
:101C1000FEF70AFD072119481438FEF72FFD0122AF
:101C20008021154801F0B4F90020114948717CBDAC
:101C3000681CC5B2052DC0DB0D4840881E2829DA76
:101C40000B48007930BBF2E7BDD3CAD5BBBAB4E6C6
:101C50002D2DCAFDBEDD3A0A00000000EA0E00206C
:101C600025332E3278000000FD0A00200A00000013
:101C700060090020D21200200048004030000240DD
:101C8000B7A2CBCDBBBAB4E62D2DCAFDBEDD3A0A54
:101C900000000000FFF718FD0020C64908714880C9
:101CA00008468479002569E004EBC40101EB0412C5
:101CB000C14901EBC200FFF7ACFD012855D1BD4879
:101CC0008079A0421CD1BB484078401CB94948707B
:101CD00008464078022813DD0020487004EBC40059
:101CE00000EB0411B44800EBC10000210160416029
:101CF0000181042C01DB002401E0601CC4B23BE044
:101D00002046FFF738FFAB4800218160C1600182A7
:101D100000F5CC70025D04EBC40000EB0413A64890
:101D200000EBC301A0F5CD7002F065FB002010218F
:101D3000C823A04A0832CDE90010A049A048FEF708
:101D400073FC9D480A38015D9D48FEF797FC01220F
:101D500080219A48001F01F01BF9964884710020E9
:101D600094494871087148800AE0042C01DB002482
:101D700001E0601CC4B200BF681CC5B2052D93DB36
:101D800000BFFFF7C5FC00BF51E72DE9F05F064635
:101D90000F4691469A460A9D4FF0000BD846C82D33
:101DA00001DDBDE8F09FFFF78FFC824884794FF09A
:101DB000000B7EE004EBC40101EB04127E4901EB51
:101DC000C200FFF726FD002869D104EBC40000EB38
:101DD0000412794800F83260311204EBC40000EBC1
:101DE0000412754800EBC20041707248017804EBA0
:101DF000C40000EB0412704800EBC200817004EBD9
:101E0000C40101EB04126C4901EBC201C81C0E2293
:101E1000494602F0F0FA04EBC40101EB04126649F2
:101E200001EBC20101F111002A46514602F0E3FA2A
:101E300004EBC40000EB04125F4800EBC20205F1A2
:101E400011001754391204EBC40000EB04125A4875
:101E500000EBC20205F112001154421CD1B204EB96
:101E6000C40202EB0413544A02EBC300FFF7DFFC89
:101E7000804604EBC40101EB04124F4901EBC2029E
:101E800005F1130102F80180481CC1B24A480A3822
:101E9000015548480078401C464908700DE0042C64
:101EA00001DB002401E0601CC4B20BF1010000F072
:101EB000FF0BBBF1050FFFF67DAF00BFFFF728FC5E
:101EC00000BF6EE730B5B7B004460D460E22E11CE8
:101ED00033A802F090FA9DF8D92004F1110101A86D
:101EE00002F089FABDF8D2000002BDF8D21040EA33
:101EF000212080B2ADF8D200BDF8CC000002BDF8C0
:101F0000CC1040EA212080B2ADF8CC009DF8D8007A
:101F100004281DD19DF8D90001AB33AA4BF6BB3183
:101F200000904AF6AA2000F0DBF926A002F07CF926
:101F30002B480068C0432B49C1F880016420FEF79C
:101F4000B2FD2848D0F88001C0432649C1F880017D
:101F5000012037B030BD10B5002400BF25E004EBF0
:101F6000C40101EB0412204901EBC200FFF751FC50
:101F7000012818D1104A521F115D04EBC40202EB74
:101F80000413194A02EBC300FFF79CFF50B104EBA6
:101F9000C40000EB0411144800EBC10000210160F3
:101FA0004160018103E0601CC4B2052CD7DB00BF97
:101FB00010BD000060090020020B00200448004012
:101FC0001C0002407A69676265652D2D2D3ED7AAF7
:101FD000B7A22D2D2D2D3EB0B2D7BF0A00000000B4
:101FE0008081224200802242EA0E00200246002127
:101FF00000BF05E0505C08B101207047481CC1B229
:102000000329F7DB0020F8E730B502460B46002035
:1020100010E012F8014B6040002109E000F00104DB
:102020001CB18C2484EA600000E040104C1CE1B23A
:102030000829F3DB1C00A3F10105EBB2E9D130BDA7
:102040002DE9F04105460E4690460027FE48C4792A
:1020500000BF1DE004EBC40101EB0412FB4901EBDE
:10206000C200FFF7C3FF58B904EBC40101EB04122F
:10207000F64901EBC2003246294602F0BCF909E0FC
:10208000042C01DB002401E0601CC4B2781CC7B240
:10209000052FDFDB00BFBDE8F0812DE9F041002511
:1020A0000026002740F22441E94801F031F80028D9
:1020B00055D04FF4801001F06BF940F22441E44810
:1020C00001F050F8E2480488001D04880021E1482E
:1020D00001F02FF9DF4801F043F9C0F1C807C82F1C
:1020E00030D2D94890F8D000AA282BD1D64890F801
:1020F000D100AA2826D1D44890F8E00000F11104BC
:10210000D148D030005DBB281CD1CF48D030611CF5
:10211000405CBB2816D1A01CC1B2CB48D030FFF721
:1021200073FF0646C848D030A11C405CB04209D1BC
:10213000C54890F8D250E01CC1B22A46C248D030FF
:10214000FFF77EFFA11CC048D03002F099F9C820EB
:10215000C0496C3908670121BE4801F0EAF8BDE8C2
:10216000F08110B54FF0007001F01DF990B1012021
:10217000B54948710021B748143001F0DAF84FF042
:10218000807001F024F900BF4021B14800F0AAFF9F
:102190000128F9D110BDAC484088401CAA494880AC
:1021A000704770B50446ACA002F03EF800250CE084
:1021B00004EBC40000EB0412AD4800EBC200415D2B
:1021C000ACA002F031F8681CC5B2A9480A38005D1D
:1021D000A842EDDCA5A002F027F870BD7CB5002573
:1021E000994840881E2803DA9748007900B97CBDD9
:1021F0000020954908714880002240F2244194480B
:1022000000F0A1FE002202219248143001F09DF856
:102210008D488479002552E004EBC40101EB0412DF
:10222000934901EBC200FFF7E1FE01283FD12046B0
:10223000FFF7B7FF844800218160C160018200F58B
:10224000CC70025D04EBC40000EB0413884800EB83
:10225000C301A0F5CD7002F0CEF804EBC40000EB92
:102260000411834800EBC10000210160416001813D
:1022700000201021C823744A0832CDE900107449A7
:10228000091D74481430FEF7CFF979480A38015D0A
:1022900070481430FEF7F2F901216D4800F047FE56
:1022A00069488471002068490871488009E0042C5D
:1022B00001DB002401E0601CC4B2681CC5B2052D1E
:1022C000AADB00BF012202216248143001F03DF870
:1022D000012240F224415E4800F035FE00BF86E74F
:1022E0002DE9F05F06460F46904699460A9D4FF04D
:1022F000000AD346C82D01DDBDE8F09FFFF7E4F9E1
:10230000514884794FF0000B81E004EBC40101EBEC
:102310000412574901EBC200FFF768FE00286CD198
:1023200004EBC40000EB0412514800F83260311293
:1023300004EBC40000EB04124D4800EBC2004170F6
:102340004148017804EBC40000EB0412484800EB5C
:10235000C200817004EBC40101EB0412444901EB9B
:10236000C201C81C0E22414602F045F804EBC4012C
:1023700001EB04123E4901EBC20101F111002A46B2
:10238000494602F038F804EBC40000EB0412384868
:1023900000EBC20205F111001754391204EBC4001E
:1023A00000EB0412324800EBC20205F11200115496
:1023B000421CD1B204EBC40202EB04132C4A02EB20
:1023C000C300FFF721FE824604EBC40000EB0411BA
:1023D000274800EBC10105F1130001F800A0401CE3
:1023E000C1B223480A38015517480078401C1649E5
:1023F00008702046FFF7D5FE0DE0042C01DB002419
:1024000001E0601CC4B20BF1010000F0FF0BBBF156
:10241000050FFFF67AAF00BFFFF77AF900BF6BE751
:1024200010B5B8B004460E22E11C34A801F0E3FF59
:102430009DF8DD2004F1110102A801F0DCFF122259
:1024400002A90E481CE000008A1C00201422002073
:10245000004400406C0002407561727432B7A2CB38
:10246000CDBBBAB4E62D2DCAFDBEDD3A0A00000090
:102470002C1E002025332E32780000002D2600204F
:1024800001F0B9FFBDF8D6000002BDF8D61040EA51
:10249000212080B2ADF8D600BDF8D0000002BDF812
:1024A000D01040EA212080B2ADF8D0009DF8DC00C9
:1024B00004281DD19DF8DD0002AB34AA4BF6BB31D8
:1024C00000904AF6AA20FFF760FC20A001F0ACFEC5
:1024D00025480068C0432549C1F880016420FEF703
:1024E000E2FA2248D0F88001C0432049C1F88001B7
:1024F000012038B010BD10B5002400BF22E004EB6D
:10250000C40101EB04121A4901EBC200FFF76EFD92
:10251000012815D104EBC40101EB0412144901EBAD
:10252000C200FFF77DFF50B104EBC40000EB0411C3
:102530000F4800EBC100002101604160018103E010
:10254000601CC4B2052CDADB00BF10BDB0B2D7BF2F
:102550002D2D2D3ED7AAB7A22D2D2D2D3E7A6967A0
:102560006265650A000000008081224200802242EC
:10257000142200200948804709480047FEE7FEE78B
:10258000FEE7FEE7FEE7FEE7FEE7FEE7FEE7FEE723
:1025900004480549054A064B7047000053040008EB
:1025A00031010008A0260020A0300020A028002033
:1025B000A028002031490143314A1160704770B5AD
:1025C000002100230F22C47804B32D4C246804F4A6
:1025D000E064C4F5E064210AC1F10403CA40447810
:1025E00004FA03F18478144021430901254C06784C
:1025F000A155047804F01F050124AC4005786D1145
:10260000AD0005F1E025C5F8004109E0047804F0CB
:102610001F050124AC401C4D0678761145F8264074
:1026200070BD1A4A0A400243154B1B1F1A607047BF
:1026300039B1134A121D12680243114B1B1D1A6057
:1026400006E00F4A121D126882430D4B1B1D1A60D3
:102650007047042808D14FF0E021096941F00401D6
:102660004FF0E022116107E04FF0E021096921F00D
:1026700004014FF0E0221161704700000000FA05EC
:102680000CED00E000E400E080E100E080FFFF1FCF
:1026900010B50446CC48844208D10121042000F042
:1026A0002DFB0021042000F029FB46E0C7488442AE
:1026B00008D10121082000F021FB0021082000F0B2
:1026C0001DFB3AE0C248844208D10121102000F0ED
:1026D00015FB0021102000F011FB2EE0BD488442C4
:1026E00008D10121202000F009FB0021202000F06A
:1026F00005FB22E0B848844208D10121402000F0C7
:10270000FDFA0021402000F0F9FA16E0B3488442B7
:1027100008D10121802000F0F1FA0021802000F092
:10272000EDFA0AE0AE48844207D10121801500F09D
:10273000E5FA0021A01500F0E1FA10BD10B5012165
:10274000084600F0DBFA0021012000F0D7FA10BDA6
:102750002DE9F04102460025002600200023002438
:10276000002791F803C00CF00F0591F803C00CF09E
:10277000100CBCF1000F03D091F802C04CEA050523
:1027800091F800C0BCF1000F31D0146800202BE09C
:102790004FF0010C0CFA00F3B1F800C00CEA03068C
:1027A0009E4220D183004FF00F0C0CFA03F7BC437C
:1027B00005FA03FC4CEA040491F803C0BCF1280FAD
:1027C00006D14FF0010C0CFA00FCC2F814C00AE06C
:1027D00091F803C0BCF1480F05D14FF0010C0CFA81
:1027E00000FCC2F810C0401C0828D1D31460B1F816
:1027F00000C0BCF1FF0F34DD546800202EE000F172
:10280000080C4FF0010808FA0CF3B1F800C00CEA0C
:1028100003069E4221D183004FF00F0C0CFA03F700
:10282000BC4305FA03FC4CEA040491F803C0BCF174
:10283000280F05D100F1080C08FA0CF8C2F8148032
:1028400091F803C0BCF1480F07D100F1080C4FF01C
:10285000010808FA0CF8C2F81080401C0828CED3F2
:102860005460BDE8F0814FF6FF7101800221817054
:102870000421C17070470246002093680B400BB1E1
:10288000012000E0002070470146886880B2704750
:1028900002460020D3680B400BB1012000E000206D
:1028A00070470146C86880B2704701617047416156
:1028B00070470AB1016100E041617047C160704733
:1028C0004FF480320A438261816182618269826948
:1028D000704702460020434B18684FF6807318403B
:1028E00040EA021008433F4B186070473E49C861F8
:1028F0007047F0B50A46002300240021002500F0AF
:102900000046B6F1004F02D1364EF16901E0354E76
:102910007168C0F3034583B200F44016B6F5401F5A
:1029200008D121F070612F4E766826F070662D4F29
:102930007E6012E000F48016B6F5801F06D10326F3
:1029400006FA05F4A14341F0706106E0460D360138
:1029500003FA06F6B14341F0706122B1460D36012B
:1029600003FA06F6314300F00046B6F1004F02D1FB
:102970001C4EF16101E01B4E7160F0BD30B50022CC
:102980008B071C0F0F2303FA04F2164B08338C102D
:1029900053F824309343134C08348D1044F82530F9
:1029A00023468C1053F824308C07240F00FA04F4CB
:1029B00023430C4C08348D1044F8253030BD0A49AF
:1029C000DC3108607047000000080140000C014045
:1029D000001001400014014000180140001C01409B
:1029E000002001400000014000002042DF48006854
:1029F00040F00100DD49086008464068DC490840B5
:102A0000DA49486008460068DA490840D749086052
:102A10000846006820F4802008600846406820F4DA
:102A2000FE0048604FF41F0088607047CF49096876
:102A300021F48031CD4A11601146096821F48021CA
:102A40001160B0F5803F03D0B0F5802F0ED106E0C5
:102A5000C649096841F48031C44A116007E0C3499E
:102A6000096841F4A021C14A116000E000BF00BF25
:102A7000704710B501460022002300204A11012AA8
:102A800002D1BA4C236806E0022A02D1B74C236A6D
:102A900001E0B64C636A01F01F02012494401C401F
:102AA0000CB1012000E0002010BD38B500200090DE
:102AB0000024002500BF3120FFF7DBFF054600980A
:102AC000401C00900098B0F5A06F01D0002DF2D00E
:102AD0003120FFF7CEFF08B1012400E0002420469A
:102AE00038BD01460020A14A106820F0F80040EAF5
:102AF000C10010607047A04908607047024600207E
:102B00009A4B586820F47C1042EA01031843974B13
:102B10005860704798490866704701460020934AFC
:102B2000506820F003000843506070478F484068A9
:102B300000F00C007047014600208C4A506820F0DD
:102B4000F00008435060704701460020874A5068F3
:102B500020F4E06008435060704701460020834A3B
:102B6000506820F4605040EAC1005060704729B1BD
:102B70007E4A527A02437D4B5A7204E07B4A527A73
:102B800082437A4B5A7270477B49D831086070474C
:102B900001460020754A506820F4404008435060C8
:102BA00070470021714A20321170704A82F820105B
:102BB000012802D004280AD104E001216B4A203206
:102BC000117005E00521694A2032117000E000BF54
:102BD00000BF70476949086070476449096A01434A
:102BE000624A11627047654944390860704730B5E0
:102BF00000210022002400235C4D6D6805F00C01CB
:102C000021B1042905D0082923D105E05C4D0560D8
:102C100022E05B4D05601FE0544D6D6805F47012B5
:102C2000524D6D6805F48034022505EB92421CB9C3
:102C3000544D554305600BE04C4D6D6805F400356F
:102C40001DB1504D5543056002E04D4D55430560A3
:102C500002E04B4D056000BF00BF444D6D6805F0BC
:102C6000F0010909484D6B5C0568DD4045603F4D4A
:102C70006D6805F4E061090A434D6B5C4568DD4011
:102C800085603A4D6D6805F46051C90A3E4D6B5C34
:102C90004568DD40C560354D6D6805F44041890BE0
:102CA0003A4D6B5CC568B5FBF3F5056130BD29B1E4
:102CB0002E4A526902432D4B5A6104E02B4A526955
:102CC00082432A4B5A61704729B1284A92690243CC
:102CD000264B9A6104E0254A92698243234B9A610C
:102CE000704729B1214AD2690243204BDA6104E0DE
:102CF0001E4AD26982431D4BDA61704729B11B4AD3
:102D0000D2680243194BDA6004E0184AD268824361
:102D1000164BDA60704729B1144A12690243134B0B
:102D20001A6104E0114A12698243104B1A6170471C
:102D300012494039086070470F49C86470470B4911
:102D4000C87170470948406A40F08070074948627E
:102D5000704701460020054A92680A400AB10120E6
:102D600000E000207047014988727047001002405F
:102D70000000FFF8FFFFF6FE0000424280044242DE
:102D800000127A0000093D003A0000204A000020AD
:102D900010B50446FB48844209D101218803FFF79E
:102DA000ADFF00214FF48040FFF7A8FF32E0F64866
:102DB000844209D101214804FFF7ADFF00214FF4FF
:102DC0000030FFF7A8FF25E0F048844209D1012137
:102DD0008804FFF7A0FF00214FF48020FFF79BFF3E
:102DE00018E0EB48844209D10121C804FFF793FFA2
:102DF00000214FF40020FFF78EFF0BE0E5488442EE
:102E000008D101210805FFF786FF00214FF480104B
:102E1000FFF781FF10BD2DE9F04786B005460E464D
:102E20000024A24600BFA1460027B08900B100BF20
:102E30002F462C8A4CF6FF700440F08804432C8205
:102E4000AC894EF6F3100440B0883189084371898B
:102E500008430443AC81AC8A4FF6FF400440B0897C
:102E60000443AC8201A8FFF7C2FEC648874202D1E4
:102E7000DDF810A001E0DDF80CA0A88900F4004006
:102E800040B10AEBCA0000EB0A1031684900B0FB00
:102E9000F1F807E00AEBCA0000EB0A10316889007C
:102EA000B0FBF1F86420B8FBF0F0040120096421C4
:102EB00001FB1089A88900F4004040B1322000EBEA
:102EC000C900B0FBF1F000F00700044308E0322035
:102ED00000EB09106421B0FBF1F000F00F00044397
:102EE0002C8106B0BDE8F0874FF416510160002137
:102EF0008180C18001810C21418100218181704745
:102F000010B502460020108A4FF2FF0318400B88CC
:102F10004C8823438C882343CC8823431843108256
:102F200010BD0021018041808180C180704721B1A6
:102F3000828942F40052828104E082894DF6FF7357
:102F40001A4082817047F0B5034600240026002510
:102F5000002040F66A17B94200D100BF1846C1F3FD
:102F6000421401F01F06012707FA06F5012C01D1D2
:102F70000C3004E0022C01D1103000E014301AB102
:102F800007682F43076002E00768AF430760F0BDA2
:102F90001AB1838A0B43838202E0838A8B43838244
:102FA0007047028A4FF6F0731A400282028A0A437F
:102FB0000282704782894FF2FF731A4082818289B0
:102FC0000A438281704721B1828942F002028281E4
:102FD00004E082894FF6FD731A4082817047028AAD
:102FE0004FF6DF731A400282028A0A430282704758
:102FF00021B1028A42F48042028204E0028A4BF646
:10300000FF731A4002827047C1F308028280704742
:1030100001468888C0F308007047818941F00101AA
:1030200081817047028BD2B20283028B42EA012275
:1030300002837047028B02F47F420283028B0A43B1
:103040000283704721B1828A42F02002828204E02A
:10305000828A4FF6DF731A408282704721B1828ADA
:1030600042F01002828204E0828A4FF6EF731A4027
:103070008282704721B1828A42F00802828204E093
:10308000828A4FF6F7731A408282704721B1828993
:1030900042F40042828103E08289C2F30E028281FF
:1030A000704721B1828A42F40062828204E0828AFF
:1030B0004FF2FF731A4082827047828A4FF6FB7389
:1030C0001A408282828A0A438282704721B1828AB0
:1030D00042F00202828204E0828A4FF6FD731A40B7
:1030E0008282704702460020B1F5007F00D100BF08
:1030F00013880B400BB1012000E00020704701F461
:103100000072B2F5007F00D100BFCA430280704751
:1031100070B50246002400230025002040F66A1600
:10312000B14200D100BFC1F3421501F01F030126D7
:1031300006FA03F3012D02D19689334006E0022DF1
:1031400002D1168A334001E0968A33400C120126E0
:1031500006FA04F41688344013B10CB1012000E0E3
:10316000002070BD10B50022002340F66A14A14271
:1031700000D100BF0A1201249440A3B2DC430480B2
:1031800010BD0000003801400044004000480040ED
:10319000004C00400050004001684FF6FE721140A4
:1031A00001600021016041608160C1608D498842F9
:1031B00008D18C490839496841F00F01894A083A19
:1031C00051608AE087491431884208D1854908391D
:1031D000496841F0F001834A083A51607DE0814935
:1031E0002831884208D17F490839496841F4706123
:1031F0007C4A083A516070E07A493C31884208D1F3
:1032000078490839496841F47041764A083A516072
:1032100063E074495031884208D1724908394968DD
:1032200041F470216F4A083A516056E06D496431AB
:10323000884208D16B490839496841F47001694AEC
:10324000083A516049E067497831884208D16549B8
:103250000839496841F07061624A083A51603CE0BF
:103260006149884206D1011F096841F00F01021F20
:10327000116032E05C491431884208D15A49091F73
:10328000096841F0F001584A121F116025E05649C3
:103290002831884208D15449091F096841F47061F6
:1032A000514A121F116018E04F493C31884208D141
:1032B0004D49091F096841F470414B4A121F1160C2
:1032C0000BE049495031884207D14749091F096835
:1032D00041F47021444A121F1160704710B500225A
:1032E000026847F6F0739A430C6A8B6823430C69B3
:1032F00023434C6923438C692343CC6923434C6AA1
:1033000023438C6A23431A430260CB6843600B68F3
:1033100083604B68C36010BD002101604160816023
:10332000C160016141618161C1610162416281628B
:10333000704721B1026842F00102026004E00268B5
:103340004FF6FE731A40026070471AB103680B43D0
:10335000036002E003688B4303607047416070477D
:103360000146486880B2704701460020002201F003
:1033700080531BB11C4B083B1A6802E0194B083BF9
:103380001A6802EA01030BB1012000E00020704737
:1033900000F0805119B11449091F086002E0114979
:1033A00008394860704701460020002201F0805330
:1033B0001BB10D4B083B1A6802E00A4B083B1A6828
:1033C00002EA01030BB1012000E00020704700F089
:1033D000805119B10449091F086002E00149083908
:1033E00048607047080002400804024010B50446D7
:1033F000FE48844208D10121C014FFF77FFC002160
:10340000E014FFF77BFCC4E0B4F1804F08D1012148
:103410000846FFF780FC00210120FFF77CFCB8E0A4
:10342000F348844208D101210220FFF774FC0021F7
:103430000220FFF770FCACE0EE48844208D1012185
:103440000420FFF768FC00210420FFF764FCA0E0E3
:10345000E948844208D101210820FFF75CFC0021E3
:103460000820FFF758FC94E0E448844208D1012189
:103470001020FFF750FC00211020FFF74CFC88E0E3
:10348000DF48844208D101212020FFF744FC0021BD
:103490002020FFF740FC7CE0DA48844208D101217B
:1034A0004014FFF72BFC00216014FFF727FC70E0AD
:1034B000D548844209D10121C804FFF71FFC00212F
:1034C0004FF40020FFF71AFC63E0D048844209D192
:1034D00001210805FFF712FC00214FF48010FFF7CF
:1034E0000DFC56E0CA48844209D101214805FFF786
:1034F00005FC00214FF40010FFF700FC49E0C5482F
:10350000844208D101214020FFF705FC0021402022
:10351000FFF701FC3DE0C048844208D10121802032
:10352000FFF7F9FB00218020FFF7F5FB31E0BB48F6
:10353000844208D101218015FFF7EDFB0021A01581
:10354000FFF7E9FB25E0B648844209D101210804D0
:10355000FFF7D4FB00214FF48030FFF7CFFB18E0DA
:10356000B048844209D101214804FFF7C7FB00217C
:103570004FF40030FFF7C2FB0BE0AB48844208D1A8
:1035800001218804FFF7BAFB00214FF48020FFF7E8
:10359000B5FB10BD00220288944B98420ED0994B87
:1035A00098420BD0B0F1804F08D0914B984205D093
:1035B000904B984202D0904B984204D14FF68F73B3
:1035C0001A404B881A438D4B984207D08C4B984237
:1035D00004D04FF6FF431A40CB881A4302808B88F1
:1035E00083850B880385814B98420BD0854B98428D
:1035F00008D08B4B984205D08A4B984202D08A4B18
:10360000984201D10B7A038601238382704770B5FB
:10361000002400220023058C4FF6FE7635400584F9
:10362000028C8388048B4FF68F752C40B51E2C407E
:103630000D882C43751E2A400D892A434D882A4344
:103640006A4DA8420BD06F4DA84208D0744DA842D5
:1036500005D0744DA84202D0734DA84213D14FF645
:10366000F7752A404D892A434FF6FB752A408D880D
:103670002A434FF6FF652B404FF6FF552B408D89AF
:103680002B43CD892B4383800483CD888586028498
:1036900070BD70B5002400220023058C4FF6EF7634
:1036A00035400584028C8388048B48F6FF752C40D6
:1036B0004FF6FF452C400D884FF6FF7606EA0525AC
:1036C0002C434FF6DF752A400D8906EA05152A437B
:1036D0004D8806EA05152A43444DA84202D0494DBB
:1036E000A8421DD14FF67F752A404D894FF6FF76CF
:1036F00006EA05152A434FF6BF752A408D8806EA6B
:1037000005152A434FF6FF352B404FF2FF752B402E
:103710008D8906EA85052B43CD8906EA85052B436D
:1037200083800483CD880587028470BD70B5002432
:1037300000220023058C4FF6FF6635400584028C7D
:103740008388848B4FF68F752C404FF6FC752C4088
:103750000D882C434FF6FF552A400D894FF6FF7612
:1037600006EA05252A434D8806EA05252A431F4D0A
:10377000A84202D0234DA8421DD14FF2FF752A4026
:103780004D894FF6FF7606EA05252A434FF6FF35A9
:103790002A408D8806EA05252A434EF6FF752B4000
:1037A0004DF6FF752B408D8906EA05152B43CD8913
:1037B00006EA05152B4383808483CD8885870284A0
:1037C00070BD70B5002200230024058C4EF6FF76F4
:1037D00035400584038C8488828B48F6FF752A4027
:1037E0004FF6FF452A400D8820E00000002C0140E4
:1037F0000004004000080040000C004000100040A1
:103800000014004000340140004C014000500140D1
:103810000054014000180040001C004000200040FF
:103820000040014000440140004801404FF6FF764F
:1038300006EA05252A434DF6FF752B400D8906EA59
:1038400005352B434D8806EA05352B43FA4DA84232
:1038500002D0FA4DA84208D14BF6FF752C408D8955
:103860004FF6FF7606EA85152C4384808283CD8847
:10387000A0F84050038470BD828B4FF2FF331A4092
:103880008283828B4FF6FF7303EA01231A438283FC
:103890007047F0B50C461546002200210026078C23
:1038A0004EF6FF7C07EA0C070784828B018C4FF6EB
:1038B000FF7707EA043640F6FF473A404FF6FF77B6
:1038C00007EA05273A434FF6FF7707EA03373A43FB
:1038D000D94FB8420ED0D94FB8420BD0B0F1804F7B
:1038E00008D0D74FB84205D0D64FB84202D0D64FF5
:1038F000B84206D14DF6FF77394046F48057394338
:1039000005E047F6FF57394044F480573943828336
:103910000184F0BD828B4FF6F3731A408283828B51
:103920000A4382837047F0B50C46154600220021F9
:103930000026078C4FF6FF6C07EA0C070784828B82
:10394000018C4FF6FF7707EA04264FF60C773A40D2
:103950004FF6FF7707EA03172F433A43B64FB842B3
:103960000ED0B64FB8420BD0B0F1804F08D0B44F54
:10397000B84205D0B34FB84202D0B34FB84206D1D7
:103980004FF6FF57394046F48077394305E04FF250
:10399000FF57394044F48077394382830184F0BD76
:1039A000028B4FF2FF331A400283028B4FF6FF73F4
:1039B00003EA01231A4302837047F0B50C4615460B
:1039C000002200210026078C4FF6EF7C07EA0C0747
:1039D0000784028B018C4FF6FF7707EA041640F646
:1039E000FF473A404FF6FF7707EA03373A434FF66F
:1039F000FF7707EA05273A438F4FB8420ED08F4F23
:103A0000B8420BD0B0F1804F08D08D4FB84205D0EE
:103A10008C4FB84202D08C4FB84206D14FF6DF77B8
:103A2000394046F01007394305E04FF65F773940DB
:103A300044F01007394302830184F0BD028B4FF636
:103A4000F3731A400283028B0A4302837047F0B576
:103A50000C46154600220021068C4FF6FE773E40AC
:103A60000684028B018C4FF60C7632407E1C06EAEF
:103A700003162E433243704EB0420ED06F4EB0420A
:103A80000BD0B0F1804F08D06D4EB04205D06D4ED6
:103A9000B04202D06C4EB04206D14FF6FD763140B6
:103AA00044F00106314305E04FF6F576314044F02D
:103AB0000106314302830184F0BD70B505460C4612
:103AC0005D4885420ED05D4885420BD0B5F1804FF0
:103AD00008D05B48854205D05A48854202D05A48F2
:103AE000854200D100E000BF208850B92389A28818
:103AF00061882846FFF7ABFFE1882846FFF79EFF65
:103B000025E0208804280AD12389A28861882846D4
:103B1000FFF753FFE1882846FFF742FF17E02088B0
:103B200008280AD12389A28861882846FFF7FBFE6E
:103B3000E1882846FFF7EEFE09E02389A288618824
:103B40002846FFF7A6FEE1882846FFF795FE70BDE0
:103B50002DE9F04105460C4600260127608808B98A
:103B6000022600E00026A088012801D1022700E0FB
:103B700001272088A0B92389A28861882846FFF7F9
:103B800066FFE1882846FFF759FF23893A46314608
:103B90002846FFF712FFE1882846FFF701FF13E0F0
:103BA0002389A28861882846FFF707FFE188284615
:103BB000FFF7F6FE23893A4631462846FFF747FFCE
:103BC000E1882846FFF73AFFBDE8F0810A884B8874
:103BD0001A438B881A43CB881A430B891A434B89A3
:103BE0001A438B891A43A0F8442070474FF6FF719F
:103BF000818000210180C1804180017270470021D5
:103C0000018041808180C180018141818181C181A8
:103C10007047002101804180012181800021C18005
:103C2000018170470021018041808180C180018134
:103C30004181818170470000002C01400034014027
:103C40000004004000080040000C004021B1028840
:103C500042F00102028004E002884FF6FE731A402F
:103C60000280704731B1B0F8442042F40042A0F81D
:103C7000442005E0B0F84420C2F30E02A0F844202E
:103C800070471AB183890B43838102E083898B4398
:103C9000838170478182704741EA0203A0F848306F
:103CA00070471AB183890B43838102E083898B4378
:103CB0008381704701894FF6F87211400181704786
:103CC0000A46002101894FF68F7319401143018183
:103CD000704730B504460D4629462046FFF7F0FFF1
:103CE000208940F00700208130BD2DE9F0410446D5
:103CF0000D4616461F46602D06D13B460122314631
:103D00002046FFF75AFE05E03B4601223146204699
:103D1000FFF79DFE29462046FFF7D2FF208940F09D
:103D200007002081BDE8F08130B50C4600210189F3
:103D3000C9B24FF6FF7505EA03251543254329430C
:103D4000018130BD2DE9F04105460E4617469846E3
:103D5000002443463A4631462846FFF7E5FF2C89C2
:103D60004FF6F870044044F007044FF68F7004409B
:103D700044F070042C81BDE8F081F0B504460D4696
:103D800016461F463B46324629462046FFF7CCFFE3
:103D9000208940F480402081F0BD018582827047F7
:103DA0000A46002101884FF68F73194011430180A4
:103DB0007047F0B50C4615461E4600210022002330
:103DC0000189028B038C4FF6F877394021434FF677
:103DD000FC473A4040F201173A434FF6DD773B404B
:103DE0004FF6FF7707EA06172F433B430181028313
:103DF0000384F0BD0A460021018B4FF68F731940F2
:103E00001143018370470A460021018B48F6FF7376
:103E100019404FF6FF7303EA0223194301837047E9
:103E20000A460021818B4FF68F731940114381831D
:103E300070470A460021818B48F6FF7319404FF600
:103E4000FF7303EA022319438183704721B102887B
:103E500042F08002028004E002884FF67F731A402D
:103E60000280704721B1828842F00402828004E01F
:103E700082884FF6FB731A408280704721B1828896
:103E800042F00802828004E082884FF6F7731A40FD
:103E90008280704721B1828842F00102828004E072
:103EA00082884FF6FE731A40828070470A460021CE
:103EB000018B4FF6F77319401143018370470A468F
:103EC0000021018B4FF2FF7319404FF6FF7303EA95
:103ED00002231943018370470A460021818B4FF664
:103EE000F77319401143818370470A460021818B83
:103EF0004FF2FF7319404FF6FF7303EA0223194391
:103F0000818370470A460021018B4FF6FB731940ED
:103F10001143018370470A460021018B4FF6FF339E
:103F200019404FF6FF7303EA0223194301837047D8
:103F30000A460021818B4FF6FB73194011438183A0
:103F400070470A460021818B4FF6FF3319404FF628
:103F5000FF7303EA02231943818370470A46002155
:103F6000018B4FF67F7319401143018370470A4656
:103F70000021018BC1F30E014FF6FF7303EA022308
:103F80001943018370470A460021818B4FF67F73E6
:103F900019401143818370470A460021818BC1F388
:103FA0000E014FF6FF7303EA022319438183704722
:103FB0000A460021018C4FF6FD731940114301841C
:103FC00070470A460021018C4FF6F77319401143E0
:103FD000018470470A460021018C4FF6DF731940B7
:103FE0004FF6FF7303EA02131943018470470A4630
:103FF0000021018C4FF67F7319404FF6FF7303EADF
:1040000002131943018470470A460021018C4FF6C0
:10401000FF5319404FF6FF7303EA0223194301844B
:1040200070470A460021018C4FF2FF7319404FF68A
:10403000FF7303EA02231943018470470A460021F3
:10404000018C4DF6FF7319404FF6FF7303EA0233FC
:1040500019430184704730B5002301248C40A3B27A
:10406000048C9C430484048C02FA01F5ADB22C4309
:10407000048430BD30B5002304248C40A3B2048CEA
:104080009C430484048C02FA01F5ADB22C430484F1
:1040900030BD70B5034600200024184618300125B5
:1040A0008D40ACB21D8CA5431D8409B1082909D1EE
:1040B00000EB6100056825F0700505600568154393
:1040C00005600EE00D1FC5F34E052844056825F474
:1040D000E045056005684FF6FF7606EA022635439F
:1040E000056070BD21B1028842F00202028004E046
:1040F00002884FF6FD731A400280704721B1028892
:1041000042F00402028004E002884FF6FB731A407A
:104110000280704721B1828842F08002828004E0F0
:1041200082884FF67F731A408280704702884FF66C
:10413000F7731A40028002880A430280704782881F
:104140004FF68F731A40828082880A4382807047BC
:1041500002894FF6F8731A40028102890A430281EC
:10416000704702894FF67F731A40028102890A4321
:1041700002817047818470478185704781867047CE
:104180000187704781877047A0F840107047028808
:104190004FF6FF431A40028002880A4302807047AC
:1041A0000146888E70470146088F70470146888F08
:1041B00070470146B1F8400070470146888C70474F
:1041C0000146088D704702460020138A0B400BB150
:1041D000012000E000207047CA430282704730B5DA
:1041E0000246002000230024158A05EA0103958970
:1041F00005EA010413B10CB1012000E0002030BD3C
:10420000CA4302827047704710B5044600F086F931
:104210000068005D000704D5DF2C02D0A4F1200067
:1042200010BD204610BD00000FB4044910B503AA0C
:10423000029800F0D5F910BC5DF814FB2C000020AA
:1042400070B5044685690068C10601D5302600E0D6
:104250002026C00707D070BDD4E901213046904721
:10426000206A401C20626D1EF6D570BD70B50446F4
:1042700085690078C00707D170BDD4E901212020ED
:104280009047206A401C20626D1EF6D570BD00006C
:1042900070B504460D4621461068AFF300802188B2
:1042A000090502D50F4A7A4402E00E4A7A440E32DA
:1042B000002104F1240305E000F00F060009965DDB
:1042C0005E54491C0028F7D120780023000704D54C
:1042D000702D02D009B1022311322046BDE8704092
:1042E00000F024B9260500002DE9F0474FF0000A40
:1042F00089460446C0F820A02046E1688847002887
:1043000076D0252806D0D4E901219047206A401CA8
:104310002062F1E7E168204600258847C4F81CA028
:1043200006460027C4F818A02A2E09D0304600F00F
:104330002BFA38B304EB8708303EC8F8186019E050
:1043400059F8041B204604EB87029161E168884715
:10435000012F064618D1E069002820DA25F0200553
:104360001DE0D8F8180000EB800006EB4000303864
:10437000C8F818002046E1688847064600F004FAAD
:104380000028EED1012F0AD02E2E08D12046E16858
:1043900088477F1C0646022F45F02005C4DBA06934
:1043A000002803DA404245F00105A061E80701D08A
:1043B00025F01005B6B1A6F14100192802D8203623
:1043C00045F400654A463146204625604D46FBF7D8
:1043D000E9FE58B1012806D0ED1D25F0070000F1D7
:1043E000080989E704E005F1040985E730468AE712
:1043F000206ABDE8F087032A40F2308010F0030CF9
:1044000000F0158011F8013BBCF1020F624498BF27
:1044100011F801CB00F8013B38BF11F8013BA2F1C4
:10442000040298BF00F801CB38BF00F8013B11F03F
:10443000030300F0E780083AC0F0088051F8043B1D
:10444000083A51F804CBA0E80810F5E7121D5CBF4C
:1044500051F8043B40F8043BAFF30080D20724BF7F
:1044600011F8013B11F801CB48BF11F8012B24BF13
:1044700000F8013B00F801CB48BF00F8012B704762
:104480004FF000020429C0F0128010F0030C00F07D
:104490001B80CCF1040CBCF1020F18BF00F8012BFB
:1044A000A8BF20F8022BA1EB0C0100F00DB85FEAC9
:1044B000C17C24BF00F8012B00F8012B48BF00F895
:1044C000012B70474FF0000200B513469446964604
:1044D000203922BFA0E80C50A0E80C50B1F1200117
:1044E000BFF4F7AF090728BFA0E80C5048BF0CC0C5
:1044F0005DF804EB890028BF40F8042B08BF704723
:1045000048BF20F8022B11F0804F18BF00F8012B94
:1045100070477047704770477047000010B500F053
:10452000A3F8001D10BD00BF710200002DE9F04787
:104530000D4699469246044600F124080168880613
:1045400004D5E06921F01001216000E00120A842BB
:1045500001DD471B00E00027A1697A1902EB090081
:10456000081AA0612078C00602D42046FFF768FE32
:10457000002608E0D4E901211AF806009047206AD5
:10458000401C761C20624E45F4DB2078C0060AD51C
:104590002046FFF755FE06E0D4E901213020904780
:1045A000206A401C2062381EA7F10107F4DC07E0F6
:1045B000D4E9012118F805009047206A401C2062C8
:1045C000281EA5F10105F3DC2046FFF74FFE2078F9
:1045D000000602D50220BDE8F0870120FBE70000BD
:1045E000074B70B50D467B4400F047F8044628465B
:1045F00000F056F810B14FF0FF3070BD204670BD8E
:10460000B5C0FFFF10B5203AC0F00B80B1E81850DC
:10461000203AA0E81850B1E81850A0E81850BFF4AC
:10462000F5AF5FEA027C24BFB1E81850A0E818504B
:1046300044BF18C918C0BDE810405FEA827C24BF9F
:1046400051F8043B40F8043B08BF7047D20728BF2D
:1046500031F8023B48BF11F8012B28BF20F8023B7C
:1046600048BF00F8012B70470048704760260020C3
:1046700001694A1C02610878704700B58FB0CDE926
:1046800001310021059105497944CDE90310114616
:104690006846FFF729FE0FB000BD0000E5FFFFFFF1
:1046A000007B00F0800070470048704740260020E3
:1046B0007546FFF7F9FFAE4605006946534620F000
:1046C0000700854618B020B5FDF762FFBDE8204021
:1046D0004FF000064FF000074FF000084FF0000BBE
:1046E00021F00701AC46ACE8C009ACE8C009ACE871
:1046F000C009ACE8C0098D4670470446AFF300809E
:104700002046FBF76AFD00004FF0013C50F8042BF7
:1047100051F8043B9A4221D1A2EB0C03934313EAD4
:10472000CC1317D150F8042B51F8043B9A4215D101
:10473000A2EB0C03934313EACC130BD150F8042BD8
:1047400051F8043B9A4209D1A2EB0C03934313EABC
:10475000CC13DBD04FF00000704700BFD01A01BA75
:10476000B1FA81F101F0180122FA01F0CB40C1F158
:104770002001DBB2C0B2C01A2CFA01F3D11A914366
:1047800011EAC311E6D1704730380A2801D201205E
:10479000704700207047000010B500290AD0087843
:1047A000002807D005487844FFF7AEFF002801D065
:1047B000002010BD0248784410BD000072000000C7
:1047C0006A0000000102030405060708090A0B003D
:1047D0003031323334353637383941424344454637
:1047E0004030580030313233343536373839616231
:1047F00063646566403078002849000800000020A6
:10480000500000006C0100087849000850000020AA
:104810005030000088010008100100004300000033
:10482000F8FFFFFF004040404040404040404141D1
:104830004141414040404040404040404040404075
:10484000404040404005020202020202020202020F
:10485000020202020220202020202020202020020C
:10486000020202020202909090909090101010109C
:104870001010101010101010101010101010101038
:1048800002020202020288888888888808080808CC
:104890000808080808080808080808080808080898
:1048A00002020202400000000000000000000000C0
:1048B00000000000000000000000000000000000F8
:1048C00000000000000000000000000000000000E8
:1048D00000000000000000000000000000000000D8
:1048E00000000000000000000000000000000000C8
:1048F00000000000000000000000000000000000B8
:1049000000000000000000000000000000000000A7
:104910000000000000000000000000000000000097
:104920000000000000000000000000000000000087
:104930000000000000000000000000000000000077
:1049400000A24A040000000000000000010203046D
:104950000607080900000000000000000000000039
:104960000000000000000102030401020304060726
:0849700008090204060800001A
:0400000508000131BD
:00000001FF
