:020000040800F2
:1000000038290020197300088D1000088F1000088F
:1000100093100008971000089B10000800000000D3
:100020000000000000000000000000009F10000819
:10003000A110000800000000A3100008A51000088F
:1000400033730008337300083373000833730008F8
:1000500033730008337300083373000833730008E8
:1000600033730008337300083373000833730008D8
:10007000E3230008337300080D1A000833730008E7
:1000800033730008D3290008337300083373000862
:10009000337300083373000833730008612E0008BF
:1000A000337300086D11000833730008DB1000087B
:1000B00073330008CF11000833730008337300084E
:1000C0003373000833730008337300083373000878
:1000D000337300086318000817290008C1220008BC
:1000E000A710000833730008337300083373000847
:1000F0003373000833730008337300083373000848
:100100003373000833730008337300083373000837
:100110003373000833730008337300083373000827
:100120003373000833730008337300083373000817
:10013000DFF80CD007F0F8FD00480047590E000822
:1001400038290020FE4909680160FD49091D096838
:100150004160FB49083109688160704730B585B05E
:1001600004460D4600200190029003900490F5484B
:100170000188ADF80C1080788DF80E0004208DF801
:1001800010008DF811509DF81100234601AA4BF67E
:10019000BB3100904AF6AA2002F0D7FC02F056FCD0
:1001A000E948007860B19DF81100234601AA4BF69A
:1001B000BB3100904AF6AA2002F03FFA02F04DF956
:1001C00005B030BD30B58BB004460D46A5426FD0AA
:1001D000002004F082FD2246DCA103A807F0C6FD42
:1001E00001200C2103AA4FF6E073CDE90021029013
:1001F0004FF478420521084604F0EFF9D64800682C
:1002000070B901200C21D5A24FF6E073CDE9002191
:1002100002904FF4784205215B2004F0DEF90DE0F6
:1002200001200C21CFA24FF6E073CDE9002102900E
:100230004FF4784205215B2004F0CFF9022C01D065
:1002400002F0F7FF072C01D003F0BDF90A2C7CD295
:10025000DFE804F0052F588DB7D3FDFCFBFA012031
:100260001821C2A24FF6E073CDE9002102901A4690
:100270003221052004F0B1F901201821BEA24FF669
:10028000E073CDE9002102904FF4FC624B21052080
:1002900004F0A3F901201821B9A20023CDE900211F
:1002A00002904FF6FF725021372004F096F90AE2CF
:1002B0000BE201201821B4A24FF6E073CDE9002132
:1002C00002901A463221052004F087F901201821F6
:1002D000A9A24FF6E073CDE9002102904FF4FC6231
:1002E0004B21052004F079F901201821A4A2002354
:1002F000CDE9002102904FF6FF725021372004F023
:100300006CF9E0E1A349098801EB411101EB4101DE
:1003100088B202F053FF012018219FA24FF6E0732C
:10032000CDE9002102901A463221052004F055F94A
:10033000012018219AA24FF6E073CDE90021029026
:100340004FF4FC624B21052000E0BBE104F045F9CD
:100350000120182195A24FF6E073CDE9002102900B
:100360004FF4FC626421232004F037F9ABE1012053
:10037000182190A24FF6E073CDE9002102901A46B1
:100380003221052004F029F9012018218CA24FF612
:10039000E073CDE90021029043F2E3724B21052086
:1003A00004F01BF90120182188A24FF6E073CDE973
:1003B0000021029043F2E3726421052004F00DF95C
:1003C00081E10120182184A24FF6E073CDE90021DC
:1003D00002901A463221052004F0FFF8012018216E
:1003E00080A24FF6E073CDE90021029043F2E37260
:1003F0004B21052004F0F1F865E1012018217DA2D0
:100400004FF6E073CDE9002102901A463221052013
:1004100004F0E3F80120182169A24FF6E073CDE95A
:100420000021029043F2E3724B21052004F0D5F83D
:100430000120182165A24FF6E073CDE9002102905A
:1004400043F2E372642103E012E159E02EE003E09D
:10045000052004F0C2F836E10120182169A24FF608
:10046000E073CDE9002102901A463221052004F004
:10047000B4F80120182166A24FF6E073CDE90021FF
:10048000029043F2E3724B21052004F0A6F801200C
:10049000182162A24FF6E073CDE90021029043F2E9
:1004A000E3726A21602004F098F80CE10120182121
:1004B0005BA24FF6E073CDE9002102901A4632218B
:1004C000052004F08AF80120182159A24FF6E073A4
:1004D000CDE90021029043F2E3724B21052004F0A4
:1004E0007CF80120182154A24FF6E073CDE90021D9
:1004F000029043F2E3726421602004F06EF8E2E0BF
:10050000012018214DA24FF6E073CDE900210290A1
:100510001A463221052004F060F8012018214AA271
:100520004FF6E073CDE90021029043F2E3724B21D4
:10053000052004F052F80120182146A28CE00000AA
:10054000E8F7FF1FD80000202500002073775F63C5
:100550006F64653A25642000100122426D73673A8A
:10056000205A00006D73673A2D2D000052656C61B2
:10057000795F4C6967687400D7B4CCAC00000000A8
:10058000205820580000000052656C61795F446F6C
:100590006F7200002800002046414E5F50574D000A
:1005A000B7E7CBD9E86E2020200000003C203220A5
:1005B0003E0000004149525F54656D2648756D004C
:1005C000CEC2B6C8E86E2020A1E60000CAAAB6C80E
:1005D000E86E2020A3A500004C69717569645F4C2A
:1005E00076000000CBAECEBB202020202020A94DDD
:1005F00000000000536F696C5F54656D2648756D8F
:100600000000000057696E645F5370656564000008
:10061000B7E7CBD9E86E2020202020004D2F5300D3
:1006200052616E67655F46696E64696E67000000BF
:10063000BEE0C0EBE86E0000A94D000052616E679D
:10064000655F506100000000D1B9C1A620202020C4
:10065000202000004E0000004FF6E073CDE900219D
:10066000029043F2E3725321602003F0B6FF2AE0C8
:1006700001201821F7A24FF6E073CDE90021029086
:100680001A463221052003F0A8FF01201821F4A208
:100690004FF6E073CDE90021029043F2E3724B2163
:1006A000052003F09AFF01201821EFA24FF6E07316
:1006B000CDE90021029043F2E3726421602003F04F
:1006C0008CFF00E000BF00BF00BF0BB030BD2DE9C4
:1006D000F04F93B081468A46002451464846FFF7C2
:1006E00071FD04208DF80D00E048E1490978405C77
:1006F0008DF80F00B9F10A0F7ED2DFE809F0054549
:1007000086F8F7F6F5F4F3F2DA48006800283AD1F3
:1007100002E00A2004F067FBD64800680028F8D001
:10072000D5480068C043D549C1F8BC017F2060238B
:100730004B2235210090002004F0F1FACE480068E9
:1007400008B1012000E000200246CDA10BA807F06F
:100750000DFB012018210BAA4FF6E073CDE9002113
:1007600002904FF4FC624B21352003F09AFCC24802
:10077000006808B1012000E000208DF81C00112164
:1007800003A8FFF7EBFC31E3BA48006800283BD12F
:1007900002E00A2004F027FBB64800680028F8D0E1
:1007A000B5480068C043B549C1F8BC017F2060234B
:1007B0004B2235210090002004F0B1FAAE480068C9
:1007C00008B1012000E000200246ADA10BA807F00F
:1007D000CDFA012018210BAA4FF6E073CDE90021D4
:1007E00002904FF4FC624B21352003F05AFCA248E2
:1007F000006810B1012001E0F7E200208DF81C0034
:10080000112103A8FFF7AAFCF0E29A48006820B182
:100810009848001F006800286AD10A2004F0E3FA13
:1008200094480068C8B902E00A2004F0DCFA914854
:1008300000680028F8D093480088401C00B2914915
:1008400008800846B0F90000092801DD002002E018
:100850008C48B0F900008B4908808648001F00686A
:10086000D0B902E00A2004F0BEFA8248001F0068F6
:100870000028F7D083480088401E00B281490880D4
:100880000846B0F90000002801DA092002E07D489E
:10089000B0F900007B4908807F2060236422052195
:1008A0000090002004F03BFA7648B0F900000028E0
:1008B0000CDD7448B0F90000092807DA7148B0F976
:1008C000002071A10BA807F051FA1DE06D480088C7
:1008D00078B96C48B0F900206DA10BA807F046FA72
:1008E00012E00CE2D9E190E14BE1E1E082E02BE0A3
:1008F00029E064480088092806D16248B0F9002040
:1009000065A10BA807F032FA012018210BAA4FF6B7
:10091000E073CDE9002102904FF4FC6264212320B2
:1009200003F05BFE5749098801EB411101EB4101DE
:1009300088B202F065FC534800788DF81C00112144
:1009400003A8FFF70BFC51E203F043F9041E42D069
:100950007F2060234B2235210090002004F0DFF936
:100960004F48006807F06DF805462A460B464DA132
:100970000BA807F0FBF9012018210BAA4FF6E07332
:10098000CDE9002102904FF4FC624B21352003F0A9
:1009900088FB7F206023642235210090002004F032
:1009A000BEF94248006807F04CF805462A460B4657
:1009B0003CA10BA807F0DAF9012018210BAA4FF689
:1009C000E073CDE9002102904FF4FC6264213520F0
:1009D00003F067FB00244FF4FA7004F004FA304887
:1009E00000680790314909680891182103A8FFF7AA
:1009F000B5FBFBE10A21062001F0E9FA041E1DD037
:100A00007F2060234B2235210090002004F087F9DD
:100A10002920B4FBF0F52A4619A10BA807F0A6F986
:100A2000012018210BAA4FF6E073CDE900210290B6
:100A30004FF4FC624B21352003F033FB4FF4FA7086
:100A400004F0D1F90794142103A8FFF787FB0024D1
:100A5000CCE1000052616E67655F77656967680089
:100A6000D6D8C1BFE86E2000A94B0000888B0008D3
:100A70004500002004812142BC01214200002142A6
:100A80003A256400280000203C202564203E000018
:100A900020202564203E00003C202564202000000A
:100AA000700000203A252E30660000006C00002007
:100AB0007F2060234B2235210090002004F02FF985
:100AC000FE48006806F0BDFF05462A460B46AFF219
:100AD0002C010BA807F04AF9012018210BAA4FF6A8
:100AE000E073CDE9002102904FF4FC624B213520E8
:100AF00003F0D7FA7F206023642235210090002084
:100B000004F00DF9EE48006806F09BFF05462A4602
:100B10000B46AFF270010BA807F028F9012018214D
:100B20000BAA4FF6E073CDE9002102904FF4FC626E
:100B30006421352003F0B5FA4FF4FA7004F053F94C
:100B4000DE4800680790DE4909680891182103A86B
:100B5000FFF704FBDB480088B0F5FA6F10DD0020DA
:100B6000D8490880D8480078052803D0D6480078AE
:100B7000062805D10821D54801F00CF800F06CFFDB
:100B800034E17F206023642205210090002004F0DE
:100B9000C6F8CF48006806F054FF05462A460B46C3
:100BA000CCA10BA807F0E2F8012018210BAA4FF600
:100BB000E073CDE9002102904FF4FC626421112022
:100BC00003F06FFA4FF4FA7004F00DF9C0480068B2
:100BD0000790142103A8FFF7C1FA0024B948008840
:100BE000B0F5FA6F10DD0020B6490880B6480078ED
:100BF000052803D0B4480078062805D10821B34859
:100C000000F0C8FF00F028FFF0E002F0E5FC041E51
:100C10003AD0B4F5C87F16D97F2060236422002122
:100C20000090084604F07BF801201821ABA24FF693
:100C3000E073CDE9002102904FF478426A2105204B
:100C400003F0CBFC1AE07F20602364220021009097
:100C5000084604F064F82246A3A10BA807F086F822
:100C6000012018210BAA4FF6E073CDE90021029074
:100C70004FF4FC6264211E2003F013FA0794142140
:100C800003A8FFF76BFA0024642004F0ACF802F02C
:100C90007EFC142004F0A7F8A8E00A21062001F049
:100CA00096F9041E20D07F2060234B22352100902E
:100CB000002004F034F82920B4FBF0F0C0F1630503
:100CC0002A46AFF244210BA807F050F80120182162
:100CD0000BAA4FF6E073CDE9002102904FF4FC62BD
:100CE0004B21352003F0DDF94FF4FA7004F07BF866
:100CF0000794142103A8FFF731FA002476E04FF09F
:100D0000000B002402F0A4FC041E42D077480068C7
:100D1000241A7F206023642205210090002003F024
:100D2000FEFF4CF27C40844201D9201A02E04CF2D2
:100D30007C40001B00026E49B0FBF1F44FF47A7066
:100D4000B4FBF0F100FB1145B4FBF0F62B46324644
:100D500068A10BA807F00AF8012018210BAA4FF68A
:100D6000E073CDE9002102904FF4FC62642105207C
:100D700003F097F9204606F04EFE029006F061FE61
:100D8000074600225D4B06F0CEFD054606F084FEC8
:100D900083465B48006888B9002504E00A2004F017
:100DA00022F8681CC5B2564800680028F6D0012D0C
:100DB00003DD052D01DA4D48046000BF514800787D
:100DC000012809DA32204F490870CDF81CB01421EF
:100DD00003A8FFF7C3F907E00A2004F004F8494824
:100DE0000078401E4749087000E000BF00BF13B004
:100DF000BDE8F08F10B586B0044603208DF81400CE
:100E000002208DF8150000208DF804001CB102208E
:100E10008DF8050002E001208DF805009DF8150011
:100E200001AB02AA4BF6BB3100904AF6AA2001F0B2
:100E300004FC01F012FB06B010BD10B500203249D1
:100E400008600A2003F0CFFF01203049C1F8840177
:100E5000142003F0C8FF10BD8CB000200B902CA113
:100E600003C909900A912CA103C9079008912CA1EC
:100E700003C90590069102260020049003F076FF36
:100E800003F0DEFF01F0F4FF2748FFF75BF94FF4B2
:100E9000965000F0CDF94FF4E13000F081FA4FF4B4
:100EA000E13000F034FB41F61F41092002F026FA40
:100EB00002F024F801F032F838E000004C00002085
:100EC0005000002012000020450000201D000020DE
:100ED00054000020252E3266000000004F76657217
:100EE0002052616E67650000256400001800002034
:100EF000A086010025642E252E34640000408F401A
:100F00000481214216000020840121420000214278
:100F100001030048000505DF03030002000265CB62
:100F2000040300000001840AD800002000F09AFEAB
:100F30004FF4FA6002F0CCF802F096F802F0A4F850
:100F40004A49087002F06BF840F6B830484908800A
:100F500000204849087064204749088002F04EFC90
:100F600002F059FB02F0BBFB03F0CDFD002003F0C3
:100F7000B4FEFFF762FF77E0002502F085F83B49F9
:100F8000097888420CD0142003F02DFF02F07CF881
:100F900036490978884203D002F076F83349087060
:100FA00032480078022816D004E0142003F01BFF1A
:100FB000681C85B23148006808B96E2DF5DB642DD8
:100FC00009DD2F48007830B92E480078FFF712FF6E
:100FD00001202B490870214624480078FFF777FB51
:100FE00022480078844201D02048047801F0AAFE0B
:100FF00001F0FDFB2448006808B9012000E0002052
:10100000B04230D02048006808B9012000E000203C
:10101000064614207F23052243210090002003F080
:101020007EFE1948006878B901200C21AFF6D42261
:101030004FF6E073CDE9002102904FF4784205218C
:101040005B2003F0CAFA0EE001200C21AFF6EC227F
:101050004FF6E073CDE9002102904FF4784205216C
:101060005B2003F0BAFA00BF86E7000045000020CD
:1010700012000020100000201400002000812142F6
:10108000260000202500002010012242704700BFEA
:10109000FEE700BFFEE700BFFEE700BFFEE77047C8
:1010A00070477047704710B54FF4806006F01AF92A
:1010B00090B14FF4806006F026F95248006820F4A1
:1010C0008060504908605048007810B101204F49B5
:1010D000087001204E49087010BD10B54D480078C9
:1010E00001283ED14C48007800F08000002838D11B
:1010F00010214A4805F0E7FE98B31021474805F053
:10110000F3FE4548007800F0400098B900204249BD
:101110000870434908800021404805F09FFE3E4882
:10112000007840F040003C49087002213B4805F03F
:10113000F9FD16E03848007800F0400088B13648E4
:10114000007840F0800034490870344805F0A5FE6E
:101150003349088000202F49087000212F4805F0EE
:101160009BFD10212D4805F0BFFE10BD10B529488C
:101170000078012826D10121284805F0A4FE08B3F3
:101180000121264805F0B0FE2348007800F0400019
:10119000C0B12148007800F03F003F280DD11E4823
:1011A000007840F080001C49087000201949087040
:1011B0004FF6FF701A49088004E017480078401C79
:1011C000154908700121154805F08EFE10BD10B5B7
:1011D0000121144805F077FE30B11348007801284A
:1011E00002D100201149086004210E4805F06BFE71
:1011F00010B101200D49086005210A4805F060FE84
:1012000010BD0000000401402D0000202E00002031
:101210002C0000204400002041000020002C014050
:1012200042000020000400404800002090012142BC
:1012300010B588B004460121084604F0ACFB01213A
:10124000022004F0A8FB0121880304F0B1FB012176
:10125000042004F0ADFB4FF40070ADF81C00182022
:101260008DF81F0003208DF81E0007A9FE4804F02A
:10127000E3F84FF48060ADF81C0004208DF81F00E7
:1012800007A9F94804F0D8F803940020ADF810003D
:10129000ADF81200ADF81400ADF818000C20ADF850
:1012A000160003A9F14804F02AFC25208DF8080057
:1012B00003208DF809008DF80A0001208DF80B003D
:1012C00002A803F0C8FD0E208DF8080003208DF859
:1012D00009008DF80A0001208DF80B0002A803F028
:1012E000BAFD002240F22771E04804F0A0FC002281
:1012F00040F22551DD4804F09AFC002240F22661BC
:10130000DA4804F094FC012240F22441D74804F06A
:101310008EFC01228021D54804F0AEFC0122402140
:10132000D24804F0A9FC00201021FA23D04ACDE9CC
:101330000010CE49091DCF4801F0A8FF0021CD487B
:1013400004F06BFE00200090FA23C94AFA32C74924
:10135000091D0190C748143001F098FF0121C548CC
:10136000143004F05AFE01220221C24804F061FE4A
:101370004FF4805004F080FE4FF4803004F07CFE87
:101380000121BA4804F047FC40F6FC31B84808385F
:1013900006F014F90120B6490839487108B010BDAB
:1013A00010B588B004460121084604F0F4FA012182
:1013B000480404F00AFB0121042004F0F9FA042097
:1013C000ADF81C0018208DF81F0003208DF81E00BA
:1013D00007A9A54804F030F80820ADF81C00042047
:1013E0008DF81F0007A9A04804F026F803940020F8
:1013F000ADF81000ADF81200ADF81400ADF818000B
:101400000C20ADF8160003A99B4804F078FB2620B9
:101410008DF8080002208DF8090003208DF80A00DD
:1014200001208DF80B0002A803F015FD11208DF8A6
:10143000080002208DF8090003208DF80A00012021
:101440008DF80B0002A803F006FD002240F2277180
:10145000894804F0ECFB002240F22551864804F054
:10146000E6FB002240F22661834804F0E0FB012203
:1014700040F22441804804F0DAFB012280217E48BA
:1014800004F0FAFB012240217B4804F0F5FB002028
:101490001021FA23794ACDE900107749091D7548D2
:1014A0003C3001F0F3FE002172483C3004F0B5FD01
:1014B00000200090FA23714AFA326F49091D019009
:1014C0006C48283001F0E2FE01216A48283004F01F
:1014D000A4FD0122022167483C3004F0AAFD4FF42C
:1014E000801004F0C9FD4FF0807004F0C5FD0121AB
:1014F000614804F090FB40F6FC316048083806F083
:101500005DF801205D490839487108B010BD10B57B
:1015100088B004460121084604F03DFA0121880400
:1015200004F053FA0121092004F042FA4FF48060DC
:10153000ADF81C0018208DF81F0003208DF81E0048
:1015400007A94F4803F078FF4FF40060ADF81C0086
:1015500004208DF81F0003208DF81E0007A94848BD
:1015600003F06AFF03940020ADF81000ADF81200FC
:10157000ADF81400ADF818000C20ADF8160003A962
:10158000404804F0BCFA27208DF8080002208DF8AE
:10159000090003208DF80A0001208DF80B0002A835
:1015A00003F059FC0C208DF8080002208DF809008A
:1015B00003208DF80A0001208DF80B0002A803F02B
:1015C0004AFC002240F227712E4804F030FB002232
:1015D00040F225512B4804F02AFB002240F22661FC
:1015E000284804F024FB012240F22441254804F05D
:1015F0001EFB01228021234804F03EFB01224021F2
:10160000204804F039FB00201021FA231E4ACDE9BE
:1016100000101C49091D1748283801F037FE002129
:101620001448283804F0F9FC00200090FA23164AE8
:10163000FA321449091D01900E48143801F026FEB3
:1016400001210C48143804F0E8FC01220221094869
:10165000283804F0EEFC102004F00EFD4FF48070EA
:1016600004F00AFD012111E00008014000380140AA
:10167000EC0000204400024000440040E80C002040
:10168000000C014000480040E4180020324804F0FB
:10169000C2FA40F6FC31314805F090FF01202F4995
:1016A000487108B010BD10B5002240F224412C480A
:1016B00004F0BDFA002202212A4804F0BAFC0022FC
:1016C00040F22441284804F0B2FA002202212548C1
:1016D0003C3004F0AEFC002240F224411E4804F0ED
:1016E000A6FA002202211F48283804F0A2FC10BDEF
:1016F00010B5012202211B4804F09BFC012240F29C
:101700002441174804F093FA012240F2244116487C
:1017100004F08DFA0122022112483C3004F089FCC9
:10172000012240F224410C4804F081FA01220221F6
:101730000C48283804F07DFC10BD00BF704700BF86
:10174000094A128802F04002002AF9D0C2B2064BC0
:101750001B1D1A807047000000480040DC18002064
:101760000038014044000240004400402DE9F05F91
:1017700080460E46914600241CE016F814A0600036
:10178000401C16F800B0504605F0F9FE3038C5B2DE
:10179000092D01DDE81FC5B2584605F0F0FE3038CE
:1017A000C7B2092F01DDF81FC7B207EB051008F813
:1017B0000400641C4C45E0DBBDE8F09FF0B5034637
:1017C00000201EE00E5CF71706EB17773F1107F1BC
:1017D00030050E5CF71706EB17773F11A6EB0717DE
:1017E0003037FCB2392D01DDEE1DF5B2392C01DDAB
:1017F000E61DF4B203F81050012606EB40069C5596
:10180000401C9042DEDB002603F81260F0BD024669
:10181000002100BF05E0505C08B101207047481C62
:10182000C1B20329F7DB0020F8E730B502460B46CA
:10183000002010E012F8014B6040002109E000F0A8
:1018400001041CB18C2484EA600000E040104C1CB0
:10185000E1B20829F3DB1C1EA3F10105EBB2E9D1CB
:1018600030BD2DE9FC4100200190009040F2244160
:10187000EC4804F0C1FA00287ED04FF4803004F028
:10188000FBFB40F22441E74804F0E0FAE548008819
:101890000190E448001D008801900021E24804F016
:1018A000BCFBE14804F0D0FBC0F1FA0000900098C6
:1018B0000F2845D1DD4890F8020101283FD1DB48CF
:1018C00090F803010328F9D1D84890F804010A28B8
:1018D00035D1D64890F8061190F8050141EA00206C
:1018E000D3490880D14890F8081190F8070141EADF
:1018F0000020D0490880CD4890F80A1190F80901DD
:1019000041EA0020CC490880C84890F80B01010644
:10191000C64890F80C0141EA0041C44890F80D0116
:1019200041EA0020C14991F80E110843C3490860FB
:10193000BF48008864285BDD0120C149087057E07A
:101940000098072824D1B94890F8020104284FD103
:10195000B64890F8030103284AD1B44890F804012E
:10196000022845D1B14991F8062191F8051142EAC2
:10197000012006F055F800E046E006460022B14B93
:1019800005F0D1FF044606F087F8AF4908602FE064
:10199000009809282CD1A54890F80201032827D1E6
:1019A000A24890F80301032822D1A04890F804012E
:1019B00004281DD19D4890F8061190F8050141EAD0
:1019C00000200A2190FBF1F4204606F01BF89F4905
:1019D0000860964890F8081190F8070141EA002045
:1019E0000A2190FBF1F4204606F00CF898490860B3
:1019F0000F21984805F0E2FDFA208B495839C86557
:101A00000121894804F009FBBDE8FC8110B54FF4C1
:101A1000005004F03CFBC0B1012084494871002112
:101A20008148143804F0F9FA4FF4805004F043FB75
:101A300000BF40217B4804F0C9F90128F9D10020FA
:101A4000854908608549C1F8A00110BD77484088E4
:101A5000401C7649488070477CB500257348407922
:101A600001287CD171484088642803DA6F480079E6
:101A700000B97CBD00206D4908714880002240F209
:101A80002441684804F0D3F8002202216648143843
:101A900004F0CFFA6548847900256AE004EB44013C
:101AA000C1EBC4126E4901EB4200FFF7B0FE012802
:101AB00056D15E488079A0421CD15C484078401CD9
:101AC0005A49487008464078012813DD00204870C4
:101AD00004EB4400C0EBC411614800EB410000215D
:101AE000016041600181042C01DB002401E0601CE5
:101AF000C4B23CE04D4800218160C160018200F524
:101B0000FE70025D04EB4400C0EBC413544800EBCC
:101B10004301A0F5FF7005F038FD01204E49086033
:101B20004E49C1F8A00100201021FA233F4A083293
:101B3000CDE900103B49091D3B48143801F0A6FBD4
:101B400047480A38015D3848143801F0C9FB374866
:101B50008471002035494871087148800BE017E016
:101B6000042C01DB002401E0601CC4B200BF681C2F
:101B7000C5B2052D92DB00BF012202212A4814388C
:101B800004F057FA012240F22441264804F04FF8AD
:101B900000BF6EE72DE9F04106460D460027002202
:101BA00040F224411F4804F042F8002202211E485E
:101BB000143804F03EFA1D48847900BF20E004EB9D
:101BC0004401C1EBC412264901EB4200FFF71FFE9E
:101BD00070B904EB4401C1EBC412214901EB42008E
:101BE0002A46314605F0D1FC1D480A38055509E062
:101BF000042C01DB002401E0601CC4B2781CC7B2D5
:101C0000052FDCDB00BF012202210748143804F055
:101C100010FA012240F22441024804F008F8BDE81D
:101C2000F08100000038014058000240E40000202C
:101C300006000020080000200A0000200C00002000
:101C40000400002000002440540000205000002028
:101C50004C000020E6010020A001214200002142AA
:101C6000EA02002008B50121082003F0A1FE10209F
:101C70008DF803001820ADF8000003208DF8020055
:101C80006946A34803F0D8FB0120A2490860A24995
:101C9000C1F8900108BD10B59D48006820F470702F
:101CA0009B4908600846006840F4405008600120E5
:101CB000984908609849C1F890010020954908604A
:101CC000042003F06CF810BD10B59148006820F4B2
:101CD00070708F4908600846006840F44050086002
:101CE00000208C49091D08608B49C1F88C01042033
:101CF00003F055F801208749091D0860042003F00E
:101D00004EF801208449C1F88C0110BD10B50024A3
:101D10007F48006820F470707D49086008460068BC
:101D200040F40040086001207A49086003F037F869
:101D300001207949C1F8900103F031F807E0601CF7
:101D4000C4B2FA2C03DBFFF7BFFF002010BD7148BF
:101D5000803800680028F2D16E49091D0860012012
:101D6000F4E710B500206B49091D08606848006859
:101D700020F47070664908600846006840F44050DE
:101D8000086001206449C1F88C01022003F007F8C3
:101D9000002060490860032003F001F801205E493B
:101DA000C1F89001042002F0FAFF00205949091DF2
:101DB0000860022002F0F3FF01205749C1F88C01AE
:101DC00010BD10B500205349091D08605048006837
:101DD00020F470704E4908600846006840F4405096
:101DE000086001204C49C1F88C01022002F0D7FFA5
:101DF000012048490860032002F0D1FF0120464934
:101E0000C1F89001042002F0CAFF00204149091DD9
:101E10000860022002F0C3FF01203F49C1F88C0195
:101E200010BD70B5054600243948006820F4707074
:101E3000374908600846006840F44050086000BF19
:101E400020E000203349091D0860C4F1070101208A
:101E50008840284018B101202E49086002E0002087
:101E60002C490860032002F09AFF01202949091D2E
:101E70000860032002F093FF00202749C1F8900179
:101E8000601CC4B2082CDCDB01202249086070BD54
:101E900070B50646002400251D48006820F47070C7
:101EA0001B4908600846006840F40040086000BF15
:101EB00023E000201749091D0860052002F06FFF8C
:101EC00001201549C1F89001042002F068FF114873
:101ED00080380068012805D1C4F1070188402843F3
:101EE000C5B204E0C4F10701012088408543002009
:101EF0000849091D0860601CC4B2082CD9DB16B95A
:101F0000FFF72FFF01E0FFF75CFF284670BD0000E0
:101F1000000C01408C8121420080214200B587B035
:101F200001214FF4017003F043FD4FF4004003F032
:101F3000A3FCE020ADF8040000208DF8070001A903
:101F40002E4803F079FA2E4802F0EEFF00200290AE
:101F50008DF80C008DF80D004FF4602004900020E7
:101F6000059001208DF8180002A9254803F003F818
:101F70000121234803F02BF8214803F04AF800BF61
:101F80001F4803F04BF80028FAD11D4803F050F821
:101F900000BF1B4803F051F80028FAD107B000BD7C
:101FA00010B50446072301222146154803F07BF8AB
:101FB0000121134803F04BF800BF0221104803F041
:101FC000B7F90028F9D00E4803F0D4F810BD2DE978
:101FD000F04107460C460025002608E03846FFF78A
:101FE000DFFF0544022002F0FEFE701CC6B2A642CE
:101FF000F4DBB5FBF4F080B2BDE8F08100080140ED
:10200000002401402DE9F05F80460E4691460024F1
:102010001CE016F814A06000401C16F800B05046F2
:1020200005F0ADFA3038C5B2092D01DDE81FC5B2A3
:10203000584605F0A4FA3038C7B2092F01DDF81F61
:10204000C7B207EB051008F80400641C4C45E0DB40
:10205000BDE8F09FF0B5034600201EE00E5CF717C8
:1020600006EB17773F1107F130050E5CF71706EB0B
:1020700017773F11A6EB07173037FCB2392D01DD7A
:10208000EE1DF5B2392C01DDE61DF4B203F8105057
:10209000012606EB40069C55401C9042DEDB0026E4
:1020A00003F81260F0BD0246002100BF05E0505C5D
:1020B00008B101207047481CC1B20329F7DB00209A
:1020C000F8E730B502460B46002010E012F8014B4D
:1020D0006040002109E000F001041CB18C2484EA76
:1020E000600000E040104C1CE1B20829F3DB1C1E2C
:1020F000A3F10105EBB2E9D130BD70B50446F8A0FB
:1021000005F024FE00250CE004EB4400C0EBC412F3
:10211000F84800EB4200415DF7A005F017FE681C8F
:10212000C5B2F748005DA842EEDCF6A005F00EFE51
:1021300070BD10B50446002300BF2FE003EB430140
:10214000C1EBC312EE49491D01EB4200FFF7ABFFA3
:10215000012821D103EB4300C0EBC311E848401D27
:1021600000EB41008078A04216D1E7488079984280
:1021700011D10120E449087100204880487003EB28
:102180004300C0EBC311DE48401D00EB41000021BD
:1021900001604160018103E0581CC3B2052BCDDB17
:1021A00000BF10BD2DE9F04305460E461746984680
:1021B0000024A14600BF40E004EB8402D34901EBB8
:1021C0004200FFF770FFA8BB291204EB8402CF483E
:1021D00000F8121004EB840200EB4200457004EB9F
:1021E0008401CA4800EB410080F8028004EB8401BE
:1021F000C64800EB4100C770311204EB8402C348AB
:1022000000EB4200017104EB8402C04800EB420085
:10221000467104EB8402BD4901EB42000621FFF741
:1022200050FF814604EB8401B84800EB410080F880
:10223000069004E0FFE7601CC4B2052CBCDB00BFC5
:10224000BDE8F0832DE9F04106460D4617464FF0F4
:102250000008AD48C47900BF24E004EB4401C1EBA1
:10226000C412A44901EB4200FFF71DFF80B904EB43
:102270004401C1EBC4129F4901EB42002A4631469A
:1022800005F083F99E4805552046FFF736FF0CE020
:10229000042C01DB002401E0601CC4B208F1010041
:1022A00000F0FF08B8F1050FD7DB00BF3B46002266
:1022B0004DF6DD514CF6CC40FFF774FFBDE8F081E0
:1022C0002DE9F04100260027002540F224419048E6
:1022D00003F092FD00287DD04FF4807003F0CCFE17
:1022E00040F224418A4803F0B1FD89480488001D6A
:1022F00004880021874803F090FE864803F0A4FE7E
:10230000C0F1FA05FA2D33D2152D31D37E4890F85D
:10231000120100F111047C4890F80201AA284FD163
:10232000794890F80301AA284AD17548FF38005D22
:10233000BB2845D17248FF38611C405CBB283FD1A7
:10234000A01CC1B26E48FF38FFF7BBFE07466C48C1
:10235000FF38A11C405CB84232D16B4890F8046150
:10236000E01CC1B232466648FF38FFF76BFF27E03A
:10237000FA2D25D2072D23D3634890F80201CC28EB
:102380001ED1614890F80301CC2819D15E4890F81D
:102390000601DD2814D15C4890F80701DD280FD133
:1023A00006215748FF38FFF78CFE574991F808116E
:1023B000884205D1544890F804613046FFF7B9FED1
:1023C000A11C4F48FF3805F0F9F8FA20514930397F
:1023D000486300E003E001214E4803F01EFEBDE823
:1023E000F08110B5202003F052FE88B1012046494B
:1023F000487100214748143803F00FFE102003F005
:102400005AFE00BF4021424803F0E0FC0128F9D108
:1024100010BD3D484088401C3B494880704770B51E
:1024200004463DA005F092FC00250DE004EB4400BD
:10243000C0EBC4123248401D00EB4200415D2EA0AB
:1024400005F084FC681CC5B22D48401F005DA84201
:10245000ECDC2CA005F07AFC70BD7CB5002500BF3B
:1024600066E005EB8502294901EB4200FFF71BFE00
:1024700001285BD12448002181608181817305EBB3
:102480008501224800EB41011F480A6882608A8862
:1024900082818979817305EB85011C4800EB41003D
:1024A000002101608180817100201021FA23164AE9
:1024B0000832CDE900101649091D1648143800F0FD
:1024C000E5FE07211348143800F00AFF012280219D
:1024D0000F4803F0D1FB00200B4948717CBD000080
:1024E000BDD3CAD5BBBAB4E62D2DCAFDBEDD3A0AAE
:1024F00000000000C41F002025332E3278000000A9
:10250000DD1A00200A000000DC180020A6240020AC
:102510000048004030000240B7A2CBCDBBBAB4E6C1
:102520002D2DCAFDBEDD3A0A00000000681CC5B2B0
:10253000052D96DBC5484088642803DAC348007936
:1025400000B97CBDFFF7AFF80020C0490871488092
:1025500008468479002569E004EB4401C1EBC4120C
:10256000BB4901EB4200FFF79EFD012855D1B7485A
:102570008079A0421CD1B5484078401CB3494870CE
:1025800008464078012813DD0020487004EB440021
:10259000C0EBC411AE4800EB410000210160416076
:1025A0000181042C01DB002401E0601CC4B23BE08B
:1025B0002046FFF734FFA54800218160C1600182F9
:1025C00000F5FE70025D04EB4400C0EBC413A048AC
:1025D00000EB4301A0F5FF7004F0D7FF00201021AD
:1025E000FA239A4A0832CDE900109A499A4800F035
:1025F0004DFE97480A38015D974800F071FE0122B0
:1026000080219448001F03F037FB9048847100201C
:102610008E494871087148800AE0042C01DB0024CF
:1026200001E0601CC4B200BF681CC5B2052D93DB7D
:1026300000BFFFF75DF800BF83E72DE9F05F0646B6
:102640000F4691469A460A9D4FF0000BD846FA2D48
:1026500001DDBDE8F09FFFF726F87C4884794FF054
:10266000000B7EE004EB4401C1EBC412784901EB9E
:102670004200FFF718FD002869D104EB4400C0EBCD
:10268000C412734800F81260311204EB4400C0EB2E
:10269000C4126F4800EB420041706C48017804EBB3
:1026A0004400C0EBC4126A4800EB4200817004EBA6
:1026B0004401C1EBC412664901EB4201C81C0E2261
:1026C000494604F062FF04EB4401C1EBC4126049C7
:1026D00001EB420101F111002A46514604F055FF79
:1026E00004EB4400C0EBC412594800EB420205F170
:1026F00011001754391204EB4400C0EBC4125448C3
:1027000000EB420205F112001154421CD1B204EB5D
:102710004402C2EBC4134E4A02EB4300FFF7D1FC64
:10272000804604EB4401C1EBC412494901EB42026B
:1027300005F1130102F80180481CC1B244480A386F
:10274000015542480078401C404908700DE0042CB7
:1027500001DB002401E0601CC4B20BF1010000F0B9
:10276000FF0BBBF1050FFFF67DAF00BFFEF7C0FF0B
:1027700000BF6EE730B5C3B004460D460E22E11C23
:102780003FA804F002FF9DF8092104F111016846F9
:1027900004F0FBFEBDF802010002BDF8021140EAA0
:1027A000212080B2ADF80201BDF8FC000002BDF8A6
:1027B000FC1040EA212080B2ADF8FC002078AA2865
:1027C00012D16078AA280FD1A07C03280CD1E07C1C
:1027D00008B1012000E00020204908700846007878
:1027E00080F001001E490860012043B030BD10B5E3
:1027F000002400BF25E004EB4401C1EBC4121949D9
:1028000001EB4200FFF74FFC012818D1104A521F7C
:10281000115D04EB4402C2EBC413124A02EB430005
:10282000FFF7A8FF50B104EB4400C0EBC4110D4802
:1028300000EB4100002101604160018103E0601C68
:10284000C4B2052CD7DB00BF10BD0000DC1800208F
:10285000E21A0020044800401C000240250000202D
:1028600080012142C41F00200246002100BF05E074
:10287000505C08B101207047481CC1B20329F7DB46
:102880000020F8E730B502460B46002010E012F8B1
:10289000014B6040002109E000F001041CB18C24D0
:1028A00084EA600000E040104C1CE1B20829F3DB30
:1028B0001C1EA3F10105EBB2E9D130BD2DE9F041B9
:1028C00005460E4690460027FE48C47900BF1DE02D
:1028D00004EB4401C1EBC412FB4901EB4200FFF7DA
:1028E000C3FF58B904EB4401C1EBC412F64901EB34
:1028F00042003246294604F048FE09E0042C01DB80
:10290000002401E0601CC4B2781CC7B2052FDFDBD5
:1029100000BFBDE8F0812DE9F04100250026002729
:1029200040F22441E94803F067FA00284FD04FF401
:10293000801003F0A1FB40F22441E44803F086FA42
:10294000E2480488001D04880021E14803F065FB8B
:10295000DF4803F079FBC0F1FA07FA2F2BD2D948F0
:1029600090F80201AA2826D1D64890F80301AA2897
:1029700021D1D44890F8120100F11104D548005D2E
:10298000BB2818D1D348611C405CBB2813D1A01CC4
:10299000C1B2D048FFF776FF0646CE48A11C405C86
:1029A000B04208D1C74890F80451E01CC1B22A4691
:1029B000C848FFF783FFA11CC64804F0FFFDFA20BA
:1029C000C3496C3908670121C14803F026FBBDE803
:1029D000F08110B54FF0007003F059FB90B1012069
:1029E000B84948710021BA48143003F016FB4FF083
:1029F000807003F060FB00BF4021B44803F0E6F9AB
:102A00000128F9D110BDAF484088401CAD4948802D
:102A1000704770B50446B0A005F098F900250CE0A9
:102A200004EB4400C0EBC412B14800EB4200415D2E
:102A3000B0A005F08BF9681CC5B2AD480A38005D3E
:102A4000A842EDDCA9A005F081F970BD7CB5002598
:102A50009C484088642803DA9A48007900B97CBD14
:102A60000020984908714880002240F2244197488C
:102A700003F0DDF8002202219548143003F0D9FA62
:102A80009048847900254FE004EB4401C1EBC41267
:102A9000974901EB4200FFF7E7FE01283CD1894846
:102AA00000218160C160018200F5FE70025D04EBCF
:102AB0004400C0EBC4138E4800EB4301A0F5FF7047
:102AC00004F063FD04EB4400C0EBC411884800EB44
:102AD0004100002101604160018100201021FA23A2
:102AE000784A0832CDE900107849091D7848143039
:102AF00000F0CCFB7E480A38015D7548143000F0C8
:102B0000EFFB0121714803F086F86E4884710020C4
:102B10006C490871488009E0042C01DB002401E0C5
:102B2000601CC4B2681CC5B2052DADDB00BF01221C
:102B300002216748143003F07CFA012240F224415C
:102B4000624803F074F800BF89E72DE9F05F06469C
:102B50000F4691469A460A9D4FF00008C346FA2D4B
:102B600001DDBDE8F09FFEF79EFD564884794FF0E9
:102B7000000B7EE004EB4401C1EBC4125C4901EBA5
:102B80004200FFF771FE002869D104EB4400C0EB5E
:102B9000C412574800F81260311204EB4400C0EB35
:102BA000C412534800EB420041704648017804EBE0
:102BB0004400C0EBC4124E4800EB4200817004EBAD
:102BC0004401C1EBC4124A4901EB4201C81C0E2268
:102BD000494604F0DAFC04EB4401C1EBC412444959
:102BE00001EB420101F111002A46514604F0CDFCEF
:102BF00004EB4400C0EBC4123D4800EB420205F177
:102C000011001754391204EB4400C0EBC4123848C9
:102C100000EB420205F112001154421CD1B204EB48
:102C20004402C2EBC413324A02EB4300FFF72AFE10
:102C3000804604EB4401C1EBC4122D4901EB420272
:102C400005F1130102F80180481CC1B228480A3876
:102C500001551C480078401C1A4908700DE0042CEE
:102C600001DB002401E0601CC4B20BF1010000F0A4
:102C7000FF0BBBF1050FFFF67DAF00BFFEF738FD80
:102C800000BF6EE710B5C4B004460E22E11C40A898
:102C900004F07BFC9DF80D2104F1110101A804F062
:102CA00074FC122201A9154804F06FFCBDF806015E
:102CB0000002BDF8061140EA212080B2ADF80601FD
:102CC0001EE00000E00C0020C8130020004400407B
:102CD0006C000240E20D00207561727432B7A2CB25
:102CE000CDBBBAB4E62D2DCAFDBEDD3A0A00000008
:102CF000E60E002025332E3278000000E624002066
:102D0000BDF800010002BDF8001140EA212080B2A8
:102D1000ADF800019DF80C01042810D19DF80D01BB
:102D200001AB40AA4BF6BB3100904AF6AA20FFF750
:102D300084FC1AA005F00AF8642002F054F801207F
:102D400044B010BD10B5002400BF22E004EB4401E4
:102D5000C1EBC412184901EB4200FFF785FD0128C1
:102D600015D104EB4401C1EBC412134901EB42003D
:102D7000FFF788FF50B104EB4400C0EBC4110E48CC
:102D800000EB4100002101604160018103E0601C13
:102D9000C4B2052CDADB00BF10BD0000B0B2D7BF53
:102DA0002D2D2D3ED7AAB7A22D2D2D2D3E7A696748
:102DB0006265650A00000000C813002008B5012103
:102DC0000C2002F0F5FD8020ADF8000010208DF8F9
:102DD000030003208DF802006946424802F02CFBF4
:102DE00043F20100ADF8000010208DF8030003202D
:102DF0008DF8020069463B4802F01EFB41F21310B9
:102E0000ADF8000010208DF8030003208DF80200BB
:102E10006946354802F010FB1020ADF800008DF82F
:102E2000030003208DF802006946304802F004FBDD
:102E300000202F4908602F49C1F8A0012E490860E1
:102E4000091D08602C49303908602B491439086085
:102E5000012027490C3908602649C1F8800108BDC6
:102E600010B523487C380068202004F04CFA10BDCF
:102E70001FB50121084602F09BFD0121042002F04C
:102E800097FD2020ADF8000004208DF803000320FA
:102E90008DF802006946144802F0CEFA05210020A0
:102EA00002F0E0FB2020029000208DF80C000C20A6
:102EB0008DF80D0001208DF80E0002A804F0ACF989
:102EC00017208DF8040002208DF8050003208DF8EE
:102ED000060001208DF8070001A801F0BCFFFFF7F4
:102EE0006DFF1FBD000C01400008014000100140B3
:102EF0009001214200002142B081214208B5012108
:102F0000082002F055FD48208DF803000320ADF89D
:102F100000006946CD4802F08FFA08BD08B54FF4AD
:102F20000040ADF8000003208DF8020010208DF85D
:102F300003006946C64802F07FFA0020C5490860D0
:102F400008BD30B50020C4490968012902D100211B
:102F5000C24A1170C24909780A2906DB0021C04A19
:102F600011700121BD4A11701EE0BE49D1E9002156
:102F7000BD4C28CCD41A61EB05010A23E31A71F188
:102F8000000111D3B449096829B9B5490978491C28
:102F9000B34A117002E00021B14A1170B149D1E980
:102FA0000021B14BC3E90021AC49087830BD30B5F0
:102FB0000020A949091D0968012902D10021AB4A55
:102FC0001170AB4909780A2906DB0121A74A117063
:102FD0000021A74A11701FE0A249D1E90021A54CA8
:102FE00028CCD41A61EB05010A23E31A71F1000120
:102FF00012D39949091D096829B99D490978491CC5
:103000009B4A117002E00021994A11709549D1E95B
:103010000021984BC3E900219449087830BD08B5D8
:103020000121082002F0C4FC10208DF803002020AC
:10303000ADF8000003208DF802006946834802F0D5
:10304000FBF9002084499431086008BD8549D1E925
:1030500000311B1841F10001874AC2E9003101210A
:103060007D4A94321160704708B50121102002F0AA
:103070009FFC48208DF803000F20ADF80000694642
:103080007E4802F0D9F908BD00207D49096809B9D8
:10309000012100E00021C900794A121F12680AB913
:1030A000012200E0002241EA8201754A083A1268D2
:1030B0000AB9012200E0002241EA4201704A0C3ABA
:1030C00012680AB9012200E0002241EA02007047BA
:1030D00030B589B0044640F6D860844200DD04462D
:1030E00004EB8400132190FBF1F085B20121042050
:1030F00002F05EFC10208DF82300ADF820000320C4
:103100008DF8220008A9524802F096F90121022008
:1031100002F05BFC5B4802F0DDFF4720ADF81400D5
:103120000020ADF8160040F2E730ADF8180000209E
:10313000ADF81A0005A9534803F0A0F801A803F060
:10314000D2FB3020ADF80400ADF80A500020ADF8F5
:103150000C000120ADF8060001A94A4803F00DF962
:103160000121484803F0E6FC0821464803F01BFD16
:103170001D208DF8000000208DF801008DF8020060
:1031800001208DF80300684601F065FE01213D48ED
:1031900003F096FE04213B4803F092FE0122114603
:1031A000384803F0E2FB01220421364803F0DDFB3E
:1031B0000121344803F0BEFB09B030BD70B50446B0
:1031C00074B1254640F2E730854201DA284601E035
:1031D00040F2E730054629462A4803F045FE00BF85
:1031E0000120294908700121264803F069FE0421C5
:1031F000244803F065FE0121224803F09BFB70BDCB
:1032000070B50446254640F2E730854201DA28468B
:1032100001E040F2E730054629461A4803F024FE53
:103220000121184803F04CFE0421164803F048FE23
:1032300070BD10B50020144908700021114803F03A
:1032400079FB012003492C39086010BD000C0140B6
:1032500000080140BC0121420081214258000020A9
:10326000900000203800002080000020590000203D
:103270009100002088000020600000200010014024
:103280000C01224200040040480000202DE9F047D4
:1032900007460C4615461E46DDE9088900213846DA
:1032A00002F0BBFE384602F0EBFD134804604560B7
:1032B000C0F80880C66000200F490861802048617E
:1032C00000208861C8610846C0F820904FF4405043
:1032D000486200208862384602F074FEBDE8F0873C
:1032E00070B504460D462946204602F0ABFE01218A
:1032F000204602F092FE70BDF82400207FB50546FE
:103300000C460121084602F060FBADF80850ADF80C
:1033100004400020ADF80A00ADF8060001A94FF006
:10332000804002F0ABFF01221146900703F01DFB25
:103330001C208DF8000000208DF8010003208DF87E
:10334000020001208DF80300684601F084FD012190
:10335000880703F0EFFA7FBD10B500214FF08040E1
:1033600003F0E8FA10BD10B50121880703F0E2FA76
:1033700010BD10B50121880703F0A5FD002872D00B
:103380000121880703F0B0FDFEF760FBFFF73BFB70
:10339000FFF73FF861480088401C6049088060489A
:1033A000D0E90010491C40F100005D4AC2E900105C
:1033B0005C48D0E9001013460CCB891A984111D310
:1033C00002220023564903C904F0A8F800214A400C
:1033D0004B401A4303D101205349086002E000200A
:1033E000514908605148007808B351480068C82125
:1033F000B0FBF1F201FB120030B94E480068C04347
:103400004D49C1F880010DE04948006841F288311A
:10341000884207D9002045490870454908600120C5
:103420004449086042480068401C414908604FF424
:10343000FA6200233A4903C904F070F800214A40B7
:103440004B401A4302D101203C4908703C48008897
:1034500020B93B4800883A49088004E03848008891
:10346000401E3749088010BD00B587B00121C80251
:1034700002F09EFA334802F02DFE4720ADF810000E
:103480000020ADF812004FF6FF70ADF814000020D8
:10349000ADF8160004A92B4802F0F0FE0C20ADF8A0
:1034A00004000020ADF806000120ADF8080000205F
:1034B000ADF80A00ADF80C0001A9224803F071F93B
:1034C0001B208DF8000002208DF8010000208DF8EF
:1034D000020001208DF80300684601F0BCFC1920B1
:1034E0008DF80000684601F0B6FC1021154803F085
:1034F000E7FC0121134803F0E3FC012210211148ED
:1035000003F033FA012211460E4803F02EFA00218F
:103510000C4803F00FFA07B000BD000012000020B5
:103520003800002060000020948121422600002005
:103530009400002080012142000021424000002030
:1035400014000020002C014008B50121042002F0E5
:103550002FFA10208DF803000002ADF800000320C0
:103560008DF802006946694801F066FF28208DF851
:1035700003004FF40060ADF800006946634801F0B5
:103580005BFF002062490860FFF76EFF08BD10B5C1
:10359000FFF7DAFF0A2001F026FC00205D490880D1
:1035A0005D49087001205D49087059490860142080
:1035B00001F0F5FB00205A49C1F8B001012159483A
:1035C00003F0B8F910BD10B500205449087000216F
:1035D000544803F0AFF910BD10B500244E480078F0
:1035E00000F0800008B9204610BD4B48007800F07C
:1035F0003F0424044748008804443A20B4FBF0F414
:103600000021484803F096F90020434908704349D7
:1036100008702046E8E708B50121082002F0C8F943
:1036200010208DF803004020ADF8000003208DF835
:10363000020069463C4801F0FFFE04208DF80300BB
:103640008020ADF800006946374801F0F5FE08BD5E
:1036500070B50024002540F6FF768021324801F045
:1036600098FF4021304801F096FF07E00A2E01D272
:10367000002070BD012001F092FB761E80212A48B7
:1036800001F06DFF0028F1D1002516E04021264809
:1036900001F07FFF6400012001F081FB40212248FE
:1036A00001F079FF8021204801F059FF00B1641C2E
:1036B000012001F074FB681CC5B2182DE6DB402127
:1036C000194801F066FF012001F069FB402116480E
:1036D00001F061FF012001F062FB2046C9E708B557
:1036E0000121042002F064F910208DF80300C002CB
:1036F000ADF8000002208DF802006946034801F091
:103700009BFE002002490C31086008BD0008014002
:10371000B00121424200002041000020440000206E
:1037200000002142002C0140000C014000204FF419
:10373000FA7001E0411E88B20028FBDC704708B532
:103740000820ADF8000003208DF8020010208DF84D
:1037500003006946F94801F06FFE08BD10B5FFF798
:10376000EEFF0821F54801F014FF1021F34801F0A5
:1037700012FFFFF7DBFF1021F04801F00AFFFFF70F
:10378000D5FF0821ED4801F006FFFFF7CFFF10211C
:10379000EA4801F000FFFFF7C9FF1021E74801F0F8
:1037A000F8FEFFF7C3FF0821E44801F0F2FEFFF73F
:1037B000BDFF1021E14801F0EEFE10BD10B5FFF78E
:1037C000BEFF0821DD4801F0E4FE1021DB4801F0D6
:1037D000E2FE00240DE01021D84801F0DAFEFFF7E8
:1037E000A5FF1021D54801F0D6FEFFF79FFF601C12
:1037F000C4B2092CEFDBFFF7B1FF10BD08B5012102
:10380000092002F0D5F80121CD4801F0E6FE08209C
:10381000ADF8000003208DF8020010208DF80300A1
:103820006946C64801F008FE1020ADF800000320EC
:103830008DF8020010208DF803006946BF4801F0A2
:10384000FBFDFFF7BBFF08BD2DE9F04F8BB08346B2
:103850000C46204604F0F5F8074605F023F9054626
:1038600000224FF0804303F0E6FFCDE90401584603
:1038700004F0E7F80746B34AB34B03F03BFF0546B5
:103880000E46584604F0DDF807460022AF4B03F021
:10389000D8FF2A463346CDE9000104F044F88146BA
:1038A000AB4AAC4B03F026FFCDE90201DDE904236E
:1038B00003F020FFCDE9060104F0EEF80990099825
:1038C00004F0BFF80546A44AA44B03F0B4FF8146B8
:1038D0008A46099804F0B5F807469D4A9D4B03F0C7
:1038E000ADFF0546974A984B03F0ABFF4A46534657
:1038F000CDE9040104F017F8CDE9060104F0CCF895
:10390000089008980BB0BDE8F08F2DE9FF4F8BB001
:103910000C4615461E4692480A90924809909248D5
:10392000089092480790924806908E4805909148DA
:1039300004900B9804F06FF880468A4903F0A8FEC3
:103940000746874903F04CFE8246204604F063F8A0
:103950000290204604F05FF88549019003F098FE3C
:103960008346029903F094FE0746204604F053F87C
:103970007E49029003F08CFE83467B4903F030FEC3
:103980008046394603F02CFE0390204604F043F8AD
:103990007849019003F07CFE8346724903F020FED3
:1039A00080467549504603F06DFE4146029003F093
:1039B0006FFE0746039903F013FE81466F494846A0
:1039C00004F086F801D2DFF8B491484604F039F8E3
:1039D00007465C4A6A4B04F047F801D2DFF8A4912D
:1039E000C6F80090C5F800A00FB0BDE8F08F08B58C
:1039F0000820ADF8000003208DF8020004208DF8A7
:103A0000030069464D4801F017FD08BD70B5054635
:103A10000026FFF7ECFF802416E0FFF787FE102159
:103A2000464801F0B6FDFFF781FE0821434801F04A
:103A300096FD00B126431021404801F0ACFD204620
:103A400004EBD071C1F34704002CE6DCFFF777FEEE
:103A500025B10821394801F09EFD03E008213748CF
:103A600001F097FDFFF762FE1021344801F091FD4F
:103A7000FFF75CFE1021314801F08DFDFFF756FE87
:103A8000304670BD70B505460026FFF758FE80240D
:103A90001EE004EA050020B10821284801F079FD64
:103AA00003E00821254801F076FDFFF73FFE1021D5
:103AB000224801F06EFDFFF739FE10211F4801F08A
:103AC0006AFDFFF733FE204604EBD071C1F34704D3
:103AD000002CDEDCFFF78BFF1021184801F059FDA8
:103AE0000821164801F03BFD06461021134801F05D
:103AF00052FD304670BD2DE9F04706460F46904610
:103B00000024A146A246FFF729FEB8F1000F03D01A
:103B1000B8F1010F0CD105E00320FFF7B3FF2044FB
:103B2000C4B206E00520FFF7ADFF2044C4B200E0B8
:103B300000BF00BFFFF75BFF00252CE0000C014039
:103B4000000230009A99999999A96D4000001E4091
:103B500085B185200725E53F185B0872505220404B
:103B6000CDCC1EC20AD7233CC5FE02C0BD52163DB5
:103B7000F624D6B5ACC5A7380000C8410000C8423D
:103B80009999B93FCDCCCC3D0821494801F0E7FCDB
:103B900000B903E06D1C47488542F5D300BF0821FA
:103BA000434801F0DCFC012801D1601CC4B20120B3
:103BB000FFF72CFF81460120FFF728FF82460020F7
:103BC000FFF724FF38704AEA092030802046BDE81C
:103BD000F08738B50024002000903748D0E9002055
:103BE000364928C9D11A60EB05004FF47A73C91A17
:103BF00070F1000001D2002038BD00226946304833
:103C0000FFF779FF2044C4B2012269462D48FFF72F
:103C100072FF2044C4B21CB1FFF7D0FD0020EBE7D7
:103C2000294B2A4A2748018825480088FFF76DFE5E
:103C30002548016825480068FFF706FE244908600A
:103C40001D48D0E900101D4AC2E900100120D3E749
:103C500010B50024FFF7B2FD1E20FFF713FF20442C
:103C6000C4B2204610BD70B504460D460026FFF7CD
:103C700075FD0720FFF706FF06460120FFF7C6FE89
:103C800020700020FFF7C2FE2870304670BD70B56E
:103C900005460024FFF762FD0620FFF7F3FE2044EF
:103CA000C4B22878FFF7EEFE2044C4B2204670BDAF
:103CB000000C014000A24A043800002098000020B7
:103CC0006A000020680000206C00002070000020C6
:103CD0007400002070B505460E461446314628464D
:103CE00000F0B9FE204600F067FE70BD2DE9F05FE0
:103CF00006460F4614461D46A01B401C1FFA80FABC
:103D0000E81B401C1FFA80FB681E83B2601E82B253
:103D10003946304600F077FE4FF000080FE04FF0D4
:103D2000000906E00A9800F047FE09F101001FFAB9
:103D300080F9D145F6DB08F101001FFA80F8D8457B
:103D4000EDDBFE484088401E83B2FC480088401EE0
:103D500082B20021084600F056FEBDE8F09F2DE932
:103D6000FF4F85B081468A46002004900390079853
:103D7000A0EB09050898A0EB0A06CDF80890CDF84D
:103D800004A0002D01DD012705E00DB9002702E0A8
:103D90004FF0FF376D42002E02DD4FF0010806E0C4
:103DA00016B94FF0000802E04FF0FF387642B542F6
:103DB00001DD2C4600E034464FF0000B21E0019A73
:103DC00091B2029A90B200F050FE049828440490F8
:103DD0000398304403900498A04205DD0498001B2A
:103DE00004900298384402900398A04205DD03989D
:103DF000001B03900198404401900BF101001FFA51
:103E000080FB601C8345DADD09B0BDE8F08F2DE949
:103E1000F04104460D4616461F462B4632462946BB
:103E20002046FFF79CFF3B46224629462046FFF7E7
:103E300096FF3B46324639462046FFF790FF3B4609
:103E4000324629463046FFF78AFFBDE8F081F8B5D3
:103E500004460D4616461F46B94800883B46324682
:103E6000294600902046FFF741FFF8BD2DE9F041BB
:103E700004460D4616461F46DDF81880EA1991B231
:103E8000A21990B24246FFF725FFEA1991B2A21B90
:103E900090B24246FFF71EFFEA1B91B2A21990B200
:103EA0004246FFF717FFEA1B91B2A21B90B24246AF
:103EB000FFF710FFAA1991B2E21990B24246FFF73C
:103EC00009FFAA1991B2E21B90B24246FFF702FF26
:103ED000AA1B91B2E21990B24246FFF7FBFEAA1B61
:103EE00091B2E21B90B24246FFF7F4FEBDE8F081CA
:103EF0002DE9FF4F81B0824617469846DDF838B06D
:103F0000002445464FEA4800C0F10306BBF1000F0C
:103F10001FD01BE0A14608E04B46224600975046C2
:103F20000299FFF7A3FF09F10109A945F4DD002E6D
:103F300004DA042000FB0460861D06E0601B0421F7
:103F400001FB006000F10A066D1E641CAC42E1DD5D
:103F500018E015E02B462246009750460299FFF7DD
:103F600085FF002E04DA042000FB0460861D06E0B5
:103F7000601B042101FB006000F10A066D1E641C39
:103F8000AC42E7DD05B0BDE8F08F2DE9FF4F83B00F
:103F900081468A469346DDE91064694800880290AC
:103FA000A6F12000C6B204EBD47009EB6000401EFD
:103FB00082B20AEB0400401E83B251464846019487
:103FC00000F021FD129860BB002527E00C2C07D1E2
:103FD00006EB46005B4901EB800010F8058004E029
:103FE000594800EB061010F8058000270FE008F094
:103FF000010020B10BF0FF0000F0CBFC03E00699BC
:10400000C8B200F0C6FC4FEA6808781CC7B204EBDF
:10401000D471B7EB610FEADB681CC5B2A542D5DBF2
:104020002DE0002529E00C2C07D106EB4600454980
:1040300001EB800010F8058004E0434800EB061017
:1040400010F80580002711E03D48A0F800B008F006
:10405000010038B10AEB050291B209EB070290B2F8
:1040600000F003FD4FEA6808781CC7B204EBD47176
:10407000B7EB610FE8DB681CC5B2A542D3DB304962
:10408000029808802D484088401E83B22B48008843
:10409000401E82B20021084600F0B5FC07B0BDE822
:1040A000F08F2DE9FE4F04460E4691460C9F2448A2
:1040B0000088029001940096002566E01F48008861
:1040C000401EA04204DB1D484088401EB04201DA79
:1040D000BDE8FE8F3D783A2D01D10A250AE02E2D4C
:1040E00001D10B2506E02D2D01D10C2502E0A5F113
:1040F0003000C5B201944FF0000838E005EB4500F0
:10410000124901EB001010F808A04FF0000B26E058
:104110000B48A0F800900AF0800018B13146204604
:1041200000F0A3FC4FF6FF7000EA4A0A601C84B25C
:104130000198201A0C280ED1019C09E024250020AA
:10414000A0000020928B000806900008F695000859
:10415000701C86B206E00BF1010000F0FF0BBBF112
:10416000080FD5DB00BF08F1010000F0FF08B8F12F
:10417000300FC3DB0A2D03DA04F1100084B202E031
:1041800004F1080084B2009E7F1C38787E2802DC8F
:104190003878202892DAFC490298088000BF97E717
:1041A0002DE9FE4306460F4615461C46DDF82880DD
:1041B0001DE0F6480088401EB04204DBF34840880A
:1041C000401EB84201DABDE8FE8320788DE8210167
:1041D000EF480388EC48028839463046FFF7D5FEA1
:1041E000284605EBD07106EB61018EB2641C207885
:1041F0007E2802DC20782028DBDA00BFE3E710B558
:104200000246012000E050430B1EA1F10104E1B27F
:10421000F9D110BD2DE9FF4F83B0074691461E46E8
:10422000109C4FF0000A002543E0701B401EC1B2F5
:104230000A20FFF7E4FFB9FBF0F00A21B0FBF1F22E
:1042400001FB1208BAF1000F1BD1701EA84218DD45
:10425000B8F1000F13D101202021A346CDE90014AD
:10426000029004EBDB71491001FB057188B2C8496B
:104270000B88C5490A880499FFF787FE17E04FF0BD
:10428000010A012108F13000C0B2A346CDE9014185
:10429000009004EBDB71491001FB057188B2BC4949
:1042A0000B88B9490A880499FFF76FFE00BF681CA4
:1042B000C5B2B542B9DB07B0BDE8F08F2DE9FC5FB0
:1042C0000546884691469A46DDF830B000950720AD
:1042D000019000245FE004EB0410AE4911F81000D7
:1042E0009BF80010884253D104EB0410A94901EB5C
:1042F000400040789BF80110884249D108F10F0036
:1043000083B205F10F0082B24146284600F07BFBE4
:1043100000263BE0002734E00D9890B904EB041030
:104320009C4901EB4000801C805D802139410840A0
:1043300018B1484600F040FB21E0504600F03CFB3D
:104340001DE09148A0F8009004EB0410914901EBA6
:104350004000801C805D80213941084018B14146F1
:10436000284600F082FB681C85B20098281A1028A5
:1043700005D1009D08F101001FFA80F803E0781CC8
:10438000C7B2082FC8DB00BF701CC6B2202EC1DB2D
:1043900000BF601C84B2019884429CDB7B4840884B
:1043A000401E83B279480088401E82B20021084630
:1043B00000F029FBBDE8FC9F2DE9FC5F054688461F
:1043C00091469A46DDF830B00095AC20019000246B
:1043D00067E004EB840000EB44106F4911F8100013
:1043E0009BF80010884259D104EB840000EB441084
:1043F000694901EB400040789BF8011088424DD19B
:1044000008F1170083B205F1170082B24146284631
:1044100000F0F9FA00263FE0002738E00D98A0B937
:1044200004EB840000EB44105B4901EB4000801C6E
:10443000805D80213941084018B1484600F0BCFA3F
:1044400023E0504600F0B8FA1FE04F48A0F8009073
:1044500004EB840000EB44104F4901EB4000801C4A
:10446000805D80213941084018B14146284600F05E
:10447000FCFA681C85B20098281A182805D1009DFE
:1044800008F101001FFA80F803E0781CC7B2082F7A
:10449000C4DB00BF701CC6B2482EBDDB00BF601C71
:1044A00084B20198844294DB38484088401E83B22D
:1044B00036480088401E82B20021084600F0A3FA68
:1044C000BDE8FC9F2DE9FC5F0546884691469A466B
:1044D000DDF830B000950120019000246CE004EB81
:1044E00084102E4911F810009BF80010884260D10A
:1044F00004EB8410294901EB400040789BF801103F
:10450000884256D108F11F0083B205F11F0082B224
:104510004146284600F077FA002648E0002741E0AF
:104520000D9890B904EB84101C4901EB4000801CED
:10453000805D80213941084018B1484600F03CFABE
:104540002EE0504600F038FA2AE00F48A0F800901C
:1045500004EB8410114901EB4000801C805D802138
:104560003941084018B14146284600F07EFA681CDF
:1045700085B20098281A202812D1009D08F1010068
:104580001FFA80F810E00000A00000202425002081
:10459000A200002066980008549900080CCB00087F
:1045A000781CC7B2082FBBDB00BF701CC6B2802EC0
:1045B000B4DB00BF601C84B2019884428FDB714879
:1045C0004088401E83B26F480088401E82B200219E
:1045D000084600F018FABDE8FC9F2DE9FF4F83B0B4
:1045E000064688469146DDE91147109DB2464FF0D8
:1045F000000B73E0BBF1000F42D104EBD471614AB0
:104600001288A2EB6101B14204DB5E494988091BB3
:10461000414502DA07B0BDE8F08F2878802802DD36
:104620004FF0010B5AE028780D2806D108EB040062
:104630001FFA80F856466D1C20E00C2C01D0102C7F
:104640000FD128788DE891004A4641463046069BB6
:10465000FFF79BFC204604EBD07106EB61018EB2A4
:104660000CE0102128788DE883004A464146304608
:10467000069BFFF78AFC06F1080086B26D1C2DE050
:1046800040480088001BB04204DB3E484088001BC5
:10469000404500DABEE74FF0000B202C08D1CDE9F1
:1046A00000574A4641463046069BFFF70BFF12E093
:1046B000182C08D1CDE900574A4641463046069BA2
:1046C000FFF77AFE07E0CDE900574A4641463046FB
:1046D000069BFFF7F3FDAD1C301986B22878002841
:1046E00088D100BF96E72DE9FF4F83B004460F46FF
:1046F0009046DDE9119A109D284602F06AFF86B2C5
:1047000020490988A1EBC60000EBD071C1F34F0B23
:1047100004EB0B0188B28DE8200642463946069B21
:10472000FFF75BFF07B0BDE8F08F2DE9F0470646C5
:104730000F46154607F1270083B206F1270082B223
:104740003946304600F05FF900240AE015F814906D
:1047500005EB440090F8018049EA082000F02CF9AC
:10476000641CB4F5C86FF1DB06484088401E83B274
:1047700004480088401E82B20021084600F043F938
:10478000BDE8F087242500200021082115E000F075
:1047900080021AB10122FE4B1A6002E00022FC4B9B
:1047A0001A600022FA4B083B1A600122F94BC3F849
:1047B000B4214206100E4A1ED1B20029E7DC704730
:1047C000024600BF108900F002000028FAD0918153
:1047D00000BF108900F001000028FAD09089C0B213
:1047E000704702884FF6C7731A400280012902D130
:1047F0000288028003E0028842F0200202800288E0
:1048000042F040020280704700B587B001211D20B0
:1048100001F0CEF82820ADF8040003208DF8060042
:1048200018208DF8070001A9DB4800F005FE3020B4
:10483000ADF8040003208DF8060010208DF8070065
:1048400001A9D64800F0F8FD4FF40040ADF804008F
:1048500003208DF8060010208DF8070001A9D0482C
:1048600000F0EAFD0121C80301F0AFF80020ADF827
:1048700008004FF48270ADF80A000020ADF80C007B
:104880000220ADF80E000120ADF810004002ADF896
:1048900012000020ADF81400ADF816000720ADF8A6
:1048A000180002A9BF4802F049FB0121BE4800F0F0
:1048B00094FE0121BB4802F0E6FB07B000BD00B545
:1048C00087B00121192001F073F84FF42040ADF8B2
:1048D000040003208DF8060018208DF8070001A9B8
:1048E000AD4800F0A9FD4FF48050ADF8040003205E
:1048F0008DF8060010208DF8070001A9A64800F0E9
:104900009BFDC020ADF8040003208DF806001020A8
:104910008DF8070001A9A14800F08EFD0121880350
:1049200001F053F80020ADF808004FF48270ADF8A4
:104930000A000020ADF80C000220ADF80E000120A6
:10494000ADF810004002ADF812000020ADF81400E0
:10495000ADF816000720ADF8180002A9934802F040
:10496000EDFA0121914802F08EFB07B000BD00B5C1
:104970000346002086490C3908608D49C1F89C0126
:10498000D9B28A48FFF71CFF012081490C39086021
:1049900000BD00B5034600207D490C3908600120A8
:1049A0008349C1F89C0119468048FFF709FF01209F
:1049B00077490C39086000BD00B5034600207449F2
:1049C0000C39086001207A49C1F89C011912774816
:1049D000FFF7F6FED9B27548FFF7F2FE01206C49E9
:1049E0000C39086000BD30B505460C462846FFF777
:1049F000BEFFE0B2FFF7CDFF30BD00B56D490889BD
:104A0000FFF7B5FF00BDF0B506460C4617461D463C
:104A100068494889FFF7ABFF3012FFF7BAFFF0B2E1
:104A2000FFF7B7FF3812FFF7B4FFF8B2FFF7B1FF97
:104A300060498889FFF79BFF2012FFF7AAFFE0B2C9
:104A4000FFF7A7FF2812FFF7A4FFE8B2FFF7A1FFC7
:104A5000FFF7D3FFF0BD30B504460D462B46224686
:104A600029462046FFF7CFFF30BD30B504460D463E
:104A700029462046FFF7EFFF4F480088FFF79CFFCD
:104A800030BD08B501211C2000F092FF2820ADF8B0
:104A9000000003208DF8020010208DF80300694605
:104AA0003D4800F0C9FC3020ADF8000003208DF82F
:104AB000020010208DF803006946384800F0BCFC65
:104AC00008BD10B500203D490860642000F08BF956
:104AD00001203749C1F89801322000F084F910BD57
:104AE00000B52C203349088100208871822008807D
:104AF000832048802A2048812B208881C8213620A5
:104B0000FFF771FF00BD10B5FFF7D9FEFFF7D9FF22
:104B10001120FFF72CFF142000F065F92620FFF785
:104B200026FF0420FFF735FFB120FFF720FF0E20FE
:104B3000FFF72FFF1020FFF72CFFC020FFF717FF14
:104B40000820FFF726FF0020FFF723FFC120FFF713
:104B50000EFF0520FFF71DFFC520FFF708FF3820D7
:104B6000FFF717FF4020FFF714FF3A20FFF7FFFE83
:104B70000520FFF70EFF3620FFF7F9FE1C20FFF798
:104B800008FF2A20FFF7F3FE0020FFF702FF17E0DF
:104B9000BC81214200802142000C014000100140F4
:104BA00000080140003C0040000230000038004096
:104BB0000000224224250020A0000020980122426B
:104BC0000020FFF7E6FE0020FFF7E3FE7F20FFF75F
:104BD000E0FE2B20FFF7CBFE0020FFF7DAFE2020BF
:104BE000FFF7D7FE0020FFF7D4FE9F20FFF7D1FE8E
:104BF000B420FFF7BCFE0020FFF7CBFEF220FFF74A
:104C0000B6FE0120FFF7C5FEE020FFF7B0FE3F2013
:104C1000FFF7BFFE2220FFF7BCFE2020FFF7B9FE02
:104C20003020FFF7B6FE2920FFF7B3FE0C20FFF778
:104C3000B0FE4E20FFF7ADFEB720FFF7AAFE3C20E6
:104C4000FFF7A7FE1920FFF7A4FE2220FFF7A1FE21
:104C50001E20FFF79EFE0220FFF79BFE0120FFF7BC
:104C600098FE0020FFF795FEE120FFF780FE002070
:104C7000FFF78FFE1B20FFF78CFE1F20FFF789FE3A
:104C80000F20FFF786FE1620FFF783FE1320FFF7A5
:104C900080FE3120FFF77DFE8420FFF77AFE43205F
:104CA000FFF777FE0620FFF774FE1D20FFF771FE69
:104CB0002120FFF76EFE3D20FFF76BFE3E20FFF741
:104CC00068FE3F20FFF765FE2920FFF750FE2C20ED
:104CD000FFF74DFEFFF704FF10BD70B506462248F2
:104CE0004088401E83B220480088401E82B20021C6
:104CF0000846FFF788FE00240CE0002504E030465B
:104D0000FFF75AFE681C85B217484088A842F6DCB7
:104D1000601C84B214480088A042EEDC70BD2DE90E
:104D2000F04782460C4615461E46089F781E83B201
:104D3000701E82B229462046FFF765FEA0460EE0AF
:104D4000A94606E05046FFF737FE09F101001FFAB9
:104D500080F9B945F6DB08F101001FFA80F8B0458B
:104D6000EEDBBDE8F08700002425002010B56FF0D1
:104D7000040000F0BAF82E4800682E49B0FBF1F0AC
:104D80002D4908700846007800EB4001C1EBC010C7
:104D90004FF6FF7101EAC0002849088010BD0146A6
:104DA000254A12784A434FF0E0235A6100229A6163
:104DB0001A46126942F001021A6100BF4FF0E02268
:104DC000106900F001021AB100F48032002AF5D017
:104DD0004FF0E022126922F001024FF0E0231A6145
:104DE00000229A6170470146144A12884A434FF0E4
:104DF000E0235A6100229A611A46126942F00102C8
:104E00001A6100BF4FF0E022106900F001021AB1F0
:104E100000F48032002AF5D04FF0E022126922F02F
:104E200001024FF0E0231A6100229A6170470000EE
:104E3000C000002000127A00A6000020A800002078
:104E400010B54FF4A06000F001F810BD31490143E6
:104E5000314A1160704770B5002100230F22C478D9
:104E600004B32D4C246804F4E064C4F5E064210A22
:104E7000C1F10403CA40447804FA03F18478144071
:104E800021430901254C0678A155047804F01F053B
:104E90000124AC4005786D11AD0005F1E025C5F8A1
:104EA000004109E0047804F01F050124AC401C4DCA
:104EB0000678761145F8264070BD1A4A0A4002432A
:104EC000154B1B1F1A60704739B1134A121D126827
:104ED0000243114B1B1D1A6006E00F4A121D126897
:104EE00082430D4B1B1D1A607047042808D14FF0F8
:104EF000E021096941F004014FF0E022116107E06F
:104F00004FF0E021096921F004014FF0E022116126
:104F1000704700000000FA050CED00E000E400E03E
:104F200080E100E080FFFF1F10B50446FA4884428C
:104F300008D10121401500F055FD0021601500F059
:104F400051FD17E0F548844208D10121001500F019
:104F500049FD0021201500F045FD0BE0F04884429A
:104F600008D10121C80300F03DFD00214FF40040AD
:104F700000F038FD10BD30B5024600200023506817
:104F8000E84C20400D790C6844EA05242043506029
:104F90009068E54C2040D1E902542C434D7944EA15
:104FA000450420439060D06A20F470000C7C641E9D
:104FB000E4B2234340EA0350D06230BD00210160D7
:104FC000017141718160C16001210174704721B19B
:104FD000826842F00102826003E0826822F00102EE
:104FE0008260704721B1826842F48072826003E07F
:104FF000826822F480728260704710B50023CBB2C1
:105000001AB144681C43446002E044689C43446015
:1050100010BD816841F008018160704701460020A1
:105020008A6802F008020AB1012000E000207047FF
:10503000816841F0040181607047014600208A6860
:1050400002F004020AB1012000E00020704721B103
:10505000826842F4A002826003E0826822F4A00227
:1050600082607047014600208A6802F480020AB11B
:10507000012000E00020704710B50A4600210023FF
:10508000416821F46041531E41EA4331416010BD43
:1050900021B1426842F40062426003E0426822F4B7
:1050A000006242607047F0B504460D4600200021C2
:1050B000092D11DDE068A5F10A0606EB4607072673
:1050C00006FA07F18843A5F10A0606EB460603FA3D
:1050D00006F10843E0600CE0206905EB4507072670
:1050E00006FA07F1884305EB450603FA06F1084383
:1050F0002061072A0FDA606B561E06EB86071F2613
:1051000006FA07F18843561E06EB860605FA06F1F5
:105110000843606322E00D2A0FDA206BD61F06EBEE
:1051200086071F2606FA07F18843D61F06EB860678
:1051300005FA06F10843206310E0E06AA2F10D06CB
:1051400006EB86071F2606FA07F18843A2F10D0633
:1051500006EB860605FA06F10843E062F0BD21B1D0
:10516000826842F48012826003E0826822F4801236
:10517000826070470146C86C80B2704766484C3008
:105180000068704721B1426842F48062426003E0E7
:10519000426822F480624260704721B1426842F462
:1051A0008052426003E0426822F4805242607047BD
:1051B0000A460021816821F4E04111438160704773
:1051C00021B1826842F40042826003E0826822F4E6
:1051D00000428260704721B1826842F4021282600C
:1051E00003E0826822F402128260704701460020C8
:1051F0008A6802F400120AB1012000E00020704722
:10520000F0B504461546002000220026092911DDCC
:10521000E068A1F10A0707EB470C072707FA0CF231
:105220009043A1F10A0707EB470703FA07F210437F
:10523000E0600CE0206901EB410C072707FA0CF253
:10524000904301EB410703FA07F210432061A06B82
:10525000C0F30156EF1C06F1010CA7EB0C0707EB9E
:10526000870C1F2707FA0CF29043EF1C06F1010C84
:10527000A7EB0C0707EB870701FA07F21043A063BF
:10528000F0BD10B50A4600210023816B21F44011C6
:10529000531E41EA0351816310BD08B500230093FA
:1052A0000090009B0B440093009B1A6008BD08B55A
:1052B000024600200090009201F12800009B184453
:1052C00000900098006880B208BD0A46002141683D
:1052D000164B19401143416070474162826270472A
:1052E0000A460021416821F01F01114341607047C7
:1052F00040B109490831096841F40001064A083201
:10530000116007E004490831096821F40001024AEC
:10531000083211607047000000240140002801405D
:10532000003C0140FFFEF0FFFDF7F1FFFFFD3FFFF6
:105330000246002013680B400BB1012000E0002062
:105340007047CA430260704770B5024600200023D0
:1053500000240B125568CEB205EA060415681D40FC
:1053600015B10CB1012000E0002070BD00220A122E
:10537000D34303607047000010B50446CC48844214
:1053800008D10121042000F02DFB0021042000F0B1
:1053900029FB46E0C748844208D10121082000F0DB
:1053A00021FB0021082000F01DFB3AE0C2488442A6
:1053B00008D10121102000F015FB0021102000F081
:1053C00011FB2EE0BD48844208D10121202000F0CD
:1053D00009FB0021202000F005FB22E0B8488442B0
:1053E00008D10121402000F0FDFA0021402000F00A
:1053F000F9FA16E0B348844208D10121802000F078
:10540000F1FA0021802000F0EDFA0AE0AE48844273
:1054100007D10121801500F0E5FA0021A01500F068
:10542000E1FA10BD10B50121084600F0DBFA0021B9
:10543000012000F0D7FA10BD2DE9F0410246002509
:105440000026002000230024002791F803C00CF060
:105450000F0591F803C00CF0100CBCF1000F03D045
:1054600091F802C04CEA050591F800C0BCF1000FAC
:1054700031D0146800202BE04FF0010C0CFA00F33F
:10548000B1F800C00CEA03069E4220D183004FF021
:105490000F0C0CFA03F7BC4305FA03FC4CEA0404B6
:1054A00091F803C0BCF1280F06D14FF0010C0CFAA3
:1054B00000FCC2F814C00AE091F803C0BCF1480F28
:1054C00005D14FF0010C0CFA00FCC2F810C0401CD2
:1054D0000828D1D31460B1F800C0BCF1FF0F34DD4F
:1054E000546800202EE000F1080C4FF0010808FA83
:1054F0000CF3B1F800C00CEA03069E4221D18300F0
:105500004FF00F0C0CFA03F7BC4305FA03FC4CEA0E
:10551000040491F803C0BCF1280F05D100F1080C78
:1055200008FA0CF8C2F8148091F803C0BCF1480FD7
:1055300007D100F1080C4FF0010808FA0CF8C2F886
:105540001080401C0828CED35460BDE8F0814FF68F
:10555000FF710180022181700421C17070470246F1
:10556000002093680B400BB1012000E00020704741
:105570000146886880B2704702460020D3680B401D
:105580000BB1012000E0002070470146C86880B2DE
:10559000704701617047416170470AB1016100E0E5
:1055A00041617047C16070474FF480320A438261A5
:1055B0008161826182698269704702460020434BA3
:1055C00018684FF68073184040EA021008433F4BBA
:1055D000186070473E49C8617047F0B50A4600231D
:1055E00000240021002500F00046B6F1004F02D152
:1055F000364EF16901E0354E7168C0F3034583B260
:1056000000F44016B6F5401F08D121F070612F4E0E
:10561000766826F070662D4F7E6012E000F48016EA
:10562000B6F5801F06D1032606FA05F4A14341F022
:10563000706106E0460D360103FA06F6B14341F00B
:10564000706122B1460D360103FA06F6314300F0CF
:105650000046B6F1004F02D11C4EF16101E01B4E35
:105660007160F0BD30B500228B071C0F0F2303FAC9
:1056700004F2164B08338C1053F824309343134C28
:1056800008348D1044F8253023468C1053F824300C
:105690008C07240F00FA04F423430C4C08348D10BB
:1056A00044F8253030BD0A49DC31086070470000FD
:1056B00000080140000C01400010014000140140AE
:1056C00000180140001C0140002001400000014082
:1056D00000002042DF48006840F00100DD4908601A
:1056E00008464068DC490840DA49486008460068D6
:1056F000DA490840D74908600846006820F480204D
:1057000008600846406820F4FE0048604FF41F001F
:1057100088607047CF49096821F48031CD4A116013
:105720001146096821F480211160B0F5803F03D053
:10573000B0F5802F0ED106E0C649096841F48031EA
:10574000C44A116007E0C349096841F4A021C14A75
:10575000116000E000BF00BF704710B50146002295
:10576000002300204A11012A02D1BA4C236806E026
:10577000022A02D1B74C236A01E0B64C636A01F0F9
:105780001F02012494401C400CB1012000E00020C5
:1057900010BD38B5002000900024002500BF312046
:1057A000FFF7DBFF05460098401C00900098B0F51D
:1057B000A06F01D0002DF2D03120FFF7CEFF08B14D
:1057C000012400E00024204638BD01460020A14A03
:1057D000106820F0F80040EAC10010607047A0494E
:1057E00008607047024600209A4B586820F47C10ED
:1057F00042EA01031843974B58607047984908667E
:10580000704701460020934A506820F00300084387
:10581000506070478F48406800F00C0070470146A8
:1058200000208C4A506820F0F00008435060704718
:1058300001460020874A506820F4E0600843506029
:10584000704701460020834A506820F4605040EAC7
:10585000C1005060704729B17E4A527A02437D4BA5
:105860005A7204E07B4A527A82437A4B5A727047EA
:105870007B49D8310860704701460020754A50685E
:1058800020F440400843506070470021714A2032A4
:105890001170704A82F82010012802D004280AD121
:1058A00004E001216B4A2032117005E00521694AAC
:1058B0002032117000E000BF00BF704769490860E6
:1058C00070476449096A0143624A11627047654939
:1058D00044390860704730B50021002200240023BD
:1058E0005C4D6D6805F00C0121B1042905D0082933
:1058F00023D105E05C4D056022E05B4D05601FE0B3
:10590000544D6D6805F47012524D6D6805F4803485
:10591000022505EB92421CB9544D554305600BE03E
:105920004C4D6D6805F400351DB1504D5543056073
:1059300002E04D4D5543056002E04B4D056000BF50
:1059400000BF444D6D6805F0F0010909484D6B5CDE
:105950000568DD4045603F4D6D6805F4E061090A6A
:10596000434D6B5C4568DD4085603A4D6D6805F4DC
:105970006051C90A3E4D6B5C4568DD40C560354DE0
:105980006D6805F44041890B3A4D6B5CC568B5FB09
:10599000F3F5056130BD29B12E4A526902432D4B02
:1059A0005A6104E02B4A526982432A4B5A6170477C
:1059B00029B1284A92690243264B9A6104E0254A9C
:1059C00092698243234B9A61704729B1214AD26977
:1059D0000243204BDA6104E01E4AD26982431D4B28
:1059E000DA61704729B11B4AD2680243194BDA6069
:1059F00004E0184AD2688243164BDA60704729B136
:105A0000144A12690243134B1A6104E0114A1269E5
:105A10008243104B1A617047124940390860704741
:105A20000F49C86470470B49C87170470948406AFC
:105A300040F0807007494862704701460020054ADF
:105A400092680A400AB1012000E000207047014935
:105A500088727047001002400000FFF8FFFFF6FE5A
:105A6000000042428004424200127A0000093D00D8
:105A7000AA000020BA00002010B50446FB4884426A
:105A800009D101218803FFF7ADFF00214FF48040C9
:105A9000FFF7A8FF32E0F648844209D1012148040B
:105AA000FFF7ADFF00214FF40030FFF7A8FF25E01E
:105AB000F048844209D101218804FFF7A0FF0021AA
:105AC0004FF48020FFF79BFF18E0EB48844209D198
:105AD0000121C804FFF793FF00214FF40020FFF7D6
