:020000040800F2
:10000000F0AB0020610300087D150008D91100083D
:100010006115000809070008C1320008000000004F
:10002000000000000000000000000000990200082D
:10003000110A000800000000110300084D03000829
:100040007B0300087B0300087B0300087B03000898
:100050007B0300087B0300087B0300087B03000888
:100060007B0300087B0300087B030008910800085D
:10007000B1080008D1080008F108000811090008BB
:1000800031090008510900087B030008BD30000851
:10009000D53100080D070008F9070008150A000807
:1000A0007B0300087B0300087B0300087B03000838
:1000B0007B0300087B0300087B0300087B03000828
:1000C0007B0300087B0300087B0300087B03000818
:1000D0007B0300089D1A00087B0300087B030008CF
:1000E0007B0300087B0300087B0300087B030008F8
:1000F0007B0300087B0300087B0300087B030008E8
:100100007B0300087B0300087B0300087B030008D7
:10011000C11900087B0300087B0300087B0300086B
:100120007109000891090008B5090008D5090008FF
:1001300000F002F800F05AF80AA090E8000C82449F
:100140008344AAF10107DA4501D100F04FF8AFF27C
:10015000090EBAE80F0013F0010F18BFFB1A43F0A5
:1001600001031847845C0000A45C00000A444FF0BF
:10017000000C10F8013B13F0070408BF10F8014B06
:100180001D1108BF10F8015B641E05D010F8016B4B
:10019000641E01F8016BF9D113F0080F1EBF10F8AF
:1001A000014BAD1C0C1B09D16D1E58BF01F801CBD2
:1001B000FAD505E014F8016B01F8016B6D1EF9D555
:1001C0009142D6D37047000000230024002500266A
:1001D000103A28BF78C1FBD8520728BF30C148BFAA
:1001E0000B6070471FB51FBD10B510BD00F05EFA63
:1001F0001146FFF7F7FF0FB400F00CF80FBC03F047
:10020000F1FC00F048F903B4FFF7EEFF03BC00F087
:1002100047FA000004B003F029FD0448002103F070
:10022000FFFD03F035FD00F036F90000245C000806
:1002300080F309887047EFF309807047684680F3C0
:10024000098804480078C00714BF0220032080F307
:1002500014887047E45B0008DFF818C0EFF30583EB
:100260001B0618BF6047EFF31483DB0708BF604726
:1002700000DF70474B3F0008DFF818C0EFF305833D
:100280001B0618BF6047EFF31483DB0708BF604706
:1002900000DF7047FD410008EFF30980816911F824
:1002A000021CF1B990E80F10E047EFF3098C8CE8DD
:1002B0000700144B93E8060091420FD039B12CE9A6
:1002C000F00FC1F828C00CB404F080FB0CBC1A601D
:1002D000D2F828C0BCE8F00F8CF309886FF0020E4A
:1002E000704710B5084A1268914209D8074C54F873
:1002F000214090E80F10A047EFF3098C8CE80F0025
:1003000010BD00006C010020F8060008F806000887
:1003100004F02EFA0C4B93E80600914210D0EFF354
:10032000098C2CE9F00FC1F828C00CB404F04EFB86
:100330000CBC1A60D2F828C0BCE8F00F8CF3098816
:100340006FF0020E704700006C01002004F006FC04
:10035000E0E7000003F0F8FD04F000FCDAE700003D
:100360000948804709480047FEE7FEE7FEE7FEE749
:10037000FEE7FEE7FEE7FEE7FEE7FEE70448054985
:10038000054A064B704700001919000831010008A2
:10039000F0A50020F0AB0020F0A70020F0A700207F
:1003A000004870478CA5002053EA020C00F06980D9
:1003B0002DE9F04B4FF00006002B1FBFB3FA83F579
:1003C00003FA05F424FA05F65E4012BF1643B2FAAA
:1003D00082F502FA05F4C5F120051EBF22FA05FCDC
:1003E00044EA0C04203556EA044C4FEA144418BF82
:1003F000641C4FF000084FF00009904271EB030CB1
:1004000039D3002919BFB1FA81F701FA07F6B0FA1A
:1004100080F700FA07F6C7F120071EBF20FA07FC95
:1004200046EA0C062037B6FBF4FCA7EB0507103FA5
:1004300007F01F0BCBF120060CFA0BFB2CFA06F68B
:1004400044BFB3460026202FA4BF5E464FF0000BEA
:100450005BEA060C08BF4FF0010B19EB0B09ABFB75
:10046000027C48EB0608C01B06FB02CC0BFB03CC4E
:1004700071EB0C01C1E70B46024641464846BDE818
:10048000F08B13B54FF000004FF00001AFF3008088
:10049000BDE81C40704710B50446AFF3008020460D
:1004A000BDE81040FFF7AFBE30B505460B462A4603
:1004B00013F8014B12F8010B08B1A042F8D01CB19F
:1004C000002802D06D1CF1E7284630BD10B5431C52
:1004D00002E010F8011B71B18107FAD14FF001322F
:1004E00002C88C1A8C4314EAC211F9D0C01A0A0649
:1004F00003D0C01E10BDC01A10BD0A0401D0801E5A
:1005000010BD0902FCD0401E10BD032A40F230800D
:1005100010F0030C00F0158011F8013BBCF1020F44
:10052000624498BF11F801CB00F8013B38BF11F8C5
:10053000013BA2F1040298BF00F801CB38BF00F8DC
:10054000013B11F0030300F02580083AC0F0088059
:1005500051F8043B083A51F804CBA0E80810F5E73D
:10056000121D5CBF51F8043B40F8043BAFF3008020
:10057000D20724BF11F8013B11F801CB48BF11F895
:10058000012B24BF00F8013B00F801CB48BF00F865
:10059000012B704710B5203AC0F00B80B1E818501D
:1005A000203AA0E81850B1E81850A0E81850BFF45D
:1005B000F5AF5FEA027C24BFB1E81850A0E81850FC
:1005C00044BF18C918C0BDE810405FEA827C24BF50
:1005D00051F8043B40F8043B08BF7047D20728BFDE
:1005E00031F8023B48BF11F8012B28BF20F8023B2D
:1005F00048BF00F8012B704702F0FF0343EA0322D3
:1006000042EA024200F002B84FF000020429C0F0B2
:10061000128010F0030C00F01B80CCF1040CBCF134
:10062000020F18BF00F8012BA8BF20F8022BA1EB86
:100630000C0100F00DB85FEAC17C24BF00F8012B6B
:1006400000F8012B48BF00F8012B70474FF0000263
:1006500000B5134694469646203922BFA0E80C50B8
:10066000A0E80C50B1F12001BFF4F7AF090728BF93
:10067000A0E80C5048BF0CC05DF804EB890028BF0F
:1006800040F8042B08BF704748BF20F8022B11F038
:10069000804F18BF00F8012B7047704770477047B4
:1006A00001491820ABBEFEE7260002007546FFF7A1
:1006B00077FEAE4605006946534620F007008546A2
:1006C00018B020B5FFF75AFEBDE820404FF00006F5
:1006D0004FF000074FF000084FF0000B21F007012A
:1006E000AC46ACE8C009ACE8C009ACE8C009ACE86D
:1006F000C0098D46704770470000000010B502F039
:100700009DFE02F0DFFE10BD00BFFEE770B536486B
:10071000407802281ED13548006800F0100058B11A
:1007200010203249086032480068B0B130480621D4
:1007300002680120904710E02C48006800F0030098
:1007400058B12B48006840B12948022102680120B5
:10075000904702E0202025490860244808300468BA
:10076000001F056804F0040088B905F4806070B9C2
:100770001E48001D006840F480601C49091D086087
:100780001C48006818B11B4801680320884704F022
:10079000020088B905F4007070B91448001D0068A3
:1007A00040F400701149091D08601248006818B132
:1007B000104801680120884704F0010090B905F451
:1007C000807078B9C4F307405F280BD25F20B0EB8C
:1007D000146F07D10548001D006840F4807003497C
:1007E000091D086070BD0000420100201064004037
:1007F0004C0100204801002070B522480068002804
:100800003FD021480468001F056804201E491439A0
:10081000086004F0040078B105F4806060B11A4803
:10082000001F006820F480601749091F0860154800
:1008300001680420884724E004F0020078B105F440
:10084000007060B11048001F006820F400700E496D
:10085000091F08600B4801680320884711E004F075
:10086000010070B105F4807058B10748001F00689E
:1008700020F480700449091F0860024801680220C2
:10088000884770BD48010020186400407047000090
:1008900010B50548006800F00F0403484460204686
:1008A000FFF7F4FF10BD0000000002407047000099
:1008B00010B505480068C0F30314200102494860E0
:1008C0002046FFF7F3FF10BD000002407047000014
:1008D00010B505480068C0F30324200202494860AF
:1008E0002046FFF7F3FF10BD0000024070470000F4
:1008F00010B505480068C0F303342003024948607E
:100900002046FFF7F3FF10BD0000024070470000D3
:1009100010B505480068C0F303442004024948604C
:100920002046FFF7F3FF10BD0000024070470000B3
:1009300010B505480068C0F303542005024948601B
:100940002046FFF7F3FF10BD000002407047000093
:1009500010B505480068C0F30364200602494860EA
:100960002046FFF7F3FF10BD000002407047000073
:1009700010B50548006800F00F040348001D04602E
:100980002046FFF7F3FF10BD00040240704700004F
:1009900010B506480068C0F3031420010349091D7F
:1009A00008602046FFF7F2FF10BD0000000402407F
:1009B0007047000010B506480068C0F30324200209
:1009C0000349091D08602046FFF7F2FF10BD000033
:1009D0000004024010B50C480068C0F3033434B181
:1009E00020030949091D0860204600F00FF8064859
:1009F0000068C0F3034434B120040349091D0860B2
:100A0000204600F004F810BD000402407047704713
:100A1000704700002DE9F0414D48007881287BD1D6
:100A20000225C82646F2A81740F6B8380024002050
:100A300048490870484908704848007800287CD028
:100A4000402000F0A7F8012877D100204149087024
:100A5000414908704FF4FF714148FFF7D5FD4FF44D
:100A6000FF714048FFF7D0FD62E03F48006850BB8F
:100A700000F04EFD044640F6B83084421ADD354899
:100A80000078C82816DD33480078420035493748D9
:100A9000FFF73BFD30480078420031493448FFF70A
:100AA00034FD2C480078334908702B4800783249CF
:100AB00008703EE0274801780078401C254A1070F5
:100AC000284820F811402848006838B300F06CFB33
:100AD000044646F2A810844207DC40F6B83084424F
:100AE0001DDD1D480078C82819DD1A48007842002D
:100AF0001C491E48FFF709FD1748007842001849B5
:100B00001B48FFF702FD134800781A490870124885
:100B10000078194908700CE010E00EE008E00E487B
:100B200001780078401C0C4A10700D4820F81140E4
:100B30009BE700BF00200949087000E000BF00BF2C
:100B4000402000F021F8402000F018F8BDE8F081C6
:100B50000C000020150000201400002040000020A0
:100B6000A4010020A2030020180122424E10002000
:100B7000500E002042000020410000200149086082
:100B800070470000140401400149086070470000EC
:100B900014040140014600200022074B1B6803EAB1
:100BA0000102054B14331B680B4013B10AB101203D
:100BB00000E00020704700000004014000212349AC
:100BC0008279002A3AD00A46126803689A430B4693
:100BD0001A600A1D126803689A430B1D1A60027995
:100BE00011440A6803681A430A60184A08321268F6
:100BF00003689A43154B08331A601A1D126803687C
:100C00009A43124B0C331A604279102A0ED11A1FE4
:100C1000126803681A430D4B08331A601A1D1268D4
:100C200003681A43094B0C331A600DE007494279F7
:100C300011440A6803681A430A6005E00279114406
:100C40000A6803689A430A60704700000004014084
:100C500030B5044604254FF4302000F06FF8054607
:100C6000042D17D10C48006940F002000A490861C0
:100C700008464461006940F0400008614FF43020AC
:100C800000F05CF805460448006941F6FD71084033
:100C900001490861284630BD0020024004200B496C
:100CA000C96801F0010109B101200EE00749C968D6
:100CB00001F0040109B1022007E00449C96801F00C
:100CC000100109B1032000E0042070470020024019
:100CD0000348006940F08000014908617047000046
:100CE0000020024070B504460D460426F00200F0D4
:100CF00025F80646042E11D10948006940F001008C
:100D0000074908612580F00200F018F806460448FB
:100D1000006941F6FE71084001490861304670BD26
:100D20000020024002480349486003484860704779
:100D30002301674500200240AB89EFCD00B5024694
:100D40000423FFF7ABFF034603E0FFF7A7FF0346CB
:100D5000521E012B01D1002AF7D102B905231846F2
:100D600000BD000018B5002844D0C0F34211C0F304
:100D70000322214B9B6903F001032BB91E4B9B6996
:100D800043F001031C4CA36100F48053A3B11B4B3F
:100D9000DB69009300F01F0301FA03F3009C9C43FE
:100DA000009400F01F0302FA03F3009C2343009316
:100DB000124C009BE3611DE0104B5B68009300F058
:100DC0001F0301FA03F3009C9C43009400F01F03EF
:100DD00002FA03F3009C2343009307210022009BA7
:100DE00023EA01630093009B43EA02630093034CF0
:100DF000009B636018BD000000100240000001402D
:100E000030B500228B071C0F0F2303FA04F20B4BA3
:100E10008C1053F824309343084C8D1044F825303F
:100E200023468C1053F824308C07240F00FA04F466
:100E30002343024C8D1044F8253030BD080001409A
:100E400001461D48814204D11C488069C0F38000DE
:100E500070471B48814204D118488069C0F3C00024
:100E6000F6E71848814204D114488069C0F30010A5
:100E7000EEE71548814204D110488069C0F3401064
:100E8000E6E71248814204D10C488069C0F3801023
:100E9000DEE70F48814204D108488069C0F3C010E2
:100EA000D6E70C48814204D104488069C0F3002091
:100EB000CEE70020CCE7000000080140001002400F
:100EC000000C0140001001400014014000180140D6
:100ED000001C0140002001402DE9F04102460025A0
:100EE0000026002000230024002791F803C00CF006
:100EF0000F0591F803C00CF0100CBCF1000F03D0EB
:100F000091F802C04CEA050591F800C0BCF1000F51
:100F100031D0146800202BE04FF0010C0CFA00F3E4
:100F2000B1F800C00CEA03069E4220D183004FF0C6
:100F30000F0C0CFA03F7BC4305FA03FC4CEA04045B
:100F400091F803C0BCF1280F06D14FF0010C0CFA48
:100F500000FCC2F814C00AE091F803C0BCF1480FCD
:100F600005D14FF0010C0CFA00FCC2F810C0401C77
:100F70000828D1D31460B1F800C0BCF1FF0F34DDF4
:100F8000546800202EE000F1080C4FF0010808FA28
:100F90000CF3B1F800C00CEA03069E4221D1830095
:100FA0004FF00F0C0CFA03F7BC4305FA03FC4CEAB4
:100FB000040491F803C0BCF1280F05D100F1080C1E
:100FC00008FA0CF8C2F8148091F803C0BCF1480F7D
:100FD00007D100F1080C4FF0010808FA0CF8C2F82C
:100FE0001080401C0828CED35460BDE8F0812DE964
:100FF000F04105460C46174698460F2C02D90020B2
:10100000BDE8F0812846FFF71BFF18B901212846EB
:1010100000F02AF8B8F1000F10D1022F05D1E868CE
:101020000121A1408843E86008E0032F06D127F0A2
:101030000107E8680121A1400843E860082C01D2BB
:101040002E4601E0083C2E1D3068A2000F21914081
:101050008843306048EA8700A1008840316808432F
:1010600030600120CCE70000002945D0454A90427D
:1010700006D1454A926942F00402434B9A6180E0EE
:10108000424A904206D1404A926942F008023E4BE1
:101090009A6176E03E4A904206D13B4A926942F01C
:1010A0001002394B9A616CE03A4A904206D1364AB6
:1010B000926942F02002344B9A6162E0364A9042D3
:1010C00006D1314A926942F040022F4B9A6158E0B2
:1010D000324A904206D12C4A926942F080022A4B51
:1010E0009A614EE02E4A90424BD1274A926942F4CF
:1010F0008072254B9A6144E0224A904206D1224AEE
:10110000926922F00402204B9A613AE01F4A904211
:1011100006D11D4A926922F008021B4B9A6130E009
:101120001B4A904206D1184A926922F01002164BCF
:101130009A6126E0174A904206D1134A926922F03A
:101140002002114B9A611CE0134A904206D10E4ACC
:10115000926922F040020C4B9A6112E00F4A9042D1
:1011600006D1094A926922F08002074B9A6108E091
:101170000B4A904205D1044A926922F48072024BD4
:101180009A6170470008014000100240000C0140C5
:10119000001001400014014000180140001C0140F3
:1011A000002001400161704770B5002447F23055BE
:1011B0000AE0601C84B2022002F092F947F230503B
:1011C000844201DB204670BD024800680028F0D14F
:1011D0002046F8E71801224200BFFEE72DE9F0475C
:1011E00006468A4615461F4640F6B83900202D4966
:1011F000086000244FE035F8140040F6B83188420A
:101200000DDA35F81400092190FBF1F035F81410CF
:1012100008440A2190FBF1F01FFA80F80DE035F840
:101220001400092190FBF1F035F8141008440A214C
:1012300090FBF1F014301FFA80F80CE001201949FE
:101240000860082002F04CF900201749C1F89C0101
:10125000102002F045F9B8F10000A8F101011FFAD1
:1012600081F8EBD10F49086036F81400142190FB87
:10127000F1F036F8141008441FFA80F802E002205A
:1012800002F02EF9B8F10000A8F101011FFA81F86F
:10129000F5D1601CC4B2BC42ADDB0020014908603E
:1012A000BDE8F0879C0122420000224210B50446AE
:1012B0000F4901EB440001220E4900F02FFA0E49BC
:1012C00001EB440001220D4900F028FA0C4901EB22
:1012D000042008490A780B4900F020FA0A4901EB7A
:1012E000042006490A78094900F018FA10BD0000E8
:1012F00000F303084100002000F103084200002031
:1013000000D00308500E002000E003084E1000201B
:101310002DE9F04107460D461646012F04D0022F55
:101320001FD0032F6BD13DE0002417E01EB1012038
:101330003549086002E0002033490860281B02F0AC
:10134000CFF81EB100203049086002E001202E498C
:101350000860204602F0C4F8601C84B2AC42E5DBB1
:101360004EE000241BE026B1012027490C31086023
:1013700003E0002024490C310860281B02F0B0F87B
:1013800026B1002020490C31086003E001201E49ED
:101390000C310860204602F0A3F8601C84B2AC4215
:1013A000E1DB2DE0002427E03EB101201649183191
:1013B00008601649C1F8840106E00020124918317E
:1013C00008601249C1F88401281B02F089F83EB177
:1013D00000200D49183108600C49C1F8840106E06D
:1013E00001200949183108600849C1F884012046E4
:1013F00002F076F8601C84B2AC42D5DB00E000BF9E
:1014000000BFBDE8F08100009C0123420080224221
:101410002DE9F0410746884615461E46012F04D0A7
:10142000022F1FD0032F6BD13DE0012417E01DB127
:1014300000203549086002E0012033490860404639
:1014400002F008FC1DB101202F49086002E00020D5
:101450002D490860404602F0FDFB601C84B2B44296
:10146000E5DB4EE001241BE025B1002026490C31CC
:10147000086003E0012024490C310860404602F076
:10148000E9FB25B1012020490C31086003E0002070
:101490001D490C310860404602F0DCFB601C84B240
:1014A000B442E1DB2DE0012427E03DB100201649E4
:1014B000183108601549C1F8840106E0012012497D
:1014C000183108601149C1F88401404602F0C2FB9E
:1014D0003DB101200C49183108600C49C1F8840164
:1014E00006E000200849183108600849C1F8840165
:1014F000404602F0AFFB601C84B2B442D5DB00E092
:1015000000BF00BFBDE8F0819C0123420080224261
:1015100070B5002447F230550AE0601C84B2022006
:1015200001F0DEFF47F23050844201DB204670BDFF
:10153000024800680028F0D02046F8E7180122424F
:101540000124812505490D7000BF14B102F08CF80B
:101550000024322002F07EFBF7E700000C000020A0
:1015600000BFFEE710B50021024802F059FC024915
:10157000086010BD3C5900081000002070470000B2
:1015800070B5002100230F22C47804B3154C2468E1
:1015900004F4E064C4F5E064210AC1F10403CA4024
:1015A000447804FA03F184781440214309010E4C75
:1015B0000678A155047804F01F050124AC40057895
:1015C0006D11AD0005F1E025C5F8004109E0047892
:1015D00004F01F050124AC40044D0678761145F84F
:1015E000264070BD0CED00E000E400E080E100E08A
:1015F00002490143024A1160704700000000FA05E9
:101600000CED00E029B1064A92690243044B9A614D
:1016100004E0034A92698243014B9A6170470000DB
:10162000001002401FB501211520FFF7EBFF062136
:101630000220FFF7E5FB4020ADF80C0004208DF8F8
:101640000F0003208DF80E0003A92648FFF744FC85
:1016500040212448FFF7A6FD8020ADF80C001020A3
:101660008DF80F0003208DF80E0003A91E48FFF728
:1016700033FC8020ADF80C0010208DF80F00032003
:101680008DF80E0003A91748FFF726FC0020174924
:1016900008604020FFF778FA4020009000208DF885
:1016A000040010208DF8050001208DF80600684622
:1016B000FFF784FA0220FFF79BFF17208DF8080040
:1016C00000208DF8090003208DF80A0001208DF814
:1016D0000B0002A8FFF754FF01200549C1F81801CB
:1016E0001FBD000000100140000801409C01214284
:1016F0000000224230B503460C461546002207E0A2
:10170000184600F008F824F812009B1C501C82B206
:10171000AA42F5DB30BD0146088870472DE9F05F2D
:1017200080468A4617463548804502D3344880456E
:1017300001D3BDE8F09FFFF7F5FA3048A8EB000BA6
:101740004FEADB25CBF34909C9F58064A74200DCE9
:101750003C464CE0294901EBC5204FF48062294901
:10176000FFF7C8FF00260BE009EB0600254931F81A
:1017700010004FF6FF71884200D003E0701C86B263
:10178000A642F1DB00BFA6421ADA1C4901EBC520D4
:10179000FFF75EFA002608E03AF8160006EB0901AA
:1017A000184A22F81100701C86B2A642F4DB1349D5
:1017B00001EBC5204FF48062124900F025F804E0E7
:1017C00022465146404600F01FF8A74200D10FE0E4
:1017D0006D1C4FF000090AEB440AA044381B87B285
:1017E000B7F5806F02DD4FF4806400E03C46B1E75E
:1017F00000BFFFF76DFA00BF9BE700000000030881
:1018000000000708A00500202DE9F04105460E461E
:101810001746002407E036F814102846FFF762FA4E
:10182000AD1C601C84B2BC42F5DBBDE8F08110B594
:1018300000F002F810BD00000CB5002001900090EF
:101840003348006840F480303149086000BF3048B8
:10185000006800F4003000900198401C019000984E
:1018600018B90198B0F5A06FF1D12948006800F4CB
:10187000003010B10120009001E00020009000989D
:10188000012843D12348006840F010002149086036
:101890000846006820F0030008600846006840F031
:1018A000020008601A4840681949486008464068C4
:1018B00048600846406840F48060486008464068D8
:1018C00020F47C1048600846406840F4E810486006
:1018D0000846006840F08070086000BF0C4800684F
:1018E00000F000700028F9D00948406820F003009B
:1018F000074948600846406840F00200486000BF61
:101900000348406800F00C000828F9D10CBD000025
:10191000001002400020024010B51348006840F05B
:1019200001001149086008464068104908400E4906
:101930004860084600680E4908400B4908600846A0
:10194000006820F4802008600846406820F4FE000B
:1019500048604FF41F008860FFF769FF4FF0006098
:101960000449086010BD0000001002400000FFF8AC
:10197000FFFFF6FE08ED00E030B502460B46002002
:1019800010E012F8014B6040002109E000F0010472
:101990001CB18C2484EA600000E040104C1CE1B2D1
:1019A0000829F3DB1C1EA3F10105EBB2E9D130BD20
:1019B00010B504464FF47A7002F04CF910BD0000E7
:1019C00010B5024800F00FFF10BD0000245B0008B6
:1019D00010B50F4881680F4888470D4801690220FB
:1019E00088470B48826A4FF4E1310120904708484C
:1019F000826A0121152090470548826A012116203C
:101A00009047034842691A2103A0904710BD000087
:101A10005C5B00080B3C000869276D2075736172E0
:101A2000743120666F72206465627567206C6F6721
:101A30000D0A000070B504460D46034A29462046AB
:101A400000F004FA70BD0000DC5A000808B5024836
:101A500000F00CFE009008BDDC5A000808B50248F2
:101A600000F007FE009008BDDC5A000810B50248DF
:101A700000F047FE10BD0000DC5A000808B502481F
:101A800000F043FE009008BDDC5A000810B5024883
:101A900000F0A5FE10BD0000DC5A000810B5024899
:101AA00000F0A1FE10BD0000DC5A000810B504468D
:101AB0000249204600F0D2FF10BD0000DC5A0008A9
:101AC00010B504460249204601F086F810BD00001A
:101AD000DC5A000870B504460D46034A29462046E4
:101AE00001F08EF970BD0000DC5A000870B50446A4
:101AF0000D46034A2946204601F0D3F970BD000087
:101B0000DC5A000810B504460249204601F00DFADF
:101B100010BD0000DC5A000870B504460D4616469C
:101B2000034B32462946204601F04DFA70BD0000B5
:101B3000DC5A000810B5024801F07AFA10BD000026
:101B4000DC5A000808B517488168174888471548C7
:101B50000169022088471348826A4FF4E13101206D
:101B600090471048826A0121152090470D48826AEB
:101B700001211620904701211020FFF743FD4FF46B
:101B80008050ADF8000003208DF8020014208DF87D
:101B9000030069460548FFF79FF9012004490860E2
:101BA00008BD0000945B00080D3C000800100140D7
:101BB000B001224270B504460D46034A294620462C
:101BC00000F044F970BD0000245B000808B502482D
:101BD00000F04CFD009008BD245B000808B50248E9
:101BE00000F047FD009008BD245B000810B50248D6
:101BF00000F087FD10BD0000245B000808B5024816
:101C000000F083FD009008BD245B000810B5024879
:101C100000F0E5FD10BD0000245B000810B504468F
:101C20000249204600F01AFF10BD0000245B0008A6
:101C300010B504460249204600F0CEFF10BD00005A
:101C4000245B000870B504460D46034A2946204629
:101C500001F0D6F870BD0000245B000870B50446A2
:101C60000D46034A2946204601F01BF970BD0000CD
:101C7000245B000810B504460249204601F055F9DE
:101C800010BD0000245B000870B504460D461646E2
:101C9000034B32462946204601F095F970BD0000FD
:101CA000245B000810B5024801F0C2F910BD000025
:101CB000245B000898B000BF50221F4904A8FEF71B
:101CC00069FC4FF0FF317B2002F09EF801AB07C3A7
:101CD0007B211A48006802F07FF800BF0A2001F05B
:101CE000B9FF17488269502104A89047002420E0DA
:101CF000144850F8241004A8FEF7D6FBB8B10A2007
:101D000001F0A8FF104951F8240080470F4951F80D
:101D10002400FEF7DBFB05460C4951F82400084976
:101D20004A6929469047502104A8FEF78FFC601CA1
:101D3000C4B2042CD2DADBE7885A0008280100205C
:101D40005C5B00087800002018010020C80000201B
:101D50009EB000BF642105A8FEF778FC0025002690
:101D600000BF03F09FFC314908703148007848B14A
:101D70003048007830B100202E4908702E4908788C
:101D800003F020FD2D48007800284BD000202B497F
:101D900008702B480078AA281FD129484078AA2823
:101DA0001BD1FE2411222649C91C01A8FEF7ADFB58
:101DB0009DF811001330C1B22148FFF7DDFD044644
:101DC0009DF8110013301E49085CA04204D19DF813
:101DD0001650B54200D02E4600BF17480078812823
:101DE0001ED1002400BF1748006801F0B5FF04466B
:101DF000002CF8D09DF811000F301149085C60707C
:101E00009DF811001030085CA0704FF0FF322146A1
:101E10000D48006801F094FF642001F01BFF00E012
:101E200000BF00BF0A2001F015FF9AE70300002061
:101E300070000020740000200C00002075000020BD
:101E4000683E002028000020300000202DE9FE4FD1
:101E500007460D461446206BC07A00F0020018B900
:101E60004FF0FF30BDE8FE8F002000908046834693
:101E7000F8B2153806287CD2DFE800F0A3DC032C8A
:101E80004E6CA5B1606B90F8210010B16FF00100AD
:101E9000E8E70120616B81F82100616B81F8200087
:101EA0006068808940F081006168888110E0606B23
:101EB00090F8200060B16068808920F0800061683F
:101EC00088810020616B81F82000616B81F821001E
:101ED0000020C7E76068808920F0C00061688881C1
:101EE000A06A88B1606B90F8210068B16068808A50
:101EF00020F0800061688882A16A0868016821F08A
:101F00000101016000BF00BF0020616B81F820006B
:101F1000616B81F82100A5E76068808920F02000CE
:101F200061688881E06A80B1206B407968B160683F
:101F3000808A20F0400061688882E16A0868016850
:101F400021F00101016000BF00BF0021206B417141
:101F5000002087E76068808920F0E0006168888160
:101F6000A06A98B1606B90F8210078B16068808AAF
:101F700000E0C2E020F0800061688882A16A086801
:101F8000016821F00101016000BF00BFE06A80B17B
:101F9000206B407968B16068808A20F040006168F9
:101FA0008882E16A0868016821F00101016000BFD0
:101FB00000BF0021206B41710020616B81F821007E
:101FC00050E7E06810B94FF0FF304BE7BDB1206B30
:101FD000C068062806D0E2689188032310680222B0
:101FE000FFF705F8206BC07A40F00800216BC8723B
:101FF0006068808940F008006168888118E0606846
:10200000808920F0080061688881206BC07A20F008
:102010000800216BC872206BC068062808D0E068F1
:1020200030B1E2689188002310681A46FEF7DFFF9E
:10203000002017E7206910B94FF0FF3012E7E5B331
:10204000206BC06806280AD0206BC068042806D020
:1020500022699188002310680122FEF7C8FF206BD7
:10206000C07A40F01000216BC8726068808A40F02E
:102070000100616888826068008A40F04000616801
:1020800008826068808940F0100061688881206B58
:10209000407918B1E06A08B1012000E0002028B9B9
:1020A0006068808940F0200061688881606880896C
:1020B00040F00400616888811DE0FFE76068808966
:1020C00020F0040061688881206BC07A20F0100045
:1020D000216BC872206BC06806280CD0206BC068CA
:1020E000042808D0206930B1226991880023106843
:1020F0001A46FEF77CFF0020B4E600BF00BF206B4D
:10210000407918B9606B90F8210010B16FF00100B0
:10211000A8E66068808900F0080038B1606800882F
:1021200000F0400010B96FF001009BE6F8B21528EE
:1021300072D2DFE800F0C90B0E1D20252AC9C9C9DB
:10214000C9C9C9C9C9C9373B697EB8000120029015
:10215000BDE02078C0F3400020B148F4006848F4A6
:10216000807802E06FF006007CE602200290AEE08C
:102170006FF0060076E64BF0080B04200290A6E014
:102180004BF0020B05200290A1E02078C0F3401034
:1021900010B14BF0200B02E06FF0060062E6062063
:1021A000029094E0616B4D8300205BE6206BC06879
:1021B000052824D015B36068808A40F00400616867
:1021C0008882D4F808A0FE48B0FBFAFA012605E0A0
:1021D0000AFB06F0A84200D902E0761CFF2EF7D9D0
:1021E00000BFB6F5807F02D14FF0FF303AE660685D
:1021F000008B20F0FF0030436168088302E04FF05D
:10220000FF302FE600202DE6206BC06806280BD19A
:10221000FF2D02D9C01F25E656E06068008BC0B2D2
:1022200028436168088302E04FF0FF301AE600207F
:1022300018E6206BC068062830D1D4F808A0E04822
:10224000B0FBFAFA012619E00AFB06F0400064210F
:10225000484305EB051101EB4101B0EB410F0CD2F6
:102260000AFB06F040006421484305EB051101EB31
:102270004511B0EB410F00D902E0761C402EE3D3AC
:1022800000BF402E02D14FF0FF30EBE56068008BBD
:1022900020F0FF0030436168088302E04FF0FF3018
:1022A000E0E50020DEE5206BC068062807D14DB1CF
:1022B0006068808A40F010006168888202E04FF018
:1022C000FF30CFE50020CDE56FF00300CAE500BF89
:1022D00007F4E06060B1B0F5807F13D0B0F5E06F37
:1022E0001DD107F4405010B96FF00800BAE519E0AD
:1022F00007F4405028B148F02008009840F480507E
:1023000000900FE007F4405010B16FF00800A9E50D
:1023100048F02008009840F48050009002E06FF0F0
:1023200008009FE500BF07F4405030B1B0F5805F72
:1023300004D0B0F5005F0BD105E00CE0009840F44C
:102340008060009007E0009840F4C060009002E0D8
:102350006FF0090086E500BF07F4404048B1B0F5D2
:10236000804F07D0B0F5004F07D0B0F5404F0AD1ED
:1023700006E00BE048F4005808E048F4405805E057
:1023800048F4805802E06FF00A006BE500BF07F4E4
:10239000403048B1B0F5803F09D0B0F5003F13D0D0
:1023A000B0F5403F2ED11CE04FF000092DE0207821
:1023B000C0F3C01020B14FF480394BF4807B02E0B1
:1023C0006FF00B004EE520E02088C0F3002020B124
:1023D0004FF400394BF4C06B02E06FF00B0041E5A5
:1023E00013E02078C0F3C01040B12088C0F3002073
:1023F00020B14FF440394BF4E06B02E06FF00B007A
:1024000030E502E06FF00B002CE500BF02980228D7
:102410001DD107F4802018B1B0F5802F04D100E061
:1024200005E048F4806802E06FF00C001AE500BF98
:1024300007F4002018B1B0F5002F04D100E005E04A
:1024400048F4007802E06FF00D000BE500BFA068D3
:1024500000EBC00101EB0010A900B0FBF1F064211A
:10246000B0FBF1F1A06800EBC00202EB0010AA0083
:10247000B0FBF2F0A26802EBC20303EB0212AB0066
:10248000B2FBF3F26423B2FBF3F202EBC20303EB01
:102490000212A0EB8200322202EB00106422B0FB99
:1024A000F2FA61F31F1AA06800011FFA8AF1B0FB6B
:1024B000F1F00009019064210198484305EB0511F2
:1024C00001EB4101B0EB410F09D26421019848436F
:1024D00005EB051101EB4511B0EB410F02D86FF090
:1024E0000700BFE46068808920F40050616888813B
:1024F0006168A1F808A00298216BC860206BC0F841
:102500001090206BC068062809D1E06830B1E268FD
:102510009188032310680222FEF769FD17E0206B03
:10252000C07A00F0080048B1E06880B1E2689188A4
:10253000032310680222FEF75AFD08E0E06830B17C
:10254000E2689188002310681A46FEF750FD00BF2C
:10255000206BC068042802D006280BD100E000BF21
:10256000206930B122699188002310681A46FEF76D
:102570003EFD18E0206BC07A00F0100048B12069E1
:1025800080B122699188002310680122FEF72FFD97
:1025900008E0206930B122699188002310681A464A
:1025A000FEF725FD00BF00BF6069D0B1206BC06899
:1025B000022802D006280BD100BF6269918801E091
:1025C00000CA9A3B032310680222FEF710FD07E0C1
:1025D00062699188002310681A46FEF708FD00BF63
:1025E00000BFA069A0B1B9F5803F02D0B9F5403F66
:1025F00007D1A2699188032310680222FEF7F7FC35
:1026000006E0A2699188002310681A46FEF7EFFCE5
:10261000E069A0B1B9F5003F02D0B9F5403F07D15C
:10262000E2699188002310680122FEF7E0FC06E0D1
:10263000E2699188002310680122FEF7D8FC009817
:10264000616888816168A1F810806168A1F814B0A0
:102650006068808940F4005061688881206BC07A8E
:1026600040F00400216BC872002011E401460868A4
:1026700070470CB50146019820F001000190086BED
:10268000006920B1086B0069B0F5803F0ED1C869C0
:1026900060B1CB6998881A689368C34003F001035E
:1026A00023B9019820F00100401C0190019820F00E
:1026B00002000190019820F008000190019820F09C
:1026C000040001900198009A60F3000200920198C2
:1026D0004208009862F34100009001988208009837
:1026E00062F3820000900198C208009862F3C30070
:1026F000009001980209009862F31F100090009862
:102700000CBD0146486B006970470CB50146486B2B
:1027100090F8210028B1019820F00100401C0190A0
:1027200008E048680088012222EA9012019862F3CA
:1027300000000190086B4279019862F3410001901A
:10274000086B8279019862F382000190086BC2796C
:10275000019862F3C3000190086B027A019862F35A
:1027600004100190086B427A019862F345100190C1
:10277000086B827A019862F3861001900198009AA2
:1027800060F30002009201984208009862F3410051
:10279000009001988208009862F3820000900198EE
:1027A000C208009862F3C3000090019802090098E3
:1027B00062F30410009001984209009862F34510FA
:1027C000009001988209009862F3861000900198A9
:1027D000C209009862F3DF10009000980CBD01461A
:1027E000486B406970472DE9F041044660680688EF
:1027F00000270025A84606F0200061688989084066
:10280000002860D0206B407938B960688088012149
:10281000206BC17145F0200555E0206BC06802288F
:1028200006D1606BC069012802D16068808802E02F
:102830006068B0F80480606B8268501C636B9860BD
:1028400082F800806068878907F4806050B907F4D7
:10285000805038B14FEA2821606B8268501C636B4E
:1028600098601170606B0069401C616B0861606B5F
:102870000069616B0968884225D16068808920F011
:102880001000616888810021206B4171206BC06855
:10289000022816D1606BC7690020616BC861012FE7
:1028A00004D0022F05D0032F09D105E045F0010522
:1028B00006E045F0020503E045F0040500E000BF36
:1028C00001E045F0020506F01000616889890840C2
:1028D00030B1606880880021206B417145F040056F
:1028E00006F08000616889890840002863D0606B29
:1028F00090F8200030B16068808940F00100616884
:10290000888158E0606B4068616B4969884222D0D9
:10291000206BC068022807D1606BC069022803D110
:10292000606BB0F81A8016E0606BC168481C626B7F
:10293000D06091F800806068878907F4806050B9A2
:1029400007F4805038B1606BC168481C626BD0607E
:10295000087848EA0028606B4069401C616B486158
:102960006068A0F80480606B4068616B49698842C8
:1029700021D16068808920F080006168888160686A
:10298000808940F04000616888810020616B81F897
:102990002100206BC06802280BD1606BC069012840
:1029A00009D1206BC07A00F0100020B945F0010574
:1029B00001E045F0010506F04000616889890840A2
:1029C00038B16068808920F040006168888145F0F6
:1029D000080506F0080030B1606880880121206B8E
:1029E000C17145F0200506F0020030B160688088B2
:1029F0000121206B417245F4807506F0010030B171
:102A0000606880880121206B817245F4007506F4AE
:102A1000807050B16068008820F480706168088020
:102A20000121206B017245F0800506F4007038B179
:102A30006068008820F400706168088045F4806553
:102A400025B1206B006808B1012000E0002018B11A
:102A5000206B016828468847BDE8F08170B50546BF
:102A60000C46206BC07A00F0010008B1002070BD58
:102A7000206B05600020216B08710021206B4171E3
:102A8000206B8171206BC171206B0172206B4172D0
:102A9000206B81720020216BC860616B81F821007E
:102AA0002421606BFDF7D2FD608CFEF75BF9E068D6
:102AB00020B1E16808680121FEF7D6FA206920B14B
:102AC000216908680121FEF7CFFA606920B16169C8
:102AD00008680121FEF7C8FAA06920B1A169086859
:102AE0000121FEF7C1FAE06920B1E169086801211E
:102AF000FEF7BAFA0120216BC8720020B7E7000088
:102B00002F49884205D12F49C96841F480412D4A97
:102B1000D1602D49884205D12A49096941F4003123
:102B2000284A11612949884205D12649096941F499
:102B30008021244A11612649884205D12149096929
:102B400041F400211F4A11612249884205D11D49E3
:102B5000096941F480111B4A116100BF00BF00BF29
:102B600000BF1749884205D11649C96821F4804140
:102B7000144AD1601449884205D11249096921F4E7
:102B80000031104A11611149884205D10D49096986
:102B900021F480210B4A11610D49884205D1094970
:102BA000096921F40021074A11610A49884205D1C7
:102BB0000449096921F48011024A1161704700003B
:102BC000003801400010024000440040004800402E
:102BD000004C00400050004070B505460C4625B141
:102BE000012D71D0022D6ED171E06068FFF788FF72
:102BF00094F92400002817DB00F01F020121914006
:102C0000774A430942F8231000BF00BF00BFBFF35B
:102C10004F8F00BF00BF00BF00BF00BF00BFBFF3AA
:102C20006F8F00BF00BF00BF00BF6E496068884261
:102C300005D16D48806920F480406B4988616B49FB
:102C40006068884205D16848C06920F40030664950
:102C5000C86167496068884205D16348C06920F44B
:102C600080206149C86163496068884205D15E4837
:102C7000C06920F400205C49C8615F4960688842EF
:102C800005D15948C06920F480105749C861002017
:102C9000216B08710021206B4171206B8171206BC9
:102CA000C171206B0172206B4172206B8172002018
:102CB000616B81F82100206BC07A20F00200216B4B
:102CC000C8728AE000E085E06FF0030070BD206B01
:102CD000C07A00F0010010B94FF0FF30F6E7206B2A
:102CE000C07A00F0020008B10020EFE70020216B5D
:102CF00008710021206B4171206B8171206BC171C3
:102D0000206B0172206B4172206B81720020616B1D
:102D100081F82100616B4883616BC861616B81F848
:102D20002000216BC860216B08610320216BC872F1
:102D30002C496068884205D12B48806940F4804066
:102D40002949886129496068884205D12648C069B7
:102D500040F400302449C86125496068884205D1A3
:102D60002148C06940F480201F49C861214960683A
:102D7000884205D11C48C06940F400201A49C86146
:102D80001D496068884205D11748C06940F4801029
:102D90001549C86194F92400002807DB00F01F02E0
:102DA00001219140154A430942F8231000BF94F9CC
:102DB0002400002809DB00F01F0201219140420994
:102DC000920002F1E022C2F8001100BF6068FFF734
:102DD00097FE02E06FF0030078E700BF002075E780
:102DE00080E100E000380140001002400044004053
:102DF00000480040004C00400050004080E200E0ED
:102E00002DE9F04105460E46144605B11EB96FF096
:102E10000400BDE8F081206BC07A00F0040010B916
:102E20004FF0FF30F5E7206B4079012801D1C01E3B
:102E3000EFE76068808920F0200061688881606B1E
:102E400006600021206B0172206B4172206BC17102
:102E5000206B8172606B85600020616B08610121CD
:102E6000206B41716068808940F030006168888122
:102E7000206BC068022812D1606BC06978B902204B
:102E8000616BC861616B01F11A002246314600F0A6
:102E900008F80746B81C10B96FF00100B9E7002028
:102EA000B7E72DE9F04105460E46144605B11EB9B7
:102EB0006FF00400BDE8F081206BC07A00F00400E0
:102EC00010B94FF0FF30F5E7606B90F8210010B1BA
:102ED0006FF00100EEE70120616B81F82100606B6B
:102EE000C560606B46600020616B4861206BC06804
:102EF000022812D1606BC06978B90120616BC8618A
:102F0000616B01F1180022463146FFF779FF074651
:102F1000B81C10B96FF00100CCE76068808940F000
:102F20008000616888810020C4E770B5044634B130
:102F3000012C22D0022C3FD0032C3CD13DE0086B69
:102F4000006920B1086B0069B0F5003F11D18869B4
:102F500090B18D69AA88012328681BB1012595408D
:102F6000056104E002F110050126AE40066100BFD4
:102F700002E04FF0FF3070BD22E0086B006920B125
:102F8000086B0069B0F5003F11D1886990B18D6977
:102F9000AA88002328681BB101259540056104E03B
:102FA00002F110050126AE40066100BF02E04FF0BD
:102FB000FF30E0E704E000BF00BF4FF0FF30DAE78A
:102FC00000BF0020D7E72DE9F04180460E461746A6
:102FD0001C46B8F1000F01D006B11FB96FF0040014
:102FE000BDE8F081206BC07A00F0040010B94FF00A
:102FF000FF30F5E7206BC068022814D10320616B15
:10300000C861224639463046FFF7FAFE05460DB143
:103010002846E5E7224639464046FFF742FF054687
:1030200025B12846DCE74FF0FF30D9E70020D7E78D
:1030300010B50446E06830B1E2689188002310685A
:103040001A46FDF7D4FF206930B122699188002328
:1030500010681A46FDF7CBFF606930B1626991884C
:10306000002310681A46FDF7C2FFA06930B1A269BB
:103070009188002310681A46FDF7B9FFE06930B166
:10308000E2699188002310681A46FDF7B0FF208C92
:10309000FDF768FE0020216BC87210BD10B5FEF769
:1030A00051FD10BD10B5FEF793FC10BD08B50248E8
:1030B0000068009008BD0000D85A000870B541486B
:1030C000006800F0020070B13F488078012807D105
:1030D0003E48006820B13D48012102680220904727
:1030E0000120384908603748006800F4007078B162
:1030F0003548C078012807D13448006820B13348EA
:1031000001210268032090474FF480702D49086028
:103110002C48006800F4003078B12B480079012871
:1031200007D12A48006820B12848012102680420FC
:1031300090474FF4803023490860224810300468DB
:10314000001F056804F0040088B905F4806070B9B8
:103150001C480C30006840F480601A490C3108604B
:103160001B48006818B11A4801680320884704F01A
:10317000020088B905F4007070B912480C3000687C
:1031800040F400700F490C3108601148006818B114
:103190000F4801680120884704F0010088B905F450
:1031A000807070B9C4F307405F280AD1B0EB146F88
:1031B00007D904480C30006840F4807001490C3194
:1031C000086070BD08640040420100204C010020EE
:1031D0004801002070B53648007802281ED13548D5
:1031E000006800F0100058B11020324908603248E1
:1031F0000068B0B13048062102680020904710E016
:103200002C48006800F0030058B12B48006840B11A
:103210002948022102680020904702E02020254929
:10322000086024480C300468001F056804F004009E
:1032300088B905F4806070B91E480830006840F411
:1032400080601C49083108601C48006818B11B48A0
:1032500001680320884704F0020088B905F4007073
:1032600070B914480830006840F400701149083102
:1032700008601248006818B11048016801208847AA
:1032800004F0010090B905F4807078B9C4F30740E8
:103290005F280BD25F20B0EB146F07D105480830D0
:1032A000006840F4807003490831086070BD000078
:1032B000420100200C6400404C0100204801002025
:1032C00000BFFEE79CB0642103A8FDF7BFF9C8204A
:1032D00000F0C0FC0020254908600A2000F0BAFC7C
:1032E00001202349C1F8B0013FE0642103A8FDF7A4
:1032F000ADF920488269402103A890474FF0FF3183
:10330000022000F081FD8DE80700642203A91A481D
:10331000FDF7FBF818480078AA281CD11648407819
:10332000AA2818D11448807C03280DD11248C07CEB
:1033300018B90020114908700DE00F48C07C012821
:1033400009D10E49087006E00B48807C052802D19F
:1033500001200B4908700948007818B10520094977
:10336000087002E0042007490870BEE7B00122425D
:1033700000002242945B0008683E0020700000209C
:10338000750000200300002010B5002A06DA22F0A4
:103390000042D21D22F00703102203E0D21C22F0CB
:1033A00003030C2213B19C188C4201D9012010BDDB
:1033B000024401448360C0E90021C91AD018884240
:1033C00002D810600246F9E70020106010BD00002E
:1033D00005490978002905D000684FF6FF71DFF82C
:1033E0000CC000DF7047000065010020F9460008AE
:1033F00004490978002903D00068DFF80CC000DF19
:1034000070470000650100202146000870B50446A1
:10341000002509E0074901EBC401485D032264214E
:1034200002F044F8681CC5B20348005DA842F1DC14
:1034300070BD0000AC5800089D580008074800689F
:1034400040F0807005490860002005494860084642
:10345000006840F00100086070470000FCED00E0EB
:10346000001000E008480068C0010BD5074800685C
:10347000C00707D0054880380068002802DA0449F0
:103480000120087070470000FCED00E0800E00E0B5
:10349000880100204FF06042D36F002BFCD0036BFB
:1034A000D367D36F002BFCD0C07840EA0120A2F88C
:1034B0007C0070474FF06041CA6F002AFCD081F851
:1034C0007C00704710B5FFF7EDFD0021024800F0C9
:1034D000A7FC0249086010BD785A000828010020A6
:1034E00030B5084C63680021074C2468074DB4FBD5
:1034F000F5F404FB00F202E0024C6468E11A914228
:10350000FAD330BD001000E05001002040420F000F
:1035100010B505210248006800F06AFC10BD0000EB
:103520002000002010B504210248006800F060FC73
:1035300010BD00002000002010B5052102480068E1
:1035400000F056FC10BD00004800002010B504211A
:103550000248006800F04CFC10BD0000480000204C
:103560000EB5802200B109B110460AE001780129A8
:10357000FAD101A900F046F8042801D0002000E0AB
:103580001020DDE9011203B000BD70B50D46040046
:1035900003D012B92078012801D0802070BD2046C8
:1035A00000F0ECFE28B12946204600F056F8002035
:1035B00070BD812070BD70B50C4601F0EFFA4FF080
:1035C000004108B1220C01D0084670BD058BC178BE
:1035D000A0B200F003F8284670BD00000A4601467C
:1035E000074810B500EB820050F8040C002805D005
:1035F00001F00CF9BDE8104001F0F8B810BD000072
:10360000D49D002010B504468089002824D060890C
:1036100004EB800000690860606840B160780228AF
:1036200005D10021204601F0F1F801F0DFF804F1A6
:103630000C0000BFD0E85F1F491E8AB2C0E8512FBE
:103640000029F7D16089401C80B26081E1898842FD
:1036500001D100206081042010BD10B501F0D6F822
:10366000BDE8104001F0C2B810B5FDF7DBFF002146
:10367000194800F0D5FB194908600021184800F0EE
:10368000CFFB184908601848007820BB174800F0A5
:103690007DFB174908600021164800F02FFB1649F2
:1036A00008600021154800F029FB15490860002139
:1036B000144800F023FB14490860144800F066FB2E
:1036C000134908600021134800F018FB12490860F4
:1036D00001200549087010BD4C5900082000002049
:1036E0005C59000824000020470000206C590008A5
:1036F00028000020785900082C000020805900087C
:10370000300000208859000834000020905900083B
:10371000380000209C5900083C000020002042494D
:103720008870012241494248FDF7E4FF3F48007894
:103730000B2806D03D4800780A2802D00A203B49D1
:1037400008704FF4FA7000F085FA00BF6420364923
:10375000C87008468078002862D008468078012822
:1037600005D101F0E1FE00202F49887058E0682063
:103770002D49C8704FF4967000F06CFA4FF4FF7149
:103780002C48FCF741FF4FF4FF712B48FCF73CFF3E
:1037900025498978294A02EB410001222849FDF791
:1037A000A9FF21498978224AF03202EB4100012227
:1037B0002449FDF79FFF1C498978234A02EB012029
:1037C0001F490A781B49FDF795FF174989781F4A59
:1037D00002EB01201B490A781749FDF78BFF1548BA
:1037E0000088144949880844134909880844124943
:1037F000498808444FF6E851884203DD00200A4911
:103800008870A3E70F4803780B4A0D4801780948F0
:10381000FDF7E4FC142000F01DFA00200249887036
:10382000322000F017FA91E7180000201C00002059
:1038300010F00308500E00204E10002000F3030883
:10384000410000204200002000D0030800E00308EF
:103850000EB500270025264826490968016000BFEB
:1038600064212548006800F05FFA8DE807000098A1
:10387000102812D1019D687820490978884202D128
:10388000A8781C49887000BF29461D48006800F0D0
:1038900093FA0446002CF7D1002500260EB11548F6
:1038A00086701348807813498978884205D110487A
:1038B000C0781049C978884216D00E4880780C49E3
:1038C00088700C48C078C87001200E49087078785C
:1038D0000D4908700648807848700548C07888709F
:1038E0004FF4FA7000F0B6F90A2000F0B3F9B7E728
:1038F0004300002018000020300000201C000020A1
:103900002800002074000020363E002008B5012168
:103910000420FDF777FE0820ADF8000001208DF8A7
:10392000020048208DF8030069460248FDF7D4FAEA
:1039300008BD00000008014010B5FFF7E7FF0021B7
:10394000024800F06DFA0249086010BDA85900084D
:103950004800002029E000241448006850B904E021
:10396000142000F077F9601C84B21048006808B990
:10397000962CF5DB012C0FDD142C0DDA01200C49FF
:1039800008700A4988310860642000F063F900205B
:103990000849C1F8940104E0912C02DD0620064993
:1039A0000870322000F056F900BFD4E70C01214224
:1039B00074000020000021420300002010B57F4861
:1039C00000787F490978884234D07C48007820B15B
:1039D00001280DD0022822D116E001207949086083
:1039E0007949C1F89C0100207649091F086020E050
:1039F00001207449086000207349C1F89C0101202E
:103A00007049091F086014E000206E490860012019
:103A10006D49C1F89C016B49091F086009E001204C
:103A2000684908606849C1F89C016649091F086037
:103A300000BF00BF6548007865490978884203D116
:103A400062480078062853D160480078032806D0E1
:103A500004280FD005281CD006283ED128E00120DC
:103A60005C4908605C49C1F8980100205949083157
:103A700008603CE001205749086000205649C1F821
:103A8000980101205349083108604F49C1F88C0161
:103A90002DE000204F49086001204F49C1F89801EE
:103AA0004C490831086000204749C1F88C011EE0EC
:103AB00048480068C0434849C1F894014248D0F8DA
:103AC0008C01C0433F491839086001204149091D54
:103AD00008604149C1F89C0109E001203D490860A6
:103AE0003D49C1F898013B490831086000BF00BF5B
:103AF0003A4800783A490978884203D13748007833
:103B00000A284AD135480078072806D0082810D05E
:103B100009281BD00A2834D124E001202949183172
:103B200008602949C1F8B401002026491431086011
:103B300032E0012023491831086000202249C1F8F1
:103B4000B40101201F491431086025E000201D49FF
:103B50001831086001201C49C1F8B4011949143119
:103B6000086019E0174818300068C0431649C1F8CA
:103B7000BC0101201349103108601349C1F8B80194
:103B80000AE001200F49183108600F49C1F8B4015B
:103B90000C491431086000BF00BF0848007808498C
:103BA00008700A4800780A4908700C4800780C49E7
:103BB0000870C82000F04EF810BD00000100002081
:103BC00000000020A4012342000023420300002043
:103BD0000200002094012142000021420500002043
:103BE0000400002010B5044600F040F8FCF786FD04
:103BF000012001F027FDFDF7B5FC01F085FBFFF783
:103C00009BFE00F045F8002010BD704770B50446DB
:103C10000D25462604EA050048B101210B4800683D
:103C200000F0E6F801210A48006800F0E1F804EA33
:103C3000060048B102210548006800F0D9F80221C9
:103C40000348006800F0D4F870BD00006C0000204C
:103C500068000020EFF3058109B182207047DFF88A
:103C600008C000DF70470000B14E0008EFF3058088
:103C700008B182207047EFF31480C00703D0DFF84B
:103C80000CC000DF704701F01DB90000C54E0008F0
:103C900088B0EFF3058010B1822008B07047EFF3D1
:103CA000148010F00301134806D001291BD002290B
:103CB00011D0032919D113E008A981F309880078EC
:103CC000C0070BD05FF0020080F31488BFF34F8F62
:103CD000BFF36F8F09E00078C00706D10320F3E738
:103CE0000078C00701D0FF20D7E7DFF80CC000DF65
:103CF000D3E70000E45B0008354F0008EFF30582CE
:103D00000AB100207047EFF31482D20702D1044AAF
:103D100052781AB1DFF80CC000DF704701F02EB9FD
:103D2000640100207D4F0008EFF305820AB1FFF720
:103D300017BCDFF808C000DF70470000A14F000883
:103D4000EFF305830BB1FFF720BCDFF808C000DFFD
:103D500070470000DB4F000870B50546EFF30580A3
:103D600070B9EFF31480C0070AD02846DFF818C0F6
:103D700000DF04460146284600F054F9204670BD95
:103D8000284601F061FAF4E749520008EFF3058193
:103D900009B100207047EFF31481C90702D104492B
:103DA000497819B1DFF80CC000DF704701F030B975
:103DB0006401002011500008EFF305823AB9EFF3D7
:103DC0001482D20703D0DFF80CC000DF704701F087
:103DD00040BA000053520008EFF3058212B14FF0D1
:103DE00000407047DFF804C000DF7047395000081A
:103DF000EFF305820AB1FFF7DEBBDFF808C000DF92
:103E0000704700005D500008EFF305830BB182207E
:103E10007047DFF808C000DF7047000081500008DD
:103E2000EFF305820AB100207047EFF31482D20746
:103E300002D1044A52781AB1DFF80CC000DF704793
:103E400001F048B964010020D5500008DFF80CC02B
:103E500000DFDFF80CC000DFFEE700004151000882
:103E60005D510008EFF3058109B182207047DFF84A
:103E700008C000DF704700005D510008DFF804C093
:103E800000DF704795510008EFF305830BB1002068
:103E90007047EFF31483DB0702D1044B5B781BB14F
:103EA000DFF80CC000DF704701F080B9640100202A
:103EB000AD510008EFF305820AB182207047DFF8A8
:103EC00008C000DF70470000E5510008094C4FF0C2
:103ED000FF3529462068FFF727FF02460846102ACB
:103EE000F7D1FFF7CBFF0028F3D0024608469047F2
:103EF000EFE7000030010020012806D0022805D09D
:103F0000032804D0042804D102E003E002E001E029
:103F100000E000BF00BF00BFFEE700BFFEE70000FB
:103F2000074801684FF0E0204161002181610721CD
:103F300001610448016841F07F410160401770470A
:103F4000E05B000820ED00E0704750E8001F31B151
:103F50000B6840E80032002AF7D108467047BFF3EB
:103F60002F8FFAE710B568B161B10B3121F0030270
:103F7000016844680B1A1B1B934205D20846096866
:103F80000029F5D1002010BD210007D021180368B9
:103F9000C1E90032016001F1080010BD4260083043
:103FA00010BD000070B50D46002812D04FF6FF710D
:103FB000084C884204D222680146104600F054FCA6
:103FC00020684570044800F043F9BDE8704000F0F7
:103FD0000FBD70BD6C0100205CA500200F4810B51E
:103FE0000D4942680E480B680068934204D00A608D
:103FF000CB88421E1A448A808A8880B282420AD1C3
:1040000000200860054800F023F90146BDE8104093
:10401000024800F04DBC10BD800100205CA50020CE
:104020007C010020002808D0002906D080680028E4
:1040300003D0002204C1001FFCD1704770B5194D98
:10404000E86800282CD0A88A401EA882002621E01B
:10405000A06838B161684160606810B1A168816092
:104060006660A6600F482146183800F021FCA08A3F
:10407000A8826078042804D10B49E08A09880844A2
:10408000A08201206070E068E860E06808B1056126
:10409000E6602661A88A002802D1EC68002CD7D1FE
:1040A00070BD000074A500207C01002070B50400E4
:1040B0000FD00D4DA17801262868827891420CD945
:1040C00000F012FC286846702046BDE8704000F001
:1040D0008FBC064800F0BCF8F7E766702146BDE8E3
:1040E0007040024800F0E4BB6C0100205CA5002099
:1040F0000321FFF757BF0000054A02EB810151F889
:10410000041C002902D00A8B82430A8370470000F6
:10411000D49D002010B50446008B084320836278AC
:10412000618B062A18D0052A19D1084217D001EA56
:104130000002628388432083204600F000FC0120B7
:104140006070628B0821204600F0F5FB2146BDE837
:104150001040034800F0ACBB31EA0002EAD010BDC9
:104160005CA500200246154810B500EB810050F810
:10417000044C002C21D0208B104320836278618B6B
:10418000062A17D0052A18D1084216D001EA0002E3
:10419000628388432083204600F0D1FB01206070B9
:1041A000628B0821204600F0C6FB2046BDE8104087
:1041B000FFF77CBF31EA0002EBD010BDD49D002098
:1041C00070B503460C480D460468208B42B133EAB3
:1041D000000101D0062109E098432083022070BD30
:1041E00010EA030101D06183F6E7052163832846C5
:1041F000FFF7D8FE012070BD6C010020814202D380
:1042000042688A4201D80120704702680A60BFF301
:104210005F8F50E8003F0A689A42F6D140E80012EA
:10422000002AF2D10020704768B161B1002208393C
:1042300002E00246006830B18842FAD12AB1006833
:104240001060002070470120704700214160F8E7AE
:104250000146406842684A600B780022022B05D074
:10426000012B03D0032B01D04260704743680BB190
:104270009960426082607047810700D000207047DB
:1042800070B5044600201546207001226270A170AE
:1042900084F824106060A060E06020612062A08249
:1042A000E0822083608384F82500E08C18B90548FB
:1042B000FFF74BFEE06229462046BDE8704000F063
:1042C0001DB80000C042002008B1082901D2012019
:1042D00070470144091F002201600A6042601046D5
:1042E0007047000003480021016003490988C1802C
:1042F0007047000080010020D45B000870B5C28CBC
:104300001C4D930802D12A88C2F38D03C26A02EBC6
:104310008302540700D5121F4FF0807442E9021443
:1043200000242646B2F1400242F82460641C0E2CA0
:10433000FAD3C4691462826201632968C90014D582
:10434000112B12D94FF0FF31103B11EB53014FF0FD
:10435000CC3305D042F8043C42F8083D491EF9D15F
:10436000C16A121F8A4200D91360C06A0249016003
:1043700070BD0000D05B0008A52E5AE2C18980897B
:10438000081A704701220270002242708270426057
:1043900002814281103982818908C1817047000001
:1043A0002DE9F041044640680E464FF0000804F144
:1043B0000C05E8B36078012701283ED0022813D00D
:1043C00003285CD10846FFF7C0FD050057D0204602
:1043D000FFF73EFF0446294600F0AAFA6770204620
:1043E00000F0ADFA214621E02046FFF731FF0646F6
:1043F000002100F09DFA2189F06904EB8101086138
:10440000D5E85F0F401C81B2C5E8501F0028F7D1E6
:104410002089401C80B22081E189884201D1A4F822
:1044200008807770304600F08AFA3146174800E07D
:104430000CE0BDE8F04100F03BBA2046FFF708FF72
:1044400004463246102100F076FAC7E7A089E189D8
:10445000884216D2208904EB80000661D5E85F0F00
:10446000401C81B2C5E8501F0028F7D12089401CAC
:1044700080B22081E189884201D1A4F80880BDE89A
:10448000F081BDE8F0410320FFF736BD5CA50020B8
:1044900070B5164642680D4612B1417801290BD01D
:1044A0008189C4890023A14224D19EB11D4C216879
:1044B00092B100F0FDF916E0FFF7CAFE04462A4665
:1044C000102100F038FA204600F039FA2046FFF7B4
:1044D000EDFD25E0012070BD416021684B60216841
:1044E00088600221417020680821C5613046FFF7CD
:1044F00059FDEFE7018900EB81010D6100F10C012D
:10450000D1E85F2F521C94B2C1E8524F002AF7D174
:104510000189491C89B20181C289914200D103817C
:10452000002070BD6C01002070B5044680891546DE
:104530000026C0B3608904EB8000006908606089D0
:10454000401C80B26081E189884200D16681606848
:1045500010B1607802280BD014F10C04D4E85F0F7E
:10456000401E81B2C4E8501F0028F7D1002070BD62
:104570002046FFF76DFE0546002100F0D9F921899C
:10458000E86904EB810108612089401C80B2208128
:10459000E189884200D12681284600F0D0F92846DA
:1045A000FFF784FDE2E7FFE73DB10B486268016871
:1045B0002AB1204600F07CF908E0012070BD61605E
:1045C00001684E6000688460012060700821284600
:1045D000FFF7E8FCF1E700006C010020002814D090
:1045E000411C13D00C4A4FF6FE7190420CD800EBE0
:1045F0004002C2EBC0120948036803EBC202521E1C
:10460000B2FBF3F0884204D9084670474FF6FF70BA
:10461000704780B27047000000093D00F05B000861
:104620002DE9F0410446408820B1314DA1682A6847
:10463000914202D0FF20BDE8F081401E0004000C32
:10464000608053D12968086AA04209D1E0680862F5
:1046500008E0C268A24202D1E268C26002E01046ED
:104660000028F6D191F824000A6A06E053681BB1CD
:104670009B78834200D91846D268002AF6D1887008
:10468000DFF870806168012611B32046FFF7E0FD76
:104690000746002100F04CF9384600F050F96680DA
:1046A000A760386AE0603C622968D8F804008A781C
:1046B0008078824201D3384616E00E4800F0F8F8C0
:1046C00039460C4800F0F4F8286846707E700AE01D
:1046D000D8F804108A782968824207D9054800F082
:1046E000E7F8286846700020FFF7E0FC0020A2E70A
:1046F0006C0100205CA5002070B51C4D0E460446E0
:104700004188286861B1A268824210D1A1F57F403A
:10471000FF3803D0491C6180002070BDFF2070BDB0
:10472000A060016AE160046201206080F4E776B174
:1047300091788078814203D29070A06800F0DEF812
:10474000606830B12046296800F0B2F808E0012026
:1047500070BD28686060296800204860286884600F
:1047600009213046FFF71EFCF1E700006C01002034
:1047700070B51B48012102685170006800F0B4F860
:10478000184D6C7818E000BF05EBC401486802784A
:10479000EAB1012A20D000F0FFF8E878641C8442D6
:1047A00000D100240F48801CD0E84F1F491EC9B219
:1047B000C0E8421F002AF7D1A8780028E4D16C7025
:1047C0000948FFF745FDBDE8704000F011B90989BF
:1047D00089B2FFF79FFCE0E78968FFF7E1FDDCE7BE
:1047E0006C010020509D00205CA500200548017848
:1047F00011B101214170704703494FF080500860AA
:10480000704700007401002004ED00E0F0B4154D85
:10481000AB1CEE784FEA0507D3E84F2FB24202D126
:10482000BFF32F8F11E0521CD4B2C3E8424F002ACD
:10483000F2D100BFD7E84F2F541CB44200D100245E
:10484000E4B2C7E8434F002BF4D1EB78934205D98B
:1048500005EBC202C2E90101F0BC7047F0BC0220C6
:10486000FFF74ABB509D0020104A10B5D368ABB18A
:1048700013469B8A03E08CB12246A48A2344D46861
:104880008B42F8D3C460D0600261C46804B1206177
:10489000591A8182908A401A908210BD0024C46007
:1048A000D060C91A02619182848210BD74A5002073
:1048B00030B502780023022A03D0012A01D0032A4E
:1048C00000D101238C7800E01046426812B195783F
:1048D000A542F9D24A6041601BB102B19160886083
:1048E00030BD0020FBE7000003494A684260002217
:1048F00082604860704700005CA5002010B58368A6
:1049000004462BB9607801280ED1084B03E09B6860
:1049100018780028FBD0204600F026F82146BDE894
:1049200010401846FFF7C4BF10BD00005CA5002072
:10493000806A01627047806AC0E90812704710B54A
:10494000016900290ED0C268CA60C36800223BB169
:104950008B8A848A23448B82C3681961C26000E019
:104960008A82026110BD0000816839B142684A60E4
:104970004168002901D0806888607047054906E0D9
:104980004A68824202D14068486070471146002957
:10499000F6D170475CA5002010B5416881B1FFF7E2
:1049A00057FC0446FFF7CBFF01206070014620460C
:1049B000FFF7BEFF2146BDE810400348FFF778BF70
:1049C0004188491C418010BD5CA500200648006854
:1049D000D0E90A10814203D300680449884202D01A
:1049E0000120FFF789BA70476C010020A52E5AE21A
:1049F0000749022248604270064A1278002A05D010
:104A000006C98A4202D0C078FEF754BD7047000044
:104A10006C0100208801002070B5FEF723FD002006
:104A20000446204A204902E042F82040401C0B88FE
:104A30009842F9D31D48342201881D48FEF7A4FC92
:104A40001C48008880B240F000421B4801681B48A7
:104A5000FEF79AFC1A48082201881A480068FEF7F7
:104A600093FC194DFF20194AE870EC840021284678
:104A7000FFF706FC164804210170446015480170D8
:104A8000C46004618482144815490560022068707E
:104A90001248047044700978C170BDE87040FFF797
:104AA00021BC0000D49D0020CC5B0008F85B00080E
:104AB000403F0020D05B0008FC5B0008C0420020A3
:104AC000205C00083801002028A500201B3F0008BA
:104AD0005CA5002074A500206C010020509D0020E2
:104AE000045C00081B4810B5016841F47F010160B7
:104AF00000684FF07F4101EA00201649C043143995
:104B0000B0FA80F00968C0F10800C1F302218142C7
:104B100000D3481C0F49091F0B686FF08072824058
:104B200063F317020A60FFF7FBF90B4900280860DE
:104B30000EDB00F1E021FF2281F8002400F01F02CB
:104B4000012191404009800000F1E020C0F80011EF
:104B500010BD000020ED00E0780100200C4810B5E9
:104B60000268012151700068FFF7BEFEFFF736FAB8
:104B700008480168491C0160FFF760FA00F074FB07
:104B80000548FFF765FBBDE81040FFF731BF0000A7
:104B90006C0100207C0100205CA50020002805D0CD
:104BA000810702D10178002900D000207047000061
:104BB00030B50B4C0023626805E095688D4204D83F
:104BC00013461268491B002AF7D10260816012B1B6
:104BD0009568691A91600BB1186030BD606030BD96
:104BE000640100200D4B0022596803E0814204D08B
:104BF0000A4609680029F9D104E019B1016822B117
:104C0000116003E04FF0FF3070475960016819B13F
:104C10008A68806810448860002070476401002022
:104C20002DE9F0411E46174680460D4611F0FF0F54
:104C300000D14D1C1848FFF788F9041E16D0280A29
:104C4000E762E084E9B242462046E661FFF718FBDE
:104C500001251248124905E000EB850252F8042CA8
:104C600032B16D1C0A889542F6D90020BDE8F0816A
:104C7000002DFAD000EB850040F8044C0948E5709F
:104C8000007818B101212046FEF704FC2046FFF70A
:104C90000DFA2846EAE70000403F0020D49D00209E
:104CA000CC5B0008880100202DE9F05F584DDFF84B
:104CB0005891DFF8588129684FF0010A002618B191
:104CC000CA78AB46824243D14E70FBF7B4FA2968EA
:104CD0008862FFF77BFE2868046A1FE06068C0B145
:104CE0002046FFF7B5FA07460021FFF721FE3846B8
:104CF000FFF725FE87F801A039464648FFF7D8FDA3
:104D0000E168A4F802A0A760386AE0603C620C4643
:104D100004E0E0686680A660E6600446002CDDD111
:104D20002868C27808EB820141F8046CC16A3A48ED
:104D3000FFF764FA2868C66299F8001011B10021E3
:104D4000FEF7A8FB35482968FFF758FA2E6056E0B1
:104D50003349098888420CD808EB800858F8045C6D
:104D60003DB12846FFF700FE2846FFF7E8FD2C6A14
:104D700022E0FF20BDE8F09F6068C0B12046FFF749
:104D800067FA07460021FFF7D3FD3846FFF7D7FD46
:104D900087F801A039461F48FFF78AFDE168A4F8AB
:104DA00002A0A760386AE0603C620C4604E0E0685C
:104DB0006680A660E6600446002CDDD148F8046CED
:104DC0001548E96AFFF71AFAEE6299F8000018B17F
:104DD00000212846FEF75EFB29461048FFF70EFA31
:104DE0000C48DBF8001040688B7882789A4209D929
:104DF00081F801A00748DBF80010FFF759FD0020FB
:104E0000FFF754F90020B5E788010020D49D002069
:104E10006C0100205CA50020C0420020403F002023
:104E2000CC5B000870B51A4D80B11A4A12889042C6
:104E30001FD8194A02EB800050F8044CCCB1A17085
:104E400084F824102868A04205D014E028688170F6
:104E5000286880F82410114840688078884215D965
:104E60000E482968FFF724FD2968012048700020BA
:104E70000AE0FF2070BD2046FFF740FD6078012862
:104E800004D10648FFF7E4F9FFF710F9002070BDE0
:104E90006C010020CC5B0008D49D00205CA50020A4
:104EA00002480068002800D0C07870476C010020DC
:104EB00010B5002804D0FFF791FBFFF719F9402047
:104EC00010BD000010B5134C207860B9124840079F
:104ED00005D1124801681048FFF7F6F908B185209E
:104EE00010BDFFF799FD0E49FF20096888702078F2
:104EF00058B900210B4800F041F80B490860002127
:104F00000A4800F0E7F80A490860012020700020F4
:104F1000607010BD64010020D0460020005C0008D5
:104F20006C010020185C000830010020085C0008BB
:104F30002C01002070B50F4D687808B1002070BDBD
:104F40000D4C206890F824100020FFF76BFF2068BC
:104F5000C178FF2903D1816A203181F30988616812
:104F600011B9606000202060FFF7BCFD012068706F
:104F7000E4E70000640100206C01002010B504008B
:104F800005D0216819B1606808B102780AB1002023
:104F900010BD8900103189B2FFF7F4F9606810BDC7
:104FA0003EB504000D464FF0800012D02178012953
:104FB0000FD12846FFF712FB0246204601A9FFF752
:104FC000B3FA012801D0102003E00DB1402000E029
:104FD0000020DDE9011203B030BD70B50E460400BB
:104FE000154602D02078012801D0802070BD1046DF
:104FF000FFF7F4FA024631462046FFF749FA012846
:1050000001D0002070BD0DB1C12070BD812070BDE8
:1050100010B504000ED0216861B1626852B1A06879
:1050200040B1D21C22F0030251430C31FEF7ACF91F
:10503000A06810BD002010BD70B50C46FFF7AEFD96
:105040004FF0004108B1220C01D0084670BD058B1D
:10505000C178A0B2FFF750F8284670BD70B50C4675
:10506000FFF79CFD4FF0004108B1220C01D008462B
:1050700070BD058BC178A0B2FFF774F8284670BDEB
:1050800070B504460D46000C01D086201EE008468F
:105090002CB1FFF7A3FA0146A0B2012205E0FFF709
:1050A0009DFA014600224FF6FF70FFF789F80228AB
:1050B00002D04DB1402008E008200CB1214605E0A7
:1050C00003490968498B01E000200021324670BD88
:1050D0006C01002070B50E46040029D0206838B35A
:1050E000606810F1030F23DB032821DCE16829B19C
:1050F0001048FEF737FF05001AD000E00025606871
:10510000E168001D40EA012133462A462068FFF786
:1051100087FD40B1084901EB8000084950F8040CB4
:10512000826A516370BD1DB129460248FFF77CF8C1
:10513000002070BDD0460020D49D00204D3E0008C8
:1051400010B5FFF7ADFE002804D0034901EB800045
:1051500050F8040C10BD0000D49D002010B5FFF7DE
:105160001DFD18B1C18C19B1C46A02E0802010BDC8
:105170000024C078FFF798FDFF2806D01CB1214617
:105180000348FFF751F8002010BD812010BD00003A
:10519000D046002010B5FFF76FF820B141690A68CA
:1051A0000169104610BD0020014610BD10B5030076
:1051B0000CD0186850B15868002808D009B10129EE
:1051C00004D1074C24680CB104790CB1002010BD47
:1051D00000240460012404714171C0E9042310BD5E
:1051E0002C01002070B50E46FFF746F8040016D0DB
:1051F000BEB1144A00214FF47A7310681268401E41
:1052000041F1FF35E6FB030529460023FBF7CCF807
:105210000546207901280CD0022808D103E080201F
:1052200070BD862070BD2046FFF7DCFC20B18120D8
:1052300070BD02202071E56029462046FFF7B8FCCA
:10524000002070BDF05B0008002801D0FEF77DBE95
:10525000704710B528B1FEF7D1FF002800D0862096
:1052600010BD802010BD00002DE9F041134E746880
:10527000002C1CD0A068124F401E4FF00108A06007
:1052800012E0254624687460002229463868FEF73B
:105290007CF910B10420FEF72FFE6879012808D0B0
:1052A00085F80480002C02D0A0680028E9D0BDE871
:1052B000F0812846E968FFF77BFCF3E764010020F2
:1052C0003001002008B501211420FCF79BF9E020F3
:1052D000ADF8000003208DF8020010208DF80300C7
:1052E00069460848FBF7F8FD0420ADF800000120EE
:1052F0008DF8020048208DF8030069460148FBF74D
:10530000EBFD08BD0008014010B5FFF7DBFF0021F1
:105310000248FEF785FD0249086010BD24590008C7
:10532000080000200EB500BF00BF00BF00BF002274
:1053300001215B48FEF7A8FD044640F6B83120463F
:10534000FEF7B8FD7B2157480068FEF751FD00BF0E
:1053500064210020FEF758FD8DE80700009808281A
:105360007DD101981A280CD006DC0A281FD00B2802
:1053700049D00C2874D174E01B282ED01C28F9D1F8
:1053800057E00323012264211046FCF741F84FF453
:10539000FA70FEF75FFC01224FF4FA711046FBF73A
:1053A000B7FF1A2140480068FEF716FD70E003239E
:1053B000002264210120FCF72BF84FF4FA70FEF76D
:1053C00049FC00224FF4FA710120FBF7A1FF0A21EA
:1053D00035480068FEF700FD5AE0032301226421EE
:1053E0000220FCF715F84FF4FA70FEF733FC0122A7
:1053F0004FF4FA710220FBF78BFF1B212A4800684B
:10540000FEF7EAFC44E00323002264210220FBF7BC
:10541000FFFF4FF4FA70FEF71DFC00224FF4FA7103
:105420000220FBF775FF0B211F480068FEF7D4FC34
:105430002EE00323012264211846FBF7E9FF4FF415
:10544000FA70FEF707FC01224FF4FA710320FBF714
:105450005FFF1C2114480068FEF7BEFC18E018E04E
:1054600015E00323002264211846FBF7D1FF4FF417
:10547000FA70FEF7EFFB00224FF4FA710320FBF7FE
:1054800047FF0C2108480068FEF7A6FC00E000BFBB
:1054900000BFFEF793FA6420FEF7DCFB58E700003C
:1054A0003459000810000020080000202DE9F05FAA
:1054B00006460F4614464FF00A0B06EBC60000EBFB
:1054C0000610642101EB40054FF47A70784390FB9D
:1054D000F5F01FFA80F94FF000081CE00120104998
:1054E00008600A2095FBF0F000FB04FA5046FDF737
:1054F000F7FF00200B49C1F898010A2095FBF0F056
:10550000C4F10A0100FB01FA5046FDF7E9FF08F17A
:1055100001001FFA80F8C845E0DBBDE8F09F0000FD
:10552000980123420000234270B500204249887050
:105530000420FDF76BFF00BF05240AE03F48006828
:1055400008B9012000E000203C4908609620FEF7E1
:1055500081FB201EA4F10101CCB2EFD137490860D4
:10556000354988706520C87000BF334880780128AD
:1055700005D1324908600320FDF748FF70BD2E4871
:105580008578807830B900202C4908601420FEF717
:1055900061FBEAE700BF00BF6420FEF75BFB012070
:1055A00027490870FDF732FF66202349C87019E0CB
:1055B00021488078012805D1204908600320FDF7A3
:1055C00025FFDBE71C48807808B11B4885781B481D
:1055D000006808B9012000E0002018490860962002
:1055E000FEF738FB164800780028E1D10120134966
:1055F0000860E8B2FBF75AFE05240AE00F4800688D
:1056000008B9012000E000200C4908609620FEF750
:1056100021FB201EA4F10101CCB2EFD101200749EA
:1056200008600020FDF7F2FE67200349C8704FF4C0
:10563000FA70FEF70FFB7FE7180000209C01214263
:105640004000002010B50446ACB111480078032892
:1056500011D104200E490870FDF720FD00210D48EE
:10566000FEF7DEFB0C49086000210C48FEF7D8FB72
:105670000B4908600BE054B903200549087006483F
:105680000068FEF7EFFB06480068FEF7EBFB10BD75
:1056900003000020B859000868000020C85900081D
:1056A0006C00002010B5A0B0642107A8FAF7CEFF67
:1056B0003E480078062873D100246DE03B4800780E
:1056C00006285AD1642107A8FAF7C0FF00200390EA
:1056D000049005900690AA22022107A8FAF78CFFF1
:1056E000BB2202210DF12F00FAF786FF03208DF86F
:1056F000180002208DF819002D4801780088401C00
:105700002B4A1080C8B28DF81E000E2203A90DF19D
:105710001F00FAF7FAFE2748007830B100208DF814
:105720002D0002208DF82E0005E000208DF82D00C0
:1057300001208DF82E00152107A8FCF71DF98DF822
:105740003100032C01D0142C16D11B4842691621BC
:1057500007A890474FF0FF310120FEF755FB8DE879
:1057600007000120154908604FF4FA70FEF772FA3D
:1057700000201349C1F8940109E00C48007805287D
:1057800003D10A48007820B010BD0420FBE7C820F0
:10579000FEF760FA601CC4B2C82C8FDB03E0FFE7A1
:1057A00002480078EFE70420EDE700000300002046
:1057B0007200002070000020945B000894012142D8
:1057C0000000214210B5A0B00446642107A8FAF7F2
:1057D0003DFF642107A8FAF739FF002003900490E9
:1057E00005900690AA22022107A8FAF705FF0320D8
:1057F0008DF81800264801780088401C244A108043
:10580000C8B28DF81E0004208DF82E008DF83040AF
:10581000812C0DD113208DF819009DF819100DF170
:105820002A0008441B490A8802808978817000E0B8
:1058300000BF00BF0E2203A90DF11F00FAF765FE9D
:105840009DF819200DF12D015018BB220221FAF705
:10585000D3FE9DF819001330C1B207A8FCF78CF8ED
:105860009DF81910133107AA50549DF8190000F142
:1058700014010948426907A890474FF0FF31012001
:10588000FEF7C2FA8DE80700002020B010BD00002E
:1058900072000020363E0020945B00080F020202D6
:1058A00004040407070706050000000001020000C9
:1058B00000000000020700000000000006010000D8
:1058C00000000000030304050000000005040302BB
:1058D00000000000070203010000000005050604A7
:1058E000030105000707050601020400060602037E
:1058F0000104070001020506030400000102010281
:105900000600000000000000000000000000000091
:105910000000000000000000000000000000000087
:1059200000000000255300080000000001000000F6
:1059300000020000B11900088C0100204115000888
:105940000000000001000000000200001D370008F8
:105950000100000001000000000C000051380008A8
:105960000100000001000000000200000A00000029
:1059700004000000A00D002002000000D40D002053
:1059800002000000EC0D002002000000040E0020C8
:1059900004000000010000001C0E002002000000B6
:1059A000380E0020020B00005539000801000000ED
:1059B0000100000000080000511D00080000000068
:1059C0000100000000040000C532000800000000D3
:1059D0000100000000020000017F00020D0A00002B
:1059E000640064006400640064008813B80BC8009D
:1059F000C8000000585C0008585C0008D05C000833
:105A0000845C0008605C0008345C0008985C000856
:105A1000745C0008C05C000802020202020202027A
:105A20000202020E0206020201010000EC5C000804
:105A3000EC5C0008EC5C0008EC5C0008EC5C000826
:105A4000EC5C0008EC5C0008EC5C0008EC5C000816
:105A5000EC5C0008EC5C0008DC5C0008EC5C000816
:105A6000F05C0008EC5C0008EC5C0008D85C000806
:105A7000D85C000814500000B51C000800000000AD
:105A800001000000000400006162630000000000EB
:105A90000000000000000000000000000000000006
:105AA00000000000000000000000000000000000F6
:105AB00000000000000000000000000000000000E6
:105AC00000000000000000000000000000000000D6
:105AD000000000000000000003020202390600007E
