:020000040800F2
:10000000E0370020792D00082109000823090008A5
:10001000270900082B0900082F090008000000002C
:10002000000000000000000000000000330900088C
:1000300035090008000000003709000839090008E8
:10004000932D0008932D0008932D0008932D000890
:10005000932D0008932D0008932D0008932D000880
:10006000932D0008932D0008932D0008932D000870
:100070009F210008932D0008932D0008932D000860
:10008000932D000849190008932D0008932D0008AE
:10009000932D0008932D0008932D0008A106000859
:1000A000932D0008932D0008932D0008932D000830
:1000B000492A00080F2B0008932D0008932D0008F3
:1000C000932D0008932D0008932D0008932D000810
:1000D000932D0008932D00087B1800087D20000850
:1000E0003B090008932D0008932D0008932D00086C
:1000F000932D0008932D0008932D0008932D0008E0
:10010000932D0008932D0008932D0008932D0008CF
:10011000DD120008932D0008932D0008932D000890
:10012000932D0008932D0008932D0008FD1300085F
:1001300000F002F800F043F80AA090E8000C8244B6
:100140008344AAF10107DA4501D100F038F8AFF293
:10015000090EBAE80F0013F0010F18BFFB1A43F0A5
:1001600001031847C0520000E0520000103A24BFBB
:1001700078C878C1FAD8520724BF30C830C144BF0C
:1001800004680C607047000000230024002500264E
:10019000103A28BF78C1FBD8520728BF30C148BFEA
:1001A0000B6070471FB505F0A3F804000020002184
:1001B00005F01CF9401C60601FBD10B510BD05F0B6
:1001C0009FF81146FFF7EEFF00F079FA05F0BDF851
:1001D00003B4FFF7F2FF03BC05F000F9024600216B
:1001E00000BF05E0505C08B101207047481CC1B257
:1001F0000329F7DB0020F8E7F74909680160F649B1
:10020000091D09684160F449083109688160704737
:10021000F2488068401CF1498860704700B5ADF62F
:10022000DC0DEF48006800283CD13AE00020EB49A3
:10023000886006E0E948806844F62061884200D37F
:1002400031E0E74800680028F4D0E448008981B232
:10025000E24882890E3020F812100E388089401C46
:10026000DE4988810020886006E0DC48806844F62A
:100270002061884200D316E0D94800680028F4D1F4
:10028000D648008980B240F40041D44882890E30BB
:1002900020F812100E388089401CD0498881002037
:1002A0008860C3E700BFCD48808900287EDDCB4849
:1002B0008089B0F5806F79DC0120CA490860C749A0
:1002C0004968C94A02EB81205214C4490E3102F038
:1002D00068FCC2494968C44A02EB8120521437A91C
:1002E00002F04EFC4FF4806237A9BC480E3004F097
:1002F00008FF002844D18DF8CE00002133A8C1703A
:10030000017141714FF4D050ADF8D200B748007878
:100310008DF8D400B5480088010A33A84172B3486B
:100320000068010C33A88172B0480068010E33A840
:10033000C17204208DF8D8008DF8D90000208DF806
:10034000040008208DF80500A44800798DF8060007
:1003500001208DF807009DF8D90001AB33AA4BF6B8
:10036000BB3100904AF6AA2002F007F800209B4912
:100370008881086040F60E01984804F055FF8FE030
:1003800000208DF8CE00002133A8C17001714171A9
:100390004FF4D050ADF8D200944800788DF8D400D6
:1003A00092480088010A33A8417200E030E08F488B
:1003B0000068010C33A881728C480068010E33A8D4
:1003C000C17204208DF8D8008DF8D90000208DF876
:1003D000040008208DF80500804800798DF806009B
:1003E00000208DF807009DF8D90001AB33AA4BF629
:1003F000BB3100904AF6AA2001F0BFFF00207749E8
:100400008881086040F60E01744804F00DFF47E053
:1004100000207249888140F60E01704804F004FF04
:100420004FF4D850ADF8CC0000208DF8CE0000215C
:1004300033A8C170017141714FF4D050ADF8D200B2
:100440006A4800788DF8D40068480088010A33A80B
:10045000417266480068010C33A8817263480068E5
:10046000010E33A8C17204208DF8D8008DF8D90090
:1004700000208DF8040008208DF805005748007909
:100480008DF8060000208DF807009DF8D90001AB1B
:1004900033AA4BF6BB3100904AF6AA2001F06DFF5B
:1004A0000020534908700DF6DC0D00BD70B5ADF5A8
:1004B0000E6D0546002600244B4901EB85204A14A9
:1004C00002A902F05DFBBDF80800002846D14FF4F8
:1004D000D850ADF8D00800208DF8D20800210DF5D5
:1004E0000D60C170017141714FF4D050ADF8D60864
:1004F0003E4800788DF8D8083C480088010A0DF580
:100500000D60417239480068010C0DF50D60817273
:1005100036480068010E0DF50D60C17204208DF89B
:10052000DC088DF8DD0800208DF8080809208DF81A
:1005300009088DF80A5802208DF80B089DF8DD088F
:100540000DF608030DF50D624BF6BB3100904AF62F
:10055000AA2001F012FF0DF50E6D70BD002498E089
:1005600020480068C0432349C1F8B40102A830F80C
:10057000140080B302A830F814004FF6FF718842CF
:100580003CD002A830F8140000F4004088B102A862
:1005900030F81400C0F30E060021174803F058FF8E
:1005A00000200E49886000BF0C488068B042FBD331
:1005B0006DE002A830F81400C0F30E0601210E48C9
:1005C00003F046FF00200549886000BF03488068AB
:1005D000B042FBD35BE011E0E8F7FF1F60000020B2
:1005E00018012242B4812142001801085400002061
:1005F0000900002000802142003401400021BB4856
:1006000003F026FF4FF4D850ADF8D00800208DF845
:10061000D20800210DF50D60C170017141714FF4D8
:10062000D050ADF8D608B24800788DF8D808B04858
:100630000088010A0DF50D604172AD480068010C9B
:100640000DF50D608172AA480068010E0DF50D6070
:10065000C17204208DF8DC088DF8DD0800208DF8CB
:10066000080809208DF809088DF80A5801208DF82E
:100670000B089DF8DD080DF608030DF50D624BF62D
:10068000BB3100904AF6AA2001F077FE05E0601C1D
:1006900084B2B4F5806FFFF663AF00BF00BF5AE7C6
:1006A00010B5402004F026FA40B1924800780128A5
:1006B00001D191490870402004F02DFA10BD9EB080
:1006C000582104A804F0B0FD8C4A07CA01AB07C347
:1006D00002F0E2FA02F04AFB8548FFF78DFD02F0D6
:1006E00001F802F03AF802F07EF84FF4E13000F041
:1006F00037FA4FF4614000F09CFB4FF4614000F08A
:10070000E3FA4821092002F0EDF8002140F266707A
:1007100002F040F940F60E01794804F085FDE3E06F
:1007200078480068002836D10A2002F0F2FA00BFAB
:10073000744800680028FBD00020ADF868008DF8F0
:100740006A0000211AA8C170017141710020ADF842
:100750006E008DF870001AA841728172C172042077
:100760008DF8740003208DF8750000208DF80400CA
:1007700001208DF805003C208DF8060062490880B4
:100780009DF8750001AB1AAA4BF6BB3100904AF6F2
:10079000AA2000F01BFF5D48007800286FD05C485D
:1007A00000785C49097888420FD0012055499C3176
:1007B00008605948D0F81C0118B902205449087043
:1007C0005DE000205249087059E000204D499C31FD
:1007D00008604E490870ADF868008DF86A00002185
:1007E0001AA8C170017141714FF4D050ADF86E007C
:1007F0003F4800788DF870003D480088010A1AA82B
:1008000041723B480068010C1AA8817238480068A0
:10081000010E1AA8C17204208DF8740003208DF80F
:10082000750000208DF804000C208DF80500384874
:1008300000788DF806009DF8750001AB1AAA4BF6FA
:10084000BB3100904AF6AA2001F02FF9322002F0C5
:1008500060FA12208DF875000B2030494870002096
:1008600088702B480078C8719DF875000B461AAA4D
:100870004BF6BB3100904AF6AA2001F07EFD1D48E0
:10088000007820B101280FD002282BD11EE000F003
:100890006BFF00F0CAFD01F0E7FE01F0A4FC01F0DF
:1008A00084FA01F077F81EE01548006830B112486C
:1008B0000078012809D1FFF7B1FC06E000201049BB
:1008C00008600D4908700B4908700CE00C49087964
:1008D000FFF7ECFD01200B49B0310860002005490D
:1008E000087000E000BF00BF1AE7000000340140BC
:1008F000540000200A0000200900002018540008BD
:1009000060000020048121420C000020140000201F
:100910001000002011000020008021423B25002013
:10092000704700BFFEE700BFFEE700BFFEE700BF65
:10093000FEE7704770477047704710B54FF480600E
:1009400004F0D8F890B14FF4806004F0E4F808485F
:10095000006820F48060064908600648007810B1FD
:1009600001200549087001200449087010BD0000ED
:1009700000040140190000201A0000201800002087
:100980000CB50020019000906C48006840F4803065
:100990006A49086000BF6948006800F400300090B0
:1009A0000198401C0190009818B90198B0F5A06F0B
:1009B000F1D16248006800F4003010B101200090CD
:1009C00001E0002000900098012843D15C480068B5
:1009D00040F010005A4908600846006820F0030003
:1009E00008600846006840F002000860534840680C
:1009F000524948600846406848600846406840F4EC
:100A0000806048600846406820F47C1048600846D2
:100A1000406840F4E81048600846006840F0807084
:100A2000086000BF4548006800F000700028F9D059
:100A30004248406820F0030040494860084640684A
:100A400040F00200486000BF3C48406800F00C00E5
:100A50000828F9D10CBD10B5FFF792FF10BD10B5F5
:100A60003648006840F00100344908600846406894
:100A70003449084031494860084600683249084016
:100A80002E4908600846006820F480200860084667
:100A9000406820F4FE0048604FF41F008860FFF7B4
:100AA000DAFF4FF000602949086010BD10B5002141
:100AB00000200022214B5B6803F00C0121B10429C6
:100AC00006D0082928D107E0214B224C236027E0DB
:100AD0001F4B204C236023E0184B5B6803F470101D
:100AE000164B5B6803F48032022303EB904022B97B
:100AF000194B4343174C23600DE0104B5B6803F424
:100B0000003323B1144B4343124C236003E0104BDA
:100B10004343104C236003E00D4B0E4C236000BF99
:100B200000BF064B5B68C3F303130C4CE15C094B3D
:100B30001B68CB40074C236010BD00000010024032
:100B4000002002400000FFF8FFFFF6FE08ED00E085
:100B500000127A002400002000093D002800002037
:100B600010B588B004460121022002F0A2FC012148
:100B7000C80402F0B8FC0121102002F0A7FC4FF4D9
:100B80008060ADF81C0018208DF81F0003208DF840
:100B90001E0007A9FE4802F0DDF94FF40060ADF831
:100BA0001C0004208DF81F0007A9F94802F0D2F9B3
:100BB00003940020ADF81000ADF81200ADF8140059
:100BC000ADF818000C20ADF8160003A9F14802F0AA
:100BD00024FD34208DF8080002208DF80900032040
:100BE0008DF80A0001208DF80B0002A802F0E9F848
:100BF0003B208DF8080002208DF8090003208DF8B5
:100C00000A0001208DF80B0002A802F0DAF8002299
:100C100040F22771DF4802F098FD002240F2255192
:100C2000DC4802F092FD002240F22661D94802F031
:100C30008CFD012240F22441D64802F086FD0122BB
:100C40008021D44802F0A6FD01224021D14802F0C3
:100C5000A1FD00201021C823CF4ACDE90010CD49C5
:100C6000091DCE4801F006FE0021CC4802F063FFCA
:100C700000200090C823C84AC832C649091D019007
:100C8000C648283801F0F6FD0121C448283802F092
:100C900052FF01220221C14802F059FFC04802F070
:100CA00079FFC04802F076FF0121BA4802F041FD09
:100CB00040F69511B848083804F094FA0120B64976
:100CC0000839487108B010BD10B588B0044601213C
:100CD000084602F0EEFB0121880402F004FC012129
:100CE000082002F0F3FB4FF48060ADF81C001820E0
:100CF0008DF81F0003208DF81E0007A9AA4802F0F6
:100D000029F94FF40060ADF81C0004208DF81F0095
:100D100007A9A54802F01EF903940020ADF81000C1
:100D2000ADF81200ADF81400ADF818000C20ADF8C5
:100D3000160003A99D4802F070FC27208DF80800DA
:100D400002208DF8090003208DF80A0001208DF89B
:100D50000B0002A802F035F80C208DF808000220E4
:100D60008DF8090003208DF80A0001208DF80B0092
:100D700002A802F026F8002240F227718B4802F008
:100D8000E4FC002240F22551884802F0DEFC0022FB
:100D900040F22661854802F0D8FC012240F224414D
:100DA000824802F0D2FC01228021804802F0F2FC4D
:100DB000012240217D4802F0EDFC00201021C823D3
:100DC0007B4ACDE900107949091D7A4801F052FDAE
:100DD0000021784802F0AFFE00200090C823744A3A
:100DE000C8327249091D01907248143001F042FD69
:100DF00001217048143002F09EFE012202216D484C
:100E000002F0A5FE102002F0C5FE4FF4807002F043
:100E1000C1FE0121654802F08CFC40F69511644842
:100E2000083804F0DFF9012061490839487108B039
:100E300010BD10B588B004460121084602F039FB08
:100E40000121480402F04FFB0121042002F03EFB87
:100E50000420ADF81C0018208DF81F0003208DF829
:100E60001E0007A9544802F075F80820ADF81C00D0
:100E700004208DF81F0007A94F4802F06BF8039477
:100E80000020ADF81000ADF81200ADF81400ADF878
:100E900018000C20ADF8160003A9484802F0BDFB6D
:100EA00026208DF8080002208DF8090003208DF817
:100EB0000A0001208DF80B0002A801F082FF11202A
:100EC0008DF8080002208DF8090003208DF80A0033
:100ED00001208DF80B0002A801F073FF002240F200
:100EE0002771364802F031FC002240F22551334888
:100EF00002F02BFC002240F22661304802F025FC73
:100F0000012240F224412D4802F01FFC01228021E1
:100F10002A4802F03FFC01224021284802F03AFC16
:100F200000201021C823264ACDE900102349091DBD
:100F30002048643001F09EFC00211E48643002F01D
:100F4000FAFD00200090C8231D4AC8321B49091D24
:100F500001901848503001F08DFC012115485030A7
:100F600002F0E9FD012202211248643002F0EFFD97
:100F70004FF4801002F00EFE4FF0807002F00AFE77
:100F800001210E4802F0D5FB40F695110C4819E0FE
:100F900000100140004C00400B1200205804024099
:100FA0000001001000000110000C0140004800404A
:100FB000760800201C000240000801400044004068
:100FC000A01B0020083804F00DF9012025494871C4
:100FD00008B010BD10B5002240F22441224802F0B2
:100FE000B4FB00220221214802F0B1FD002240F2B0
:100FF00024411F4802F0A9FB002202211D4802F0F3
:10100000A6FD002240F224411B4802F09EFB002274
:1010100002211848643002F09AFD10BD10B501227B
:1010200040F22441104802F090FB012202210F48B7
:1010300002F08DFD012240F224410D4802F085FBB3
:10104000012202210B4802F082FD012202210948FF
:10105000643002F07CFD012240F22441064802F097
:1010600074FB10BD981B0020004C00405804024047
:10107000004800401C000240004400402DE9F05FA1
:1010800080460E46914600241CE016F814A060002D
:10109000401C16F800B0504604F024F83038C5B2B1
:1010A000092D01DDE81FC5B2584604F01BF83038A1
:1010B000C7B2092F01DDF81FC7B207EB051008F80A
:1010C0000400641C4C45E0DBBDE8F09FF0B503462E
:1010D00000201EE00E5CF71706EB17773F1107F1B3
:1010E00030050E5CF71706EB17773F11A6EB0717D5
:1010F0003037FCB2392D01DDEE1DF5B2392C01DDA2
:10110000E61DF4B203F81050012606EB40069C558C
:10111000401C9042DEDB002603F81260F0BD024660
:10112000002100BF05E0505C08B101207047481C59
:10113000C1B20329F7DB0020F8E730B502460B46C1
:10114000002010E012F8014B6040002109E000F09F
:1011500001041CB18C2484EA600000E040104C1CA7
:10116000E1B20829F3DB1C1EA3F10105EBB2E9D1C2
:1011700030BD10B50446002300BF2CE003EBC301D3
:1011800001EB0312FE4901EBC200FFF7C8FF012883
:101190001FD103EBC30000EB0311F94800EBC100C2
:1011A0008078A04215D1F7488079984210D101206B
:1011B000F449087100204880487003EBC30000EB3D
:1011C0000311EF4800EBC100002101604160018183
:1011D00003E0581CC3B2052BD0DB00BF10BD2DE9C6
:1011E000F04305460E46174698460024A14600BF28
:1011F00036E0C4EBC402E4495018FFF790FF68BB27
:101200002912C4EBC402E0488154C4EBC402104468
:101210004570C4EBC401DC48084480F80280C4EB8C
:10122000C401D9480844C7703112C4EBC402D6487F
:1012300010440171C4EBC402D34810444671C4EB9E
:10124000C402D14950180621FFF777FF8146C4EB4D
:10125000C401CD48084480F8069003E0601CC4B285
:10126000052CC6DB00BFBDE8F0832DE9F041054643
:101270000E4617464FF00008C248C47900BF1FE071
:1012800004EBC40101EB0412C04901EBC200FFF7FB
:1012900046FF58B904EBC40101EB0412BB4901EB52
:1012A000C2003246294603F058FF0CE0042C01DB53
:1012B000002401E0601CC4B208F1010000F0FF0846
:1012C000B8F1050FDCDB00BF3B4600224DF6DD51D7
:1012D0004CF6CC40FFF783FFBDE8F0812DE9F041EB
:1012E00000260027002540F22441A94802F012FB05
:1012F00000287DD0A74802F04DFC40F22441A448CC
:1013000002F032FBA2480488001D04880021A24894
:1013100002F011FCA04802F025FCC0F1C805C82D60
:1013200033D2152D31D3974890F8E00000F1110425
:10133000944890F8D000AA284FD1924890F8D10054
:10134000AA284AD18F48D030005DBB2845D18D48AE
:10135000D030611C405CBB283FD1A01CC1B2894881
:10136000D030FFF7EAFE07468648D030A11C405C2B
:10137000B84232D1834890F8D260E01CC1B2324604
:101380008048D030FFF771FF27E0C82D25D2072D08
:1013900023D37C4890F8D000CC281ED1794890F80F
:1013A000D100CC2819D1774890F8D400DD2814D189
:1013B000744890F8D500DD280FD106217148D0304F
:1013C000FFF7BBFE6F4991F8D610884205D16D48F2
:1013D00090F8D2603046FFF7CCFEA11C6948D030AF
:1013E00003F000FFC8206C49091D0860012100E0DE
:1013F00002E0694802F09FFBBDE8F08110B5674844
:1014000002F0D3FB50B101205E49487100216248CF
:10141000283002F090FB614802F0DBFB10BD594818
:101420004088401C5749488070477CB50025554886
:101430004079012876D100BF37E0C5EBC50252499B
:101440005018FFF76CFE01282DD14E480021816015
:1014500081818173C5EBC5014B4808444949026845
:101460008A6082888A8180798873C5EBC501464885
:101470000844002101608180817100201021C8236F
:10148000404A0832CDE900104149091D4248283040
:1014900001F0F0F907214048283001F015FA00204A
:1014A000384948717CBD681CC5B2052DC5DB35487F
:1014B00040881E2803DA3348007900B9F2E700209B
:1014C000304908714880FFF785FD2E488479002552
:1014D00075E004EBC40101EB0412294901EBC200E1
:1014E000FFF71DFE012861D126488079A0421DD159
:1014F00024484078401C2349487008464078012819
:1015000014DD0020487004EBC40000EB04111C48FB
:1015100000EBC1000021016041600181042C02DB6D
:10152000002402E050E0601CC4B246E015480021EF
:101530008160C160018200F5CC70025D04EBC400E3
:1015400000EB04130E4800EBC301A0F5CD7003F0CF
:1015500004FE00201021C8230A4A0832CDE90010F9
:101560000B49091D0C48283001F084F904480A3859
:10157000015D0948283001F0A7F9024884710FE0A5
:10158000A513002003120020751B00208D170020DA
:10159000004C004000010010300402400000011027
:1015A000002087494871087148800AE0042C01DB5B
:1015B000002401E0601CC4B200BF681CC5B2052D48
:1015C00087DB00BFFFF72AFD00BF6BE72DE9F05F67
:1015D00006460F4691469A460A9D4FF0000BD846A4
:1015E000C82D01DDBDE8F09FFFF7F4FC7448847955
:1015F0004FF0000B7EE004EBC40101EB04127149D3
:1016000001EBC200FFF78BFD002869D104EBC40099
:1016100000EB04126B4800F83260311204EBC40096
:1016200000EB0412674800EBC20041706448017887
:1016300004EBC40000EB0412624800EBC2008170AE
:1016400004EBC40101EB04125E4901EBC201C81CAA
:101650000E22494603F081FD04EBC40101EB0412A4
:10166000584901EBC20101F111002A46514603F02D
:1016700074FD04EBC40000EB0412524800EBC202FC
:1016800005F111001754391204EBC40000EB0412E9
:101690004C4800EBC20205F112001154421CD1B2B9
:1016A00004EBC40202EB0413464A02EBC300FFF74B
:1016B00044FD804604EBC40101EB0412414901EBF7
:1016C000C20205F1130102F80180481CC1B23D4875
:1016D0000A3801553A480078401C394908700DE035
:1016E000042C01DB002401E0601CC4B20BF10100FA
:1016F00000F0FF0BBBF1050FFFF67DAF00BFFFF75A
:101700008DFC00BF6EE710B5B8B004460E22E11C98
:1017100034A803F022FD9DF8DD2004F1110102A898
:1017200003F01BFDBDF8D6000002BDF8D61040EA5C
:10173000212080B2ADF8D600BDF8D0000002BDF87F
:10174000D01040EA212080B2ADF8D0009DF8DD0035
:1017500002AB34AA4BF6BB3100904AF6AA2000F047
:101760000CFE012038B010BD10B5002400BF22E0EF
:1017700004EBC40101EB0412134901EBC200FFF7B3
:10178000CEFC012815D104EBC40101EB04120E4973
:1017900001EBC200FFF7B7FF50B104EBC40000EB50
:1017A0000411094800EBC100002101604160018182
:1017B00003E0601CC4B2052CDADB00BF10BD0000E2
:1017C00003120020A51300208D17002002460021DF
:1017D00000BF05E0505C08B101207047481CC1B251
:1017E0000329F7DB0020F8E730B502460B4600205E
:1017F00010E012F8014B6040002109E000F0010404
:101800001CB18C2484EA600000E040104C1CE1B262
:101810000829F3DB1C1EA3F10105EBB2E9D130BDB1
:101820002DE9F04105460E4690460027F748C47959
:1018300000BF1DE004EBC40101EB0412F44901EB0D
:10184000C200FFF7C3FF58B904EBC40101EB041257
:10185000EF4901EBC2003246294603F07EFC09E065
:10186000042C01DB002401E0601CC4B2781CC7B268
:10187000052FDFDB00BFBDE8F0812DE9F041002539
:101880000026002740F22441E24802F043F80028F5
:1018900058D04FF4801002F07DF940F22441DD4829
:1018A00002F062F8DB480488001D04880021DA4851
:1018B00002F041F9D84802F055F9C0F1C8073220CA
:1018C000D6490880C82F30D2D04890F8D000AA2836
:1018D0002BD1CE4890F8D100AA2826D1CB4890F839
:1018E000E00000F11104C948D030005DBB281CD1D4
:1018F000C648D030611C405CBB2816D1A01CC1B2C8
:10190000C248D030FFF770FF0646C048D030A11C57
:10191000405CB04209D1BD4890F8D250E01CC1B241
:101920002A46BA48D030FFF77BFFA11CB748D03019
:1019300003F058FCC820B8496C3908670121B64843
:1019400002F0F9F8BDE8F08110B54FF0007002F038
:101950002CF9C0B10120AD4948710021AE481430C6
:1019600002F0E9F84FF0807002F033F900BF402137
:10197000A84801F0B9FF0128F9D10020A849086062
:10198000A849C1F8900110BDA0484088401C9F495B
:10199000488070477CB500259C48407901287CD15F
:1019A0009A4840881E2803DA9848007900B97CBD1F
:1019B0000020964908714880002240F22441954851
:1019C00001F0C3FE002202219348143002F0BFF858
:1019D0008E488479002555E004EBC40101EB041224
:1019E000914901EBC200FFF7F1FE012842D187487F
:1019F00000218160C160018200F5CC70025D04EBC2
:101A0000C40000EB0413884800EBC301A0F5CD70BF
:101A100003F0A3FB04EBC40000EB0411824800EBCD
:101A2000C100002101604160018101207C49086002
:101A30007C49C1F8900100201021C823734A083264
:101A4000CDE900107349091D7348143000F012FFEE
:101A500075480A38015D7048143000F035FF0121E7
:101A60006C4801F066FE694884710020674908717E
:101A7000488009E0042C01DB002401E0601CC4B2B2
:101A8000681CC5B2052DA7DB00BF012202216248F8
:101A9000143002F05CF8012200E004E040F224413E
:101AA0005C4801F052FE00BF81E72DE9F05F064679
:101AB0000F4691469A460A9D4FF00008C346C82D2E
:101AC00001DDBDE8F09F002240F22441514801F0C1
:101AD0003CFE002202215048143002F038F84B48F6
:101AE00084794FF0000B7EE004EBC40101EB04129B
:101AF0004D4901EBC200FFF769FE002869D104EBF4
:101B0000C40000EB0412484800F83260311204EBC4
:101B1000C40000EB0412444800EBC20041703B4893
:101B2000017804EBC40000EB04123F4800EBC20054
:101B3000817004EBC40101EB04123B4901EBC201CB
:101B4000C81C0E22494603F008FB04EBC40101EB5C
:101B50000412354901EBC20101F111002A46514638
:101B600003F0FBFA04EBC40000EB04122E4800EB78
:101B7000C20205F111001754391204EBC40000EB46
:101B80000412294800EBC20205F112001154421C54
:101B9000D1B204EBC40202EB0413234A02EBC300EC
:101BA000FFF722FE804604EBC40101EB04121E493C
:101BB00001EBC20205F1130102F80180481CC1B219
:101BC00019480A38015511480078401C0F4908701F
:101BD0000DE0042C01DB002401E0601CC4B20BF119
:101BE000010000F0FF0BBBF1050FFFF67DAF00BF5A
:101BF000012202210848143001F0A9FF012240F21D
:101C00002441044801F0A1FD00BF5AE7981B0020C1
:101C100022210020004400406C0002400E00002001
:101C200090012142000021423A1D002010B5EAB087
:101C300004460E22E11C66A803F08FFA9DF8A52148
:101C400004F1110134A803F088FA122234A96C4877
:101C500003F083FABDF89E010002BDF89E1140EA30
:101C6000212080B2ADF89E01BDF898010002BDF8B8
:101C7000981140EA212080B2ADF898019DF8A401A6
:101C800004287CD19DF8D1009DF8D01040EA0120B5
:101C9000072804D00A280ED00B2871D117E09DF830
:101CA000A50134AB66AA4BF6BB3100904AF6AA20D8
:101CB00000F063FB75E09DF8A50134AB66AA4BF616
:101CC000BB3100904AF6AA2000F057FB69E09DF86E
:101CD000D700042812D14B48006830B902204A4985
:101CE000087000204949087005E000204649087046
:101CF0000220464908700120454908704248007892
:101D00008DF8D7009DF8A50134AB66AA4BF6BB3120
:101D100000904AF6AA2000F030FB3D48007880B3DE
:101D20000020ADF898018DF89A01002166A8C170D5
:101D3000017141714FF4D050ADF89E0135480078E3
:101D40008DF8A00133480088010A66A84172314825
:101D50000068010C66A881722E480068010E66A812
:101D6000C17204208DF8A40103208DF8A501002084
:101D70008DF808000C208DF80900012002E011E028
:101D80000EE00CE08DF80A009DF8A50102AB66AAF2
:101D90004BF6BB3100904AF6AA20FFF786FE00E022
:101DA00000BF00BF01206AB010BD10B5002400BF05
:101DB00022E004EBC40101EB0412174901EBC2005D
:101DC000FFF704FD012815D104EBC40101EB041257
:101DD000114901EBC200FFF729FF50B104EBC40029
:101DE00000EB04110C4800EBC100002101604160D0
:101DF000018103E0601CC4B2052CDADB00BF10BD1A
:101E00003B2500201C8121421000002011000020F1
:101E10001400002054000020222100202DE9F05F52
:101E200080460E46914600241CE016F814A060007F
:101E3000401C16F800B0504603F054F93038C5B2D3
:101E4000092D01DDE81FC5B2584603F04BF93038C3
:101E5000C7B2092F01DDF81FC7B207EB051008F85C
:101E60000400641C4C45E0DBBDE8F09FF0B5034680
:101E700000201EE00E5CF71706EB17773F1107F105
:101E800030050E5CF71706EB17773F11A6EB071727
:101E90003037FCB2392D01DDEE1DF5B2392C01DDF4
:101EA000E61DF4B203F81050012606EB40069C55DF
:101EB000401C9042DEDB002603F81260F0BD0246B3
:101EC000002100BF05E0505C08B101207047481CAC
:101ED000C1B20329F7DB0020F8E730B502460B4614
:101EE000002010E012F8014B6040002109E000F0F2
:101EF00001041CB18C2484EA600000E040104C1CFA
:101F0000E1B20829F3DB1C1EA3F10105EBB2E9D114
:101F100030BD10B50446002300BF2CE003EBC30125
:101F200001EB0312FE4901EBC200FFF7C8FF0128D5
:101F30001FD103EBC30000EB0311F94800EBC10014
:101F40008078A04215D1F7488079984210D10120BD
:101F5000F449087100204880487003EBC30000EB8F
:101F60000311EF4800EBC1000021016041600181D5
:101F700003E0581CC3B2052BD0DB00BF10BD2DE918
:101F8000F04305460E46174698460024A14600BF7A
:101F900036E0C4EBC402E4495018FFF790FF68BB79
:101FA0002912C4EBC402E0488154C4EBC4021044BB
:101FB0004570C4EBC401DC48084480F80280C4EBDF
:101FC000C401D9480844C7703112C4EBC402D648D2
:101FD00010440171C4EBC402D34810444671C4EBF1
:101FE000C402D14950180621FFF777FF8146C4EBA0
:101FF000C401CD48084480F8069003E0601CC4B2D8
:10200000052CC6DB00BFBDE8F0832DE9F041054695
:102010000E4617464FF00008C248C47900BF1FE0C3
:1020200004EBC40101EB0412C04901EBC200FFF74D
:1020300046FF58B904EBC40101EB0412BB4901EBA4
:10204000C2003246294603F088F80CE0042C01DB7C
:10205000002401E0601CC4B208F1010000F0FF0898
:10206000B8F1050FDCDB00BF3B4600224DF6DD5129
:102070004CF6CC40FFF783FFBDE8F0812DE9F0413D
:1020800000260027002540F22441A94801F042FC27
:1020900000287DD04FF4807001F07CFD40F2244197
:1020A000A34801F061FCA2480488001D04880021B7
:1020B000A04801F040FD9F4801F054FDC0F1C80563
:1020C000C82D33D2152D31D3964890F8E00000F199
:1020D0001104944890F8D000AA284FD1914890F864
:1020E000D100AA284AD18F48D030005DBB2845D105
:1020F0008C48D030611C405CBB283FD1A01CC1B2D1
:102100008848D030FFF7E9FE07468648D030A11C4A
:10211000405CB84232D1834890F8D260E01CC1B232
:1021200032468048D030FFF770FF27E0C82D25D217
:10213000072D23D37B4890F8D000CC281ED17948B6
:1021400090F8D100CC2819D1764890F8D400DD2839
:1021500014D1744890F8D500DD280FD106217148BC
:10216000D030FFF7BAFE6F4991F8D610884205D1FA
:102170006C4890F8D2603046FFF7CBFEA11C69484E
:10218000D03003F02FF8C8206A493039486300E0A6
:1021900003E00121674801F0CEFCBDE8F08110B5F5
:1021A000202001F002FDB8B101205E4948710021F4
:1021B0006048143801F0BFFC102001F00AFD00BF98
:1021C00040215B4801F090FB0128F9D15A48006892
:1021D000C0435A49C1F8900110BD52484088401C84
:1021E0005049488070477CB5002500BF37E0C5EBFB
:1021F000C5024D495018FFF762FE01282DD149480C
:102200000021816081818173C5EBC501464801448D
:1022100044480A6882608A88828189798173C5EB23
:10222000C50141480844002101608180817100207E
:102230001021C8233B4A0832CDE900103C49091D52
:102240003C48143800F016FB07213A48143800F0D7
:102250003BFB0020334948717CBD681CC5B2052D8D
:10226000C5DB304840881E2803DA2E48007900B9C3
:10227000F2E7FEF7AFFE00202A49087148800846C1
:102280008479002572E004EBC40101EB04122449B7
:1022900001EBC200FFF713FE01285ED121488079CF
:1022A000A0421CD11F484078401C1E494870084677
:1022B0004078022813DD0020487004EBC40000EBD6
:1022C0000411174800EBC100002101604160018149
:1022D000042C01DB002401E0601CC4B244E011487E
:1022E00000218160C160018200F5CC70025D04EBC9
:1022F000C40000EB04130A4800EBC301A0F5CD7045
:1023000002F02BFF00201021C823064A0832CDE935
:1023100000100749091D0748143800F0ABFA0FE018
:10232000100A00206E080020E0110020F80D0020A7
:10233000004800403000024090812142008021424C
:10234000E048015DE04800F0BFFAE04884710020F9
:10235000DE494871087148800AE0042C01DB002442
:1023600001E0601CC4B200BF681CC5B2052D8ADB49
:1023700000BFFEF753FE00BF6EE72DE9F05F064693
:102380000F4691469A460A9D4FF0000BD846C82D3D
:1023900001DDBDE8F09FFEF71DFECC4884794FF0CB
:1023A000000B88E004EBC40101EB0412C5490A31BB
:1023B00001EBC200FFF783FD002872D104EBC400DB
:1023C00000EB0412BF480A3000F83260311204EB0F
:1023D000C40000EB0412BB480A3000EBC20041709D
:1023E000BA48017804EBC40000EB0412B5480A3087
:1023F00000EBC200817004EBC40101EB0412B1498F
:102400000A3101EBC201C81C0E22494602F0A5FEAA
:1024100004EBC40101EB0412AA490A3101EBC20129
:1024200001F111002A46514602F097FE04EBC40068
:1024300000EB0412A3480A3000EBC20205F11100C0
:102440001754391204EBC40000EB04129D480A3003
:1024500000EBC20205F112001154421CD1B204EB90
:10246000C40202EB0413974A0A3202EBC300FFF7DF
:1024700034FD804604EBC40101EB041291490A319A
:1024800001EBC20205F1130102F80180481CC1B240
:102490008C4801558D480078401C8C4908700EE02E
:1024A000FFE7042C01DB002401E0601CC4B20BF147
:1024B000010000F0FF0BBBF1050FFFF673AF00BF8B
:1024C000FEF7ACFD00BF64E730B5E9B004460D4649
:1024D0000E22E11C65A802F040FE9DF8A12104F146
:1024E000110133A802F039FEBDF89A010002BDF8CF
:1024F0009A1140EA212080B2ADF89A01BDF894010A
:102500000002BDF8941140EA212080B2ADF8940198
:102510009DF8A00104286FD19DF8CD009DF8CC1046
:1025200040EA01200C2868D2DFE800F099064199C2
:102530004D4E5A996879818D9DF8CE0040006449CE
:1025400008809DF8A10133AB65AA4BF6BB31009022
:102550004AF6AA20FFF73AF80020ADF894018DF86A
:102560009601002165A8C170017141710020ADF88C
:102570009A018DF89C0165A841728172C172042094
:102580008DF8A00102208DF8A10100208DF8040033
:1025900001208DF805009DF8A10101AB65AA4BF65D
:1025A000BB3100904AF6AA20FFF7E7FE58E09DF8FD
:1025B000A10133AB65AA4BF6BB3100904AF6AA20C5
:1025C000FFF704F84CE04BE09DF8A10133AB65AA9E
:1025D0004BF6BB3100904AF6AA20FEF7F7FF3FE02A
:1025E0009DF8A10133AB65AA4BF6BB3100904AF6CA
:1025F000AA20FEF7EBFF33E033E030E0012035495D
:1026000008707820324908804EF660203249086010
:102610009DF8CE00486000203049087020E002207C
:102620002C4908709DF8CE002B49486018E09DF8B1
:10263000A10133AB65AA4BF6BB3100904AF6AA2044
:10264000FFF733FA0CE09DF8A10133AB65AA4BF616
:10265000BB3100904AF6AA20FFF727FA00E000BF3E
:1026600000BF012069B030BD10B5002400BF25E0D7
:1026700004EBC40101EB0412194901EBC200FFF79E
:102680001EFC012818D10F4A521D115D04EBC40233
:1026900002EB0413124A02EBC300FFF715FF50B11F
:1026A00004EBC40000EB04110D4800EBC100002155
:1026B00001604160018103E0601CC4B2052CD7DBDE
:1026C00000BF10BD060A00201C0002406E0800205A
:1026D0000C0000200A0000206000002009000020FB
:1026E000F80D002008B50121082000F0EFFE0121BF
:1026F000102000F0EBFE0121084600F0E7FE01216A
:10270000524800F0F8FC0121514800F0F4FC41F27D
:102710003A00ADF8000010208DF8030003208DF87A
:10272000020069464B4800F015FC4FF48050ADF8AC
:10273000000010208DF8030003208DF80200694688
:10274000454800F007FC0120444908600020444946
:10275000C1F890014349086008BD08B5012108206F
:1027600000F0B4FE0121042000F0B0FE1020ADF80E
:1027700000008DF8030003208DF8020069463A48F6
:1027800000F0E8FB4FF40450ADF8000010208DF885
:10279000030003208DF8020069462E4800F0DAFBA2
:1027A0008020ADF8000048208DF8030069462948D4
:1027B00000F0D0FB0220ADF8000048208DF80300A7
:1027C0006946244800F0C6FB002026491431086001
:1027D00001202349C1F8B40100202449086024499C
:1027E000C1F8900108BD1FB50121102000F06EFE58
:1027F0004020ADF8000048208DF8030069461648D7
:1028000000F0A8FB002015491439086006210220B9
:1028100000F0B6FC4020029000208DF80C000C2047
:102820008DF80D0001208DF80E0002A802F0FCF8D2
:1028300017208DF8040001208DF805008DF80600A2
:102840008DF8070001A800F0BCFA1FBD00013000A0
:1028500000023000000C014000100140B001224293
:10286000008021428C8121420008014090012142D8
:10287000000021422DE9F04707460C4615461E464A
:10288000DDE908890021384601F055F9384601F0A4
:1028900085F8134804604560C0F80880C6600020D1
:1028A0000F4908618020486100208861C86108469E
:1028B000C0F820904FF440504862002088623846AB
:1028C00001F00EF9BDE8F08770B504460D462946C3
:1028D000204601F045F90121204601F02CF970BD98
:1028E000502500207FB505460C460121084600F022
:1028F000FAFDADF80850ADF804400020ADF80A002C
:10290000ADF8060001A94FF0804001F045FA012220
:102910001146900701F0B7FD1C208DF80000002043
:102920008DF8010001208DF802008DF80300684643
:1029300000F047FA0121880701F08AFD7FBD7FB5CD
:1029400005460C460121022000F0CDFDADF80850EF
:10295000ADF804400020ADF80A00ADF8060001A96A
:10296000704801F019FA012211466E4801F08BFD02
:102970001D208DF8000001208DF801008DF8020067
:102980008DF80300684600F01CFA0121654801F04B
:102990005FFD7FBD30B589B004460D460121480377
:1029A00000F094FD0121102000F090FD8020ADF892
:1029B000200018208DF8230003208DF8220008A99C
:1029C000594800F0C7FAADF81840ADF8145000208F
:1029D000ADF81A00ADF8160005A9544801F0DCF96D
:1029E0007020ADF804000120ADF8060032206043ED
:1029F000642190FBF1F080B2ADF80A000220ADF83E
:102A00000C0001A9494801F046FA0821474801F0A5
:102A100058FE0121454801F01BFE0121434801F009
:102A200023FD0021414801F013FD09B030BD10B570
:102A300000214FF0804001F00BFD10BD10B50121C9
:102A4000880701F005FD10BD10B50121880701F0D0
:102A5000C8FF00285AD00121880701F0D3FFFDF7F5
:102A6000D7FB33480088401C31490880084600885D
:102A700063284BDB00200880FFF7AFFBFEF7CFFC9D
:102A8000FEF782FF2B48008820B92A480088294990
:102A9000088004E027480088401E26490880264810
:102AA0000088401C2449088024480088401C234991
:102AB00008802348006820B121480068401E204952
:102AC000086020480088401C1E490880084600888D
:102AD000B0F5FA7F1ADB002008801B48008868B137
:102AE00019480088401E184908801548006830B110
:102AF00016480068C0431649C1F8B40106E01348FF
:102B000028380068C0431249C1F88C0110BD10B5C7
:102B10000121044801F065FF18B10121014801F0CD
:102B200071FF10BD0004004000100140003401405E
:102B300038000020040000200600002012000020C1
:102B4000600000203A0000200C000020B4812142E7
:102B5000008021420146088870472DE9F041054672
:102B60000E461746002407E036F81410284602F0F7
:102B700042F9AD1C601C84B2BC42F5DBBDE8F081BB
:102B800030B503460C461546002207E01846FFF70D
:102B9000E1FF24F812009B1C501C82B2AA42F5DB14
:102BA00030BD2DE9F05F80468A461746B8F1006FC8
:102BB00002D33748804501D3BDE8F09F01F0D3FF31
:102BC000A8F1006B4FEADB25CBF34909C9F5806416
:102BD000A74200DC3C464DE04FF0006101EBC52010
:102BE0004A142C49FFF7CCFF00260BE009EB060046
:102BF000284931F810004FF6FF71884200D003E0F9
:102C0000701C86B2A642F1DB00BFA6421BDA4FF071
:102C1000006101EBC52001F0EBFF002608E03AF867
:102C2000160006EB09011B4A22F81100701C86B23F
:102C3000A642F4DB4FF0006101EBC5204A141549B0
:102C4000FFF78BFF04E0224651464046FFF785FF21
:102C5000A74200D10FE06D1C4FF000090AEB440AB7
:102C6000A044381B87B2B7F5806F02DD4FF4806453
:102C700000E03C46B0E700BF01F081FF00BF9BE7EA
:102C800013B50446012201A92046FFF78AFF1CBDA7
:102C9000000008087C25002010B56FF0040000F04B
:102CA000DAF82E4800682E49B0FBF1F02D49087083
:102CB0000846007800EB4001C1EBC0104FF6FF71F1
:102CC00001EAC0002849088010BD0146254A127853
:102CD0004A434FF0E0235A6100229A611A46126972
:102CE00042F001021A6100BF4FF0E022106900F0CB
:102CF00001021AB100F48032002AF5D04FF0E02230
:102D0000126922F001024FF0E0231A6100229A6159
:102D100070470146144A12884A434FF0E0235A6133
:102D200000229A611A46126942F001021A6100BF3C
:102D30004FF0E022106900F001021AB100F4803275
:102D4000002AF5D04FF0E022126922F001024FF084
:102D5000E0231A6100229A617047000024000020DD
:102D600000127A003C0000203E00002010B54FF415
:102D7000A06000F021F810BD0948804709480047CD
:102D8000FEE7FEE7FEE7FEE7FEE7FEE7FEE7FEE71B
:102D9000FEE7FEE704480549054A064B7047000078
:102DA0005F0A000831010008E02D0020E037002014
:102DB000E02F0020E02F002031490143314A11600B
:102DC000704770B5002100230F22C47804B32D4C46
:102DD000246804F4E064C4F5E064210AC1F104034A
:102DE000CA40447804FA03F184781440214309016D
:102DF000254C0678A155047804F01F050124AC4049
:102E000005786D11AD0005F1E025C5F8004109E038
:102E1000047804F01F050124AC401C4D067876119F
:102E200045F8264070BD1A4A0A400243154B1B1F45
:102E30001A60704739B1134A121D12680243114BD0
:102E40001B1D1A6006E00F4A121D126882430D4BCB
:102E50001B1D1A607047042808D14FF0E021096952
:102E600041F004014FF0E022116107E04FF0E02152
:102E7000096921F004014FF0E02211617047000060
:102E80000000FA050CED00E000E400E080E100E065
:102E900080FFFF1F10B50446CC48844208D10121B1
:102EA000042000F02DFB0021042000F029FB46E067
:102EB000C748844208D10121082000F021FB0021ED
:102EC000082000F01DFB3AE0C248844208D10121ED
:102ED000102000F015FB0021102000F011FB2EE067
:102EE000BD48844208D10121202000F009FB0021C7
:102EF000202000F005FB22E0B848844208D10121DF
:102F0000402000F0FDFA0021402000F0F9FA16E020
:102F1000B348844208D10121802000F0F1FA002159
:102F2000802000F0EDFA0AE0AE48844207D101218A
:102F3000801500F0E5FA0021A01500F0E1FA10BDBF
:102F400010B50121084600F0DBFA0021012000F055
:102F5000D7FA10BD2DE9F0410246002500260020D9
:102F600000230024002791F803C00CF00F0591F80E
:102F700003C00CF0100CBCF1000F03D091F802C09C
:102F80004CEA050591F800C0BCF1000F31D014687F
:102F900000202BE04FF0010C0CFA00F3B1F800C058
:102FA0000CEA03069E4220D183004FF00F0C0CFA6E
:102FB00003F7BC4305FA03FC4CEA040491F803C090
:102FC000BCF1280F06D14FF0010C0CFA00FCC2F83E
:102FD00014C00AE091F803C0BCF1480F05D14FF0CE
:102FE000010C0CFA00FCC2F810C0401C0828D1D318
:102FF0001460B1F800C0BCF1FF0F34DD546800204C
:103000002EE000F1080C4FF0010808FA0CF3B1F8BB
:1030100000C00CEA03069E4221D183004FF00F0C42
:103020000CFA03F7BC4305FA03FC4CEA040491F8DC
:1030300003C0BCF1280F05D100F1080C08FA0CF808
:10304000C2F8148091F803C0BCF1480F07D100F119
:10305000080C4FF0010808FA0CF8C2F81080401C68
:103060000828CED35460BDE8F0814FF6FF7101808F
:10307000022181700421C1707047024600209368CC
:103080000B400BB1012000E000207047014688682A
:1030900080B2704702460020D3680B400BB101207C
:1030A00000E0002070470146C86880B270470161A7
:1030B0007047416170470AB1016100E041617047AA
:1030C000C16070474FF480320A438261816182613E
:1030D00082698269704702460020434B18684FF6A8
:1030E0008073184040EA021008433F4B1860704755
:1030F0003E49C8617047F0B50A460023002400210C
:10310000002500F00046B6F1004F02D1364EF169BD
:1031100001E0354E7168C0F3034583B200F44016F8
:10312000B6F5401F08D121F070612F4E766826F069
:1031300070662D4F7E6012E000F48016B6F5801F99
:1031400006D1032606FA05F4A14341F0706106E0BA
:10315000460D360103FA06F6B14341F0706122B123
:10316000460D360103FA06F6314300F00046B6F18B
:10317000004F02D11C4EF16101E01B4E7160F0BDA9
:1031800030B500228B071C0F0F2303FA04F2164BF5
:1031900008338C1053F824309343134C08348D10AB
:1031A00044F8253023468C1053F824308C07240F24
:1031B00000FA04F423430C4C08348D1044F82530F5
:1031C00030BD0A49DC31086070470000000801404A
:1031D000000C0140001001400014014000180140A3
:1031E000001C01400020014000000140000020427E
:1031F000DF48006840F00100DD490860084640688B
:10320000DC490840DA49486008460068DA49084065
:10321000D74908600846006820F480200860084606
:10322000406820F4FE0048604FF41F00886070473B
:10323000CF49096821F48031CD4A116011460968EF
:1032400021F480211160B0F5803F03D0B0F5802FCC
:103250000ED106E0C649096841F48031C44A1160C4
:1032600007E0C349096841F4A021C14A116000E0A8
:1032700000BF00BF704710B50146002200230020A8
:103280004A11012A02D1BA4C236806E0022A02D16F
:10329000B74C236A01E0B64C636A01F01F020124B7
:1032A00094401C400CB1012000E0002010BD38B556
:1032B000002000900024002500BF3120FFF7DBFF35
:1032C00005460098401C00900098B0F5A06F01D012
:1032D000002DF2D03120FFF7CEFF08B1012400E02D
:1032E0000024204638BD01460020A14A106820F085
:1032F000F80040EAC10010607047A04908607047BC
:10330000024600209A4B586820F47C1042EA0103E0
:103310001843974B586070479849086670470146B4
:103320000020934A506820F0030008435060704723
:103330008F48406800F00C007047014600208C4A1E
:10334000506820F0F00008435060704701460020AC
:10335000874A506820F4E060084350607047014697
:103360000020834A506820F4605040EAC100506059
:10337000704729B17E4A527A02437D4B5A7204E06B
:103380007B4A527A82437A4B5A7270477B49D831D2
:103390000860704701460020754A506820F440409C
:1033A0000843506070470021714A20321170704A02
:1033B00082F82010012802D004280AD104E001215B
:1033C0006B4A2032117005E00521694A20321170E4
:1033D00000E000BF00BF704769490860704764495A
:1033E000096A0143624A11627047654944390860BD
:1033F000704730B500210022002400235C4D6D6829
:1034000005F00C0121B1042905D0082923D105E0DC
:103410005C4D056022E05B4D05601FE0544D6D681A
:1034200005F47012524D6D6805F48034022505EBE9
:1034300092421CB9544D554305600BE04C4D6D68EC
:1034400005F400351DB1504D5543056002E04D4D6A
:103450005543056002E04B4D056000BF00BF444D81
:103460006D6805F0F0010909484D6B5C0568DD40A9
:1034700045603F4D6D6805F4E061090A434D6B5CA2
:103480004568DD4085603A4D6D6805F46051C90AB4
:103490003E4D6B5C4568DD40C560354D6D6805F49B
:1034A0004041890B3A4D6B5CC568B5FBF3F505618E
:1034B00030BD29B12E4A526902432D4B5A6104E0B6
:1034C0002B4A526982432A4B5A61704729B1284AD4
:1034D00092690243264B9A6104E0254A926982432D
:1034E000234B9A61704729B1214AD2690243204B8C
:1034F000DA6104E01E4AD26982431D4BDA617047EB
:1035000029B11B4AD2680243194BDA6004E0184A19
:10351000D2688243164BDA60704729B1144A1269A7
:103520000243134B1A6104E0114A12698243104BA3
:103530001A61704712494039086070470F49C864E2
:1035400070470B49C87170470948406A40F0807065
:1035500007494862704701460020054A92680A40C0
:103560000AB1012000E000207047014988727047CD
:10357000001002400000FFF8FFFFF6FE000042428C
:103580008004424200127A0000093D004000002001
:103590005000002010B50446FB48844209D10121A7
:1035A0008803FFF7ADFF00214FF48040FFF7A8FF2D
:1035B00032E0F648844209D101214804FFF7ADFF0B
:1035C00000214FF40030FFF7A8FF25E0F0488442C7
:1035D00009D101218804FFF7A0FF00214FF48020CA
:1035E000FFF79BFF18E0EB48844209D10121C80492
:1035F000FFF793FF00214FF40020FFF78EFF0BE051
:10360000E548844208D101210805FFF786FF002123
:103610004FF48010FFF781FF10BD2DE9F04786B011
:1036200005460E460024A24600BFA1460027B089E9
:1036300000B100BF2F462C8A4CF6FF700440F08882
:1036400004432C82AC894EF6F3100440B0883189D3
:103650000843718908430443AC81AC8A4FF6FF40AC
:103660000440B0890443AC8201A8FFF7C2FEC648FB
:10367000874202D1DDF810A001E0DDF80CA0A88996
:1036800000F4004040B10AEBCA0000EB0A103168B8
:103690004900B0FBF1F807E00AEBCA0000EB0A10A2
:1036A00031688900B0FBF1F86420B8FBF0F0040148
:1036B0002009642101FB1089A88900F4004040B171
:1036C000322000EBC900B0FBF1F000F0070004432A
:1036D00008E0322000EB09106421B0FBF1F000F0AB
:1036E0000F0004432C8106B0BDE8F0874FF416515B
:1036F000016000218180C18001810C214181002174
:103700008181704710B502460020108A4FF2FF03F6
:1037100018400B884C8823438C882343CC88234350
:103720001843108210BD0021018041808180C1803A
:10373000704721B1828942F40052828104E082897B
:103740004DF6FF731A4082817047F0B5034600249E
:1037500000260025002040F66A17B94200D100BFBC
:103760001846C1F3421401F01F06012707FA06F5B7
:10377000012C01D10C3004E0022C01D1103000E00A
:1037800014301AB107682F43076002E00768AF439F
:103790000760F0BD1AB1838A0B43838202E0838AFB
:1037A0008B4383827047028A4FF6F0731A4002827D
:1037B000028A0A430282704782894FF2FF731A40DD
:1037C000828182890A438281704721B1828942F0D5
:1037D0000202828104E082894FF6FD731A408281E1
:1037E0007047028A4FF6DF731A400282028A0A4348
:1037F0000282704721B1028A42F48042028204E0D0
:10380000028A4BF6FF731A4002827047C1F3080226
:103810008280704701468888C0F30800704781891C
:1038200041F0010181817047028BD2B20283028B89
:1038300042EA012202837047028B02F47F42028334
:10384000028B0A430283704721B1828A42F0200230
:10385000828204E0828A4FF6DF731A4082827047C8
:1038600021B1828A42F01002828204E0828A4FF6FD
:10387000EF731A408282704721B1828A42F00802B7
:10388000828204E0828A4FF6F7731A408282704780
:1038900021B1828942F40042828103E08289C2F32D
:1038A0000E028281704721B1828A42F400628282D4
:1038B00004E0828A4FF2FF731A4082827047828A44
:1038C0004FF6FB731A408282828A0A4382827047D3
:1038D00021B1828A42F00202828204E0828A4FF69B
:1038E000FD731A408282704702460020B1F5007FC6
:1038F00000D100BF13880B400BB1012000E0002075
:10390000704701F40072B2F5007F00D100BFCA43D6
:103910000280704770B50246002400230025002075
:1039200040F66A16B14200D100BFC1F3421501F062
:103930001F03012606FA03F3012D02D196893340B5
:1039400006E0022D02D1168A334001E0968A334008
:103950000C12012606FA04F41688344013B10CB197
:10396000012000E0002070BD10B50022002340F6C9
:103970006A14A14200D100BF0A1201249440A3B2EC
:10398000DC43048010BD00000038014000440040CA
:1039900000480040004C00400050004001684FF6D5
:1039A000FE72114001600021016041608160C160D0
:1039B0008D49884208D18C490839496841F00F0186
:1039C000894A083A51608AE087491431884208D10F
:1039D00085490839496841F0F001834A083A516045
:1039E0007DE081492831884208D17F4908394968FA
:1039F00041F470617C4A083A516070E07A493C3188
:103A0000884208D178490839496841F47041764ABA
:103A1000083A516063E074495031884208D17249D4
:103A20000839496841F470216F4A083A516056E0FC
:103A30006D496431884208D16B490839496841F4BD
:103A40007001694A083A516049E067497831884213
:103A500008D165490839496841F07061624A083AFD
:103A600051603CE06149884206D1011F096841F07C
:103A70000F01021F116032E05C491431884208D105
:103A80005A49091F096841F0F001584A121F116094
:103A900025E056492831884208D15449091F096850
:103AA00041F47061514A121F116018E04F493C31D6
:103AB000884208D14D49091F096841F470414B4AB9
:103AC000121F11600BE049495031884207D1474924
:103AD000091F096841F47021444A121F11607047A0
:103AE00010B50022026847F6F0739A430C6A8B689F
:103AF00023430C6923434C6923438C692343CC69DA
:103B000023434C6A23438C6A23431A430260CB68E5
:103B100043600B6883604B68C36010BD0021016087
:103B200041608160C160016141618161C161016287
:103B300041628162704721B1026842F00102026075
:103B400004E002684FF6FE731A40026070471AB133
:103B500003680B43036002E003688B430360704714
:103B6000416070470146486880B2704701460020B6
:103B7000002201F080531BB11C4B083B1A6802E085
:103B8000194B083B1A6802EA01030BB1012000E05F
:103B90000020704700F0805119B11449091F0860D6
:103BA00002E01149083948607047014600200022B0
:103BB00001F080531BB10D4B083B1A6802E00A4B21
:103BC000083B1A6802EA01030BB1012000E0002063
:103BD000704700F0805119B10449091F086002E0E4
:103BE0000149083948607047080002400804024053
:103BF00010B50446FE48844208D10121C014FFF7E5
:103C00007FFC0021E014FFF77BFCC4E0B4F1804F9F
:103C100008D101210846FFF780FC00210120FFF7B1
:103C20007CFCB8E0F348844208D101210220FFF770
:103C300074FC00210220FFF770FCACE0EE488442E7
:103C400008D101210420FFF768FC00210420FFF7C0
:103C500064FCA0E0E948844208D101210820FFF774
:103C60005CFC00210820FFF758FC94E0E448844203
:103C700008D101211020FFF750FC00211020FFF790
:103C80004CFC88E0DF48844208D101212020FFF766
:103C900044FC00212020FFF740FC7CE0DA4884420D
:103CA00008D101214014FFF72BFC00216014FFF71D
:103CB00027FC70E0D548844209D10121C804FFF7F0
:103CC0001FFC00214FF40020FFF71AFC63E0D048EE
:103CD000844209D101210805FFF712FC00214FF4AD
:103CE0008010FFF70DFC56E0CA48844209D101213B
:103CF0004805FFF705FC00214FF40010FFF700FC1A
:103D000049E0C548844208D101214020FFF705FC65
:103D100000214020FFF701FC3DE0C048844208D16B
:103D200001218020FFF7F9FB00218020FFF7F5FB40
:103D300031E0BB48844208D101218015FFF7EDFB3B
:103D40000021A015FFF7E9FB25E0B648844209D120
:103D500001210804FFF7D4FB00214FF48030FFF766
:103D6000CFFB18E0B048844209D101214804FFF795
:103D7000C7FB00214FF40030FFF7C2FB0BE0AB485C
:103D8000844208D101218804FFF7BAFB00214FF4D7
:103D90008020FFF7B5FB10BD00220288944B9842AB
:103DA0000ED0994B98420BD0B0F1804F08D0914B78
:103DB000984205D0904B984202D0904B984204D143
:103DC0004FF68F731A404B881A438D4B984207D099
:103DD0008C4B984204D04FF6FF431A40CB881A43CD
:103DE00002808B8883850B880385814B98420BD09A
:103DF000854B984208D08B4B984205D08A4B98420D
:103E000002D08A4B984201D10B7A03860123838228
:103E1000704770B5002400220023058C4FF6FE7613
:103E200035400584028C8388048B4FF68F752C40B7
:103E3000B51E2C400D882C43751E2A400D892A433F
:103E40004D882A436A4DA8420BD06F4DA84208D036
:103E5000744DA84205D0744DA84202D0734DA842BB
:103E600013D14FF6F7752A404D892A434FF6FB755B
:103E70002A408D882A434FF6FF652B404FF6FF55A9
:103E80002B408D892B43CD892B4383800483CD88A0
:103E90008586028470BD70B5002400220023058C45
:103EA0004FF6EF7635400584028C8388048B48F604
:103EB000FF752C404FF6FF452C400D884FF6FF76DE
:103EC00006EA05252C434FF6DF752A400D8906EAE0
:103ED00005152A434D8806EA05152A43444DA84294
:103EE00002D0494DA8421DD14FF67F752A404D8919
:103EF0004FF6FF7606EA05152A434FF6BF752A40AE
:103F00008D8806EA05152A434FF6FF352B404FF200
:103F1000FF752B408D8906EA85052B43CD8906EA7E
:103F200085052B4383800483CD880587028470BD7B
:103F300070B5002400220023058C4FF6FF66354043
:103F40000584028C8388848B4FF68F752C404FF646
:103F5000FC752C400D882C434FF6FF552A400D89E7
:103F60004FF6FF7606EA05252A434D8806EA052521
:103F70002A431F4DA84202D0234DA8421DD14FF223
:103F8000FF752A404D894FF6FF7606EA05252A433C
:103F90004FF6FF352A408D8806EA05252A434EF65E
:103FA000FF752B404DF6FF752B408D8906EA0515F0
:103FB0002B43CD8906EA05152B4383808483CD8866
:103FC0008587028470BD70B5002200230024058C13
:103FD0004EF6FF7635400584038C8488828B48F644
:103FE000FF752A404FF6FF452A400D8820E000006B
:103FF000002C01400004004000080040000C00407C
:10400000001000400014004000340140004C01400A
:10401000005001400054014000180040001C0040C6
:1040200000200040004001400044014000480140A1
:104030004FF6FF7606EA05252A434DF6FF752B401D
:104040000D8906EA05352B434D8806EA05352B43D5
:10405000FA4DA84202D0FA4DA84208D14BF6FF759E
:104060002C408D894FF6FF7606EA85152C43848017
:104070008283CD88A0F84050038470BD828B4FF2BC
:10408000FF331A408283828B4FF6FF7303EA0123CA
:104090001A4382837047F0B50C4615460022002172
:1040A0000026078C4EF6FF7C07EA0C070784828BFC
:1040B000018C4FF6FF7707EA043640F6FF473A4097
:1040C0004FF6FF7707EA05273A434FF6FF7707EAEF
:1040D00003373A43D94FB8420ED0D94FB8420BD02C
:1040E000B0F1804F08D0D74FB84205D0D64FB84274
:1040F00002D0D64FB84206D14DF6FF77394046F48C
:104100008057394305E047F6FF57394044F480575C
:10411000394382830184F0BD828B4FF6F3731A40DA
:104120008283828B0A4382837047F0B50C46154622
:10413000002200210026078C4FF6FF6C07EA0C07CF
:104140000784828B018C4FF6FF7707EA04264FF62F
:104150000C773A404FF6FF7707EA03172F433A43AD
:10416000B64FB8420ED0B64FB8420BD0B0F1804F28
:1041700008D0B44FB84205D0B34FB84202D0B34FC5
:10418000B84206D14FF6FF57394046F4807739439D
:1041900005E04FF2FF57394044F48077394382837A
:1041A0000184F0BD028B4FF2FF331A400283028B71
:1041B0004FF6FF7303EA01231A4302837047F0B5F9
:1041C0000C461546002200210026078C4FF6EF7C96
:1041D00007EA0C070784028B018C4FF6FF7707EA8A
:1041E000041640F6FF473A404FF6FF7707EA0337D9
:1041F0003A434FF6FF7707EA05273A438F4FB84215
:104200000ED08F4FB8420BD0B0F1804F08D08D4FF9
:10421000B84205D08C4FB84202D08C4FB84206D17C
:104220004FF6DF77394046F01007394305E04FF687
:104230005F77394044F01007394302830184F0BDB1
:10424000028B4FF6F3731A400283028B0A430283F8
:104250007047F0B50C46154600220021068C4FF63B
:10426000FE773E400684028B018C4FF60C7632407E
:104270007E1C06EA03162E433243704EB0420ED027
:104280006F4EB0420BD0B0F1804F08D06D4EB042AF
:1042900005D06D4EB04202D06C4EB04206D14FF602
:1042A000FD76314044F00106314305E04FF6F576E6
:1042B000314044F00106314302830184F0BD70B502
:1042C00005460C465D4885420ED05D4885420BD0C0
:1042D000B5F1804F08D05B48854205D05A488542E9
:1042E00002D05A48854200D100E000BF208850B972
:1042F0002389A28861882846FFF7ABFFE18828461A
:10430000FFF79EFF25E0208804280AD12389A28890
:1043100061882846FFF753FFE1882846FFF742FFF0
:1043200017E0208808280AD12389A28861882846B6
:10433000FFF7FBFEE1882846FFF7EEFE09E0238940
:10434000A28861882846FFF7A6FEE1882846FFF785
:1043500095FE70BD2DE9F04105460C46002601276B
:10436000608808B9022600E00026A088012801D153
:10437000022700E001272088A0B92389A28861884C
:104380002846FFF766FFE1882846FFF759FF238993
:104390003A4631462846FFF712FFE1882846FFF7E4
:1043A00001FF13E02389A28861882846FFF707FFF1
:1043B000E1882846FFF7F6FE23893A46314628462B
:1043C000FFF747FFE1882846FFF73AFFBDE8F08195
:1043D0000A884B881A438B881A43CB881A430B8967
:1043E0001A434B891A438B891A43A0F8442070471B
:1043F0004FF6FF71818000210180C18041800172F0
:1044000070470021018041808180C180018141810C
:104410008181C1817047002101804180012181801B
:104420000021C1800181704700210180418081808D
:10443000C18001814181818170470000002C0140D1
:10444000003401400004004000080040000C00401F
:1044500021B1028842F00102028004E002884FF696
:10446000FE731A400280704731B1B0F8442042F424
:104470000042A0F8442005E0B0F84420C2F30E0248
:10448000A0F8442070471AB183890B43838102E06E
:1044900083898B43838170478182704741EA02039D
:1044A000A0F8483070471AB183890B43838102E03A
:1044B00083898B438381704701894FF6F8721140DD
:1044C000018170470A46002101894FF68F73194018
:1044D00011430181704730B504460D4629462046F8
:1044E000FFF7F0FF208940F00700208130BD2DE963
:1044F000F04104460D4616461F46602D06D13B4648
:10450000012231462046FFF75AFE05E03B460122D4
:1045100031462046FFF79DFE29462046FFF7D2FF91
:10452000208940F007002081BDE8F08130B50C46BD
:1045300000210189C9B24FF6FF7505EA032515432D
:1045400025432943018130BD2DE9F04105460E4642
:1045500017469846002443463A4631462846FFF718
:10456000E5FF2C894FF6F870044044F007044FF63D
:104570008F70044044F070042C81BDE8F081F0B5E8
:1045800004460D4616461F463B46324629462046FF
:10459000FFF7CCFF208940F480402081F0BD0185E9
:1045A000828270470A46002101884FF68F731940B6
:1045B000114301807047F0B50C4615461E46002198
:1045C000002200230189028B038C4FF6F8773940D3
:1045D00021434FF6FC473A4040F201173A434FF669
:1045E000DD773B404FF6FF7707EA06172F433B4343
:1045F000018102830384F0BD0A460021018B4FF63E
:104600008F7319401143018370470A460021018BC3
:1046100048F6FF7319404FF6FF7303EA022319436C
:10462000018370470A460021818B4FF68F73194032
:104630001143818370470A460021818B48F6FF733E
:1046400019404FF6FF7303EA022319438183704731
:1046500021B1028842F08002028004E002884FF615
:104660007F731A400280704721B1828842F00402B1
:10467000828004E082884FF6FB731A408280704784
:1046800021B1828842F00802828004E082884FF6DD
:10469000F7731A408280704721B1828842F001028C
:1046A000828004E082884FF6FE731A408280704751
:1046B0000A460021018B4FF6F7731940114301831D
:1046C00070470A460021018B4FF2FF7319404FF6E5
:1046D000FF7303EA02231943018370470A4600214E
:1046E000818B4FF6F77319401143818370470A4657
:1046F0000021818B4FF2FF7319404FF6FF7303EADD
:1047000002231943818370470A460021018B4FF62B
:10471000FB7319401143018370470A460021018B46
:104720004FF6FF3319404FF6FF7303EA0223194394
:10473000018370470A460021818B4FF6FB731940B5
:104740001143818370470A460021818B4FF6FF3366
:1047500019404FF6FF7303EA022319438183704720
:104760000A460021018B4FF67F73194011430183E4
:1047700070470A460021018BC1F30E014FF6FF730B
:1047800003EA02231943018370470A460021818B03
:104790004FF67F7319401143818370470A46002109
:1047A000818BC1F30E014FF6FF7303EA0223194315
:1047B000818370470A460021018C4FF6FD73194032
:1047C0001143018470470A460021018C4FF6F773AC
:1047D00019401143018470470A460021018C4FF6AD
:1047E000DF7319404FF6FF7303EA02131943018484
:1047F00070470A460021018C4FF67F7319404FF62F
:10480000FF7303EA02131943018470470A4600212B
:10481000018C4FF6FF5319404FF6FF7303EA022352
:104820001943018470470A460021018C4FF2FF733F
:1048300019404FF6FF7303EA0223194301847047BE
:104840000A460021018C4DF6FF7319404FF6FF73A5
:1048500003EA023319430184704730B50023012471
:104860008C40A3B2048C9C430484048C02FA01F5AE
:10487000ADB22C43048430BD30B5002304248C40F9
:10488000A3B2048C9C430484048C02FA01F5ADB2FB
:104890002C43048430BD70B5034600200024184624
:1048A000183001258D40ACB21D8CA5431D8409B183
:1048B000082909D100EB6100056825F07005056045
:1048C0000568154305600EE00D1FC5F34E0528442D
:1048D000056825F4E045056005684FF6FF7606EAB1
:1048E00002263543056070BD21B1028842F0020204
:1048F000028004E002884FF6FD731A400280704780
:1049000021B1028842F00402028004E002884FF6DE
:10491000FB731A400280704721B1828842F0800206
:10492000828004E082884FF67F731A40828070474D
:1049300002884FF6F7731A40028002880A43028009
:10494000704782884FF68F731A40828082880A43AC
:104950008280704702894FF6F8731A4002810289FB
:104960000A430281704702894FF67F731A40028121
:1049700002890A43028170478184704781857047AC
:10498000818670470187704781877047A0F8401083
:10499000704702884FF6FF431A40028002880A439C
:1049A000028070470146888E70470146088F704725
:1049B0000146888F70470146B1F8400070470146B4
:1049C000888C70470146088D704702460020138A84
:1049D0000B400BB1012000E000207047CA43028267
:1049E000704730B50246002000230024158A05EAEE
:1049F0000103958905EA010413B10CB1012000E01F
:104A0000002030BDCA4302827047000000204449A4
:104A10000860091D0860091D0860091D08604148FB
:104A20003F4914310860704700213D498279002ACE
:104A30003AD00A46126803689A430B461A600A1D68
:104A4000126803689A430B1D1A60027911440A68C0
:104A500003681A430A60324A0832126803689A43AC
:104A60002F4B08331A601A1D126803689A432C4BA7
:104A70000C331A604279102A0ED11A1F126803688B
:104A80001A43274B08331A601A1D126803681A4329
:104A9000234B0C331A600DE02149427911440A6816
:104AA00003681A430A6005E0027911440A68036842
:104AB0009A430A6070470021016001710C21417125
:104AC0000021817170471649103109680143144A69
:104AD00010321160704701460020114A14321268EA
:104AE0000A400AB1012000E0002070470C4914314F
:104AF00008607047014600200022094B1B6803EA4A
:104B00000102074B14331B680B4013B10AB101209B
:104B100000E000207047024914310860704700002F
:104B200000040140FFFF0F0001460020FE4A10680C
:104B300000F03800084310607047FB49096821F015
:104B40000801F94A11601146096801431160704774
:104B5000F549096821F01001F34A1160114609680E
:104B6000014311607047F148EF494860F0484860E0
:104B70007047EE48EC494860ED4848607047EA48A5
:104B8000006940F08000E84908617047E648006924
:104B900040F08000E449086170470420E249C96898
:104BA00001F0010109B101200EE0DF49C96801F0FF
:104BB000040109B1022007E0DB49C96801F01001D6
:104BC00009B1032000E00420704700B50246042329
:104BD000FFF7E3FF034603E0FFF7DFFF0346521E44
:104BE000012B01D1002AF7D102B90523184600BDD7
:104BF00030B5044604254FF43020FFF7E6FF0546A4
:104C0000042D17D1C848006940F00200C649086168
:104C100008464461006940F0400008614FF43020CC
:104C2000FFF7D3FF0546C048006941F6FD71084013
:104C3000BD490861284630BD10B504244FF430202A
:104C4000FFF7C3FF0446042C16D1B748006940F0B3
:104C50000400B54908610846006940F04000086159
:104C60004FF43020FFF7B1FF0446AF48006941F62A
:104C7000FB710840AC490861204610BD00B50246F2
:104C80000423FFF78AFF034603E0FFF786FF03468E
:104C9000521E012B01D1002AF7D102B90523184673
:104CA00000BD10B504244FF43020FFF7E7FF0446A1
:104CB000042C16D19C48006940F004009A49086110
:104CC0000846006940F0400008614FF43020FFF7CB
:104CD000D5FF04469448006941F6FB7108409249AB
:104CE0000861204610BD00208F49C96901F002010A
:104CF00009B1012000E00020704730B5A52504244B
:104D0000FFF7F1FF00B100254FF43020FFF75DFF02
:104D10000446042C3AD185488349886084488860D9
:104D20000846006940F0200008610846006940F02C
:104D3000400008614FF43020FFF747FF0446042C81
:104D40001BD17948006941F6DF7108407649086156
:104D50000846006940F01000086176480580E002CE
:104D6000FFF733FF0446052C10D06F48006941F669
:104D7000EF7108406C49086108E0052C06D06A48CC
:104D8000006941F6EF71084067490861204630BD6F
:104D900078B506460C46042500200090E802FFF78F
:104DA00014FF0546042D24D15F48006940F001003E
:104DB0005D4908613480E802FFF707FF0546042DCE
:104DC00010D1B01C0090200C00990880E802FFF779
:104DD000FCFE05465448006941F6FE710840524900
:104DE000086106E05048006941F6FE7108404E49EE
:104DF0000861284678BD70B504460D460426F002C9
:104E0000FFF7E3FE0646042E11D14748006940F043
:104E10000100454908612580F002FFF7D6FE0646ED
:104E20004148006941F6FE7108403F49086130463B
:104E300070BD70B505460E460424E002FFF7C5FEBE
:104E40000446042C17D139483749886038488860AF
:104E50000846006940F0100008612E80E002FFF76C
:104E6000B4FE0446052C06D02F48006941F6EF71C8
:104E700008402D490861204670BD2DE9F0430446E5
:104E80004FF6FF763746B046B1460425E443E6B216
:104E9000C4F30727C4F307484FEA1469E802FFF791
:104EA00094FE0546042D49D120481F4988602048BA
:104EB00088600846006940F010000861FF2E06D0A7
:104EC0001C4808300680E802FFF77FFE0546042DE7
:104ED00008D1FF2F06D017480A300780E802FFF7F5
:104EE00074FE0546042D0AD1B8F1FF0F07D0114812
:104EF0000C30A0F80080E802FFF767FE0546042D9D
:104F00000AD1B9F1FF0F07D00A480E30A0F800907F
:104F1000E802FFF75AFE0546052D0FD0024800694A
:104F200041F6EF71084007E0002002402301674589
:104F3000AB89EFCD00F8FF1F664908612846BDE840
:104F4000F08330B5054604244FF43020FFF73DFED2
:104F50000446042C41D160485E4988605F488860FF
:104F60000846006940F0200008610846006940F0EA
:104F7000400008614FF43020FFF727FE0446042C60
:104F800022D15448006941F6DF7108405149086157
:104F90000846006940F0100008611DB1002050492A
:104FA000088002E0A5204E4908804FF43020FFF72A
:104FB0000CFE0446052C10D04648006941F6EF71FE
:104FC00008404449086108E0052C06D041480069C2
:104FD00041F6DF7108403F490861204630BDF0B519
:104FE00005460E46174604243B483A4988603B482C
:104FF0008860E002FFF7E9FD0446042C19D135482A
:10500000006940F010003349086147F0F800304370
:1050100028433349891C0880E002FFF7D6FD044687
:10502000052C06D02B48006941F6EF71084029494C
:1050300008612046F0BD2748C069800870472548B0
:10504000006A704700202349096801F0200109B176
:10505000012000E00020704729B11E4A1269024376
:105060001C4B1A6104E01B4A12698243194B1A61F6
:10507000704701460020012908D1164AD26902F082
:1050800001020AB1012008E0002006E0114AD268BE
:105090000A400AB1012000E0002070470D49C860B5
:1050A000704704200B49C96801F0010109B10120D2
:1050B0000EE00849C96801F0040109B1022007E0C7
:1050C0000449C96801F0100109B1032000E004207F
:1050D000704700000020024023016745AB89EFCDF7
:1050E00000F8FF1F10B5044600F0C8F80068005D26
:1050F000000704D5DF2C02D0A4F1200010BD20460B
:1051000010BD40EA010310B59B070FD1042A0DD34F
:1051100010C808C9121F9C42F8D020BA19BA884298
:1051200001D9012010BD4FF0FF3010BD1AB1D307D7
:1051300003D0521C07E0002010BD10F8013B11F80D
:10514000014B1B1B07D110F8013B11F8014B1B1B36
:1051500001D1921EF1D1184610BD032A40F23080D1
:1051600010F0030C00F0158011F8013BBCF1020FA8
:10517000624498BF11F801CB00F8013B38BF11F829
:10518000013BA2F1040298BF00F801CB38BF00F840
:10519000013B11F0030300F07980083AC0F0088069
:1051A00051F8043B083A51F804CBA0E80810F5E7A1
:1051B000121D5CBF51F8043B40F8043BAFF3008084
:1051C000D20724BF11F8013B11F801CB48BF11F8F9
:1051D000012B24BF00F8013B00F801CB48BF00F8C9
:1051E000012B70474FF000020429C0F0128010F02C
:1051F000030C00F01B80CCF1040CBCF1020F18BFB3
:1052000000F8012BA8BF20F8022BA1EB0C0100F045
:105210000DB85FEAC17C24BF00F8012B00F8012B18
:1052200048BF00F8012B70474FF0000200B513464D
:1052300094469646203922BFA0E80C50A0E80C50B6
:10524000B1F12001BFF4F7AF090728BFA0E80C5067
:1052500048BF0CC05DF804EB890028BF40F8042B60
:1052600008BF704748BF20F8022B11F0804F18BFCD
:1052700000F8012B704770477047704710B500F079
:1052800037F8001D10BD00BF6501000010B5203AC1
:10529000C0F00B80B1E81850203AA0E81850B1E8EF
:1052A0001850A0E81850BFF4F5AF5FEA027C24BFA5
:1052B000B1E81850A0E8185044BF18C918C0BDE89C
:1052C00010405FEA827C24BF51F8043B40F8043B65
:1052D00008BF7047D20728BF31F8023B48BF11F81A
:1052E000012B28BF20F8023B48BF00F8012B704774
:1052F000004870479C2D0020004870477C2D0020FE
:105300007546FFF7F9FFAE4605006946534620F0A3
:105310000700854618B020B5FDF73CFDBDE82040EC
:105320004FF000064FF000074FF000084FF0000B61
:1053300021F00701AC46ACE8C009ACE8C009ACE814
:10534000C009ACE8C0098D46704710B50446AFF3FC
:1053500000802046BDE81040FAF73ABF4FF0013C0C
:1053600050F8042B51F8043B9A4221D1A2EB0C03D4
:10537000934313EACC1317D150F8042B51F8043B94
:105380009A4215D1A2EB0C03934313EACC130BD131
:1053900050F8042B51F8043B9A4209D1A2EB0C03BC
:1053A000934313EACC13DBD04FF00000704700BFEB
:1053B000D01A01BAB1FA81F101F0180122FA01F014
:1053C000CB40C1F12001DBB2C0B2C01A2CFA01F30C
:1053D000D11A914311EAC311E6D17047014918204F
:1053E000ABBEFEE7260002007047000010B50029A2
:1053F0000AD00878002807D005487844FFF7AEFFA8
:10540000002801D0002010BD0248784410BD0000E3
:105410004A000000420000000102030405060708DC
:10542000090A0B0054550008000000205400000039
:105430006C010008A8550008540000208C370000BB
:10544000880100081001000043000000F8FFFFFF82
:105450000040404040404040404041414141414087
:10546000404040404040404040404040404040403C
:1054700040050202020202020202020202020202CB
:1054800002202020202020202020200202020202D0
:105490000202909090909090101010101010101028
:1054A0001010101010101010101010100202020234
:1054B0000202888888888888080808080808080878
:1054C0000808080808080808080808080202020274
:1054D000400000000000000000000000000000008C
:1054E00000000000000000000000000000000000BC
:1054F00000000000000000000000000000000000AC
:10550000000000000000000000000000000000009B
:10551000000000000000000000000000000000008B
:10552000000000000000000000000000000000007B
:10553000000000000000000000000000000000006B
:10554000000000000000000000000000000000005B
:10555000000000000000000000000000000000004B
:10556000000000000000000000000000000000003B
:10557000000000000000000000A24A04000000003B
:1055800000000000010203040607080900000000F3
:1055900000000000000000000102030401020304F7
:0855A0000607080902040608D1
:0400000508000131BD
:00000001FF
