:020000040800F2
:10000000F8160020591B000881020008830200082E
:10001000870200088B0200088F0200080000000021
:100020000000000000000000000000009302000833
:1000300095020008000000009702000899020008DD
:10004000731B0008731B0008731B0008731B000858
:10005000731B0008731B0008731B0008731B000848
:10006000731B0008731B0008731B0008731B000838
:10007000150C0008731B0008731B0008731B000895
:10008000731B0008731B0008731B0008731B000818
:10009000731B0008731B0008731B0008731B000808
:1000A000731B0008731B0008731B0008731B0008F8
:1000B000A1190008351A0008731B0008731B0008FB
:1000C000731B0008731B0008731B0008731B0008D8
:1000D000731B0008731B0008731B0008470B000804
:1000E0009B020008731B0008731B000800F002F855
:1000F00000F03AF80AA090E8000C82448344AAF188
:100100000107DA4501D100F02FF8AFF2090EBAE885
:100110000F0013F0010F18BFFB1A43F0010318473B
:10012000F074000010750000103A24BF78C878C140
:10013000FAD8520724BF30C830C144BF04680C60ED
:10014000704700000023002400250026103A28BF35
:1001500078C1FBD8520728BF30C148BF0B60704739
:100160001FB51FBD10B510BD07F017F81146FFF7FA
:10017000F7FF00F023F807F035F803B4FFF7F2FFBC
:1001800003BC07F03DF800000246002100BF05E077
:10019000505C08B101207047481CC1B20329F7DB4D
:1001A0000020F8E73149096801603049091D0968F4
:1001B00041602E490831096881607047012401F0CF
:1001C0005BFC01F0C3FC2A48FFF7ECFF01F038F8B4
:1001D00001F063F801F0A4F84FF4614000F070F909
:1001E0004821092001F02AFB0020224908704870AC
:1001F0000221204800F0EAFF06F0FEF806F080FE3B
:1002000033E0204600F058FA202C01DB012401E005
:100210006006040E01F0A7F800F0A4FF00F024FD32
:1002200015484079012820D114480088B0F57A7F1C
:100230001BDB0020114908800E48407800F00200C6
:1002400030B10C48407820F002000A49487005E0BF
:100250000848407840F002000649487000200549EF
:1002600008700221034800F0B1FFCAE7E8F7FF1F5A
:100270006C000020090000200D0A00201000002062
:10028000704700BFFEE700BFFEE700BFFEE700BF0C
:10029000FEE7704770477047704710B54FF48060B5
:1002A00003F09EFC90B14FF4806003F0AAFC084874
:1002B000006820F48060064908600648007810B1A4
:1002C00001200549087001200449087010BD000094
:1002D000000401401500002016000020140000203A
:1002E0000CB50020019000906C48006840F480300C
:1002F0006A49086000BF6948006800F40030009057
:100300000198401C0190009818B90198B0F5A06FB1
:10031000F1D16248006800F4003010B10120009073
:1003200001E0002000900098012843D15C4800685B
:1003300040F010005A4908600846006820F00300A9
:1003400008600846006840F00200086053484068B2
:10035000524948600846406848600846406840F492
:10036000806048600846406820F47C104860084679
:10037000406840F4E81048600846006840F080702B
:10038000086000BF4548006800F000700028F9D000
:100390004248406820F003004049486008464068F1
:1003A00040F00200486000BF3C48406800F00C008C
:1003B0000828F9D10CBD10B5FFF792FF10BD10B59C
:1003C0003648006840F0010034490860084640683B
:1003D00034490840314948600846006832490840BD
:1003E0002E4908600846006820F48020086008460E
:1003F000406820F4FE0048604FF41F008860FFF75B
:10040000DAFF4FF000602949086010BD10B50021E7
:1004100000200022214B5B6803F00C0121B104296C
:1004200006D0082928D107E0214B224C236027E081
:100430001F4B204C236023E0184B5B6803F47010C3
:10044000164B5B6803F48032022303EB904022B921
:10045000194B4343174C23600DE0104B5B6803F4CA
:10046000003323B1144B4343124C236003E0104B81
:100470004343104C236003E00D4B0E4C236000BF40
:1004800000BF064B5B68C3F303130C4CE15C094BE4
:100490001B68CB40074C236010BD000000100240D9
:1004A000002002400000FFF8FFFFF6FE08ED00E02C
:1004B00000127A002000002000093D0024000020E6
:1004C00010B588B004460121084601F0E2FE012182
:1004D000880401F0F8FE0121082001F0E7FE4FF446
:1004E0008060ADF81C0018208DF81F0003208DF8E7
:1004F0001E0007A95A4801F01DFC4FF40060ADF83A
:100500001C0004208DF81F0007A9554801F012FCBB
:1005100003940020ADF81000ADF81200ADF81400FF
:10052000ADF818000C20ADF8160003A94D4801F0F5
:1005300064FF27208DF8080002208DF809000320B1
:100540008DF80A0001208DF80B0002A801F029FBAC
:100550000C208DF8080002208DF8090003208DF88A
:100560000A0001208DF80B0002A801F01AFB0022FE
:1005700040F227713B4801F0D8FF002240F225519C
:10058000384801F0D2FF002240F22661354801F0E0
:10059000CCFF012240F22441324801F0C6FF012283
:1005A0008021304801F0E6FF012240212D4801F072
:1005B000E1FF00201021C8232B4ACDE90010294972
:1005C000091D2A4801F002F90021284802F0A3F988
:1005D00000200090C823244AC8322249091D0190F6
:1005E0002248143001F0F2F801212048143002F0C2
:1005F00092F9012202211D4802F099F9102002F01F
:10060000B9F94FF4807002F0B5F90121154801F0F5
:1006100080FF40F695111448083806F040FD01208F
:1006200011490839487108B010BD10B5002240F2D8
:1006300024410C4801F079FF002202210B4802F00E
:1006400076F910BD10B5012240F22441054801F0B1
:100650006CFF01220221054802F069F910BD00007B
:10066000000C014000480040800000201C000240B7
:1006700030B50346002400BF1BE01D7828090A2876
:1006800003DA00F13005157002E000F1370515704E
:10069000521C1D7805F00F000A2803DA00F130051E
:1006A000157002E000F137051570521C5B1C651CCB
:1006B000ECB28C42E1DB30BD70B5B8B00646002428
:1006C0000025304606F037FC0546002D7DD0002081
:1006D000EA49086000BF0EE00120E84908390860D7
:1006E000962001F0E2F90020E549C1F8B401962016
:1006F00001F0DBF9641CB4F5FA7FEDDB0120DF4982
:100700000860082D7ED006DC012D09D0022D4DD0C9
:10071000042D78D198E0102D76D0202DF9D166E106
:100720004FF4D050ADF8D00000208DF8D200002159
:1007300034A8C170017141714FF4E050ADF8D6009A
:10074000D04800788DF8D800CE480088010A34A837
:100750004172CC480068010C34A88172C948006815
:10076000010E34A8C17204208DF8DC000A208DF837
:10077000DD0000208DF8080007208DF8090000201A
:100780008DF80A008DF80B00BF480168039180883E
:10079000ADF810009DF8DD0002AB34AA4BF6BB317A
:1007A00000904AF6AA2000F0EAFA63E14FF4D05034
:1007B000ADF8D00000208DF8D200002134A8C1701F
:1007C000017141714FF4E05000E054E1ADF8D60002
:1007D000AC4800788DF8D800AA480088010A34A8EF
:1007E0004172A8480068010C34A88172A5480068CD
:1007F000010E34A8C17204208DF8DC000A208DF8A7
:10080000DD0002E062E034E1A8E000208DF808009D
:1008100007208DF8090000208DF80A008DF80B00E4
:100820008DF80C008DF80D0098484068CDF80E004A
:100830009DF8DD0002AB34AA4BF6BB3100904AF6BE
:10084000AA2000F09CFA15E14FF4D050ADF8D0008A
:1008500000208DF8D200002134A8C17001714171CF
:100860004FF4E050ADF8D600864800788DF8D800F7
:1008700084480088010A34A8417282480068010C4B
:1008800034A881727F480068010E34A8C172042028
:100890008DF8DC000A208DF8DD0000208DF80800BE
:1008A00007208DF809007A48016ACDF80A10406ADD
:1008B000CDF80E009DF8DD0002AB34AA4BF6BB313B
:1008C00000904AF6AA2000F05AFAD3E04FF4D05034
:1008D000ADF8D00000208DF8D200002134A8C170FE
:1008E000017141714FF4E050ADF8D60065480078D1
:1008F0008DF8D80063480088010A34A84172614825
:100900000068010C34A881725E480068010E34A8AA
:10091000C17204208DF8DC000A208DF8DD00002073
:100920008DF8080007208DF8090000208DF80A00D6
:100930008DF80B008DF80C008DF80D0053484068C1
:10094000CDF80E009DF8DD0002AB34AA4BF6BB31AA
:1009500000904AF6AA2000F012FA8BE04FF4D05033
:10096000ADF8D00000208DF8D200002134A8C1706D
:10097000017141714FF4E050ADF8D6004148007864
:100980008DF8D8003F480088010A34A841723D48DC
:100990000068010C34A881723A480068010E34A83E
:1009A000C17204208DF8DC000A208DF8DD000020E3
:1009B0008DF8080007208DF8090000208DF80A0046
:1009C0008DF80B008DF80C008DF80D003148D0F833
:1009D0000D00CDF80E009DF8DD0002AB34AA4BF6F9
:1009E000BB3100904AF6AA2000F0C9F942E04FF46A
:1009F000D050ADF8D00000208DF8D200002134A8EE
:100A0000C170017141714FF4E050ADF8D6001D483E
:100A100000788DF8D8001B480088010A34A841727C
:100A200018480068010C34A8817216480068010E4D
:100A300034A8C17204208DF8DC000A208DF8DD0096
:100A400000208DF8080007208DF809000E48016885
:100A5000CDF80A104068CDF80E009DF8DD0002AB1D
:100A600034AA4BF6BB3100904AF6AA2000F087F971
:100A700000E000BF00BF38B070BD0000BC012242E2
:100A8000000022426C00002082100020540B002045
:100A9000480E0020F20D00200246002100BF05E0B4
:100AA000505C08B101207047481CC1B20329F7DB34
:100AB0000020F8E730B502460B46002010E012F89F
:100AC000014B6040002109E000F001041CB18C24BE
:100AD00084EA600000E040104C1CE1B20829F3DB1E
:100AE0001C1EA3F10105EBB2E9D130BD2DE9F041A7
:100AF00005460E4690460027F948C47900BF1DE020
:100B000004EBC40101EB0412F64901EBC200FFF74C
:100B1000C3FF58B904EBC40101EB0412F14901EB26
:100B2000C2003246294606F075FA09E0042C01DBC2
:100B3000002401E0601CC4B2781CC7B2052FDFDBC3
:100B400000BFBDE8F0812DE9F04100250026002717
:100B500040F22441E44801F0CDFD002858D04FF484
:100B6000807001F007FF40F22441DF4801F0ECFD06
:100B7000DD480488001D04880021DC4801F0CBFE1C
:100B8000DA4801F0DFFEC0F1C8073220D8490880FA
:100B9000C82F30D2D24890F8D000AA282BD1D04804
:100BA00090F8D100AA2826D1CD4890F8E00000F1B5
:100BB0001104CB48D030005DBB281CD1C848D030D0
:100BC000611C405CBB2816D1A01CC1B2C448D03007
:100BD000FFF770FF0646C248D030A11C405CB0420F
:100BE00009D1BF4890F8D250E01CC1B22A46BC4897
:100BF000D030FFF77BFFA11CB948D03006F04FFA88
:100C0000C820BA49303948630121B84801F083FE51
:100C1000BDE8F08110B5202001F0B7FEE8B1012059
:100C2000AF4948710021B148143801F074FE10201A
:100C300001F0BFFE00BF4021AB4801F045FD012897
:100C4000F9D1AC480068C043AB49C1F8B0010020FD
:100C5000AA490860AA49C1F8840110BDA04840888B
:100C6000401C9F49488070477CB500259C484079CE
:100C700001287CD19A4840881E2803DA98480079D8
:100C800000B97CBD0020964908714880002240F2DE
:100C90002441954801F049FC002202219348143870
:100CA00001F045FE8E488479002555E004EBC4012F
:100CB00001EB0412934901EBC200FFF7EDFE01289E
:100CC00042D1874800218160C160018200F5CC706B
:100CD000025D04EBC40000EB04138A4800EBC3017F
:100CE000A0F5CD7006F096F904EBC40000EB0411FA
:100CF000844800EBC10000210160416001810120B6
:100D00007E4908607E49C1F8840100201021C82373
:100D1000734A0832CDE900107349091D734814382D
:100D200000F054FD77480A38015D7048143800F02F
:100D300077FD01216C4801F0ECFB694884710020CB
:100D400067490871488009E0042C01DB002401E0B8
:100D5000601CC4B2681CC5B2052DA7DB00BF012210
:100D600002216248143801F0E2FD012200E004E0B3
:100D700040F224415C4801F0D8FB00BF81E72DE937
:100D8000F05F06460F4691469A460A9D4FF00008CE
:100D9000C346C82D01DDBDE8F09F002240F224418A
:100DA000514801F0C2FB002202215048143801F0E2
:100DB000BEFD4B4884794FF0000B7EE004EBC4018C
:100DC00001EB04124F4901EBC200FFF765FE00285A
:100DD00069D104EBC40000EB04124A4800F8326009
:100DE000311204EBC40000EB0412464800EBC200D1
:100DF00041703B48017804EBC40000EB0412414809
:100E000000EBC200817004EBC40101EB04123D4908
:100E100001EBC201C81C0E22494606F0FBF804EBA8
:100E2000C40101EB0412374901EBC20101F11100C9
:100E30002A46514606F0EEF804EBC40000EB04121B
:100E4000304800EBC20205F111001754391204EBCF
:100E5000C40000EB04122B4800EBC20205F11200A3
:100E60001154421CD1B204EBC40202EB0413254A14
:100E700002EBC300FFF71EFE804604EBC40101EB4A
:100E80000412204901EBC20205F1130102F80180AE
:100E9000481CC1B21B480A38015511480078401C53
:100EA0000F4908700DE0042C01DB002401E0601CF8
:100EB000C4B20BF1010000F0FF0BBBF1050FFFF610
:100EC0007DAF00BF012202210848143801F02FFD38
:100ED000012240F22441044801F027FB00BF5AE7F9
:100EE0007800002002060020004800403000024048
:100EF0000E000020B00121420000214284812142E5
:100F0000008021421A02002010B5EEB004464FF4D2
:100F1000D050ADF8980100208DF89A01002166A804
:100F2000C170017141714FF4E050ADF89E01A348CA
:100F300000788DF8A001A1480088010A66A84172D6
:100F40009E480068010C66A881729C480068010EEA
:100F500066A8C17204208DF8A40112208DF8A501A5
:100F60000E22E11C6AA806F055F89DF8B52104F19F
:100F7000110134A806F04EF8BDF8AE010002BDF82C
:100F8000AE1140EA212080B2ADF8AE01BDF8A80153
:100F90000002BDF8A81140EA212080B2ADF8A801F6
:100FA0009DF8B40104287DD19DF8D1009DF8D010A2
:100FB00040EA01200B2802D00C2874D1A7E09DF84C
:100FC000D20001280FD100207D494870012008700F
:100FD0007C48407840F010007A49487008464078D4
:100FE00020F0200048709DF8D30001280ED17449EC
:100FF0004870002008707348407820F01000714954
:1010000048700846407840F0200048709DF8D400B1
:1010100048B900206A4988706A48407820F040004A
:101020006849487008E00120654988706548407843
:1010300040F04000634948709DF8D50048B9002051
:101040005F49C8705F48407820F080005D49487073
:1010500008E001205A49C8705A48407840F08000A2
:10106000584948709DF8D60048B900205449087185
:101070005448407820F001005249487008E00120AF
:101080004F4908714F48407840F001004D49487081
:101090009DF8D700012802D10420494948719DF8E4
:1010A000D80001E05BE058E048B90020444988716D
:1010B0004448407820F004004249487008E001208C
:1010C0003F4988713F48407840F004003D494870EE
:1010D00000203C49087002213A4800F077F80020CF
:1010E0008DF808000B208DF80900102234490DF10D
:1010F0000A0005F08FFF9DF8B50102AB66AA4BF61A
:10110000BB3100904AF6AA20FFF739FE26E09DF891
:10111000D20040B900202A4948712A48407820F07E
:101120000200284948709DF8D200012801D12449C5
:1011300048719DF8D200022807D121494871214801
:10114000407840F002001F49487000201D49087097
:1011500002211C4800F03AF800E000BF00BF012067
:101160006EB010BD10B5002400BF22E004EBC40136
:1011700001EB0412144901EBC200FFF78DFC0128BA
:1011800015D104EBC40101EB04120F4901EBC200BD
:10119000FFF7BAFE50B104EBC40000EB04110A489B
:1011A00000EBC100002101604160018103E0601C8F
:1011B000C4B2052CDADB00BF10BD00006C000020BB
:1011C0000D0A002009000020020600202DE9F04150
:1011D000054688460024A8F101041EE02F5D002684
:1011E00018E007F0800018B101201349086002E000
:1011F00000201149086000200F49083908600120CB
:1012000000F053FC01200D49C1F890017806070E4B
:10121000701CC6B2082EE4DB641E002CDEDA00204F
:101220000549091F0860012000F03FFC0120034927
:10123000C1F89401BDE8F0819881214200802142EB
:1012400008B50121082001F031F80121084601F01C
:101250002DF80121284800F03EFE0121274800F02A
:101260003AFE7A20ADF8000010208DF8030003202C
:101270008DF802006946224800F05CFD00202149FB
:10128000086001202049C1F88C0100201D4908395F
:1012900008601D49C1F8840108BD08B5012110206E
:1012A00001F004F80121042001F000F84FF420407F
:1012B000ADF8000010208DF8030003208DF8020027
:1012C0006946124800F036FD4FF48050ADF800003A
:1012D00010208DF8030003208DF8020069460C48A9
:1012E00000F028FD00200B49086001200A49C1F8E0
:1012F000BC010A49086008BD00013000000230004E
:10130000000C01408C8121420080214200100140EC
:1013100000080140B401224200002242B0012142F3
:1013200008B50121042000F0C1FF0F20ADF8000036
:1013300010208DF8030003208DF802006946FC4858
:1013400000F0F8FCF020ADF8000048208DF8030014
:101350006946F74800F0EEFC08BDF6480088401CDE
:10136000F4490880704700B58BB04FF4D050ADF809
:101370001C0000208DF81E0000218DF81F1007A80A
:10138000017141714FF4E050ADF82200EA48007855
:101390008DF82400E8480088010A07A84172E64851
:1013A0000068010C07A88172E3480068010E07A8D5
:1013B000C17204208DF8280012208DF82900002029
:1013C0008DF808000B208DF809000020DB4908602B
:1013D0000120DB49C1F88401D84908310860D849A7
:1013E000C1F88C01D5487038006800283CD1D54838
:1013F0008078012801D10BB000BD0A2000F079FBF4
:10140000CE487038006800282DD100BFCB48703816
:1014100000680028FAD00020CA49487001200870EE
:10142000C948407840F01000C749487008464078E5
:1014300020F0200048701022C2490DF10A0005F08A
:10144000E9FD9DF8290002AB07AA4BF6BB310090DD
:101450004AF6AA20FFF793FC0020BB49087002213E
:10146000B948FFF7B3FEB8E0B4486C380068D8BBA1
:10147000B4488078012800D1BDE70A2000F039FB8C
:10148000AE486C3800680028EDD100BFAB486C381E
:1014900000680028FAD00120AA494870002008708E
:1014A000A948407820F01000A749487008464078C5
:1014B00040F0200048701022A2490DF10A0005F00A
:1014C000A9FD9DF8290002AB07AA4BF6BB3100909D
:1014D0004AF6AA20FFF753FC00209B49087002211E
:1014E0009948FFF773FE78E0FFE794486838006892
:1014F00090BB0A2000F0FDFA904868380068002888
:101500006BD100BF8D48683800680028FAD08D483C
:10151000807840B901208B4988708B48407840F032
:10152000400089494870102286490DF10A0005F0F3
:1015300071FD9DF8290002AB07AA4BF6BB31009064
:101540004AF6AA20FFF71BFC00207F490870022101
:101550007D48FFF73BFE40E0FFE7784864380068CD
:10156000D8BB78488078012800D144E70A2000F0F1
:10157000C0FA72486438006878BB00BF6F486438AE
:1015800000680028FAD001206E49C8706E48407883
:1015900040F080006C49487000206A4908716A4830
:1015A000407820F0010068494870102265490DF12B
:1015B0000A0005F02FFD9DF8290002AB07AA4BF6A3
:1015C000BB3100904AF6AA20FFF7D9FB00205E4904
:1015D000087002215C48FFF7F9FD012057490860B7
:1015E00000205749C1F8840101205449083108609E
:1015F0005349C1F88C01514870380068E8BB514824
:101600008078012800D1F6E60A2000F072FA4B48F3
:101610007038006800282FD100BF48487038006833
:101620000028FAD00120474908714748407840F027
:1016300001004549487000204249C870424840783E
:1016400020F080004049487010223E490DF10A0008
:1016500005F0E0FC9DF8290002AB07AA4BF6BB3170
:1016600000904AF6AA20FFF78AFB0020364908704E
:1016700002213548FFF7AAFD9FE0FFE72F486C38AD
:10168000006880BB2F488078012800D1B3E60A208B
:1016900000F02FFA29486C380068002822D100BFDA
:1016A00026486C3800680028FAD004202549487183
:1016B00010220DF10A0005F0ADFC9DF8290002ABE7
:1016C00007AA4BF6BB3100904AF6AA20FFF757FB5A
:1016D00003201C49487100201B49087002211A4848
:1016E000FFF774FD69E0FFE7144868380068F0B957
:1016F00014488078012800D17DE60A2000F0F9F92D
:101700000E4868380068E8BB00BF0C4868380068BD
:101710000028FAD00B488079C0B9012009498871A6
:101720000948407840F004000749487017E031E06C
:1017300000080140340000206C000020800121429C
:10174000000021420D0A00200900002000201C4951
:1017500088711C48407820F004001A494870102213
:1017600017490DF10A0005F055FC9DF8290002AB60
:1017700007AA4BF6BB3100904AF6AA20FFF7FFFA02
:10178000002000E019E00F49087002210D48FFF722
:101790001DFD12E00C48006878B9094880780128DE
:1017A00000D128E60A2000F0A4F90748006820B913
:1017B00000BF054800680028FBD000BF1BE6000002
:1017C0000D0A0020090000201C0121422DE9F047EC
:1017D00007460C4615461E46DDE9088900213846B5
:1017E00001F099F8384600F0C9FF134804604560DD
:1017F000C0F80880C66000200F4908618020486159
:1018000000208861C8610846C0F820904FF440501D
:10181000486200208862384601F052F8BDE8F0873F
:1018200070B504460D462946204601F089F801218D
:10183000204601F070F870BD200A00207FB50546F3
:101840000C460121084600F03EFDADF80850ADF809
:1018500004400020ADF80A00ADF8060001A94FF0E1
:10186000804001F089F901221146900701F0FBFC4C
:101870001C208DF8000000208DF8010001208DF85B
:1018800002008DF80300684600F08BF901218807FB
:1018900001F0CEFC7FBD7FB505460C46012102203C
:1018A00000F011FDADF80850ADF804400020ADF88F
:1018B0000A00ADF8060001A9644801F05DF90122B3
:1018C0001146624801F0CFFC1D208DF80000012078
:1018D0008DF801008DF802008DF80300684600F0D5
:1018E00060F90121594801F0A3FC7FBD30B589B0F2
:1018F00004460D460121480300F0D8FC01211020C8
:1019000000F0D4FC8020ADF8200018208DF82300D2
:1019100003208DF8220008A94D4800F00BFAADF81D
:101920001840ADF814500020ADF81A00ADF81600BC
:1019300005A9484801F020F97020ADF80400012005
:10194000ADF8060032206043642190FBF1F080B2D4
:10195000ADF80A000220ADF80C0001A93D4801F0E5
:101960008AF908213B4801F09CFD0121394801F02A
:101970005FFD0121374801F067FC0021354801F087
:1019800057FC09B030BD10B500214FF0804001F088
:101990004FFC10BD10B50121880701F049FC10BDB6
:1019A00010B50121880701F00CFF002841D001216A
:1019B000880701F017FF28480088401C2649088046
:1019C00008460088632834DB00200880FFF746F9CA
:1019D0002248008820B9214800882049088004E076
:1019E0001E480088401E1D4908801D480088401C74
:1019F0001B4908801B480088401C1A4908801A4867
:101A00000088401C1849088008460088B0F5FA7F15
:101A10000FDB002008801548008850B1134800886B
:101A2000401E1249088012480068C0431149C1F89D
:101A3000BC0110BD10B50121044801F0C2FE18B16F
:101A40000121024801F0CEFE10BD0000000400405C
:101A50000010014000340140360000200400002046
:101A60000600002010000020380000200C0000209C
:101A7000BC0122420000224210B56FF0040000F0C9
:101A8000DAF82E4800682E49B0FBF1F02D490870B5
:101A90000846007800EB4001C1EBC0104FF6FF7123
:101AA00001EAC0002849088010BD0146254A127885
:101AB0004A434FF0E0235A6100229A611A461269A4
:101AC00042F001021A6100BF4FF0E022106900F0FD
:101AD00001021AB100F48032002AF5D04FF0E02262
:101AE000126922F001024FF0E0231A6100229A618C
:101AF00070470146144A12884A434FF0E0235A6166
:101B000000229A611A46126942F001021A6100BF6E
:101B10004FF0E022106900F001021AB100F48032A7
:101B2000002AF5D04FF0E022126922F001024FF0B6
:101B3000E0231A6100229A61704700002000002013
:101B400000127A003A0000203C00002010B54FF44B
:101B5000A06000F021F810BD0948804709480047FF
:101B6000FEE7FEE7FEE7FEE7FEE7FEE7FEE7FEE74D
:101B7000FEE7FEE704480549054A064B70470000AA
:101B8000BF030008ED000008F8100020F816002040
:101B9000F8120020F812002031490143314A116047
:101BA000704770B5002100230F22C47804B32D4C78
:101BB000246804F4E064C4F5E064210AC1F104037C
:101BC000CA40447804FA03F184781440214309019F
:101BD000254C0678A155047804F01F050124AC407B
:101BE00005786D11AD0005F1E025C5F8004109E06B
:101BF000047804F01F050124AC401C4D06787611D2
:101C000045F8264070BD1A4A0A400243154B1B1F77
:101C10001A60704739B1134A121D12680243114B02
:101C20001B1D1A6006E00F4A121D126882430D4BFD
:101C30001B1D1A607047042808D14FF0E021096984
:101C400041F004014FF0E022116107E04FF0E02184
:101C5000096921F004014FF0E02211617047000092
:101C60000000FA050CED00E000E400E080E100E097
:101C700080FFFF1F10B50446CC48844208D10121E3
:101C8000042000F02DFB0021042000F029FB46E099
:101C9000C748844208D10121082000F021FB00211F
:101CA000082000F01DFB3AE0C248844208D101211F
:101CB000102000F015FB0021102000F011FB2EE099
:101CC000BD48844208D10121202000F009FB0021F9
:101CD000202000F005FB22E0B848844208D1012111
:101CE000402000F0FDFA0021402000F0F9FA16E053
:101CF000B348844208D10121802000F0F1FA00218C
:101D0000802000F0EDFA0AE0AE48844207D10121BC
:101D1000801500F0E5FA0021A01500F0E1FA10BDF1
:101D200010B50121084600F0DBFA0021012000F087
:101D3000D7FA10BD2DE9F04102460025002600200B
:101D400000230024002791F803C00CF00F0591F840
:101D500003C00CF0100CBCF1000F03D091F802C0CE
:101D60004CEA050591F800C0BCF1000F31D01468B1
:101D700000202BE04FF0010C0CFA00F3B1F800C08A
:101D80000CEA03069E4220D183004FF00F0C0CFAA0
:101D900003F7BC4305FA03FC4CEA040491F803C0C2
:101DA000BCF1280F06D14FF0010C0CFA00FCC2F870
:101DB00014C00AE091F803C0BCF1480F05D14FF000
:101DC000010C0CFA00FCC2F810C0401C0828D1D34A
:101DD0001460B1F800C0BCF1FF0F34DD546800207E
:101DE0002EE000F1080C4FF0010808FA0CF3B1F8EE
:101DF00000C00CEA03069E4221D183004FF00F0C75
:101E00000CFA03F7BC4305FA03FC4CEA040491F80E
:101E100003C0BCF1280F05D100F1080C08FA0CF83A
:101E2000C2F8148091F803C0BCF1480F07D100F14B
:101E3000080C4FF0010808FA0CF8C2F81080401C9A
:101E40000828CED35460BDE8F0814FF6FF710180C1
:101E5000022181700421C1707047024600209368FE
:101E60000B400BB1012000E000207047014688685C
:101E700080B2704702460020D3680B400BB10120AE
:101E800000E0002070470146C86880B270470161D9
:101E90007047416170470AB1016100E041617047DC
:101EA000C16070474FF480320A4382618161826170
:101EB00082698269704702460020434B18684FF6DA
:101EC0008073184040EA021008433F4B1860704787
:101ED0003E49C8617047F0B50A460023002400213E
:101EE000002500F00046B6F1004F02D1364EF169F0
:101EF00001E0354E7168C0F3034583B200F440162B
:101F0000B6F5401F08D121F070612F4E766826F09B
:101F100070662D4F7E6012E000F48016B6F5801FCB
:101F200006D1032606FA05F4A14341F0706106E0EC
:101F3000460D360103FA06F6B14341F0706122B155
:101F4000460D360103FA06F6314300F00046B6F1BD
:101F5000004F02D11C4EF16101E01B4E7160F0BDDB
:101F600030B500228B071C0F0F2303FA04F2164B27
:101F700008338C1053F824309343134C08348D10DD
:101F800044F8253023468C1053F824308C07240F56
:101F900000FA04F423430C4C08348D1044F8253027
:101FA00030BD0A49DC31086070470000000801407C
:101FB000000C0140001001400014014000180140D5
:101FC000001C0140002001400000014000002042B0
:101FD000DF48006840F00100DD49086008464068BD
:101FE000DC490840DA49486008460068DA49084098
:101FF000D74908600846006820F480200860084639
:10200000406820F4FE0048604FF41F00886070476D
:10201000CF49096821F48031CD4A11601146096821
:1020200021F480211160B0F5803F03D0B0F5802FFE
:102030000ED106E0C649096841F48031C44A1160F6
:1020400007E0C349096841F4A021C14A116000E0DA
:1020500000BF00BF704710B50146002200230020DA
:102060004A11012A02D1BA4C236806E0022A02D1A1
:10207000B74C236A01E0B64C636A01F01F020124E9
:1020800094401C400CB1012000E0002010BD38B588
:10209000002000900024002500BF3120FFF7DBFF67
:1020A00005460098401C00900098B0F5A06F01D044
:1020B000002DF2D03120FFF7CEFF08B1012400E05F
:1020C0000024204638BD01460020A14A106820F0B7
:1020D000F80040EAC10010607047A04908607047EE
:1020E000024600209A4B586820F47C1042EA010313
:1020F0001843974B586070479849086670470146E7
:102100000020934A506820F0030008435060704755
:102110008F48406800F00C007047014600208C4A50
:10212000506820F0F00008435060704701460020DE
:10213000874A506820F4E0600843506070470146C9
:102140000020834A506820F4605040EAC10050608B
:10215000704729B17E4A527A02437D4B5A7204E09D
:102160007B4A527A82437A4B5A7270477B49D83104
:102170000860704701460020754A506820F44040CE
:102180000843506070470021714A20321170704A34
:1021900082F82010012802D004280AD104E001218D
:1021A0006B4A2032117005E00521694A2032117016
:1021B00000E000BF00BF704769490860704764498C
:1021C000096A0143624A11627047654944390860EF
:1021D000704730B500210022002400235C4D6D685B
:1021E00005F00C0121B1042905D0082923D105E00F
:1021F0005C4D056022E05B4D05601FE0544D6D684D
:1022000005F47012524D6D6805F48034022505EB1B
:1022100092421CB9544D554305600BE04C4D6D681E
:1022200005F400351DB1504D5543056002E04D4D9C
:102230005543056002E04B4D056000BF00BF444DB3
:102240006D6805F0F0010909484D6B5C0568DD40DB
:1022500045603F4D6D6805F4E061090A434D6B5CD4
:102260004568DD4085603A4D6D6805F46051C90AE6
:102270003E4D6B5C4568DD40C560354D6D6805F4CD
:102280004041890B3A4D6B5CC568B5FBF3F50561C0
:1022900030BD29B12E4A526902432D4B5A6104E0E8
:1022A0002B4A526982432A4B5A61704729B1284A06
:1022B00092690243264B9A6104E0254A926982435F
:1022C000234B9A61704729B1214AD2690243204BBE
:1022D000DA6104E01E4AD26982431D4BDA6170471D
:1022E00029B11B4AD2680243194BDA6004E0184A4C
:1022F000D2688243164BDA60704729B1144A1269DA
:102300000243134B1A6104E0114A12698243104BD5
:102310001A61704712494039086070470F49C86414
:1023200070470B49C87170470948406A40F0807097
:1023300007494862704701460020054A92680A40F2
:102340000AB1012000E000207047014988727047FF
:10235000001002400000FFF8FFFFF6FE00004242BE
:102360008004424200127A0000093D003E00002035
:102370004E00002010B50446FB48844209D10121DB
:102380008803FFF7ADFF00214FF48040FFF7A8FF5F
:1023900032E0F648844209D101214804FFF7ADFF3D
:1023A00000214FF40030FFF7A8FF25E0F0488442F9
:1023B00009D101218804FFF7A0FF00214FF48020FC
:1023C000FFF79BFF18E0EB48844209D10121C804C4
:1023D000FFF793FF00214FF40020FFF78EFF0BE083
:1023E000E548844208D101210805FFF786FF002156
:1023F0004FF48010FFF781FF10BD2DE9F04786B044
:1024000005460E460024A24600BFA1460027B0891B
:1024100000B100BF2F462C8A4CF6FF700440F088B4
:1024200004432C82AC894EF6F3100440B088318905
:102430000843718908430443AC81AC8A4FF6FF40DE
:102440000440B0890443AC8201A8FFF7C2FEC6482D
:10245000874202D1DDF810A001E0DDF80CA0A889C8
:1024600000F4004040B10AEBCA0000EB0A103168EA
:102470004900B0FBF1F807E00AEBCA0000EB0A10D4
:1024800031688900B0FBF1F86420B8FBF0F004017A
:102490002009642101FB1089A88900F4004040B1A3
:1024A000322000EBC900B0FBF1F000F0070004435C
:1024B00008E0322000EB09106421B0FBF1F000F0DD
:1024C0000F0004432C8106B0BDE8F0874FF416518D
:1024D000016000218180C18001810C2141810021A6
:1024E0008181704710B502460020108A4FF2FF0329
:1024F00018400B884C8823438C882343CC88234383
:102500001843108210BD0021018041808180C1806C
:10251000704721B1828942F40052828104E08289AD
:102520004DF6FF731A4082817047F0B503460024D0
:1025300000260025002040F66A17B94200D100BFEE
:102540001846C1F3421401F01F06012707FA06F5E9
:10255000012C01D10C3004E0022C01D1103000E03C
:1025600014301AB107682F43076002E00768AF43D1
:102570000760F0BD1AB1838A0B43838202E0838A2D
:102580008B4383827047028A4FF6F0731A400282AF
:10259000028A0A430282704782894FF2FF731A400F
:1025A000828182890A438281704721B1828942F007
:1025B0000202828104E082894FF6FD731A40828113
:1025C0007047028A4FF6DF731A400282028A0A437A
:1025D0000282704721B1028A42F48042028204E002
:1025E000028A4BF6FF731A4002827047C1F3080259
:1025F0008280704701468888C0F30800704781894F
:1026000041F0010181817047028BD2B20283028BBB
:1026100042EA012202837047028B02F47F42028366
:10262000028B0A430283704721B1828A42F0200262
:10263000828204E0828A4FF6DF731A4082827047FA
:1026400021B1828A42F01002828204E0828A4FF62F
:10265000EF731A408282704721B1828A42F00802E9
:10266000828204E0828A4FF6F7731A4082827047B2
:1026700021B1828942F40042828103E08289C2F35F
:102680000E028281704721B1828A42F40062828206
:1026900004E0828A4FF2FF731A4082827047828A76
:1026A0004FF6FB731A408282828A0A438282704705
:1026B00021B1828A42F00202828204E0828A4FF6CD
:1026C000FD731A408282704702460020B1F5007FF8
:1026D00000D100BF13880B400BB1012000E00020A7
:1026E000704701F40072B2F5007F00D100BFCA4309
:1026F0000280704770B502460024002300250020A8
:1027000040F66A16B14200D100BFC1F3421501F094
:102710001F03012606FA03F3012D02D196893340E7
:1027200006E0022D02D1168A334001E0968A33403A
:102730000C12012606FA04F41688344013B10CB1C9
:10274000012000E0002070BD10B50022002340F6FB
:102750006A14A14200D100BF0A1201249440A3B21E
:10276000DC43048010BD00000038014000440040FC
:1027700000480040004C00400050004001684FF607
:10278000FE72114001600021016041608160C16002
:102790008D49884208D18C490839496841F00F01B8
:1027A000894A083A51608AE087491431884208D141
:1027B00085490839496841F0F001834A083A516077
:1027C0007DE081492831884208D17F49083949682C
:1027D00041F470617C4A083A516070E07A493C31BA
:1027E000884208D178490839496841F47041764AED
:1027F000083A516063E074495031884208D1724907
:102800000839496841F470216F4A083A516056E02E
:102810006D496431884208D16B490839496841F4EF
:102820007001694A083A516049E067497831884245
:1028300008D165490839496841F07061624A083A2F
:1028400051603CE06149884206D1011F096841F0AE
:102850000F01021F116032E05C491431884208D137
:102860005A49091F096841F0F001584A121F1160C6
:1028700025E056492831884208D15449091F096882
:1028800041F47061514A121F116018E04F493C3108
:10289000884208D14D49091F096841F470414B4AEB
:1028A000121F11600BE049495031884207D1474956
:1028B000091F096841F47021444A121F11607047D2
:1028C00010B50022026847F6F0739A430C6A8B68D1
:1028D00023430C6923434C6923438C692343CC690C
:1028E00023434C6A23438C6A23431A430260CB6818
:1028F00043600B6883604B68C36010BD00210160BA
:1029000041608160C160016141618161C1610162B9
:1029100041628162704721B1026842F001020260A7
:1029200004E002684FF6FE731A40026070471AB165
:1029300003680B43036002E003688B430360704746
:10294000416070470146486880B2704701460020E8
:10295000002201F080531BB11C4B083B1A6802E0B7
:10296000194B083B1A6802EA01030BB1012000E091
:102970000020704700F0805119B11449091F086008
:1029800002E01149083948607047014600200022E2
:1029900001F080531BB10D4B083B1A6802E00A4B53
:1029A000083B1A6802EA01030BB1012000E0002095
:1029B000704700F0805119B10449091F086002E016
:1029C0000149083948607047080002400804024085
:1029D00010B50446FE48844208D10121C014FFF717
:1029E0007FFC0021E014FFF77BFCC4E0B4F1804FD2
:1029F00008D101210846FFF780FC00210120FFF7E4
:102A00007CFCB8E0F348844208D101210220FFF7A2
:102A100074FC00210220FFF770FCACE0EE48844219
:102A200008D101210420FFF768FC00210420FFF7F2
:102A300064FCA0E0E948844208D101210820FFF7A6
:102A40005CFC00210820FFF758FC94E0E448844235
:102A500008D101211020FFF750FC00211020FFF7C2
:102A60004CFC88E0DF48844208D101212020FFF798
:102A700044FC00212020FFF740FC7CE0DA4884423F
:102A800008D101214014FFF72BFC00216014FFF74F
:102A900027FC70E0D548844209D10121C804FFF722
:102AA0001FFC00214FF40020FFF71AFC63E0D04820
:102AB000844209D101210805FFF712FC00214FF4DF
:102AC0008010FFF70DFC56E0CA48844209D101216D
:102AD0004805FFF705FC00214FF40010FFF700FC4C
:102AE00049E0C548844208D101214020FFF705FC98
:102AF00000214020FFF701FC3DE0C048844208D19E
:102B000001218020FFF7F9FB00218020FFF7F5FB72
:102B100031E0BB48844208D101218015FFF7EDFB6D
:102B20000021A015FFF7E9FB25E0B648844209D152
:102B300001210804FFF7D4FB00214FF48030FFF798
:102B4000CFFB18E0B048844209D101214804FFF7C7
:102B5000C7FB00214FF40030FFF7C2FB0BE0AB488E
:102B6000844208D101218804FFF7BAFB00214FF409
:102B70008020FFF7B5FB10BD00220288944B9842DD
:102B80000ED0994B98420BD0B0F1804F08D0914BAA
:102B9000984205D0904B984202D0904B984204D175
:102BA0004FF68F731A404B881A438D4B984207D0CB
:102BB0008C4B984204D04FF6FF431A40CB881A43FF
:102BC00002808B8883850B880385814B98420BD0CC
:102BD000854B984208D08B4B984205D08A4B98423F
:102BE00002D08A4B984201D10B7A0386012383825B
:102BF000704770B5002400220023058C4FF6FE7646
:102C000035400584028C8388048B4FF68F752C40E9
:102C1000B51E2C400D882C43751E2A400D892A4371
:102C20004D882A436A4DA8420BD06F4DA84208D068
:102C3000744DA84205D0744DA84202D0734DA842ED
:102C400013D14FF6F7752A404D892A434FF6FB758D
:102C50002A408D882A434FF6FF652B404FF6FF55DB
:102C60002B408D892B43CD892B4383800483CD88D2
:102C70008586028470BD70B5002400220023058C77
:102C80004FF6EF7635400584028C8388048B48F636
:102C9000FF752C404FF6FF452C400D884FF6FF7610
:102CA00006EA05252C434FF6DF752A400D8906EA12
:102CB00005152A434D8806EA05152A43444DA842C6
:102CC00002D0494DA8421DD14FF67F752A404D894B
:102CD0004FF6FF7606EA05152A434FF6BF752A40E0
:102CE0008D8806EA05152A434FF6FF352B404FF233
:102CF000FF752B408D8906EA85052B43CD8906EAB1
:102D000085052B4383800483CD880587028470BDAD
:102D100070B5002400220023058C4FF6FF66354075
:102D20000584028C8388848B4FF68F752C404FF678
:102D3000FC752C400D882C434FF6FF552A400D8919
:102D40004FF6FF7606EA05252A434D8806EA052553
:102D50002A431F4DA84202D0234DA8421DD14FF255
:102D6000FF752A404D894FF6FF7606EA05252A436E
:102D70004FF6FF352A408D8806EA05252A434EF690
:102D8000FF752B404DF6FF752B408D8906EA051522
:102D90002B43CD8906EA05152B4383808483CD8898
:102DA0008587028470BD70B5002200230024058C45
:102DB0004EF6FF7635400584038C8488828B48F676
:102DC000FF752A404FF6FF452A400D8820E000009D
:102DD000002C01400004004000080040000C0040AE
:102DE000001000400014004000340140004C01403D
:102DF000005001400054014000180040001C0040F9
:102E000000200040004001400044014000480140D3
:102E10004FF6FF7606EA05252A434DF6FF752B404F
:102E20000D8906EA05352B434D8806EA05352B4307
:102E3000FA4DA84202D0FA4DA84208D14BF6FF75D0
:102E40002C408D894FF6FF7606EA85152C43848049
:102E50008283CD88A0F84050038470BD828B4FF2EE
:102E6000FF331A408283828B4FF6FF7303EA0123FC
:102E70001A4382837047F0B50C46154600220021A4
:102E80000026078C4EF6FF7C07EA0C070784828B2E
:102E9000018C4FF6FF7707EA043640F6FF473A40C9
:102EA0004FF6FF7707EA05273A434FF6FF7707EA21
:102EB00003373A43D94FB8420ED0D94FB8420BD05E
:102EC000B0F1804F08D0D74FB84205D0D64FB842A6
:102ED00002D0D64FB84206D14DF6FF77394046F4BE
:102EE0008057394305E047F6FF57394044F480578F
:102EF000394382830184F0BD828B4FF6F3731A400D
:102F00008283828B0A4382837047F0B50C46154654
:102F1000002200210026078C4FF6FF6C07EA0C0701
:102F20000784828B018C4FF6FF7707EA04264FF661
:102F30000C773A404FF6FF7707EA03172F433A43DF
:102F4000B64FB8420ED0B64FB8420BD0B0F1804F5A
:102F500008D0B44FB84205D0B34FB84202D0B34FF7
:102F6000B84206D14FF6FF57394046F480773943CF
:102F700005E04FF2FF57394044F4807739438283AC
:102F80000184F0BD028B4FF2FF331A400283028BA3
:102F90004FF6FF7303EA01231A4302837047F0B52B
:102FA0000C461546002200210026078C4FF6EF7CC8
:102FB00007EA0C070784028B018C4FF6FF7707EABC
:102FC000041640F6FF473A404FF6FF7707EA03370B
:102FD0003A434FF6FF7707EA05273A438F4FB84247
:102FE0000ED08F4FB8420BD0B0F1804F08D08D4F2C
:102FF000B84205D08C4FB84202D08C4FB84206D1AF
:103000004FF6DF77394046F01007394305E04FF6B9
:103010005F77394044F01007394302830184F0BDE3
:10302000028B4FF6F3731A400283028B0A4302832A
:103030007047F0B50C46154600220021068C4FF66D
:10304000FE773E400684028B018C4FF60C763240B0
:103050007E1C06EA03162E433243704EB0420ED059
:103060006F4EB0420BD0B0F1804F08D06D4EB042E1
:1030700005D06D4EB04202D06C4EB04206D14FF634
:10308000FD76314044F00106314305E04FF6F57618
:10309000314044F00106314302830184F0BD70B534
:1030A00005460C465D4885420ED05D4885420BD0F2
:1030B000B5F1804F08D05B48854205D05A4885421B
:1030C00002D05A48854200D100E000BF208850B9A4
:1030D0002389A28861882846FFF7ABFFE18828464C
:1030E000FFF79EFF25E0208804280AD12389A288C3
:1030F00061882846FFF753FFE1882846FFF742FF23
:1031000017E0208808280AD12389A28861882846E8
:10311000FFF7FBFEE1882846FFF7EEFE09E0238972
:10312000A28861882846FFF7A6FEE1882846FFF7B7
:1031300095FE70BD2DE9F04105460C46002601279D
:10314000608808B9022600E00026A088012801D185
:10315000022700E001272088A0B92389A28861887E
:103160002846FFF766FFE1882846FFF759FF2389C5
:103170003A4631462846FFF712FFE1882846FFF716
:1031800001FF13E02389A28861882846FFF707FF23
:10319000E1882846FFF7F6FE23893A46314628465D
:1031A000FFF747FFE1882846FFF73AFFBDE8F081C7
:1031B0000A884B881A438B881A43CB881A430B8999
:1031C0001A434B891A438B891A43A0F8442070474D
:1031D0004FF6FF71818000210180C1804180017222
:1031E00070470021018041808180C180018141813F
:1031F0008181C1817047002101804180012181804E
:103200000021C180018170470021018041808180BF
:10321000C18001814181818170470000002C014003
:10322000003401400004004000080040000C004051
:1032300021B1028842F00102028004E002884FF6C8
:10324000FE731A400280704731B1B0F8442042F456
:103250000042A0F8442005E0B0F84420C2F30E027A
:10326000A0F8442070471AB183890B43838102E0A0
:1032700083898B43838170478182704741EA0203CF
:10328000A0F8483070471AB183890B43838102E06C
:1032900083898B438381704701894FF6F87211400F
:1032A000018170470A46002101894FF68F7319404A
:1032B00011430181704730B504460D46294620462A
:1032C000FFF7F0FF208940F00700208130BD2DE995
:1032D000F04104460D4616461F46602D06D13B467A
:1032E000012231462046FFF75AFE05E03B46012207
:1032F00031462046FFF79DFE29462046FFF7D2FFC4
:10330000208940F007002081BDE8F08130B50C46EF
:1033100000210189C9B24FF6FF7505EA032515435F
:1033200025432943018130BD2DE9F04105460E4674
:1033300017469846002443463A4631462846FFF74A
:10334000E5FF2C894FF6F870044044F007044FF66F
:103350008F70044044F070042C81BDE8F081F0B51A
:1033600004460D4616461F463B4632462946204631
:10337000FFF7CCFF208940F480402081F0BD01851B
:10338000828270470A46002101884FF68F731940E8
:10339000114301807047F0B50C4615461E460021CA
:1033A000002200230189028B038C4FF6F877394005
:1033B00021434FF6FC473A4040F201173A434FF69B
:1033C000DD773B404FF6FF7707EA06172F433B4375
:1033D000018102830384F0BD0A460021018B4FF670
:1033E0008F7319401143018370470A460021018BF6
:1033F00048F6FF7319404FF6FF7303EA022319439F
:10340000018370470A460021818B4FF68F73194064
:103410001143818370470A460021818B48F6FF7370
:1034200019404FF6FF7303EA022319438183704763
:1034300021B1028842F08002028004E002884FF647
:103440007F731A400280704721B1828842F00402E3
:10345000828004E082884FF6FB731A4082807047B6
:1034600021B1828842F00802828004E082884FF60F
:10347000F7731A408280704721B1828842F00102BE
:10348000828004E082884FF6FE731A408280704783
:103490000A460021018B4FF6F7731940114301834F
:1034A00070470A460021018B4FF2FF7319404FF617
:1034B000FF7303EA02231943018370470A46002180
:1034C000818B4FF6F77319401143818370470A4689
:1034D0000021818B4FF2FF7319404FF6FF7303EA0F
:1034E00002231943818370470A460021018B4FF65E
:1034F000FB7319401143018370470A460021018B79
:103500004FF6FF3319404FF6FF7303EA02231943C6
:10351000018370470A460021818B4FF6FB731940E7
:103520001143818370470A460021818B4FF6FF3398
:1035300019404FF6FF7303EA022319438183704752
:103540000A460021018B4FF67F7319401143018316
:1035500070470A460021018BC1F30E014FF6FF733D
:1035600003EA02231943018370470A460021818B35
:103570004FF67F7319401143818370470A4600213B
:10358000818BC1F30E014FF6FF7303EA0223194347
:10359000818370470A460021018C4FF6FD73194064
:1035A0001143018470470A460021018C4FF6F773DE
:1035B00019401143018470470A460021018C4FF6DF
:1035C000DF7319404FF6FF7303EA021319430184B6
:1035D00070470A460021018C4FF67F7319404FF661
:1035E000FF7303EA02131943018470470A4600215E
:1035F000018C4FF6FF5319404FF6FF7303EA022385
:103600001943018470470A460021018C4FF2FF7371
:1036100019404FF6FF7303EA0223194301847047F0
:103620000A460021018C4DF6FF7319404FF6FF73D7
:1036300003EA023319430184704730B500230124A3
:103640008C40A3B2048C9C430484048C02FA01F5E0
:10365000ADB22C43048430BD30B5002304248C402B
:10366000A3B2048C9C430484048C02FA01F5ADB22D
:103670002C43048430BD70B5034600200024184656
:10368000183001258D40ACB21D8CA5431D8409B1B5
:10369000082909D100EB6100056825F07005056077
:1036A0000568154305600EE00D1FC5F34E0528445F
:1036B000056825F4E045056005684FF6FF7606EAE3
:1036C00002263543056070BD21B1028842F0020236
:1036D000028004E002884FF6FD731A4002807047B2
:1036E00021B1028842F00402028004E002884FF611
:1036F000FB731A400280704721B1828842F0800239
:10370000828004E082884FF67F731A40828070477F
:1037100002884FF6F7731A40028002880A4302803B
:10372000704782884FF68F731A40828082880A43DE
:103730008280704702894FF6F8731A40028102892D
:103740000A430281704702894FF67F731A40028153
:1037500002890A43028170478184704781857047DE
:10376000818670470187704781877047A0F84010B5
:10377000704702884FF6FF431A40028002880A43CE
:10378000028070470146888E70470146088F704757
:103790000146888F70470146B1F8400070470146E6
:1037A000888C70470146088D704702460020138AB6
:1037B0000B400BB1012000E000207047CA43028299
:1037C000704730B50246002000230024158A05EA20
:1037D0000103958905EA010413B10CB1012000E051
:1037E000002030BDCA4302827047000010B5044675
:1037F000BE48844208D101218014FEF771FD0021EA
:10380000A014FEF76DFD16E0B948844208D10121ED
:103810000014FEF772FD00212014FEF76EFD0AE091
:10382000B448844207D10121C013FEF766FD002190
:10383000E013FEF762FD10BD10B50022028802F40D
:1038400041520B884C8823438C882343CC882343E4
:103850000C8923434C8923438C892343CC892343FC
:103860001A430280838B4FF2FF74234083830B8AB9
:10387000038210BD2DE9F04F85B005460C464FF090
:10388000000902274FF000084FF0010B0026B24656
:10389000A88B4FF240010840A88302202884B5F885
:1038A0001C90A068022801D100BF38E0A08810B9A0
:1038B0004FF0010B01E04FF0020B8D48854200D123
:1038C00000E000BF6846FEF784FCDDF800A0E08859
:1038D000B0F5007F0AD14FEA1A2000EB80004000CB
:1038E000A168B0FBF1F0401D86B20BE04FEA4B102F
:1038F000BAFBF0F000EB80004000A168B0FBF1F0F3
:10390000401D86B20A20B6FBF0F606F00108A6EBD1
:103910000800C0F34F074FF6FF7000EA0828022F97
:1039200001DBFF2F02DD02274FF00008E08840EAAC
:10393000080038432884A088A18908436188084387
:103940002188084340F4006040EA0909A5F81C906A
:1039500005B0BDE8F08F0021018041808180C180E9
:10396000018141818181C18107210182704700214C
:10397000018041808180C18002218160002181819C
:10398000704721B1028842F04002028004E00288C0
:103990004FF6BF731A400280704721B1828B42F408
:1039A0008062828304E0828B4FF6FF331A40828369
:1039B000704730B5002400230C110125A540ABB29F
:1039C0001AB185881D43858002E085889D438580E6
:1039D00030BD1AB183880B43838002E083888B4318
:1039E00083807047818170470146888970474FF610
:1039F000FF62914204D0028842F48072028004E0A7
:103A000002884FF6FF631A400280704721B1828816
:103A100042F00402828004E082884FF6FB731A4071
:103A20008280704702884FF2FF731A40028002883A
:103A30000A4302807047018841F480510180704739
:103A400021B1028842F40052028004E002884DF65F
:103A5000FF731A400280704702460020012901D0FE
:103A6000108B00E0908A70470146088A7047B1F5D4
:103A7000804F04D1028842F48042028004E0028830
:103A80004BF6FF731A4002807047024600201389EC
:103A90000B400BB1012000E000207047CA430281B7
:103AA0007047F0B50246002000240023002501F0F5
:103AB0000F070126BE40B4B20B1101269E40B3B2DF
:103AC000968806EA03051689264016B10DB1012035
:103AD00000E00020F0BD10B5002201F00F0401232A
:103AE000A3409AB2D343038110BD000000300140CF
:103AF00000380040003C0040002044490860091D97
:103B00000860091D0860091D086041483F491431DB
:103B10000860704700213D498279002A3AD00A4660
:103B2000126803689A430B461A600A1D12680368FC
:103B30009A430B1D1A60027911440A6803681A43FC
:103B40000A60324A0832126803689A432F4B0833DE
:103B50001A601A1D126803689A432C4B0C331A60C2
:103B60004279102A0ED11A1F126803681A43274B94
:103B700008331A601A1D126803681A43234B0C336A
:103B80001A600DE02149427911440A6803681A431A
:103B90000A6005E0027911440A6803689A430A60E2
:103BA00070470021016001710C2141710021817178
:103BB00070471649103109680143144A10321160E8
:103BC000704701460020114A143212680A400AB1B7
:103BD000012000E0002070470C4914310860704754
:103BE000014600200022094B1B6803EA0102074B33
:103BF00014331B680B4013B10AB1012000E0002010
:103C00007047024914310860704700000004014009
:103C1000FFFF0F00FA48002101804160816081812F
:103C20000020F7498870C870C8730874704701464F
:103C300009B910207047012901D11820FAE702299B
:103C400001D12020F6E7032901D12820F2E7042939
:103C500001D13020EEE7052901D14020EAE706290D
:103C600001D16020E6E7072901D18020E2E74FF487
:103C70008070DFE7E2490978890921B1012908D07C
:103C8000022912D10BE00421DD4AD170012191708B
:103C90000BE00721DA4AD1700221917005E00A2178
:103CA000D74AD1700321917000BF00BF704738B56B
:103CB0000446D4A00068009022466946022002F023
:103CC000BCF905460DB1012000E0002000B106E07E
:103CD000CB4861880180FFF7CDFF002038BD61200F
:103CE000FCE72DE9F04F87B004468B46C6A103C917
:103CF000CDE905010027B846B94600260025002079
:103D000004908246039002908DF814B0224605A9D3
:103D1000032002F092F90190019808B1012000E01F
:103D2000002000B133E16778B846781E205C00F0CF
:103D30008009E65D781C255C082D03D1612007B061
:103D4000BDE8F08F1DE14FF00009202000EB0611C7
:103D5000681C0844C0B28DF815008EB9A078691CA3
:103D6000FF228A4090438DF81600681CC0B240F0D4
:103D700040008DF817009DF816008DF8080067E0E8
:103D8000012E18D1A0788DF81600E078691CFF226A
:103D90008A4090438DF81700681CC0B240F0400084
:103DA0008DF818009DF816008DF808009DF8170092
:103DB0008DF809004CE0022E1FD1A0788DF8160076
:103DC000E0788DF817002079691CFF228A40904323
:103DD0008DF81800681CC0B240F040008DF8190042
:103DE0009DF816008DF808009DF817008DF8090061
:103DF0009DF818008DF80A002AE0032E26D1A0783D
:103E00008DF81600E0788DF8170020798DF81800ED
:103E10006079691CFF228A4090438DF81900681C64
:103E2000C0B240F040008DF81A009DF816008DF8E1
:103E300008009DF817008DF809009DF818008DF80E
:103E40000A009DF819008DF80B0001E0612076E76B
:103E5000311DC8B2224605A902F0EFF8207880286B
:103E600001D061206BE76778781E205C00F0800944
:103E7000B9F1800F04D114F807A0781C205C0390DE
:103E8000781E205C00F00F00C0F10800C0B2049062
:103E9000691C0498884245D196B99DF81600FF2206
:103EA0008A409043A17808438DF80800E0788DF8A7
:103EB000090020798DF80A0060798DF80B0033E055
:103EC000012E10D19DF81700691CFF228A409043F3
:103ED000A17808438DF80900E0788DF80A00207970
:103EE0008DF80B0020E0022E0DD19DF81800691C02
:103EF000FF228A409043A17808438DF80A00E078B9
:103F00008DF80B0010E0032E0AD19DF81900691CF2
:103F1000FF228A409043A17808438DF80B0003E00C
:103F200061200CE761200AE78020207084F801807E
:103F30009DF80800A0709DF80900E0709DF80A0047
:103F400020719DF80B0060719DF808009DF8091024
:103F500048409DF80A1048409DF80B104840A07159
:103F6000B9F1800F0DD1564504D006EB0A00C6B258
:103F7000039D06E006EB0A00C6B20398401C2844E5
:103F8000C5B2B9F1800F3FF4DEAE0020D7E6612064
:103F9000D5E62DE9F04106461D4D0024932130461B
:103FA000FFF79FFE8046B8F1000F01D0012000E02E
:103FB000002000B158E01248C078042804D110480D
:103FC000D6F80210416005E00D48B6F80310818074
:103FD00071798171B77993222046611CCCB22A5441
:103FE00070222046611CCCB22A540548C0780428AF
:103FF00010D12819024949680160201DC4B216E099
:10400000540B0020260700000020080000000000DC
:10401000730E002088222046611CCCB22A54281935
:10402000F9498A88028089798170E01CC4B22046EF
:10403000611CCCB22F5428222046611CCCB22A54D9
:1040400032462946204601F0F8FF8046B8F1000FBD
:1040500001D0012000E0002000B105E0B078EA497D
:1040600088730020BDE8F0816120FBE72DE9F04175
:104070000646E64D002495213046FFF732FE804685
:10408000B8F1000F01D0012000E0002000B152E0A3
:10409000DD48C078072805D1DB48D6F80210C0F803
:1040A000071006E0D848B6F80310A0F80710717999
:1040B0004172B77995222046611CCCB22A547022F5
:1040C0002046611CCCB22A54CF48C078072807D1BB
:1040D0002919CD48D0F807000860201DC4B20DE0B2
:1040E00088222046611CCCB22A542919C648B0F84F
:1040F00007200A80407A8870E01CC4B22046611C08
:10410000CCB22F5428222046611CCCB22A5432460D
:104110002946204601F091FF8046B8F1000F01D0FA
:10412000012000E0002000B105E0B078B6498873B6
:104130000020BDE8F0816120FBE72DE9F041064653
:10414000B24D002497213046FFF7CBFD8046B8F1F1
:10415000000F01D0012000E0002000B137E0AA48A4
:10416000D6F80210C0F80710B77997222046611CD4
:10417000CCB22A5470222046611CCCB22A54A248E8
:10418000C0780A2806D129199F48D0F8070008608E
:10419000201DC4B22046611CCCB22F5428222046D8
:1041A000611CCCB22A5432462946204601F045FF14
:1041B0008046B8F1000F01D0012000E0002000B1DE
:1041C00005E0B078904988730020BDE8F081612057
:1041D000FBE738B504468EA0006800902246694689
:1041E000032001F02AFF002038BDF8B5044689A05D
:1041F0000068009022466946032001F01EFF054634
:104200000DB1012000E0002000B132E02146042081
:1042100001F094FE05460DB1012000E0002000B140
:1042200027E02146022001F0A1FF05460DB1012043
:1042300000E0002000B11CE0E07800F00F063046FE
:10424000FFF7F5FC74490880E07800F02000202892
:104250000DD1E07800F01000102804D16079000939
:104260006E49088003E0207900096C49088000202D
:10427000F8BD6120FCE770B5694D2846FFF789FE5F
:1042800004460CB1012000E0002000B129E05E48A6
:10429000807B00F0040048B12846FFF7E7FE0446A3
:1042A0000CB1012000E0002000B11AE05648807BEC
:1042B00000F0040048B12846FFF73FFF04460CB168
:1042C000012000E0002000B10BE02846FFF781FF4D
:1042D00004460CB1012000E0002000B101E0002004
:1042E00070BD6120FCE770B586B04EA103C9CDE971
:1042F00004014EA0006803904DA0006802900026C3
:10430000424DAD1E4B480078342801DB062600E004
:104310000426711CC8B22B4604AA022101F0C4FD78
:1043200004460CB1012000E0002000B120E003AB06
:1043300000223A210420009501F0E9FE04460CB168
:10434000012000E0002000B112E03048801E02ABE6
:10435000012268210090042001F0D9FE04460CB12E
:10436000012000E0002000B102E0002006B070BD96
:104370006120FBE710B5FFF74DFCFFF7B4FF0446E3
:104380000CB1012000E0002000B108E001202A4922
:10439000087041F2EC30FDF788FB002010BD612071
:1043A000FCE770B504462146244801F0CFFE08B171
:1043B000612070BD6078401EC5B2605D00F02000D5
:1043C000202801D16220F4E72078802804D1607889
:1043D000042801D16120ECE70220194908702078F7
:1043E000802803D101201749087001E06120E0E72F
:1043F0000020DEE770B5054CA41E2046FFF757FCF1
:1044000005460DB3012020E0540B0020730E002060
:1044100050002800E08028005400002056000020B2
:10442000E10B002000000000020200005A0400001E
:1044300001DF00006600002058000020F075000831
:104440006400002065000020002000B10FE021463C
:10445000042001F073FD05460DB1012000E00020AD
:1044600000B104E00120C0490874002070BD612043
:10447000FCE7F0B585B00546BCA103C9CDE9030151
:10448000AFF2580000680290AFF25C000068019043
:104490000027B84EB8480078342801DB062700E032
:1044A0000427B6480088042802DA0420B3490880AB
:1044B000B24800788DF80D008DF80E5000208DF870
:1044C0000F00791CC8B2334603AA022101F0ECFCAC
:1044D00004460CB1012000E0002000B11FE002AB57
:1044E00000223A210420009601F011FE04460CB18E
:1044F000012000E0002000B111E09E4801AB012244
:1045000068210090042001F002FE04460CB1012055
:1045100000E0002000B102E0002005B0F0BD612005
:10452000FBE770B586B091A103C9CDE90401AFF2F4
:10453000041000680390AFF2081000680290002693
:104540008C4D8D480078342801DB062600E00426D7
:1045500004208DF8110000208DF812000C208DF839
:104560001300711CC8B22B4604AA022101F09CFC66
:1045700004460CB1012000E0002000B11FE003ABB5
:1045800000223A210420009501F0C1FD04460CB13F
:10459000012000E0002000B111E0764802AB0122CA
:1045A00068210090042001F0B2FD04460CB1012006
:1045B00000E0002000B102E0002006B070BD6120E4
:1045C000FBE770B56B4D2846FFF7E3FC04460CB1E2
:1045D000012000E0002000B14BE06348807B00F048
:1045E000040048B12846FFF741FD04460CB1012004
:1045F00000E0002000B13CE05B48807B00F004005C
:1046000048B12846FFF799FD04460CB1012000E0AF
:10461000002000B12DE05448807B00F0200070B1F4
:10462000FFF77FFF01205049C8732846FFF7DDFDE3
:1046300004460CB1012000E0002000B119E0012087
:10464000FFF717FF02204E4908704748807B00F0B3
:10465000600018B902204B49087008E04248807B8E
:1046600000F02000202802D10420464908700020D4
:1046700070BD6120FCE72DE9F04104460E464FF085
:1046800000080027002500203F4908702070052001
:10469000FDF72FFAFFF7BEFA2DE0FFF7BBFAFFF7A1
:1046A000A9FE20BB3220FDF700FAFFF7E4FD00BBB6
:1046B0002D48C178207800EB400202EBC000334A5D
:1046C000115400250DE02848001D415D681C22782A
:1046D00002EB420303EBC20210442C4A1154681C43
:1046E000C5B20A2DEFDB2078401C207001E04FF0AE
:1046F0000108781CC7B2B8F1000F01D10A2FCCDD38
:104700002078052809DC207800EB400101EBC0028D
:104710001E49304602F07EFC13E037221B4930462A
:1047200002F078FC2078401F17490870084600788E
:1047300000EB400101EBC00214493731144802F08C
:1047400069FCBDE8F08170B504460D460E4800785E
:1047500000EB400101EBC0020D49284602F05AFC73
:1047600009480078207070BD540B00200000000044
:1047700003030000710E0020660000205600002098
:104780006400002065000020520000204C0A002038
:10479000140B002010B50D21A44802F080FCA348A2
:1047A0000021C0F80D100020A04948763C219F4808
:1047B0001A3002F074FC10BD10B504460D22A11C85
:1047C0009A4802F027FC994854F8031FC0F80D10CE
:1047D0006168C0F81110A168E41EC0F8151010BD82
:1047E0007CB593A000680190924D01AB0122682135
:1047F0000420009501F08BFC04460CB1012000E080
:10480000002000B101E000207CBD7120FCE77CB5F8
:1048100004460120019001AB00226821032000948E
:1048200001F075FC05460DB1012000E0002000B14B
:104830000FE00123022268210320009401F046FCCE
:1048400005460DB1012000E0002000B101E000208C
:104850007CBD7120FCE770B5764CFFF7C1FF0546C3
:104860000DB1012000E0002000B113E02046FFF769
:10487000CEFF05460DB1012000E0002000B109E0A7
:10488000A078012804D1E078512801D1002070BD22
:104890007120FCE77120FAE72DE9FC41654E66A026
:1048A0000068019065A000680090042764480078C3
:1048B000342801DA01AD00E06D46FFF76BFF3346A7
:1048C0002A460321042001F0EFFA04460CB101202E
:1048D00000E0002000B112E002205A490870FFF702
:1048E000BAFF04460CB1012000E0002000B106E050
:1048F00041F2EC30FDF7D9F80020BDE8FC817120D1
:10490000FBE738B5044650A000680090224669468F
:10491000032001F092FB05460DB1012000E00020CC
:1049200000B107E00120414948762046FFF744FFE7
:10493000002038BD7120FCE77FB50446434B0FCB08
:104940008DE80F003948D0F80D00CDF8010022465F
:104950006946092001F071FB05460DB1012000E018
:10496000002000B10DE02146032001F0FFFB0546C9
:104970000DB1012000E0002000B102E0002004B0F1
:1049800070BD7120FBE770B52A4DFFF785FF044627
:104990000CB1012000E0002000B10BE02846FFF739
:1049A000B0FF04460CB1012000E0002000B101E09E
:1049B000002070BD7120FCE738B51E4D24A00068B2
:1049C00000902846FFF7B8FF04460CB1012000E034
:1049D000002000B114E02B466A460321042001F0B8
:1049E00063FA04460CB1012000E0002000B107E0AA
:1049F000022018490870052017490870002038BDAA
:104A00007120FCE738B50B4CB22000902246694675
:104A1000012001F012FB05460DB1012000E000204D
:104A200000B101E0002038BD7120FCE7F20D00204C
:104A300001510000710E00200102000001001A0067
:104A4000660000205800002005000000FC750008EA
:104A500001043E006400002065000020014601F0D2
:104A6000100008B1012070470020FCE7014601F06A
:104A7000200008B1012070470020FCE7014601F04A
:104A8000400008B1012070470020FCE7014601F01A
:104A9000080008B1012070470020FCE72DE9F04331
:104AA000044607AD95E8E0104FF0000801F0010959
:104AB000204669F35F0002F0010940EA890003F033
:104AC000010940EAC90005F0010940EA091006F0B1
:104AD000010940EA491007F0010940EA89100CF089
:104AE000010940EAC9184FFA88F0BDE8F083014691
:104AF00001F0040008B1002070476FF00E00FBE7E2
:104B00002DE9FF4F85B014469946129E00250020DE
:104B1000009082460027FF20307000207070402CEB
:104B200004DD6FF00C0009B0BDE8F08F0598FFF7C9
:104B3000DEFF8046B8F1000F01D0012000E0002028
:104B400000B171E029466A1CD5B201AA05985054FB
:104B500001222846691CCDB201A90A540598FFF725
:104B60007DFF012805D129466A1CD5B201AA069805
:104B700050542846691CCDB201A90C54E4B3402C12
:104B800002D10820009007E02046E11704EB5171A4
:104B9000C910491CC9B200910098401EA4EBC00086
:104BA00000F0FF0ABAF1000F06D0012000FA0AF067
:104BB000401E4FFA80FB01E04FF0FF3B00980128B8
:104BC0000EDD002708E019F807202846691CCDB241
:104BD00001A90A54781C47B20098401EB842F2DC82
:104BE000BAF1000F08D019F8070000EA0B002946B7
:104BF0006A1CD5B201AA5054324601A9284601F0D8
:104C00001CFA8046B8F1000F01D0012000E000201E
:104C100000B109E03146042001F090F910B16FF0C5
:104C20000E0080E700207EE76FF00E007BE72DE9A5
:104C3000F84F04460D4616461F46DDF8288044F01E
:104C400020004FFA80F909F0FF003B463246294622
:104C5000CDF80080FFF754FF82465046BDE8F88F3C
:104C600001464878401C085C00F00302032A01D189
:104C7000002070476FF00E00FBE710B50446204699
:104C800001F0C5F82146042001F058F910B16FF089
:104C90000E0010BD0020FCE72DE9FF4F85B0064651
:104CA0008A46DDE912474FF00008C14626F0200091
:104CB0004FFA80FB0020207001A800900BF0FF004D
:104CC0005146DDE90723FFF71BFF054635B901A86B
:104CD000FFF7C6FF10B94FF001090AE04DB99DF882
:104CE0000500821C01A9384602F094F92078401C86
:104CF000207023E0052001F0A1FB01A8FFF7BDFF14
:104D000005465DB901A8FFF7ABFF38B9012000FAED
:104D100008F040EA09000FFA80F90FE075B923782E
:104D20009DF80510891C03FB01709DF805108A1C75
:104D300001A902F06FF92078401C20704046411C08
:104D40004FFA81F80F28D5DB484609B0BDE8F08F4F
:104D5000014601F0200008B1002070476FF00E00FE
:104D6000FBE72DE9FF4105460E4600242846FFF7E4
:104D7000EFFF07460FB1012000E0002000B11CE06A
:104D80002046611CCCB201A90D5402222046611CB0
:104D9000CCB201A90A5401A82044316801607168AD
:104DA000416004F10800C4B26A4601A9204601F03E
:104DB00044F9002004B0BDE8F081FF208DF8000028
:104DC00000208DF801006FF00E00F3E72DE9FF41A0
:104DD0000746884615461E4600242146641C0DF8E9
:104DE000017020222146641C0DF801203846FFF78F
:104DF0003DFE01280AD10DEB0400D8F80010016037
:104E0000D8F80410416004F10800C4B23846FFF736
:104E10003DFE30B9EAB22046611CCCB20DF800204C
:104E20000BE0EAB22046611CCCB20DF800202A0A41
:104E30002046611CCCB20DF800203246694620465F
:104E400001F0FBF83146042001F078F8F12804D194
:104E50006FF00E0004B0BDE8F0810020FAE72DE904
:104E6000F047ADF5047D07468846154699468C9E69
:104E700000244FF0040A2146641C0DF80170212221
:104E80002146641C0DF801203846FFF7EFFD01288C
:104E90000AD10DEB0400D8F800100160D8F8041016
:104EA000416004F10800C4B23846FFF7EFFD30B9A5
:104EB000EAB22046611CCCB20DF800200BE0EAB249
:104EC0002046611CCCB20DF800202A0A2046611C45
:104ED000CCB20DF800200DEB04005246494602F01A
:104EE00099F804EB0A00C4B23846FFF7C7FD28B9A9
:104EF00032466946204601F0A0F80AE0324669468B
:104F0000204601F09AF81420FCF7F3FD3046FFF735
:104F1000B4FE3146042001F011F8F12805D16FF0FC
:104F20000E000DF5047DBDE8F0870020F9E72DE9BE
:104F3000FF4707468846154699460C9E00242146A1
:104F4000641C0DF8017023222146641C0DF8012019
:104F50003846FFF78BFD01280AD10DEB0400D8F885
:104F600000100160D8F80410416004F10800C4B2D8
:104F70004FF6FF7000EA45153846FFF787FD30B958
:104F8000EAB22046611CCCB20DF800200BE0EAB278
:104F90002046611CCCB20DF800202A0A2046611C74
:104FA000CCB20DF800202046611CCCB20DF8009068
:104FB00032466946204601F040F83146042000F0B0
:104FC000BDFF212804D16FF00E0004B0BDE8F087CA
:104FD000B07810B16FF00E00F7E70020F5E72DE98B
:104FE000FF410746884615461E4600242146641C9C
:104FF0000DF8017030222146641C0DF8012038465E
:10500000FFF734FD01280AD10DEB0400D8F8001099
:105010000160D8F80410416004F10800C4B2EAB29B
:105020002046611CCCB20DF800202A0A2046611CE3
:10503000CCB20DF8002032466946204600F0FDFF54
:105040003146042000F07AFFF12804D16FF00E0001
:1050500004B0BDE8F0810020FAE72DE9F047ADF596
:10506000047D07468846154699468C9E00244FF0DD
:10507000040A2146641C0DF8017031222146641C8B
:105080000DF801203846FFF7F1FC01280AD10DEB9D
:105090000400D8F800100160D8F80410416004F151
:1050A0000800C4B2EAB22046611CCCB20DF8002060
:1050B0002A0A2046611CCCB20DF800200DEB04003A
:1050C0005246494601F0A6FF04EB0A00C4B2384636
:1050D000FFF7D4FC28B932466946204600F0ADFF00
:1050E0000AE032466946204600F0A7FF1420FCF78C
:1050F00000FD3046FFF7C1FD3146042000F01EFFE1
:10510000F12805D16FF00E000DF5047DBDE8F087A4
:105110000020F9E72DE9FF478046894615461E46DF
:105120000C9F00242146641C0DF801803322214687
:10513000641C0DF801204046FFF798FC01280AD1B5
:105140000DEB0400D9F800100160D9F8041041609B
:1051500004F10800C4B24FF6FF7000EA4515EAB248
:105160002046611CCCB20DF800202A0A2046611CA2
:10517000CCB20DF80020F2B22046611CCCB20DF882
:105180000020320A2046611CCCB20DF800203A46BD
:105190006946204600F051FF3946042000F0CEFE5B
:1051A000212804D16FF00E0004B0BDE8F087B87874
:1051B00010B16FF00E00F7E70020F5E70146087820
:1051C000802801D1002070470878882801D100206C
:1051D000F9E708788E2801D10020F4E76FF00E007F
:1051E000F1E730B503460C464FF6FF71002213E09D
:1051F000985C414008250BE001F0010020B148F225
:10520000084080EA610000E048100146681E45B28F
:10521000002DF1DC501C42B2A242E9DBC84300B2CF
:1052200030BD70B505460C46002624B121462846FF
:10523000FFF7D7FF0646F04380B24FF2B80188422D
:1052400002D06FF00E0070BD0020FCE72DE9F04F9A
:105250008BB005460F461446984604200A90FEA0DF
:10526000006801902046E11704EB9171C1F38F06AD
:10527000E019C11700EB9171C1F38F0A2046E117C5
:1052800004EB91718910A4EB810101F0FF0BE0198F
:10529000C11700EB91718910A0EB8101C1F10401EC
:1052A00001F0FF0945B9F0B28DF8060002AA01A984
:1052B000032000F0C2FE1DE0012D0ED10A208DF862
:1052C0000400F0B28DF80600300A8DF8070002AA3B
:1052D00001A9042000F0B1FE0CE0022D0AD1F0B2C9
:1052E0008DF80600300A8DF8070002AA01A90420F3
:1052F00000F0A3FE9DF80800802803D0F1200BB039
:10530000BDE8F08F5A460DF10B01404601F082FED8
:10531000149880F800B04DB90AF0FF008DF806002F
:1053200002AA01A9032000F088FE11E0022D0FD18E
:105330000A208DF804000AF0FF008DF806004FEAFD
:105340001A208DF8070002AA01A9042000F075FEBA
:105350009DF80800802801D0F120D0E7C9F10700AE
:1053600002AA81184A4608F1040001F053FE15987C
:1053700080F800900020C2E72DE9F04FA5B0054667
:10538000894616461F464FF0020A4FF0000B4FF0B9
:1053900000083046F11706EBD1614911491C1FFA8C
:1053A00081FB3846F91707EBD161C1F34F18012D86
:1053B00001D14FF00A0A00242BE004EB0800082872
:1053C00000DC0DB1012D0ED102A8009004EB080005
:1053D00082B21F2300215046FFF7A9FD80B1F120C2
:1053E00025B0BDE8F08F02A8009004EB080082B25F
:1053F0001F2300215046FFF78DFE08B1F120EFE793
:1054000009EBC41080220DF10B0101F003FE601CBA
:1054100084B25C45D1DB0020E2E72DE9FF4704467A
:10542000884691461F464FF0020A00253E460CB9B9
:10543000F6B20CE0012C02D14FF00A0A07E0022C70
:1054400001D1B6B203E0F12004B0BDE8F087002539
:105450001FE0781986B2FF2E00DC0CB1012C08D1B8
:105460006B46324600215046FFF7B0FC50B1F120A8
:10547000EAE76B46324600215046FFF7B0FD08B11F
:10548000F120E1E708EB8500DDF803100160681CFE
:1054900085B24D45DDDB0020D6E72DE9F0478AB027
:1054A00005460F4690461C464FF002090026B246BC
:1054B0000DB9E4B20CE0012D02D14FF00A0907E06A
:1054C000022D01D1A4B203E0F1200AB0BDE8F087BB
:1054D000264624E0FF2E00DC0DB1012D0CD102A8E0
:1054E0000090301B07EB8003324600214846FFF74F
:1054F000B6FC70B1F120E8E702A80090301B07EB82
:105500008003324600214846FFF7A7FD08B1F1208D
:10551000DBE70AF104001FFA80FA701C86B204EB84
:105520000800B042D6DC0020CFE71FB50020039072
:105530004AA0006801900920039002AB03AA012150
:10554000022000F0B1FC04460CB1012000E0002074
:1055500000B11DE004204249087002A801AB0122FD
:1055600068210090042000F0D2FD04460CB1012017
:1055700000E0002000B10BE002A9022000F0DEFCF8
:10558000F12803D16FF00E0004B010BD0020FBE73E
:105590006FF00E00F8E7F0B589B00546FFF7C5FFDC
:1055A00004460CB1012000E0002000B136E00520E7
:1055B000FCF79FFA00200122CDE900020290034689
:1055C00011460390FFF76AFA064605A80090F0B26C
:1055D00000231A461946FFF793FA04460CB101203E
:1055E00000E0002000B119E09DF81500401CC7B292
:1055F00005A8C05D00F0020018B16FF00E0009B000
:10560000F0BD1CB90698286007986860022015490B
:1056100008700620144908700020F0E76FF00E00B3
:10562000EDE72DE9FE43074688461546002421464E
:10563000641C0DF801702B222146641C0DF801201A
:105640003846FFF713FA012816D10DEB0400D8F8FD
:10565000001001600AE000000220000001D10000FB
:10566000580000206400002065000020D8F80410D5
:10567000416004F10800C4B22A466946204600F0A1
:10568000DCFC06460EB1012000E0002000B10BE07A
:105690002946042000F052FCF12803D16FF00E00DF
:1056A000BDE8FE830020FBE7FF2028700020687023
:1056B0006FF00E00F4E72DE9FE4307468846914659
:1056C0001D4600242146641C0DF801703B22214632
:1056D000641C0DF801202146641C0DF80180384639
:1056E000FFF7C4F901280AD10DEB0400D9F8001026
:1056F0000160D9F80410416004F10800C4B22A46E0
:105700006946204600F099FC06460EB1012000E0F3
:10571000002000B10BE02946042000F00FFCF12826
:1057200003D16FF00E00BDE8FE830020FBE7FF20F1
:105730002870002068706FF00E00F4E72DE9F05F2C
:10574000044617469846DDF8289094F802A0607841
:10575000401E00F0FF0B0225BAF1000F03D06FF0DE
:105760000E00BDE8F09F60195946FFF75AFD064646
:105770000EB1012000E0002000B10AE0605D387049
:10578000681C205C88F80000A81C89F80000002034
:10579000E7E76FF00B00E4E72DE9FF4FADF2344D82
:1057A0008346154698460026CDF828B0B146012418
:1057B0000027002006902BF0040040F02000059008
:1057C000042004900020039080210BA801F089FCA4
:1057D00000202870FB480DF22C4332460090DDF883
:1057E00038140A98FFF723FAF648FFF7E7FC20B1D0
:1057F00000200DF2444DBDE8F08F04A80090F14860
:10580000417807AB09AAFFF799FF8246BAF1000F6A
:1058100018D101202870EB489DF8102081180598B8
:10582000FFF79FFA9DF81C0088F80000E5489DF8F6
:10583000101008440168C8F801104068C8F8050055
:105840000020D6E70A2000F0F9FD0020287000BFF4
:105850000020CDF82C04CDF83004601EC4B20BA893
:1058600000EBC40050F8011FCDF82C144068CDF8AF
:105870003004D44808A90DF22C433246CDE900107B
:10588000DDF838140A98FFF707FA80B203904FF05A
:105890000009002737E004A8CA4A0090517802EBBB
:1058A000090007AB09AAFFF749FF8246BAF1000FCA
:1058B0001FD19DF810004844C24A81180598FFF78F
:1058C00050FA9DF81C00297801EBC10108F801008D
:1058D000287800EBC000401C40449DF8101049445B
:1058E000B84A11440A680260496841602878401C3F
:1058F0002870B44909F10100085C801C484400F09C
:10590000FF09781CC7B29DF820008742C3DB301D19
:10591000C6B200272FE00120B8400399084040B3E9
:10592000301FC21700EB5272D2100DF22C439A5C5A
:10593000311FCB1701EB5373DB10A1EBC30307FA45
:1059400003F31A43D3B2C21700EB5272D2100DF216
:105950002C4C0CF802300BA800F8346000EBC400AB
:10596000DDF82C1440F8011FDDF830144160601C94
:10597000C4B2781CC7B2102FCDDB0698401CC0B251
:105980000690002C03DD06982028FFF661AF00206A
:105990002FE72DE9F04FADF5097D80468A46144684
:1059A0001E464FF0000BCDF818800025A9460420B4
:1059B0000290802107A801F094FB0020207081480C
:1059C00004A987AB5A46CDE9001051460698FFF767
:1059D00063F99DF8100028B9002020700DF5097DAD
:1059E000BDE8F08F0025A9462BE002A8754A00907B
:1059F0005178501903AB05AAFFF7A0FE0746B7B9C7
:105A00009DF80C00217801EBC1017054207800EB67
:105A1000C000401C30449DF808102944694A1144D4
:105A20000A680260496841602078401C207065491E
:105A3000681C085C801C2844C5B209F1010000F014
:105A4000FF099DF810008145CFDB0020C6E72DE956
:105A5000F04188B004460D4617464FF00A08FFF79C
:105A600064FD6A4600214046FFF7DBFD10B99DF852
:105A700011600FE04FF002086A4600214046FFF730
:105A8000D0FD10B99DF8106004E06FF00A0008B076
:105A9000BDE8F0814E2E26D004DC2C2E07D0442EFB
:105AA00044D135E05A2E2CD05E2E3FD10DE09DF82A
:105AB0000F004FF47F4101EA00209DF80E100843CB
:105AC000401C20800220287053E09DF80F004FF406
:105AD0007F4101EA00209DF80E100843401C208001
