:020000040800F2
:10000000C04B0020112F000875030008770300087B
:100010007B0300087F030008830300080000000042
:10002000000000000000000000000000870300083E
:100030008903000800000000A77C0008852700084D
:100040002B2F00082B2F00082B2F00082B2F000828
:100050002B2F00082B2F0008111F0008051E000879
:100060002B2F00082B2F00082B2F00082B2F000808
:100070002B2F00082B2F00082B2F00082B2F0008F8
:100080002B2F00082B2F00082B2F00082B2F0008E8
:100090002B2F00082B2F00082B2F0008251D0008F0
:1000A0002B2F00082B2F00082B2F00082B2F0008C8
:1000B0002B2F0008691C00082B2F00082B2F00088D
:1000C0002B2F00082B2F00082B2F00082B2F0008A8
:1000D0002B2F0008E32900082F2B0008932D000880
:1000E0002B2F00082B2F00082B2F00082B2F000888
:1000F0002B2F00082B2F00082B2F00082B2F000878
:100100002B2F00082B2F00082B2F00082B2F000867
:100110002B2F00082B2F00082B2F00082B2F000857
:100120002B2F00082B2F00082B2F00082B2F000847
:1001300000F002F800F03AF80AA090E8000C8244BF
:100140008344AAF10107DA4501D100F02FF8AFF29C
:10015000090EBAE80F0013F0010F18BFFB1A43F0A5
:1001600001031847E4B2000004B30000103A24BFB2
:1001700078C878C1FAD8520724BF30C830C144BF0C
:1001800004680C607047000000230024002500264E
:10019000103A28BF78C1FBD8520728BF30C148BFEA
:1001A0000B6070471FB51FBD10B510BD07F02AFECC
:1001B0001146FFF7F7FF00F083F807F048FE03B49D
:1001C000FFF7F2FF03BC02F0ADFB0000604800BF88
:1001D000011EA0F10100FBD1704710B501210420E0
:1001E00003F0D2F90121082003F0CEF901211020FB
:1001F00003F0CAF90121084603F0C6F910BD07E073
:1002000001F06CFB962300221146104607F0FAF825
:10021000F6E707E001F097FE322300221146104670
:1002200007F0F0F8F6E707E000F043FF00230122B3
:100230001946184607F0E6F8F6E709E002F03BF841
:1002400002F0FBF8322300221146104607F0DAF8DC
:10025000F4E709E001F0D6FA01F0BFF90523002226
:100260001146104607F0CEF8F4E700BF05F014FA87
:100270000523384A0021AFF2250006F049FD072387
:10028000354A0021AFF24D0006F042FD0623334A05
:100290000021AFF26D0006F03BFD0823304A00213B
:1002A000AFF2910006F034FD09232E4A0021AFF28F
:1002B000B10006F02DFDFF2006F0AAFF00BFFEE70B
:1002C00010B5FFF78AFF02F069FA4FF4A06003F05F
:1002D000C3FB4FF4165002F034FB4FF4964002F08B
:1002E000C3FB4FF4964002F0F1FC40F2CF2140F204
:1002F000F31001F071FC00F039F901F0F9FB01F0A5
:1003000065FB00F0FFF901F0B2F801F04EF801F0E2
:1003100059FE01F01BF901F0D7FC01F044FD01F09A
:10032000B8FD002010490860FFF750FF01200F4979
:10033000C1F8800105F071F804230D4A0021AFF2E5
:10034000D50006F0E5FC05F08FF9002010BD000097
:10035000FFFF7F0084040020440800206406002082
:10036000240A0020040C00208001214200002142C8
:10037000A4020020704700BFFEE700BFFEE700BFF9
:10038000FEE700BFFEE77047704700000CB5002095
:10039000019000906C48006840F480306A49086021
:1003A00000BF6948006800F4003000900198401CCC
:1003B0000190009818B90198B0F5A06FF1D162488A
:1003C000006800F4003010B10120009001E000202E
:1003D00000900098012843D15C48006840F010006C
:1003E0005A4908600846006820F003000860084683
:1003F000006840F002000860534840685249486075
:100400000846406848600846406840F4806048609C
:100410000846406820F47C1048600846406840F474
:10042000E81048600846006840F08070086000BF2F
:100430004548006800F000700028F9D04248406844
:1004400020F00300404948600846406840F0020040
:10045000486000BF3C48406800F00C000828F9D113
:100460000CBD10B5FFF792FF10BD10B536480068FF
:1004700040F00100344908600846406834490840AB
:100480003149486008460068324908402E490860F2
:100490000846006820F4802008600846406820F480
:1004A000FE0048604FF41F008860FFF7DAFF4FF04E
:1004B00000602949086010BD10B50021002000220D
:1004C000214B5B6803F00C0121B1042906D00829F7
:1004D00028D107E0214B224C236027E01F4B204C02
:1004E000236023E0184B5B6803F47010164B5B68C5
:1004F00003F48032022303EB904022B9194B4343AB
:10050000174C23600DE0104B5B6803F4003323B1FC
:10051000144B4343124C236003E0104B4343104CF5
:10052000236003E00D4B0E4C236000BF00BF064B61
:100530005B68C3F303130C4CE15C094B1B68CB40B5
:10054000074C236010BD0000001002400020024054
:100550000000FFF8FFFFF6FE08ED00E000127A0051
:100560000000002000093D000400002008B54FF401
:100570008060ADF8000010208DF8030003208DF896
:1005800002006946134802F043FD0120ADF8000067
:1005900010208DF8030003208DF8020069460E48F4
:1005A00002F036FD01210C4802F0DFFD4FF440401F
:1005B000ADF8000010208DF8030003208DF8020034
:1005C0006946064802F024FD4FF44041034802F01A
:1005D000CCFD08BD000C01400008014000100140A6
:1005E00010B504464021F94802F0C1FD8021F748CA
:1005F00002F0BDFDE1B2F64801F04BFA4021F348AC
:1006000002F0B3FD10BD10B504464021EF4802F0E2
:10061000AEFD8021ED4802F0A8FD2112EC4801F06A
:1006200038FAE1B2EA4801F034FA4021E74802F032
:100630009CFD10BD10B504464021E44802F097FD32
:100640008021E24802F091FD2146E14801F021FAC3
:100650004021DE4802F089FD10BD70B505460C460C
:100660002846FFF7BDFF2046FFF7CDFF70BD10B550
:10067000D8498879FFF7B4FF10BD00BF011EA0F173
:100680000102D0B2FAD170477047704770B5044686
:100690000D46D049C879FFF7A3FF2012FFF7CAFF24
:1006A000E0B2FFF7C7FFCB49087AFFF799FF28129E
:1006B000FFF7C0FFE8B2FFF7BDFF70BD70B504469D
:1006C0000D4629462046FFF7E1FFFFF7D0FFC2485D
:1006D0000088FFF798FF70BD70B506460024BD483E
:1006E00005884088454300210846FFF7CFFFFFF704
:1006F000BEFF00BF03E03046FFF785FF641CAC423D
:10070000F9D370BD10B54FF48071B04802F02FFDE1
:10071000142002F094F84FF48071AC4802F025FDEB
:10072000142002F08CF84FF4A070AA490880F02041
:1007300048802C2088712A20C8712B200872CB2079
:10074000FFF74EFF3920FFF775FF2C20FFF772FFF0
:100750000020FFF76FFF3420FFF76CFF0220FFF748
:1007600069FFCF20FFF73CFF0020FFF763FFC120A8
:10077000FFF760FF3020FFF75DFFE820FFF730FF55
:100780008520FFF757FF0020FFF754FF7820FFF781
:1007900051FFEA20FFF724FF0020FFF74BFF002066
:1007A000FFF748FFED20FFF71BFF6420FFF742FF34
:1007B0000320FFF73FFF1220FFF73CFF8120FFF7E8
:1007C00039FFF720FFF70CFF2020FFF733FFC02091
:1007D000FFF706FF2320FFF72DFFC120FFF700FFE3
:1007E0001020FFF727FFC520FFF7FAFE3E20FFF796
:1007F00021FF2820FFF71EFFC720FFF7F1FE86200C
:10080000FFF718FF3620FFF7EBFEE820FFF712FF97
:100810002B20FFF7E5FE0020FFF70CFF0020FFF77D
:1008200009FF0020FFF706FFEF20FFF703FF2A2054
:10083000FFF7D6FE0020FFF7FDFE0020FFF7FAFECF
:100840000120FFF7F7FE3F20FFF7F4FE3A20FFF705
:10085000C7FE5520FFF7EEFEB120FFF7C1FE0020D6
:10086000FFF7E8FE1820FFF7E5FEB620FFF7B8FE19
:100870000820FFF7DFFE8220FFF7DCFE2720FFF7CE
:10088000D9FEF220FFF7ACFE0020FFF7D3FE2620B2
:10089000FFF7A6FE0120FFF7CDFEE020FFF7A0FE48
:1008A0000F20FFF7C7FE3120FFF7C4FE2B20FFF714
:1008B000C1FE0C20FFF7BEFE0E20FFF7BBFE082096
:1008C000FFF7B8FE4E20FFF7B5FEF120FFF7B2FEAE
:1008D0003720FFF7AFFE0720FFF7ACFE1020FFF731
:1008E000A9FE0320FFF7A6FE0E20FFF7A3FE0920B6
:1008F000FFF7A0FE0020FFF79DFEE120FFF770FE4E
:100900000020FFF797FE0E20FFF794FE1420FFF75C
:1009100091FE0320FFF78EFE1120FFF78BFE0720CC
:10092000FFF788FE3120FFF785FEC120FFF782FE2A
:100930004820FFF77FFE0820FFF77CFE0F20FFF71F
:1009400079FE0C20FFF776FE3120FFF773FE36208C
:10095000FFF770FE0F20FFF76DFE1120FFF740FE3E
:10096000782001F06CFF2920FFF73AFE2C20FFF7DA
:1009700037FE4FF4FC60FFF7AFFE10BD2DE9F05FCE
:1009800005460E4617469846DDF828A04FF0000BA6
:10099000781B401C1FFA80FB344613E02146284692
:1009A000FFF774FEFFF763FE4FF0000906E05046C4
:1009B000FFF729FE09F101001FFA80F9D945F6DB9E
:1009C000601C84B24445E9DDBDE8F09F00100140A1
:1009D00000380040080C0020140000202DE9F84FDA
:1009E00007460D4690469946DDF828B0A8EB07006B
:1009F000401C80B20090A9EB0500401C1FFA80FA51
:100A0000002415E0281981B23846FFF73FFEFFF7B2
:100A10002EFE002607E004FB0A603BF81000FB49AD
:100A20000880701C86B200988642F4DB601C84B299
:100A30005445E7DBBDE8F88F2DE9FF4F85B08146CF
:100A40008A460020049003900798A0EB09050898B7
:100A5000A0EB0A06CDF80890CDF804A0002D01DD2A
:100A6000012705E00DB9002702E04FF0FF376D4286
:100A7000002E02DD4FF0010806E016B94FF0000825
:100A800002E04FF0FF387642B54201DD2C4600E02F
:100A900034464FF0000B21E0019A91B2029A90B2D5
:100AA000FFF70CFE04982844049003983044039008
:100AB0000498A04205DD0498001B04900298384475
:100AC00002900398A04205DD0398001B0390019853
:100AD000404401900BF101001FFA80FB601C83452C
:100AE000DADD09B0BDE8F08F2DE9F04104460D468E
:100AF00016461F462B46324629462046FFF79CFFE6
:100B00003B46224629462046FFF796FF3B463246A3
:100B100039462046FFF790FF3B463246294630468D
:100B2000FFF78AFFBDE8F0812DE9F04706460F4642
:100B30009046002445460320A0EB48093CE07A1B80
:100B400091B2321990B2FFF7B9FD3A1B91B2721906
:100B500090B2FFF7B3FD3A1991B2721990B2FFF754
:100B6000ADFD7A1991B2321990B2FFF7A7FD7A194B
:100B700091B2321B90B2FFF7A1FD3A1991B2721BEC
:100B800090B2FFF79BFD7A1B91B2321B90B2FFF738
:100B900095FD3A1B91B2721B90B2FFF78FFD641C5A
:100BA000B9F1000F03DAA000801D814404E0601B4E
:100BB00080000A3081446D1EAC42C0DDBDE8F08784
:100BC0002DE9F04706460F469046914800EB481A3B
:100BD000002529E07A1991B2B0B2FFF757FDFFF76F
:100BE00046FD4FF000091AE0002410E09AF80000DA
:100BF0000121A140084020B186480088FFF703FD8D
:100C000003E085480088FFF7FEFC601CC4B2082C96
:100C1000ECDB0AF1010A09F1010000F0FF09B9F16A
:100C2000020FE1DB681CC5B2102DD3DBBDE8F087F5
:100C30002DE9F04706460F46904608EBC800774975
:100C400001EBC00A002529E07A1991B2B0B2FFF792
:100C50001DFDFFF70CFD4FF000091AE0002410E025
:100C60009AF800000121A140084020B1694800889D
:100C7000FFF7C9FC03E068480088FFF7C4FC601C6C
:100C8000C4B2082CECDB0AF1010A09F1010000F002
:100C9000FF09B9F1030FE1DB681CC5B2182DD3DBE6
:100CA000BDE8F0872DE9F04706460F469046C2465C
:100CB000002529E07A1991B2B0B2FFF7E7FCFFF7FF
:100CC000D6FC4FF000091AE0002410E09AF800006A
:100CD0000121A140084020B14E480088FFF793FC55
:100CE00003E04D480088FFF78EFC601CC4B2082C5E
:100CF000ECDB0AF1010A09F1010000F0FF09B9F18A
:100D0000040FE1DB681CC5B2202DD3DBBDE8F08702
:100D10002DE9FC5F81460F4616461C4600973D486C
:100D2000B0F80080382C05D1A6F13000C6B24FF0E3
:100D3000C40A0BE0202C05D1A6F12000C6B24FF06A
:100D4000400A03E0A6F12000C6B2A2460C98002893
:100D50006FD1002557E00C2C07D106EB4600304937
:100D600001EB800010F805B010E0102C05D12D48E3
:100D700000EB061010F805B008E0202C05D12A4839
:100D800000EB861010F805B000E03EE00020019076
:100D900033E00BF0800018B11E48A0F8008003E09B
:100DA0001D4800881B49088039464846FFF786FCE5
:100DB0004FEA4B604FEA106B781C87B21B484088A3
:100DC000B84204DC1348A0F80080BDE8FC9F0098FE
:100DD000381AA0420DD1009F09F101001FFA80F9D5
:100DE00012480088484503DC0A48A0F80080ECE778
:100DF00006E00198401CC0B2019001980828C8DBA9
:100E000000BF681CC5B25545A5DB66E00000086060
:100E10005A8F00081400002016000020128F0008CE
:100E20007A8F0008EE930008DE990008080C002075
:100E3000FFE700254EE00C2C07D106EB4600FE49EB
:100E400001EB800010F805B010E0102C05D1FB4834
:100E500000EB061010F805B008E0202C05D1F8488A
:100E600000EB861010F805B000E035E0002001909E
:100E70002AE00BF0800018B139464846FFF71EFC07
:100E80004FEA4B604FEA106B781C87B2ED48408800
:100E9000B84203DCEC48A0F8008096E70098381AC6
:100EA000A0420DD1009F09F101001FFA80F9E54829
:100EB0000088484503DCE448A0F8008085E706E0A8
:100EC0000198401CC0B2019001980828D1DB00BFF6
:100ED000681CC5B25545AEDB00BFDB48A0F80080FA
:100EE00000BF72E710B50246012000E050430B1E20
:100EF000A1F10104E1B2F9D110BD2DE9FF4F81B09C
:100F0000074691461E460E9D4FF0000A002439E028
:100F1000301B401EC1B20A20FFF7E4FFB9FBF0F01E
:100F20000A21B0FBF1F201FB1208BAF1000F16D151
:100F3000701EA04213DDB8F1000F0ED10020AB46A9
:100F400005EBDB71491001FB0471009088B22B4660
:100F500020220299FFF7DCFE12E04FF0010A002088
:100F6000AB4605EBDB71491001FB0471009088B2C0
:100F700008F13001CAB22B460299FFF7C9FE00BF43
:100F8000601CC4B2B442C3DB05B0BDE8F08F2DE9EC
:100F9000FF4F83B0064692461F46DDE91048002009
:100FA000029000254DE0781B401EC1B20A20FFF7D9
:100FB00099FFBAFBF0F00A21B0FBF1F201FB120934
:100FC000029850BB781EA84227DDB9F1000F22D14C
:100FD00008F0800078B108F00100A34604EBDB7153
:100FE000491001FB0561009088B223463022049924
:100FF000FFF78EFE0EE008F00100A34604EBDB7164
:10100000491001FB0561009088B223462022049913
:10101000FFF77EFE13E00120029008F00100A346D6
:1010200004EBDB71491001FB0561009088B209F106
:101030003001CAB223460499FFF76AFE00BF681C5C
:10104000C5B2BD42AFDB07B0BDE8F08F2DE9F84F68
:1010500004460D4690469946DDE90A6704F0FF0A0A
:1010600008EB04001FFA80F809EB05001FFA80F96D
:1010700016E0444502DB5446A81985B24D4500DB15
:1010800014E0012000903A78334629462046FFF7C5
:101090003FFE304606EBD07104EB61018CB27F1C41
:1010A00038787E2802DC38782028E2DA00BFBDE8F4
:1010B000F88F2DE9FF5F4FF4FC60644908804FF61C
:1010C0001F00614908805F490988A1F1800000EB99
:1010D000D071C1F34F045E4A19212046FFF7E2FDAB
:1010E0005B4A8032192104F12000FFF7DBFD594AE9
:1010F000192104F14000FFF7D5FD564A803219212D
:1011000004F16000FFF7CEFD1F204F4908804D49D4
:101110000988A1F1C00000EBD071C1F34F044D4A22
:1011200080324B212046FFF7BDFD4B4A4B2104F195
:101130002000FFF7B7FD494A4B2104F14000FFF7BB
:10114000B1FD4FF4784040490880202004F15A0155
:10115000009088B2032342490A884B21FFF7CDFE55
:1011600040A02021CDE9001004F19A0188B220238B
:1011700080224B21FFF76AFF1F2033490880314945
:101180000988A1F1C00000EBD071C1F34F04374AC8
:101190007D212046FFF786FD344A80327D2104F10F
:1011A0002000FFF77FFD2D4A7D2104F14000FFF76D
:1011B00079FD4FF47840244908802D4800780128B3
:1011C00002D002281BD10CE02A4A7D2104F16000E4
:1011D000FFF768FD254A7D2104F18000FFF762FDDD
:1011E0001BE0244A80327D2104F16000FFF75AFDA4
:1011F0001E4A7D2104F18000FFF754FD0DE01E4AD8
:101200007D2104F16000FFF74DFD144A803A7D21F5
:1012100004F18000FFF746FD00BF00BF1F200A4910
:10122000088008490988A1F1C00000EBD071C1F322
:101230004F04124AAF2123E07A8F0008EE93000892
:10124000DE990008080C0020140000201600002081
:10125000928700089288000892890008928E000800
:101260002E0000206D6D2F7300000000928A000890
:101270001B000020928B0008928D0008928C0008C1
:101280002046FFF70FFD364AAF2104F12000FFF79B
:1012900009FD344AAF2104F14000FFF703FD4FF48C
:1012A0007840314908800A21052000F07AFC01903D
:1012B00007F010F9834607F05FF82C4A2C4BCDE974
:1012C000020106F05BFF074600222A4B06F0FEFDF6
:1012D000054606F0C9FD8246504607F0DBF81FFAC6
:1012E00080F900202021CDE9001004F1600188B2CE
:1012F00001234A46AF21FFF74AFE002004F17001A6
:10130000009088B220232E22AF21FFF701FD48462E
:1013100007F0E0F80646514607F0BCF905461649C5
:1013200007F0ECF88246504607F0B4F805468020F6
:101330002021CDE9001004F1800188B203232A4660
:10134000AF21FFF724FE002004F1C001009088B215
:1013500020235622AF21FFF7DBFCBDE8FF9F0000F2
:10136000128D0008928E000814000020CDCCCCCC49
:10137000CCCC1F4000FEAF4000007A4470B504465C
:10138000192C01DA192402E07D2C00DD7D24694846
:101390000088401E60434FF47A71B0FBF1F085B2D3
:1013A0002946654803F092FA70BD00B589B0012066
:1013B000ADF8040018208DF8070003208DF8060012
:1013C00001A95E4801F024FE0121022002F0E9F8A3
:1013D0000121082002F0D8F85948006842F2107143
:1013E000B0FBF1F0401E5349088008460088ADF874
:1013F0001C00C720ADF818000020ADF81E00ADF8A5
:101400001A008DF8200006A94B4802F067FC7020F6
:10141000ADF808000120ADF80A000420ADF80C007A
:101420000220ADF810000020ADF812004FF48070DB
:10143000ADF814000020ADF81600ADF80E0002A9BA
:101440003D4802F017FD01213B4802F0A3FF4B206D
:10145000FFF794FF09B000BD10B504462146394896
:1014600003F030FA0021374803F032FA10BD00B51E
:1014700089B00121042002F087F80121C80202F09E
:1014800083F84FF41060ADF8040018208DF80700C1
:1014900003208DF8060001A92B4801F0B9FD40F2A8
:1014A000E730ADF81C004720ADF818000020ADF87B
:1014B0001E00ADF81A008DF8200006A9214802F0A0
:1014C0000DFC6020ADF808000120ADF80A000020F6
:1014D000ADF80C00ADF8100002A91A4802F03BFC70
:1014E00002A9184802F011FD0821164803F082F8FD
:1014F0000821144803F09DF80121124803F04AF82E
:101500000121104802F046FF01210E4802F04EFF73
:1015100040F2E730FFF7A0FF09B000BD10B5044668
:101520002146084803F0D4F90021064803F0CAF91F
:1015300010BD00001800002000040040000C014015
:1015400000000020002C01400008014008B50121E6
:10155000084602F019F80121FB4801F02AFE41F289
:10156000EA10ADF8000048208DF803006946F748FE
:1015700001F04EFD40F63C60ADF8000048208DF8CB
:1015800003006946F24801F043FD48F24000ADF81F
:10159000000048208DF803006946EE4801F038FD50
:1015A0000020ED4908800320EC4908700020EC4938
:1015B00008700320EB4908700420EB4908800020E4
:1015C000EA4908700320E74908704B20FFF7D6FE70
:1015D0004FF46170FFF740FF08BD2DE9F041002690
:1015E000002700240025DD48007803280DD0DA48C4
:1015F000008828B1D8480088401ED749088002E0FA
:101600000320D6490870BDE8F081D04801F09CFD68
:101610000446CF4801F098FD0546CE4801F094FD00
:1016200007464FF4004000EAC4004FF4804101EA4D
:10163000841108434FF4005101EA841108434FF428
:10164000805101EA841108434FF4006101EA8411DA
:1016500008434FF4806101EA442108434FF40071CC
:1016600001EAA71108434FF4807101EAE50108433C
:10167000802101EAE5010843402101EA0511084300
:10168000202101EA8501084305F0100108430821E3
:1016900001EAA5010843042101EAE51108430221FA
:1016A00001EAA4010843C7F3801140EA0106F043B0
:1016B00086B243F6FC700640B6F5C07F75D01DDCDF
:1016C000102E51D00CDC042E42D004DC012E3DD073
:1016D000022E76D13BE0082E3BD00C2EF9D139E01A
:1016E000802E5ED004DC202E45D0402E69D149E00A
:1016F000C02E58D0B6F5807F63D153E0B6F5006FA9
:1017000067D011DCB6F5207F4ED006DCB6F5E07F61
:101710004CD0B6F5007F71D13BE0B6F5607F46D086
:10172000B6F5806F6AD14DE0B6F5405F5CD006DC5F
:10173000B6F5805F57D0B6F5005F5FD152E0B6F5E1
:10174000804F4ED0B6F5004F58D149E000BF00BFE2
:1017500000BF00BF02208249087000208149087044
:101760006620FFF70BFE4AE001207E4908705F20EB
:10177000FFF704FE43E002207A4908705520FFF786
:10178000FDFD3CE00220774908704E20FFF7F6FD92
:1017900035E00420734908704820FFF7EFFD2EE084
:1017A00003E000BF00BF00BF00BF00BF00BF0020BC
:1017B0006B49087003206B4908704B20FFF7DEFD72
:1017C0001DE01BE00420674908704620FFF7D6FDA6
:1017D00015E00520634908703C20FFF7CFFD0EE0BF
:1017E00000BF00BF00BF00BF01205D490870062098
:1017F0005C4908702820FFF7C1FD00E000BF00BF72
:1018000000BF00E710B55948007828B9584800785B
:1018100010B95848007878B14F48008800285CD14A
:101820000021554803F04EF80021534803F050F8CA
:1018300000205249088050E051480088052811DDF9
:101840004F48008896280DDA00214B4803F03AF8FB
:101850000021494803F03CF80020484908804949E4
:1018600008603AE001204749086047480088401C6A
:101870004549088008460088B0F5C87F0EDB002087
:1018800008803E4908804FF44870FFF7E5FD0023CB
:1018900002221946184605F0B5FD1EE031480078D1
:1018A00030B1012806D0052805D0062808D100E06F
:1018B00000BF00BF00BF40F28A20FFF7CDFD0BE064
:1018C00029490988C1EB01114FF4B47202EB81017F
:1018D00088B2FFF7C1FD00BF00BF10BD20480078EF
:1018E000012802D0022863D11EE02048007828B9E0
:1018F0001F48007810B91F48007830B101202349F3
:1019000008602349C1F8BC010DE02048001D0068B3
:1019100008B9012000E000201C49091D08600120D1
:101920001B49C1F8B8014AE01048007828B91048AE
:10193000007810B90F48007860B30120134908609F
:101940001349C1F8BC0132E000023000000C014034
:1019500000100140000801401E0000201C00002073
:101960001B0000201A000020220000202000002080
:101970002100002024000020002C01402E00002027
:101980002A0000208001214228000020B8012242C4
:1019900000002242FFE70B48006808B9012000E080
:1019A00000200849086001200749C1F8BC0106E091
:1019B0000120044908600449C1F8BC0100BF00BF10
:1019C00070470000B80122420000224200B587B0F3
:1019D0000121182001F0D8FD0121880301F0E1FD6B
:1019E0004FF46040ADF8180018208DF81B0003205C
:1019F0008DF81A0006A93B4801F00AFB4FF460413C
:101A0000384801F0B2FB4FF4E070ADF81800102038
:101A10008DF81B0003208DF81A0006A9324801F04A
:101A2000F7FA0020ADF804004FF48270ADF806001C
:101A30000020ADF808000220ADF80A000120ADF842
:101A40000C004002ADF80E001020ADF81000002090
:101A5000ADF812000720ADF8140001A9234803F0E7
:101A6000C5F90121214803F066FA07B000BD10B5A1
:101A700004461E4800884FF6C77108401B4908807D
:101A800008460088204308800121184803F053FAD3
:101A900010BD70B506460D46002405E0601CC4B2BA
:101AA000C82C01DD002070BD0221104803F0C7FAE8
:101AB0000028F3D029460D4803F06EFA002405E013
:101AC000601CC4B2C82C01DD0020ECE701210748EE
:101AD00003F0B5FA0028F3D0044803F05FFAC0B26F
:101AE000E1E70000000C0140001001400038004018
:101AF00000B587B001214FF4017001F045FD4FF4AE
:101B0000004001F0A5FC2020ADF8040000208DF875
:101B1000070001A92E4801F07BFA2E4802F018FFB9
:101B2000002002908DF80C008DF80D004FF460201D
:101B300004900020059001208DF8180002A9254886
:101B400002F02DFF0121234802F055FF214802F049
:101B500074FF00BF1F4802F075FF0028FAD11D482E
:101B600002F07AFF00BF1B4802F07BFF0028FAD189
:101B700007B000BD10B504460723012221461548D1
:101B800002F0A5FF0121134802F075FF00BF0221FA
:101B9000104803F0E1F80028F9D00E4802F0FEFFEB
:101BA00010BD2DE9F04107460C460025002608E04F
:101BB0003846FFF7DFFF0544052000F040FE701CAB
:101BC000C6B2A642F4DBB5FBF4F080B2BDE8F0810A
:101BD00000080140002401407FB505460C46012164
:101BE000022001F0DEFCE84801F0A4FFADF8085047
:101BF000ADF804400020ADF80A00ADF8060001A9D8
:101C0000E14802F06BF801221146DF4802F0DDFBEB
:101C10001D208DF8000000208DF8010003208DF8B4
:101C2000020001208DF80300684601F01AFF01212F
:101C3000D54802F0AFFB7FBDD448008820B1D3481F
:101C40000088401ED1490880D1480078401CD04906
:101C5000087008460078642805DD00200870CD492A
:101C60000870CD490870704710B50121C64802F0D0
:101C70005AFE68B10121C44802F066FEC7480078E8
:101C800020B1C6480078401EC4490870FFF7D4FF51
:101C900010BD0EB50121084601F083FC4FF6DC7043
:101CA000ADF804004720ADF800000020ADF80600B4
:101CB000ADF8020069464FF0804002F00FF80121B4
:101CC000880702F067FB0EBD1FB50721002001F059
:101CD000B5FA8020ADF80C0028208DF80F0003A97C
:101CE000AF4801F095F98020019000208DF80800A0
:101CF00010208DF8090001208DF80A0001A803F0DA
:101D0000E3F917208DF8000002208DF801008DF80E
:101D1000020001208DF80300684601F0A2FEFFF7E3
:101D2000B8FF1FBD10B503F090FB80219C4801F067
:101D300002FA40B100214FF0804002F0BFFD0020C8
:101D4000984908800FE04FF0804002F0DAFD044629
:101D500034B1954890FBF4F000EB400093490880C3
:101D6000002090490880802003F025FA03F088FBCA
:101D700010BD0EB50121042001F013FC4FF6DC70FC
:101D8000ADF804004720ADF800000020ADF80600D3
:101D9000ADF802006946864801F0A0FF01218448A1
:101DA00002F0F8FA0EBD1FB50220ADF80C00482075
:101DB0008DF80F0003A97A4801F02AF901210020CB
:101DC00001F03CFA0220019000208DF8080010205C
:101DD0008DF8090001208DF80A0001A803F074F9BC
:101DE00007208DF8000001208DF8010003208DF8F8
:101DF000020001208DF80300684601F032FEFFF773
:101E0000B8FF1FBD10B503F020FB0221644801F0AC
:101E100092F920B90021664802F050FD19E06448AB
:101E200002F06FFD0446B4F5966F12DCB4F5487FFE
:101E30000FDB58480078401C564908700846007867
:101E40000A2806DD00200870514908700120524917
:101E50000870022003F0AFF903F012FB10BD0EB5BD
:101E60000121082001F09DFB4FF6E850ADF8040079
:101E70004720ADF800000020ADF80600ADF80200E4
:101E800069464C4801F02AFF01214A4802F082FAD3
:101E90000EBD1FB50220ADF80C0003208DF80E001A
:101EA00010208DF80F0003A9434801F0B1F802217A
:101EB000414801F05CF90120ADF80C0004208DF8D8
:101EC0000F0003A93C4801F0A3F80021022001F013
:101ED000B5F90120019000208DF8080010208DF840
:101EE000090001208DF80A0001A803F0EDF8062092
:101EF0008DF8000003208DF801008DF8020001200C
:101F00008DF80300684601F0ACFDFFF7A8FF1FBD88
:101F100010B503F09AFA0121274801F00CF920B11D
:101F20000021244802F0CAFC07E0224802F0E9FC44
:101F3000062190FBF1F021490880012003F03BF9D4
:101F400003F09EFA10BD70B5002400201B490880E4
:101F5000002512E00221184801F007F9012000F0E5
:101F6000AAFC0221144801F002F9462000F0A3FC6B
:101F7000124800880444681CC5B2042DEADBC4F38F
:101F80008F000F49088070BD000400403A00002017
:101F90002500002026000020240000204900002009
:101FA0000008014028000020A08601002E0000202B
:101FB00000080040000C0040001001402C000020F0
:101FC0002A00002010B50020FE490870FE49087064
:101FD0005422FE49FE4805F09AFE10BD024600213B
:101FE00009E001EB4100FB4B33F81000904200D1B7
:101FF00003E0481CC1B20C29F3D300BF0C2901D265
:1020000008467047FF20FCE70246002109E001EB8B
:102010004100F14B33F81000904200D103E0481C1E
:10202000C1B20F29F3D300BF0F2901D20846704770
:10203000FF20FCE70246002109E001EB4100E34BF1
:1020400033F81000904200D103E0481CC1B20E29C1
:10205000F3D300BF0E2901D208467047FF20FCE7EA
:102060000246002109E001EB4100DC4B33F810008F
:10207000904200D103E0481CC1B20029F3D000BF58
:1020800009B908467047FF20FCE70246002109E035
:1020900001EB4100D24B33F81000904200D103E035
:1020A000481CC1B20029F3D000BF09B908467047E7
:1020B000FF20FCE7002024E000EB4001C44A32F896
:1020C00011104EF62C32914211D000EB4001C04A63
:1020D00032F811104AF63C42914208D000EB400120
:1020E000BB4A32F8111046F62C52914207D1FF211B
:1020F00000EB4002B64B03EB4202D17003E0411CFF
:10210000C8B21E28D8D300BF704700202CE000EBD7
:102110004001AF4A32F811104EF62C32914211D0E4
:1021200000EB4001AA4A32F811104AF63C429142B3
:1021300008D000EB4001A64A32F8111046F62C52A6
:1021400091420FD100EB4001A14A02EB4101C97855
:10215000FF2906D1002100EB40029D4B03EB420218
:10216000D17003E0411CC8B21E28D0D300BF704715
:102170000246002109E001EB41009A4B33F81000C0
:10218000904200D103E0481CC1B21E29F3D300BF26
:102190001E2901D208467047FF20FCE770B50246B1
:1021A000002117E001EB4100894D05EB400000796B
:1021B00070B1002001EB4105854E06EB4505287105
:1021C00001EB4100354635F81000904200D103E0A4
:1021D000481CC1B21E29E5D300BF1E2901D2084602
:1021E00070BD0024FF23002113E03CB1012001EB6E
:1021F0004105774E06EB4505287108E001EB4100EB
:10220000734D35F81000904201D101240B46481C53
:10221000C1B21E29E9D31E2B01D21846E0E7FF20E8
:10222000DEE701461E2901D30020704701EB410083
:10223000674A02EB40008078F7E701461E2901D388
:102240000020704701EB4100614A02EB4000C0787A
:10225000F7E730B5024602EB42005D4D35F810401D
:1022600002EB420005EB40008378002107E05E4866
:1022700030F83100A04200D103E0481CC1B215295A
:10228000F5D300BF152914D24BB1012B02D0022B7C
:102290000FD109E0544800EBC100408830BD5248DE
:1022A00000EBC1008088F9E74F4800EBC100C0880F
:1022B000F4E70020F2E770B54C4800784C49097803
:1022C00088427DD0494805780078401C474908700D
:1022D00008460078322801DD0020087000214348BC
:1022E000007865225043434A104480F8641065200A
:1022F0006843114608440079052861D16520684388
:1023000008448078082806D0092817D00F2821D043
:10231000112812D129E065206843364908444079E4
:1023200030B10120344908700020FFF795F804E02F
:10233000002031490870314908707CE0304800883D
:102340000B2806DA652068432A49084440792C495D
:10235000088070E000202B490880652068432549EB
:10236000084440791749087065E0652068432149B1
:102370000844407914490870002457E065206843F8
:102380001C490844072101EB8401465C6520684331
:1023900018490844062101EB8401405C40EA06200C
:1023A00004EB44010F4A22F81100652068431149EB
:1023B0000844082101EB8401405C04EB440123E064
:1023C0003AE00000370000203600002040B200084C
:1023D000120C00209EB10008E6B1000894B200087B
:1023E0009AB20008C60C0020A0B200083C000020F1
:1023F0004A000020DF0D00202000002021000020E6
:10240000220000203200002002EB4101887065208C
:102410006843BD490844092101EB8401405C04EB99
:10242000440102EB4101C870601CC4B2B748007897
:102430008442A3DB00BF00BF70BD2DE9F041B4486A
:102440000078B449097888427ED0B1480478007891
:10245000401CAF49087008460078322801DD002092
:1024600008700021AA48007865225043AA4A104407
:1024700080F8641065206043114608448078212864
:1024800062D1652060430844457965206043084473
:10249000007940EA0520A149088081216520604338
:1024A000104481700321652060431044C1700521F0
:1024B00065206043104401719848017865206043AD
:1024C0001044417195480088011265206043104412
:1024D0008171652161431144881C052100F0FBF9DD
:1024E0000646F7B24FEA2628652060438A49084429
:1024F000C77165206043084480F808806521614306
:10250000854A8818092100F0C0FB00208449087022
:102510008448008881490988884295D07F4800888E
:102520008049088080480078062853D2DFE800F010
:1025300052031423324279480088FFF74FFDFF28E9
:1025400009D04822794900E0CFE0794805F0DFFB67
:102550000020754908703EE070480088FFF754FD80
:10256000FF2807D05A227349714805F0D0FB00209C
:102570006D4908702FE069480088FFF75BFDFF2870
:1025800007D054226C496A4805F0C1FB0020664917
:10259000087020E061480088FFF762FDFF2808D03E
:1025A000634866490A6802608988818000205E4924
:1025B000087010E059480088FFF767FDFF2808D031
:1025C0005B485F490A68026089888180002056491B
:1025D000087000E000BF00BF4C48007868B14F4869
:1025E0000088FFF7C5FDFF2807D0B42255495048A1
:1025F00005F08DFB00204549087048480088FFF72A
:10260000CDFD5149087008460078FF2813D10120FC
:102610004E4908700020FEF71FFF00204C4908605B
:10262000002302221946184604F0ECFE0120494915
:10263000C1F8800159E044480078FFF7FEFD0546E7
:10264000EDB1FF2D0CD13548008843F2CC11884202
:1026500015D101203D4908700020FEF7FDFE0EE077
:1026600001203A4908700020FEF7F6FEEAB2002386
:102670001946184604F0C6FE002034490870324856
:102680000078FFF7CEFD344908702F480078FFF737
:10269000E0FD052190FBF1F0304908802E480078DC
:1026A000C0B1012802D002281ED109E001202C4926
:1026B000087006202B4908702820FEF75FFE13E003
:1026C0000220274908700020264908706620FEF77E
:1026D00055FE09E0002022490870032021490870B6
:1026E0004B20FEF74BFE00BF00BF0D480078401C9A
:1026F0000B490870084600783C2803DD002008706C
:1027000008490880BDE8F081DF0D00203600002078
:102710003E0000204C000020FE210020340000205C
:102720003D00002032000020370000209EB100084C
:10273000120C0020E6B1000840B2000894B2000874
:102740009AB20008C60C00203800002021000020AA
:1027500080012142000021421C0000201E000020B8
:102760001B0000201A00002010B502F0C1FE10BDB1
:1027700010B502F002FF10BD10B50446204604F06B
:102780000FFE10BD10B53E480078012805D102F0BB
:102790005CFE02F0A0FF02F073FE10BD10B56FF0FA
:1027A000040001F0A8F9374800683749B0FBF1F0A0
:1027B00036490870334800683349B0FBF1F44FF4F0
:1027C000FA6044430220324908804FF0E02000695B
:1027D00040F002004FF0E0210861084644610069C2
:1027E00040F00100086110BD2DE9F04707460026C2
:1027F0004FF0E020D0F814902448007807FB00F850
:1028000000BFFFF7B1FF4FF0E020856911E04FF006
:10281000E0208469AC420CD0AC4202D2281B0644B2
:1028200003E0A9EB0400284406442546464500D3AE
:1028300000E0ECE700BFFFF79BFFBDE8F08770B555
:1028400004460F480078A0B11248007888B91048B3
:102850000088844206DB0E48008894FBF0F5284689
:10286000FFF78AFF0A48008894FBF0F100FB114053
:1028700084B24FF47A7104FB01F0FFF7B5FF70BD2D
:102880008A0000200000002000127A004000002092
:10289000420000207D000020002106E0082100BF4A
:1028A0000A1EA1F10103D9B2FAD1021EA0F101035F
:1028B00098B2F3D17047002107E04FF4FA5100BFFE
:1028C0000A1EA1F1010399B2FAD1021EA0F101037F
:1028D00098B2F2D17047F0B502464FF6FF704AF257
:1028E000010500260023002400BF12E0177878407D
:1028F000002409E000F0010707B1012640100EB1E5
:1029000068400026671CFCB2082CF3DB521C5F1CDD
:10291000FBB28B42EADBF0BD30BF704772B6704746
:1029200062B67047014600BF704700BF494A12882F
:1029300002F04002002AF9D0C2B2464B1B1D1A8099
:10294000704710B586B00446012144F2040000F03F
:102950001BFE4FF40070ADF8140003208DF8160034
:1029600018208DF8170005A93B4800F051FB4FF4E3
:102970008060ADF8140004208DF8170005A93648D2
:1029800000F046FB01940020ADF80800ADF80A0005
:10299000ADF80C00ADF810000C20ADF80E0001A948
:1029A0002C4800F098FE25208DF8000001208DF8BD
:1029B00001008DF802008DF80300684601F051F81F
:1029C000012240F22551234800F01DFF012121483A
:1029D00000F00DFF0020214908702149087006B061
:1029E00010BD10B502F031FD40F22551194800F03C
:1029F000EFFFA8B119480078642802DD00201749CC
:102A00000870144800F064FFC1B2144802780078DE
:102A1000401C124B18701348815404201049087050
:102A200002F02EFD10BD70B504460D4600260DE0E7
:102A300000BF4021074800F0B5FF0128F9D114F884
:102A4000011B044800F040FF701C86B2AE42EFDB71
:102A500070BD00000038014000080140480000201F
:102A6000490000207A0D002030B587B005460121CD
:102A7000480400F096FD0121042000F085FD8E48F9
:102A800000F0E6FD0420ADF8180003208DF81A00D0
:102A900018208DF81B0006A9884800F0B9FA082014
:102AA000ADF8180004208DF81B0006A9834800F03B
:102AB000AFFA02950020ADF80C00ADF80E00ADF8AD
:102AC0001000ADF814000C20ADF8120002A97A48ED
:102AD00000F001FE26208DF8040001208DF805008D
:102AE00000208DF8060001208DF8070001A800F0F5
:102AF000B8FF012240F225516F4800F084FE012109
:102B00006D4800F074FE00206D4908706D49087032
:102B1000002408E00021652060436B4A104480F8DF
:102B20006410601CC4B2322CF4DB07B030BD2DE958
:102B3000F04102F08AFC40F225515F4800F048FF66
:102B400000287DD05C4800F0C3FEC4B25D48007828
:102B500078B9AA2C0CD15A480078652148435A49C3
:102B60000144584802780078401C564B18708C5429
:102B700079E05448007801281BD15148007865213C
:102B800048435149085CAA280FD1552C0DD14C4817
:102B90000078652148434C4901444A48027800784E
:102BA000401C484B18708C545DE00020454908706B
:102BB00059E043480078652148434349014441486E
:102BC00002780078401C3F4B18708C543C480078C9
:102BD000652148433C490844C078801D194609785E
:102BE000884240DC364A127865235A43364B1A44F1
:102BF000D278921CD1B2324A127865235A43324BB2
:102C00001A44901CFFF767FE0546EEB22F122C48BF
:102C10000078652148432C4901442A480078801EE9
:102C2000085CB0421CD126480078652148432649FB
:102C3000014424480078401E085CB84210D100E0EE
:102C40001FE0204801781E480078652250431E4A44
:102C5000104480F864101A480078401C1849087025
:102C600000201849087017480078642802DD002009
:102C70001449087012480078322802DD00201049FB
:102C8000087002F0FDFBBDE8F08170B504460D460A
:102C900000260DE000BF4021074800F083FE012818
:102CA000F9D114F8011B044800F00EFE701C86B226
:102CB000AE42EFDB70BD0000004400400008014060
:102CC0004A0000204B000020DF0D002030B587B007
:102CD00005460121880400F064FC0121082000F071
:102CE00053FC864800F0B4FC4FF48060ADF8180047
:102CF00003208DF81A0018208DF81B0006A98048C3
:102D000000F086F94FF40060ADF8180004208DF84B
:102D10001B0006A97A4800F07BF902950020ADF867
:102D20000C00ADF80E00ADF81000ADF814000C204A
:102D3000ADF8120002A9714800F0CDFC27208DF8F3
:102D4000040001208DF805008DF806008DF80700BD
:102D500001A800F086FE012240F22551674800F0EC
:102D600052FD0121654800F042FD002065490870D0
:102D700065490870002408E0002165206043634A2B
:102D8000104480F86410601CC4B2322CF4DB07B02D
:102D900030BD2DE9F04102F058FB40F22551574873
:102DA00000F016FE00287DD0544800F091FDC4B21A
:102DB0005548007878B9552C77D15248007865216C
:102DC000484352490144504802780078401C4E4B19
:102DD00018708C5469E04C48007801281BD1494890
:102DE0000078652148434949085C55280FD1AA2C31
:102DF0000DD144480078652148434449421842486F
:102E000001780078401C404B187054544DE000206D
:102E10003D49087049E03B480078652148433B49FB
:102E20000144394802780078401C374B18708C54A4
:102E3000184600780A2838D132490978652251436A
:102E4000324A1144881C0621FFF745FD0546EEB2C3
:102E50002F122C480078652148432C4901442A4808
:102E60000078801E085CB0421AD12648007865219F
:102E700048432649014424480078401E085CB84273
:102E80000ED1214801781F480078652250431F4A1F
:102E9000104480F864101B480078401C19490870E1
:102EA000002000E00FE018490870174800786428F7
:102EB00002DD00201449087012480078322802DD33
:102EC00000201049087002F0DBFABDE8F08170B50F
:102ED00004460D4600260DE000BF4021074800F0E3
:102EE00061FD0128F9D114F8011B044800F0ECFC45
:102EF000701C86B2AE42EFDB70BD0000004800409F
:102F0000000C01404C0000204D000020FE2100205C
:102F10000948804709480047FEE7FEE7FEE7FEE76D
:102F2000FEE7FEE7FEE7FEE7FEE7FEE704480549A9
:102F3000054A064B704700006B0400083101000889
:102F4000C0450020C04B0020C0470020C0470020E3
:102F500010B50446CC48844208D10121042000F079
:102F60002DFB0021042000F029FB46E0C7488442E5
:102F700008D10121082000F021FB0021082000F0E9
:102F80001DFB3AE0C248844208D10121102000F024
:102F900015FB0021102000F011FB2EE0BD488442FB
:102FA00008D10121202000F009FB0021202000F0A1
:102FB00005FB22E0B848844208D10121402000F0FE
:102FC000FDFA0021402000F0F9FA16E0B3488442EF
:102FD00008D10121802000F0F1FA0021802000F0CA
:102FE000EDFA0AE0AE48844207D10121801500F0D5
:102FF000E5FA0021A01500F0E1FA10BD10B501219D
:10300000084600F0DBFA0021012000F0D7FA10BDDD
:103010002DE9F0410246002500260020002300246F
:10302000002791F803C00CF00F0591F803C00CF0D5
:10303000100CBCF1000F03D091F802C04CEA05055A
:1030400091F800C0BCF1000F31D0146800202BE0D3
:103050004FF0010C0CFA00F3B1F800C00CEA0306C3
:103060009E4220D183004FF00F0C0CFA03F7BC43B3
:1030700005FA03FC4CEA040491F803C0BCF1280FE4
:1030800006D14FF0010C0CFA00FCC2F814C00AE0A3
:1030900091F803C0BCF1480F05D14FF0010C0CFAB8
:1030A00000FCC2F810C0401C0828D1D31460B1F84D
:1030B00000C0BCF1FF0F34DD546800202EE000F1A9
:1030C000080C4FF0010808FA0CF3B1F800C00CEA44
:1030D00003069E4221D183004FF00F0C0CFA03F738
:1030E000BC4305FA03FC4CEA040491F803C0BCF1AC
:1030F000280F05D100F1080C08FA0CF8C2F814806A
:1031000091F803C0BCF1480F07D100F1080C4FF053
:10311000010808FA0CF8C2F81080401C0828CED329
:103120005460BDE8F0814FF6FF710180022181708B
:103130000421C17070470246002093680B400BB118
:10314000012000E0002070470146886880B2704787
:1031500002460020D3680B400BB1012000E00020A4
:1031600070470146C86880B270470161704741618D
:1031700070470AB1016100E041617047C16070476A
:103180004FF480320A43826181618261826982697F
:10319000704702460020434B18684FF68073184072
:1031A00040EA021008433F4B186070473E49C8612F
:1031B0007047F0B50A46002300240021002500F0E6
:1031C0000046B6F1004F02D1364EF16901E0354EAE
:1031D0007168C0F3034583B200F44016B6F5401F92
:1031E00008D121F070612F4E766826F070662D4F61
:1031F0007E6012E000F48016B6F5801F06D103262B
:1032000006FA05F4A14341F0706106E0460D36016F
:1032100003FA06F6B14341F0706122B1460D360162
:1032200003FA06F6314300F00046B6F1004F02D132
:103230001C4EF16101E01B4E7160F0BD30B5002203
:103240008B071C0F0F2303FA04F2164B08338C1064
:1032500053F824309343134C08348D1044F8253030
:1032600023468C1053F824308C07240F00FA04F402
:1032700023430C4C08348D1044F8253030BD0A49E6
:10328000DC3108607047000000080140000C01407C
:10329000001001400014014000180140001C0140D2
:1032A000002001400000014000002042DF4800688B
:1032B00040F00100DD49086008464068DC490840EC
:1032C000DA49486008460068DA490840D74908608A
:1032D0000846006820F4802008600846406820F412
:1032E000FE0048604FF41F0088607047CF490968AE
:1032F00021F48031CD4A11601146096821F4802102
:103300001160B0F5803F03D0B0F5802F0ED106E0FC
:10331000C649096841F48031C44A116007E0C349D5
:10332000096841F4A021C14A116000E000BF00BF5C
:10333000704710B501460022002300204A11012ADF
:1033400002D1BA4C236806E0022A02D1B74C236AA4
:1033500001E0B64C636A01F01F02012494401C4056
:103360000CB1012000E0002010BD38B50020009015
:103370000024002500BF3120FFF7DBFF0546009841
:10338000401C00900098B0F5A06F01D0002DF2D045
:103390003120FFF7CEFF08B1012400E000242046D1
:1033A00038BD01460020A14A106820F0F80040EA2C
:1033B000C10010607047A0490860704702460020B5
:1033C0009A4B586820F47C1042EA01031843974B4B
:1033D0005860704798490866704701460020934A34
:1033E000506820F003000843506070478F484068E1
:1033F00000F00C007047014600208C4A506820F015
:10340000F00008435060704701460020874A50682A
:1034100020F4E06008435060704701460020834A72
:10342000506820F4605040EAC1005060704729B1F4
:103430007E4A527A02437D4B5A7204E07B4A527AAA
:1034400082437A4B5A7270477B49D8310860704783
:1034500001460020754A506820F4404008435060FF
:1034600070470021714A20321170704A82F8201092
:10347000012802D004280AD104E001216B4A20323D
:10348000117005E00521694A2032117000E000BF8B
:1034900000BF70476949086070476449096A014381
:1034A000624A11627047654944390860704730B517
:1034B00000210022002400235C4D6D6805F00C0102
:1034C00021B1042905D0082923D105E05C4D056010
:1034D00022E05B4D05601FE0544D6D6805F47012ED
:1034E000524D6D6805F48034022505EB92421CB9FB
:1034F000544D554305600BE04C4D6D6805F40035A7
:103500001DB1504D5543056002E04D4D55430560DA
:1035100002E04B4D056000BF00BF444D6D6805F0F3
:10352000F0010909484D6B5C0568DD4045603F4D81
:103530006D6805F4E061090A434D6B5C4568DD4048
:1035400085603A4D6D6805F46051C90A3E4D6B5C6B
:103550004568DD40C560354D6D6805F44041890B17
:103560003A4D6B5CC568B5FBF3F5056130BD29B11B
:103570002E4A526902432D4B5A6104E02B4A52698C
:1035800082432A4B5A61704729B1284A9269024303
:10359000264B9A6104E0254A92698243234B9A6143
:1035A000704729B1214AD2690243204BDA6104E015
:1035B0001E4AD26982431D4BDA61704729B11B4A0A
:1035C000D2680243194BDA6004E0184AD268824399
:1035D000164BDA60704729B1144A12690243134B43
:1035E0001A6104E0114A12698243104B1A61704754
:1035F00012494039086070470F49C86470470B4949
:10360000C87170470948406A40F0807007494862B5
:10361000704701460020054A92680A400AB101201D
:1036200000E0002070470149887270470010024096
:103630000000FFF8FFFFF6FE000042428004424215
:1036400000127A0000093D004E0000205E000020BC
:1036500010B50446FB48844209D101218803FFF7D5
:10366000ADFF00214FF48040FFF7A8FF32E0F6489D
:10367000844209D101214804FFF7ADFF00214FF436
:103680000030FFF7A8FF25E0F048844209D101216E
:103690008804FFF7A0FF00214FF48020FFF79BFF75
:1036A00018E0EB48844209D10121C804FFF793FFD9
:1036B00000214FF40020FFF78EFF0BE0E548844225
:1036C00008D101210805FFF786FF00214FF4801083
:1036D000FFF781FF10BD2DE9F04786B005460E4685
:1036E0000024A24600BFA1460027B08900B100BF58
:1036F0002F462C8A4CF6FF700440F08804432C823D
:10370000AC894EF6F3100440B088318908437189C2
:1037100008430443AC81AC8A4FF6FF400440B089B3
:103720000443AC8201A8FFF7C2FEC648874202D11B
:10373000DDF810A001E0DDF80CA0A88900F400403D
:1037400040B10AEBCA0000EB0A1031684900B0FB37
:10375000F1F807E00AEBCA0000EB0A1031688900B3
:10376000B0FBF1F86420B8FBF0F0040120096421FB
:1037700001FB1089A88900F4004040B1322000EB21
:10378000C900B0FBF1F000F00700044308E032206C
:1037900000EB09106421B0FBF1F000F00F000443CE
:1037A0002C8106B0BDE8F0874FF41651016000216E
:1037B0008180C18001810C2141810021818170477C
:1037C00010B502460020108A4FF2FF0318400B8804
:1037D0004C8823438C882343CC882343184310828E
:1037E00010BD0021018041808180C180704721B1DE
:1037F000828942F40052828104E082894DF6FF738F
:103800001A4082817047F0B5034600240026002547
:10381000002040F66A17B94200D100BF1846C1F334
:10382000421401F01F06012707FA06F5012C01D109
:103830000C3004E0022C01D1103000E014301AB139
:1038400007682F43076002E00768AF430760F0BDD9
:103850001AB1838A0B43838202E0838A8B4383827B
:103860007047028A4FF6F0731A400282028A0A43B6
:103870000282704782894FF2FF731A4082818289E7
:103880000A438281704721B1828942F0020282811B
:1038900004E082894FF6FD731A4082817047028AE4
:1038A0004FF6DF731A400282028A0A43028270478F
:1038B00021B1028A42F48042028204E0028A4BF67D
:1038C000FF731A4002827047C1F30802828070477A
:1038D00001468888C0F308007047818941F00101E2
:1038E00081817047028BD2B20283028B42EA0122AD
:1038F00002837047028B02F47F420283028B0A43E9
:103900000283704721B1828A42F02002828204E061
:10391000828A4FF6DF731A408282704721B1828A11
:1039200042F01002828204E0828A4FF6EF731A405E
:103930008282704721B1828A42F00802828204E0CA
:10394000828A4FF6F7731A408282704721B18289CA
:1039500042F40042828103E08289C2F30E02828136
:10396000704721B1828A42F40062828204E0828A36
:103970004FF2FF731A4082827047828A4FF6FB73C0
:103980001A408282828A0A438282704721B1828AE7
:1039900042F00202828204E0828A4FF6FD731A40EE
:1039A0008282704702460020B1F5007F00D100BF3F
:1039B00013880B400BB1012000E00020704701F498
:1039C0000072B2F5007F00D100BFCA430280704789
:1039D00070B50246002400230025002040F66A1638
:1039E000B14200D100BFC1F3421501F01F0301260F
:1039F00006FA03F3012D02D19689334006E0022D29
:103A000002D1168A334001E0968A33400C12012617
:103A100006FA04F41688344013B10CB1012000E01A
:103A2000002070BD10B50022002340F66A14A142A8
:103A300000D100BF0A1201249440A3B2DC430480E9
:103A400010BD000000380140004400400048004024
:103A5000004C00400050004031490143314A1160A0
:103A6000704770B5002100230F22C47804B32D4C99
:103A7000246804F4E064C4F5E064210AC1F104039D
:103A8000CA40447804FA03F18478144021430901C0
:103A9000254C0678A155047804F01F050124AC409C
:103AA00005786D11AD0005F1E025C5F8004109E08C
:103AB000047804F01F050124AC401C4D06787611F3
:103AC00045F8264070BD1A4A0A400243154B1B1F99
:103AD0001A60704739B1134A121D12680243114B24
:103AE0001B1D1A6006E00F4A121D126882430D4B1F
:103AF0001B1D1A607047042808D14FF0E0210969A6
:103B000041F004014FF0E022116107E04FF0E021A5
:103B1000096921F004014FF0E022116170470000B3
:103B20000000FA050CED00E000E400E080E100E0B8
:103B300080FFFF1F10B50446FE48844208D10121D2
:103B4000C014FFF73BFD0021E014FFF737FDC4E090
:103B5000B4F1804F08D101210846FFF73CFD002158
:103B60000120FFF738FDB8E0F348844208D1012175
:103B70000220FFF730FD00210220FFF72CFDACE012
:103B8000EE48844208D101210420FFF724FD0021E2
:103B90000420FFF720FDA0E0E948844208D101217C
:103BA0000820FFF718FD00210820FFF714FD94E01E
:103BB000E448844208D101211020FFF70CFD0021C8
:103BC0001020FFF708FD88E0DF48844208D101217A
:103BD0002020FFF700FD00212020FFF7FCFC7CE007
:103BE000DA48844208D101214014FFF7E7FC0021A4
:103BF0006014FFF7E3FC70E0D548844209D101214D
:103C0000C804FFF7DBFC00214FF40020FFF7D6FCCF
:103C100063E0D048844209D101210805FFF7CEFCBA
:103C200000214FF48010FFF7C9FC56E0CA488442D7
:103C300009D101214805FFF7C1FC00214FF4001014
:103C4000FFF7BCFC49E0C548844208D1012140206F
:103C5000FFF7C1FC00214020FFF7BDFC3DE0C0485C
:103C6000844208D101218020FFF7B5FC002180208B
:103C7000FFF7B1FC31E0BB48844208D10121801537
:103C8000FFF7A9FC0021A015FFF7A5FC25E0B64829
:103C9000844209D101210804FFF790FC00214FF470
:103CA0008030FFF78BFC18E0B048844209D1012135
:103CB0004804FFF783FC00214FF40030FFF77EFC3F
:103CC0000BE0AB48844208D101218804FFF776FC61
:103CD00000214FF48020FFF771FC10BD0022028804
:103CE000944B98420ED0994B98420BD0B0F1804F34
:103CF00008D0914B984205D0904B984202D0904BFF
:103D0000984204D14FF68F731A404B881A438D4B5B
:103D1000984207D08C4B984204D04FF6FF431A408C
:103D2000CB881A4302808B8883850B880385814B5F
:103D300098420BD0854B984208D08B4B984205D0C7
:103D40008A4B984202D08A4B984201D10B7A038663
:103D500001238382704770B5002400220023058C64
:103D60004FF6FE7635400584028C8388048B4FF62F
:103D70008F752C40B51E2C400D882C43751E2A4093
:103D80000D892A434D882A436A4DA8420BD06F4DB6
:103D9000A84208D0744DA84205D0744DA84202D064
:103DA000734DA84213D14FF6F7752A404D892A4327
:103DB0004FF6FB752A408D882A434FF6FF652B404E
:103DC0004FF6FF552B408D892B43CD892B438380A4
:103DD0000483CD888586028470BD70B500240022DE
:103DE0000023058C4FF6EF7635400584028C8388DE
:103DF000048B48F6FF752C404FF6FF452C400D888C
:103E00004FF6FF7606EA05252C434FF6DF752A406C
:103E10000D8906EA05152A434D8806EA05152A4349
:103E2000444DA84202D0494DA8421DD14FF67F759E
:103E30002A404D894FF6FF7606EA05152A434FF6CC
:103E4000BF752A408D8806EA05152A434FF6FF35CF
:103E50002B404FF2FF752B408D8906EA85052B43D9
:103E6000CD8906EA85052B4383800483CD880587A9
:103E7000028470BD70B5002400220023058C4FF62B
:103E8000FF6635400584028C8388848B4FF68F75DE
:103E90002C404FF6FC752C400D882C434FF6FF55F7
:103EA0002A400D894FF6FF7606EA05252A434D88FC
:103EB00006EA05252A431F4DA84202D0234DA842F9
:103EC0001DD14FF2FF752A404D894FF6FF7606EA65
:103ED00005252A434FF6FF352A408D8806EA052539
:103EE0002A434EF6FF752B404DF6FF752B408D890A
:103EF00006EA05152B43CD8906EA05152B43838079
:103F00008483CD888587028470BD70B5002200232C
:103F10000024058C4EF6FF7635400584038C84889A
:103F2000828B48F6FF752A404FF6FF452A400D88E0
:103F300020E00000002C0140000400400008004088
:103F4000000C00400010004000140040003401400C
:103F5000004C014000500140005401400018004056
:103F6000001C00400020004000400140004401408F
:103F7000004801404FF6FF7606EA05252A434DF634
:103F8000FF752B400D8906EA05352B434D8806EA5F
:103F900005352B43FA4DA84202D0FA4DA84208D16C
:103FA0004BF6FF752C408D894FF6FF7606EA851596
:103FB0002C4384808283CD88A0F84050038470BD58
:103FC000828B4FF2FF331A408283828B4FF6FF734E
:103FD00003EA01231A4382837047F0B50C46154665
:103FE000002200210026078C4EF6FF7C07EA0C0712
:103FF0000784828B018C4FF6FF7707EA043640F680
:10400000FF473A404FF6FF7707EA05273A434FF656
:10401000FF7707EA03373A43D94FB8420ED0D94F5A
:10402000B8420BD0B0F1804F08D0D74FB84205D07E
:10403000D64FB84202D0D64FB84206D14DF6FF77E0
:10404000394046F48057394305E047F6FF57394079
:1040500044F48057394382830184F0BD828B4FF64C
:10406000F3731A408283828B0A4382837047F0B5D0
:104070000C461546002200210026078C4FF6FF6CE7
:1040800007EA0C070784828B018C4FF6FF7707EA5B
:1040900004264FF60C773A404FF6FF7707EA0317EE
:1040A0002F433A43B64FB8420ED0B64FB8420BD06A
:1040B000B0F1804F08D0B44FB84205D0B34FB842EA
:1040C00002D0B34FB84206D14FF6FF57394046F4FD
:1040D0008077394305E04FF2FF57394044F4807749
:1040E000394382830184F0BD028B4FF2FF331A40C3
:1040F0000283028B4FF6FF7303EA01231A43028304
:104100007047F0B50C461546002200210026078CAA
:104110004FF6EF7C07EA0C070784028B018C4FF601
:10412000FF7707EA041640F6FF473A404FF6FF775D
:1041300007EA03373A434FF6FF7707EA05273A4382
:104140008F4FB8420ED08F4FB8420BD0B0F1804F96
:1041500008D08D4FB84205D08C4FB84202D08C4F5A
:10416000B84206D14FF6DF77394046F010073943A1
:1041700005E04FF65F77394044F01007394302837A
:104180000184F0BD028B4FF6F3731A400283028B59
:104190000A4302837047F0B50C4615460022002101
:1041A000068C4FF6FE773E400684028B018C4FF65C
:1041B0000C7632407E1C06EA03162E433243704EC4
:1041C000B0420ED06F4EB0420BD0B0F1804F08D04D
:1041D0006D4EB04205D06D4EB04202D06C4EB04232
:1041E00006D14FF6FD76314044F00106314305E03B
:1041F0004FF6F576314044F00106314302830184E5
:10420000F0BD70B505460C465D4885420ED05D4850
:1042100085420BD0B5F1804F08D05B48854205D070
:104220005A48854202D05A48854200D100E000BF7A
:10423000208850B92389A28861882846FFF7ABFF00
:10424000E1882846FFF79EFF25E0208804280AD150
:104250002389A28861882846FFF753FFE188284612
:10426000FFF742FF17E0208808280AD12389A28897
:1042700061882846FFF7FBFEE1882846FFF7EEFE3F
:1042800009E02389A28861882846FFF7A6FEE18815
:104290002846FFF795FE70BD2DE9F04105460C4616
:1042A00000260127608808B9022600E00026A088C1
:1042B000012801D1022700E001272088A0B9238925
:1042C000A28861882846FFF766FFE1882846FFF745
:1042D00059FF23893A4631462846FFF712FFE18805
:1042E0002846FFF701FF13E02389A288618828464A
:1042F000FFF707FFE1882846FFF7F6FE23893A46D5
:1043000031462846FFF747FFE1882846FFF73AFF86
:10431000BDE8F0810A884B881A438B881A43CB8802
:104320001A430B891A434B891A438B891A43A0F805
:10433000442070474FF6FF71818000210180C180C9
:104340004180017270470021018041808180C180DD
:10435000018141818181C1817047002101804180BB
:10436000012181800021C1800181704700210180ED
:1043700041808180C180018141818181704700003D
:10438000002C0140003401400004004000080040BF
:10439000000C004021B1028842F00102028004E0DA
:1043A00002884FF6FE731A400280704731B1B0F8B0
:1043B000442042F40042A0F8442005E0B0F8442034
:1043C000C2F30E02A0F8442070471AB183890B4350
:1043D000838102E083898B438381704781827047A8
:1043E00041EA0203A0F8483070471AB183890B43B1
:1043F000838102E083898B438381704701894FF673
:10440000F8721140018170470A46002101894FF678
:104410008F73194011430181704730B504460D4632
:1044200029462046FFF7F0FF208940F00700208151
:1044300030BD2DE9F04104460D4616461F46602D5D
:1044400006D13B46012231462046FFF75AFE05E0E1
:104450003B46012231462046FFF79DFE2946204675
:10446000FFF7D2FF208940F007002081BDE8F081EE
:1044700030B50C4600210189C9B24FF6FF7505EA37
:104480000325154325432943018130BD2DE9F04122
:1044900005460E4617469846002443463A4631469E
:1044A0002846FFF7E5FF2C894FF6F870044044F0EA
:1044B00007044FF68F70044044F070042C81BDE86F
:1044C000F081F0B504460D4616461F463B4632467F
:1044D00029462046FFF7CCFF208940F48040208108
:1044E000F0BD0185828270470A46002101884FF69F
:1044F0008F731940114301807047F0B50C46154683
:104500001E460021002200230189028B038C4FF6F6
:10451000F877394021434FF6FC473A4040F2011703
:104520003A434FF6DD773B404FF6FF7707EA061731
:104530002F433B43018102830384F0BD0A460021DF
:10454000018B4FF68F7319401143018370470A4660
:104550000021018B48F6FF7319404FF6FF7303EA01
:1045600002231943018370470A460021818B4FF6CD
:104570008F7319401143818370470A460021818B54
:1045800048F6FF7319404FF6FF7303EA02231943FD
:104590008183704721B1028842F08002028004E0EA
:1045A00002884FF67F731A400280704721B18288DB
:1045B00042F00402828004E082884FF6FB731A40C6
:1045C0008280704721B1828842F00802828004E034
:1045D00082884FF6F7731A408280704721B1828833
:1045E00042F00102828004E082884FF6FE731A4096
:1045F000828070470A460021018B4FF6F7731940FD
:104600001143018370470A460021018B4FF2FF736B
:1046100019404FF6FF7303EA0223194301837047E1
:104620000A460021818B4FF6F773194011438183AD
:1046300070470A460021818B4FF2FF7319404FF6F5
:10464000FF7303EA02231943818370470A4600215E
:10465000018B4FF6FB7319401143018370470A46E3
:104660000021018B4FF6FF3319404FF6FF7303EA29
:1046700002231943018370470A460021818B4FF6BC
:10468000FB7319401143818370470A460021818BD7
:104690004FF6FF3319404FF6FF7303EA0223194325
:1046A000818370470A460021018B4FF67F731940C2
:1046B0001143018370470A460021018BC1F30E01AB
:1046C0004FF6FF7303EA02231943018370470A463A
:1046D0000021818B4FF67F7319401143818370470E
:1046E0000A460021818BC1F30E014FF6FF7303EAE6
:1046F00002231943818370470A460021018C4FF63B
:10470000FD7319401143018470470A460021018C52
:104710004FF6F77319401143018470470A46002190
:10472000018C4FF6DF7319404FF6FF7303EA021353
:104730001943018470470A460021018C4FF67F73AC
:1047400019404FF6FF7303EA0213194301847047BF
:104750000A460021018C4FF6FF5319404FF6FF73B4
:1047600003EA02231943018470470A460021018CA1
:104770004FF2FF7319404FF6FF7303EA0223194308
:10478000018470470A460021018C4DF6FF731940E1
:104790004FF6FF7303EA023319430184704730B5C3
:1047A000002301248C40A3B2048C9C430484048C19
:1047B00002FA01F5ADB22C43048430BD30B50023BC
:1047C00004248C40A3B2048C9C430484048C02FA1D
:1047D00001F5ADB22C43048430BD70B50346002012
:1047E00000241846183001258D40ACB21D8CA5431D
:1047F0001D8409B1082909D100EB6100056825F085
:10480000700505600568154305600EE00D1FC5F3D2
:104810004E052844056825F4E045056005684FF617
:10482000FF7606EA02263543056070BD21B1028895
:1048300042F00202028004E002884FF6FD731A4043
:104840000280704721B1028842F00402028004E035
:1048500002884FF6FB731A400280704721B18288AC
:1048600042F08002828004E082884FF67F731A4013
:104870008280704702884FF6F7731A4002800288E0
:104880000A430280704782884FF68F731A408280F5
:1048900082880A438280704702894FF6F8731A4073
:1048A000028102890A430281704702894FF67F73B1
:1048B0001A40028102890A4302817047818470474D
:1048C000818570478186704701877047818770476F
:1048D000A0F84010704702884FF6FF431A4002804C
:1048E00002880A43028070470146888E704701465D
:1048F000088F70470146888F70470146B1F8400025
:1049000070470146888C70470146088D7047024603
:104910000020138A0B400BB1012000E000207047FB
:10492000CA430282704730B50246002000230024AB
:10493000158A05EA0103958905EA010413B10CB152
:10494000012000E0002030BDCA4302827047000011
:1049500010B50446FA48844208D101214015FEF7FB
:104960002DFE00216015FEF729FE17E0F548844270
:1049700008D101210015FEF721FE00212015FEF7C8
:104980001DFE0BE0F048844208D10121C803FEF768
:1049900015FE00214FF40040FEF710FE10BD30B5AB
:1049A0000246002000235068E84C20400D790C6836
:1049B00044EA0524204350609068E54C2040D1E94A
:1049C00002542C434D7944EA450420439060D06A58
:1049D00020F470000C7C641EE4B2234340EA0350D0
:1049E000D06230BD00210160017141718160C16000
:1049F00001210174704721B1826842F00102826096
:104A000003E0826822F001028260704721B182686F
:104A100042F48072826003E0826822F480728260D5
:104A2000704710B50023CBB21AB144681C434460F0
:104A300002E044689C43446010BD816841F0080175
:104A400081607047014600208A6802F008020AB1BE
:104A5000012000E000207047816841F0040181607E
:104A60007047014600208A6802F004020AB1012062
:104A700000E00020704721B1826842F4A002826009
:104A800003E0826822F4A0028260704701460020A1
:104A90008A6802F480020AB1012000E00020704719
:104AA00010B50A4600210023416821F46041531EDD
:104AB00041EA4331416010BD21B1426842F40062D5
:104AC000426003E0426822F4006242607047F0B541
:104AD00004460D4600200021092D11DDE068A5F1F6
:104AE0000A0606EB4607072606FA07F18843A5F1F2
:104AF0000A0606EB460603FA06F10843E0600CE0FE
:104B0000206905EB4507072606FA07F1884305EB00
:104B1000450603FA06F108432061072A0FDA606BA5
:104B2000561E06EB86071F2606FA07F18843561E17
:104B300006EB860605FA06F10843606322E00D2ABB
:104B40000FDA206BD61F06EB86071F2606FA07F141
:104B50008843D61F06EB860605FA06F10843206354
:104B600010E0E06AA2F10D0606EB86071F2606FAA2
:104B700007F18843A2F10D0606EB860605FA06F159
:104B80000843E062F0BD21B1826842F48012826085
:104B900003E0826822F48012826070470146C86C8C
:104BA00080B2704766484C300068704721B1426857
:104BB00042F48062426003E0426822F48062426014
:104BC000704721B1426842F48052426003E042687B
:104BD00022F48052426070470A460021816821F425
:104BE000E04111438160704721B1826842F4004284
:104BF000826003E0826822F400428260704721B143
:104C0000826842F40212826003E0826822F4021297
:104C100082607047014600208A6802F400120AB1DF
:104C2000012000E000207047F0B504461546002042
:104C300000220026092911DDE068A1F10A0707EB2F
:104C4000470C072707FA0CF29043A1F10A0707EB7C
:104C5000470703FA07F21043E0600CE0206901EB1C
:104C6000410C072707FA0CF2904301EB410703FAC6
:104C700007F210432061A06BC0F30156EF1C06F150
:104C8000010CA7EB0C0707EB870C1F2707FA0CF2A8
:104C90009043EF1C06F1010CA7EB0C0707EB87070D
:104CA00001FA07F21043A063F0BD10B50A460021D7
:104CB0000023816B21F44011531E41EA03518163AB
:104CC00010BD08B5002300930090009B0B44009397
:104CD000009B1A6008BD08B50246002000900092B3
:104CE00001F12800009B184400900098006880B2F1
:104CF00008BD0A4600214168164B19401143416026
:104D000070474162826270470A460021416821F083
:104D10001F0111434160704740B1094908310968DA
:104D200041F40001064A0832116007E004490831E5
:104D3000096821F40001024A08321160704700003E
:104D40000024014000280140003C0140FFFEF0FF2C
:104D5000FDF7F1FFFFFD3FFF0246002013680B4007
:104D60000BB1012000E000207047CA430260704789
:104D700070B502460020002300240B125568CEB205
:104D800005EA060415681D4015B10CB1012000E0CC
:104D9000002070BD00220A12D34303607047000058
:104DA00010B50446BE48844208D101218014FEF7A4
:104DB00005FC0021A014FEF701FC16E0B94884426E
:104DC00008D101210014FEF706FC00212014FEF793
:104DD00002FC0AE0B448844207D10121C013FEF767
:104DE000FAFB0021E013FEF7F6FB10BD10B5002220
:104DF000028802F441520B884C8823438C88234359
:104E0000CC8823430C8923434C8923438C89234337
:104E1000CC8923431A430280838B4FF2FF742340D3
:104E200083830B8A038210BD2DE9F04F85B00546C0
:104E30000C464FF0000902274FF000084FF0010B1D
:104E40000026B246A88B4FF240010840A8830220FA
:104E50002884B5F81C90A068022801D100BF38E072
:104E6000A08810B94FF0010B01E04FF0020B8D4804
:104E7000854200D100E000BF6846FEF718FBDDF870
:104E800000A0E088B0F5007F0AD14FEA1A2000EBBD
:104E900080004000A168B0FBF1F0401D86B20BE03D
:104EA0004FEA4B10BAFBF0F000EB80004000A16825
:104EB000B0FBF1F0401D86B20A20B6FBF0F606F01A
:104EC0000108A6EB0800C0F34F074FF6FF7000EA99
:104ED0000828022F01DBFF2F02DD02274FF0000818
:104EE000E08840EA080038432884A088A189084364
:104EF000618808432188084340F4006040EA0909BA
:104F0000A5F81C9005B0BDE8F08F0021018041801C
:104F10008180C180018141818181C181072101821C
:104F200070470021018041808180C1800221816021
:104F300000218181704721B1028842F04002028045
:104F400004E002884FF6BF731A400280704721B117
:104F5000828B42F48062828304E0828B4FF6FF33BF
:104F60001A408283704730B5002400230C110125BC
:104F7000A540ABB21AB185881D43858002E08588C3
:104F80009D43858030BD1AB183880B43838002E046
:104F900083888B438380704781817047014688896D
:104FA00070474FF6FF62914204D0028842F480724B
:104FB000028004E002884FF6FF631A4002807047C7
:104FC00021B1828842F00402828004E082884FF698
:104FD000FB731A408280704702884FF2FF731A40B9
:104FE000028002880A4302807047018841F48051A0
:104FF0000180704721B1028842F40052028004E02F
:1050000002884DF6FF731A40028070470246002066
:10501000012901D0108B00E0908A70470146088A70
:105020007047B1F5804F04D1028842F4804202807B
:1050300004E002884BF6FF731A4002807047024674
:10504000002013890B400BB1012000E000207047C5
:10505000CA4302817047F0B50246002000240023B5
:10506000002501F00F070126BE40B4B20B11012646
:105070009E40B3B2968806EA03051689264016B10B
:105080000DB1012000E00020F0BD10B5002201F0BC
:105090000F040123A3409AB2D343038110BD000043
:1050A0000030014000380040003C004000204449EE
:1050B0000860091D0860091D0860091D0860414855
:1050C0003F4914310860704700213D498279002A28
:1050D0003AD00A46126803689A430B461A600A1DC2
:1050E000126803689A430B1D1A60027911440A681A
:1050F00003681A430A60324A0832126803689A4306
:105100002F4B08331A601A1D126803689A432C4B00
:105110000C331A604279102A0ED11A1F12680368E4
:105120001A43274B08331A601A1D126803681A4382
:10513000234B0C331A600DE02149427911440A686F
:1051400003681A430A6005E0027911440A6803689B
:105150009A430A6070470021016001710C2141717E
:105160000021817170471649103109680143144AC2
:1051700010321160704701460020114A1432126843
:105180000A400AB1012000E0002070470C491431A8
:1051900008607047014600200022094B1B6803EAA3
:1051A0000102074B14331B680B4013B10AB10120F5
:1051B00000E0002070470249143108607047000089
:1051C00000040140FFFF0F007CB5002514E0694694
:1051D000284601F0DBFF064666B9F84850F825403E
:1051E00044B1012C06D0D4E9020100EB81006064D7
:1051F0000198A064681CC5B23F2DE8D97CBD00248D
:1052000000BF02E0642002F0CBF8ED4800780028EF
:10521000F8D0EC4800686421B0FBF1F0E94908607F
:105220000846006828B90020E7490870FF2001F00F
:10523000EFFF00BF02F010FD0446E4480068E449B7
:1052400008600020E1490860204602F009FDE048BE
:105250000068DC490968B0FBF1F0C0F16400DA498C
:10526000087002F097FCFFF7AFFF322002F098F8C9
:10527000E0E700B587B0032000218022D54BCDE9BF
:105280000132CDE903104FF6FE703E23D24A009062
:10529000AFF2950001F093FD06AAD0A13E2001F0E7
:1052A000F7FE07B000BD002400BF00BF02F0D4FC31
:1052B0000446C6480068401CC4490860204602F005
:1052C000CFFC02F066FCF1E700B587B003200021B7
:1052D0008022C64BCDE90132CDE903104FF6FF70B5
:1052E0003F23C34A0090AFF2410001F068FD06AAD7
:1052F000C0A13F2001F0CCFE07B000BD04E00022B9
:1053000000F8012B4A1E91B20029F8D1704770B500
:10531000C821BC48FFF7F2FF00230FE0581C85B2FC
:1053200003EB8300B74901EB800405EB850001EB3B
:105330008006002020706660581C83B2092BEDD3D4
:1053400003EB8300AF4901EB800400202070606014
:105350000846AD49086070BD70B54FF47C71AB482C
:10536000FFF7CCFF4FF480719448FFF7C7FF00248C
:1053700013E0601CC5B2C4EBC40000EB4000A349BD
:1053800001EB8003C5EBC50000EB400001EB80069C
:105390005E619FA0D864601CC4B20B2CE9D3C4EB3F
:1053A000C40000EB4000994901EB800300205861E4
:1053B00097A0D864002097490860944896490860EF
:1053C00070BD0021954A1170002004E00021944A2C
:1053D0001154411CC8B20828F8D30021914A117019
:1053E000914A1170914A1160914A116070470020F2
:1053F0009049086090490870904908709049087079
:1054000090490870904908607049086070490860C8
:105410006C4908606A490870704710B502F0B2FB29
:10542000FFF7E5FFFFF7CDFFFFF796FFFFF76FFFF1
:1054300000F0ECFE01F0E3F9FFF746FFFFF719FF7C
:1054400002F034FB02F0A2FB10BD7E480078012878
:1054500008D179480078FF2804D277480078401CAA
:1054600075490870704779496C4A1278885C6C49B4
:10547000095C764A515C01EBC0016B4A11707047C0
:1054800010B500246F480078012830D102F0E4FB09
:1054900004466948007820B167480078401E664994
:1054A000087065480078F8B964480078E0B9FFF7FB
:1054B000DAFF42485C49097850F821005B490860EE
:1054C000594800785749097888420DD057480068F4
:1054D000806B401C5549096888635B480068401C24
:1054E0005949086002F0D7FB204602F0B9FB10BD15
:1054F00010B5002453480078012811D102F0ACFB0C
:1055000004464D48007840B94C480078FF2804D242
:105510004A480078401C49490870204602F0A0FB28
:1055200010BD10B5002402F097FB044642480078F5
:10553000F8B942480078E0B9FFF795FF1F483A49AB
:10554000097850F821003949086037480078354912
:10555000097888420DD035480068806B401C33497B
:105560000968886338480068401C3749086002F0C1
:105570008BFB204602F074FB10BD10B500243148AF
:10558000007801286FD102F067FB04462B480078B1
:1055900080B12A480078401E2849087008460078E3
:1055A00048B92548007838B9204602F059FBFFF782
:1055B000B8FF58E054E04FE04AE00000383B0020DC
:1055C0007C00002074000020700000208C0000206F
:1055D00078000020383700203439002075432F4FE1
:1055E000532D49492053746174000000383900205C
:1055F000343B002075432F4F532D49492049646C9B
:10560000650000002036002068000020383C0020A3
:105610003F0000009C00002094000020810000203A
:10562000820000207F0000208000002098000020E1
:1056300090000020A80000207D0000207E000020B7
:105640008B0000208A0000206400002048B300087E
:10565000204602F005FB06E0204602F001FB02E0D6
:10566000204602F0FDFA10BD10B5EB48007890B965
:10567000FFF7F9FEE9480078E9490870E948E74989
:10568000097850F82100E849086008460068E749B1
:10569000086002F0E8FA10BD10B50024022001F005
:1056A0007FFE02F0D9FA04460020E1490860204656
:1056B00002F0D6FA322001F073FE02F0CDFA044671
:1056C000DB480068DB4908600120DB4908702046A0
:1056D00002F0C6FA10BD70B5002602F0ABFA02F077
:1056E000BBFA0646D5480068401CD44908603046DD
:1056F00002F0B6FAC8480078012853D1D0480078A3
:1057000020B1012804D0022809D103E001250BE0D3
:10571000002509E001250120C949087004E00125A0
:105720000020C749087000BF00BF05B970BDC5485B
:10573000046833E002F090FA0646E06A50B3E06A8B
:10574000401EE062E06A28BB94F8300000F03700A9
:1057500040B114F8300F00F0C800207001206070D4
:10576000303C02E0002084F8310094F8300000F072
:10577000080078B93434A078B34909780843B249AD
:1057800008702078B149085C6178084314F834192E
:10579000AE4A50546469304602F062FA94F832001E
:1057A0003F28C7D100BFC1E740F2231070477047C0
:1057B00010B590F8342001F10B039B5C90F8354054
:1057C000A34301F10B04A35423469B5C23B98B7ABA
:1057D00090F83640A3438B7210BD2DE9F04F05467B
:1057E0000F4690469946A87A99490E5C05F10B0040
:1057F000805D11F800B00BEBC60000F0FF0A89488D
:1058000050F82A4000202034E0602760207C20EA05
:105810000800207484F81190207C203C00F00800DF
:1058200068B994F8360088490978084386490870B1
:105830008648805D94F83510084384498855294688
:105840002046FFF7B5FF5046BDE8F08F10B5774A08
:105850001268D061754A126892F8343000F10B0278
:10586000D25C724B1B6893F835301A436F4B1B6840
:1058700093F8344000F10B031A55827A6B4B1B6886
:1058800093F836301A438272684A126892F83410DC
:105890006E4A525C654B1B6893F835309A436B4BEC
:1058A0005A541A46525C42B9604A126892F836302D
:1058B000654A12789A43644B1A7010BD0146002263
:1058C0008A72002005E0002301F10B021354421CF0
:1058D000D0B20828F7D3704705E011F8013B00F873
:1058E000013B531E9AB2002AF7D1704701460020AF
:1058F00002E0491C421CD0B20A78002AF9D1704754
:105900002DE9F84F05460F4690469946DDE90AAB6A
:105910000020009002F0A0F900904E480468002C8E
:1059200075D0183454F8040C4A490860009802F005
:1059300097F944F8187CA57600202076607660619F
:1059400044F814BC44F80CAC44F8108C0C9824F8BF
:10595000080C24F8069C0020E077E810207705F07A
:105960000700E076217F01208840A077E17E0120BA
:105970008840607700206060E060A0602062A062E4
:105980006062E0622063AFF278306063183C00260A
:1059900006E0002104F1500040F82610701CC6B249
:1059A000002EF6D0204602F044F9204602F0EFF82F
:1059B00002F052F900901B4840F825402148006849
:1059C00060610020A0611F48006810B11D48006898
:1059D00084611C4804603434A0781B49097808436A
:1059E0001949087020781949085C6178084314F84F
:1059F0003419164A505418480078401C164908704B
:105A0000009802F02DF90020BDE8F88FFFE700981C
:105A100002F026F94220F7E78A00002080000020EB
:105A20007F000020383B00209800002090000020DC
:105A30008C000020740000207C000020A8000020C2
:105A4000A00000209C000020810000208200002097
:105A500048B30008940000208B0000202DE9F05F7F
:105A600004460F4691461E464FF0000B207805284D
:105A700004D0012030700020BDE8F09F09F0800ABA
:105A8000BAF1000F04D029F080094FF0010801E0BD
:105A90004FF000080020307002F0DEF88346B9F1C4
:105AA000000F2CD0B9F1010F3BD0B9F1020F03D098
:105AB000B9F1030F46D111E0208900EA0705BD4284
:105AC00006D1B8F1010F05D12089A843208101E05A
:105AD00070203070584602F0C3F83AE0208900EA9E
