:020000040800F2
:10000000D0B9002085030008657E0008892E00080D
:10001000E57D00086D1B000899B300080000000092
:10002000000000000000000000000000BD02000809
:10003000C12100080000000035030008710300081A
:100040009F0300089F0300089F0300089F03000808
:100050009F0300089F0300089F0300089F030008F8
:100060009F0300089F0300089F0300084120000829
:100070006120000881200008A1200008C12000089C
:10008000E1200008012100089F03000895B1000845
:10009000ADB20008711B00085D1C0008C5210008F6
:1000A0009F0300089F0300089F0300089F030008A8
:1000B0009F0300089F0300089F030008B52E000857
:1000C000A52E00089F0300089F0300089F03000857
:1000D0009F03000835950008199800089F03000841
:1000E0009F0300089F0300089F0300089F03000868
:1000F0009F0300089F0300089F0300089F03000858
:100100009F0300089F0300089F0300089F03000847
:100110009F0300089F0300089F0300089F03000837
:1001200021210008412100086521000885210008DF
:1001300000F002F800F06DF80AA090E8000C82448C
:100140008344AAF10107DA4501D100F062F8AFF269
:10015000090EBAE80F0013F0010F18BFFB1A43F0A5
:1001600001031847E8680100086901000A444FF0DC
:10017000000C10F8013B13F0070408BF10F8014B06
:100180001D1108BF10F8015B641E05D010F8016B4B
:10019000641E01F8016BF9D113F0080F1EBF10F8AF
:1001A000014BAD1C0C1B09D16D1E58BF01F801CBD2
:1001B000FAD505E014F8016B01F8016B6D1EF9D555
:1001C0009142D6D37047000000230024002500266A
:1001D000103A28BF78C1FBD8520728BF30C148BFAA
:1001E0000B607047662911F0FC86642900F0A2813B
:1001F000782900F0DB81002070471FB500F069FE10
:1002000004000020002110F0D7FFE0601FBD10B5F2
:1002100010BD00F061FF1146FFF7EFFF0FB400F0D3
:100220000BF80FBC0DF020FB00F088FA03B4FFF7C9
:10023000EEFF03BC00F04AFF04B00DF079FB044868
:1002400000210DF04FFC0DF085FB00F077FA000067
:100250005867010880F309887047EFF309807047F9
:10026000684680F3098804480078C00714BF02205C
:10027000032080F31488704718670108DFF818C05E
:10028000EFF305831B0618BF6047EFF31483DB070A
:1002900008BF604700DF704705E40008DFF818C0BA
:1002A000EFF305831B0618BF6047EFF31483DB07EA
:1002B00008BF604700DF7047B5E60008EFF309802C
:1002C000816911F8021CF1B990E80F10E047EFF3D3
:1002D000098C8CE80700144B93E8060091420FD07C
:1002E00039B12CE9F00FC1F828C00CB40EF0CAFDEA
:1002F0000CBC1A60D2F828C0BCE8F00F8CF3098857
:100300006FF0020E704710B5084A1268914209D882
:10031000074C54F8214090E80F10A047EFF3098CE8
:100320008CE80F0010BD0000B0030020B4180008D6
:10033000B41800080EF078FC0C4B93E806009142CC
:1003400010D0EFF3098C2CE9F00FC1F828C00CB4E1
:100350000EF098FD0CBC1A60D2F828C0BCE8F00F73
:100360008CF309886FF0020E70470000B003002084
:100370000EF050FEE0E700000DF048FC0EF04AFEE3
:10038000DAE700000948804709480047FEE7FEE732
:10039000FEE7FEE7FEE7FEE7FEE7FEE7FEE7FEE735
:1003A00004480549054A064B70470000ED910008D6
:1003B00031010008D0B30020D0B90020D0B5002012
:1003C000D0B500200048704770B3002053EA020CFB
:1003D00000F069802DE9F04B4FF00006002B1FBFA5
:1003E000B3FA83F503FA05F424FA05F65E4012BF6A
:1003F0001643B2FA82F502FA05F4C5F120051EBFD4
:1004000022FA05FC44EA0C04203556EA044C4FEA73
:10041000144418BF641C4FF000084FF000099042CC
:1004200071EB030C39D3002919BFB1FA81F701FA36
:1004300007F6B0FA80F700FA07F6C7F120071EBFEB
:1004400020FA07FC46EA0C062037B6FBF4FCA7EBC3
:100450000507103F07F01F0BCBF120060CFA0BFB32
:100460002CFA06F644BFB3460026202FA4BF5E46F2
:100470004FF0000B5BEA060C08BF4FF0010B19EBC5
:100480000B09ABFB027C48EB0608C01B06FB02CC49
:100490000BFB03CC71EB0C01C1E70B460246414656
:1004A0004846BDE8F08B13B54FF000004FF0000157
:1004B000AFF30080BDE81C40704700000FB41CB5CE
:1004C000074B06AA7B4469460090059800F0E9FCBA
:1004D0000020694600F0F8FC1CBC5DF814FB00002D
:1004E000010A000070B5044685690068C10601D59F
:1004F000302600E02026C00707D070BDD4E90121D6
:1005000030469047206A401C20626D1EF6D570BDB3
:1005100070B5044685690078C00707D170BDD4E97D
:10052000012120209047206A401C20626D1EF6D5D4
:1005300070BD00002DE9F0410646002410687529C1
:10054000314616A510D0AFF30080002802DA4042F1
:1005500013A507E031688A0701D512A502E0490713
:1005600004D511A5012401E0AFF3008000210A2287
:1005700006F1240709E0B0FBF2FCB0FBF2F302FB4A
:100580001C00303078541846491C0028F3D123460B
:100590002A463046BDE8F04100F015BA00000000E0
:1005A0002D0000002B0000002000000070B5044664
:1005B0000D4621461068AFF300802188090502D559
:1005C0000F4A7A4402E00E4A7A440E32002104F1C6
:1005D000240305E000F00F060009965D5E54491CF7
:1005E0000028F7D120780023000704D5702D02D011
:1005F00009B1022311322046BDE8704000F0E3B992
:10060000026201002DE9F05F894604464FF0000ABE
:10061000DFF824B1FB44C0F820A02046E1688847F9
:1006200000287DD0252806D0D4E901219047206AF2
:10063000401C2062F1E700255F462046E1688847BC
:100640002028064607DB312E05D2B81910F8200CF9
:1006500008B10543F1E7A80701D525F00405C4F862
:100660001CA00027C4F818A02A2E09D030460AF092
:1006700085FF38B304EB8708303EC8F8186019E0EE
:1006800059F8041B204604EB87029161E168884712
:10069000012F064618D1E069002820DA25F0200550
:1006A0001DE0D8F8180000EB800006EB4000303861
:1006B000C8F818002046E168884706460AF05EFF41
:1006C0000028EED1012F0AD02E2E08D12046E16855
:1006D00088477F1C0646022F45F02005C4DBA06931
:1006E000002803DA404245F00105A061E80701D087
:1006F00025F01005A6B1A6F14100192802D8203630
:1007000045F400654A463146204625604D46FFF7D0
:1007100069FD60B1012807D0ED1D25F0070000E05C
:1007200007E000F1080978E705F1040975E73046AC
:100730007AE7206ABDE8F09FD861010010B5044651
:10074000AFF300802046BDE81040FFF76FBD30B525
:1007500005460B462A4613F8014B12F8010B08B167
:10076000A042F8D01CB1002802D06D1CF1E7284649
:1007700030BD10B5431C02E010F8011B71B18107B8
:10078000FAD14FF0013202C88C1A8C4314EAC2111C
:10079000F9D0C01A0A0603D0C01E10BDC01A10BD81
:1007A0000A0401D0801E10BD0902FCD0401E10BDFD
:1007B000032A40F2308010F0030C00F0158011F88D
:1007C000013BBCF1020F624498BF11F801CB00F865
:1007D000013B38BF11F8013BA2F1040298BF00F8B9
:1007E00001CB38BF00F8013B11F0030300F0258076
:1007F000083AC0F0088051F8043B083A51F804CB9D
:10080000A0E80810F5E7121D5CBF51F8043B40F862
:10081000043BAFF30080D20724BF11F8013B11F86D
:1008200001CB48BF11F8012B24BF00F8013B00F8B1
:1008300001CB48BF00F8012B704710B5203AC0F03B
:100840000B80B1E81850203AA0E81850B1E81850D1
:10085000A0E81850BFF4F5AF5FEA027C24BFB1E80E
:100860001850A0E8185044BF18C918C0BDE810407F
:100870005FEA827C24BF51F8043B40F8043B08BF88
:100880007047D20728BF31F8023B48BF11F8012B4F
:1008900028BF20F8023B48BF00F8012B704702F048
:1008A000FF0343EA032242EA024200F002B84FF09B
:1008B00000020429C0F0128010F0030C00F01B802D
:1008C000CCF1040CBCF1020F18BF00F8012BA8BF3B
:1008D00020F8022BA1EB0C0100F00DB85FEAC17CFF
:1008E00024BF00F8012B00F8012B48BF00F8012BB2
:1008F00070474FF0000200B51346944696462039E3
:1009000022BFA0E80C50A0E80C50B1F12001BFF4C8
:10091000F7AF090728BFA0E80C5048BF0CC05DF82E
:1009200004EB890028BF40F8042B08BF704748BF7C
:1009300020F8022B11F0804F18BF00F8012B7047F0
:100940004FF0013C50F8042B51F8043B9A4221D15E
:10095000A2EB0C03934313EACC1317D150F8042BEA
:1009600051F8043B9A4215D1A2EB0C03934313EACE
:10097000CC130BD150F8042B51F8043B9A4209D107
:10098000A2EB0C03934313EACC13DBD04FF000002F
:10099000704700BFD01A01BAB1FA81F101F0180115
:1009A00022FA01F0CB40C1F12001DBB2C0B2C01A83
:1009B0002CFA01F3D11A914311EAC311E6D1704721
:1009C0007047704770472DE9F0470D4699469246AB
:1009D000044600F124080168880604D5E06921F086
:1009E0001001216000E00120A84201DD471B00E06A
:1009F0000027A1697A1902EB0900081AA061207882
:100A0000C00602D42046FFF76DFD002608E0D4E9B9
:100A100001211AF806009047206A401C761C2062CB
:100A20004E45F4DB2078C0060AD52046FFF75AFD74
:100A300006E0D4E9012130209047206A401C206262
:100A4000381EA7F10107F4DC07E0D4E9012118F80A
:100A500005009047206A401C2062281EA5F1010570
:100A6000F3DC2046FFF754FD2078000602D5022073
:100A7000BDE8F0870120FBE770472DE9FF4F0C46EA
:100A80001E464FF0FF378BB0D2E90001DDF86080E1
:100A90000A908A46C1F30A5505B93D460021084629
:100AA0004FF00000BAF1000F00F4400005DA00EB4F
:100AB00080004FF4400101EA50004FEA9059B9F12B
:100AC000010F00DDB9460A9850EA4A000ED044F6FC
:100AD0001050A5F2FF3545432F14B8F1000F1ED07A
:100AE0007542291E1EDDC9F100021CE0B8F1010F9C
:100AF0004FF0000001D0302103E0F24305E0215423
:100B0000401CB042FBDB30460022002121540B99EF
:100B1000C1F80880C1E900200FB0BDE8F08FBD1B0F
:100B20006D1CDEE74A4600DA694206A800F05CFA6E
:100B300006AB93E8070003AB83E8070050460A9929
:100B400000F0F0FA8DE80700A0F500501F38009083
:100B50000398002D0ADD42F21F014A460844002393
:100B600003A90390684600F059FD09E0A0F5005084
:100B70004A461F38002303A90390684600F063FD2E
:100B80008DE807000004000C03D04FF0FF3041084F
:100B900000E01046B8F1000F03D000220092154685
:100BA0001EE0751E05D400F099F9303262556D1EB5
:100BB000F9D5B3460122084302D000227F1C04E08D
:100BC0002078302801D100227F1E002A099784D086
:100BD0001DE0112D07DA00F081F9303262556D1CED
:100BE00050EA0102F5D1084302D00098C8B10EE0E6
:100BF0000021681E05E0235C625C63542254401EA1
:100C0000491C8142F7DBAB46A81B401E099000201F
:100C100004F80B000B98099AC0F80880C0E9002B73
:100C20007AE711264FF0000857E72DE9F04F884684
:100C30000446D21D22F0070191B0D1E90001CDE9AF
:100C40000A010AF02BFC02460B98C00F01D02D20A0
:100C500007E02068810701D52B2002E0202101EA6E
:100C6000C000032A099001D0072A05DB034641464C
:100C7000204600F079F90BE12078800601D5E06983
:100C800000E00620B8F1650F814606D0B8F1660F86
:100C900018D0B8F1670F70D131E00020B9F1110F11
:100CA000009001DB112301E009F101030AAA01A967
:100CB0000CA8FFF7E2FEDDE90C70002609F1010542
:100CC000834647E001204B4600904FF000470AAAB8
:100CD00001A90CA8FFF7D1FEDDE90DB00C995D4626
:100CE000002610B909F101000D18B9EB050003D475
:100CF000C0F1FF3609F10105A5EB09002BE0B9F1C0
:100D0000010F01DA4FF001090020B9F1110F009035
:100D1000484601DD112300E003460AAA01A90CA8F8
:100D2000FFF7ABFEDDE90C704D46002683462078C8
:100D300000070AD4AB4500DA5D4601A8012D04DDA9
:100D4000411911F8011C302907D04F4502DA17F17B
:100D5000040F04DA012082460FE06D1EEEE7002F3B
:100D600002DCED1B3E4403E0781CA84200DD7D1C44
:100D7000B81B00F1010A4FF000472078000703D4A8
:100D8000AA4501DB4FF0FF3A0021B7F1004F0DF10A
:100D900043088DF8431024D002202B23002F01DAC2
:100DA0007F422D230A21021EA0F1010000DC5FB169
:100DB00097FBF1FC97FBF1F201FB1C7C17460CF151
:100DC000300C08F801CDEEE7A8F10100037021888E
:100DD000090501D5452100E06521A0F1010800F8D1
:100DE000011C09980FA9A1EB0807FF1D00B1012004
:100DF000411901EBEA70A1693844081A401EA0614C
:100E00002078C00602D42046FFF76CFB099828B171
:100E1000D4E901219047206A401C20622078C00656
:100E200022D52046FFF75EFB1EE0002E04DBB34513
:100E300002DD01A8805D00E03020D4E90121904767
:100E4000206A401C2062761CAAF101005FEA000AB9
:100E50000AD100F03EF8C0680168405CD4E9012185
:100E60009047206A401C2062281EA5F10105DCDCA9
:100E700007E0D4E9012118F8010B9047206A401CD3
:100E80002062381EA7F10107F3DC2046FFF740FB84
:100E9000032011B041E6000001694A1C0261087894
:100EA000704700B58FB0CDE90131002105910549AA
:100EB0007944CDE9031011466846FFF7A3FB0FB054
:100EC00000BD0000E5FFFFFF0A6802F8010B0A60A1
:100ED000704710B5FFF776FA203010BD30B5B0F18D
:100EE0000A024FEA900E71F100034EEA817EB0EBE8
:100EF0000E0061EB91014FEA101E4EEA017E10EBED
:100F00000E0041EB11114FEA102E4EEA016E10EB6C
:100F10000E0041EB11214FEA104E4EEA014E10EB4C
:100F20000E0041EB1141401841F100014FEAD000A1
:100F300040EA41704FEAD10110EB80054FEA81048D
:100F400044EA907444EB01046D1944EB0404521B11
:100F5000A3414FF0000348BF0A3200D530BD401C0A
:100F600041F1000130BD00002DE9F0411F4604466B
:100F700003260168072A01F4006004DB08B116A506
:100F800005E016A503E008B115A500E015A521F0C0
:100F900010002060A069C01EA0610FB1401EA061BA
:100FA0002046FFF79FFA4FB1D4E901213846904718
:100FB000206A401C2062C01C206206E0206AFAE71A
:100FC000D4E9012115F8010B9047761EF8D220468E
:100FD000FFF79EFABDE8F0814E414E006E616E0053
:100FE000494E4600696E66002DE9F0478146164677
:100FF0008AB0354878440DC88DE80D0032487844F1
:10100000801C03AC0DC884E80D0041F69B300844F9
:10101000372190FBF1F290FBF1F5A5F1800501FB82
:1010200012041B3C02D56442012000E00020DFF8DE
:1010300098A080460027FA44AAF1BE0A0EE0E00715
:101040000AD03246684607EB470101230AEB8101CB
:1010500000F0F9FA8DE8070064107F1C002CEED137
:10106000194F7F44AE3F19E0E80715D007EB041095
:101070000DF1180A90E80E008AE80E00C068F042F0
:1010800001D1981908903246012306A903A800F05F
:10109000DAFA03AB83E807006D10641C002DE3D17E
:1010A0004FF0010332466946B8F1000F03A802D0A1
:1010B00000F0B4FA01E000F0C6FAC9E90001C9F88D
:1010C00008200AB0BDE8F0878858010001491820BF
:1010D000ABBEFEE7260002007546FFF773F9AE4689
:1010E00005006946534620F00700854618B020B534
:1010F000FFF756F9BDE820404FF000064FF000071B
:101100004FF000084FF0000B21F00701AC46ACE8AF
:10111000C009ACE8C009ACE8C009ACE8C0098D461C
:10112000704770475FEA400C08BF91F0000F4FEA2C
:101130008C234FEAC12243EA51514FEA1C5018BF99
:1011400000F5F0404FEA300018BF41F000415FEA7F
:101150006C5C00F02980BCF1FF3F08BF40F080408C
:101160007047130C06BF12044FF0100C4FF0000C28
:10117000130E04BF12020CF1080C130F04BF12016E
:101180000CF1040C930F04BF92000CF1020CD30F6E
:1011900004BF52000CF1010C11464FF00002A0F107
:1011A0001F00A0EB0C00704711F0004F08BF704704
:1011B00031F000413FF4D5AF0B0C06BF09044FF0EE
:1011C000100C4FF0000C0B0E04BF09020CF1080CC0
:1011D0000B0F04BF09010CF1040C8B0F04BF890035
:1011E0000CF1020CCB0F04BF49000CF1010CCCF147
:1011F0002003A0EB0C0022FA03F302FA0CF241EAFE
:10120000030100F10100704720F07F4C80EA0300E9
:1012100023F07F47ACEB070303F57C5300F000405D
:1012200003F1FF032DE980494FEA154B09B44FEA5A
:10123000144325EA0B4E24EA03480FF2042606EB7A
:10124000132749083E785FEA320203FB0667C7F5B9
:10125000000707FB06F64FEA54374FEAD64606F179
:10126000020607FB066CCCF1005C4FEA1C472CEA37
:10127000074C07FB06F40CFB06F504EB15464FEA9A
:10128000961634BF00204FF000404FEAD13706FBDE
:1012900007FC4FEA1C4C0CFB0BF7D21B03FB0CF7B3
:1012A00061EB07010CFB0EF7B0EB074072EB174246
:1012B0000CFB08F734BFA2EB0742B2EB074261EB2D
:1012C00017414FEA0C444FEA910706FB07FC4FEA2F
:1012D0001C4C0CFB0BF7B0EBC74072EB573203FB17
:1012E0000CF734BFA2EBC742B2EBC74261EB5731F8
:1012F0000CFB0EF7B0EBC70072EB57720CFB08F754
:1013000034BFA2EBC702B2EBC70261EB5771039F78
:101310004FEA816141EA921104EBCC044FEAD137E4
:101320004FEA826206FB07FC42EA90124FEA8060B5
:101330004FEA1C4C0CFB0BF7D21B03FB0CF761EBC9
:1013400007010CFB0EF7B0EB074072EB17420CFBEA
:1013500008F734BFA2EB0742B2EB074261EB17413B
:101360004FEA8C554FEA910704EB9C2406FB07FCDF
:101370004FEA1C4C0CFB0BF7B0EBC74072EB57323B
:1013800003FB0CF734BFA2EBC742B2EBC74261EBE1
:1013900057310CFB0EF7B0EBC70072EB57720CFB2A
:1013A00008F734BFA2EBC702B2EBC70261EB57717B
:1013B00015EB4C254FEA816141EA92114FEA8262B6
:1013C0004FEAD13742EA901206FB07FC44F10004D1
:1013D0004FEA80604FEA1C4C0CFB0BF7D21B03FB5F
:1013E0000CF761EB07010CFB0EF7B0EB074072EB5B
:1013F00017420CFB08F734BFA2EB0742B2EB0742DF
:1014000061EB174115EB1C154FEA813141EA92411E
:101410004FEA823242EA90424FEA80304FEA0C763D
:1014200044F1000448EA03434EEA0B484FF0000E33
:10143000B2EB080C71EB030724BF624639464EEB52
:101440000E0E4FF0000B0018524149414BEB0B0BB5
:10145000B2EB080C71EB03077BF1000B24BF624673
:1014600039464EEB0E0E4FF0000B00185241494129
:101470004BEB0B0BB2EB080C71EB03077BF1000B92
:1014800024BF624639464EEB0E0E51EA020718BFE2
:1014900046F0010616EB0E7655F1000254F10001FC
:1014A00003D5BDE88901BDE80088BDE88901BDE834
:1014B0000048B619524141EB0101A3F10103704705
:1014C00080807F7E7D7C7B7A797877767675747381
:1014D000727171706F6E6E6D6C6C6B6A6A69686840
:1014E000676666656464636362616160605F5F5ED6
:1014F0005E5D5D5C5C5B5B5A5A595958585757564C
:1015000056555555545453535252525151505050B0
:101510004F4F4F4E4E4D4D4D4C4C4C4B4B4B4A4A02
:101520004A49494948484847474747464646454546
:10153000454444444443434343424242424141417F
:10154000002B9C4630D477002BD01CB54FEA3707D0
:1015500003B44FF010004FF01001BAF1000F06D0A5
:10156000BCF1000FDCBF40F0080040F008014FF074
:1015700000000FBCBDE810400BF1010BBBF1010FE7
:1015800008BF5FEA170722BF12F1010211F1010142
:101590004FF0004143F1000300F0004043EA000037
:1015A0007047F9D35708D0E746EA064613F1400FD3
:1015B0004FEA16461FDD13F1200FDFBF16430A4620
:1015C000002120335B42BED0C3F1200746EA064625
:1015D00002FA07F74FEA164646EA0706C3F1200764
:1015E00022FA03F201FA07F721FA03F14FF00003A0
:1015F00042EA0702A7E746EA020646EA06464FEA3B
:10160000164646EA0106BCBF46EA0646360C4FF0CF
:1016100000034FF000024FF0000194E72DE9804CE9
:101620009A46934670B491E8380007C831EA400CF6
:1016300048BF34EA430C03D5FFF7E6FDFFF780FF10
:10164000F0BCBDE8008C2DE9804C9A46934670B4FE
:1016500091E8380007C810F0804F08BF13F0804FA2
:1016600003D100F005F8FFF76BFFF0BCBDE8008C7C
:1016700020F07F4780EA030023F07F4C07EB0C0348
:10168000A3F57C5300F00040A3F1FE0392F0000F9D
:1016900000F0B38095F0000F00F077802DE901494C
:1016A0004FEA11404FEA144621EA004800FB06FCCD
:1016B00024EA064708FB06F607FB08F800FB07F7D5
:1016C00018EB06484CEB164C4FEA124B18EB074848
:1016D0004FEA15464CEB174022EA0B4E0BFB06FC7B
:1016E00025EA06470EFB06F607FB0EFE0BFB07F787
:1016F0001EEB064E4CEB164C4FF000061EEB074E51
:101700004CEB174B18EB0B0840F1000018EB0E0BDD
:1017100058EB000840F100008F1A4FF000013CBF69
:10172000C943661B14BFB5EB040C00213CBFC94381
:10173000F61B4FEA17444EEA8E0E27EA04454FEA9D
:101740001C4704FB07622CEA074C05FB07F70CFB60
:1017500005F604FB0CFC16EB074642EB174216EBB2
:101760000C4642EB1C421BEB060658EB02024141C1
:1017700046EA9E0601D5BDE80189B619524141EB02
:101780000101A3F10103BDE801894FEA14454FEAC5
:10179000114724EA054621EA074C05FB07F406FB3E
:1017A00007F70CFB06F105FB0CFC11EB074144EBC2
:1017B00017444FEA124711EB0C4144EB1C4422EA58
:1017C000074C05FB07F206FB07F70CFB06F605FBCB
:1017D0000CFC16EB074642EB174216EB0C4642EBAD
:1017E0001C456A1854F1000148BF7047B6195241B0
:1017F00041EB0101A3F10103704795F0000F37D0D1
:101800004FEA11424FEA144721EA024624EA074C04
:1018100002FB07F106FB07F70CFB06F402FB0CFCCE
:1018200014EB074441EB17414FEA154714EB0C4406
:1018300041EB1C4125EA074C02FB07F506FB07F7C5
:101840000CFB06F602FB0CFC16EB074645EB1745B6
:1018500016EB0C4645EB1C42121951F1000148BF32
:101860007047B619524141EB0101A3F101037047E2
:101870004FEA14454FEA114724EA054621EA074C8E
:1018800005FB07F106FB07F70CFB06F24FF000061D
:1018900005FB0CFC12EB074241EB174112EB0C422B
:1018A00051EB1C4148BF7047921841EB0101A3F175
:1018B000010370470000000021B1826842F001027C
:1018C000826003E0826822F00102826070470000BB
:1018D00010B504461248844208D10121401506F093
:1018E0002BFD0021601506F027FD17E00D4884420E
:1018F00008D10121001506F01FFD0021201506F07A
:101900001BFD0BE00848844208D10121C80306F002
:1019100013FD00214FF4004006F00EFD10BD000045
:101920000024014000280140003C01400146002005
:101930008A6802F004020AB1012000E0002070472A
:101940000146C86C80B270470246002013680B4005
:101950000BB1012000E000207047014600208A689A
:1019600002F008020AB1012000E0002070470000E8
:1019700030B502460020002350680F4C20400D79FE
:101980000C6844EA05242043506090680B4C2040CA
:10199000D1E902542C434D7944EA45042043906038
:1019A000D06A20F470000C7C641EE4B2234340EA49
:1019B0000350D06230BD0000FFFEF0FFFDF7F1FFE5
:1019C000F0B504460D4600200021092D11DDE06828
:1019D000A5F10A0606EB4607072606FA07F1884333
:1019E000A5F10A0606EB460603FA06F10843E06095
:1019F0000CE0206905EB4507072606FA07F1884346
:101A000005EB450603FA06F108432061072A0FDAC1
:101A1000606B561E06EB86071F2606FA07F1884301
:101A2000561E06EB860605FA06F10843606322E0BF
:101A30000D2A0FDA206BD61F06EB86071F2606FA43
:101A400007F18843D61F06EB860605FA06F1084320
:101A5000206310E0E06AA2F10D0606EB86071F2660
:101A600006FA07F18843A2F10D0606EB860605FA91
:101A700006F10843E062F0BD816841F00801816031
:101A8000704721B1826842F4A002826003E082685C
:101A900022F4A00282607047816841F004018160F5
:101AA000704710B502460B460020002104E0545C4C
:101AB0000444A0B24C1CE1B29942F8DB10BD10B551
:101AC00002460B460020002104E0545C0444E0B2CE
:101AD0004C1CE1B29942F8DB10BD00002DE9F04F3B
:101AE0009BB081460D4616461F46DDF890A04FF08C
:101AF000640B4FF000082CE04846FEF73AFE0190D8
:101B00001648426948460199904714200BF004FF9B
:101B100012488269642102A8904750460BF0FCFEEF
:101B200014200BF0F9FE00240DE0335D55F824205D
:101B3000642102A80BF0ADFE18B101201BB0BDE876
:101B4000F08F601CC4B2022CEFDB08F1010000F042
:101B5000FF08B845D0DB0020F0E70000C8660108A8
:101B600010B509F0A3FE0AF0BBF910BD00BFFEE7F7
:101B700070B53648407802281ED13548006800F01C
:101B8000100058B110203249086032480068B0B1E6
:101B90003048062102680120904710E02C48006878
:101BA00000F0030058B12B48006840B129480221D9
:101BB00002680120904702E020202549086024485F
:101BC00008300468001F056804F0040088B905F4B3
:101BD000806070B91E48001D006840F480601C4998
:101BE000091D08601C48006818B11B4801680320E3
:101BF000884704F0020088B905F4007070B91448F1
:101C0000001D006840F400701149091D0860124869
:101C1000006818B1104801680120884704F00100ED
:101C200090B905F4807078B9C4F307405F280BD2EF
:101C30005F20B0EB146F07D10548001D006840F429
:101C400080700349091D086070BD000086030020F4
:101C500010640040900300208C03002070B52248DF
:101C6000006800283FD021480468001F0568042050
:101C70001E491439086004F0040078B105F480604E
:101C800060B11A48001F006820F480601749091FDE
:101C90000860154801680420884724E004F0020029
:101CA00078B105F4007060B11048001F006820F49E
:101CB00000700E49091F08600B480168032088471F
:101CC00011E004F0010070B105F4807058B10748CC
:101CD000001F006820F480700449091F0860024852
:101CE00001680220884770BD8C0300201864004002
:101CF00070B505460C46284606F052FB064626EA15
:101D00000401284609F0B0FB70BD00000EB500BF0D
:101D100000BF0027B84600240026012284498548D8
:101D200007F06BF8824800780A280AD080480078CB
:101D30000B2806D07E4800780C2802D00B207C4966
:101D400008704FF4FA700BF0E7FD00BF7A480068A6
:101D50000BF064FE0446002CF8D00A202070744872
:101D60000078607064222146744800680BF04AFED7
:101D700000BF6421724800680BF038FE8DE8070050
:101D80000098102816D1019EB0786E498870F078BE
:101D9000C870084680786C4988706A48C078C870F6
:101DA00000BF3146644800680BF068FE0546002D10
:101DB000F7D100266548006878B902E014200BF0DE
:101DC000ABFD624800680028F8D05E48807808B90A
:101DD000012000E000205B4988705A48807828B1D3
:101DE0005848C07810B901205649C870504800784A
:101DF0000A2803D04E4800780C2809D15148807831
:101E000018B164204F49C87002E000204D49C870E5
:101E10004C48807810B900204A49C8704A488078F8
:101E20004849897888422BD046488078464988704E
:101E300044488078012811D10121454807F01BFA58
:101E400014204049C87001204049603108600021D9
:101E500040480BF047FE404908600EE000213C4836
:101E600007F009FA00203749C8700120374960316E
:101E70000860394800680BF057FE14200BF04CFD49
:101E8000142F02DA781CC7B202E000274FF00108D5
:101E9000324880782B498978884205D12F48C0780C
:101EA0002849C978884229D0264880782B498870EB
:101EB0002448C078C87001202949087021488078DA
:101EC000284908701F48C078487000BF1A48006849
:101ED0000BF0A4FD0446002CF8D00B202070144811
:101EE0000078607017488078A0701648C078E0705D
:101EF00064222146114800680BF084FDB8F1000F00
:101F00000BD04FF000080120154908700D4880786B
:101F1000144908700B48C07848700A48C0784100DE
:101F20004FF0804007F025FA0A200BF0F5FC20E77F
:101F3000AC01002010C00308C8010020D40100201B
:101F4000D0010020AD010020B101002038812142E4
:101F5000002C014044630108C4010020B5010020A9
:101F6000B8020020004C002000BF00BF2B480068D2
:101F70002B49D1F83411484088B9284800684006F8
:101F8000000E284908702648D0F83401C0B20978FC
:101F900008432449087000202349087013E02248B0
:101FA000007880B90120204908701C48006828B1D9
:101FB0001E480078401C1D49087004E01C48007849
:101FC000401C1B4908701948007801280BDD0020CF
:101FD000164908701748C078002804DD1548C078F5
:101FE000401E1449C8701248007801280BDD0020FB
:101FF0000F4908700F48C078642804DA0D48C0788B
:10200000401C0C49C8700B48C07841000A4807F0D2
:10201000B2F90A200BF080FCA8E7000030812142D1
:1020200000802142E1010020E0010020E2010020C7
:10203000E3010020AD010020002C014070470000AA
:1020400010B50548006800F00F04034844602046BE
:10205000FFF7F4FF10BD00000000024070470000D1
:1020600010B505480068C0F3031420010249486018
:102070002046FFF7F3FF10BD00000240704700004C
:1020800010B505480068C0F30324200202494860E7
:102090002046FFF7F3FF10BD00000240704700002C
:1020A00010B505480068C0F30334200302494860B6
:1020B0002046FFF7F3FF10BD00000240704700000C
:1020C00010B505480068C0F3034420040249486085
:1020D0002046FFF7F3FF10BD0000024070470000EC
:1020E00010B505480068C0F3035420050249486054
:1020F0002046FFF7F3FF10BD0000024070470000CC
:1021000010B505480068C0F3036420060249486022
:102110002046FFF7F3FF10BD0000024070470000AB
:1021200010B50548006800F00F040348001D046066
:102130002046FFF7F3FF10BD000402407047000087
:1021400010B506480068C0F3031420010349091DB7
:1021500008602046FFF7F2FF10BD000000040240B7
:102160007047000010B506480068C0F30324200241
:102170000349091D08602046FFF7F2FF10BD00006B
:102180000004024010B50C480068C0F3033434B1B9
:1021900020030949091D0860204600F00FF8064891
:1021A0000068C0F3034434B120040349091D0860EA
:1021B000204600F004F810BD00040240704770474C
:1021C000704700002DE9F0414D48007881287BD10F
:1021D0000225C82646F2A81740F6B8380024002089
:1021E00048490870484908704848007800287CD061
:1021F000402000F0B9F8012877D10020414908704B
:10220000414908704FF4FF714148FEF750FB4FF40D
:10221000FF714048FEF74BFB62E03F48006850BB4F
:1022200005F0BAFA044640F6B83084421ADD354863
:102230000078C82816DD3348007842003549374811
:10224000FEF7B6FA30480078420031493448FEF7CC
:10225000AFFA2C480078334908702B48007832498F
:1022600008703EE0274801780078401C254A10702D
:10227000284820F811402848006838B300F0ECFDE9
:10228000044646F2A810844207DC40F6B830844287
:102290001DDD1D480078C82819DD1A480078420065
:1022A0001C491E48FEF784FA174800784200184976
:1022B0001B48FEF77DFA134800781A490870124847
:1022C0000078194908700CE010E00EE008E00E48B4
:1022D00001780078401C0C4A10700D4820F811401D
:1022E0009BE700BF00200949087000E000BF00BF65
:1022F000402000F021F8402000F018F8BDE8F081FF
:102300000C0000201600002015000020A401002071
:10231000E8030020E605002018012242761900207B
:1023200078170020A6010020A501002001490860BF
:102330007047000014040140014908607047000024
:1023400014040140002006490860091D0860091DA9
:102350000860091D0860034801491431086070478E
:1023600000040140FFFF0F00014600200022074B40
:102370001B6803EA0102054B14331B680B4013B1C1
:102380000AB1012000E00020704700000004014075
:10239000002123498279002A3AD00A46126803684C
:1023A0009A430B461A600A1D126803689A430B1D74
:1023B0001A60027911440A6803681A430A60184ACD
:1023C0000832126803689A43154B08331A601A1DC5
:1023D000126803689A43124B0C331A604279102A30
:1023E0000ED11A1F126803681A430D4B08331A6086
:1023F0001A1D126803681A43094B0C331A600DE06A
:102400000749427911440A6803681A430A6005E0E3
:10241000027911440A6803689A430A607047000011
:102420000004014010B516480078F8B915480BF0C3
:102430000FFB15490860002114480BF0C1FA14493C
:102440000860002113480BF0BBFA13490860002113
:1024500012480BF0B5FA12490860002111480BF040
:10246000AFFA1149086001200549087009F046FEDD
:102470000BF044FF0AF0A0FC09F058FD10BD00006D
:102480002C0000209820010818000020A42001083A
:102490001C000020AC20010820000020B42001080E
:1024A00024000020BC2001082800002010B501F005
:1024B000BBFE0020364908603649C1F8A001364904
:1024C0000860091D08600120091D08603049091DC8
:1024D00008603149083908602E49C1F898010A207E
:1024E00009F00CFD40212D4800F06AFC00B90124E0
:1024F00080212A4800F064FC00B902248021284889
:1025000000F05EFC00B903244FF40061234800F0A2
:1025100057FC00B9042401F053FE01201C49086057
:102520001C49C1F8A0011C490860091D0860002071
:10253000091D08601649091D086017490839086017
:102540001449C1F898010A2009F0D8FC4021144828
:1025500000F036FC00B9E4B24FF480710F4800F08F
:102560002FFC08B9201DC4B24FF400710B4800F0D5
:1025700027FC10B904F10800C4B24FF48061074889
:1025800000F01EFC10B904F10C00C4B2204610BDCE
:102590009801224200802142A4812142000C014086
:1025A0000010014010B501F03FFE002020490860F6
:1025B0002049C1F8A00120490860091D08600120D8
:1025C000091D08601A49091D08601B49083908607F
:1025D0001849C1F898010A2009F090FC40211748D9
:1025E00000F0EEFB08B9012400E00024802113482C
:1025F00000F0E6FB08B9012000E000200443802140
:102600000F4800F0DDFB08B9012000E00020044382
:102610004FF40061094800F0D3FB08B9012000E045
:102620000020044314B1FFF741FF10BDFF20FCE779
:102630009801224200802142A4812142000C0140E5
:102640000010014070B57825FFF7ACFF044617482D
:102650000078844215D0002015490870154800788C
:1026600010B1002013490870FF2C06D00A200BF08F
:1026700053F90E480470204670BDFF200B490870C6
:1026800011E00A4800780F280DD109480078782811
:1026900004DD012007490870D120EDE704480078E7
:1026A000401C03490870FF20E6E7000048000020B6
:1026B0004A000020490000207FB50F2615A30FCB4C
:1026C0008DE80F00FFF7BEFF054605F0F000D028AB
:1026D0000AD11448007828B9012012490870284608
:1026E00004B070BDFF20FBE70E48007820B1002049
:1026F0000C490870FE20F3E7002407E01DF80400F1
:10270000A84201D12046EBE7601CC4B20F2CF5DBD8
:10271000FF20E5E70504080C03070B02060A010D7C
:10272000100F0E004B00002010B5084800680BF099
:10273000FBF9074800680BF0F7F9064800680BF052
:10274000F3F9054800680BF0EFF910BD30000020E8
:102750003800002044000020500000207047000096
:102760002DE9F041054688461746002428191749E7
:1027700009880180A41C2819154909680160241DD5
:1027800001222146641C6A54B81C86B232122146CA
:10279000641C6A542146641C6E5428193A4641460A
:1027A000FEF706F8E01984B2A01FC1B2A81DFFF71A
:1027B00078F9064632122046611C8CB22A54204613
:1027C000611C8CB22E542046BDE8F081D620010851
:1027D000D920010830B5044604254FF4302000F01C
:1027E0006FF80546042D17D10C48006940F002002F
:1027F0000A49086108464461006940F040000861E8
:102800004FF4302000F05CF805460448006941F6BA
:10281000FD71084001490861284630BD0020024092
:1028200004200B49C96801F0010109B101200EE043
:102830000749C96801F0040109B1022007E0044911
:10284000C96801F0100109B1032000E004207047BD
:10285000002002400348006940F0800001490861FF
:10286000704700000020024070B504460D46042663
:10287000F00200F025F80646042E11D1094800693F
:1028800040F00100074908612580F00200F018F8C7
:1028900006460448006941F6FE7108400149086196
:1028A000304670BD0020024002480349486003489A
:1028B000486070472301674500200240AB89EFCD97
:1028C00000B502460423FFF7ABFF034603E0FFF722
:1028D000A7FF0346521E012B01D1002AF7D102B9EE
:1028E0000523184600BD000018B5002844D0C0F3E9
:1028F0004211C0F30322214B9B6903F001032BB962
:102900001E4B9B6943F001031C4CA36100F48053F0
:10291000A3B11B4BDB69009300F01F0301FA03F323
:10292000009C9C43009400F01F0302FA03F3009CF8
:1029300023430093124C009BE3611DE0104B5B6846
:10294000009300F01F0301FA03F3009C9C430094E2
:1029500000F01F0302FA03F3009C234300930721B6
:102960000022009B23EA01630093009B43EA026379
:102970000093034C009B636018BD000000100240F0
:102980000000014030B500228B071C0F0F2303FA13
:1029900004F20B4B8C1053F824309343084C8D10E9
:1029A00044F8253023468C1053F824308C07240F2C
:1029B00000FA04F42343024C8D1044F8253030BD56
:1029C0000800014001461D48814204D11C4880692D
:1029D000C0F3800070471B48814204D118488069C9
:1029E000C0F3C000F6E71848814204D1144880695A
:1029F000C0F30010EEE71548814204D11048806909
:102A0000C0F34010E6E71248814204D10C488069C7
:102A1000C0F38010DEE70F48814204D10848806986
:102A2000C0F3C010D6E70C48814204D10448806945
:102A3000C0F30020CEE70020CCE7000000080140F2
:102A400000100240000C0140001001400014014041
:102A500000180140001C0140002001402DE9F04118
:102A6000024600250026002000230024002791F8BC
:102A700003C00CF00F0591F803C00CF0100CBCF172
:102A8000000F03D091F802C04CEA050591F800C090
:102A9000BCF1000F31D0146800202BE04FF0010C86
:102AA0000CFA00F3B1F800C00CEA03069E4220D1F4
:102AB00083004FF00F0C0CFA03F7BC4305FA03FC3C
:102AC0004CEA040491F803C0BCF1280F06D14FF082
:102AD000010C0CFA00FCC2F814C00AE091F803C023
:102AE000BCF1480F05D14FF0010C0CFA00FCC2F804
:102AF00010C0401C0828D1D31460B1F800C0BCF14C
:102B0000FF0F34DD546800202EE000F1080C4FF078
:102B1000010808FA0CF3B1F800C00CEA03069E4263
:102B200021D183004FF00F0C0CFA03F7BC4305FAD8
:102B300003FC4CEA040491F803C0BCF1280F05D152
:102B400000F1080C08FA0CF8C2F8148091F803C0E0
:102B5000BCF1480F07D100F1080C4FF0010808FA4A
:102B60000CF8C2F81080401C0828CED35460BDE891
:102B7000F0812DE9F04105460C46174698460F2C8A
:102B800002D90020BDE8F0812846FFF71BFF18B9E5
:102B90000121284600F072F8B8F1000F10D1022F81
:102BA00005D1E8680121A1408843E86008E0032FCF
:102BB00006D127F00107E8680121A1400843E86039
:102BC000082C01D22E4601E0083C2E1D3068A200E0
:102BD0000F2191408843306048EA8700A100884077
:102BE0003168084330600120CCE70000F0B50A46A8
:102BF000002300240021002500F00046B6F1004F1C
:102C000002D11D4EF16901E01B4E7168C0F303450E
:102C100083B200F44016B6F5401F08D121F0706170
:102C2000154E766826F07066134F7E6012E000F451
:102C30008016B6F5801F06D1032606FA05F4A143D7
:102C400041F0706106E0460D360103FA06F6B14325
:102C500041F0706122B1460D360103FA06F63143A8
:102C600000F00046B6F1004F02D1034EF16101E0E1
:102C7000014E7160F0BD000000000140002945D008
:102C8000454A904206D1454A926942F00402434BBC
:102C90009A6180E0424A904206D1404A926942F0ED
:102CA00008023E4B9A6176E03E4A904206D13B4A8A
:102CB000926942F01002394B9A616CE03A4A9042B4
:102CC00006D1364A926942F02002344B9A6162E0A2
:102CD000364A904206D1314A926942F040022F4B67
:102CE0009A6158E0324A904206D12C4A926942F0E9
:102CF00080022A4B9A614EE02E4A90424BD1274ADD
:102D0000926942F48072254B9A6144E0224A9042D3
:102D100006D1224A926922F00402204B9A613AE0DD
:102D20001F4A904206D11D4A926922F008021B4BAD
:102D30009A6130E01B4A904206D1184A926922F00B
:102D40001002164B9A6126E0174A904206D1134AA8
:102D5000926922F02002114B9A611CE0134A9042C2
:102D600006D10E4A926922F040020C4B9A6112E0A1
:102D70000F4A904206D1094A926922F08002074B1D
:102D80009A6108E00B4A904205D1044A926922F404
:102D90008072024B9A6170470008014000100240A7
:102DA000000C0140001001400014014000180140D7
:102DB000001C0140002001400146886880B2704735
:102DC0000246002093680B400BB1012000E0002078
:102DD00070474161704701617047000010B50446BB
:102DE0000723012221460948FEF7EAFD0121074891
:102DF000FEF747FE00BF02210448FEF7A5FD0028AC
:102E0000F9D00248FEF79CFD10BD000000240140EF
:102E10002DE9F04780460D4600240026A1460027F4
:102E200014E04046FFF7DAFF4FF47A7148437B2104
:102E300090FBF1F63446A14501D9484600E0204612
:102E4000814602200AF068FD781CC7B2AF42E8DB79
:102E5000B4FBF5F0BDE8F08770B5002447F23055BB
:102E60000AE0601C84B2022009F048F847F23050B2
:102E7000844201DB204670BD024800680028F0D182
:102E80002046F8E71801224200BFFEE770B504466D
:102E90000D46034A2946204600F086F870BD000022
:102EA0007067010810B5024800F074FA10BD000008
:102EB0007067010810B5024800F0FDFA10BD00006F
:102EC0007067010810B5024800F0BBFD10BD00009E
:102ED0007067010808B5024800F0B7FD009008BD12
:102EE0007067010810B504460249204600F0B1FDA4
:102EF00010BD000070670108F8B504460D4616467F
:102F00001F4604483B46324629460090204600F0C2
:102F1000CCFDF8BD70670108F8B504460D461646AD
:102F20001F4604483B46324629460090204600F0A2
:102F30002DFEF8BD7067010810B504460249204611
:102F400000F08EFE10BD00007067010870B50446E9
:102F50000D46034A2946204600F030FF70BD0000B0
:102F60007067010870B504460D46034A294620469D
:102F700000F05CFF70BD00007067010810B50248EA
:102F800000F086FF10BD000070670108014800686E
:102F9000704700006C67010808B50248006800909F
:102FA00008BD0000686701082DE9F74F0F46144679
:102FB000606A007E00F0020018B94FF0FF30BDE8F3
:102FC000FE8F0098012806D0022825D003286ED055
:102FD00004286DD175E107F4004030B12068008805
:102FE00040F040002168088005E02068008820F05B
:102FF00040002168088040F2FF3000EA470040F4BA
:10300000804007F4806111B14FF4004100E00021DD
:10301000084321680881A6E1D44D012F02D0022F78
:1030200042D116E0D248854202D96FF00300C6E7CC
:10303000D048854202D26FF00300C0E7CE48B5FB0E
:10304000F0F04FEA5008CD48B5FBF0F000F1010B6D
:103050002FE0C748854202D96FF00300AFE7C848A8
:10306000854202D26FF00300A9E7C64885420DD31E
:10307000B5FBF0F100FB115040B9C348B5FBF0F0CF
:103080001921B0FBF1F040F4404807E0BE48B5FB21
:10309000F0F00321B0FBF1F040F40048BB48B5FB71
:1030A000F0F000F1010B04E06FF0030087E728E087
:1030B00056E100BF2068008820F0010021680880E8
:1030C0002068808820F03F0021688880AB48B5FBED
:1030D000F0F0216889880843216888802168A1F878
:1030E0001C802168A1F820B02068008840F0010011
:1030F000216808802068008840F48060216808808A
:1031000031E12068008820F001002168088006F085
:103110001BF89F4800689849B0FBF1F08508A18A28
:103120000122E0681AB101238B40036107E001F13D
:1031300010034FF0010C0CFA03FCC0F810C000BFE4
:10314000E18A012220691AB101238B40036107E063
:1031500001F110034FF0010C0CFA03FCC0F810C091
:1031600000BFA18A03230122E068FFF702FDE18A84
:10317000032301222069FFF7FCFC4FF0000A36E030
:10318000E18A20698268CA4002F0010202B131E09E
:10319000A18A0122E0681AB101238B40036107E094
:1031A00001F110034FF0010C0CFA03FCC0F810C041
:1031B00000BF002600E0761CAE42FCD3A18A0022AC
:1031C000E0681AB101238B40036107E001F11003AD
:1031D0004FF0010C0CFA03FCC0F810C000BF002631
:1031E00000E0761CAE42FCD30AF101008246BAF13F
:1031F000090FC5D300BFE18A20698268CA4002F086
:10320000010900BFE18A002220691AB101238B4025
:10321000036107E001F110034FF0010C0CFA03FC0D
:10322000C0F810C000BF002600E0761CAE42FCD300
:10323000A18A0122E0681AB101238B40036107E0F3
:1032400001F110034FF0010C0CFA03FCC0F810C0A0
:1032500000BF002600E0761CAE42FCD3E18A0122CA
:1032600020691AB101238B40036107E001F11003CB
:103270004FF0010C0CFA03FCC0F810C000BFA18A8B
:1032800003231A46E068FFF774FCE18A03231A4619
:103290002069FFF76EFC2068008840F0010021687B
:1032A0000880606A006820B1606A01684FF480702D
:1032B0008847B9F1000F01D0002080E64FF0FF30C1
:1032C0007DE62068808820F460602168888020681E
:1032D000008840F40070216808800020616A8860DE
:1032E0000021606AC160606A0161606A8182606A0F
:1032F0008175606A406820F00100616A4860606A18
:10330000406820F00200616A4860606A406820F00E
:103310000400616A4860606A406820F00800616AE1
:103320004860606A406820F01000616A4860606A26
:10333000406820F02000616A48602068008820F022
:103340000100216808802068008840F001002168A1
:1033500008802068008840F480602168088002E0CE
:103360004FF0FF302BE600BF002028E60051250279
:1033700080DE800280841E00A086010040420F0093
:1033800000093D0080969800801A06001516050079
:10339000940300202DE9F04104462068868A002726
:1033A000002506F4004008B145F4004506F48040CD
:1033B00008B145F4804506F4805008B145F48055C5
:1033C00006F4006008B145F4006506F4806000B3BF
:1033D00045F480652068008840F40070216808800A
:1033E000606A406820F00100616A4860606A406875
:1033F00020F00200616A48600021606A0161606A31
:1034000081750127606A807D00F0040008B947F0EB
:10341000100706F40070D0B145F40075606A40688A
:1034200020F00100616A4860606A406820F0020094
:10343000616A4860606A406820F010001030616A7C
:1034400048600021606A0161606A8175412706F465
:103450008070C8B145F48075606A406820F0200033
:103460002030616A4860606A4068C0F3400050B92B
:10347000606A406820F00100616A48600021606A6B
:103480000161606A817581272068808AA84321686C
:10349000888277B1606A006858B1606AC068616A02
:1034A0008968884201D247F00207606A016838469D
:1034B0008847BDE8F0812DE9F0470446606A00F1D5
:1034C00008052068878A07F00100C0B1A88900F4C8
:1034D000806030B1A889062101EAE01040F0F008D0
:1034E00009E0287B40064FEA1068606A4068C0F334
:1034F000800040EA08082068A0F810809FE207F0EA
:10350000080068B1287B21680882606A4068C0F3BF
:1035100080000028F2D0A87B40F00200A8738EE261
:1035200007F00200002869D0A87B00F00400D0B1A9
:10353000606A406820F00100616A48600126D5E9B0
:103540000010884201D246F00206606A4068C0F36B
:10355000C00008B146F02006606A006818B1606AD1
:10356000016830468847606A4068C0F34000002820
:103570004DD0606A4068C0F38000F0B3286801282D
:1035800005D12068008820F48060216808802068C8
:10359000808A2068008BA87B00F0020050B1A87BD5
:1035A00020F00200A8732068008840F48070216831
:1035B00008807BE0286801280BD1A87B00F001007F
:1035C000002873D12068008840F4007021680880CA
:1035D0006CE02868022812D12068008820F48060FE
:1035E000216808802068008840F400602168088015
:1035F000A87B40F01000A87358E008E06CE0286851
:10360000032853D1A87B40F01000A8734EE0206837
:10361000B0F81890606A4068C0F34000E8BB09F059
:10362000100038B1606A406820F008000830616A14
:10363000486005E0606A406820F00800616A486000
:1036400009F0040030B1606A406820F00400616A4B
:10365000486006E0606A406820F00400001D616A6E
:1036600048600026A86848B9606A4068C0F38000D6
:1036700010B146F0080601E046F00406606A4068B2
:10368000C0F3C00008B146F0200646B1606A006889
:1036900028B1606A0168304600E007E08847606A48
:1036A000406820F00100401C616A4860A87B40F03F
:1036B0002400A873606840B1A06830B12068808899
:1036C00040F4006021688880B9E12068808840F477
:1036D000806021688880B2E107F0100028B30020E4
:1036E000A860A8732068008840F480602168088082
:1036F000606A406820F00100616A48600126D5E9EF
:103700000010884201D246F00206606A4068C0F3A9
:10371000C00008B146F02006606A00680028D3D0D7
:10372000606A01683046884789E1A87B00F0200084
:103730000028C9D0A87B00F0080090B3606A4068F8
:10374000C0F340000028BFD0606A807D00F0010017
:1037500030B12068808820F400702168888005E0FE
:103760002068008840F40070216808800020A8606C
:10377000A87B20F02000A873606A406820F0010058
:10378000616A4860606A406820F00200616A4860CF
:10379000606A0068002897D0606A01680120884745
:1037A0004DE1FFE707F08000002870D0606A4068B4
:1037B000C0F34000C8B3A87B00F01000B0B307F01E
:1037C0000400002887D02068808820F48060216869
:1037D0008880A87B00F0010030B12068808820F448
:1037E00000702168888005E02068008840F400703F
:1037F000216808800020A860A87B20F02000A87322
:10380000606A406820F00100616A4860606A406850
:1038100020F00200616A4860606A00680028BFD03A
:10382000606A01680120884709E111E0FFE7D5E9F6
:103830000110405C216808826868401C6860D5E916
:1038400000108842ACD1A87B40F01000A873F6E0CD
:10385000A86830B9606A006818B1606A016804201D
:103860008847A86870B1D5E90110405C21680882DA
:103870006868401C6860D5E90010884290D100203B
:10388000A860DCE0FF2021680882D8E0FFE707F0AD
:103890004000002884D0606A4068C0F340000028DF
:1038A0007DD0A87B00F01000E8B307F004000028EA
:1038B000BAD02868022804D0D5E90001801E8142D0
:1038C00048D12068808820F4806021688880A87BA7
:1038D00000F0010030B12068808820F40070216879
:1038E000888005E02068008840F400702168088026
:1038F0002068008AC1B26A68501C6860A868815458
:103900002068008AC1B26A68501C6860A868815447
:103910000020A860A87B20F02000A873606A40689F
:1039200020F0010000E024E0616A4860606A4068BD
:1039300020F00200616A48602068008820F400607E
:1039400021680880606A006850B3606A01680120DD
:10395000884774E02068008820F48060216808802F
:103960002068008AC1B26A68501C6860A8688154E7
:1039700065E02068008AC1B26A68501C6860A86867
:103980008154286801282CD12068808820F4806028
:1039900021688880A87B00F0010040B101E030E0A0
:1039A0003BE02068808820F4007021688880002037
:1039B000A860A87B20F02000A873606A406820F00F
:1039C0000100616A4860606A406820F00200616A34
:1039D0004860606A006800B3606A01680120884737
:1039E0002DE0D5E90001C01E814228D120688088E1
:1039F00020F4806021688880A87B40F01000A873C4
:103A00001DE02068008A00F0FF08A86830B920682F
:103A1000008820F480602168088010E0D5E900105B
:103A200088420CD2D5E9011000F801806868401C7A
:103A30006860D5E90010884201D10020A860BDE887
:103A4000F0870146486AC06870470146486A406886
:103A5000704770B505460C46606A007E00F00100B4
:103A600008B1002070BD208BFEF73EFF0121E06809
:103A7000FFF704F9A18A03231A46E068FFF779F8F3
:103A800001212069FFF7FAF8E18A03231A46206929
:103A9000FFF76FF81C21606AFCF72BFF606A056076
:103AA0000120616A08760020DCE770B50546049CB9
:103AB00001B112B96FF0040070BD25F40440B0F5F7
:103AC000806F02D36FF00400F6E7606A406800F090
:103AD000010010B16FF00100EEE7606A807D00F038
:103AE000010030B900BF2068008B00F00200002800
:103AF000F9D1606A406820F00100401C666A70607D
:103B0000606A406820F00200801C666A7060606A2B
:103B1000406820F00400001D666A7060606A4068BA
:103B200020F02000666A7060606A406820F0100033
:103B3000666A7060606A82600026606AC660606A59
:103B40000161606A8582606A86752BB1606A807DDA
:103B500040F00106606A86752068008840F4806045
:103B6000266830802068808820F400702668B08045
:103B70002068008840F48070266830802068808843
:103B800040F400702668B080002095E770B50546C7
:103B9000049C01B112B96FF0040070BD25F404401B
:103BA000B0F5806F02D36FF00400F6E7606A4068FA
:103BB00000F0010010B16FF00100EEE7606A807D57
:103BC00000F0010030B900BF2068008B00F0020057
:103BD0000028F9D1606A406820F00100401C666A44
:103BE0007060606A406820F00200801C666A706045
:103BF000606A406820F00400666A7060606A40682D
:103C000020F02000666A7060606A406820F0100052
:103C1000666A7060606A82600026606AC660606A78
:103C20000161606A8582606A86752BB1606A807DF9
:103C300040F00106606A86752068808820F4007074
:103C40002668B0802068008840F480702668308044
:103C50002068808840F400702668B08000209CE7CF
:103C600070B505460C4625B1012D44D0022D41D139
:103C700044E05148C069216A08434F49C8610020A7
:103C80002168088094F91C0007F02AFC94F91D00B3
:103C900007F026FC4848C069216A88434649C86144
:103CA000606A406820F00100616A4860606A4068AC
:103CB00020F00200616A4860606A406820F00400F9
:103CC000616A4860606A406820F00800616A486084
:103CD000606A406820F01000616A4860606A40686D
:103CE00020F02000616A4860606A007E20F00200D7
:103CF000616A08765CE06FF0030070BD606A007E68
:103D000000F0010010B94FF0FF30F6E7606A007E66
:103D100000F0020008B10020EFE72748C069216ADF
:103D200008432549C86194F91C0007F0CBFB94F9BE
:103D30001D0007F0C7FB94F91C0007F0EFFB94F996
:103D40001D0007F0EBFB1C480069216A08431A4973
:103D5000086100BF00BF00BF00BF17480069216AAB
:103D60008843154908612068808840F440702168C4
:103D700088802068808820F480602168888020689E
:103D8000008820F08000216808802068008840F0CA
:103D90000100216808802068008840F48060216864
:103DA0000880606A007E40F00200616A087600BF09
:103DB00000BF0020A1E700000010024010B503463C
:103DC00003B111B96FF0040010BD506A406800F0F3
:103DD000010010B16FF00100F6E7506A406820F072
:103DE0002000546A6060506A406820F00800546AFD
:103DF0006060506A81600024506AC460506A036148
:103E0000506A84751068808840F480501468A080DF
:103E10001068008840F480601468208010688088F2
:103E200040F400701468A0800020CDE710B5034670
:103E300003B111B96FF0040010BD506A406800F082
:103E4000010010B16FF00100F6E7506A406820F001
:103E50002000546A6060506A406820F00800546A8C
:103E60006060506A81600024506AC460506A0361D7
:103E7000506A84751068008840F48060146820805F
:103E80001068808840F400701468A0800020D3E798
:103E900010B50446A18A02230022E068FEF769FEFD
:103EA000E18A022300222069FEF763FE2120FEF74B
:103EB0001BFD0020616A087610BD00002DE9F04767
:103EC00006468A4615461F4640F6B83900202D4959
:103ED000086000244FE035F8140040F6B8318842FD
:103EE0000DDA35F81400092190FBF1F035F81410C3
:103EF00008440A2190FBF1F01FFA80F80DE035F834
:103F00001400092190FBF1F035F8141008440A213F
:103F100090FBF1F014301FFA80F80CE001201949F1
:103F20000860082007F0EAFF00201749C1F8BC012B
:103F3000102007F0E3FFB8F10000A8F101011FFA1B
:103F400081F8EBD10F49086036F81400142190FB7A
:103F5000F1F036F8141008441FFA80F802E002204D
:103F600007F0CCFFB8F10000A8F101011FFA81F8B9
:103F7000F5D1601CC4B2BC42ADDB00200149086031
:103F8000BDE8F087BC8121420080214210B50024A9
:103F900000F074F82548006800B901242348001D8A
:103FA000006800B9022421480830006800B90324E1
:103FB00000F09CF81E48006800B9E4B21C48001DDF
:103FC000006808B9E01CC4B219481030006808B98C
:103FD000A01DC4B216481430006810B904F10900DD
:103FE000C4B20D2C1CD2DFE804F01B07090B0D0F27
:103FF000111B131B15171900012413E0032411E0F2
:1040000002240FE004240DE005240BE0062409E05F
:10401000072407E0082405E0092403E00A2401E05E
:10402000002400BF00BF204610BD000020812142B7
:104030000001214210B500F021F80A2007F05EFFD0
:104040000D48006808B9012000E000200A49091D58
:10405000096809B9012100E0002108430649083137
:10406000096809B9012100E00021084310B1FFF7F8
:104070008DFF10BD0020FCE72081214208B5012101
:104080000C2004F049F93320ADF8000003208DF82E
:10409000020010208DF8030069461048FEF7DEFC90
:1040A0004FF4E060ADF8000048208DF80300694649
:1040B0000B48FEF7D3FC00200A490860091F08607E
:1040C000084910390860091F086001200649086086
:1040D000091F0860091F086008BD000000080140B2
:1040E000000C0140940121422881214208B50121A0
:1040F0000C2004F011F93320ADF8000003208DF8F6
:10410000020048208DF8030069461048FEF7A6FC1F
:104110004FF4E060ADF8000010208DF80300694610
:104120000B48FEF79BFC01200A490860091F086044
:10413000084910390860091F086000200649086016
:10414000091F0860091F086008BD00000008014041
:10415000000C014014012142A881214210B50446FF
:104160000F4901EB440001220E4904F05BFE0E49A9
:1041700001EB440001220D4904F054FE0C4901EB0F
:10418000042008490A780B4904F04CFE0A4901EB67
:10419000042006490A78094904F044FE10BD0000D5
:1041A00000F30308A501002000F10308A601002088
:1041B00000D003087817002000E0030876190020DB
:1041C00008B50121182004F0A7F84FF4E060ADF81D
:1041D000000048208DF8030003208DF80200694696
:1041E0000F48FEF73BFC4020ADF8000069460D4843
:1041F000FEF734FC4FF40C60ADF8000010208DF891
:10420000030003208DF8020069460548FEF726FCEE
:104210008020ADF8000069460248FEF71FFC08BD8B
:10422000000C01400010014008B50121182004F0E5
:1042300073F84FF4E060ADF8000010208DF8030033
:1042400003208DF8020069460F48FEF707FC402066
:10425000ADF8000069460D48FEF700FC4FF40C6015
:10426000ADF8000048208DF8030003208DF802000F
:1042700069460548FEF7F2FB8020ADF8000069466C
:104280000248FEF7EBFB08BD000C014000100140A6
:1042900010B502F087FE0021024809F023FC024914
:1042A000086010BD6824010844010020ACB0002063
:1042B00002F04AFF01200C21FEA20023CDE90021DB
:1042C00002904AF251620321462004F0B5FE01201B
:1042D0000C21FBA20023CDE9002102904FF6E072F1
:1042E00004217B2004F0A8FE01200C21F5A200236C
:1042F000CDE9002102904AF251620321084604F000
:104300009BFE01200C21F1A20023CDE900210290A7
:104310004FF6E07203212C2004F08EFE01200C21C8
:10432000ECA20023CDE9002102904AF251620D2156
:10433000032004F081FE01200C21E9A20023CDE935
:10434000002102904FF6E0720E21382004F074FE36
:1043500001201821E5A20023CDE9002102904FF6AB
:10436000E07232210F2004F067FE01201821DFA245
:104370000023CDE9002102904FF6E0724B210F207F
:1043800004F05AFE00BFDC484078DC4909788842D6
:1043900049D0D9484078D94908700F20822300229B
:1043A0007A210090104602F0F3FED34840780128AD
:1043B00002D0022824D111E0D1A128A8FCF77EF870
:1043C00001200C2128AA0023CDE9002102904FF6FC
:1043D0001F0204217B2004F02FFE23E0C9A128A89E
:1043E000FCF76CF801200C2128AA0023CDE900215C
:1043F00002904FF61F0204217B2004F01DFE11E005
:10440000C1A128A8FCF75AF801200C2128AA0023F2
:10441000CDE9002102904AF2516204217B2004F090
:104420000BFE00BF00BFB4480078B8490978884245
:1044300079D0B1480078B549087008460078C8B905
:10444000B3A12AA8FCF73AF80D20462300222B211D
:104450000090104602F09CFE01200C212AAA0023A5
:10446000CDE9002102904FF6074203212C2004F0F1
:10447000E3FD1CE0A04800780246A7A126902AA8E8
:10448000FCF71CF80D20462300222B21009010463B
:1044900002F07EFE01200C212AAA0023CDE9002192
:1044A00002904FF6074203212C2004F0C5FD19208D
:1044B00080230E2238210090002002F069FE0120A6
:1044C0000C2187A20023CDE9002102904FF6E07273
:1044D0000E21382004F0B0FD7F200346192205216B
:1044E0000090002002F054FE4FF4FA7009F014FA24
:1044F0008148007841286FD009DC0B286DD2DFE8B5
:1045000000F06C1A35506D8F6CC4D7D6D500492891
:104510007DD009DC42287BD044287AD0452879D048
:1045200048285AD10AE2D6E34A2874D0802873D0AA
:104530008128F6D194E10120182179A20023CDE948
:10454000002102904FF6FF723221052004F074FD25
:104550000120182175A20023CDE9002102904FF619
:10456000FF724B21322004F067FDB3E301201821D4
:104570006FA20023CDE9002102904FF6FF72322195
:10458000052004F059FD0120182168A20023CDE97F
:10459000002102904FF6FF724B21322004F04CFDB7
:1045A00098E30120182165A20023CDE900210290A3
:1045B0004FF6FF723221052004F03EFD0120182144
:1045C0005AA20023CDE9002102904FF6FF724B2141
:1045D000322004F031FD7DE345E360E30120182142
:1045E00059A20023CDE9002102904FF6FF7232213B
:1045F000052004F021FD012018214CA20023CDE963
:10460000002102904FF6FF724B21322005E05EE15F
:10461000CBE101E26EE236E288E204F00DFD59E3FF
:10462000012018214BA20023CDE9002102904FF672
:10463000FF721921052004F0FFFC012018213BA284
:104640000023CDE9002102904FF6FF723221084687
:1046500004F0F2FC0120182140A20023CDE9002142
:1046600002904FF6FF724B21052004F0E5FC01207B
:1046700018212EA20023CDE9002102904FF6FF72EF
:104680006421322004F0D8FC24E30120182135A253
:104690000023CDE9002102904FF6FF723221052060
:1046A00004F0CAFC0120182120A261E0BCE06AE00D
:1046B00085E000004D53475F747970653A00000053
:1046C000780000004558545F49443A00787878787B
:1046D000000000004558445F414444523A00000045
:1046E000696E646570656E64656E7400D5E2CAC7F4
:1046F000B2E2CAD4000000000C0000204F010020EC
:104700005A000000570000002D0000004E0100205C
:104710004E4F4E45000000003078253032580000E2
:10472000BBF0D1E6BCE0B2E2E86E000058205800D1
:10473000C8CBCCE5D5ECB2E2E86E0000B7DBB3BE87
:10474000BCE0B2E2E86E0000C8BCC6F8BCECB2E265
:10475000E86E0000CEC2B6C8E86E0000CAAAB6C8AD
:10476000E86E0000D5F0B6AFBCE0B2E2E86E000043
:104770000023CDE9002102904FF6FF724B21322039
:1047800004F05AFCA6E201201821FEA20023CDE984
:10479000002102904FF6FF723221052004F04CFCFC
:1047A00001201821AFF27C020023CDE90021029004
:1047B0004FF6FF724B21322004F03EFC8AE20120CA
:1047C0001821F3A20023CDE9002102904FF6FF72D9
:1047D0001921052004F030FC01201821EEA200234D
:1047E000CDE9002102904FF6FF723221052004F03E
:1047F00023FC01201821EAA20023CDE90021029028
:104800004FF6FF724B21052004F016FC0120182101
:10481000E5A20023CDE9002102904FF6FF7264214A
:10482000052004F009FC55E201201821E0A2002334
:10483000CDE9002102904FF6FF723221052004F0ED
:10484000FBFB01201821AFF21C120023CDE900214F
:1048500002904FF6FF725021322004F0EDFB39E256
:1048600001201821D5A20023CDE9002102904FF6A6
:10487000FF721921052004F0DFFB01201821AFF29F
:1048800054120023CDE9002102904FF4FC62322142
:10489000084604F0D1FB01201821CAA20023CDE96B
:1048A000002102904FF6FF724B21052004F0C4FB5B
:1048B00001201821AFF28C120023CDE900210290D3
:1048C0004FF4FC626421322004F0B6FB02E20120C6
:1048D0001821BFA20023CDE9002102904FF6FF72FC
:1048E0001921052004F0A8FB01201821AFF2C41201
:1048F0000023CDE9002102904FF4FC6232210846EA
:1049000004F09AFB01201821B4A20023CDE9002174
:1049100002904FF6FF724B21052004F08DFB012021
:104920001821AFF2F8120023CDE9002102904FF4D4
:10493000FC626421322004F07FFBCBE101201821CE
:10494000A3A20023CDE9002102904FF6FF721921A6
:10495000052004F071FB01201821AFF23022002362
:10496000CDE9002102904FF4FC623221084604F0A8
:1049700063FB0120182199A20023CDE900210290B8
:104980004FF6FF724B21052004F056FB0120182141
:10499000AFF268220023CDE9002102904FF4FC62BF
:1049A0006421322004F048FB94E1012018218EA2FA
:1049B0000023CDE9002102904FF6FF721921052056
:1049C00004F03AFB01201821AFF2A0220023CDE928
:1049D000002102904FF4FC623221084604F02CFBC7
:1049E0000120182183A20023CDE9002102904FF677
:1049F000FF724B21052004F01FFB01201821AFF2AC
:104A0000D4220023CDE9002102904FF4FC626421FE
:104A1000322004F011FB5DE10120182178A200236F
:104A2000CDE9002102904FF6FF721921052004F014
:104A300003FB01201821AFF20C320023CDE9002145
:104A400002904FF4FC623221084604F0F5FA01208E
:104A500018216FA20023CDE9002102904FF6FF72CA
:104A60004B21052004F0E8FA01201821AFF244326E
:104A70000023CDE9002102904FF4FC626421322032
:104A800004F0DAFA26E10120182165A20023CDE91D
:104A9000002102904FF6FF721921052004F0CCFA94
:104AA00001201821AFF27C320023CDE900210290D1
:104AB0004FF4FC623221084604F0BEFA01201821AE
:104AC0005AA20023CDE9002102904FF6FF724B213C
:104AD000052004F0B1FA01201821AFF2B032002312
:104AE000CDE9002102904FF4FC626421322004F0F1
:104AF000A3FAEFE0012018214EA20023CDE9002106
:104B000002904FF6FF723221052004F095FA012041
:104B10001821AFF2E8320023CDE9002102904FF6D0
:104B2000FF724B21322004F087FAD3E001201821D4
:104B300043A20023CDE9002102904FF6FF72192114
:104B4000052004F079FA01201821AFF22042002359
:104B5000CDE9002102904FF4FC623221084604F0B6
:104B60006BFA01201821AFF23C420023CDE900216D
:104B700002904FF4FC624B21322004F05DFA0120D8
:104B8000182163E0C1C1B6C8BCECB2E2E86E000017
:104B90004348313A000000004348323A0000000028
:104BA0004348333A000000004348343A0000000014
:104BB000C3DCC2EBCAE4C8EB00000000BCFCD6B505
:104BC000E86E0000B0B4BCFCD7B4CCACE86E00001A
:104BD000BFAAB9D8D7B4CCACE86E0000D5BCBFD55D
:104BE000B1C8D6B5E86E0000BFAAB9D8D2BBE86E8E
:104BF00000000000BFAAB9D8B6FEE86E00000000B1
:104C0000B5C6B9E2BFAAB9D8D2BBE86E00000000B1
:104C1000B5C6B9E2BFAAB9D8B6FEE86E000000007A
:104C2000B2E5D7F9BFAAB9D8E86E0000B5E7C1F779
:104C3000E86E0000B4B0C1B1D7B4CCACE86E0000EF
:104C4000B5E7B1EDD7B4CCACE86E0000AFF22452BA
:104C50000023CDE9002102904FF4FC626421322050
:104C600004F0EAF936E001201821FEA20023CDE984
:104C7000002102904FF6FF723221052004F0DCF98A
:104C800001201821AFF25C520023CDE900210290EF
:104C90004FF6FF724B21322004F0CEF91AE00120CA
:104CA0001821F3A20023CDE9002102904FF6E07213
:104CB00032210F2004F0C0F901201821EFA20023B7
:104CC000CDE9002102904FF6E0724B210F2004F055
:104CD000B3F900BF00BFEC480078412801F0978687
:104CE0000FDC0B2881F0C287DFE810F0C00F260030
:104CF0006D00B300E8004201C00F1B029F02610279
:104D0000A203492800F05B870DDC422801F05284A1
:104D1000442801F0B184452801F08F85482841F0EE
:104D2000A58701F0D5B94A2801F01F85802801F038
:104D3000D6858128F3D1E1E30A21D448006808F040
:104D400055FE23AB07C3239810283AD12498269008
:104D50007F2003464B2200210090084602F018FAFB
:104D60002698007888B1CAA11BA8FBF7A7FB0120F1
:104D700018211BAA0023CDE9002102904FF4FC6208
:104D80004B21282004F058F910E0C3A11BA8FBF721
:104D900095FB012018211BAA0023CDE900210290D8
:104DA0004FF4FC624B21282004F046F900BFBC48B8
:104DB0002699006808F062FE279027980028F6D10F
:104DC000269001F054BF0A21B648006808F00EFE94
:104DD00023AB07C3239810283AD1249826907F202C
:104DE00003464B2200210090084602F0D1F9269894
:104DF000007888B1ACA11BA8FBF760FB012018214B
:104E00001BAA0023CDE9002102904FF4FC624B2144
:104E1000282004F011F910E0A5A11BA8FBF74EFB18
:104E2000012018211BAA0023CDE9002102904FF494
:104E3000FC624B21282004F0FFF800BF9E48269911
:104E4000006808F01BFE279027980028F6D12690CE
:104E5000B7E70A219948006808F0C8FD23AB07C3EB
:104E60002398102829D1249826907F2003464B228E
:104E700000210090084602F08BF92698B0F8010056
:104E800002468FA11A901BA8FBF718FB01211820DE
:104E90001BAA0023CDE9002002911F2269210A20CC
:104EA00004F0CAF800BF89482699006808F0E6FDBA
:104EB000279027980028F6D1269082E70A21844877
:104EC000006808F093FD23AB07C3239810284ED148
:104ED000249826907F2003464B220021009008460C
:104EE00002F056F92698007888B17AA11BA8FBF742
:104EF000E5FA012118201BAA0023CDE90020029128
:104F00004FF4FC624B21282004F096F810E073A1C6
:104F10001BA8FBF7D3FA012118221BA80023CDE917
:104F2000012100904FF4FC624B21282004F084F80A
:104F30002698B0F80100024661A11A901BA8FBF761
:104F4000BDFA012218211BA800238DE807001F22AB
:104F500069210A2004F070F800BF624826990068B1
:104F600008F08CFD279027980028F6D1269028E796
:104F70000A215D48006808F039FD23AB07C3239878
:104F800010286DD1249826904B207F2332220021B7
:104F90000090084602F0FCF87D207F236422002167
:104FA0000090084602F0F4F82698006817900CF07C
:104FB0008FFD02460B46CDE918014CA11BA8FBF75B
:104FC0007DFA012218201BA90023CDE901020091DE
:104FD0004FF4FC623221142002F0FEF91BA8FBF70B
:104FE000C8FB00EB40001C2101EB800080B21A904E
:104FF000012018223FA10023CDE9001202904FF4B6
:10500000FC6234211A9804F017F82698406817902B
:105010000CF05EFD02460B46CDE9180133A11BA83A
:10502000FBF74CFA012018211BAA0023CDE900212F
:1050300002904FF4FC626421142002F0CDF91BA809
:10504000FBF797FB00EB40001C2101EB800080B2D6
:105050001A900120182128A20023CDE900214DE05B
:105060005EE00000B1A8BEAFD7B4CCACE86E0000E3
:10507000CEB4BCECB2E2B5BD00000000C0A9D5B909
:10508000C4A3BFE9000000000C000020680000205D
:10509000D3D0BBF000000000C3BBBBF00000000099
:1050A0005C00002080000020D3D0C8CB00000000AE
:1050B000CEDEC8CB0000000074000020C00000203D
:1050C000616E6156414C3A2564252500B4000020EC
:1050D0009C000020B1A8BEAF00000000D5FDB3A326
:1050E0000000000090000020F4000020252E326611
:1050F00000000000A1E60000A3A5000002904FF40C
:10510000FC6266211A9803F097FF00BFFC482699BD
:10511000006808F0B3FC279027980028F6D1269065
:105120004FE60A21F748006808F060FC23AB07C38C
:10513000239810283AD1249826907F2003464B22AA
:1051400000210090084602F023F82698007888B1E4
:10515000EDA11BA8FBF7B2F9012018211BAA00231F
:10516000CDE9002102904FF4FC624B21282003F08E
:1051700063FF10E0E6A11BA8FBF7A0F901201821AE
:105180001BAA0023CDE9002102904FF4FC624B21C1
:10519000282003F051FF00BFDF482699006808F07F
:1051A0006DFC279027980028F6D1269009E60A2161
:1051B000DA48006808F01AFC23AB07C323981028CC
:1051C00032D1249826907F2003464B220021009064
:1051D000084601F0DDFF269800780246D0A11A901B
:1051E0001BA8FBF76BF91BA8FBF7C3FAC0F108007B
:1051F000C000143080B21A90012018211BAA00238D
:10520000CDE9002102904FF4FC6255211A9803F079
:1052100013FF00BFC4482699006808F02FFC2790B0
:1052200027980028F6D12690CBE500201A901990F7
:10523000189017900A21BD48006808F0D7FB23ABEF
:1052400007C3239810287CD124982690269880881C
:105250000E900CF00BFD0F900CF03AFC0022B44BBA
:10526000CDE910010CF04CFA0022B24BCDE912014D
:105270000CF09EF8CDE914010BF0B4FF19902698BC
:1052800000880E900CF0F2FC0F900CF021FC002234
:10529000A94BCDE910010CF033FA0022A54BCDE962
:1052A00012010CF085F8CDE914010BF09BFF1A9068
:1052B0002698C0880E900CF0D9FC0F900CF008FCDA
:1052C00000229B4BCDE910010CF01AFA0022994BF9
:1052D000CDE912010CF06CF8CDE914010BF082FF5E
:1052E0001790269840880E900CF0C0FC0F900CF0A0
:1052F000EFFB0022904BCDE910010CF001FA0022E7
:105300008C4BCDE912010CF053F8CDE914010BF0F0
:1053100069FF18904B207F2332222D21009000201E
:1053200001F036FF7D207F2364222D210090002094
:1053300001F02EFF4B207F2319222D210090002009
:1053400000E074E001F024FF7D207F234B222D211B
:105350000090002001F01CFF1A980CF0B9FB0246E7
:105360000B46CDE9140175A11BA8FBF7A7F8012096
:1053700018211BAA0023CDE9002102904FF4FC6202
:1053800019212D2003F058FE19980CF0A1FB0246BC
:105390000B46CDE914016CA11BA8FBF78FF8012087
:1053A00018211BAA0023CDE9002102904FF4FC62D2
:1053B00032212D2003F040FE18980CF089FB0246A4
:1053C0000B46CDE914015DA11BA8FBF777F801207E
:1053D00018211BAA0023CDE9002102904FF4FC62A2
:1053E0004B212D2003F028FE17980CF071FB02468C
:1053F0000B46CDE9140154A11BA8FBF75FF801206F
:1054000018211BAA0023CDE9002102904FF4FC6271
:1054100064212D2003F010FE00BF4D48269900683E
:1054200008F02CFB279027980028F6D12690C8E496
:105430004848007890B34848007828B1464800783A
:10544000401E4549087041E0002042490870802014
:105450000346282200210090084601F099FE012110
:105460001820AFF6B4020023CDE9002002914FF6D8
:10547000FF723221052003F0DFFD9DF88E0070B928
:1054800001201821AFF65C520023CDE900210290E3
:105490004FF6FF725021322003F0CEFD16E00DF1E1
:1054A0008E00FBF766F94021A1EB800080B201215C
:1054B000182216900DF18E000023CDE901210090F5
:1054C0004FF4FC625021169803F0B6FD0A212348E0
:1054D000006808F08BFA1FAB07C31F9810287BD118
:1054E0002098269026980078E02876D038DC1A2874
:1054F00074D0CC283BD0DD2871D171E089E1000067
:10550000E80000203C010020D3D0D5F0B6AF000069
:10551000C3BBD5F0B6AF000030010020DC00002096
:105520002564202525000000D00000201C0100205B
:10553000000014400000B0400000364025332E30FB
:1055400066206D4100000000252E326620560000C6
:1055500010010020510100205001002028000020EF
:10556000E1287BD0E3287AD0EE28C5D178E001206D
:10557000FD4908703220FD4908708020034628222A
:1055800000210090084601F003FE01201821F8A236
:105590000023CDE9002102904FF6FF723221052051
:1055A00003F04AFD202117A8FBF7A3F926984078BD
:1055B0000246F2A1169017A8FAF780FF01201821E1
:1055C00017AA0023CDE9002102904FF4FC6250217C
:1055D000192003F031FD0FE11AE182E0CFE00AE18A
:1055E0000120E14908703220E0490870802003461C
:1055F000282200210090084601F0CAFD012118224E
:10560000E0A00023CDE9012100904FF6FF72322186
:10561000052003F011FD202117A8FBF76AF9269851
:1056200041790079CDE900012698C0781690269836
:10563000807815900246D6A117A8169BFAF73EFF70
:105640000120182117AA0023CDE9002102904FF470
:10565000FC625021192003F0EFFCCDE057E072E02E
:10566000269850F8061FCDF88E104168CDF892109C
:10567000007A8DF8960080207F2350220021009030
:10568000084601F085FD202117A8FBF732F926987E
:10569000807970B901211822AFF670700023CDE92E
:1056A000012100904FF6FF725021322003F0C4FC1C
:1056B00016E02698801DFBF75CF84021A1EB8000E6
:1056C00080B20121182216902698801D0023CDE972
:1056D000012100904FF4FC625021169803F0ACFCBD
:1056E0008AE080200346282200210090084601F02D
:1056F0004FFD01221820ABA10023CDE9010200914A
:105700004FF6E0723C21142003F096FC74E0012077
:105710009549087014209549087080200346282276
:1057200000210090084601F033FD01211822A0A0BD
:105730000023CDE9012100904FF6E0723C211420B6
:1057400003F07AFC58E0012087490870142087494B
:10575000087080200346282200210090084601F0AE
:1057600017FD0120182195A20023CDE90021029008
:105770004FF6E0723C21142003F05EFC3CE0012077
:1057800079490870142079490870269840780128D2
:1057900002D002282CD115E08020034628220021C7
:1057A0000090084601F0F4FC0122182086A1002395
:1057B000CDE9010200914FF6E0723C21142003F084
:1057C0003BFC16E08020034628220021009008467A
:1057D00001F0DEFC012018217EA20023CDE900218A
:1057E00002904FF6E0723C21142003F025FC00E00B
:1057F00000BF00BF00E000BF00BF00BF784826998F
:10580000006808F03BF9279027980028F6D12690E9
:1058100086E474480078002807D07348007828B1DF
:1058200071480078401E7049087081E000206D4981
:10583000087080200346192205210090002001F005
:10584000A7FC01211822AFF68C400023CDE90121ED
:1058500000904FF6FF721921052003F0EDFB0122A5
:105860001820AFF6A0410023CDE9010200914FF6C8
:10587000FF724B21052003F0DFFB4B207F233222F8
:1058800000210090084601F083FC9DF89600024636
:105890003BA119901AA8FAF711FE012218201AA9A3
:1058A0000023CDE9010200914FF4FC623221084649
:1058B00001F092FD7D207F236422002100900846A4
:1058C00001F066FC9DF89700643805281DD2DFE8DA
:1058D00000F003080D12170044A11AA8FAF7EEFD14
:1058E00018E044A11AA8FAF7E9FD13E044A11AA8A8
:1058F000FAF7E4FD0EE045A11AA8FAF7DFFD09E08A
:1059000045A11AA8FAF7DAFD04E038A11AA8FAF7B7
:10591000D5FD00BF00BF012018211AAA0023CDE940
:10592000002102904FF4FC626421142003F084FBF8
:105930000A213C48006808F059F822AB07C32298B6
:10594000102810D123982690269800788DF894007E
:105950002698C0788DF89700269800780A2863D09A
:105960000B287DD1B6E029E1510100205001002033
:10597000D6B8CEC6CAE4C8EB0000000049443A20BD
:105980002564000052464944CAE4C8EB0000000008
:10599000253032582530325825303258253032588B
:1059A00000000000BFAACABCC1F4D1D400000000AE
:1059B000C1F4D1D4CDEAB1CF00000000BAF4BDD01B
:1059C000C7EBC7F300000000C3C5CBF8D2D1BFAA14
:1059D00000000000C3C5CBF8D2D1B9D80000000048
:1059E0001800002053010020520100202020204EEA
:1059F000554C4C00B0B4BCFCB5C8B4FD0000000070
:105A0000B5C8B4FDD2A3BFD800000000D1A7CFB065
:105A1000CDEAB1CF00000000D0C5BAC5CAE4B3F6E4
:105A200000000000980100200120FE49087032208B
:105A3000FD49087080200346192200210090084685
:105A400001F0A6FB01221821F8A000238DE8070031
:105A50004FF6E0723C210A2003F0EEFA012200E04A
:105A60009FE01820F5A10023CDE9010200914FF637
:105A7000E07250211E2003F0DFFA192080230E224D
:105A800038210090002001F083FB269840780A28F6
:105A90000FD00B281BD101200C21EBA20023CDE954
:105AA000002102904FF6E0720E21382003F0C4FA74
:105AB0000EE001200C21E7A20023CDE90021029095
:105AC0004FF6E0720E21382003F0B6FA00E000BF76
:105AD00000BF67E0D3480078A8BB4B207F23322269
