:020000040800F2
:10000000881D0020812100086D0700086F07000887
:1000100073070008770700087B070008000000004E
:100020000000000000000000000000007F07000842
:10003000810700080000000083070008850700080A
:100040009B2100089B2100089B2100089B210008A0
:100050009B2100089B2100089B2100089B21000890
:100060009B2100089B2100089B2100089B21000880
:10007000051000089B210008091500089B210008B5
:100080009B2100089B2100089B2100089B21000860
:100090009B2100089B2100089B2100089B21000850
:1000A0009B2100089B2100089B2100089B21000840
:1000B000472000089B2100089B2100089B21000885
:1000C0009B2100089B2100089B2100089B21000820
:1000D0009B210008371400089B2100080B0E000824
:1000E000870700089B2100089B21000800F002F808
:1000F00000F043F80AA090E8000C82448344AAF17F
:100100000107DA4501D100F038F8AFF2090EBAE87C
:100110000F0013F0010F18BFFB1A43F0010318473B
:10012000EC4000000C410000103A24BF78C878C1B0
:10013000FAD8520724BF30C830C144BF04680C60ED
:10014000704700000023002400250026103A28BF35
:1001500078C1FBD8520728BF30C148BF0B60704739
:100160001FB503F0C1FF04000020002104F038F89F
:10017000401C60601FBD10B510BD03F0BDFF1146EF
:10018000FFF7EEFF00F07BFA03F0DBFF03B4FFF7AD
:10019000F2FF03BC04F01CF830B502464FF6FF70C6
:1001A00001B9012111E01478604000230AE000F059
:1001B000010424B140104AF20104604000E0401004
:1001C0005C1CE3B2082BF2DB521C0C00A1F1010510
:1001D000A9B2E8D130BDFE4909680160FC49091D9A
:1001E00009684160FA49083109688160704710B5B3
:1001F000B8B0002400203790F648006800287CD171
:10020000022001F08AFFF348006800287FD1F249FC
:10021000088078E0F048008840F6AC51884272DBF4
:100220000020ADF8CC008DF8CE00002133A8C170BD
:10023000017141714FF45050ADF8D200E748007899
:100240008DF8D400E5480088010A33A84172E348DC
:100250000068010C33A88172E0480068010E33A8E1
:10026000C17203208DF8D80002208DF8D90000203B
:100270008DF80400DA480078C8B90120D849087020
:100280008DF8050000240FE00020D2495C310860A1
:10029000962001F042FF0120D249C1F89801962032
:1002A00001F03BFF601C84B2082CEDDB1BE000205A
:1002B000CB49087002208DF80500002411E00020D1
:1002C000C4495C3108604FF4487001F026FF0120FA
:1002D000C449C1F898014FF4487001F01EFF601C3A
:1002E00084B2032CEBDB9DF8D90001AB33AA4BF6AB
:1002F000BB3100904AF6AA2000E008E001F046FA7F
:100300000020B5490880B3480068002882D0B14871
:100310002C380068D8B9052001F0FFFE00BFAD48B9
:100320002C3800680028FAD0AF48007800F00100AF
:1003300038B1AD4800884FF6FE710840AA490880E0
:1003400005E0A948008840F00100A7490880A148BD
:1003500020380068D0B9052001F0DFFE00BF9D48BD
:10036000203800680028FAD09F48007800F002008A
:1003700030B19D48008820F002009B49088005E0CC
:100380009948008840F00200974908809748006823
:10039000C8B9052001F0C1FE00BF944800680028DC
:1003A000FBD09148007800F0040030B18E480088FE
:1003B00020F004008C49088005E08B48008840F05C
:1003C0000400894908808948001D0068D0B90520CB
:1003D00001F0A3FE00BF8548001D00680028FAD088
:1003E0008148007800F0080030B17F48008820F094
:1003F00008007D49088005E07B48008840F008003F
:1004000079490880794830300068D0B9052001F07A
:1004100084FE00BF7548303000680028FAD072486A
:10042000007800F0100030B16F48008820F0100014
:100430006D49088005E06C48008840F010006A496A
:1004400008806A4834300068D0B9052001F065FEA4
:1004500000BF6648343000680028FAD0624800784F
:1004600000F0200030B16048008820F020005E4994
:10047000088005E05C48008840F020005A49088068
:100480005A4838300068D0B9052001F046FE00BF58
:100490005648383000680028FAD05348007800F0F9
:1004A000400030B15048008820F040004E4908809C
:1004B00005E04D48008840F040004B490880454821
:1004C0001C380068D0B9052001F027FE00BF414864
:1004D0001C3800680028FAD04348007800F08000FB
:1004E00030B14148008820F080003F49088005E095
:1004F0003D48008840F080003B490880354810386E
:100500000068D0B9052001F008FE00BF314810385E
:1005100000680028FAD03448008800F4807030B1B8
:100520003148008820F480702F49088005E02E486B
:10053000008840F480702C49088026480C380068F8
:10054000D0B9052001F0E9FD00BF22480C38006851
:100550000028FAD02448008800F4007030B1224806
:10056000008820F400702049088005E01E480088BB
:1005700040F400701C4908801B4800883790022115
:1005800037A800F08BFB1A48008817490988884271
:1005900073D015480088164908800020ADF8CC00BB
:1005A0008DF8CE00002133A8C170017141714FF464
:1005B0005050ADF8D200094800788DF8D4000748B3
:1005C0000088010A33A8417204480068010C11E058
:1005D000E8F7FF1F3C0121422E00002070000020A0
:1005E000360000200000214232000020008121421C
:1005F0003400002033A8817252480068010E33A8ED
:10060000C17203208DF8D80012208DF8D900002087
:100610008DF8040004208DF8050000208DF80600F8
:1006200034208DF80700474800788DF808004548C9
:100630000088000A8DF8090042480068000C8DF817
:100640000A0040480068000E8DF80B00002003905F
:1006500004903D4800788DF814003B480088001253
:100660008DF815009DF8D90001AB33AA4BF6BB31CC
:1006700000904AF6AA2001F089F838B010BD86B083
:1006800032A003C8CDE9040130A103C9CDE90201BC
:1006900030A103C9CDE90001002401F001FD01F002
:1006A00069FD01F04AFC2748FFF795FD4FF4E13062
:1006B00000F07CF94FF4165000F02CFA41F61F417F
:1006C000092001F085FC40F6B8302449088001205B
:1006D0002349087041F288302249088031E02048DF
:1006E000007840B31D480088B0F57A6F23DD002004
:1006F0001A4908801C48007848B100201A4908703F
:10070000082102A800F0A2FD00F0D5FC13E00120B2
:100710001549087006216846FFF73EFD0446E0B221
:100720008DF8060020128DF807000821684600F0B9
:100730008DFD00F0C0FC01F03CFB00F03BFFFFF73B
:1007400056FDCCE770000020320000200103004875
:10075000000505DF01030003004D00002A00002012
:10076000280000202E00002037000020704700BF26
:10077000FEE700BFFEE700BFFEE700BFFEE77047F1
:1007800070477047704710B54FF4806003F0B6FBB8
:1007900090B14FF4806003F0C2FB0848006820F479
:1007A0008060064908600648007810B101200549BC
:1007B000087001200449087010BD000000040140C9
:1007C000390000203A000020380000200CB500203D
:1007D000019000906C48006840F480306A490860DD
:1007E00000BF6948006800F4003000900198401C88
:1007F0000190009818B90198B0F5A06FF1D1624846
:10080000006800F4003010B10120009001E00020E9
:1008100000900098012843D15C48006840F0100027
:100820005A4908600846006820F00300086008463E
:10083000006840F002000860534840685249486030
:100840000846406848600846406840F48060486058
:100850000846406820F47C1048600846406840F430
:10086000E81048600846006840F08070086000BFEB
:100870004548006800F000700028F9D04248406800
:1008800020F00300404948600846406840F00200FC
:10089000486000BF3C48406800F00C000828F9D1CF
:1008A0000CBD10B5FFF792FF10BD10B536480068BB
:1008B00040F0010034490860084640683449084067
:1008C0003149486008460068324908402E490860AE
:1008D0000846006820F4802008600846406820F43C
:1008E000FE0048604FF41F008860FFF7DAFF4FF00A
:1008F00000602949086010BD10B5002100200022C9
:10090000214B5B6803F00C0121B1042906D00829B2
:1009100028D107E0214B224C236027E01F4B204CBD
:10092000236023E0184B5B6803F47010164B5B6880
:1009300003F48032022303EB904022B9194B434366
:10094000174C23600DE0104B5B6803F4003323B1B8
:10095000144B4343124C236003E0104B4343104CB1
:10096000236003E00D4B0E4C236000BF00BF064B1D
:100970005B68C3F303130C4CE15C094B1B68CB4071
:10098000074C236010BD0000001002400020024010
:100990000000FFF8FFFFF6FE08ED00E000127A000D
:1009A0004400002000093D004800002010B588B038
:1009B00004460121084601F080FF0121880301F06F
:1009C00089FF0121042001F085FF4FF40070ADF88C
:1009D0001C0018208DF81F0003208DF81E0007A9A9
:1009E000A74801F0BBFC4FF48060ADF81C00042068
:1009F0008DF81F0007A9A24801F0B0FC0394002065
:100A0000ADF81000ADF81200ADF81400ADF8180004
:100A10000C20ADF8160003A99A4802F002F8252030
:100A20008DF8080003208DF809008DF80A000120D8
:100A30008DF80B0002A801F0C8FB0E208DF808000D
:100A400003208DF809008DF80A0001208DF80B00B5
:100A500002A801F0BAFB002240F22771894802F097
:100A600078F8002240F22551864802F072F8002200
:100A700040F22661834802F06CF8012240F22441E2
:100A8000804802F066F8012280217E4802F086F854
:100A9000012240217B4802F081F800201021C82368
:100AA000794ACDE900107749091D784801F058FAD4
:100AB0000021764802F043FA00200090C823724AD1
:100AC000C8327049091D01907048143001F048FA8D
:100AD00001216E48143002F032FA012202216B48E3
:100AE00002F039FA4FF4805002F058FA4FF4803097
:100AF00002F054FA0121634802F01FF84FF4346108
:100B00006148083803F068FA01205F4908394871E4
:100B100008B010BD10B588B004460121084601F0A8
:100B2000CCFE0121880401F0E2FE0121082001F041
:100B3000D1FE4FF48060ADF81C0018208DF81F0026
:100B400003208DF81E0007A9514801F007FC4FF45F
:100B50000060ADF81C0004208DF81F0007A94C4868
:100B600001F0FCFB03940020ADF81000ADF812007A
:100B7000ADF81400ADF818000C20ADF8160003A96C
:100B8000444801F04EFF27208DF8080003208DF81F
:100B900009008DF80A0001208DF80B0002A801F071
:100BA00014FB0C208DF8080003208DF809008DF847
:100BB0000A0001208DF80B0002A801F006FB0022BC
:100BC00040F22771334801F0C4FF002240F2255162
:100BD000304801F0BEFF002240F226612D4801F0AE
:100BE000B8FF012240F224412A4801F0B2FF01225D
:100BF0008021284801F0D2FF01224021254801F040
:100C0000CDFF00201021C823234ACDE9001021493F
:100C1000091D1E48283801F0A3F900211B48283877
:100C200002F08DF900200090C8231B4AC8321949F0
:100C3000091D01901548143801F092F9012113485B
:100C4000143802F07CF9012202211048283802F001
:100C500082F9102002F0A2F94FF4807002F09EF9A0
:100C600001210C4801F069FF4FF434610A4808384B
:100C700003F0B2F9012008490839487108B010BDE5
:100C80000008014000380140840000204400024078
:100C9000000C014000480040C40B00202DE9F04149
:100CA00005460F4600247C1E20E000261BE0285D40
:100CB00000F0800018B101201449086002E0002013
:100CC000124908600020114908310860012001F034
:100CD00000FA01200E49C1F8A001285D4006000E6F
:100CE0002855701CC6B2082EE1DB641E002CDCDA2D
:100CF00000200649091D0860012001F0EAF90120E1
:100D00000349C1F89C01BDE8F081000098812142AF
:100D1000008021422DE9F05F80460E469146002476
:100D20001CE016F814A06000401C16F800B05046F5
:100D300003F0FEF83038C5B2092D01DDE81FC5B259
:100D4000584603F0F5F83038C7B2092F01DDF81F17
:100D5000C7B207EB051008F80400641C4C45E0DB43
:100D6000BDE8F09FF0B5034600201EE00E5CF717CB
:100D700006EB17773F1107F130050E5CF71706EB0E
:100D800017773F11A6EB07173037FCB2392D01DD7D
:100D9000EE1DF5B2392C01DDE61DF4B203F810505A
:100DA000012606EB40069C55401C9042DEDB0026E7
:100DB00003F81260F0BD0246002100BF05E0505C60
:100DC00008B101207047481CC1B20329F7DB00209D
:100DD000F8E730B502460B46002010E012F8014B50
:100DE0006040002109E000F001041CB18C2484EA79
:100DF000600000E040104C1CE1B20829F3DB1C004D
:100E0000A3F10105EBB2E9D130BD70B5002440F289
:100E10002441F84801F082FF00287DD04FF4807013
:100E200002F0BCF840F22441F24801F0A1FFF14881
:100E30000588001D05880021EF4802F080F8EE4883
:100E400002F094F8C0F1C8040F2C3DD1EB4890F8A3
:100E5000D000012838D1E94890F8D100032833D1D7
:100E6000E64890F8D2000A282ED1E44890F8D41031
:100E700090F8D30041EA0020E1490880DF4890F86B
:100E8000D61090F8D50041EA0020DE490880DB4802
:100E900090F8D81090F8D70041EA0020DA4908808D
:100EA000D64890F8D9000106D44890F8DA0041EA13
:100EB0000041D24890F8DB0041EA0020CF4991F888
:100EC000DC100843D14908609F2C7DD1CB4890F8B5
:100ED000D000012878D1C94890F8D100032873D1F7
:100EE000C64890F8D2009A287ED19D21C348D030C0
:100EF000FFF752F90546C14890F86D1190F86E0160
:100F000041EA0020A8426FD1BC4890F8DA1090F86E
:100F1000D90041EA002000E073E0BD490880B748ED
:100F200090F8E41090F8E30041EA0020B949088005
:100F3000B24890F8E61090F8E50041EA0020B64982
:100F40000880AE4890F8FE1090F8FD0041EA0020BD
:100F5000B2490880A94890F8001190F8FF0041EAD2
:100F60000020AF490880A54890F8061190F80501C7
:100F700041EA0020AB490880A04890F82E1190F873
:100F80002D0141EA0020A84908809C4890F83011C2
:100F900090F82F0141EA0020A4490880974890F872
:100FA000361190F8350141EA0020A14908809348A4
:100FB00090F85E1190F85D0141EA00209D4908809B
:100FC0008E4890F8601100E00EE090F85F0141EA71
:100FD000002099490880894890F8661190F86501C9
:100FE00041EA0020954908800F218448D03002F062
:100FF000F3FFC82080493039486301217E4801F061
:101000009EFF70BD10B5202001F0D3FFB8B10120C4
:101010007A49487100217848143801F090FF102077
:1010200001F0DBFF00BF4021724801F061FE0128A2
:10103000F9D10020824908608249C1F8940110BDAD
:101040006E484088401C6D494880704710B5044682
:10105000002300BF2BE003EBC30101EB03127A492D
:1010600001EBC200FFF7A7FE01281ED103EBC3006E
:1010700000EB0311744800EBC1008078A04214D14A
:101080005E488079984204D101205C4908710020B3
:10109000488003EBC30000EB03116B4800EBC10079
:1010A000002101604160018103E0581CC3B2062B9E
:1010B000D1DB00BF10BD7CB5002550484079012828
:1010C0007CD14E4840881E2803DA4C48007900B98C
:1010D0007CBD0020494908714880002240F224412B
:1010E000444801F036FD002202214348143801F043
:1010F00032FF4248847900256AE004EBC40101EB29
:101100000412514901EBC200FFF755FE012856D1E8
:101110003A488079A0421CD138484078401C374971
:10112000487008464078012813DD0020487004EB21
:10113000C40000EB0411444800EBC1000021016031
:1011400041600181052C01DB002401E0601CC4B278
:101150003CE02A4800218160C160018200F5CC702A
:10116000025D04EBC40000EB0413374800EBC3013D
:10117000A0F5CE7002F0EBFE012031490860314944
:10118000C1F8940100201021C8231C4A0832CDE97F
:1011900000101849091D1848143800F0E1FE2A48CB
:1011A0000C38015D1448143800F004FF13488471B2
:1011B000002012494871087148800BE017E0052CA7
:1011C00001DB002401E0601CC4B200BF681CC5B292
:1011D000062D92DB00BF012202210748143801F0DE
:1011E000BAFE012240F22441024801F0B2FC00BFE5
:1011F0006EE700000048004030000240BC0B0020B9
:1012000006000020080000200A0000200C0000203A
:101210001000002012000020140000201600002002
:10122000180000201A0000201C0000201E000020D2
:1012300020000020220000202400002026000020A2
:101240009481214200802142600D00202DE9F0416F
:1012500006460D460027002240F224411E4801F0B8
:1012600078FC002202211D4801F075FE1C4884799B
:1012700000BF20E004EBC40101EB0412194901EBAB
:10128000C200FFF798FD70B904EBC40101EB041232
:10129000144901EBC2002A46314602F058FE1148BB
:1012A0000C38055509E0052C01DB002401E0601C29
:1012B000C4B2781CC7B2062FDCDB00BF01220221BA
:1012C000064801F048FE012240F22441024801F0A4
:1012D00040FCBDE8F0817047004800401C0002401F
:1012E000BC0B0020600D00200246002100BF05E07D
:1012F000505C08B101207047481CC1B20329F7DBDC
:101300000020F8E730B502460B46002010E012F846
:10131000014B6040002109E000F001041CB18C2465
:1013200084EA600000E040104C1CE1B20829F3DBC5
:101330001C00A3F10105EBB2E9D130BD2DE9F0436A
:1013400005460E46174698460024A14600BF40E0D9
:1013500004EB8402FA4901EB4200FFF7C5FFA8BB8A
:10136000291204EB8402F64800F8121004EB840200
:1013700000EB4200457004EB8401F14800EB4100B2
:1013800080F8028004EB8401ED4800EB4100C77057
:10139000311204EB8402EA4800EB4200017104EBD5
:1013A0008402E74800EB4200467104EB8402E44902
:1013B00001EB42000621FFF7A5FF814604EB840103
:1013C000DF4800EB410080F8069004E0FFE7601C76
:1013D000C4B2062CBCDB00BFBDE8F0832DE9F041B0
:1013E00005460E4690460027D648C47900BF1DE04A
:1013F00004EBC40101EB0412D34901EBC200FFF777
:1014000073FF58B904EBC40101EB0412CE4901EBA0
:10141000C2003246294602F09AFD09E0052C01DBA4
:10142000002401E0601CC4B2781CC7B2062FDFDBC9
:1014300000BFBDE8F0812DE9F0410026002700251E
:1014400040F22441C14801F069FC00285AD04FF411
:10145000803001F0A3FD40F22441BC4801F088FC3B
:10146000BA480488001D04880021B94801F067FDCE
:10147000B74801F07BFDC0F1C8059620B54908804A
:10148000C82D32D2152D30D3AE4890F8D000AA28FE
:101490002BD1AC4890F8D100AA2826D1A94890F8C1
:1014A000E00000F11104A748D030005DBB281CD13A
:1014B000A448D030611C405CBB2816D1A01CC1B22E
:1014C000A048D030FFF71EFF07469E48D030A11C31
:1014D000405CB84209D19B4890F8D260E01CC1B290
:1014E00032469848D030FFF779FFA11C9548D0309C
:1014F00002F072FDC82096495839C8650121944808
:1015000001F01DFDBDE8F08110B54FF4005001F071
:1015100050FD90B101208B49487100218C4814384E
:1015200001F00DFD4FF4805001F057FD00BF402148
:10153000864801F0DDFB0128F9D110BD81484088C3
:10154000401C80494880704710B50446002300BF06
:101550002CE003EBC30101EB03127F4901EBC20056
:10156000FFF7C2FE01281FD103EBC30000EB0311FC
:10157000794800EBC1008078A04215D1714880798C
:10158000984210D101206F490871002048804870AE
:1015900003EBC30000EB03116F4800EBC100002117
:1015A00001604160018103E0581CC3B2062BD0DB0F
:1015B00000BF10BD7CB5002562484079012876D176
:1015C000604840881E2803DA5E48007900B97CBD77
:1015D00000205C4908714880002240F224415B48A9
:1015E00001F0B7FA002202215948143801F0B3FC87
:1015F00054488479002564E004EBC40101EB041233
:10160000554901EBC200FFF76FFE012850D14D484C
:101610008079A0421CD14B484078401C4949487011
:1016200008464078012813DD0020487004EBC40010
:1016300000EB0411484800EBC1000021016041604B
:101640000181052C01DB002401E0601CC4B236E0FE
:101650003C4800218160C160018200F5CC70025DD0
:1016600004EBC40000EB04133B4800EBC301A0F5FE
:10167000CE7002F06CFC00201021C823314A0832E1
:10168000CDE900103149091D3148143800F068FCDB
:1016900031480C38015D2E48143800F08BFC294885
:1016A0008471002027494871087148800BE017E0D9
:1016B000052C01DB002401E0601CC4B200BF681CE3
:1016C000C5B2062D98DB00BF012202212048143844
:1016D00001F041FC012240F224411C4801F039FA9A
:1016E00000BF74E72DE9F04106460D4600270022B1
:1016F00040F22441154801F02CFA0022022114483E
:10170000143801F028FC0F48847900BF2EE004EB68
:10171000C40101EB0412104901EBC200FFF7E4FD24
:10172000E0B904EBC40101EB04120B4901EBC20068
:101730002A46314602F00BFC07480C38055517E0E5
:10174000800B00207C000020D006002000380140E3
:10175000580002402C00002020020020052C01DB54
:10176000002401E0601CC4B2781CC7B2062FCEDB97
:1017700000BF01220221F84801F0EDFB012240F2F6
:101780002441F64801F0E5F9BDE8F0812DE9FF5F5D
:101790000746884692460E9D4FF0000BD94600261C
:1017A000C82D01DDBDE8FF9F002240F22441EB4837
:1017B00001F0CFF900220221E74801F0CCFBE84814
:1017C00084794FF0000B7FE004EBC40101EB0412BD
:1017D000E44901EBC200FFF787FD00286AD104EB62
:1017E000C40000EB0412DF4800F83270391204EB39
:1017F000C40000EB0412DB4800EBC2004170D84883
:10180000017804EBC40000EB0412D64800EBC200E0
:10181000817004EBC40101EB0412D24901EBC20157
:10182000C81C0E22514602F092FB04EBC40101EBEE
:101830000412CC4901EBC20101F111002A460399BF
:1018400002F085FB04EBC40000EB0412C54800EB7A
:10185000C20205F1110002F800804FEA282104EBD2
:10186000C40000EB0412BF4800EBC20205F11200F5
:101870001154401CC6B204EBC40101EB0412B94977
:1018800001EBC2003146FFF73DFD814604EBC40089
:1018900000EB0411B34800EBC10000F80690701C87
:1018A000C1B2B0480C380155AD480078401CAC4975
:1018B00008700DE0052C01DB002401E0601CC4B2BF
:1018C0000BF1010000F0FF0BBBF1060FFFF67CAF40
:1018D00000BF01220221A04801F03DFB012240F29D
:1018E00024419E4801F035F900BF5BE730B5EBB00D
:1018F0000546002002900E22E91C67A802F027FB93
:101900009DF8A92105F1110135A802F020FBBDF8D1
:10191000A2010002BDF8A21140EA212080B2ADF878
:10192000A201BDF89C010002BDF89C1140EA2120F3
:1019300080B2ADF89C019DF8A80103287ED19DF8E6
:10194000D5009DF8D41040EA0120032804D00528D2
:1019500075D0062874D12CE19DF8D6008249087014
:101960000846007800286CD0002080490860ADF857
:101970009C018DF89E01002167A8C1700171417121
:101980004FF45050ADF8A201794800788DF8A401C9
:1019900077480088010A67A8417275480068010C01
:1019A00067A8817272480068010E67A8C17203209F
:1019B0008DF8A80112208DF8A90100208DF80C00E7
:1019C00003208DF80D0000208DF80E0034208DF8D6
:1019D0000F00674800788DF8100065480088000AFD
:1019E0008DF8110062480068000C8DF81200604804
:1019F0000068000E8DF813000020059006905D48E9
:101A000000788DF81C005B48008800128DF81D00DE
:101A10009DF8A90103AB67AA4BF6BB3100904AF6CB
:101A2000AA20FFF7B3FE0020ADF89C018DF89E01BF
:101A3000002167A8C1700171417103E0B6E164E063
:101A4000B2E15EE04FF45050ADF8A2014848007892
:101A50008DF8A40146480088010A67A841724448ED
:101A60000068010C67A8817241480068010E67A8F0
:101A7000C17203208DF8A80112208DF8A901002061
:101A80008DF80C0004208DF80D0000208DF80E005C
:101A900034208DF80F00364800788DF81000344857
:101AA0000088000A8DF8110031480068000C8DF89C
:101AB00012002F480068000E8DF8130000200590DA
:101AC00006902C4800788DF81C002A4800880012E7
:101AD0008DF81D009DF8A90103AB67AA4BF6BB3139
:101AE00000904AF6AA20FFF751FE9DF8A90103AB2A
:101AF00067AA4BF6BB3100904AF6AA20FFF746FED4
:101B000002E00120194908604FE19DF8D7009DF8D7
:101B1000D61040EA012034284AD19DF8A9011228A4
:101B200046D19DF8E4009DF8E51040EA01200290BE
:101B3000BDF808004FF6FF71884208D0BDF80800D4
:101B40000C490880022102A8FFF7A8F830E0002025
:101B5000029000242AE000004400024000380140C6
:101B60007C00002020020020360000209801214245
:101B700070000020320000200120A040AD490988FB
:101B8000084088B90120A040AA4909880843A9490A
:101B90000880084600880290022102A8FFF77EF81C
:101BA0004FF42F7000F0B9FA601CC4B20A2CE3DBCA
:101BB000FBE09DF8E40001285DD10020ADF89C0118
:101BC0008DF89E01002167A8C170017141714FF429
:101BD0005050ADF8A201984800788DF8A4019648BD
:101BE0000088010A67A8417293480068010C67A841
:101BF000817291480068010E67A8C17203208DF8B8
:101C0000A80112208DF8A90100208DF80C000420F5
:101C10008DF80D0000208DF80E0034208DF80F0097
:101C2000854800788DF8100083480088000A8DF8F8
:101C3000110081480068000C8DF812007E48006891
:101C4000000E8DF81300002005900690794800786A
:101C50008DF81C007748008800128DF81D009DF853
:101C6000A90103AB67AA4BF6BB3100904AF6AA2044
:101C7000FFF78CFD97E09DF8E4000228FAD10020E0
:101C8000ADF89C018DF89E01002167A8C17001711B
:101C900041714FF45050ADF8A201674800788DF8BB
:101CA000A40165480088010A67A84172624800687B
:101CB000010C67A8817260480068010E67A8C172B4
:101CC00003208DF8A80132208DF8A90100208DF89D
:101CD0000C0004208DF80D0000208DF80E0034203B
:101CE0008DF80F00544800788DF810005248008895
:101CF000000A8DF8110050480068000C8DF81200A1
:101D00004D480068000E8DF81300002005900690E5
:101D10004A480088ADF81C0049480088ADF81E000C
:101D200048480088ADF8200047480088ADF82200F8
:101D300046480088ADF8240045480088ADF82600E4
:101D400044480088ADF8280043480088ADF82A00D0
:101D500042480088ADF82C0041480088ADF82E00BC
:101D600040480088ADF830003F480088ADF83200A8
:101D70003E480088ADF834003D480088ADF8360094
:101D80003C480088ADF838003B480068CDF83A0080
:101D90009DF8A90103AB67AA4BF6BB3100904AF648
:101DA000AA20FFF7F3FC00E000BF00BF01206BB0EA
:101DB00030BD10B50024002240F224412F4800F02D
:101DC000C8FE002202212E4801F0C5F800BF22E023
:101DD00004EBC40101EB04122A4901EBC200FFF736
:101DE00083FA012815D104EBC40101EB0412254943
:101DF00001EBC200FFF77AFD50B104EBC40000EB29
:101E00000411204800EBC100002101604160018104
:101E100003E0601CC4B2062CDADB00BF0122022101
:101E2000174801F098F8012240F22441134800F0CD
:101E300090FE10BD32000020700000201000002035
:101E400012000020140000201600002018000020BE
:101E50001A0000201C0000201E000020200000208E
:101E60002200002024000020260000200600002080
:101E7000080000200A0000200C000020003801406B
:101E800044000240D006002008B501210C2000F0DB
:101E900021FD0121084600F01DFD0121294800F027
:101EA0002EFB0121284800F02AFB2020ADF800007D
:101EB00010208DF8030003208DF8020069462348A6
:101EC00000F04CFA4020ADF8000010208DF803001F
:101ED00003208DF8020069461D4800F03FFA49F6DC
:101EE0009010ADF8000048208DF8030069461848AE
:101EF00000F034FA47F20300ADF8000048208DF8F6
:101F000003006946114800F029FA4FF47070ADF8EB
:101F1000000010208DF8030003208DF802006946B0
:101F20000A4800F01BFA00200A49086001200A490B
:101F3000C1F8A4010949086008BD10B5FFF7A4FF66
:101F400010BD00000001300000023000000C014014
:101F500000080140A48121420080214298012142D1
:101F60002DE9F04707460C4615461E46DDE908896F
:101F70000021384600F0E3FF384600F013FF134815
:101F800004604560C0F80880C66000200F49086101
:101F90008020486100208861C8610846C0F8209010
:101FA0004FF44050486200208862384600F09CFFA1
:101FB000BDE8F08770B504460D462946204600F07E
:101FC000D3FF0121204600F0BAFF70BDFC160020AF
:101FD0007FB505460C460121084600F088FCADF8A7
:101FE0000850ADF804400020ADF80A00ADF8060036
:101FF00001A94FF0804001F0D3F80122114690076B
:1020000001F045FC1C208DF8000000208DF8010037
:1020100003208DF8020001208DF80300684600F0CF
:10202000D4F80121880701F017FC7FBD10B500210D
:102030004FF0804001F010FC10BD10B50121880761
:1020400001F00AFC10BD10B50121880701F0CDFE9A
:10205000F0B10121880701F0D9FEFEF7F1FFFFF78B
:102060006DFA0C480088401C0A4908800A4800881C
:10207000401C094908800948008820B907480088A1
:102080000649088004E005480088401E034908808E
:1020900010BD00002E0000202A0000202C0000208F
:1020A00010B56FF0040000F0DAF82E4800682E49F1
:1020B000B0FBF1F02D4908700846007800EB4001B4
:1020C000C1EBC0104FF6FF7101EAC000284908803B
:1020D00010BD0146254A12784A434FF0E0235A6169
:1020E00000229A611A46126942F001021A6100BF89
:1020F0004FF0E022106900F001021AB100F48032C2
:10210000002AF5D04FF0E022126922F001024FF0D0
:10211000E0231A6100229A6170470146144A12882E
:102120004A434FF0E0235A6100229A611A4612692D
:1021300042F001021A6100BF4FF0E022106900F086
:1021400001021AB100F48032002AF5D04FF0E022EB
:10215000126922F001024FF0E0231A6100229A6115
:10216000704700004400002000127A005800002050
:102170005A00002010B54FF4A06000F021F810BD07
:102180000948804709480047FEE7FEE7FEE7FEE70B
:10219000FEE7FEE7FEE7FEE7FEE7FEE70448054947
:1021A000054A064B70470000AB080008ED00000828
:1021B00088170020881D0020881900208819002019
:1021C00031490143314A1160704770B50021002345
:1021D0000F22C47804B32D4C246804F4E064C4F5E1
:1021E000E064210AC1F10403CA40447804FA03F10F
:1021F0008478144021430901254C0678A1550478C0
:1022000004F01F050124AC4005786D11AD0005F107
:10221000E025C5F8004109E0047804F01F05012419
:10222000AC401C4D0678761145F8264070BD1A4A20
:102230000A400243154B1B1F1A60704739B1134AFD
:10224000121D12680243114B1B1D1A6006E00F4A53
:10225000121D126882430D4B1B1D1A607047042823
:1022600008D14FF0E021096941F004014FF0E0226C
:10227000116107E04FF0E021096921F004014FF0FE
:10228000E0221161704700000000FA050CED00E04B
:1022900000E400E080E100E080FFFF1F10B504468D
:1022A000CC48844208D10121042000F02DFB0021FC
:1022B000042000F029FB46E0C748844208D10121F0
:1022C000082000F021FB0021082000F01DFB3AE06F
:1022D000C248844208D10121102000F015FB0021E2
:1022E000102000F011FB2EE0BD48844208D10121EE
:1022F000202000F009FB0021202000F005FB22E057
:10230000B848844208D10121402000F0FDFA0021A4
:10231000402000F0F9FA16E0B348844208D10121C8
:10232000802000F0F1FA0021802000F0EDFA0AE0B0
:10233000AE48844207D10121801500F0E5FA002162
:10234000A01500F0E1FA10BD10B50121084600F01B
:10235000DBFA0021012000F0D7FA10BD2DE9F04191
:10236000024600250026002000230024002791F8C3
:1023700003C00CF00F0591F803C00CF0100CBCF179
:10238000000F03D091F802C04CEA050591F800C097
:10239000BCF1000F31D0146800202BE04FF0010C8D
:1023A0000CFA00F3B1F800C00CEA03069E4220D1FB
:1023B00083004FF00F0C0CFA03F7BC4305FA03FC43
:1023C0004CEA040491F803C0BCF1280F06D14FF089
:1023D000010C0CFA00FCC2F814C00AE091F803C02A
:1023E000BCF1480F05D14FF0010C0CFA00FCC2F80B
:1023F00010C0401C0828D1D31460B1F800C0BCF153
:10240000FF0F34DD546800202EE000F1080C4FF07F
:10241000010808FA0CF3B1F800C00CEA03069E426A
:1024200021D183004FF00F0C0CFA03F7BC4305FADF
:1024300003FC4CEA040491F803C0BCF1280F05D159
:1024400000F1080C08FA0CF8C2F8148091F803C0E7
:10245000BCF1480F07D100F1080C4FF0010808FA51
:102460000CF8C2F81080401C0828CED35460BDE898
:10247000F0814FF6FF710180022181700421C1704B
:1024800070470246002093680B400BB1012000E02A
:10249000002070470146886880B2704702460020DD
:1024A000D3680B400BB1012000E0002070470146CB
:1024B000C86880B2704701617047416170470AB1D6
:1024C000016100E041617047C16070474FF48032A4
:1024D0000A43826181618261826982697047024632
:1024E0000020434B18684FF68073184040EA0210F2
:1024F00008433F4B186070473E49C8617047F0B5CC
:102500000A46002300240021002500F00046B6F111
:10251000004F02D1364EF16901E0354E7168C0F3CB
:10252000034583B200F44016B6F5401F08D121F0F0
:1025300070612F4E766826F070662D4F7E6012E037
:1025400000F48016B6F5801F06D1032606FA05F4BE
:10255000A14341F0706106E0460D360103FA06F62C
:10256000B14341F0706122B1460D360103FA06F61F
:10257000314300F00046B6F1004F02D11C4EF1612C
:1025800001E01B4E7160F0BD30B500228B071C0FBF
:102590000F2303FA04F2164B08338C1053F824303F
:1025A0009343134C08348D1044F8253023468C1087
:1025B00053F824308C07240F00FA04F423430C4C06
:1025C00008348D1044F8253030BD0A49DC310860EC
:1025D0007047000000080140000C0140001001405D
:1025E0000014014000180140001C0140002001407F
:1025F0000000014000002042DF48006840F0010078
:10260000DD49086008464068DC490840DA4948600E
:1026100008460068DA490840D7490860084600685B
:1026200020F4802008600846406820F4FE004860DE
:102630004FF41F0088607047CF49096821F480314A
:10264000CD4A11601146096821F480211160B0F56E
:10265000803F03D0B0F5802F0ED106E0C64909684F
:1026600041F48031C44A116007E0C349096841F46C
:10267000A021C14A116000E000BF00BF704710B543
:1026800001460022002300204A11012A02D1BA4C3F
:10269000236806E0022A02D1B74C236A01E0B64C57
:1026A000636A01F01F02012494401C400CB1012018
:1026B00000E0002010BD38B5002000900024002567
:1026C00000BF3120FFF7DBFF05460098401C00905B
:1026D0000098B0F5A06F01D0002DF2D03120FFF7A7
:1026E000CEFF08B1012400E00024204638BD014699
:1026F0000020A14A106820F0F80040EAC1001060F4
:102700007047A04908607047024600209A4B5868FD
:1027100020F47C1042EA01031843974B586070473D
:1027200098490866704701460020934A506820F097
:1027300003000843506070478F48406800F00C0069
:102740007047014600208C4A506820F0F000084392
:102750005060704701460020874A506820F4E060CE
:1027600008435060704701460020834A506820F4B7
:10277000605040EAC1005060704729B17E4A527AE9
:1027800002437D4B5A7204E07B4A527A82437A4B71
:102790005A7270477B49D831086070470146002063
:1027A000754A506820F4404008435060704700214B
:1027B000714A20321170704A82F82010012802D02C
:1027C00004280AD104E001216B4A2032117005E08F
:1027D0000521694A2032117000E000BF00BF704738
:1027E0006949086070476449096A0143624A116295
:1027F0007047654944390860704730B500210022B0
:10280000002400235C4D6D6805F00C0121B1042902
:1028100005D0082923D105E05C4D056022E05B4D21
:1028200005601FE0544D6D6805F47012524D6D68DF
:1028300005F48034022505EB92421CB9544D5543F2
:1028400005600BE04C4D6D6805F400351DB1504D31
:102850005543056002E04D4D5543056002E04B4D88
:10286000056000BF00BF444D6D6805F0F001090927
:10287000484D6B5C0568DD4045603F4D6D6805F473
:10288000E061090A434D6B5C4568DD4085603A4D67
:102890006D6805F46051C90A3E4D6B5C4568DD40CA
:1028A000C560354D6D6805F44041890B3A4D6B5C50
:1028B000C568B5FBF3F5056130BD29B12E4A5269F3
:1028C00002432D4B5A6104E02B4A526982432A4B42
:1028D0005A61704729B1284A92690243264B9A618E
:1028E00004E0254A92698243234B9A61704729B1DB
:1028F000214AD2690243204BDA6104E01E4AD269C0
:1029000082431D4BDA61704729B11B4AD2680243EA
:10291000194BDA6004E0184AD2688243164BDA6039
:10292000704729B1144A12690243134B1A6104E03B
:10293000114A12698243104B1A617047124940399B
:10294000086070470F49C86470470B49C8717047E9
:102950000948406A40F08070074948627047014664
:102960000020054A92680A400AB1012000E00020D8
:102970007047014988727047001002400000FFF85C
:10298000FFFFF6FE000042428004424200127A003D
:1029900000093D005C0000206C00002010B50446DA
:1029A000FB48844209D101218803FFF7ADFF0021D4
:1029B0004FF48040FFF7A8FF32E0F648844209D187
:1029C00001214804FFF7ADFF00214FF40030FFF76D
:1029D000A8FF25E0F048844209D101218804FFF7CF
:1029E000A0FF00214FF48020FFF79BFF18E0EB4889
:1029F000844209D10121C804FFF793FF00214FF45D
:102A00000020FFF78EFF0BE0E548844208D101214A
:102A10000805FFF786FF00214FF48010FFF781FFC4
:102A200010BD2DE9F04786B005460E460024A246AB
:102A300000BFA1460027B08900B100BF2F462C8AF5
:102A40004CF6FF700440F08804432C82AC894EF6AB
:102A5000F3100440B0883189084371890843044366
:102A6000AC81AC8A4FF6FF400440B0890443AC828D
:102A700001A8FFF7C2FEC648874202D1DDF810A0C8
:102A800001E0DDF80CA0A88900F4004040B10AEB99
:102A9000CA0000EB0A1031684900B0FBF1F807E00A
:102AA0000AEBCA0000EB0A1031688900B0FBF1F8AC
:102AB0006420B8FBF0F004012009642101FB1089B7
:102AC000A88900F4004040B1322000EBC900B0FBFF
:102AD000F1F000F00700044308E0322000EB091099
:102AE0006421B0FBF1F000F00F0004432C8106B02C
:102AF000BDE8F0874FF41651016000218180C1804C
:102B000001810C21418100218181704710B502466D
:102B10000020108A4FF2FF0318400B884C88234393
:102B20008C882343CC8823431843108210BD002196
:102B3000018041808180C180704721B1828942F447
:102B40000052828104E082894DF6FF731A4082812F
:102B50007047F0B50346002400260025002040F60B
:102B60006A17B94200D100BF1846C1F3421401F000
:102B70001F06012707FA06F5012C01D10C3004E0ED
:102B8000022C01D1103000E014301AB107682F4335
:102B9000076002E00768AF430760F0BD1AB1838A9F
:102BA0000B43838202E0838A8B4383827047028ACD
:102BB0004FF6F0731A400282028A0A43028270477B
:102BC00082894FF2FF731A40828182890A4382818F
:102BD000704721B1828942F00202828104E0828939
:102BE0004FF6FD731A4082817047028A4FF6DF73F9
:102BF0001A400282028A0A430282704721B1028A85
:102C000042F48042028204E0028A4BF6FF731A40CB
:102C100002827047C1F308028280704701468888AB
:102C2000C0F308007047818941F00101818170473C
:102C3000028BD2B20283028B42EA012202837047E6
:102C4000028B02F47F420283028B0A4302837047A5
:102C500021B1828A42F02002828204E0828A4FF609
:102C6000DF731A408282704721B1828A42F01002DB
:102C7000828204E0828A4FF6EF731A4082827047A4
:102C800021B1828A42F00802828204E0828A4FF6F1
:102C9000F7731A408282704721B1828942F4004260
:102CA000828103E08289C2F30E028281704721B1E2
:102CB000828A42F40062828204E0828A4FF2FF73C9
:102CC0001A4082827047828A4FF6FB731A408282D2
:102CD000828A0A438282704721B1828A42F00202CC
:102CE000828204E0828A4FF6FD731A408282704726
:102CF00002460020B1F5007F00D100BF13880B40D1
:102D00000BB1012000E00020704701F40072B2F521
:102D1000007F00D100BFCA430280704770B50246F1
:102D2000002400230025002040F66A16B14200D19D
:102D300000BFC1F3421501F01F03012606FA03F399
:102D4000012D02D19689334006E0022D02D1168A68
:102D5000334001E0968A33400C12012606FA04F44F
:102D60001688344013B10CB1012000E0002070BD82
:102D700010B50022002340F66A14A14200D100BF22
:102D80000A1201249440A3B2DC43048010BD000069
:102D9000003801400044004000480040004C004022
:102DA0000050004001684FF6FE72114001600021A2
:102DB000016041608160C1608D49884208D18C49C1
:102DC0000839496841F00F01894A083A51608AE0A0
:102DD00087491431884208D185490839496841F04A
:102DE000F001834A083A51607DE0814928318842E8
:102DF00008D17F490839496841F470617C4A083A32
:102E0000516070E07A493C31884208D178490839EC
:102E1000496841F47041764A083A516063E0744968
:102E20005031884208D172490839496841F470210B
:102E30006F4A083A516056E06D496431884208D1C2
:102E40006B490839496841F47001694A083A516090
:102E500049E067497831884208D1654908394968AD
:102E600041F07061624A083A51603CE06149884231
:102E700006D1011F096841F00F01021F116032E005
:102E80005C491431884208D15A49091F096841F048
:102E9000F001584A121F116025E056492831884236
:102EA00008D15449091F096841F47061514A121F41
:102EB000116018E04F493C31884208D14D49091F43
:102EC000096841F470414B4A121F11600BE04949F7
:102ED0005031884207D14749091F096841F47021E0
:102EE000444A121F1160704710B50022026847F66D
:102EF000F0739A430C6A8B6823430C6923434C6933
:102F000023438C692343CC6923434C6A23438C6A53
:102F100023431A430260CB6843600B6883604B68AD
:102F2000C36010BD0021016041608160C16001612A
:102F300041618161C161016241628162704721B179
:102F4000026842F00102026004E002684FF6FE737C
:102F50001A40026070471AB103680B43036002E035
:102F600003688B43036070474160704701464868BF
:102F700080B2704701460020002201F080531BB14F
:102F80001C4B083B1A6802E0194B083B1A6802EA1E
:102F900001030BB1012000E00020704700F08051D8
:102FA00019B11449091F086002E011490839486045
:102FB000704701460020002201F080531BB10D4BE9
:102FC000083B1A6802E00A4B083B1A6802EA010350
:102FD0000BB1012000E00020704700F0805119B1D2
:102FE0000449091F086002E0014908394860704738
:102FF000080002400804024010B50446FE4884421E
:1030000008D10121C014FFF77FFC0021E014FFF775
:103010007BFCC4E0B4F1804F08D101210846FFF7E2
:1030200080FC00210120FFF77CFCB8E0F3488442DB
:1030300008D101210220FFF774FC00210220FFF7D4
:1030400070FCACE0EE48844208D101210420FFF777
:1030500068FC00210420FFF764FCA0E0E9488442FA
:1030600008D101210820FFF75CFC00210820FFF7B0
:1030700058FC94E0E448844208D101211020FFF775
:1030800050FC00211020FFF74CFC88E0DF48844210
:1030900008D101212020FFF744FC00212020FFF768
:1030A00040FC7CE0DA48844208D101214014FFF75B
:1030B0002BFC00216014FFF727FC70E0D548844208
:1030C00009D10121C804FFF71FFC00214FF40020A3
:1030D000FFF71AFC63E0D048844209D101210805BA
:1030E000FFF712FC00214FF48010FFF70DFC56E0B3
:1030F000CA48844209D101214805FFF705FC002197
:103100004FF40010FFF700FC49E0C548844208D1A5
:1031100001214020FFF705FC00214020FFF701FCC2
:103120003DE0C048844208D101218020FFF7F9FB2F
:1031300000218020FFF7F5FB31E0BB48844208D135
:1031400001218015FFF7EDFB0021A015FFF7E9FB3A
:1031500025E0B648844209D101210804FFF7D4FBD9
:1031600000214FF48030FFF7CFFB18E0B0488442D5
:1031700009D101214804FFF7C7FB00214FF40030BB
:10318000FFF7C2FB0BE0AB48844208D10121880461
:10319000FFF7BAFB00214FF48020FFF7B5FB10BD0D
:1031A00000220288944B98420ED0994B98420BD043
:1031B000B0F1804F08D0914B984205D0904B984287
:1031C00002D0904B984204D14FF68F731A404B882F
:1031D0001A438D4B984207D08C4B984204D04FF63F
:1031E000FF431A40CB881A4302808B8883850B8863
:1031F0000385814B98420BD0854B984208D08B4B6E
:10320000984205D08A4B984202D08A4B984201D10D
:103210000B7A038601238382704770B50024002255
:103220000023058C4FF6FE7635400584028C83889A
:10323000048B4FF68F752C40B51E2C400D882C4307
:10324000751E2A400D892A434D882A436A4DA8429B
:103250000BD06F4DA84208D0744DA84205D0744DD4
:10326000A84202D0734DA84213D14FF6F7752A40F9
:103270004D892A434FF6FB752A408D882A434FF625
:10328000FF652B404FF6FF552B408D892B43CD8991
:103290002B4383800483CD888586028470BD70B5FE
:1032A000002400220023058C4FF6EF76354005847C
:1032B000028C8388048B48F6FF752C404FF6FF453F
:1032C0002C400D884FF6FF7606EA05252C434FF675
:1032D000DF752A400D8906EA05152A434D8806EA5E
:1032E00005152A43444DA84202D0494DA8421DD19C
:1032F0004FF67F752A404D894FF6FF7606EA051591
:103300002A434FF6BF752A408D8806EA05152A43E1
:103310004FF6FF352B404FF2FF752B408D8906EAA3
:1033200085052B43CD8906EA85052B4383800483DD
:10333000CD880587028470BD70B50024002200236B
:10334000058C4FF6FF6635400584028C8388848B9C
:103350004FF68F752C404FF6FC752C400D882C4392
:103360004FF6FF552A400D894FF6FF7606EA0525F0
:103370002A434D8806EA05252A431F4DA84202D05C
:10338000234DA8421DD14FF2FF752A404D894FF6BB
:10339000FF7606EA05252A434FF6FF352A408D8839
:1033A00006EA05252A434EF6FF752B404DF6FF75BC
:1033B0002B408D8906EA05152B43CD8906EA0515B4
:1033C0002B4383808483CD888587028470BD70B54C
:1033D000002200230024058C4EF6FF76354005843C
:1033E000038C8488828B48F6FF752A404FF6FF4590
:1033F0002A400D8820E00000002C0140000400401D
:1034000000080040000C0040001000400014004084
:1034100000340140004C0140005001400054014084
:1034200000180040001C0040002000400040014007
:1034300000440140004801404FF6FF7606EA0525AA
:103440002A434DF6FF752B400D8906EA05352B43BF
:103450004D8806EA05352B43FA4DA84202D0FA4DB5
:10346000A84208D14BF6FF752C408D894FF6FF76A8
:1034700006EA85152C4384808283CD88A0F84050CD
:10348000038470BD828B4FF2FF331A408283828B9C
:103490004FF6FF7303EA01231A4382837047F0B5A6
:1034A0000C461546002200210026078C4EF6FF7CB4
:1034B00007EA0C070784828B018C4FF6FF7707EA37
:1034C000043640F6FF473A404FF6FF7707EA0527F4
:1034D0003A434FF6FF7707EA03373A43D94FB842EA
:1034E0000ED0D94FB8420BD0B0F1804F08D0D74F93
:1034F000B84205D0D64FB84202D0D64FB84206D116
:103500004DF6FF77394046F48057394305E047F6DA
:10351000FF57394044F48057394382830184F0BD1A
:10352000828B4FF6F3731A408283828B0A43828325
:103530007047F0B50C461546002200210026078C86
:103540004FF6FF6C07EA0C070784828B018C4FF65D
:10355000FF7707EA04264FF60C773A404FF6FF77DD
:1035600007EA03172F433A43B64FB8420ED0B64F7F
:10357000B8420BD0B0F1804F08D0B44FB84205D05C
:10358000B34FB84202D0B34FB84206D14FF6FF57FF
:10359000394046F48077394305E04FF2FF57394010
:1035A00044F48077394382830184F0BD028B4FF26B
:1035B000FF331A400283028B4FF6FF7303EA0123A5
:1035C0001A4302837047F0B50C46154600220021CD
:1035D0000026078C4FF6EF7C07EA0C070784028B66
:1035E000018C4FF6FF7707EA041640F6FF473A4092
:1035F0004FF6FF7707EA03373A434FF6FF7707EABC
:1036000005273A438F4FB8420ED08F4FB8420BD0A8
:10361000B0F1804F08D08D4FB84205D08C4FB842E2
:1036200002D08C4FB84206D14FF6DF77394046F0D2
:103630001007394305E04FF65F77394044F0100733
:10364000394302830184F0BD028B4FF6F3731A40B5
:103650000283028B0A4302837047F0B50C4615467D
:1036600000220021068C4FF6FE773E400684028B36
:10367000018C4FF60C7632407E1C06EA03162E4370
:103680003243704EB0420ED06F4EB0420BD0B0F10C
:10369000804F08D06D4EB04205D06D4EB04202D082
:1036A0006C4EB04206D14FF6FD76314044F0010633
:1036B000314305E04FF6F576314044F001063143E1
:1036C00002830184F0BD70B505460C465D48854215
:1036D0000ED05D4885420BD0B5F1804F08D05B48D5
:1036E000854205D05A48854202D05A48854200D1C9
:1036F00000E000BF208850B92389A288618828464D
:10370000FFF7ABFFE1882846FFF79EFF25E0208802
:1037100004280AD12389A28861882846FFF753FF2D
:10372000E1882846FFF742FF17E0208808280AD1E1
:103730002389A28861882846FFF7FBFEE188284696
:10374000FFF7EEFE09E02389A28861882846FFF78B
:10375000A6FEE1882846FFF795FE70BD2DE9F041F1
:1037600005460C4600260127608808B9022600E0BD
:103770000026A088012801D1022700E00127208827
:10378000A0B92389A28861882846FFF766FFE188EF
:103790002846FFF759FF23893A4631462846FFF766
:1037A00012FFE1882846FFF701FF13E02389A28872
:1037B00061882846FFF707FFE1882846FFF7F6FEF5
:1037C00023893A4631462846FFF747FFE1882846D5
:1037D000FFF73AFFBDE8F0810A884B881A438B88CF
:1037E0001A43CB881A430B891A434B891A438B8996
:1037F0001A43A0F8442070474FF6FF7181800021E2
:103800000180C180418001727047002101804180A8
:103810008180C180018141818181C1817047002106
:1038200001804180012181800021C1800181704798
:103830000021018041808180C1800181418181819D
:1038400070470000002C014000340140000400409B
:1038500000080040000C004021B1028842F0010243
:10386000028004E002884FF6FE731A40028070471F
:1038700031B1B0F8442042F40042A0F8442005E001
:10388000B0F84420C2F30E02A0F8442070471AB1E9
:1038900083890B43838102E083898B438381704753
:1038A0008182704741EA0203A0F8483070471AB19C
:1038B00083890B43838102E083898B438381704733
:1038C00001894FF6F8721140018170470A460021C4
:1038D00001894FF68F73194011430181704730B54C
:1038E00004460D4629462046FFF7F0FF208940F0A8
:1038F0000700208130BD2DE9F04104460D461646F3
:103900001F46602D06D13B46012231462046FFF777
:103910005AFE05E03B46012231462046FFF79DFE58
:1039200029462046FFF7D2FF208940F0070020817A
:10393000BDE8F08130B50C4600210189C9B24FF6CF
:10394000FF7505EA0325154325432943018130BD51
:103950002DE9F04105460E46174698460024434699
:103960003A4631462846FFF7E5FF2C894FF6F870B6
:10397000044044F007044FF68F70044044F0700494
:103980002C81BDE8F081F0B504460D4616461F4671
:103990003B46324629462046FFF7CCFF208940F4BB
:1039A00080402081F0BD0185828270470A46002157
:1039B00001884FF68F731940114301807047F0B5AD
:1039C0000C4615461E460021002200230189028B69
:1039D000038C4FF6F877394021434FF6FC473A40C5
:1039E00040F201173A434FF6DD773B404FF6FF7741
:1039F00007EA06172F433B43018102830384F0BD8E
:103A00000A460021018B4FF68F7319401143018341
:103A100070470A460021018B48F6FF7319404FF6A4
:103A2000FF7303EA02231943018370470A4600210A
:103A3000818B4FF68F7319401143818370470A467B
:103A40000021818B48F6FF7319404FF6FF7303EA9C
:103A5000022319438183704721B1028842F080021A
:103A6000028004E002884FF67F731A40028070479C
:103A700021B1828842F00402828004E082884FF6FD
:103A8000FB731A408280704721B1828842F008029D
:103A9000828004E082884FF6F7731A408280704774
:103AA00021B1828842F00102828004E082884FF6D0
:103AB000FE731A40828070470A460021018B4FF640
:103AC000F77319401143018370470A460021018BA7
:103AD0004FF2FF7319404FF6FF7303EA02231943B5
:103AE000018370470A460021818B4FF6F773194016
:103AF0001143818370470A460021818B4FF2FF7387
:103B000019404FF6FF7303EA02231943818370477C
:103B10000A460021018B4FF6FB73194011430183C4
:103B200070470A460021018B4FF6FF3319404FF6CC
:103B3000FF7303EA02231943018370470A460021F9
:103B4000818B4FF6FB7319401143818370470A46FE
:103B50000021818B4FF6FF3319404FF6FF7303EAC4
:103B600002231943818370470A460021018B4FF6D7
:103B70007F7319401143018370470A460021018B6E
:103B8000C1F30E014FF6FF7303EA022319430183C9
:103B900070470A460021818B4FF67F73194011430D
:103BA000818370470A460021818BC1F30E014FF6D5
:103BB000FF7303EA02231943818370470A460021F9
:103BC000018C4FF6FD7319401143018470470A467A
:103BD0000021018C4FF6F77319401143018470479F
:103BE0000A460021018C4FF6DF7319404FF6FF7330
:103BF00003EA02131943018470470A460021018C2D
:103C00004FF67F7319404FF6FF7303EA021319430F
:103C1000018470470A460021018C4FF6FF5319407A
:103C20004FF6FF7303EA02231943018470470A46E3
:103C30000021018C4FF2FF7319404FF6FF7303EA26
:103C400002231943018470470A460021018C4DF676
:103C5000FF7319404FF6FF7303EA023319430184DF
:103C6000704730B5002301248C40A3B2048C9C43E0
:103C70000484048C02FA01F5ADB22C43048430BDF7
:103C800030B5002304248C40A3B2048C9C430484EC
:103C9000048C02FA01F5ADB22C43048430BD70B53A
:103CA0000346002000241846183001258D40ACB290
:103CB0001D8CA5431D8409B1082909D100EB6100C1
:103CC000056825F0700505600568154305600EE080
:103CD0000D1FC5F34E052844056825F4E045056031
:103CE00005684FF6FF7606EA02263543056070BD8B
:103CF00021B1028842F00202028004E002884FF6FD
:103D0000FD731A400280704721B1028842F004021C
:103D1000028004E002884FF6FB731A40028070476D
:103D200021B1828842F08002828004E082884FF6CE
:103D30007F731A408280704702884FF6F7731A40EB
:103D4000028002880A430280704782884FF68F7390
:103D50001A40828082880A438280704702894FF627
:103D6000F8731A40028102890A430281704702896E
:103D70004FF67F731A40028102890A43028170471D
:103D800081847047818570478186704701877047BD
:103D900081877047A0F84010704702884FF6FF43B4
:103DA0001A40028002880A43028070470146888ECA
:103DB00070470146088F70470146888F704701465B
:103DC000B1F8400070470146888C70470146088D65
:103DD000704702460020138A0B400BB1012000E01F
:103DE00000207047CA430282704730B50246002067
:103DF00000230024158A05EA0103958905EA0104D8
:103E000013B10CB1012000E0002030BDCA43028292
:103E100070470000002044490860091D0860091D22
:103E20000860091D086041483F4914310860704727
:103E300000213D498279002A3AD00A461268036877
:103E40009A430B461A600A1D126803689A430B1DB9
:103E50001A60027911440A6803681A430A60324AF8
:103E60000832126803689A432F4B08331A601A1DF0
:103E7000126803689A432C4B0C331A604279102A5B
:103E80000ED11A1F126803681A43274B08331A60B1
:103E90001A1D126803681A43234B0C331A600DE095
:103EA0002149427911440A6803681A430A6005E00F
:103EB000027911440A6803689A430A607047002136
:103EC000016001710C214171002181717047164917
:103ED000103109680143144A1032116070470146DD
:103EE0000020114A143212680A400AB1012000E091
:103EF000002070470C4914310860704701460020CB
:103F00000022094B1B6803EA0102074B14331B68AC
:103F10000B4013B10AB1012000E0002070470249B4
:103F2000143108607047000000040140FFFF0F00DB
:103F300010B5044600F076F80068005D000704D56F
:103F4000DF2C02D0A4F1200010BD204610BD032AB2
:103F500040F2308010F0030C00F0158011F8013BA6
:103F6000BCF1020F624498BF11F801CB00F8013B8D
:103F700038BF11F8013BA2F1040298BF00F801CB51
:103F800038BF00F8013B11F0030300F05380083AFA
:103F9000C0F0088051F8043B083A51F804CBA0E87F
:103FA0000810F5E7121D5CBF51F8043B40F8043BD4
:103FB000AFF30080D20724BF11F8013B11F801CB09
:103FC00048BF11F8012B24BF00F8013B00F801CBDA
:103FD00048BF00F8012B70474FF000020429C0F0E1
:103FE000128010F0030C00F05980CCF1040CBCF1ED
:103FF000020F18BF00F8012BA8BF20F8022BA1EB7D
:104000000C0100F04BB85FEAC17C24BF00F8012B23
:1040100000F8012B48BF00F8012B7047704770472C
:104020007047000010B500F05FF8001D10BD00BF24
:10403000B101000010B5203AC0F00B80B1E8185073
:10404000203AA0E81850B1E81850A0E81850BFF482
:10405000F5AF5FEA027C24BFB1E81850A0E8185021
:1040600044BF18C918C0BDE810405FEA827C24BF75
:1040700051F8043B40F8043B08BF7047D20728BF03
:1040800031F8023B48BF11F8012B28BF20F8023B52
:1040900048BF00F8012B70474FF0000200B51346EF
:1040A00094469646203922BFA0E80C50A0E80C5058
:1040B000B1F12001BFF4F7AF090728BFA0E80C5009
:1040C00048BF0CC05DF804EB890028BF40F8042B02
:1040D00008BF704748BF20F8022B11F0804F18BF6F
:1040E00000F8012B70470000004870474817002077
:1040F00000487047281700207546FFF7F9FFAE46C5
:1041000005006946534620F00700854618B020B5E3
:10411000FEF744F8BDE820404FF000064FF00007DE
:104120004FF000084FF0000B21F00701AC46ACE85F
:10413000C009ACE8C009ACE8C009ACE8C0098D46CC
:1041400070470446AFF300802046FCF71FF80000DC
:104150004FF0013C50F8042B51F8043B9A4221D116
:10416000A2EB0C03934313EACC1317D150F8042BA2
:1041700051F8043B9A4215D1A2EB0C03934313EA86
:10418000CC130BD150F8042B51F8043B9A4209D1BF
:10419000A2EB0C03934313EACC13DBD04FF00000E7
:1041A000704700BFD01A01BAB1FA81F101F01801CD
:1041B00022FA01F0CB40C1F12001DBB2C0B2C01A3B
:1041C0002CFA01F3D11A914311EAC311E6D17047D9
:1041D00001491820ABBEFEE7260002007047000030
:1041E00010B500290AD00878002807D0054878447F
:1041F000FFF7AEFF002801D0002010BD0248784430
:1042000010BD00003E000000360000003C430008E6
:10421000000000207000000028010008AC430008E6
:1042200070000020181D000044010008100100006B
:1042300043000000F8FFFFFF004040404040404086
:104240004040414141414140404040404040404069
:10425000404040404040404040050202020202020D
:10426000020202020202020202202020202020205C
:104270002020200202020202020290909090909070
:10428000101010101010101010101010101010102E
:1042900010101010020202020202888888888888A2
:1042A000080808080808080808080808080808088E
:1042B0000808080802020202400000000000000096
:1042C00000000000000000000000000000000000EE
:1042D00000000000000000000000000000000000DE
:1042E00000000000000000000000000000000000CE
:1042F00000000000000000000000000000000000BE
:1043000000000000000000000000000000000000AD
:10431000000000000000000000000000000000009D
:10432000000000000000000000000000000000008D
:10433000000000000000000000000000000000007D
:10434000000000000000000000000000000000006D
:10435000000000000000000000000000000000005D
:10436000000000000000000000000000000000004D
:10437000000000000000000000000000000000003D
:1043800000A24A0400000000000000000102030433
:1043900006070809000000000000000001020304F5
:0C43A000010203040607080902040608D5
:04000005080000ED02
:00000001FF
