:020000040800F2
:100000000071002061030008A10D0008450D0008E3
:10001000850D0008390600085D2B0008000000006F
:10002000000000000000000000000000990200082D
:100030004109000800000000110300084D030008FA
:100040007B0300087B0300087B0300087B03000898
:100050007B0300087B0300087B0300087B03000888
:100060007B0300087B0300087B030008C10700082E
:10007000E1070008010800082108000841080008FD
:1000800061080008810800087B030008592900085E
:10009000712A00083D060008290700087B030008B4
:1000A0007B0300087B0300087B0300087B03000838
:1000B0007B0300087B0300087B0300087B03000828
:1000C0007B0300087B0300087B0300087B03000818
:1000D0007B0300089D1000087B030008AD11000899
:1000E0007B0300087B0300087B0300087B030008F8
:1000F0007B0300087B0300087B0300087B030008E8
:100100007B0300087B0300087B0300087B030008D7
:10011000B10F0008C10F00087B0300087B03000833
:10012000A1080008C1080008E50800080509000842
:1001300000F002F800F05AF80AA090E8000C82449F
:100140008344AAF10107DA4501D100F04FF8AFF27C
:10015000090EBAE80F0013F0010F18BFFB1A43F0A5
:1001600001031847405A0000605A00000A444FF04B
:10017000000C10F8013B13F0070408BF10F8014B06
:100180001D1108BF10F8015B641E05D010F8016B4B
:10019000641E01F8016BF9D113F0080F1EBF10F8AF
:1001A000014BAD1C0C1B09D16D1E58BF01F801CBD2
:1001B000FAD505E014F8016B01F8016B6D1EF9D555
:1001C0009142D6D37047000000230024002500266A
:1001D000103A28BF78C1FBD8520728BF30C148BFAA
:1001E0000B6070471FB51FBD10B510BD00F0E8F9DA
:1001F0001146FFF7F7FF0FB400F00CF80FBC03F047
:10020000DDF900F0D1F803B4FFF7EEFF03BC00F016
:10021000D1F9000004B003F013FA0448002103F000
:10022000B3FA03F01FFA00F0BFF80000A45A000868
:1002300080F309887047EFF309807047684680F3C0
:10024000098804480078C00714BF0220032080F307
:1002500014887047645A0008DFF818C0EFF305836C
:100260001B0618BF6047EFF31483DB0708BF604726
:1002700000DF7047BB380008DFF818C0EFF30583D4
:100280001B0618BF6047EFF31483DB0708BF604706
:1002900000DF7047553B0008EFF30980816911F8D2
:1002A000021CF1B990E80F10E047EFF3098C8CE8DD
:1002B0000700144B93E8060091420FD039B12CE9A6
:1002C000F00FC1F828C00CB403F0E0FF0CBC1A60BA
:1002D000D2F828C0BCE8F00F8CF309886FF0020E4A
:1002E000704710B5084A1268914209D8074C54F873
:1002F000214090E80F10A047EFF3098C8CE80F0025
:1003000010BD0000580100200C0600080C06000873
:1003100003F08EFE0C4B93E80600914210D0EFF3F1
:10032000098C2CE9F00FC1F828C00CB403F0AEFF23
:100330000CBC1A60D2F828C0BCE8F00F8CF3098816
:100340006FF0020E704700005801002004F066F8BC
:10035000E0E7000003F08AFA04F060F8DAE7000052
:100360000948804709480047FEE7FEE7FEE7FEE749
:10037000FEE7FEE7FEE7FEE7FEE7FEE70448054985
:10038000054A064B70470000190F000831010008AC
:10039000006B002000710020006D0020006D002027
:1003A000004870479C6A002010B50446AFF30080F7
:1003B0002046BDE81040FFF726BF30B505460B4686
:1003C0002A4613F8014B12F8010B08B1A042F8D0ED
:1003D0001CB1002802D06D1CF1E7284630BD10B5D5
:1003E000431C02E010F8011B71B18107FAD14FF0F4
:1003F000013202C88C1A8C4314EAC211F9D0C01A17
:100400000A0603D0C01E10BDC01A10BD0A0401D0D8
:10041000801E10BD0902FCD0401E10BD032A40F210
:10042000308010F0030C00F0158011F8013BBCF196
:10043000020F624498BF11F801CB00F8013B38BFAE
:1004400011F8013BA2F1040298BF00F801CB38BFBC
:1004500000F8013B11F0030300F02580083AC0F0DA
:10046000088051F8043B083A51F804CBA0E8081082
:10047000F5E7121D5CBF51F8043B40F8043BAFF3B5
:100480000080D20724BF11F8013B11F801CB48BF0F
:1004900011F8012B24BF00F8013B00F801CB48BF45
:1004A00000F8012B704710B5203AC0F00B80B1E87E
:1004B0001850203AA0E81850B1E81850A0E8185099
:1004C000BFF4F5AF5FEA027C24BFB1E81850A0E8A2
:1004D000185044BF18C918C0BDE810405FEA827CBC
:1004E00024BF51F8043B40F8043B08BF7047D207D3
:1004F00028BF31F8023B48BF11F8012B28BF20F874
:10050000023B48BF00F8012B704702F0FF0343EAAB
:10051000032242EA024200F02CB84FF0000200B57C
:10052000134694469646203922BFA0E80C50A0E816
:100530000C50B1F12001BFF4F7AF090728BFA0E8C4
:100540000C5048BF0CC05DF804EB890028BF40F890
:10055000042B08BF704748BF20F8022B11F0804FD2
:1005600018BF00F8012B70477047704770474FF075
:1005700000020429C0F0128010F0030C3FF4CFAF4A
:10058000CCF1040CBCF1020F18BF00F8012BA8BF7E
:1005900020F8022BA1EB0C01FFF7C1BF5FEAC17C81
:1005A00024BF00F8012B00F8012B48BF00F8012BF5
:1005B0007047000001491820ABBEFEE7260002008C
:1005C0007546FFF7EDFEAE4605006946534620F03E
:1005D0000700854618B020B5FFF7D0FEBDE82040E3
:1005E0004FF000064FF000074FF000084FF0000BEF
:1005F00021F00701AC46ACE8C009ACE8C009ACE8A2
:10060000C009ACE8C0098D46704770470000000083
:1006100010B502460B460020002104E0545C04445F
:10062000E0B24C1CE1B29942F8DB10BD10B502F00B
:1006300061FC02F0A3FC10BD00BFFEE770B53648B8
:10064000407802281ED13548006800F0100058B1EB
:1006500010203249086032480068B0B130480621A5
:1006600002680120904710E02C48006800F0030069
:1006700058B12B48006840B1294802210268012086
:10068000904702E02020254908602448083004688B
:10069000001F056804F0040088B905F4806070B993
:1006A0001E48001D006840F480601C49091D086058
:1006B0001C48006818B11B4801680320884704F0F3
:1006C000020088B905F4007070B91448001D006874
:1006D00040F400701149091D08601248006818B103
:1006E000104801680120884704F0010090B905F422
:1006F000807078B9C4F307405F280BD25F20B0EB5D
:10070000146F07D10548001D006840F4807003494C
:10071000091D086070BD0000420100201064004007
:100720004C0100204801002070B5224800680028D4
:100730003FD021480468001F056804201E49143971
:10074000086004F0040078B105F4806060B11A48D4
:10075000001F006820F480601749091F08601548D1
:1007600001680420884724E004F0020078B105F411
:10077000007060B11048001F006820F400700E493E
:10078000091F08600B4801680320884711E004F046
:10079000010070B105F4807058B10748001F00686F
:1007A00020F480700449091F086002480168022093
:1007B000884770BD48010020186400407047000061
:1007C00010B50548006800F00F0403484460204657
:1007D000FFF7F4FF10BD000000000240704700006A
:1007E00010B505480068C0F30314200102494860B1
:1007F0002046FFF7F3FF10BD0000024070470000E5
:1008000010B505480068C0F303242002024948607F
:100810002046FFF7F3FF10BD0000024070470000C4
:1008200010B505480068C0F303342003024948604E
:100830002046FFF7F3FF10BD0000024070470000A4
:1008400010B505480068C0F303442004024948601D
:100850002046FFF7F3FF10BD000002407047000084
:1008600010B505480068C0F30354200502494860EC
:100870002046FFF7F3FF10BD000002407047000064
:1008800010B505480068C0F30364200602494860BB
:100890002046FFF7F3FF10BD000002407047000044
:1008A00010B50548006800F00F040348001D0460FF
:1008B0002046FFF7F3FF10BD000402407047000020
:1008C00010B506480068C0F3031420010349091D50
:1008D00008602046FFF7F2FF10BD00000004024050
:1008E0007047000010B506480068C0F303242002DA
:1008F0000349091D08602046FFF7F2FF10BD000004
:100900000004024010B50C480068C0F3033434B151
:1009100020030949091D0860204600F00FF8064829
:100920000068C0F3034434B120040349091D086082
:10093000204600F004F810BD0004024070477047E4
:100940007047000018B5002844D0C0F34211C0F32E
:100950000322214B9B6903F001032BB91E4B9B69BA
:1009600043F001031C4CA36100F48053A3B11B4B63
:10097000DB69009300F01F0301FA03F3009C9C4322
:10098000009400F01F0302FA03F3009C234300933A
:10099000124C009BE3611DE0104B5B68009300F07C
:1009A0001F0301FA03F3009C9C43009400F01F0313
:1009B00002FA03F3009C2343009307210022009BCB
:1009C00023EA01630093009B43EA02630093034C14
:1009D000009B636018BD0000001002400000014051
:1009E00001461D48814204D11C488069C0F3800043
:1009F00070471B48814204D118488069C0F3C00089
:100A0000F6E71848814204D114488069C0F3001009
:100A1000EEE71548814204D110488069C0F34010C8
:100A2000E6E71248814204D10C488069C0F3801087
:100A3000DEE70F48814204D108488069C0F3C01046
:100A4000D6E70C48814204D104488069C0F30020F5
:100A5000CEE70020CCE70000000801400010024073
:100A6000000C01400010014000140140001801403A
:100A7000001C0140002001402DE9F0410246002504
:100A80000026002000230024002791F803C00CF06A
:100A90000F0591F803C00CF0100CBCF1000F03D04F
:100AA00091F802C04CEA050591F800C0BCF1000FB6
:100AB00031D0146800202BE04FF0010C0CFA00F349
:100AC000B1F800C00CEA03069E4220D183004FF02B
:100AD0000F0C0CFA03F7BC4305FA03FC4CEA0404C0
:100AE00091F803C0BCF1280F06D14FF0010C0CFAAD
:100AF00000FCC2F814C00AE091F803C0BCF1480F32
:100B000005D14FF0010C0CFA00FCC2F810C0401CDB
:100B10000828D1D31460B1F800C0BCF1FF0F34DD58
:100B2000546800202EE000F1080C4FF0010808FA8C
:100B30000CF3B1F800C00CEA03069E4221D18300F9
:100B40004FF00F0C0CFA03F7BC4305FA03FC4CEA18
:100B5000040491F803C0BCF1280F05D100F1080C82
:100B600008FA0CF8C2F8148091F803C0BCF1480FE1
:100B700007D100F1080C4FF0010808FA0CF8C2F890
:100B80001080401C0828CED35460BDE8F0812DE9C8
:100B9000F04105460C46174698460F2C02D9002016
:100BA000BDE8F0812846FFF71BFF18B90121284650
:100BB00000F02AF8B8F1000F10D1022F05D1E86833
:100BC0000121A1408843E86008E0032F06D127F007
:100BD0000107E8680121A1400843E860082C01D220
:100BE0002E4601E0083C2E1D3068A2000F219140E6
:100BF0008843306048EA8700A10088403168084394
:100C000030600120CCE70000002945D0454A9042E1
:100C100006D1454A926942F00402434B9A6180E052
:100C2000424A904206D1404A926942F008023E4B45
:100C30009A6176E03E4A904206D13B4A926942F080
:100C40001002394B9A616CE03A4A904206D1364A1A
:100C5000926942F02002344B9A6162E0364A904237
:100C600006D1314A926942F040022F4B9A6158E016
:100C7000324A904206D12C4A926942F080022A4BB5
:100C80009A614EE02E4A90424BD1274A926942F433
:100C90008072254B9A6144E0224A904206D1224A52
:100CA000926922F00402204B9A613AE01F4A904276
:100CB00006D11D4A926922F008021B4B9A6130E06E
:100CC0001B4A904206D1184A926922F01002164B34
:100CD0009A6126E0174A904206D1134A926922F09F
:100CE0002002114B9A611CE0134A904206D10E4A31
:100CF000926922F040020C4B9A6112E00F4A904236
:100D000006D1094A926922F08002074B9A6108E0F5
:100D10000B4A904205D1044A926922F48072024B38
:100D20009A6170470008014000100240000C014029
:100D3000001001400014014000180140001C014057
:100D40000020014000BFFEE7012482250A490D7002
:100D500000BF14B103F0EEFC00240848007838B15D
:100D600001240020054908700548006802F02EFDA6
:100D7000322002F059FCECE70C0000200F000020AC
:100D80004000002000BFFEE710B50021024802F03D
:100D9000FBFC0249086010BD6857000810000020E5
:100DA0007047000029B1064A92690243044B9A61D8
:100DB00004E0034A92698243014B9A617047000044
:100DC0000010024070B504460D4601200949086034
:100DD00002F02AFC0848294642692046904700BF95
:100DE0004021064801F085F80128F9D10020014989
:100DF000086070BDB0812142A4590008004800403D
:100E000070B504460D25462604EA050020B10121EF
:100E10000648006802F0A0FC04EA060020B10221A6
:100E20000248006802F098FC70BD000040000020FD
:100E300010B500F001F810BD0CB500200190009035
:100E40003348006840F480303149086000BF3048C2
:100E5000006800F4003000900198401C0190009858
:100E600018B90198B0F5A06FF1D12948006800F4D5
:100E7000003010B10120009001E0002000900098A7
:100E8000012843D12348006840F010002149086040
:100E90000846006820F0030008600846006840F03B
:100EA000020008601A4840681949486008464068CE
:100EB00048600846406840F48060486008464068E2
:100EC00020F47C1048600846406840F4E810486010
:100ED0000846006840F08070086000BF0C48006859
:100EE00000F000700028F9D00948406820F00300A5
:100EF000074948600846406840F00200486000BF6B
:100F00000348406800F00C000828F9D10CBD00002F
:100F1000001002400020024010B51348006840F065
:100F200001001149086008464068104908400E4910
:100F30004860084600680E4908400B4908600846AA
:100F4000006820F4802008600846406820F4FE0015
:100F500048604FF41F008860FFF76AFF4FF00060A1
:100F60000449086010BD0000001002400000FFF8B6
:100F7000FFFFF6FE08ED00E030B502460B4600200C
:100F800010E012F8014B6040002109E000F001047C
:100F90001CB18C2484EA600000E040104C1CE1B2DB
:100FA0000829F3DB1C1EA3F10105EBB2E9D130BD2A
:100FB00010B5024801F064F810BD0000EC580008BC
:100FC00010B5024801F05CF810BD0000345900086B
:100FD00010B50F4881680F4888470D480169022005
:100FE00088470B48826A4FF4E13101209047084856
:100FF000826A0121152090470548826A0121162046
:101000009047034842691A2103A0904710BD000091
:101010006C590008DF35000869276D20757361720F
:10102000743120666F72206465627567206C6F672B
:101030000D0A000070B504460D46034A29462046B5
:1010400000F044FB70BD00005C58000808B5024881
:1010500000F04CFF009008BD5C58000808B502483D
:1010600000F054FF009008BD5C58000810B502481D
:1010700000F094FF10BD00005C58000808B502485D
:1010800000F090FF009008BD5C58000810B50248C1
:1010900000F0F2FF10BD00005C58000810B50248D7
:1010A00000F0EEFF10BD00005C58000810B50446CB
:1010B0000249204601F01FF910BD00005C580008ED
:1010C00010B504460249204601F0D2F910BD0000D7
:1010D0005C58000870B504460D46034A2946204670
:1010E00001F0DAFA70BD00005C58000870B50446E3
:1010F0000D46034A2946204601F01FFB70BD000043
:101100005C58000810B504460249204601F059FB1E
:1011100010BD00005C58000870B504460D46164628
:10112000034B32462946204601F099FB70BD000072
:101130005C58000810B5024801F0C6FB10BD000065
:101140005C58000870B504460D46034A29462046FF
:1011500000F0BCFA70BD0000A458000808B50248B1
:1011600000F0C4FE009008BDA458000808B502486D
:1011700000F0CCFE009008BDA458000810B502484D
:1011800000F00CFF10BD0000A458000808B502488C
:1011900000F008FF009008BDA458000810B50248F0
:1011A00000F06AFF10BD0000A458000810B5024806
:1011B00000F066FF10BD0000A458000810B50446FA
:1011C0000249204601F097F810BD0000A45800081D
:1011D00010B504460249204601F04AF910BD00004E
:1011E000A458000870B504460D46034A2946204617
:1011F00001F052FA70BD0000A458000870B5044612
:101200000D46034A2946204601F097FA70BD0000BA
:10121000A458000810B504460249204601F0D1FA4E
:1012200010BD0000A458000870B504460D461646CF
:10123000034B32462946204601F011FB70BD0000E9
:10124000A458000810B5024801F03EFB10BD000094
:10125000A458000810B504460C4881680C4888471B
:101260000A4801690220884708482146826A41F2FB
:101270000100904705480121826A152090470348E4
:101280000121826A1620904710BD0000A459000871
:10129000010E000808B517488168174888471548A7
:1012A0000169022088471348826A4FF4E131012026
:1012B00090471048826A0121152090470D48826AA4
:1012C00001211620904701211020FFF76BFD4FF4FC
:1012D0008060ADF8000003208DF8020010208DF82A
:1012E000030069460548FFF7C7FB01200449086071
:1012F00008BD0000DC590008E1350008001001407D
:10130000A801224270B504460D46034A29462046EC
:1013100000F0DCF970BD0000EC58000808B5024888
:1013200000F0E4FD009008BDEC58000808B5024844
:1013300000F0ECFD009008BDEC58000810B5024824
:1013400000F02CFE10BD0000EC58000808B5024863
:1013500000F028FE009008BDEC58000810B50248C7
:1013600000F08AFE10BD0000EC58000810B50446DD
:101370000249204600F0BFFF10BD0000EC580008F5
:1013800010B504460249204601F072F810BD000075
:10139000EC58000870B504460D46034A294620461D
:1013A00001F07AF970BD0000EC58000870B50446F1
:1013B0000D46034A2946204601F0BFF970BD0000E2
:1013C000EC58000810B504460249204601F0F9F92E
:1013D00010BD0000EC58000870B504460D461646D6
:1013E000034B32462946204601F039FA70BD000011
:1013F000EC58000810B5024801F066FA10BD000074
:10140000EC58000810B50C4881680C4888470A4819
:101410000169022088470848826A4FF4E1310120BF
:1014200090470548826A0121152090470248826A48
:1014300001211620904710BD145A0008E13500081C
:1014400070B504460D46034A2946204600F03EF991
:1014500070BD00003459000808B5024800F046FD90
:10146000009008BD3459000808B5024800F04EFD50
:10147000009008BD3459000810B5024800F08EFDF8
:1014800010BD00003459000808B5024800F08AFD7C
:10149000009008BD3459000810B5024800F0ECFD7A
:1014A00010BD00003459000810B50446024920461A
:1014B00000F021FF10BD00003459000810B50446AB
:1014C0000249204600F0D4FF10BD00003459000846
:1014D00070B504460D46034A2946204601F0DCF863
:1014E00070BD00003459000870B504460D46034A2B
:1014F0002946204601F021F970BD0000345900084A
:1015000010B504460249204601F05BF910BD000009
:101510003459000870B504460D461646034B324652
:101520002946204601F09BF970BD0000345900089F
:1015300010B5024801F0C8F910BD00003459000888
:1015400098B000BF50221F4904A8FEF7ACFF4FF02F
:10155000FF317B2002F00CF901AB07C37B211A4855
:10156000006802F0EDF800BF0A2002F05DF81748AD
:101570008269502104A89047002420E0144850F8C4
:10158000241004A8FEF719FFB8B10A2002F04CF8A5
:10159000104951F8240080470F4951F82400FEF704
:1015A0001EFF05460C4951F8240008494A6929469E
:1015B0009047502104A8FEF7B0FF601CC4B2042C71
:1015C000D2DADBE708580008280100206C5900082F
:1015D0007800002018010020C80000200EB500BFD0
:1015E0006421032002F0C4F88DE8070003F0B4FD85
:1015F0002C4908702C4800682C49D1F8A011884269
:101600000FD02948001D00682949D1F8A41188424B
:1016100007D02548083000682549D1F8A011884234
:101620001BD12448006808B9012000E000201E49B1
:1016300008601F48D0F8A40108B9012000E000208C
:101640001949091D08601A48D0F8A00108B90120FD
:1016500000E000201449083108601748007848B1BC
:101660001648007830B100201449087014490878F1
:1016700003F018FE134800780028B1D01248007813
:101680000A2805DA00200F49087009200E49087061
:101690000B49087803F0FEFC0B480078401E0A490D
:1016A00008709DE7030000208001224200002142D3
:1016B00000002242A001214272000020760000209A
:1016C0000C00002070000020710000202DE9FE4F6A
:1016D00007460D461446206BC07A00F0020018B988
:1016E0004FF0FF30BDE8FE8F00200090804683461B
:1016F000F8B2153806287CD2DFE800F0A3DC032C12
:101700004E6CA5B1606B90F8210010B16FF0010034
:10171000E8E70120616B81F82100616B81F820000E
:101720006068808940F081006168888110E0606BAA
:1017300090F8200060B16068808920F080006168C6
:1017400088810020616B81F82000616B81F82100A5
:101750000020C7E76068808920F0C0006168888148
:10176000A06A88B1606B90F8210068B16068808AD7
:1017700020F0800061688882A16A0868016821F011
:101780000101016000BF00BF0020616B81F82000F3
:10179000616B81F82100A5E76068808920F0200056
:1017A00061688881E06A80B1206B407968B16068C7
:1017B000808A20F0400061688882E16A08680168D8
:1017C00021F00101016000BF00BF0021206B4171C9
:1017D000002087E76068808920F0E00061688881E8
:1017E000A06A98B1606B90F8210078B16068808A37
:1017F00000E0C2E020F0800061688882A16A086889
:10180000016821F00101016000BF00BFE06A80B102
:10181000206B407968B16068808A20F04000616880
:101820008882E16A0868016821F00101016000BF57
:1018300000BF0021206B41710020616B81F8210005
:1018400050E7E06810B94FF0FF304BE7BDB1206BB7
:10185000C068062806D0E268918803231068022237
:10186000FFF795F9206BC07A40F00800216BC87231
:101870006068808940F008006168888118E06068CD
:10188000808920F0080061688881206BC07A20F090
:101890000800216BC872206BC068062808D0E06879
:1018A00030B1E2689188002310681A46FFF76FF99B
:1018B000002017E7206910B94FF0FF3012E7E5B3B9
:1018C000206BC06806280AD0206BC068042806D0A8
:1018D00022699188002310680122FFF758F9206BD4
:1018E000C07A40F01000216BC8726068808A40F0B6
:1018F0000100616888826068008A40F04000616889
:1019000008826068808940F0100061688881206BDF
:10191000407918B1E06A08B1012000E0002028B940
:101920006068808940F020006168888160688089F3
:1019300040F00400616888811DE0FFE760688089ED
:1019400020F0040061688881206BC07A20F01000CC
:10195000216BC872206BC06806280CD0206BC06851
:10196000042808D0206930B12269918800231068CA
:101970001A46FFF70CF90020B4E600BF00BF206B49
:10198000407918B9606B90F8210010B16FF0010038
:10199000A8E66068808900F0080038B160680088B7
:1019A00000F0400010B96FF001009BE6F8B2152876
:1019B00072D2DFE800F0C90B0E1D20252AC9C9C963
:1019C000C9C9C9C9C9C9373B697EB800012002909D
:1019D000BDE02078C0F3400020B148F4006848F42E
:1019E000807802E06FF006007CE602200290AEE014
:1019F0006FF0060076E64BF0080B04200290A6E09C
:101A00004BF0020B05200290A1E02078C0F34010BB
:101A100010B14BF0200B02E06FF0060062E60620EA
:101A2000029094E0616B4D8300205BE6206BC06800
:101A3000052824D015B36068808A40F004006168EE
:101A40008882D4F808A0FE48B0FBFAFA012605E027
:101A50000AFB06F0A84200D902E0761CFF2EF7D957
:101A600000BFB6F5807F02D14FF0FF303AE66068E4
:101A7000008B20F0FF0030436168088302E04FF0E4
:101A8000FF302FE600202DE6206BC06806280BD122
:101A9000FF2D02D9C01F25E656E06068008BC0B25A
:101AA00028436168088302E04FF0FF301AE6002007
:101AB00018E6206BC068062830D1D4F808A0E048AA
:101AC000B0FBFAFA012619E00AFB06F04000642197
:101AD000484305EB051101EB4101B0EB410F0CD27E
:101AE0000AFB06F040006421484305EB051101EBB9
:101AF0004511B0EB410F00D902E0761C402EE3D334
:101B000000BF402E02D14FF0FF30EBE56068008B44
:101B100020F0FF0030436168088302E04FF0FF309F
:101B2000E0E50020DEE5206BC068062807D14DB156
:101B30006068808A40F010006168888202E04FF09F
:101B4000FF30CFE50020CDE56FF00300CAE500BF10
:101B500007F4E06060B1B0F5807F13D0B0F5E06FBE
:101B60001DD107F4405010B96FF00800BAE519E034
:101B700007F4405028B148F02008009840F4805005
:101B800000900FE007F4405010B16FF00800A9E595
:101B900048F02008009840F48050009002E06FF078
:101BA00008009FE500BF07F4405030B1B0F5805FFA
:101BB00004D0B0F5005F0BD105E00CE0009840F4D4
:101BC0008060009007E0009840F4C060009002E060
:101BD0006FF0090086E500BF07F4404048B1B0F55A
:101BE000804F07D0B0F5004F07D0B0F5404F0AD175
:101BF00006E00BE048F4005808E048F4405805E0DF
:101C000048F4805802E06FF00A006BE500BF07F46B
:101C1000403048B1B0F5803F09D0B0F5003F13D057
:101C2000B0F5403F2ED11CE04FF000092DE02078A8
:101C3000C0F3C01020B14FF480394BF4807B02E038
:101C40006FF00B004EE520E02088C0F3002020B1AB
:101C50004FF400394BF4C06B02E06FF00B0041E52C
:101C600013E02078C0F3C01040B12088C0F30020FA
:101C700020B14FF440394BF4E06B02E06FF00B0001
:101C800030E502E06FF00B002CE500BF029802285F
:101C90001DD107F4802018B1B0F5802F04D100E0E9
:101CA00005E048F4806802E06FF00C001AE500BF20
:101CB00007F4002018B1B0F5002F04D100E005E0D2
:101CC00048F4007802E06FF00D000BE500BFA0685B
:101CD00000EBC00101EB0010A900B0FBF1F06421A2
:101CE000B0FBF1F1A06800EBC00202EB0010AA000B
:101CF000B0FBF2F0A26802EBC20303EB0212AB00EE
:101D0000B2FBF3F26423B2FBF3F202EBC20303EB88
:101D10000212A0EB8200322202EB00106422B0FB20
:101D2000F2FA61F31F1AA06800011FFA8AF1B0FBF2
:101D3000F1F00009019064210198484305EB051179
:101D400001EB4101B0EB410F09D2642101984843F6
:101D500005EB051101EB4511B0EB410F02D86FF017
:101D60000700BFE46068808920F4005061688881C2
:101D70006168A1F808A00298216BC860206BC0F8C8
:101D80001090206BC068062809D1E06830B1E26885
:101D90009188032310680222FEF7F9FE17E0206BFA
:101DA000C07A00F0080048B1E06880B1E26891882C
:101DB000032310680222FEF7EAFE08E0E06830B173
:101DC000E2689188002310681A46FEF7E0FE00BF23
:101DD000206BC068042802D006280BD100E000BFA9
:101DE000206930B122699188002310681A46FEF7F5
:101DF000CEFE18E0206BC07A00F0100048B12069D8
:101E000080B122699188002310680122FEF7BFFE8D
:101E100008E0206930B122699188002310681A46D1
:101E2000FEF7B5FE00BF00BF6069D0B1206BC0688F
:101E3000022802D006280BD100BF6269918801E018
:101E400000CA9A3B032310680222FEF7A0FE07E0B7
:101E500062699188002310681A46FEF798FE00BF59
:101E600000BFA069A0B1B9F5803F02D0B9F5403FED
:101E700007D1A2699188032310680222FEF787FE2A
:101E800006E0A2699188002310681A46FEF77FFEDB
:101E9000E069A0B1B9F5003F02D0B9F5403F07D1E4
:101EA000E2699188002310680122FEF770FE06E0C7
:101EB000E2699188002310680122FEF768FE00980D
:101EC000616888816168A1F810806168A1F814B028
:101ED0006068808940F4005061688881206BC07A16
:101EE00040F00400216BC872002011E4014608682C
:101EF000704702460020B1F5007F00D100BF138873
:101F00000B400BB1012000E0002070470CB50146EA
:101F1000019820F001000190086B006920B1086B66
:101F20000069B0F5803F0ED1C86960B1CB6998886F
:101F30001A689368C34003F0010323B9019820F0A5
:101F40000100401C0190019820F0020001900198CE
:101F500020F008000190019820F004000190019801
:101F6000009A60F30002009201984208009862F320
:101F70004100009001988208009862F3820000906E
:101F80000198C208009862F3C3000090019802090A
:101F9000009862F31F10009000980CBD0146486B3A
:101FA000006970470CB50146486B90F8210028B1D4
:101FB000019820F00100401C019008E0486800886A
:101FC000012222EA9012019862F300000190086B4E
:101FD0004279019862F341000190086B827901987F
:101FE00062F382000190086BC279019862F3C3002A
:101FF0000190086B027A019862F304100190086B5B
:10200000427A019862F345100190086B827A019838
:1020100062F3861001900198009A60F3000200922A
:1020200001984208009862F34100009001988208EC
:10203000009862F3820000900198C208009862F351
:10204000C300009001980209009862F30410009008
:1020500001984209009862F34510009001988209A6
:10206000009862F3861000900198C209009862F30C
:10207000DF10009000980CBD0146486B4069704726
:102080002DE9F04104466068068800270025A8462F
:1020900006F02000616889890840002860D0206B24
:1020A000407938B9606880880121206BC17145F0A2
:1020B000200555E0206BC068022806D1606BC0691E
:1020C000012802D16068808802E06068B0F804806E
:1020D000606B8268501C636B986082F80080606857
:1020E000878907F4806050B907F4805038B14FEA0F
:1020F0002821606B8268501C636B98601170606B64
:102100000069401C616B0861606B0069616B096864
:10211000884225D16068808920F01000616888813C
:102120000021206B4171206BC068022816D1606BC2
:10213000C7690020616BC861012F04D0022F05D050
:10214000032F09D105E045F0010506E045F0020541
:1021500003E045F0040500E000BF01E045F00205A2
:1021600006F0100061688989084030B16068808895
:102170000021206B417145F0400506F08000616848
:1021800089890840002863D0606B90F8200030B146
:102190006068808940F001006168888158E0606B68
:1021A0004068616B4969884222D0206BC068022870
:1021B00007D1606BC069022803D1606BB0F81A8048
:1021C00016E0606BC168481C626BD06091F80080BB
:1021D0006068878907F4806050B907F4805038B18F
:1021E000606BC168481C626BD060087848EA0028C0
:1021F000606B4069401C616B48616068A0F80480B6
:10220000606B4068616B4969884221D16068808950
:1022100020F08000616888816068808940F040001B
:10222000616888810020616B81F82100206BC068A3
:1022300002280BD1606BC069012809D1206BC07ADC
:1022400000F0100020B945F0010501E045F001055E
:1022500006F0400061688989084038B1606880896B
:1022600020F040006168888145F0080506F008000C
:1022700030B1606880880121206BC17145F0200574
:1022800006F0020030B1606880880121206B417245
:1022900045F4807506F0010030B160688088012146
:1022A000206B817245F4007506F4807050B160684F
:1022B000008820F48070616808800121206B017221
:1022C00045F0800506F4007038B16068008820F49D
:1022D00000706168088045F4806525B1206B006856
:1022E00008B1012000E0002018B1206B01682846E9
:1022F0008847BDE8F08170B505460C46206BC07A72
:1023000000F0010008B1002070BD206B05600020C6
:10231000216B08710021206B4171206B8171206B52
:10232000C171206B0172206B4172206B81720020A1
:10233000216BC860616B81F821002421606BFEF77E
:10234000ECF8608CFEF7FEFAE06820B1E1680868FE
:102350000121FEF759FC206920B12169086801219B
:10236000FEF752FC606920B1616908680121FEF73F
:102370004BFCA06920B1A16908680121FEF744FC6B
:10238000E06920B1E16908680121FEF73DFC012008
:10239000216BC8720020B7E72F49884205D12F4929
:1023A000C96841F480412D4AD1602D49884205D148
:1023B0002A49096941F40031284A116129498842B2
:1023C00005D12649096941F48021244A1161264931
:1023D000884205D12149096941F400211F4A116150
:1023E0002249884205D11D49096941F480111B4ADF
:1023F000116100BF00BF00BF00BF1749884205D16F
:102400001649C96821F48041144AD16014498842B0
:1024100005D11249096921F40031104A11611149AD
:10242000884205D10D49096921F480210B4A1161C7
:102430000D49884205D10949096921F40021074A5B
:1024400011610A49884205D10449096921F48011C2
:10245000024A11617047000000380140001002403C
:102460000044004000480040004C00400050004044
:1024700070B505460C4625B1012D71D0022D6ED1E7
:1024800071E06068FFF788FF94F92400002817DBEB
:1024900000F01F0201219140774A430942F82310BE
:1024A00000BF00BF00BFBFF34F8F00BF00BF00BF22
:1024B00000BF00BF00BFBFF36F8F00BF00BF00BFF2
:1024C00000BF6E496068884205D16D48806920F47C
:1024D00080406B4988616B496068884205D16848D3
:1024E000C06920F400306649C86167496068884265
:1024F00005D16348C06920F480206149C8616349FF
:102500006068884205D15E48C06920F400205C49BB
:10251000C8615F496068884205D15948C06920F4A4
:1025200080105749C8610020216B08710021206B81
:102530004171206B8171206BC171206B0172206B26
:102540004172206B81720020616B81F82100206B49
:10255000C07A20F00200216BC8728AE000E085E0BA
:102560006FF0030070BD206BC07A00F0010010B95D
:102570004FF0FF30F6E7206BC07A00F0020008B1A0
:102580000020EFE70020216B08710021206B4171D2
:10259000206B8171206BC171206B0172206B4172C5
:1025A000206B81720020616B81F82100616B488390
:1025B000616BC861616B81F82000216BC860216B81
:1025C00008610320216BC8722C496068884205D1DC
:1025D0002B48806940F48040294988612949606816
:1025E000884205D12648C06940F400302449C861BA
:1025F00025496068884205D12148C06940F480209F
:102600001F49C86121496068884205D11C48C069DA
:1026100040F400201A49C8611D496068884205D10C
:102620001748C06940F480101549C86194F9240026
:10263000002807DB00F01F0201219140154A4309E1
:1026400042F8231000BF94F92400002809DB00F0B1
:102650001F02012191404209920002F1E022C2F8DA
:10266000001100BF6068FFF797FE02E06FF0030003
:1026700078E700BF002075E780E100E00038014006
:10268000001002400044004000480040004C004060
:102690000050004080E200E02DE9F04105460E4682
:1026A000144605B11EB96FF00400BDE8F081206B3F
:1026B000C07A00F0040010B94FF0FF30F5E7206B4E
:1026C0004079012801D1C01EEFE76068808920F0C1
:1026D000200061688881606B06600021206B0172B8
:1026E000206B4172206BC171206B8172606B8560C1
:1026F0000020616B08610121206B41716068808955
:1027000040F0300061688881206BC068022812D1D7
:10271000606BC06978B90220616BC861616B01F1BF
:102720001A002246314600F008F80746B81C10B9D6
:102730006FF00100B9E70020B7E72DE9F041054649
:102740000E46144605B11EB96FF00400BDE8F081D5
:10275000206BC07A00F0040010B94FF0FF30F5E7AD
:10276000606B90F8210010B16FF00100EEE70120DE
:10277000616B81F82100606BC560606B4660002072
:10278000616B4861206BC068022812D1606BC06920
:1027900078B90120616BC861616B01F118002246B4
:1027A0003146FFF779FF0746B81C10B96FF00100FA
:1027B000CCE76068808940F08000616888810020F3
:1027C000C4E770B5044634B1012C22D0022C3FD0AE
:1027D000032C3CD13DE0086B006920B1086B006917
:1027E000B0F5003F11D1886990B18D69AA880123A5
:1027F00028681BB101259540056104E002F1100530
:102800000126AE40066100BF02E04FF0FF3070BD10
:1028100022E0086B006920B1086B0069B0F5003F49
:1028200011D1886990B18D69AA88002328681BB1ED
:1028300001259540056104E002F110050126AE4036
:10284000066100BF02E04FF0FF30E0E704E000BFA8
:1028500000BF4FF0FF30DAE700BF0020D7E72DE9D7
:10286000F04180460E4617461C46B8F1000F01D0D5
:1028700006B11FB96FF00400BDE8F081206BC07A8B
:1028800000F0040010B94FF0FF30F5E7206BC0688E
:10289000022814D10320616BC861224639463046B4
:1028A000FFF7FAFE05460DB12846E5E72246394610
:1028B0004046FFF742FF054625B12846DCE74FF0CA
:1028C000FF30D9E70020D7E710B50446E06830B103
:1028D000E2689188002310681A46FEF758F92069CB
:1028E00030B122699188002310681A46FEF74FF92B
:1028F000606930B162699188002310681A46FEF75A
:1029000046F9A06930B1A2699188002310681A467F
:10291000FEF73DF9E06930B1E26991880023106863
:102920001A46FEF734F9208CFEF70CF80020216BD4
:10293000C87210BD10B5FEF7ADFCFEF763FD10BD0B
:1029400010B5FEF745FB10BD08B5024800680090C1
:1029500008BD00005858000870B54148006800F0F4
:10296000020070B13F488078012807D13E480068D6
:1029700020B13D48012102680220904701203849DA
:1029800008603748006800F4007078B13548C078B6
:10299000012807D13448006820B13348012102687A
:1029A000032090474FF480702D4908602C48006840
:1029B00000F4003078B12B480079012807D12A486B
:1029C000006820B1284801210268042090474FF494
:1029D000803023490860224810300468001F0568D1
:1029E00004F0040088B905F4806070B91C480C300C
:1029F000006840F480601A490C3108601B48006888
:102A000018B11A4801680320884704F0020088B909
:102A100005F4007070B912480C30006840F4007082
:102A20000F490C3108601148006818B10F4801685F
:102A30000120884704F0010088B905F4807070B95E
:102A4000C4F307405F280AD1B0EB146F07D90448DC
:102A50000C30006840F4807001490C31086070BD92
:102A600008640040420100204C0100204801002081
:102A700070B53648007802281ED13548006800F04D
:102A8000100058B110203249086032480068B0B1D7
:102A90003048062102680020904710E02C4800686A
:102AA00000F0030058B12B48006840B129480221CA
:102AB00002680020904702E0202025490860244851
:102AC0000C300468001F056804F0040088B905F4A0
:102AD000806070B91E480830006840F480601C496E
:102AE000083108601C48006818B11B4801680320C1
:102AF000884704F0020088B905F4007070B91448E2
:102B00000830006840F4007011490831086012482C
:102B1000006818B1104801680120884704F00100DE
:102B200090B905F4807078B9C4F307405F280BD2E0
:102B30005F20B0EB146F07D105480830006840F4FF
:102B4000807003490831086070BD00004201002018
:102B50000C6400404C0100204801002000BFFEE74B
:102B6000A0B0642107A8FDF7D8FC00240025C820E8
:102B700000F05AFD0020AC4908600A2000F054FD26
:102B80000120AA49C1F8A8014DE1642107A8FDF779
:102B9000C4FCA7488269402107A890474FF0FF3145
:102BA000022000F0E5FD8DE80700642207A9A14896
:102BB000FDF734FC9F480078AA2832D19D48407820
:102BC000AA287FD19B48807C032862D19948C07C89
:102BD00040BB00209849087093491C390860322096
:102BE00000F022FD01209149C1F88C01322000F053
:102BF0001BFD00208C491C390860322000F014FDB8
:102C000000208A49C1F88C01322000F00DFD864871
:102C10000C38006808B9012000E0002082491C3906
:102C200008604FE08348C07C01284BD100207E49DA
:102C300018390860322000F0F7FC01207B49C1F808
:102C40009001322000F0F0FC00207749183908602C
:102C5000322000F0E9FC00207449C1F890013220D4
:102C600000F0E2FC70481038006808B9012000E06C
:102C700000206D491839086001206F4908706F49BC
:102C800008706F49087003216E48006800F064FD09
:102C900018E06848807C052803D101206A49087043
:102CA00010E06448807C06280CD10120644908703B
:102CB00062490870052000F0B7FC032161480068F4
:102CC00000F04AFD5C48007818B105205F490870A3
:102CD00002E004205D4908705B48007800287DD040
:102CE00000205949087053480078AA2876D15148E5
:102CF0004078AA28FAD1FE2611224E49C91C03A801
:102D0000FDF78CFB9DF819001330C1B24948FEF75E
:102D100033F906469DF8190013304649085CB04265
:102D20007DD108468478AC4200D025469DF8190034
:102D300010304049085CC011454908609DF81900F1
:102D400010303C49085C80113849C1F8A4019DF855
:102D5000190010303749085C4011334908390860C0
:102D60009DF8190010303349085C00112F49C1F853
:102D70009C019DF8190010302E49085CC0102A49AA
:102D8000103908609DF8190010302A49085C80103D
:102D90003049C1F8BC019DF8190010302549085C84
:102DA00040102C49C1F8B8019DF819001030214994
:102DB000085C2849C1F8B4012748D0F8A001C043F5
:102DC0001A49C1F880010846D0F8A401C043C1F8EF
:102DD00084010846D0F8A001C04300E023E0C1F818
:102DE00088010846D0F89C01C043C1F88C01084610
:102DF000D0F89801C043C1F890011648D0F8BC0142
:102E0000C043C1F894011348D0F8B801C043114938
:102E1000C1F880010846D0F8B401C04300E001E0E9
:102E2000C1F8840100BFB0E6A8012242000022429E
:102E3000DC5900080603002072000020700000200A
:102E400076000020680000207700002003000020AA
:102E5000A0012142008021420000214210B5002A39
:102E600006DA22F00042D21D22F00703102203E00E
:102E7000D21C22F003030C2213B19C188C4201D9FE
:102E8000012010BD024401448360C0E90021C91A39
:102E9000D018884202D810600246F9E7002010607E
:102EA00010BD000005490978002905D000684FF6DB
:102EB000FF71DFF80CC000DF7047000051010020F7
:102EC000B93F000804490978002903D00068DFF8F9
:102ED0000CC000DF7047000051010020E13E0008F7
:102EE000014601F00F020B1103EB830302EB4302D7
:102EF000D0B270470748006840F08070054908600C
:102F00000020054948600846006840F0010008605C
:102F100070470000FCED00E0001000E00848006889
:102F2000C0010BD507480068C00707D005488038A6
:102F30000068002802DA0449012008707047000088
:102F4000FCED00E0800E00E0740100204FF06042D4
:102F5000D36F002BFCD0036BD367D36F002BFCD057
:102F6000C07840EA0120A2F87C0070474FF0604131
:102F7000CA6F002AFCD081F87C00704710B5FFF7BB
:102F8000DFFC0021024800F0FFFB0249086010BD91
:102F9000F8570008280100200246002106E0505C96
:102FA000AA2801D000207047481CC1B20629F6DBD0
:102FB0000120F8E770477047704770470EB58022D0
:102FC00000B109B110460AE001780129FAD101A93E
:102FD00000F046F8042801D0002000E01020DDE9D0
:102FE000011203B000BD70B50D46040003D012B944
:102FF0002078012801D0802070BD204600F06AFEB4
:1030000028B12946204600F056F8002070BD8120E6
:1030100070BD70B50C4601F021FA4FF0004108B1C7
:10302000220C01D0084670BD058BC178A0B200F01B
:1030300003F8284670BD00000A460146074810B54F
:1030400000EB820050F8040C002805D001F03EF897
:10305000BDE8104001F02AB810BD0000E462002075
:1030600010B504468089002824D0608904EB8000D4
:1030700000690860606840B16078022805D10021CD
:10308000204601F023F801F011F804F10C0000BF14
:10309000D0E85F1F491E8AB2C0E8512F0029F7D13E
:1030A0006089401C80B26081E189884201D10020A2
:1030B0006081042010BD10B501F008F8BDE8104093
:1030C00000F0F4BF08B501211C20FDF76BFEFF20C6
:1030D000ADF8000003208DF8020048208DF80300B1
:1030E00069463248FDF7C8FC4FF48070ADF8000027
:1030F00001208DF8020010208DF8030069462B484E
:10310000FDF7BAFC4EF20300ADF8000001208DF887
:10311000020010208DF8030069462548FDF7ACFC3D
:1031200040F2FF30ADF8000001208DF802001020C1
:103130008DF8030069461F48FDF79EFC01201E49DB
:103140000860091F08601D490860091F0860091F01
:103150000860091F0860091F0860091F0860002037
:10316000154930310860091D0860091D08601349C0
:10317000091D0860091D0860091D0860091D086017
:103180000F49C1F8A0011020ADF8000003208DF810
:10319000020010208DF8030069460548FDF76CFC1D
:1031A000002005490C31086008BD000000080140FE
:1031B000000C014000100140848121429401224210
:1031C0000000214210B5FFF77DFF0021024800F00A
:1031D000DBFA0249086010BD78570008140000208F
:1031E0000024FF25FF2620E000F026F804460F48C3
:1031F0000470A54208D001200D49087003210D4834
:10320000006800F0A9FA2546301EA6F1010609D192
:1032100040F2FF2601200649087003210548006896
:1032200000F09AFA142000F0FFF9DDE7D402002044
:10323000760000206800002070B500240025D848E2
:103240000068002834D10A2000F0EEF904E01420D0
:1032500000F0EAF9601C84B2D148006808B9962CE5
:10326000F5DB012C14DD142C12DACE48006808B905
:10327000012000E00020CB490860CB48D0F8800155
:1032800008B9012000E00020C549A031086058E1DC
:10329000912CFCDDC248001D00680028F7D10620F3
:1032A000C24908700321C248006800F055FA48E19D
:1032B000BB48001D0068B8BB00240A2000F0B4F928
:1032C00004E0142000F0B0F9601C84B2B448001D82
:1032D000006808B9962CF4DB012C16DD0A2C14DAF0
:1032E000B048001D006808B9012000E00020AD4989
:1032F000091D0860AC48D0F8A40108B9012000E01D
:103300000020A849243108601BE1912CBFDDA448AE
:1033100000680028BBD10620A44908700321A448F6
:10332000006800F019FA0CE1FFE79D4808300068DA
:1033300040BB00240A2000F077F904E0142000F0DC
:1033400073F9601C84B296480830006808B9962C5E
:10335000F4DB012C9BDD502C99DA92480830006890
:1033600008B9012000E000208E49083108608E482D
:10337000D0F8A00108B9012000E0002089492031DF
:103380000860DEE086480C30006840BB00240A205C
:1033900000F04AF904E0142000F046F9601C84B201
:1033A0007F480C30006808B9962CF4DB012CABDDAB
:1033B000502CA9DA7B480C30006808B9012000E0E5
:1033C000002078490C3108607748D0F89C0108B992
:1033D000012000E0002073491C310860B1E0704812
:1033E0001030006840BB00240A2000F01DF904E002
:1033F000142000F019F9601C84B26948103000688C
:1034000008B9962CF4DB012C8DDD502C8BDA654845
:103410001030006808B9012000E000206149103137
:1034200008606148D0F8980108B9012000E0002048
:103430005C491831086084E059481430006838BB92
:1034400000240A2000F0F0F804E0142000F0ECF86A
:10345000601C84B252481430006808B9962CF4DB22
:10346000012C6EDD502C6CDA4E481430006808B91F
:10347000012000E000204B49143108604A48D0F890
:10348000940108B9012000E000204A49086058E092
:1034900043481830006840BB00240A2000F0C4F8FC
:1034A00004E0142000F0C0F8601C84B23C481830DE
:1034B000006808B9962CF4DB012C42DD502C40DA70
:1034C0003C483C38006808B9012000E00020394938
:1034D0003C3908603848D0F8800108B9012000E084
:1034E00000203449091F08602BE02D481C3000687B
:1034F00038BB00240A2000F097F804E0142000F004
:1035000093F8601C84B226481C30006808B9962CD9
:10351000F4DB012C15DD502C13DA2648383800680E
:1035200008B9012000E0002022493839086022480B
:10353000D0F8840108B9012000E000201D490839B5
:1035400008601748A0300068C5B21748D0F8A40139
:1035500000EB4500C5B213482030006800EB450081
:10356000C5B21148D0F89C0100EB4500C5B20D482A
:103570001830006800EB4500C5B20E48006800EB4B
:103580004500C5B20B48001F006800EB4500C5B2FE
:103590000948D0F8B40100EB4500C5B2284670BD1B
:1035A000000121428001224200002242030000204B
:1035B00068000020BC8121420080214210B50446F1
:1035C00000F03EF8FDF732F8012001F033FDFDF781
:1035D000DBFBFFF7F7FD00F045F8002010BD70475A
:1035E00070B504460D25462604EA050048B10121C0
:1035F0000B48006800F0B0F801210A48006800F0AC
:10360000ABF804EA060048B102210548006800F062
:10361000A3F802210348006800F09EF870BD000086
:103620006C00002068000020EFF3058109B18220C2
:103630007047DFF808C000DF70470000F94C000851
:10364000EFF3058008B182207047EFF31480C007C4
:1036500003D0DFF80CC000DF704701F057BB00005B
:103660000D4D000888B0EFF3058010B1822008B03E
:103670007047EFF3148010F00301134806D00129BE
:103680001BD0022911D0032919D113E008A981F315
:1036900009880078C0070BD05FF0020080F314881F
:1036A000BFF34F8FBFF36F8F09E00078C00706D1DB
:1036B0000320F3E70078C00701D0FF20D7E7DFF849
:1036C0000CC000DFD3E70000645A00087D4D0008FD
:1036D000EFF305820AB100207047EFF31482D2079E
:1036E00002D1044A52781AB1DFF80CC000DF7047EB
:1036F00001F068BB50010020C54D0008EFF30582C2
:103700000AB1FFF75BBCDFF808C000DF70470000BC
:10371000E94D0008EFF3058109B100207047EFF390
:103720001481C90702D10449497819B1DFF80CC0E6
:1037300000DF704701F075BB50010020234E0008E8
:10374000EFF3058212B14FF000407047DFF804C07C
:1037500000DF70474B4E0008EFF305820AB1FFF718
:1037600058BCDFF808C000DF704700006F4E00084B
:10377000EFF305830BB182207047DFF808C000DF4C
:1037800070470000954E0008EFF305820AB1002053
:103790007047EFF31482D20702D1044A52781AB16B
:1037A000DFF80CC000DF704701F09EBB5001002025
:1037B000E94E0008DFF80CC000DFDFF80CC000DFC6
:1037C000FEE70000554F0008714F0008EFF3058138
:1037D00009B182207047DFF808C000DF70470000A1
:1037E000714F0008DFF804C000DF7047A94F0008E0
:1037F000094C4FF0FF3529462068FFF77FFF02464E
:103800000846102AF7D1FFF7EDFF0028F3D0024653
:1038100008469047EFE7000030010020012806D05D
:10382000022805D0032804D0042804D102E003E0D4
:1038300002E001E000E000BF00BF00BFFEE700BF04
:10384000FEE70000074801684FF0E02041610021D9
:103850008161072101610448016841F07F410160F5
:1038600040177047605A000820ED00E0704730B5FF
:1038700002460B4604210024507B0E30C5B210795D
:10388000682801D0002030BD042104E0505C2044B1
:10389000C4B2481CC1B2A942F8DB505DA0420AD1B3
:1038A000002104E0481D105C5854481CC1B2062990
:1038B000F8DB0120E7E70020E5E750E8001F31B121
:1038C0000B6840E80032002AF7D108467047BFF382
:1038D0002F8FFAE710B568B161B10B3121F0030207
:1038E000016844680B1A1B1B934205D208460968FD
:1038F0000029F5D1002010BD210007D02118036850
:10390000C1E90032016001F1080010BD42600830D9
:1039100010BD000070B50D46002812D04FF6FF71A3
:10392000084C884204D222680146104600F0FCFB95
:1039300020684570044800F037F9BDE8704000F099
:10394000B7BC70BD580100206C6A00200F4810B54C
:103950000D4942680E480B680068934204D00A6023
:10396000CB88421E1A448A808A8880B282420AD159
:1039700000200860054800F017F90146BDE8104036
:10398000024800F0F5BB10BD6C0100206C6A0020FD
:103990006801002070B5194DE86800282CD0A88A6D
:1039A000401EA882002621E0A06838B1616841600D
:1039B000606810B1A16881606660A6600F4821460A
:1039C000183800F0D5FBA08AA8826078042804D1BA
:1039D0000B49E08A09880844A08201206070E068F1
:1039E000E860E06808B10561E6602661A88A002801
:1039F00002D1EC68002CD7D170BD0000846A002091
:103A00006801002070B504000FD00D4DA17801268B
:103A10002868827891420CD900F0C6FB286846706D
:103A20002046BDE8704000F043BC064800F0BCF8FA
:103A3000F7E766702146BDE87040024800F098BB89
:103A4000580100206C6A00200321FFF763BF0000CB
:103A5000054A02EB810151F8041C002902D00A8BAF
:103A600082430A8370470000E462002010B50446D8
:103A7000008B084320836278618B062A18D0052AC0
:103A800019D1084217D001EA0002628388432083DB
:103A9000204600F0B4FB01206070628B08212046B4
:103AA00000F0A9FB2146BDE81040034800F060BBD0
:103AB00031EA0002EAD010BD6C6A002002461548C7
:103AC00010B500EB810050F8044C002C21D0208B65
:103AD000104320836278618B062A17D0052A18D1FB
:103AE000084216D001EA0002628388432083204600
:103AF00000F085FB01206070628B0821204600F0F9
:103B00007AFB2046BDE81040FFF77CBF31EA000297
:103B1000EBD010BDE462002070B503460C480D46A2
:103B20000468208B42B133EA000101D0062109E08C
:103B300098432083022070BD10EA030101D0618305
:103B4000F6E7052163832846FFF7E4FE012070BDF8
:103B500058010020814202D342688A4201D80120E4
:103B6000704702680A60BFF35F8F50E8003F0A6841
:103B70009A42F6D140E80012002AF2D100207047A4
:103B800068B161B10022083902E00246006830B134
:103B90008842FAD12AB100681060002070470120E5
:103BA000704700214160F8E70146406842684A607A
:103BB0000B780022022B05D0012B03D0032B01D060
:103BC0004260704743680BB1996042608260704701
:103BD000810700D00020704770B5044600201546CC
:103BE000207001226270A17084F824106060A060CF
:103BF000E06020612062A082E0822083608384F8FC
:103C00002500E08C18B90548FFF757FEE062294609
:103C10002046BDE8704000F01DB80000D00700202D
:103C200008B1082901D2012070470144091F002270
:103C300001600A604260104670470000034800219E
:103C4000016003490988C180704700006C010020B1
:103C5000545A000870B5C28C1C4D930802D12A88B2
:103C6000C2F38D03C26A02EB8302540700D5121F10
:103C70004FF0807442E9021400242646B2F140025B
:103C800042F82460641C0E2CFAD3C4691462826268
:103C900001632968C90014D5112B12D94FF0FF31E7
:103CA000103B11EB53014FF0CC3305D042F8043CEC
:103CB00042F8083D491EF9D1C16A121F8A4200D953
:103CC0001360C06A0249016070BD0000505A0008CC
:103CD000A52E5AE2C1898089081A70470122027014
:103CE00000224270827042600281428110398281DA
:103CF0008908C181704700002DE9F0410446406801
:103D00000E464FF0000804F10C05E8B36078012777
:103D100001283ED0022813D003285CD10846FFF7C3
:103D2000CCFD050057D02046FFF73EFF044629464C
:103D300000F05EFA6770204600F061FA214621E04B
:103D40002046FFF731FF0646002100F051FA218995
:103D5000F06904EB81010861D5E85F0F401C81B276
:103D6000C5E8501F0028F7D12089401C80B220816F
:103D7000E189884201D1A4F808807770304600F0CC
:103D80003EFA3146174800E00CE0BDE8F04100F093
:103D9000EFB92046FFF708FF04463246102100F035
:103DA0002AFAC7E7A089E189884216D2208904EB64
:103DB00080000661D5E85F0F401C81B2C5E8501F46
:103DC0000028F7D12089401C80B22081E1898842F7
:103DD00001D1A4F80880BDE8F081BDE8F0410320DE
:103DE000FFF71CBD6C6A002070B50446808915463B
:103DF0000026C0B3608904EB800000690860608918
:103E0000401C80B26081E189884200D1668160688F
:103E100010B1607802280BD014F10C04D4E85F0FC5
:103E2000401E81B2C4E8501F0028F7D1002070BDA9
:103E30002046FFF7B9FE0546002100F0D9F9218997
:103E4000E86904EB810108612089401C80B220816F
:103E5000E189884200D12681284600F0D0F9284621
:103E6000FFF7D0FDE2E7FFE73DB10B48626801686C
:103E70002AB1204600F07CF908E0012070BD6160A5
:103E800001684E6000688460012060700821284647
:103E9000FFF740FDF1E7000058010020002814D092
:103EA000411C13D00C4A4FF6FE7190420CD800EB27
:103EB0004002C2EBC0120948036803EBC202521E63
:103EC000B2FBF3F0884204D9084670474FF6FF7002
:103ED000704780B27047000000093D00705A00082A
:103EE0002DE9F0410446408820B1314DA1682A688F
:103EF000914202D0FF20BDE8F081401E0004000C7A
:103F0000608053D12968086AA04209D1E06808623C
:103F100008E0C268A24202D1E268C26002E0104634
:103F20000028F6D191F824000A6A06E053681BB114
:103F30009B78834200D91846D268002AF6D188704F
:103F4000DFF870806168012611B32046FFF72CFE70
:103F50000746002100F04CF9384600F050F9668021
:103F6000A760386AE0603C622968D8F804008A7863
:103F70008078824201D3384616E00E4800F0F8F807
:103F800039460C4800F0F4F8286846707E700AE064
:103F9000D8F804108A782968824207D9054800F0C9
:103FA000E7F8286846700020FFF72CFD0020A2E704
:103FB000580100206C6A002070B51C4D0E46044666
:103FC0004188286861B1A268824210D1A1F57F4082
:103FD000FF3803D0491C6180002070BDFF2070BDF8
:103FE000A060016AE160046201206080F4E776B1BC
:103FF00091788078814203D29070A06800F0DEF85A
:10400000606830B12046296800F0B2F808E001206D
:1040100070BD286860602968002048602868846056
:1040200009213046FFF776FCF1E700005801002037
:1040300070B51B48012102685170006800F0B4F8A7
:10404000184D6C7818E000BF05EBC4014868027891
:10405000EAB1012A20D000F0FFF8E878641C84421D
:1040600000D100240F48801CD0E84F1F491EC9B260
:10407000C0E8421F002AF7D1A8780028E4D16C706C
:104080000948FFF791FDBDE8704000F011B90989BA
:1040900089B2FFF7EBFCE0E78968FFF72DFEDCE76C
:1040A00058010020606200206C6A002005480178F9
:1040B00011B101214170704703494FF080500860F1
:1040C000704700006001002004ED00E0F0B4154DE1
:1040D000AB1CEE784FEA0507D3E84F2FB24202D16E
:1040E000BFF32F8F11E0521CD4B2C3E8424F002A15
:1040F000F2D100BFD7E84F2F541CB44200D10024A6
:10410000E4B2C7E8434F002BF4D1EB78934205D9D2
:1041100005EBC202C2E90101F0BC7047F0BC02200D
:10412000FFF77CBB60620020104A10B5D368ABB1CA
:1041300013469B8A03E08CB12246A48A2344D468A8
:104140008B42F8D3C460D0600261C46804B12061BE
:10415000591A8182908A401A908210BD0024C4604E
:10416000D060C91A02619182848210BD846A0020E5
:1041700030B502780023022A03D0012A01D0032A95
:1041800000D101238C7800E01046426812B1957886
:10419000A542F9D24A6041601BB102B191608860CA
:1041A00030BD0020FBE7000003494A68426000225E
:1041B00082604860704700006C6A002010B5836818
:1041C00004462BB9607801280ED1084B03E09B68A8
:1041D00018780028FBD0204600F026F82146BDE8DC
:1041E00010401846FFF7C4BF10BD00006C6A0020E5
:1041F000806A01627047806AC0E90812704710B592
:10420000016900290ED0C268CA60C36800223BB1B0
:104210008B8A848A23448B82C3681961C26000E060
:104220008A82026110BD0000816839B142684A602B
:104230004168002901D0806888607047054906E020
:104240004A68824202D1406848607047114600299E
:10425000F6D170476C6A002010B5416881B1FFF754
:10426000A3FC0446FFF7CBFF012060700146204607
:10427000FFF7BEFF2146BDE810400348FFF778BFB7
:104280004188491C418010BD6C6A002006480068C6
:10429000D0E90A10814203D300680449884202D061
:1042A0000120FFF7BBBA704758010020A52E5AE243
:1042B0000749022248604270064A1278002A05D057
:1042C00006C98A4202D0C078FEF750BE704700008F
:1042D000580100207401002070B5FEF71FFE002079
:1042E0000446204A204902E042F82040401C0B8846
:1042F0009842F9D31D48342201881D48FEF7AEFDCF
:104300001C48008880B240F000421B4801681B48EE
:10431000FEF7A4FD1A48082201881A480068FEF733
:104320009DFD194DFF20194AE870EC8400212846B4
:10433000FFF752FC164804210170446015480170D3
:10434000C4600461848214481549056002206870C5
:104350001248047044700978C170BDE87040FFF7DE
:104360006DBC0000E46200204C5A0008785A000836
:1043700050040020505A00087C5A0008D007002042
:10438000A05A000838010020386A00203F38000891
:104390006C6A0020846A00205801002060620020BE
:1043A000845A00081B4810B5016841F47F01016080
:1043B00000684FF07F4101EA00201649C0431439DC
:1043C000B0FA80F00968C0F10800C1F3022181420F
:1043D00000D3481C0F49091F0B686FF080728240A0
:1043E00063F317020A60FFF72DFA0B4900280860F3
:1043F0000EDB00F1E021FF2281F8002400F01F0213
:10440000012191404009800000F1E020C0F8001136
:1044100010BD000020ED00E0640100200C4810B544
:104420000268012151700068FFF7BEFEFFF78EFAA7
:1044300008480168491C0160FFF7ACFA00F0CCFDA8
:104440000548FFF7B1FBBDE81040FFF731BF0000A2
:1044500058010020680100206C6A0020002805D067
:10446000810702D10178002900D0002070470000A8
:1044700030B50B4C0023626805E095688D4204D886
:1044800013461268491B002AF7D10260816012B1FD
:104490009568691A91600BB1186030BD606030BDDD
:1044A000500100202DE9F0411E46174680460D467A
:1044B00011F0FF0F00D14D1C1848FFF7FEF9041E44
:1044C00016D0280AE762E084E9B242462046E66157
:1044D000FFF782FB01251248124905E000EB850237
:1044E00052F8042C32B16D1C0A889542F6D900208E
:1044F000BDE8F081002DFAD000EB850040F8044CB7
:104500000948E570007818B101212046FEF71EFD2C
:104510002046FFF777FA2846EAE70000500400201B
:10452000E46200204C5A0008740100202DE9F05F7D
:10453000584DDFF85891DFF8588129684FF0010A8B
:10454000002618B1CA78AB46824243D14E70FBF7C1
:1045500072FE29688862FFF799FE2868046A1FE0E6
:104560006068C0B12046FFF71FFB07460021FFF738
:104570003FFE3846FFF743FE87F801A0394646481C
:10458000FFF7F6FDE168A4F802A0A760386AE060D2
:104590003C620C4604E0E0686680A660E660044683
:1045A000002CDDD12868C27808EB820141F8046C48
:1045B000C16A3A48FFF7CEFA2868C66299F8001037
:1045C00011B10021FEF7C2FC35482968FFF7C2FA95
:1045D0002E6056E03349098888420CD808EB8008E1
:1045E00058F8045C3DB12846FFF71EFE2846FFF749
:1045F00006FE2C6A22E0FF20BDE8F09F6068C0B193
:104600002046FFF7D1FA07460021FFF7F1FD3846B3
:10461000FFF7F5FD87F801A039461F48FFF7A8FD11
:10462000E168A4F802A0A760386AE0603C620C462A
:1046300004E0E0686680A660E6600446002CDDD1F8
:1046400048F8046C1548E96AFFF784FAEE6299F8B5
:10465000000018B100212846FEF778FC29461048D2
:10466000FFF778FA0C48DBF8001040688B78827806
:104670009A4209D981F801A00748DBF80010FFF73A
:1046800077FD0020FFF7BEF90020B5E77401002098
:10469000E4620020580100206C6A0020D00700204E
:1046A000500400204C5A000870B51A4D80B11A4AC7
:1046B000128890421FD8194A02EB800050F8044C2F
:1046C000CCB1A17084F824102868A04205D014E071
:1046D00028688170286880F8241011484068807824
:1046E000884215D90E482968FFF742FD2968012044
:1046F000487000200AE0FF2070BD2046FFF75EFDF5
:104700006078012804D10648FFF74EFAFFF77AF9DE
:10471000002070BD580100204C5A0008E4620020BF
:104720006C6A002002480068002800D0C0787047FA
:104730005801002010B513480078C8B91248FEF798
:10474000E9FF1249086000211148FEF7C1FF114935
:10475000086000211048FEF7BBFF104908600021E7
:104760000F48FEF7B5FF0F490860012005490870A2
:1047700000F01EF800210C48FFF706F80B4908600E
:1047800010BD00006600002098570008440000207B
:10479000A457000848000020AC5700084C00002037
:1047A000B45700085000002088570008400000203F
:1047B00010B500F08BFA10BD9AB0FEA103C9CDE987
:1047C0001801FEA2D2E900109268CDE916021591F7
:1047D000FDA000681490FDA000681390FCA0006884
:1047E00012901822FB490CA8FBF75DFE00BF00BF2A
:1047F00003200B904FF0000901200A90099000243B
:10480000142104A8FBF789FEF3480068FEF7DEFFD9
:104810004FF41660FCF71EFD00BFDDF8160000F037
:1048200037FF07460022ED4B00F0DAFD054600F0A9
:10483000A5FD8246DDF81A0000F02AFF0546002299
:10484000E74B00F0CDFD074600F098FD8346DDF80C
:104850001E0000F01DFF07460022E24B00F0C0FDE5
:10486000054600F08BFD0390B9F1050F04DA09F15C
:10487000010000F0FF0903E04FF0000901200A9059
:104880000A9800284DD0002500200A9001200990A8
:10489000DDF81600DDF81A1088420BD0DDF81A009A
:1048A000DDF81E10884205D0DDF81600DDF81E1078
:1048B00088420DD10B98411EC9B20B9101280FDA25
:1048C000AA22062118A8FBF720FE03200B9007E080
:1048D0000120C54908700321C4480068FEF73CFF69
:1048E000C348C0F801A0C0F805B00399C0F809108A
:1048F000002513E0BE4A121D02EB8501D21E02EB19
:10490000850000F05DFBBA4AD21C02EB8501521E05
:1049100002EB850000F054FB681CC5B2032DE9DBF7
:1049200000BFB448D0F80600DDF8161088420DD15B
:10493000B048D0F80A00DDF81A10884206D1AD4818
:10494000D0F80E00DDF81E1088420CD0DDF81600FD
:10495000A849C1F80600DDF81A00C1F80A00DDF820
:104960001E00C1F80E0018A8FEF716FB012829D179
:104970000C2115A8FCF726FA9F48402182699F4820
:1049800090474FF496710220FEF7F2FE8DE8070083
:1049900018A99A48FEF76BFF01280ED19748401DD1
:1049A000016818918088ADF864009448401D016842
:1049B000CDF831108088ADF835004FF4FA70FEF76D
:1049C00033FE76E109980028FBD0002009904FF4CF
:1049D000FA70FEF729FE1498CDF83A000E210CA8C3
:1049E000FBF716FE8DF83E0010210CA8FCF7EAF943
:1049F000814840218269814890474FF4FA71022032
:104A0000FEF7B6FE8DE807007C48407B1030C4B24C
:104A10001420FEF709FEA01FC1B27848001DFBF765
:104A2000F7FDA11E754A515C884236D11046807C44
:104A3000332832DB1046C07C33282EDB1046007D45
:104A400033282ADB1146897C3339C8B2FEF748FA8D
:104A500005466A49C97C3339C8B2FEF741FA00EB12
:104A6000C00101EB001005EB80056449097D333975
:104A7000C8B2FEF735FA40F27121484305EB001544
:104A80005E49497D3339C8B2FEF72AFA43F6095127
:104A9000484305EB8010CDF816004FF4FA70FEF78E
:104AA000C3FD40215548FBF738FD1398CDF83A0077
:104AB0000E210CA8FBF7ACFD8DF83E0010210CA8D0
:104AC000FCF780F94C48402182694C4890474FF4EC
:104AD000FA710220FEF74CFE8DE807004748407B44
:104AE0001030C4B2A01FC1B24448001DFBF790FDB6
:104AF000A11E424A515C884240D11046807C332836
:104B00003CDB1046C07C332838DB1046007D332860
:104B100034DB1146897C3339C8B2FEF7E1F905462A
:104B20003649C97C3339C8B2FEF7DAF900EBC00167
:104B300001EB001005EB80053049097D3339C8B21F
:104B4000FEF7CEF940F27121484305EB00152B49E1
:104B5000497D3339C8B2FEF7C3F943F609514843DA
:104B600005EB80152549897D3339C8B2FEF7B8F9C0
:104B70002349484305EB0020CDF81A004FF4FA70A2
:104B8000FEF752FD40211D48FBF7C7FC1298CDF8F7
:104B90003A000E210CA8FBF73BFD8DF83E001021DA
:104BA0000CA8FCF70FF9144840218269134890477C
:104BB00028E00000AAAAAAAAAAAA000068AAAAAA8B
:104BC000AAAAAA681300DF163333343333323435DC
:104BD00033323535BC570008280100200000594009
:104BE0000000244000408F40760000206800002034
:104BF000D402002054000020A45900089402002090
:104C0000E1F505004FF4FA710220FEF7B1FD8DE8E1
:104C100007002C48407B1030C4B2A01FC1B2294805
:104C2000001DFBF7F5FCA11E264A515C884240D1CD
:104C30001046807C33283CDB1046C07C332838DBB0
:104C40001046007D332834DB1146897C3339C8B2E5
:104C5000FEF746F905461B49C97C3339C8B2FEF751
:104C60003FF900EBC00101EB001005EB8005154991
:104C7000097D3339C8B2FEF733F940F27121484358
:104C800005EB00150F49497D3339C8B2FEF728F905
:104C900043F60951484305EB80150A49897D3339AC
:104CA000C8B2FEF71DF90849484305EB0020CDF8CE
:104CB0001E0040210348FBF730FC4FF4FA70FEF76A
:104CC000B3FCAAE594020020E1F5050008B5012136
:104CD0000820FCF767F84FF48050ADF8000003207F
:104CE0008DF8020010208DF8030069460148FBF79B
:104CF000C3FE08BD000C014010B5002804D0FFF72A
:104D0000CDF8FEF7A1FE402010BD000010B5134CF9
:104D1000207860B91248400705D112480168104850
:104D2000FEF77EFF08B1852010BDFFF7D5FA0E49CA
:104D3000FF2009688870207858B900210B4800F0DE
:104D400041F80B49086000210A4800F0CDF80A49F3
:104D50000860012020700020607010BD500100200C
:104D6000E00B0020805A000858010020985A0008E3
:104D700030010020885A00082C01002070B50F4D2A
:104D8000687808B1002070BD0D4C206890F82410A0
:104D90000020FFF789FC2068C178FF2903D1816AD0
:104DA000203181F30988616811B9606000202060BA
:104DB000FFF7F8FA01206870E4E7000050010020D6
:104DC0005801002010B5040005D0216819B16068B1
:104DD00008B102780AB1002010BD8900103189B2F3
:104DE000FEF77CFF606810BD3EB504000D464FF035
:104DF000800012D0217801290FD12846FFF74EF804
:104E00000246204601A9FEF7EFFF012801D010203D
:104E100003E00DB1402000E00020DDE9011203B005
:104E200030BD10B504000ED0216861B1626852B186
:104E3000A06840B1D21C22F0030251430C31FEF7AE
:104E40000DF8A06810BD002010BD70B50C46FFF72E
:104E500005FB4FF0004108B1220C01D0084670BD9F
:104E6000058BC178A0B2FEF7F3FD284670BD70B582
:104E70000C46FFF7F3FA4FF0004108B1220C01D0C5
:104E8000084670BD058BC178A0B2FEF717FE284614
:104E900070BD000070B504460D46000C01D08620A0
:104EA0001EE008462CB1FEF7F9FF0146A0B2012230
:104EB00005E0FEF7F3FF014600224FF6FF70FEF714
:104EC0002BFE022802D04DB1402008E008200CB192
:104ED000214605E003490968498B01E000200021D3
:104EE000324670BD5801002070B50E46040029D02E
:104EF000206838B3606810F1030F23DB032821DC3E
:104F0000E16829B11048FEF7E5FC05001AD000E081
:104F100000256068E168001D40EA012133462A4609
:104F20002068FFF7BFFA40B1084901EB800008494B
:104F300050F8040C826A516370BD1DB129460248C5
:104F4000FEF71EFE002070BDE00B0020E462002092
:104F5000B537000810B5FFF7E5FB002804D003497A
:104F600001EB800050F8040C10BD0000E46200204A
:104F700010B5FFF773FA18B1C18C19B1C46A02E019
:104F8000802010BD0024C078FFF7D0FAFF2806D09B
:104F90001CB121460348FEF7F3FD002010BD81201F
:104FA00010BD0000E00B002010B5FEF711FE20B18F
:104FB00041690A680169104610BD0020014610BD14
:104FC00002460878137858400870137858401070DB
:104FD0000B785840087070472DE9F041134E746803
:104FE000002C1CD0A068124F401E4FF00108A0609A
:104FF00012E0254624687460002229463868FDF7CF
:10500000F2FF10B10420FEF709FC6879012808D0EE
:1050100085F80480002C02D0A0680028E9D0BDE803
:10502000F0812846E968FFF723FAF3E750010020F2
:105030003001002010B50446ACB1114800780328B7
:1050400011D104200E490870FDF774FC00210D48B1
:10505000FEF79AFB0C49086000210C48FEF794FB10
:105060000B4908600BE054B9032005490870064855
:105070000068FEF7ABFB06480068FEF7A7FB10BD13
:1050800003000020D457000868000020E4570008FF
:105090006C00002010B5A0B00446642107A8FBF7FF
:1050A0003CFA642107A8FBF738FA0020039004902B
:1050B00005900690AA22022107A8FBF726FA0320F2
:1050C0008DF81800214801780088401C1F4A108084
:1050D000C8B28DF81E0003208DF82E008DF83040E8
:1050E0001D208DF819009DF8192008A950180D22CF
:1050F0001749FBF793F90E2203A90DF11F00FBF7E7
:105100008DF99DF819200DF12D015018BB220221B7
:10511000FBF7FBF99DF819001330C1B207A8FBF7A4
:105120002BFF9DF81910133107AA50549DF8190050
:1051300000F114010748426907A890476421012043
:10514000FEF716FB8DE8070020B010BD74000020AC
:10515000D4020020145A000810B5A0B0642107A89A
:10516000FBF7DBF949480078062871D1002483E079
:105170000120474908604749C1F88401C1F8880106
:105180004248007806285BD1642107A8FBF7C5F9DF
:1051900000200390049005900690AA22022107A8FF
:1051A000FBF7B3F9BB2202210DF12F00FBF7ADF99C
:1051B00003208DF8180002208DF819003648017878
:1051C0000088401C344A1080C8B28DF81E000E22A0
:1051D00003A90DF11F00FBF721F93048007830B129
:1051E00000208DF82D0002208DF82E0005E0002013
:1051F0008DF82D0001208DF82E00152107A8FBF752
:10520000BBFE8DF83100032C01D0502C0AD124486C
:105210004269162107A8904764210120FEF7A8FAE9
:105220008DE80700282C0AD11D484269162107A8DD
:10523000904764210120FEF79BFA8DE807000AE001
:1052400012480078052804D11048007820B010BD1D
:1052500016E00420FAE76420FEF7E6F900200C4986
:1052600008600C49C1F884010949083108606420CC
:10527000FEF7DAF9601CC4B2C82CFFF679AF02E081
:1052800002480078E2E70420E0E700000300002085
:10529000800122420000224274000020720000209F
:1052A000145A000810B5A0B00446642107A8FBF703
:1052B00034F9642107A8FBF730F90020039004902B
:1052C00005900690AA22022107A8FBF71EF90320E9
:1052D0008DF81800254801780088401C234A10806A
:1052E000C8B28DF81E0004208DF82E008DF83040D5
:1052F0001F48007810B103208DF82E001D208DF876
:1053000019009DF8192008A950180D221949FBF71A
:1053100085F80E2203A90DF11F00FBF77FF89DF819
:1053200019200DF12D015018BB220221FBF7EDF8D9
:105330009DF819001330C1B207A8FBF71DFE9DF8B8
:105340001910133107AA50549DF8190000F11401E7
:105350000948426907A8904764210120FEF708FA2E
:105360008DE80700002020B010BD00007400002070
:1053700070000020D4020020145A000821F00042DE
:10538000A2F16052B2F5801F01F0004328BFD2F1B4
:105390007F6C0BD95FEA001C43EAC20242EB5070FB
:1053A00018BF704728BF20F001007047B2F5801F7A
:1053B000BCBF184670474FEA410C1CF5001F02D2D3
:1053C000084600F0CCB970B500F075F9000000890E
:1053D000FFF7F6BF4FF00040A0F5800070470000D7
:1053E0002DE9C04130B4DFF8A0C23CEA111418BF67
:1053F0003CEA131400F0EC8081EA03051CEA111466
:1054000044EAD57418BF1CEA131500F0C780A4EB5A
:1054100005044FF0004545EAC12145EAC32341EAAE
:10542000505143EA525304F17F74994204F5003419
:105430004FEAC0204FEAC22208BF904200F09C8091
:105440004FEA13650FF24016765D4FEA134506FBEF
:1054500005F7C7F1807706FB07F74FEAD737A7FBB9
:1054600003687642C8F58038A7FB06CE38BFA8F19E
:10547000010807FB08E64FF0000EA6FB028CE6FBD6
:1054800003CEDCF1000CCEF1004E38BFAEF1010EC0
:10549000A6FB0C584FF000074FF00005E6FB0E8707
:1054A000A1FB08C6A0FB07CE16EB0E0645F10005D2
:1054B000E1FB076515F1E04E7EBFA4F580345FEA9D
:1054C00046066D4116F1800745F100054FEA1727A2
:1054D0004FEA066647EA0567A6F1DE46B6F1805F49
:1054E0004FEA15251FD9384624F0010C05EBC4718D
:1054F000BCF1FE6F01EB0C1102D8F0BCBDE80081DD
:1055000024425CBF01F5801E9EEAC47F02D4F0BC39
:10551000BDE80081244238D4F0BCA1F1C041BDE80F
:10552000004100F016B94FEAD22242EA43524FEA54
:10553000D323A7FB02864FEAD02040EA415007FB65
:1055400003661EEA0E0F4FEAD12105FB026658BF23
:10555000A6EB0056B6EB00564FEA520E4EEAC37E5B
:1055600018EB0E0E56EB530EBDD518EB02085E413C
:105570007F1C55F10005B6E74FF480154FF000078A
:105580004FF000064FF00008ADE7F0BC4FF0000010
:1055900001F1C04101F00041BDE8008111EA0C1F9A
:1055A0000CEA131500D00CE013EA0C1F00F0258064
:1055B0004FF00000F0BC81EA030101F00041BDE8BA
:1055C0000081F0BCBDE8004181EA030100F0C1B8F0
:1055D000F0BCBDE8004170B500F06DF8097EFC3EFE
:1055E00000F007B881EA03014FF0000001F000412C
:1055F000704781EA030100F0ACB8F0BCBDE800419F
:105600004FF0000021497047FFFDFBF9F7F5F4F278
:10561000F0EEEDEBE9E8E6E4E3E1E0DEDDDBDAD84D
:10562000D7D5D4D3D1D0CFCDCCCBCAC8C7C6C5C4AB
:10563000C2C1C0BFBEBDBCBBBAB9B8B7B6B5B4B3C2
:10564000B2B1B0AFAEADACABAAA9A8A8A7A6A5A4AD
:10565000A3A3A2A1A09F9F9E9D9C9C9B9A99999871
:105660009797969595949393929191908F8F8E8E14
:105670008D8C8C8B8B8A89898888878786858584A1
:1056800084838382828181800000FF070000F87F8D
:10569000B0FA80F310FA03F10AD0C3F11D0303F549
:1056A00080634FEA41504FEA035202EBD121704729
:1056B0004FF0000070470EF1020E2EF0030E5EF860
:1056C000046B364205D4012A43EB030515F5001F90
:1056D00012D8012841EB010C1CF5001F0CD80ED18B
:1056E0004FEAD17C15F5001F0CEB4C0C0CF1020CB1
:1056F00008BF4CEBD37C04E04FF0080C01E04FEA0C
:10570000D37C0CEB4C0526FA05F606F00706B6F13D
:10571000040C06D20EEB860CBDE870404CF0010C78
:105720006047DFE80CF0090B02024FF000414FF038
:105730000000A1F5002170BD19461046012851EB6B
:10574000010418BFD4F5001484BF002001F000410B
:1057500070BD0808A0F500114FEA31017047FF2124
:1057600041EAD050C0057047490D00080000000014
:105770000100000000020000E1310008010000000B
:105780000100000000080000B94700080000000008
:1057900001000000000200000A00000012000000EA
:1057A00078010020020000004C02002002000000EE
:1057B00064020020020000007C020020680000005B
:1057C0000000006811040000000000160000000046
:1057D00000000000DD1500080000000001000000CE
:1057E00000040000612B0008000000000100000020
:1057F00000020000145000004115000800000000E5
:10580000010000000004000061626300000000006D
:105810000000000000000000000000000000000088
:105820000000000000000000000000000000000078
:105830000000000000000000000000000000000068
:105840000000000000000000000000000000000058
:105850000000000000000000030202023906000000
:105860000038014000A24A040000000000000000CF
:1058700000000000000000000000000022002200E4
:105880002500000000000000000000006C03002064
:1058900080030020000C01400A000000000C0140C1
:1058A0000B000000390600000048004000512502AE
:1058B000945800089C5800080000000000000000F8
:1058C00000000000640064002700000000000000E9
:1058D00000000000A4030020B803002000100140D5
:1058E0000A000000001001400B0000001906000033
:1058F000004C004000512502DC580008E458000824
:105900000000000000000000000000000000000097
:10591000340000000000000000000000DC03002054
:10592000F0030020001001400C00000000140140B2
:10593000020000001906000000500040005125023E
:10594000245900082C590008000000000000000045
:105950000000000000000000350000000000000012
:105960000000000014040020280400204929000839
:105970004D100008AD10000835110008C1100008D6
:10598000ED100008D5100008191100088D1000084E
:105990006D100008351000087D1000080511000882
:1059A0005D100008492900085D110008BD110008BC
:1059B00045120008D1110008FD110008E51100088A
:1059C000291200089D1100087D11000845110008EA
:1059D0008D110008151200086D11000849290008F2
:1059E0001D1300086D130008F5130008811300084B
:1059F000AD13000895130008D91300085D130008C3
:105A00003D130008051300084D130008C5130008D6
:105A10002D1300084929000859140008A91400088A
:105A200031150008BD140008E9140008D11400085D
:105A3000151500089914000879140008411400088D
:105A400089140008011500086914000811000000FD
:105A500000010E110100010000A24A0448000000EC
:105A60003F19010001000000020001005200040083
:105A7000E8030000000000008003000010040000A4
:105A80008056000010000000F13700080000000000
:105A90000100000000020000080000002863002050
:105AA00000000000BD3500080000000001000000FB
:105AB00000040000BAECCDE2D7AAB7A2C0A9D5B9BC
:105AC000B0E5B0B4BCFCB5F7CAD4D0C5CFA2D2D132
:105AD000B9ABCABE0D0A0000B5D7B0E5B0B4BCFC86
