:020000040800F2
:10000000E81E0020A9180008D9030008DB03000837
:10001000DF030008E3030008E70300080000000016
:10002000000000000000000000000000EB030008DA
:10003000ED03000800000000EF030008F1030008D2
:10004000C3180008C3180008C3180008C318000824
:10005000C3180008C3180008C3180008C318000814
:10006000C3180008C3180008C3180008C318000804
:10007000C3180008C3180008E90A0008C3180008DC
:10008000C3180008B90E0008C3180008C3180008F8
:10009000C3180008C3180008C3180008C7150008D3
:1000A000C3180008C3180008C3180008C3180008C4
:1000B00053170008C3180008C3180008C318000825
:1000C000C3180008C3180008C3180008C3180008A4
:1000D000C3180008030A0008E70D0008C318000849
:1000E000F3030008C3180008C318000800F002F862
:1000F00000F043F80AA090E8000C82448344AAF17F
:100100000107DA4501D100F038F8AFF2090EBAE87C
:100110000F0013F0010F18BFFB1A43F0010318473B
:100120005838000078380000103A24BF78C878C1E9
:10013000FAD8520724BF30C830C144BF04680C60ED
:10014000704700000023002400250026103A28BF35
:1001500078C1FBD8520728BF30C148BF0B60704739
:100160001FB503F075FB04000020002103F0EEFB37
:10017000401C60601FBD10B510BD03F071FB11463F
:10018000FFF7EEFF00F055F803F08FFB03B4FFF725
:10019000F2FF03BC03F0D2FB844909680160834984
:1001A000091D09684160814908310968816070470B
:1001B00010B586B004467EA0006801908DF8064018
:1001C0004FF4A050ADF8080014208DF80A0000216B
:1001D0008DF80B1011218DF80C108DF80D104FF4C7
:1001E000B050ADF80E00734800788DF810007148DB
:1001F0000088010A8DF811106E480068010C8DF816
:1002000012106C480068010E8DF8131002208DF852
:10021000140003208DF815009DF8150001AB02AA0B
:100220004BF6BB3100904AF6AA2000F051FF06B011
:1002300010BD8AB0002460A103C9CDE904015EA10C
:1002400003C9CDE9020101F0BFFA01F027FB01F07B
:1002500079F95848FFF7A0FF4FF47A7001F0F1FAEE
:100260004FF4965000F0D8F94FF4614000F08CFA4A
:1002700041F61F41092001F031FA40F271210420BA
:1002800001F08CFA40F6B8304D49088000204D4905
:10029000087064204C49088086E04A4800780028AD
:1002A00061D147480088B0F5FA6F70DD00204449FD
:1002B00008804FF4A050ADF8180000208DF81A0007
:1002C00000218DF81B108DF81C108DF81D104FF4B7
:1002D000B050ADF81E00374800788DF82000354842
:1002E0000088010A06A8417232480068010C06A87D
:1002F000817230480068010E06A8C17201208DF895
:10030000240002208DF8250000208DF81000022026
:100310008DF811009DF8250004AB06AA4BF6BB3101
:1003200000904AF6AA2000F0D3FE0020274908607A
:1003300000240FE00020254918390860962001F0BC
:100340005CFA01202249C1F89C01962001F055FA7F
:10035000601C84B2FA2CEDDB01201C4908600020EF
:10036000FFF726FF13E01648008840F6B8318842B0
:100370000DDD18480078401C16490870002010490F
:100380000880082102A800F079FC00F0D3FB01F0FE
:100390007FF8104800781E2801DA01F011FA0A48A7
:1003A000008808B900F0B8FD77E70000E8F7FF1F04
:1003B000000300005400002001030048000505DF91
:1003C000120000201000002014000020B4812142FF
:1003D0000080214218000020704700BFFEE700BFE8
:1003E000FEE700BFFEE700BFFEE7704770477047BB
:1003F000704710B54FF4806003F014F990B14FF4DA
:10040000806003F020F90848006820F48060064905
:1004100008600648007810B10120054908700120E5
:100420000449087010BD0000000401401D000020B8
:100430001E0000201C0000200CB500200190009040
:100440006C48006840F480306A49086000BF694821
:10045000006800F4003000900198401C0190009862
:1004600018B90198B0F5A06FF1D16248006800F4A6
:10047000003010B10120009001E0002000900098B1
:10048000012843D15C48006840F010005A490860D8
:100490000846006820F0030008600846006840F045
:1004A0000200086053484068524948600846406866
:1004B00048600846406840F48060486008464068EC
:1004C00020F47C1048600846406840F4E81048601A
:1004D0000846006840F08070086000BF454800682A
:1004E00000F000700028F9D04248406820F0030076
:1004F000404948600846406840F00200486000BF3C
:100500003C48406800F00C000828F9D10CBD10B53B
:10051000FFF792FF10BD10B53648006840F00100AB
:100520003449086008464068344908403149486009
:1005300008460068324908402E49086008460068AD
:1005400020F4802008600846406820F4FE004860DF
:100550004FF41F008860FFF7DAFF4FF00060294971
:10056000086010BD10B5002100200022214B5B68FF
:1005700003F00C0121B1042906D0082928D107E095
:10058000214B224C236027E01F4B204C236023E0AB
:10059000184B5B6803F47010164B5B6803F48032F1
:1005A000022303EB904022B9194B4343174C2360BD
:1005B0000DE0104B5B6803F4003323B1144B43434D
:1005C000124C236003E0104B4343104C236003E0C4
:1005D0000D4B0E4C236000BF00BF064B5B68C3F39E
:1005E00003130C4CE15C094B1B68CB40074C2360A8
:1005F00010BD000000100240002002400000FFF883
:10060000FFFFF6FE08ED00E000127A00280000204F
:1006100000093D002C00002010B588B004460121DF
:10062000084601F0DEFC0121022001F0DAFC012184
:10063000880301F0E3FC0121042001F0DFFC4FF40A
:100640000070ADF81C0018208DF81F0003208DF8F5
:100650001E0007A9A74801F015FA4FF48060ADF815
:100660001C0004208DF81F0007A9A24801F00AFA17
:1006700003940020ADF81000ADF81200ADF814009E
:10068000ADF818000C20ADF8160003A99A4801F047
:100690005CFD25208DF8080003208DF809008DF8F9
:1006A0000A0001208DF80B0002A801F022F90E20AB
:1006B0008DF8080003208DF809008DF80A0001204C
:1006C0008DF80B0002A801F014F9002240F2277106
:1006D000894801F0D2FD002240F22551864801F000
:1006E000CCFD002240F22661834801F0C6FD0122C4
:1006F00040F22441804801F0C0FD012280217E4863
:1007000001F0E0FD012240217B4801F0DBFD0020EB
:100710001021FA23794ACDE900107749091D78485C
:1007200000F0A0FF0021764801F09DFF002000901E
:10073000FA23724AFA327049091D01907048143048
:1007400000F090FF01216E48143001F08CFF01226F
:1007500002216B4801F093FF4FF4805001F0B2FF8B
:100760004FF4803001F0AEFF0121634801F079FDC4
:1007700040F6FC316148083802F0E2FF01205F4991
:100780000839487108B010BD10B588B00446012181
:10079000084601F026FC0121480401F03CFC01213F
:1007A000042001F02BFC0420ADF81C0018208DF86B
:1007B0001F0003208DF81E0007A94E4801F062F9C2
:1007C0000820ADF81C0004208DF81F0007A9494837
:1007D00001F058F903940020ADF81000ADF81200B4
:1007E000ADF81400ADF818000C20ADF8160003A900
:1007F000444801F0AAFC26208DF8080003208DF85B
:1008000009008DF80A0001208DF80B0002A801F004
:1008100070F811208DF8080003208DF809008DF87C
:100820000A0001208DF80B0002A801F062F80022F6
:1008300040F22771334801F020FD002240F225519B
:10084000304801F01AFD002240F226612D4801F0E7
:1008500014FD012240F224412A4801F00EFD01223C
:100860008021284801F02EFD01224021254801F079
:1008700029FD00201021FA23234ACDE90010214947
:10088000091D1F483C3000F0EDFE00211C483C30A3
:1008900001F0E9FE00200090FA231B4AFA321949C0
:1008A000091D01901648283000F0DCFE0121144893
:1008B000283001F0D8FE0122022111483C3001F01D
:1008C000DEFE4FF4801001F0FDFE4FF0807001F06D
:1008D000F9FE01210B4801F0C4FC40F6FC310A4846
:1008E000083802F02DFF012007490839487108B087
:1008F00010BD0000000801400038014068000020E1
:100900004400024000440040640C00202DE9F05FE8
:1009100080460E46914600241CE016F814A06000A4
:10092000401C16F800B0504602F0B6FE3038C5B292
:10093000092D01DDE81FC5B2584602F0ADFE303882
:10094000C7B2092F01DDF81FC7B207EB051008F881
:100950000400641C4C45E0DBBDE8F09FF0B50346A5
:1009600000201EE00E5CF71706EB17773F1107F12A
:1009700030050E5CF71706EB17773F11A6EB07174C
:100980003037FCB2392D01DDEE1DF5B2392C01DD19
:10099000E61DF4B203F81050012606EB40069C5504
:1009A000401C9042DEDB002603F81260F0BD0246D8
:1009B000002100BF05E0505C08B101207047481CD1
:1009C000C1B20329F7DB0020F8E730B502460B4639
:1009D000002010E012F8014B6040002109E000F017
:1009E00001041CB18C2484EA600000E040104C1C1F
:1009F000E1B20829F3DB1C1EA3F10105EBB2E9D13A
:100A000030BD1CB500200190009040F22441BF4849
:100A100001F018FD002866D04FF4803001F052FE3E
:100A200040F22441B94801F037FDB84800880190F0
:100A3000B648001D008801900021B54801F013FE62
:100A4000B34801F027FEC0F1FA00009000980F288B
:100A50003DD1B04890F80201012838D1AD4890F856
:100A60000301032833D1AB4890F804010A282ED1A2
:100A7000A84890F8061190F8050141EA0020A6491F
:100A80000880A44890F8081190F8070141EA002076
:100A9000A24908809F4890F80A1190F8090141EA9C
:100AA00000209F4908809B4890F80B010106994857
:100AB00090F80C0141EA0041964890F80D0141EA96
:100AC0000020944991F80E110843964908600F21BF
:100AD000954802F035FEFA208D495839C865012144
:100AE0008B4801F0C0FD1CBD10B54FF4005001F063
:100AF000F4FDC0B1012087494871002184481438B1
:100B000001F0B1FD4FF4805001F0FBFD00BF40212A
:100B10007E4801F081FC0128F9D10020834908605A
:100B20008349C1F8A00110BD7A484088401C79492A
:100B3000488070477CB500257648407901287DD1F2
:100B400074484088642803DA7248007900B97CBD93
:100B50000020704908714880002240F224416B480F
:100B600001F08BFB002202216948143801F087FD57
:100B700068488479002570E004EB4401C1EBC4129D
:100B80006C4901EB4200FFF712FF01285CD161487C
:100B90008079A0421CD15F484078401C5D49487074
:100BA00008464078012813DD0020487004EB44001B
:100BB000C0EBC4115F4800EB4100002101604160BF
:100BC0000181042C01DB002401E0601CC4B242E07E
:100BD000504800218160C160018200F5FE70025D15
:100BE00004EB4400C0EBC413524800EB4301A0F5F2
:100BF000FF7002F060FD01204C4908604C49C1F8CB
:100C0000A00100201021FA23424A0832CDE9001049
:100C10003E49091D3E48143800F024FD45480A3875
:100C2000015D3B48143800F047FD01228021374820
:100C300001F048FB37488471002000E01CE0354992
:100C40004871087148800AE0042C01DB002401E0AF
:100C5000601CC4B200BF681CC5B2052D8CDB00BF90
:100C6000012202212A48143801F009FD012240F234
:100C70002441264801F001FB00BF68E72DE9F0415F
:100C800006460D460027002240F224411F4801F08D
:100C9000F4FA002202211E48143801F0F0FC1D482D
:100CA000847900BF20E004EB4401C1EBC412214968
:100CB00001EB4200FFF77BFE70B904EB4401C1EB8E
:100CC000C4121C4901EB42002A46314602F0F3FCF3
:100CD00018480A38055509E0042C01DB002401E01E
:100CE000601CC4B2781CC7B2052FDCDB00BF012238
:100CF00002210748143801F0C2FC012240F22441CD
:100D0000024801F0BAFABDE8F08100000038014065
:100D1000580002406000002006000020080000206B
:100D20000A0000200C00002062010020A0012142E6
:100D300000002142660200200246002100BF05E0BB
:100D4000505C08B101207047481CC1B20329F7DB91
:100D50000020F8E730B502460B46002010E012F8FC
:100D6000014B6040002109E000F001041CB18C241B
:100D700084EA600000E040104C1CE1B20829F3DB7B
:100D80001C1EA3F10105EBB2E9D130BD2DE9F04104
:100D900005460E4690460027FE48C47900BF1DE078
:100DA00004EB4401C1EBC412FB4901EB4200FFF725
:100DB000C3FF58B904EB4401C1EBC412F64901EB7F
:100DC00042003246294602F076FC09E0042C01DBA1
:100DD000002401E0601CC4B2781CC7B2052FDFDB21
:100DE00000BFBDE8F0812DE9F04100260027002575
:100DF0000020EA49087040F22441E94801F022FB52
:100E0000002854D04FF4801001F05CFC40F22441E3
:100E1000E34801F041FBE2480488001D04880021FA
:100E2000E04801F020FCDF4801F034FCC0F1FA0595
:100E30003220DD490880FA2D2DD2152D2BD3D5482F
:100E400090F80201AA2826D1D24890F80301AA28D6
:100E500021D1D04890F8120100F11104D348005D6F
:100E6000BB2818D1D148611C405CBB2813D1A01C01
:100E7000C1B2CE48FFF76EFF0746CC48A11C405CCC
:100E8000B84208D1C34890F80461E01CC1B23246B0
:100E9000C648FFF77BFFA11CC44802F051FCFA20B2
:100EA000C0496C3908670121BE4801F0DCFB012014
:100EB000BA490870BDE8F08110B54FF0007001F03C
:100EC0000CFC10B30020BA490870B4490870012026
:100ED000B04948710021B348143001F0C4FB4FF011
:100EE000807001F00EFC00BF4021AD4801F094FA83
:100EF0000128F9D1A94908700020AE490860AE491F
:100F0000C1F890010120AD49086010BDA14840889A
:100F1000401CA049488070477CB500259D48407919
:100F2000012874D19B484088642803DA99480079E5
:100F300000B97CBD0020974908714880002240F22A
:100F40002441974801F099F9002202219548143074
:100F500001F095FB8F488479002561E004EB4401A2
:100F6000C1EBC412964901EB4200FFF7E5FE0128F0
:100F70004ED1884800218160C160018200F5FE7079
:100F8000025D04EB4400C0EBC4138D4800EB430149
:100F9000A0F5FF7002F08FFB894A0A3A115D04EB5D
:100FA0004402C2EBC413864A02EB430002F0C8FBC2
:100FB0000120804908608049C1F8900100207F49E4
:100FC00008601021FA23734A0832CDE900107449F1
:100FD000091D7448143000F045FB79480A38015D5A
:100FE0007048143000F068FB012280216C4801F049
:100FF00069F9042C01DB002401E0601CC4B26548DF
:101000008471002063494871087148800AE016E045
:10101000042C01DB002401E0601CC4B2681CC5B2D2
:10102000052D9BDB00BF012202215E48143001F038
:1010300026FB012240F22441594801F01EF900BF6D
:1010400077E72DE9F04106460D460027002240F2E1
:101050002441534801F011F9002202215148143073
:1010600001F00DFB4B48847900BF20E004EB440104
:10107000C1EBC412524901EB4200FFF75DFE70B9AB
:1010800004EB4401C1EBC4124D4901EB42002A4676
:10109000314602F010FB4A480A38055509E0042C95
:1010A00001DB002401E0601CC4B2781CC7B2052F2C
:1010B000DCDB00BF012202213A48143001F0DFFAE4
:1010C000012240F22441364801F0D7F8BDE8F08112
:1010D0002DE9FF5F0746884692460E9D4FF0000BB4
:1010E000D9460026FA2D01DDBDE8FF9F002240F21F
:1010F00024412B4801F0C1F8002202212948143074
:1011000001F0BDFA234884794FF0000B9BE004EB1B
:101110004401C1EBC4122A4901EB4200FFF70CFE67
:1011200000287DD104EB4400C0EBC412244800F831
:101130001270391204EB4400C0EBC412204800EBDB
:10114000420041701348017804EB4400C0EBC41224
:101150001B4800EB4200817004EB4401C1EBC41258
:10116000174901EB4201C81C0E22514602F0A3FAB6
:1011700004EB4401C1EBC412114901EB420101F13E
:1011800011002A46039902F096FA04EB4400C0EBE2
:10119000C41217E05C0C002044130020170000204C
:1011A000004400406C000240140000205E0D00204E
:1011B000180000209001214200002142B08121420C
:1011C000620E0020D34800EB420205F1110002F844
:1011D00000804FEA282104EB4400C0EBC412CD4844
:1011E00000EB420205F112001154401CC6B204EBA0
:1011F0004401C1EBC412C74901EB42003146FFF77D
:10120000A9FD814604EB4400C0EBC411C14800EBCA
:10121000410000F80690701CC1B2BE480A3800E0D8
:1012200007E00155A0F5FE700078401CBA4908702F
:101230000DE0042C01DB002401E0601CC4B20BF1C2
:10124000010000F0FF0BBBF1050FFFF660AF00BF20
:1012500001220221B14801F012FA012240F2244198
:10126000AF4801F00AF800BF3EE710B5ADF5087DC4
:1012700004460E22E11C84A802F01DFA9DF81D22EE
:1012800004F1110141A802F016FABDF8160200029D
:10129000BDF8161240EA212080B2ADF81602BDF862
:1012A00010020002BDF8101240EA212080B2ADF811
:1012B00010029DF81C02012817D19DF805019DF828
:1012C000041140EA012020B1012803D002280AD1EC
:1012D00001E009E008E0BDF81602142802D101205F
:1012E0009049087000E000BFCEE09DF81C02022883
:1012F000FAD19DF805019DF8041140EA0120052866
:1013000072D2DFE800F003040572BE00BBE0BAE071
:10131000BDF81602142866D10002ADF800020020C4
:101320008DF80202002180A8C170017141714FF453
:10133000B050ADF806027C4800788DF808027A4873
:101340000088010A80A8417277480068010C80A8D3
:10135000817275480068010E80A8C17202208DF864
:101360000C020C208DF80D0200208DF808000220E0
:101370008DF809006D48008800128DF80A006B484E
:1013800000788DF80B006A48008800128DF80C0078
:10139000674800788DF80D006648008800128DF8C7
:1013A0000E00644800788DF80F0063480068000E56
:1013B0008DF8100060480068000C8DF811005E4840
:1013C0000088000A8DF812005B4800788DF8130041
:1013D0009DF80D0202AB80AA4BF6BB3100904AF695
:1013E000AA20FFF775FE4EE04CE0BDF81602142867
:1013F00046D10002ADF8000200208DF80202002163
:1014000080A8C170017141714FF4B050ADF806026F
:10141000454800788DF8080243480088010A80A8F2
:10142000417241480068010C80A881723E48006802
:10143000010E80A8C17202208DF80C0203208DF8E5
:101440000D0200208DF8080003208DF809009DF89A
:10145000060128B90020394908608DF80A0004E027
:101460000120364908608DF80A009DF80D0202AB94
:1014700080AA4BF6BB3100904AF6AA20FFF728FE5F
:1014800001E000E000BF00BF01200DF5087D10BDA8
:1014900010B50024002240F22441214800F0EDFE66
:1014A000002202211D4801F0EAF800BF22E004EB0F
:1014B0004401C1EBC412224901EB4200FFF73CFC9E
:1014C000012815D104EB4401C1EBC4121C4901EB06
:1014D0004200FFF7CAFE50B104EB4400C0EBC41158
:1014E000174800EB4100002101604160018103E0E9
:1014F000601CC4B2052CDADB00BF012202210748C0
:1015000001F0BDF8012240F22441054800F0B5FE8B
:1015100010BD0000620E00205C0C00208000024024
:10152000004400401000002054000020060000206D
:10153000080000200A0000200C00002080812142C9
:101540004413002008B501210C2000F057FD802035
:10155000ADF8000010208DF8030003208DF8020084
:1015600069463A4800F08EFA43F20100ADF80000F7
:1015700010208DF8030003208DF8020069463348DF
:1015800000F080FA41F21010ADF8000010208DF844
:10159000030003208DF8020069462D4800F072FA1E
:1015A00000202C4908602C49C1F8A00101202B49DA
:1015B0000860091D08600020284930390860284962
:1015C000C1F89C0108BD10B522487C380068202075
:1015D00002F039F810BD1FB50121084600F00EFDDC
:1015E0000121042000F00AFD2020ADF800000420B5
:1015F0008DF8030003208DF802006946144800F0BE
:1016000041FA0521002000F053FB20200290002029
:101610008DF80C000C208DF80D0001208DF80E00C7
:1016200002A801F099FF17208DF8040002208DF820
:10163000050003208DF8060001208DF8070001A8A1
:1016400000F057F9FFF77EFF1FBD0000000C0140BE
:10165000000801409001214200002142B081214256
:10166000008021422DE9F04707460C4615461E46EC
:10167000DDE908890021384600F0F5FF384600F022
:1016800025FF154804604560C0F80880C66000204A
:10169000114908618020486100208861C8610846BE
:1016A000C0F820904FF440504862002088623846CD
:1016B00000F0AEFFBDE8F08770B504460D4600218E
:1016C000204600F0D0FF2946204600F0E1FF01212E
:1016D000204600F0C8FF70BD581800207FB50546B1
:1016E0000C460121084600F096FCADF80850ADF814
:1016F00004400020ADF80A00ADF8060001A94FF043
:10170000804001F0E1F801221146900701F053FCFE
:101710001C208DF8000000208DF8010003208DF8BA
:10172000020001208DF80300684600F0E2F8012174
:10173000880701F025FC7FBD10B500214FF08040E7
:1017400001F01EFC10BD10B50121880701F018FC46
:1017500010BD10B50121880701F0DBFEC8B10121E1
:10176000880701F0E7FEFFF7DFF9FFF7CFFB094835
:101770000088401C074908800748008820B90648AF
:1017800000880549088004E003480088401E02499B
:10179000088010BD120000201400002070B505461E
:1017A0000C4645F2555001F057FF284601F057FF0F
:1017B000204601F057FF01F058FF01F05BFF70BDBC
:1017C00010B501F052FF10BD10B56FF0040000F02D
:1017D000DAF82E4800682E49B0FBF1F02D49087068
:1017E0000846007800EB4001C1EBC0104FF6FF71D6
:1017F00001EAC0002849088010BD0146254A127838
:101800004A434FF0E0235A6100229A611A46126956
:1018100042F001021A6100BF4FF0E022106900F0AF
:1018200001021AB100F48032002AF5D04FF0E02214
:10183000126922F001024FF0E0231A6100229A613E
:1018400070470146144A12884A434FF0E0235A6118
:1018500000229A611A46126942F001021A6100BF21
:101860004FF0E022106900F001021AB100F480325A
:10187000002AF5D04FF0E022126922F001024FF069
:10188000E0231A6100229A617047000028000020BE
:1018900000127A003C0000203E00002010B54FF4FA
:1018A000A06000F021F810BD0948804709480047B2
:1018B000FEE7FEE7FEE7FEE7FEE7FEE7FEE7FEE700
:1018C000FEE7FEE704480549054A064B704700005D
:1018D00017050008ED000008E8180020E81E0020A9
:1018E000E81A0020E81A002031490143314A11600A
:1018F000704770B5002100230F22C47804B32D4C2B
:10190000246804F4E064C4F5E064210AC1F104032E
:10191000CA40447804FA03F1847814402143090151
:10192000254C0678A155047804F01F050124AC402D
:1019300005786D11AD0005F1E025C5F8004109E01D
:10194000047804F01F050124AC401C4D0678761184
:1019500045F8264070BD1A4A0A400243154B1B1F2A
:101960001A60704739B1134A121D12680243114BB5
:101970001B1D1A6006E00F4A121D126882430D4BB0
:101980001B1D1A607047042808D14FF0E021096937
:1019900041F004014FF0E022116107E04FF0E02137
:1019A000096921F004014FF0E02211617047000045
:1019B0000000FA050CED00E000E400E080E100E04A
:1019C00080FFFF1F10B50446CC48844208D1012196
:1019D000042000F02DFB0021042000F029FB46E04C
:1019E000C748844208D10121082000F021FB0021D2
:1019F000082000F01DFB3AE0C248844208D10121D2
:101A0000102000F015FB0021102000F011FB2EE04B
:101A1000BD48844208D10121202000F009FB0021AB
:101A2000202000F005FB22E0B848844208D10121C3
:101A3000402000F0FDFA0021402000F0F9FA16E005
:101A4000B348844208D10121802000F0F1FA00213E
:101A5000802000F0EDFA0AE0AE48844207D101216F
:101A6000801500F0E5FA0021A01500F0E1FA10BDA4
:101A700010B50121084600F0DBFA0021012000F03A
:101A8000D7FA10BD2DE9F0410246002500260020BE
:101A900000230024002791F803C00CF00F0591F8F3
:101AA00003C00CF0100CBCF1000F03D091F802C081
:101AB0004CEA050591F800C0BCF1000F31D0146864
:101AC00000202BE04FF0010C0CFA00F3B1F800C03D
:101AD0000CEA03069E4220D183004FF00F0C0CFA53
:101AE00003F7BC4305FA03FC4CEA040491F803C075
:101AF000BCF1280F06D14FF0010C0CFA00FCC2F823
:101B000014C00AE091F803C0BCF1480F05D14FF0B2
:101B1000010C0CFA00FCC2F810C0401C0828D1D3FC
:101B20001460B1F800C0BCF1FF0F34DD5468002030
:101B30002EE000F1080C4FF0010808FA0CF3B1F8A0
:101B400000C00CEA03069E4221D183004FF00F0C27
:101B50000CFA03F7BC4305FA03FC4CEA040491F8C1
:101B600003C0BCF1280F05D100F1080C08FA0CF8ED
:101B7000C2F8148091F803C0BCF1480F07D100F1FE
:101B8000080C4FF0010808FA0CF8C2F81080401C4D
:101B90000828CED35460BDE8F0814FF6FF71018074
:101BA000022181700421C1707047024600209368B1
:101BB0000B400BB1012000E000207047014688680F
:101BC00080B2704702460020D3680B400BB1012061
:101BD00000E0002070470146C86880B2704701618C
:101BE0007047416170470AB1016100E0416170478F
:101BF000C16070474FF480320A4382618161826123
:101C000082698269704702460020434B18684FF68C
:101C10008073184040EA021008433F4B1860704739
:101C20003E49C8617047F0B50A46002300240021F0
:101C3000002500F00046B6F1004F02D1364EF169A2
:101C400001E0354E7168C0F3034583B200F44016DD
:101C5000B6F5401F08D121F070612F4E766826F04E
:101C600070662D4F7E6012E000F48016B6F5801F7E
:101C700006D1032606FA05F4A14341F0706106E09F
:101C8000460D360103FA06F6B14341F0706122B108
:101C9000460D360103FA06F6314300F00046B6F170
:101CA000004F02D11C4EF16101E01B4E7160F0BD8E
:101CB00030B500228B071C0F0F2303FA04F2164BDA
:101CC00008338C1053F824309343134C08348D1090
:101CD00044F8253023468C1053F824308C07240F09
:101CE00000FA04F423430C4C08348D1044F82530DA
:101CF00030BD0A49DC31086070470000000801402F
:101D0000000C014000100140001401400018014087
:101D1000001C014000200140000001400000204262
:101D2000DF48006840F00100DD490860084640686F
:101D3000DC490840DA49486008460068DA4908404A
:101D4000D74908600846006820F4802008600846EB
:101D5000406820F4FE0048604FF41F008860704720
:101D6000CF49096821F48031CD4A116011460968D4
:101D700021F480211160B0F5803F03D0B0F5802FB1
:101D80000ED106E0C649096841F48031C44A1160A9
:101D900007E0C349096841F4A021C14A116000E08D
:101DA00000BF00BF704710B501460022002300208D
:101DB0004A11012A02D1BA4C236806E0022A02D154
:101DC000B74C236A01E0B64C636A01F01F0201249C
:101DD00094401C400CB1012000E0002010BD38B53B
:101DE000002000900024002500BF3120FFF7DBFF1A
:101DF00005460098401C00900098B0F5A06F01D0F7
:101E0000002DF2D03120FFF7CEFF08B1012400E011
:101E10000024204638BD01460020A14A106820F069
:101E2000F80040EAC10010607047A04908607047A0
:101E3000024600209A4B586820F47C1042EA0103C5
:101E40001843974B58607047984908667047014699
:101E50000020934A506820F0030008435060704708
:101E60008F48406800F00C007047014600208C4A03
:101E7000506820F0F0000843506070470146002091
:101E8000874A506820F4E06008435060704701467C
:101E90000020834A506820F4605040EAC10050603E
:101EA000704729B17E4A527A02437D4B5A7204E050
:101EB0007B4A527A82437A4B5A7270477B49D831B7
:101EC0000860704701460020754A506820F4404081
:101ED0000843506070470021714A20321170704AE7
:101EE00082F82010012802D004280AD104E0012140
:101EF0006B4A2032117005E00521694A20321170C9
:101F000000E000BF00BF704769490860704764493E
:101F1000096A0143624A11627047654944390860A1
:101F2000704730B500210022002400235C4D6D680D
:101F300005F00C0121B1042905D0082923D105E0C1
:101F40005C4D056022E05B4D05601FE0544D6D68FF
:101F500005F47012524D6D6805F48034022505EBCE
:101F600092421CB9544D554305600BE04C4D6D68D1
:101F700005F400351DB1504D5543056002E04D4D4F
:101F80005543056002E04B4D056000BF00BF444D66
:101F90006D6805F0F0010909484D6B5C0568DD408E
:101FA00045603F4D6D6805F4E061090A434D6B5C87
:101FB0004568DD4085603A4D6D6805F46051C90A99
:101FC0003E4D6B5C4568DD40C560354D6D6805F480
:101FD0004041890B3A4D6B5CC568B5FBF3F5056173
:101FE00030BD29B12E4A526902432D4B5A6104E09B
:101FF0002B4A526982432A4B5A61704729B1284AB9
:1020000092690243264B9A6104E0254A9269824311
:10201000234B9A61704729B1214AD2690243204B70
:10202000DA6104E01E4AD26982431D4BDA617047CF
:1020300029B11B4AD2680243194BDA6004E0184AFE
:10204000D2688243164BDA60704729B1144A12698C
:102050000243134B1A6104E0114A12698243104B88
:102060001A61704712494039086070470F49C864C7
:1020700070470B49C87170470948406A40F080704A
:1020800007494862704701460020054A92680A40A5
:102090000AB1012000E000207047014988727047B2
:1020A000001002400000FFF8FFFFF6FE0000424271
:1020B0008004424200127A0000093D0040000020E6
:1020C0005000002010B50446FB48844209D101218C
:1020D0008803FFF7ADFF00214FF48040FFF7A8FF12
:1020E00032E0F648844209D101214804FFF7ADFFF0
:1020F00000214FF40030FFF7A8FF25E0F0488442AC
:1021000009D101218804FFF7A0FF00214FF48020AE
:10211000FFF79BFF18E0EB48844209D10121C80476
:10212000FFF793FF00214FF40020FFF78EFF0BE035
:10213000E548844208D101210805FFF786FF002108
:102140004FF48010FFF781FF10BD2DE9F04786B0F6
:1021500005460E460024A24600BFA1460027B089CE
:1021600000B100BF2F462C8A4CF6FF700440F08867
:1021700004432C82AC894EF6F3100440B0883189B8
:102180000843718908430443AC81AC8A4FF6FF4091
:102190000440B0890443AC8201A8FFF7C2FEC648E0
:1021A000874202D1DDF810A001E0DDF80CA0A8897B
:1021B00000F4004040B10AEBCA0000EB0A1031689D
:1021C0004900B0FBF1F807E00AEBCA0000EB0A1087
:1021D00031688900B0FBF1F86420B8FBF0F004012D
:1021E0002009642101FB1089A88900F4004040B156
:1021F000322000EBC900B0FBF1F000F0070004430F
:1022000008E0322000EB09106421B0FBF1F000F08F
:102210000F0004432C8106B0BDE8F0874FF416513F
:10222000016000218180C18001810C214181002158
:102230008181704710B502460020108A4FF2FF03DB
:1022400018400B884C8823438C882343CC88234335
:102250001843108210BD0021018041808180C1801F
:10226000704721B1828942F40052828104E0828960
:102270004DF6FF731A4082817047F0B50346002483
:1022800000260025002040F66A17B94200D100BFA1
:102290001846C1F3421401F01F06012707FA06F59C
:1022A000012C01D10C3004E0022C01D1103000E0EF
:1022B00014301AB107682F43076002E00768AF4384
:1022C0000760F0BD1AB1838A0B43838202E0838AE0
:1022D0008B4383827047028A4FF6F0731A40028262
:1022E000028A0A430282704782894FF2FF731A40C2
:1022F000828182890A438281704721B1828942F0BA
:102300000202828104E082894FF6FD731A408281C5
:102310007047028A4FF6DF731A400282028A0A432C
:102320000282704721B1028A42F48042028204E0B4
:10233000028A4BF6FF731A4002827047C1F308020B
:102340008280704701468888C0F308007047818901
:1023500041F0010181817047028BD2B20283028B6E
:1023600042EA012202837047028B02F47F42028319
:10237000028B0A430283704721B1828A42F0200215
:10238000828204E0828A4FF6DF731A4082827047AD
:1023900021B1828A42F01002828204E0828A4FF6E2
:1023A000EF731A408282704721B1828A42F008029C
:1023B000828204E0828A4FF6F7731A408282704765
:1023C00021B1828942F40042828103E08289C2F312
:1023D0000E028281704721B1828A42F400628282B9
:1023E00004E0828A4FF2FF731A4082827047828A29
:1023F0004FF6FB731A408282828A0A4382827047B8
:1024000021B1828A42F00202828204E0828A4FF67F
:10241000FD731A408282704702460020B1F5007FAA
:1024200000D100BF13880B400BB1012000E0002059
:10243000704701F40072B2F5007F00D100BFCA43BB
:102440000280704770B5024600240023002500205A
:1024500040F66A16B14200D100BFC1F3421501F047
:102460001F03012606FA03F3012D02D1968933409A
:1024700006E0022D02D1168A334001E0968A3340ED
:102480000C12012606FA04F41688344013B10CB17C
:10249000012000E0002070BD10B50022002340F6AE
:1024A0006A14A14200D100BF0A1201249440A3B2D1
:1024B000DC43048010BD00000038014000440040AF
:1024C00000480040004C00400050004001684FF6BA
:1024D000FE72114001600021016041608160C160B5
:1024E0008D49884208D18C490839496841F00F016B
:1024F000894A083A51608AE087491431884208D1F4
:1025000085490839496841F0F001834A083A516029
:102510007DE081492831884208D17F4908394968DE
:1025200041F470617C4A083A516070E07A493C316C
:10253000884208D178490839496841F47041764A9F
:10254000083A516063E074495031884208D17249B9
:102550000839496841F470216F4A083A516056E0E1
:102560006D496431884208D16B490839496841F4A2
:102570007001694A083A516049E0674978318842F8
:1025800008D165490839496841F07061624A083AE2
:1025900051603CE06149884206D1011F096841F061
:1025A0000F01021F116032E05C491431884208D1EA
:1025B0005A49091F096841F0F001584A121F116079
:1025C00025E056492831884208D15449091F096835
:1025D00041F47061514A121F116018E04F493C31BB
:1025E000884208D14D49091F096841F470414B4A9E
:1025F000121F11600BE049495031884207D1474909
:10260000091F096841F47021444A121F1160704784
:1026100010B50022026847F6F0739A430C6A8B6883
:1026200023430C6923434C6923438C692343CC69BE
:1026300023434C6A23438C6A23431A430260CB68CA
:1026400043600B6883604B68C36010BD002101606C
:1026500041608160C160016141618161C16101626C
:1026600041628162704721B1026842F0010202605A
:1026700004E002684FF6FE731A40026070471AB118
:1026800003680B43036002E003688B4303607047F9
:10269000416070470146486880B27047014600209B
:1026A000002201F080531BB11C4B083B1A6802E06A
:1026B000194B083B1A6802EA01030BB1012000E044
:1026C0000020704700F0805119B11449091F0860BB
:1026D00002E0114908394860704701460020002295
:1026E00001F080531BB10D4B083B1A6802E00A4B06
:1026F000083B1A6802EA01030BB1012000E0002048
:10270000704700F0805119B10449091F086002E0C8
:102710000149083948607047080002400804024037
:1027200010B50446FE48844208D10121C014FFF7C9
:102730007FFC0021E014FFF77BFCC4E0B4F1804F84
:1027400008D101210846FFF780FC00210120FFF796
:102750007CFCB8E0F348844208D101210220FFF755
:1027600074FC00210220FFF770FCACE0EE488442CC
:1027700008D101210420FFF768FC00210420FFF7A5
:1027800064FCA0E0E948844208D101210820FFF759
:102790005CFC00210820FFF758FC94E0E4488442E8
:1027A00008D101211020FFF750FC00211020FFF775
:1027B0004CFC88E0DF48844208D101212020FFF74B
:1027C00044FC00212020FFF740FC7CE0DA488442F2
:1027D00008D101214014FFF72BFC00216014FFF702
:1027E00027FC70E0D548844209D10121C804FFF7D5
:1027F0001FFC00214FF40020FFF71AFC63E0D048D3
:10280000844209D101210805FFF712FC00214FF491
:102810008010FFF70DFC56E0CA48844209D101211F
:102820004805FFF705FC00214FF40010FFF700FCFE
:1028300049E0C548844208D101214020FFF705FC4A
:1028400000214020FFF701FC3DE0C048844208D150
:1028500001218020FFF7F9FB00218020FFF7F5FB25
:1028600031E0BB48844208D101218015FFF7EDFB20
:102870000021A015FFF7E9FB25E0B648844209D105
:1028800001210804FFF7D4FB00214FF48030FFF74B
:10289000CFFB18E0B048844209D101214804FFF77A
:1028A000C7FB00214FF40030FFF7C2FB0BE0AB4841
:1028B000844208D101218804FFF7BAFB00214FF4BC
:1028C0008020FFF7B5FB10BD00220288944B984290
:1028D0000ED0994B98420BD0B0F1804F08D0914B5D
:1028E000984205D0904B984202D0904B984204D128
:1028F0004FF68F731A404B881A438D4B984207D07E
:102900008C4B984204D04FF6FF431A40CB881A43B1
:1029100002808B8883850B880385814B98420BD07E
:10292000854B984208D08B4B984205D08A4B9842F1
:1029300002D08A4B984201D10B7A0386012383820D
:10294000704770B5002400220023058C4FF6FE76F8
:1029500035400584028C8388048B4FF68F752C409C
:10296000B51E2C400D882C43751E2A400D892A4324
:102970004D882A436A4DA8420BD06F4DA84208D01B
:10298000744DA84205D0744DA84202D0734DA842A0
:1029900013D14FF6F7752A404D892A434FF6FB7540
:1029A0002A408D882A434FF6FF652B404FF6FF558E
:1029B0002B408D892B43CD892B4383800483CD8885
:1029C0008586028470BD70B5002400220023058C2A
:1029D0004FF6EF7635400584028C8388048B48F6E9
:1029E000FF752C404FF6FF452C400D884FF6FF76C3
:1029F00006EA05252C434FF6DF752A400D8906EAC5
:102A000005152A434D8806EA05152A43444DA84278
:102A100002D0494DA8421DD14FF67F752A404D89FD
:102A20004FF6FF7606EA05152A434FF6BF752A4092
:102A30008D8806EA05152A434FF6FF352B404FF2E5
:102A4000FF752B408D8906EA85052B43CD8906EA63
:102A500085052B4383800483CD880587028470BD60
:102A600070B5002400220023058C4FF6FF66354028
:102A70000584028C8388848B4FF68F752C404FF62B
:102A8000FC752C400D882C434FF6FF552A400D89CC
:102A90004FF6FF7606EA05252A434D8806EA052506
:102AA0002A431F4DA84202D0234DA8421DD14FF208
:102AB000FF752A404D894FF6FF7606EA05252A4321
:102AC0004FF6FF352A408D8806EA05252A434EF643
:102AD000FF752B404DF6FF752B408D8906EA0515D5
:102AE0002B43CD8906EA05152B4383808483CD884B
:102AF0008587028470BD70B5002200230024058CF8
:102B00004EF6FF7635400584038C8488828B48F628
:102B1000FF752A404FF6FF452A400D8820E000004F
:102B2000002C01400004004000080040000C004060
:102B3000001000400014004000340140004C0140EF
:102B4000005001400054014000180040001C0040AB
:102B50000020004000400140004401400048014086
:102B60004FF6FF7606EA05252A434DF6FF752B4002
:102B70000D8906EA05352B434D8806EA05352B43BA
:102B8000FA4DA84202D0FA4DA84208D14BF6FF7583
:102B90002C408D894FF6FF7606EA85152C438480FC
:102BA0008283CD88A0F84050038470BD828B4FF2A1
:102BB000FF331A408283828B4FF6FF7303EA0123AF
:102BC0001A4382837047F0B50C4615460022002157
:102BD0000026078C4EF6FF7C07EA0C070784828BE1
:102BE000018C4FF6FF7707EA043640F6FF473A407C
:102BF0004FF6FF7707EA05273A434FF6FF7707EAD4
:102C000003373A43D94FB8420ED0D94FB8420BD010
:102C1000B0F1804F08D0D74FB84205D0D64FB84258
:102C200002D0D64FB84206D14DF6FF77394046F470
:102C30008057394305E047F6FF57394044F4805741
:102C4000394382830184F0BD828B4FF6F3731A40BF
:102C50008283828B0A4382837047F0B50C46154607
:102C6000002200210026078C4FF6FF6C07EA0C07B4
:102C70000784828B018C4FF6FF7707EA04264FF614
:102C80000C773A404FF6FF7707EA03172F433A4392
:102C9000B64FB8420ED0B64FB8420BD0B0F1804F0D
:102CA00008D0B44FB84205D0B34FB84202D0B34FAA
:102CB000B84206D14FF6FF57394046F48077394382
:102CC00005E04FF2FF57394044F48077394382835F
:102CD0000184F0BD028B4FF2FF331A400283028B56
:102CE0004FF6FF7303EA01231A4302837047F0B5DE
:102CF0000C461546002200210026078C4FF6EF7C7B
:102D000007EA0C070784028B018C4FF6FF7707EA6E
:102D1000041640F6FF473A404FF6FF7707EA0337BD
:102D20003A434FF6FF7707EA05273A438F4FB842F9
:102D30000ED08F4FB8420BD0B0F1804F08D08D4FDE
:102D4000B84205D08C4FB84202D08C4FB84206D161
:102D50004FF6DF77394046F01007394305E04FF66C
:102D60005F77394044F01007394302830184F0BD96
:102D7000028B4FF6F3731A400283028B0A430283DD
:102D80007047F0B50C46154600220021068C4FF620
:102D9000FE773E400684028B018C4FF60C76324063
:102DA0007E1C06EA03162E433243704EB0420ED00C
:102DB0006F4EB0420BD0B0F1804F08D06D4EB04294
:102DC00005D06D4EB04202D06C4EB04206D14FF6E7
:102DD000FD76314044F00106314305E04FF6F576CB
:102DE000314044F00106314302830184F0BD70B5E7
:102DF00005460C465D4885420ED05D4885420BD0A5
:102E0000B5F1804F08D05B48854205D05A488542CD
:102E100002D05A48854200D100E000BF208850B956
:102E20002389A28861882846FFF7ABFFE1882846FE
:102E3000FFF79EFF25E0208804280AD12389A28875
:102E400061882846FFF753FFE1882846FFF742FFD5
:102E500017E0208808280AD12389A288618828469B
:102E6000FFF7FBFEE1882846FFF7EEFE09E0238925
:102E7000A28861882846FFF7A6FEE1882846FFF76A
:102E800095FE70BD2DE9F04105460C460026012750
:102E9000608808B9022600E00026A088012801D138
:102EA000022700E001272088A0B92389A288618831
:102EB0002846FFF766FFE1882846FFF759FF238978
:102EC0003A4631462846FFF712FFE1882846FFF7C9
:102ED00001FF13E02389A28861882846FFF707FFD6
:102EE000E1882846FFF7F6FE23893A463146284610
:102EF000FFF747FFE1882846FFF73AFFBDE8F0817A
:102F00000A884B881A438B881A43CB881A430B894B
:102F10001A434B891A438B891A43A0F844207047FF
:102F20004FF6FF71818000210180C18041800172D4
:102F300070470021018041808180C18001814181F1
:102F40008181C18170470021018041800121818000
:102F50000021C18001817047002101804180818072
:102F6000C18001814181818170470000002C0140B6
:102F7000003401400004004000080040000C004004
:102F800021B1028842F00102028004E002884FF67B
:102F9000FE731A400280704731B1B0F8442042F409
:102FA0000042A0F8442005E0B0F84420C2F30E022D
:102FB000A0F8442070471AB183890B43838102E053
:102FC00083898B43838170478182704741EA020382
:102FD000A0F8483070471AB183890B43838102E01F
:102FE00083898B438381704701894FF6F8721140C2
:102FF000018170470A46002101894FF68F731940FD
:1030000011430181704730B504460D4629462046DC
:10301000FFF7F0FF208940F00700208130BD2DE947
:10302000F04104460D4616461F46602D06D13B462C
:10303000012231462046FFF75AFE05E03B460122B9
:1030400031462046FFF79DFE29462046FFF7D2FF76
:10305000208940F007002081BDE8F08130B50C46A2
:1030600000210189C9B24FF6FF7505EA0325154312
:1030700025432943018130BD2DE9F04105460E4627
:1030800017469846002443463A4631462846FFF7FD
:10309000E5FF2C894FF6F870044044F007044FF622
:1030A0008F70044044F070042C81BDE8F081F0B5CD
:1030B00004460D4616461F463B46324629462046E4
:1030C000FFF7CCFF208940F480402081F0BD0185CE
:1030D000828270470A46002101884FF68F7319409B
:1030E000114301807047F0B50C4615461E4600217D
:1030F000002200230189028B038C4FF6F8773940B8
:1031000021434FF6FC473A4040F201173A434FF64D
:10311000DD773B404FF6FF7707EA06172F433B4327
:10312000018102830384F0BD0A460021018B4FF622
:103130008F7319401143018370470A460021018BA8
:1031400048F6FF7319404FF6FF7303EA0223194351
:10315000018370470A460021818B4FF68F73194017
:103160001143818370470A460021818B48F6FF7323
:1031700019404FF6FF7303EA022319438183704716
:1031800021B1028842F08002028004E002884FF6FA
:103190007F731A400280704721B1828842F0040296
:1031A000828004E082884FF6FB731A408280704769
:1031B00021B1828842F00802828004E082884FF6C2
:1031C000F7731A408280704721B1828842F0010271
:1031D000828004E082884FF6FE731A408280704736
:1031E0000A460021018B4FF6F77319401143018302
:1031F00070470A460021018B4FF2FF7319404FF6CA
:10320000FF7303EA02231943018370470A46002132
:10321000818B4FF6F77319401143818370470A463B
:103220000021818B4FF2FF7319404FF6FF7303EAC1
:1032300002231943818370470A460021018B4FF610
:10324000FB7319401143018370470A460021018B2B
:103250004FF6FF3319404FF6FF7303EA0223194379
:10326000018370470A460021818B4FF6FB7319409A
:103270001143818370470A460021818B4FF6FF334B
:1032800019404FF6FF7303EA022319438183704705
:103290000A460021018B4FF67F73194011430183C9
:1032A00070470A460021018BC1F30E014FF6FF73F0
:1032B00003EA02231943018370470A460021818BE8
:1032C0004FF67F7319401143818370470A460021EE
:1032D000818BC1F30E014FF6FF7303EA02231943FA
:1032E000818370470A460021018C4FF6FD73194017
:1032F0001143018470470A460021018C4FF6F77391
:1033000019401143018470470A460021018C4FF691
:10331000DF7319404FF6FF7303EA02131943018468
:1033200070470A460021018C4FF67F7319404FF613
:10333000FF7303EA02131943018470470A46002110
:10334000018C4FF6FF5319404FF6FF7303EA022337
:103350001943018470470A460021018C4FF2FF7324
:1033600019404FF6FF7303EA0223194301847047A3
:103370000A460021018C4DF6FF7319404FF6FF738A
:1033800003EA023319430184704730B50023012456
:103390008C40A3B2048C9C430484048C02FA01F593
:1033A000ADB22C43048430BD30B5002304248C40DE
:1033B000A3B2048C9C430484048C02FA01F5ADB2E0
:1033C0002C43048430BD70B5034600200024184609
:1033D000183001258D40ACB21D8CA5431D8409B168
:1033E000082909D100EB6100056825F0700505602A
:1033F0000568154305600EE00D1FC5F34E05284412
:10340000056825F4E045056005684FF6FF7606EA95
:1034100002263543056070BD21B1028842F00202E8
:10342000028004E002884FF6FD731A400280704764
:1034300021B1028842F00402028004E002884FF6C3
:10344000FB731A400280704721B1828842F08002EB
:10345000828004E082884FF67F731A408280704732
:1034600002884FF6F7731A40028002880A430280EE
:10347000704782884FF68F731A40828082880A4391
:103480008280704702894FF6F8731A4002810289E0
:103490000A430281704702894FF67F731A40028106
:1034A00002890A4302817047818470478185704791
:1034B000818670470187704781877047A0F8401068
:1034C000704702884FF6FF431A40028002880A4381
:1034D000028070470146888E70470146088F70470A
:1034E0000146888F70470146B1F840007047014699
:1034F000888C70470146088D704702460020138A69
:103500000B400BB1012000E000207047CA4302824B
:10351000704730B50246002000230024158A05EAD2
:103520000103958905EA010413B10CB1012000E003
:10353000002030BDCA430282704700000020444989
:103540000860091D0860091D0860091D08604148E0
:103550003F4914310860704700213D498279002AB3
:103560003AD00A46126803689A430B461A600A1D4D
:10357000126803689A430B1D1A60027911440A68A5
:1035800003681A430A60324A0832126803689A4391
:103590002F4B08331A601A1D126803689A432C4B8C
:1035A0000C331A604279102A0ED11A1F1268036870
:1035B0001A43274B08331A601A1D126803681A430E
:1035C000234B0C331A600DE02149427911440A68FB
:1035D00003681A430A6005E0027911440A68036827
:1035E0009A430A6070470021016001710C2141710A
:1035F0000021817170471649103109680143144A4E
:1036000010321160704701460020114A14321268CE
:103610000A400AB1012000E0002070470C49143133
:1036200008607047014600200022094B1B6803EA2E
:103630000102074B14331B680B4013B10AB1012080
:1036400000E0002070470249143108607047000014
:1036500000040140FFFF0F000E49086070470D494C
:10366000486070470B49886070474AF6AA200949AC
:10367000086070474CF6CC40064908607047014628
:103680000020044AD2680A400AB1012000E000206C
:10369000704700000030004010B5044600F076F896
:1036A0000068005D000704D5DF2C02D0A4F12000E3
:1036B00010BD204610BD032A40F2308010F0030CEC
:1036C00000F0158011F8013BBCF1020F624498BF75
:1036D00011F801CB00F8013B38BF11F8013BA2F112
:1036E000040298BF00F801CB38BF00F8013B11F08D
:1036F000030300F05380083AC0F0088051F8043BFF
:10370000083A51F804CBA0E80810F5E7121D5CBF99
:1037100051F8043B40F8043BAFF30080D20724BFCC
:1037200011F8013B11F801CB48BF11F8012B24BF60
:1037300000F8013B00F801CB48BF00F8012B7047AF
:103740004FF000020429C0F0128010F0030C00F0CA
:103750005980CCF1040CBCF1020F18BF00F8012B0A
:10376000A8BF20F8022BA1EB0C0100F04BB85FEAD8
:10377000C17C24BF00F8012B00F8012B48BF00F8E2
:10378000012B7047704770477047000010B500F07C
:103790005FF8001D10BD00BFB501000010B5203A54
:1037A000C0F00B80B1E81850203AA0E81850B1E8FA
:1037B0001850A0E81850BFF4F5AF5FEA027C24BFB0
:1037C000B1E81850A0E8185044BF18C918C0BDE8A7
:1037D00010405FEA827C24BF51F8043B40F8043B70
:1037E00008BF7047D20728BF31F8023B48BF11F825
:1037F000012B28BF20F8023B48BF00F8012B70477F
:103800004FF0000200B5134694469646203922BF79
:10381000A0E80C50A0E80C50B1F12001BFF4F7AFC4
:10382000090728BFA0E80C5048BF0CC05DF804EBA6
:10383000890028BF40F8042B08BF704748BF20F814
:10384000022B11F0804F18BF00F8012B70470000C9
:1038500000487047A41800200048704784180020D2
:103860007546FFF7F9FFAE4605006946534620F05E
:103870000700854618B020B5FEF724F8BDE82040C3
:103880004FF000064FF000074FF000084FF0000B1C
:1038900021F00701AC46ACE8C009ACE8C009ACE8CF
:1038A000C009ACE8C0098D46704710B50446AFF3B7
:1038B00000802046BDE81040FCF768BC4FF0013C9A
:1038C00050F8042B51F8043B9A4221D1A2EB0C038F
:1038D000934313EACC1317D150F8042B51F8043B4F
:1038E0009A4215D1A2EB0C03934313EACC130BD1EC
:1038F00050F8042B51F8043B9A4209D1A2EB0C0377
:10390000934313EACC13DBD04FF00000704700BFA5
:10391000D01A01BAB1FA81F101F0180122FA01F0CE
:10392000CB40C1F12001DBB2C0B2C01A2CFA01F3C6
:10393000D11A914311EAC311E6D170470149182009
:10394000ABBEFEE7260002007047000010B500295C
:103950000AD00878002807D005487844FFF7AEFF62
:10396000002801D0002010BD0248784410BD00009E
:103970003E00000036000000A83A000800000020C9
:103980005400000028010008FC3A00085400002000
:10399000941E0000440100081001000043000000D4
:1039A000F8FFFFFF00404040404040404040414160
:1039B0004141414040404040404040404040404004
:1039C000404040404005020202020202020202029E
:1039D000020202020220202020202020202020029B
:1039E000020202020202909090909090101010102B
:1039F00010101010101010101010101010101010C7
:103A0000020202020202888888888888080808085A
:103A10000808080808080808080808080808080826
:103A2000020202024000000000000000000000004E
:103A30000000000000000000000000000000000086
:103A40000000000000000000000000000000000076
:103A50000000000000000000000000000000000066
:103A60000000000000000000000000000000000056
:103A70000000000000000000000000000000000046
:103A80000000000000000000000000000000000036
:103A90000000000000000000000000000000000026
:103AA0000000000000000000000000000000000016
:103AB0000000000000000000000000000000000105
:103AC00000000000000000000000000000000000F6
:103AD00000A24A04000000000000000001020304EC
:103AE00006070809000000000000000001020304AE
:0C3AF0000102030406070809020406088E
:04000005080000ED02
:00000001FF
