:0E044200E4F5C7F5C5F5C675C3FF75C4FF2206
:10037D00AD07AC06C2AF75C78175C5018CC3AF059E
:10038D008FC475C65A75C6A500E5C21203050DBD0D
:10039D0000010C740129F9E43AFAE51915197002F6
:0D03AD00151814451870D2120442D2AF2268
:1003F700AD07AC06C2AF8CC3AF058FC475C7817597
:0F040700C50375C65A75C6A500120442D2AF22AE
:1003BA00AD07AC06C2AF75C78175C5028CC3AF0560
:1003CA008FC41202ECF5C275C65A75C6A5000DBDDA
:1003DA0000010C740129F9E43AFAE51915197002B9
:0D03EA00151814451870D2120442D2AF222B
:1001BA005354433135462F4CCFB5C1D0B5A5C6AC43
:1001CA00BBFA454550524F4DB2E2CAD4B3CCD0F235
:1001DA00210D0A00C9C8C7F8B2C1B3CDEAB3C90D27
:1001EA000A00D0B4C8EBB2D9D7F7CDEAB3C90D0A21
:1001FA0000B6C1B3F6B5C4CABEDDC8E7CFC2A3BA5A
:10020A000D0A00C3FCC1EEB4EDCEF3210D0A00C8FD
:10021A00A5C4EABDF1C8D5B4CBC3C5D6D0A3ACC872
:10022A00CBC3E6CCD2BBA8CFE0D3B3BAECA1A3C868
:10023A00CBC3E6B2BBD6AABACEB4A6C8A5A3ACCCE9
:10024A00D2BBA8D2C0BEC9D0A6B4BAB7E7A1A30090
:10043000C202C200750D03750C04E4F50BC201F590
:020440000E228A
:07033F0074612515F8E6FFCB
:10034600EFC39430400CEFD394395006C3EF94308A
:10035600FF22EFC39441400BEFD394465005EF24A0
:10036600C9FF22EFC39461400BEFD394665005EFAB
:0703760024A9FF227FFF22F2
:1000ED00E4F513F514E50EC3940350030201B5E5D1
:1000FD000ED39405504C751502E515C3950E502A77
:10010D0012033FEFD3940940030201B512033FEFF1
:10011D00FB7A00AE13AF147C007D0A120317EF2B90
:10012D00F514EA3EF513051580CFC3E514947CE56F
:10013D001394005073E51475140025E0F513FEAF0C
:10014D001422E50E640870607863E6643070590817
:10015D00E6FF64786005EF6458704D751504120361
:10016D003FEFD3940F4002803F12033FEFFD7C0021
:10017D00E514C4F8540FC868FFE513C454F048FEE5
:10018D00EF2DF514EC3EF5130515E515C394084058
:10019D00CDAE13AF14E4FCFDFB7AF8F9F8D31203DE
:0C01AD00294005AE13AF14227EFF7FFF37
:0101B9002223
:080003008F08D2022002FD2249
:10000E00538EFD438E805389FB5389FC758CFDE422
:10001E00F58AD2A9D2B9D28CD2AF1204307BFF7A34
:10002E000179BA1204163001FDE50ED39400500387
:10003E000200E57862E6642060030200E51200ED3E
:10004E008E118F12E4FCFDFB7AF8F9F8D312032916
:10005E00407C7861E6B4450FAF12AE111203F77B08
:10006E00FF7A0179DE806D7861E6B4571B7BFF7AEB
:10007E00027919751800751940AF12AE111203BA34
:10008E007BFF7A0179EC804C7861E6645270377BA5
:10009E00FF7A0179FB1204167B007A00792175181C
:1000AE0000751940AF12AE1112037DE4FE74212EBD
:1000BE00F8E6FF1200030EBE40F37F0D1200037F21
:1000CE000A12000380117BFF7A02790D80067BFFF6
:0F00DE007A02790D120416E4F50EC20102003405
:100416001202ECFFD3940040108F08D2022002FD96
:0A042600740129F9E43AFA80E72294
:03000B0002025A94
:10025A00C0E0C0D075D000C00030003D150CE50CE0
:10026A007042750C031509E5097020C20030B034DC
:10027A002001317461250EF8A60F050EE50EC39410
:10028A00104003750E00750B698019E50FC313F54D
:10029A000F30B010430F80800B20B008D200750CCD
:1002AA0004750909E50BD394004005D50B02D20168
:1002BA00300228150DE50D7022750D03E50A700A46
:1002CA00C2B1850810750A098011D50A06D2B1C2D1
:1002DA00028008E510C313F51092B1D000D0D0D037
:0202EA00E03200
:03000000020450A7
:0C045000787FE4F6D8FD75817002000E84
:1002EC00BB010689828A83E0225002E722BBFE0210
:0902FC00E32289828A83E4932243
:10030500BB010689828A83F0225002F722BBFE01D7
:02031500F322D1
:10031700EF8DF0A4A8F0CF8CF0A428CE8DF0A42EFA
:02032700FE22B4
:10032900EB9FF5F0EA9E42F0E99D42F0EC6480C84B
:0603390064809845F022EB
:00000001FF
